:100000000C94080F0C94300F0C94300F0C94300F9C
:100010000C94300F0C94300F0C94300F0C949F1DE7
:100020000C94300F0C94300F0C94300F0C94BC1FB8
:100030000C94300F0C94300F0C94300F0C94300F44
:100040000C94531E0C94300F0C94211E0C94FB1D29
:100050000C94300F0C94300F0C94300F0C94300F24
:100060000C949D1E0C94300F07634236B79BD8A7A3
:100070001A39685618AEBAAB558C1D3CB7CC5763CD
:10008000BD6DEDFD753EF6177231BF000000803F7B
:1000900008000000BE922449123EABAAAA2ABECD97
:1000A000CCCC4C3E00000080BEABAAAAAA3E000009
:1000B0000000BF000000803F000000000008417801
:1000C000D3BB4387D1133D190E3CC3BD4282AD2B38
:1000D0003E68EC8276BED98FE1A93E4C80EFFFBE30
:1000E00001C4FF7F3F0000000000FB00000102038D
:1000F0000100ECC400FBFB14141E1EA6A63C3C2D04
:100100002D1000000000F60000FBFB14141E1EB0B2
:10011000B03C3CD8D81000000014EC0700FBFB14E6
:1001200014CE3CFBFB3CE2C4C408020000ECD8F94E
:1001300000FBFB141432BAFBFB283CC4C4200000B3
:100140000000000000000000001E1EE2E21E1EE291
:10015000E208000000F500000100000000B000000F
:10016000000000003C3C3C3CD3D3D3D30F00000044
:1001700000140000000000003C3C3C413C3CC9C96C
:100180000F000000BA140000000000000F0FF1F192
:100190003C3CC9C90F0A0000BA3200000000000050
:1001A0000F0FF1F13C3CC9C91400000032320000CD
:1001B000000000000F0FF1F13C3CC9BF1900000026
:1001C0003214000000000000B00FF1923C3CC9BFA7
:1001D000190000002DB0000000000000B03C3C926F
:1001E0003C3CC9BF140000002DB0DD000000000041
:1001F000B00FF1923CC437BF140000002DB0B00026
:1002000000000000B00FF1923C3CC928140000002F
:100210002DB0000000000000B00FF1463C3CC928A2
:100220000A00000000000000000000001E1EE2E2C4
:100230001E1EE2E208000000FA0000010102031E97
:100240001E0000000000003C3C46460F0FBABA06F4
:1002500000000000D80000000000001E1E5F5F3C90
:100260003CBABA0601000005050000000000004B82
:100270004B3737CECEB5B5080000000505000000AD
:100280000000004BBA3737CE46B5B5080000003C39
:10029000E2D3000000000046BA3700E2D3B5D3082D
:1002A00001000000000000000000001E1EE2E21E2F
:1002B0001EE2E208000000FB0000010203021E141F
:1002C00000000FF63CF6282855D30A3C0FD3060051
:1002D00000002D14D3000FF63CF63C354BC4E22849
:1002E00000EB020A00001E14C9000FF63CF6282895
:1002F00055D30A3200D3080000002819E2000FF697
:100300003CF6282846D30A32E2D308000000000059
:100310000000000000001E1EE2E21E1EE2E20800D5
:100320000000FC00000101020300ECBF000000001F
:10033000001E1EA6A63C3C2D2D0501000023F1BF8A
:1003400000FDFD0303B51EABBA28413C00060000CA
:100350000028F6C900FDFD0303C41EB0BA3C413CB1
:10036000000600000000000000000000001E1EE269
:10037000E21E1EE2E208000000FC00000101020192
:1003800000000000000000001E1EE2E21E1EE2E26D
:1003900008000000DD0AC400000000004637DDD878
:1003A000F6F1D3EC08000000233723000000000022
:1003B0003746D8DDF1F6ECD3081400000000000049
:1003C000000000001E1EE2E21E1EE2E20800000025
:1003D000010000010000000000000000000000001B
:1003E0000000000001000F010A46E200FBFB0000D4
:1003F000B5B5D3D33C3CD3D301000001F69C00003B
:10040000FBFB03035050B0B0C9C937370100E2010C
:100410000AECC400FBFB14141E1EA6A63C3C2D2DAA
:1004200001000001E2B0D300FDFD03033C3CC4C465
:10043000D3D32D2D01E20F01D33CC40005050303E6
:10044000C446D3DD0FC40ABF0100B50100BA0000E5
:1004500000000000373714142D2D000001004B015F
:10046000001E0000FBFB0F0FB5B5C4C43C3C1E1EB4
:10047000010000010000000000000000000000007A
:100480000000000001000F0114280000050503030F
:100490005A5AD3D3C4C4FBFB010000010000000082
:1004A000000000001E1EE2E21E1EE2E22B00000120
:1004B000283BC9CD0818FEF7293BC1CE081BF8F729
:1004C0002A3BBDCF071EECF82A3BBED00722DFF83F
:1004D0002B3BC0D00726DBF82C3AC2D1072BD7F82C
:1004E0002D39C4D2082FD3F82E3AC7D2082FD0F80E
:1004F0002E3CC7D3082DD1F82F3EC6D40829D6F8F4
:100500003041C5D50824DBF83042C5D60820DFF8D5
:100510003143C5D70812E2F8323EC5D70907E6F8DD
:100520003235C5D80901E8F73328C6D80902EBF8F7
:10053000341AC7D80A07EDF93411C9D70A0DEEFAF3
:10054000350FCAD70A10F0FA350DCBD40B13F1FCD6
:10055000360CCDD00B16F3FC360CCFCD0C18F4FBBB
:10056000370DD1CA0C17F5FA3711D3C70D14F5F8AA
:100570003814D5C40D12F6F53817D7C50E11F6F399
:10058000391ADAC50E0FF5F3391DDDC50F0EF4F279
:100590003A20DFC60F0DF3F13A22E2C70E0CF2F15A
:1005A0003B25E5C70E0CF1F13B28E8C70C0BF0F238
:1005B0003B2AEBC80C0BEFF23B2CEEC80A0BEDF319
:1005C000382EF1C8070BEBF43530F4C9060CE9F40A
:1005D0003232F4CA050DE9F42E34F4CA040EECF5F7
:1005E0002A35F2CB050FEFF52937F0CB0611F1F6DE
:1005F0002939EECC0611F3F62839DFCC0714FCF6C6
:10060000283AD1CD081600F72B0000010C3BC9CFCA
:100610001718FEF40F3BC1D1161BF8F5123BBDD3E2
:10062000141EECF5153BBED51222DFF6183BC0D8E0
:100630001026DBF61B3AC2DB0F2BD7F51E39C4DDC3
:100640000D2FD3F4203AC7E00D2FD0F3233CC7E39E
:100650000C2DD1F2263EC6E60C29D6F12841C5E97B
:100660000B24DBF02B42C5EC0B20DFEE2D43C5EF56
:100670000B12E2EC2F3EC5F20B07E6EA3135C5F46A
:100680000C01E8E83328C6F40D02EBEA341AC7F48B
:100690000E07EDEC3611C9F20F0DEEF0370FCAF070
:1006A0001110F0F1390DCBE91213F1F73A0CCDDA54
:1006B0001516F3FE3A0CCFCD1718F4FF3B0DD1C43D
:1006C0001A17F5FA3B11D3BE1D14F5F13B14D5BE34
:1006D0002012F6DF3B17D7BF2511F6DD3A1ADAC133
:1006E000290FF5D8391DDDC32E0EF4D43A20DFC60C
:1006F0002F0DF3D13B22E2C72F0CF2D03D25E5C6EA
:100700002B0CF1D54028E8C5260BF0DA412AEBC5C1
:10071000220BEFDE432CEEC5170BEDE1402EF1C5A9
:100720000A0BEBE53830F4C5030CE9E82D32F4C6CA
:10073000010DE9EA1F34F4C7050EECED1235F2C8DD
:100740000D0FEFEF1037F0C90F11F1F00E39EECBAE
:100750001111F3F10C39DFCC1514FCF20C3AD1CEA7
:10076000171600F3110000013327C7D5EE0713F960
:100770002A27D1D5010700F92727D5D50707F9F989
:100780002727D5D50707F9F9272AD5D10700F9007A
:100790002733D5C707EDF913273BD5BD07DCF9246F
:1007A000273BD5BE07DDF9242733D5C707EEF9135C
:1007B000272AD5D10701F9002727D5D50707F9F949
:1007C0002727D5D50707F9F92827D3D50307FDF93A
:1007D0003227C8D5F00710F93A27BFD5DF0721F92E
:1007E0003C27BCD5DA0726F93427C5D5EB0716F91F
:1007F000190000012127D7D30AFEF4FD2318DCCF0E
:100800000A04F2FD2408E0CC090FF1FC25FAE5C941
:10081000091EF0FB27F1E9CB0930EEF728F5EFCD03
:10082000082FEBF62AFDF4CE0826E7F62B03F9CFC6
:100830000820E3F62C0900D0091BDCF72F0EFED1AF
:100840000617E5F72E13F6D20413F1F72B18E5D4AB
:100850000310FCF7271DD7D5040E02F72221CAD6B4
:10086000050E02F71D25C0D8070DFEF71829BBD9C4
:10087000090DF4F7152DBEDA0D0EE8F71430C6DCBD
:10088000100FDEF71633C7DD0F11E3F71835C8DF99
:100890000E14E8F61936C9E10D17EBF61A3BCBE258
:1008A0000D16EEF61D41CEDF0C0AF1FA1E3CD1DB2F
:1008B0000B02F3FC1F32D4D70BFEF3FD180000012E
:1008C0002B30CDC807FEF801301FD1BF0702F9F861
:1008D000340CD6BC080EF9E737FEDBC00B1BF9D58C
:1008E0003AFBE1C60E23F7C93C00E7C5121FF5D15C
:1008F0003D07EDC31818F1DC3D0EF4C31E12ECE306
:100900003E15F8C3230EEAEA431BF5C41B0BF1EFB7
:100910004421EAC70F08FAF33D26D7C9020701F6BA
:10092000302BC8CDFE0701F81F30BFD10207F8F900
:100930000C34BCD60E08E7F9FE37C0DB1B0BD5F92B
:10094000FB3AC6E1230EC9F7003CC5E71F12D1F5FB
:10095000073DC3ED1818DCF10E3DC3F4121EE3ECA5
:10096000153EC3F80E23EAEA1B43C4F50B1BEFF157
:100970002144C7EA080FF3FA263DC9D70702F6015A
:100980001400EC017375D2CD3231DBE77275D8C734
:100990003431D7E97275DEC23431D2EB7275E5BEFF
:1009A0003431CAEB7274EABE3630C5E87274E6BF01
:1009B0003630CEE37373E3C33432D4DE7473DEC5F2
:1009C0003232DBE07473D7C93232E0DF7473D1CED8
:1009D0003232E5DD7572CBD43134E8DA7572C6DABD
:1009E0003134E9D57572C2E03134EBCF7472BEE8B0
:1009F0003036EAC67472BEE93036E7C87473C0E6B2
:100A00003034E2D07374C4E13232DED77374C6DBA3
:100A10003232DEDD7374CAD53232DEE27374CFCF88
:100A20003232DCE61A00FB012325D2CFE7E0FD05D8
:100A3000251DD6CDE6E3FC062715DACBE6E8FB0656
:100A4000290DDEC9E6EDF9072B05E2C7E5F3F70648
:100A50002DFDE6C6E4FEF6042F01EBC9E4FFF2012A
:100A60003006EFCAE4FBEF01320BE9CBE0F7FE0200
:100A70003010E3CCE0F303022D15DCCDE1F00602EB
:100A80002A1BD6CEE2ED09012720D0CFE2EB0B01E5
:100A90002525CAD1E4E90C01222AC5D2E5E70C01DB
:100AA0001F30C0D3E6E60B011D35BBD5E7E60A00D3
:100AB0001A39B7D6E9E60800163EBBD7EDE6F900CD
:100AC0001842C0D8EDE6F8FF1A4AC3DAECE5F9009F
:100AD0001B48C5D7EBDDFB041D41C8D5EADCFC048F
:100AE0001F39CAD3E9DCFE042131CED1E8DDFD0592
:100AF0002328D1CFE8DFFD052200FB012325D2CB3F
:100B0000E9E0FD0C271FD5C8E8E3FD0C2A19D8C37E
:100B1000E7E6FC0C2F13DBC0E6E9FB0B330DDEBC74
:100B2000E6EDF90A3607E1B9E5F1F8093A01E4B66C
:100B3000E6F7F6073DFCE7BBE602F5F94001EBC03E
:100B4000E6FFF2F74304EEC1E7FCF0F94B08F0C30F
:100B5000E3F9F4FA490CE8C5DDF6FFFB4410E3C7FE
:100B6000DCF303FC3E14DEC9DCF105FD3818D9CBFB
:100B7000DCEE07FD321CD5CEDDED09FD2C20D0D0FA
:100B8000DEEB0BFD2524CBD3E0EA0CFD1F27C8D6F6
:100B9000E3E80CFC192BC3D8E6E70CFC1330C0DCEF
:100BA000E9E60BFA0D33BCDFEDE60AF90737B9E1E8
:100BB000F1E509F8013AB6E5F7E607F6FC3EBBE8D1
:100BC00002E6F9F50141C0EBFFE6F7F20444C1EF9C
:100BD000FCE7F9F0084CC3EFF9E1FAF80C48C5E777
:100BE000F6DDFB001043C7E2F3DCFC03143DC9DD76
:100BF000F1DCFD051837CBD9EEDCFD071C31CED476
:100C0000EDDDFD09202AD0CFEBDFFD0B2500000133
:100C10002025C8C203F8FA021F31C6C503F5F9033F
:100C20001E3BC5C703F6F7041D42C3CA04F8F50509
:100C30001C43C2CB05FBF3041B41C1CD0500F103EE
:100C40001A3DC1CD0605EE02193AC0CD0607EC00EB
:100C50001838C0CD0706E8001736C0CC0705E500F8
:100C60001634C0CB0804E1001532C1CB0904DD0005
:100C70001430C1CA0803D9FF142EBDC90803DDFF13
:100C8000152BB8C80603E5FF1628B5C80403EBFE0C
:100C90001826B4C70304F2FE1C23B6C60105FDFEE8
:100CA0002020BBC6FF0605FD241DC3C5FD070AFDA8
:100CB000281ACDC5FC080BFD2C17D9C4FB0A09FC6A
:100CC0002D13DEC4FB0C06FC2D10E1C3FC0E03FB50
:100CD0002D0DE5C3FE11FCFB2C09E5C2FF14F9FA4A
:100CE0002B06E3C20016F9FA2A02E0C1001AFAF94B
:100CF00029FEDDC1001EFBF828FBDAC00022FCF84B
:100D000027F6D7C00126FCF726F6D5BE0124FDF84C
:100D100025F8D2BE011EFDF924FCD0BD0117FDFB54
:100D200023FFCDBD0212FCFD220CCBBE0206FCFF50
:100D3000211AC9C002FDFB012D0000011F25C8BFFB
:100D400006F8FA081C2FC6C607F6F90B1A38C5CFE5
:100D500008F5F80B1740C4D90AF7F6091442C3DDA9
:100D60000CF9F4071242C2E10DFCF3040F41C1E398
:100D70000F00F1000C3EC1E51104EFFB093BC0E59B
:100D80001407EDF90639C0E31607EAF90338C0E0A5
:100D90001906E7FA0036C0DE1C05E4FBFD34C0DBB3
:100DA0001F04E1FCFA33C0D92204DEFCF631C1D7BE
:100DB0002603DAFDF62FBED52403DCFDF62DBCD2CA
:100DC0002103DFFDFA2BB8D01A03E6FDFD28B5CFCD
:100DD0001503EBFC0126B5CD1004F0FC0C24B5CBBB
:100DE0000605FAFB1821B8C9FE0502FB221FBDC883
:100DF000F90607FA2D1CC4C6F6070AF9361ACDC53E
:100E0000F5080BF83E17D7C4F70A09F64214DCC3FD
:100E1000F80C07F44312E0C2FB0D05F3410FE3C1E8
:100E2000FF0F01F13F0CE5C10311FCEF3B09E5C0E9
:100E30000714F9ED3906E3C00716F9EA3803E1C0F3
:100E40000619FAE73600DEC0051CFBE435FDDCC000
:100E5000041FFCE133FAD9C00422FCDE31F6D7C10D
:100E60000326FCDA2FF6D5BE0324FDDC2DF6D3BC19
:100E70000321FDDF2BFAD1B8031AFDE629FDCFB51A
:100E80000315FDEB2701CDB50410FCF0240CCBB508
:100E90000406FCFA2218CAB805FEFB021F22C8BDD0
:100EA00006F9FA071E003C014E57E1DE2B1AD0D49A
:100EB0004E56E0E02C19D1CE4E55E0E22C1AD1CAA4
:100EC0004E53DFE32C1DD3C84F4FDFE32B22D3C893
:100ED0004F4DDEE42B26D4C64F4BDDE42B2BD6C77B
:100EE0004F4BDDE42B2DD6C7504CDDE42B2DD8C75E
:100EF000534CDCE3282DD9CA564DDBE3232CDBCA47
:100F0000584DDBE21E2CDBCC594DDBE21B2CDACC3E
:100F1000584EDBE11A2BDACD584EDBE1192BD8D035
:100F2000574EDEE1192CD4D0564EDFE0192CD0D12B
:100F3000554EE1E01B2CCCD1534EE2DF1C2CCAD322
:100F4000504FE3DE202BC8D44D4FE4DE262BC6D411
:100F50004C4FE4DD2A2BC7D64B4FE4DD2C2BC7D6F4
:100F60004C51E4DC2D2AC7D94C54E4DC2D27C7D9D9
:100F70004D57E3DB2C21CADB4D58E2DB2C1DCCDBCB
:100F80004D58E2DB2C1BCCDA4D58E1DB2C1ACDD8C6
:100F90004E58E1DC2B19CDD71E0000012727B0B039
:100FA00014142F2F1E1EB7B7181830301A1AC0C0CD
:100FB00019192E2E1717C9C918182B2B1515D0D093
:100FC000141427271515D7D70F0F20201616DCDC91
:100FD00008081A1A1818E1E1000013131A1AE4E4B9
:100FE000F8F80C0C1D1DE7E7F1F104042121E8E8F5
:100FF000E9E9FCFC2626E9E9E2E2F6F62C2CE8E831
:10100000DCDCF1F13333E6E6D7D7EFEF3C3CE2E24C
:10101000D3D3EEEE4444DCDCD1D1EBEB4D4DD8D84C
:10102000D1D1E7E75454D5D5D2D2E7E75757D0D03E
:10103000D6D6EAEA5959CBCBDBDBEEEE5858C5C51C
:10104000E2E2F3F35555BEBEE8E8FBFB5151B8B8F8
:10105000F0F003034D4DB2B2F7F70B0B4747AEAEBE
:10106000FFFF12124040AAAA050519193A3AA8A88A
:101070000B0B20203535A7A7101026263030A9A944
:1010800012122B2B2A2AAEAE13132E2E00000000B4
:1010900023002600290000000000240027002A0069
:1010A0000000000800020100000304070000000027
:1010B00000000000025265736574206A6F696E74E7
:1010C000206F6666736574733F28592F6E29004937
:1010D000324320454550524F4D206F766572666C05
:1010E0006F77212044656C65746520736F6D652092
:1010F000736B696C6C73210A00206F6E2049324358
:1011000020454550524F4D0A00496E7374696E6315
:101110007473207573656420005361766520736B6A
:10112000696C6C73000A436F6E666967757265203F
:10113000454550524F4D000A2A204368616E67654D
:10114000206D6F64656C20616E6420626F617264F3
:1011500020646566696E6974696F6E7320696E20BC
:101160004F70656E4361742E696E6F210000F8F652
:101170002A3F68F57A0006FFFE00030000006500C4
:1011800054FFEF0000FA80000B12820001030C30C4
:10119000C30A74562D0D62DBC716F4BA023883F801
:1011A000833000F883258EF8833000F883FFFFFF3B
:1011B000FF0CBDD811240004001A8279A10036006A
:1011C0003C000000000010000038836FA2003E03C6
:1011D000304000000002CAE3093E80000020000009
:1011E000000000000040000000600000001FA4E8B4
:1011F000E4FFF5DCB9005B79CF1F3F787600867C91
:101200005A00862347FAB986310074878A000000A5
:101210000000004305FFFFE9A800002182FAB84D55
:1012200046FFFADF3DFFFFB2B3000000003FFFBA08
:1012300098005DAC08000A637800014621FFFF00BA
:1012400000000042B50006006400640006140602B7
:101250009F0F479132D90E9FC91DCF4C343BB67AB0
:10126000E80064000600C800000000FFFE10000057
:101270000000000000000000000000000000070067
:1012800000FFF10000FA460000A2B80000100000C4
:101290000004D6000004CC000004CC0000000000D4
:1012A0000000000000000000000000000000060038
:1012B00002000500070000000000640000000000BC
:1012C000000000000C000500640020000000000089
:1012D00000000000000000400000000300000000CB
:1012E00032F8980000FF650000830F000000060040
:1012F00000FFF10000FA460000A2B8000000000064
:1013000000000000000000000000000000000000DD
:10131000320000000000000000000010000000008B
:10132000010000000D0000B26A000200000001FB95
:1013300083007C0000FB15FC001FB4FF830000004D
:101340000100650007006403E8006400280000FF56
:10135000FD0000000016A0000000000000000010CA
:1013600000002F0000000001F40000100000280021
:1013700000FFFF4581FFFFFA72000000000000003F
:1013800000004400010005BAC6004778A200000032
:101390000000000000000006000000001400002310
:1013A000BB002EA25B00000568000BCF490004FFC4
:1013B000FD000200000000000200000000001B0011
:1013C00000000000000000000000000000006400B9
:1013D00007000800060006FFFE00000000000000F5
:1013E00000000000000000000000000000000000FD
:1013F00000000000000000000000000000000000ED
:1014000000000000000000000000000000002EA20C
:101410005B00000568000BCF490000000000F8F6F3
:101420002A3F68F57A0004FFFD00020000001B005F
:10143000000000000000000000000E000EFFFFFF93
:10144000CF0004000000000032FFFFFF9C000043BB
:1014500005000000000000000100000064FFE5003E
:10146000000000000000000000000000000000007C
:1014700001000000000001000000000000000180E9
:10148000000001800000018000002426D30001003C
:101490000100000000000600100096003C00000063
:1014A0000000000000000000001F9E655D0C0A4E59
:1014B00068CDCF770950166759C619CE8200000053
:1014C0000000000000000000000047711C00000048
:1014D000000000000017D78400030000000011DCAA
:1014E0004703000000C7938F9D1E1B1C19FFFFFFC1
:1014F000FF000000000EDFA4381F9E655D000000A5
:10150000000047711C020318850000400000000025
:10151000000000000300000000000000003FFFFF8B
:10152000FDFFFFF4C9FFFFBCF000010C0F0000003D
:1015300000000000000000000000000000000000AB
:1015400000000000000000000000000000F5B7BA35
:10155000B3677DDF7E72902E554CF6E68800000062
:1015600000000000000000000000000000D8DCB413
:10157000B8B0D8B9ABF3F8FAB3B7BB8E9EAEF132C0
:10158000F51BF1B4B8B08097F1A9DFDFDFAADFDF88
:10159000DFF2AA4CCD6CA90CC92C97F1A98926467B
:1015A00066B28999A92D557DB0B08AA8963656762F
:1015B000F1BAA3B4B280C0B8A89711B28398BAA305
:1015C000F0240844106418B2B9B49883F1A32955E3
:1015D0007DBAB5B1A38393F0002850F5B2B6AA83C3
:1015E0009328547CF1B9A3829361BAA2DADEDFDBDF
:1015F000819AB9AEF5606870F1DABAA2DFD9BAA201
:10160000FAB9A38292DB31BAA2D9BAA2F8DF85A4D3
:10161000D0C1BBAD83C2C5C7B8A2DFDFDFBAA0DFD0
:10162000DFDFD8D8F1B8AAB38DB4980D355DB2B666
:10163000BAAF8C96198F9FA70E161EB49AB8AA87B8
:101640002C547CBAA4B08AB691325676B28494A453
:10165000C808CDD8B8B4B0F19982A82D557D98A806
:101660000E161EA22C547C92A4F02C5078F184A863
:1016700098C4CDFCD80DDBA8FC2DF3D9BAA6F8DAB6
:10168000BAA6DED8BAB2B68696A6D0F3C841DAA614
:10169000C8F8D8B0B4B882A892F52C548898F1351F
:1016A000D9F418D8F1A2D0F8F9A884D9C7DFF8F88E
:1016B00083C5DADF69DF83C1D8F40114F1A8824E53
:1016C000A884F311D182F5D992289788F109F41CE6
:1016D0001CD884A8F3C0F9D1D99782F129F40DD888
:1016E000F3F9F9D1D982F4C203D8DEDF1AD8F1A216
:1016F000FAF9A88498D9C7DFF8F8F883C7DADF6960
:10170000DFF883C3D8F40114F198A8822EA884F3DB
:1017100011D182F5D992509788F109F41CD884A888
:10172000F3C0F8F9D1D99782F149F40DD8F3F9F95A
:10173000D1D982F4C403D8DEDFD8F1AD8898CCA823
:1017400009F9D98292A8F57CF1883ACF944A6E982B
:10175000DB6931DAADF2DEF9D88795A8F221D1DA6A
:10176000A5F9F417D9F1AE8ED0C0C3AE82C684C33A
:10177000A88595C8A588F2C0F1F4010EF18E9EA847
:10178000C63E56F554F18872F40115F19845856E00
:10179000F58E9E0488F142985A8E9E068869F4015F
:1017A0001CF1981E1108D0F504F11E97020298361C
:1017B00025DBF9D985A5F3C1DA85A5F3DFD88595B1
:1017C000A8F309DAA5FAD88292A8F578F1881A84E4
:1017D0009F26889821DAF41DF3D8879F39D1AFD995
:1017E000DFDFFBF9F40CF3D8FAD0F8DAF9F9D0DF3F
:1017F000D9F9D8F40BD8F3879F39D1AFD9DFDFF40B
:101800001DF3D8FAFCA869F9F9AFD0DADEFAD9F8F5
:101810008F9FA8F1CCF398DB45D9AFDFD0F8D8F192
:101820008F9FA8CAF38809DAAF8FCBF8D8F2AD97AB
:101830008D0CD9A5DFF9BAA6F3FAF412F2D8950DFA
:10184000D1D9BAA6F3FADAA5F2C1BAA6F3DFD8F174
:10185000BAB2B68696A6D0CAF349DAA6CBF8D8B003
:10186000B4B8D8AD84F2C0DFF18FCBC3A8B2B686CE
:1018700096C8C1CBC3F3B0B48898A821DB718D9D05
:1018800071859521D9ADF2FAD88597A828D9F408A1
:10189000D8F28D29DAF405D9F285A4C2F2D8A88D40
:1018A0009401D1D9F411F2D88721D8F40AD8F2845E
:1018B00098A8C801D1D9F411D8F3A4C8BBAFD0F20D
:1018C000DEF8F8F8F8F8F8F8F8D8F1B8F6B5B9B0E5
:1018D0008A95A3DE3CA3D9F8D85CA3D9F8D87CA319
:1018E000D9F8D8F8F9D1A5D9DFDAFAD8B18530F727
:1018F000D9DED8F830ADDADED8F2B48C99A32D5504
:101900007DA083DFDFDFB591A0F629D9FBD8A0FC4D
:1019100029D9FAD8A0D051D9F8D8FC51D9F9D87919
:10192000D9FBD8A0D0FC79D9FAD8A1F9F9F9F9F9FD
:10193000A0DADFDFDFD8A1F8F8F8F8F8ACDEF8AD10
:10194000DE8393AC2C547CF1A8DFDFDFF69D2CDA2C
:10195000A0DFD9FADB2DF8D8A850DAA0D0DED9D094
:10196000F8F8F8DB55F8D8A878DAA0D0DFD9D0FAA3
:10197000F8F8F8F8DB7DF8D89CA88CF530DB38D97E
:10198000D0DEDFA0D0DEDFD8A848DB58D9DFD0DE3C
:10199000A0DFD0DED8A868DB70D9DFDFA0DFDFD81A
:1019A000F1A888902C547C98A8D05C38D1DAF2AE9B
:1019B0008CDFF9D8B087A8C1C1B188A8C6F9F9DA17
:1019C00036D8A8F9DA36D8A8F9DA36D8A8F9DA3646
:1019D000D8A8F9DA36D8F78D9DADF818DAF2AEDF6F
:1019E000D8F7ADFA30D9A4DEF9D8F2AEDEFAF98331
:1019F000A7D9C3C5C7F1889BA77AADF7DEDFA4F8E6
:101A0000849408A797F300AEF29819A488C6A3940B
:101A100088F632DFF28393DB09D9F2AADFD8D8AE99
:101A2000F8F9D1DAF3A4DEA7F1889B7AD8F384948D
:101A3000AE19F9DAAAF1DFD8A881C0C3C5C7A3924D
:101A400083F628ADDED9F8D8A350ADD9F8D8A3785D
:101A5000ADD9F8D8F8F9D1A1DADEC3C5C7D8A181CC
:101A600094F818F2B089ACC3C5C7F1D8B8B4B09730
:101A700086A8319B069907AB9728889BF00C201409
:101A800040B0B4B8F0A88A9A285078B79BA82951DA
:101A900079247059446938644831F1BBAB88002C13
:101AA000547CF0B38BB8A804285078F1B088B49770
:101AB00026A85998BBABB38B02264666B0B8F08A0D
:101AC0009CA82951798B2951798A2470598B2058E7
:101AD000718A4469388B3940688A6448318B30494F
:101AE0006088F1AC002C547CF08CA804285078F16C
:101AF000889726A85998AC8C02264666F0899CA83F
:101B0000295179247059446938644831A9880920D9
:101B10005970AB11384069A8193148608CA83C4114
:101B20005C207C00F187981986A86E767EA999883A
:101B30002D557DD8B1B5B9A3DFDFDFAED0DFAAD098
:101B4000DEF2ABF8F9D9B087C4AAF1DFDFBBAFDFB3
:101B5000DFB9D8B1F1A3978E60DFB084F2C8F8F98D
:101B6000D9DED89385F14AB183A308B5839A0810CA
:101B7000B79F10D8F1B0BAAEB08AC2B2B68E9EF19D
:101B8000FBD9F41DD8F9D90CF1D8F8F8AD61D9AE6C
:101B9000FBD8F40CF1D8F8F8AD19D9AEFBDFD8F4C6
:101BA00016F1D8F8AD8D61D9F4F4ACF59C9C8DDFBD
:101BB0002BBAB6AEFAF8F40BD8F1AED0F8AD51DAD4
:101BC000AEFAF8F1D8B9B1B6A3839C08B9B1839A3B
:101BD000B5AAC0FD3083B79F10B58B93F20202D136
:101BE000ABDADED8F1B080BAABC0C3B284C1C3D81F
:101BF000B1B9F38BA391B609B4D9ABDEB0879CB968
:101C0000A3DDF1B38B8B8B8B8BB08720283038B260
:101C10008BB69BF2A3C0C8C2C4CCC6A3A3A3F1B029
:101C200087B59AD8F39BA3A3DCBAACDFB9A3FEF2C5
:101C3000ABC4AAF1DFDFBBAFDFDFA3A3A3D8D8D843
:101C4000BBB3B7F1AAF9DAFFD9809AAA28B4809871
:101C5000A720B79787A86688F07951F1902C870C58
:101C6000A781976293F071716085940129517990F1
:101C7000A5F1284C6C870C95188578A38390284C87
:101C80006C886CD8F3A28200F210A8921980A2F29C
:101C9000D926D8F188A84DD948D896A83980D93CFA
:101CA000D89580A839A68698D92CDA87A72CD8A8E9
:101CB000899519A980D938D8A88939A980DA3CD85A
:101CC000A82EA83990D90CD8A8953198D90CD8A8A5
:101CD00009D9FFD801DAFFD89539A9DA26FFD890BB
:101CE000A80D8999A810809821DA2ED88999A83151
:101CF00080DA2ED8A886963180DA2ED8A88731804F
:101D0000DA2ED8A88292F34180F1D92ED8A882F396
:101D10001980F1D92ED882ACF3C0A28022F1A62E70
:101D2000A72EA92298A829DAACDEFFD8A2F22AF1C0
:101D3000A92E8292A8F23180A696F1D900AC8C9C93
:101D40000C30ACDED0DEFFD88C9CACD010ACDE808A
:101D500092A2F24C82A8F1CAF235F19688A6D90077
:101D6000D8F1FF444D50206661696C65642028639A
:101D70006F646520000A454550524F4D20636F6ED9
:101D800074656E74733A0043616C69627261746960
:101D90006E672E2E2E000A4C6179207468652072C1
:101DA0006F626F7420464C4154206F6E2061207426
:101DB00061626C650043616C69627261746520499F
:101DC0004D553F28592F6E293A00496E69742049B4
:101DD0004D5500526561647921000102040810200C
:101DE00040800102040810200102040810200000B5
:101DF0000000250028002B0004040404040404044B
:101E0000020202020202030303030303A9201E2AA3
:101E100011241FBECFEFD8E0DEBFCDBF13E0A0E09E
:101E2000B1E0E2E8F1E602C005900D92AC3CB107EA
:101E3000D9F726E0ACECB3E001C01D92AB3FB2078E
:101E4000E1F71FE0C7E0DFE004C02197FE010E9438
:101E5000D42FC630D107C9F70E94FB210C94B430AF
:101E60000C94000091E09093180580931705109250
:101E700016051092150508958091C7049091C80425
:101E8000891B990B089508950895AF92BF92CF9240
:101E9000DF92EF92FF920F931F93CF93DF936C012A
:101EA0007B018B01040F151FEB015E01AE18BF080B
:101EB000C017D10759F06991D601ED91FC910190BD
:101EC000F081E02DC6010995892B79F7C501DF91D5
:101ED000CF911F910F91FF90EF90DF90CF90BF9027
:101EE000AF900895FC01538D448D252F30E0842F51
:101EF00090E0821B930B541710F0CF960895019732
:101F00000895FC01918D828D981761F0A28DAE0F1E
:101F1000BF2FB11D5D968C91928D9F5F9F73928FA5
:101F200090E008958FEF9FEF0895FC01918D828DD1
:101F3000981731F0828DE80FF11D858D90E008959E
:101F40008FEF9FEF0895FC01918D228D892F90E0F6
:101F5000805C9F4F821B91098F739927089589E1B7
:101F600095E00E94A30F21E0892B09F420E0822F45
:101F7000089580E090E0892B29F00E94AF0F811135
:101F80000C9400000895FC01A48DA80FB92FB11D79
:101F9000A35ABF4F2C91848D90E001968F7399279F
:101FA000848FA689B7892C93A089B1898C9183707D
:101FB00080648C93938D848D981306C00288F38976
:101FC000E02D80818F7D80830895EF92FF920F93A3
:101FD0001F93CF93DF93EC0181E0888F9B8D8C8DD5
:101FE00098131AC0E889F989808185FF15C09FB7C9
:101FF000F894EE89FF896083E889F989808183708C
:10200000806480839FBF81E090E0DF91CF911F913A
:102010000F91FF90EF900895F62E0B8D10E00F5F5B
:102020001F4F0F731127E02E8C8D8E110CC00FB631
:1020300007FCFACFE889F989808185FFF5CFCE01C9
:102040000E94C30FF1CFEB8DEC0FFD2FF11DE35A72
:10205000FF4FF0829FB7F8940B8FEA89FB8980814C
:102060008062CFCF682F89E195E00C94E50F0F9344
:102070001F93CF93DF938C01D0E0C0E0F801EC0F09
:10208000FD1F6491662341F089E195E00E94E50F10
:10209000892B11F02196F2CFCE01DF91CF911F91C4
:1020A0000F910895CF93DF93EC01888D8823B9F0C9
:1020B000AA89BB89E889F9898C9185FD03C0808153
:1020C00086FD0DC00FB607FCF7CF8C9185FFF2CFD0
:1020D000808185FFEDCFCE010E94C30FE9CFDF9154
:1020E000CF910895833081F028F4813099F08230C7
:1020F000A9F008958730A9F08830C9F08430B1F490
:10210000809180008F7D03C0809180008F778093C5
:102110008000089584B58F7784BD089584B58F7D40
:10212000FBCF8091B0008F778093B00008958091AD
:10213000B0008F7DF9CF1F93CF93DF93282F30E02E
:10214000F901E056FF4E8491F901E652F24ED49126
:10215000F901E850F24EC491CC23A9F0162F811159
:102160000E947210EC2FF0E0EE0FFF1FE251F24ED2
:10217000A591B4918FB7F894EC91111108C0D09546
:10218000DE23DC938FBFDF91CF911F910895DE2B6B
:10219000F8CF9091000189130BC0E4EBF0E1E491DA
:1021A0009FEF90930001E13049F028F0E23061F0B8
:1021B00060E00C949B1010926E00FACF90916F002B
:1021C0009D7F90936F00F4CF909170009D7F9093CE
:1021D000700091E09093B0009091B100987F94606E
:1021E0009093B1001092B300E3CFCF93DF9390E0D0
:1021F000FC01E652F24E24918850924EFC018491EB
:102200008823D1F090E0880F991FFC01EA56FF4E19
:10221000A591B491FC01E251F24EC591D4916111A6
:102220000EC09FB7F8948C91E22FE0958E238C938B
:102230002881E223E8839FBFDF91CF9108958FB774
:10224000F894EC91E22BEC938FBFF6CF3FB7F89464
:1022500080913F0490914004A0914104B0914204C8
:1022600026B5A89B05C02F3F19F00196A11DB11DF1
:102270003FBFBA2FA92F982F8827BC01CD01620F2D
:10228000711D811D911D42E0660F771F881F991FE8
:102290004A95D1F708958F929F92AF92BF92CF92B5
:1022A000DF92EF92FF926B017C010E9426114B019D
:1022B0005C01C114D104E104F104B9F00E942611BB
:1022C000681979098A099B09683E7340810591055F
:1022D00080F321E0C21AD108E108F10888EE880EE7
:1022E00083E0981EA11CB11CE4CFFF90EF90DF901B
:1022F000CF90BF90AF909F908F9008952FB7F89494
:1023000060913B0470913C0480913D0490913E04A7
:102310002FBF089520911704260F3327331F213232
:102320003105ECF420910F05FC0190E080E02430B1
:1023300069F082E00895A09117042191AC01495001
:102340005C4FA40FB52FB11D2C930196861798F3FF
:1023500080911704680F6093170480E0089581E06E
:10236000089510920F0581E08093EE041092E90425
:1023700061E082E10E949B1061E083E10E949B107A
:10238000E9EBF0E080818E7F808380818D7F808388
:1023900088E48093B80085E48093BC000895CF93CF
:1023A000DF9391E09093F6038823B9F0C091B800D1
:1023B000D091BA008091BC008A7B8093BC0060E021
:1023C00082E10E949B1060E083E10E949B100E94CA
:1023D000B111D093BA00C093B800DF91CF910895A6
:1023E000CF92DF92EF92FF920F931F93CF93DF93E1
:1023F000D82FC62F613208F098C00E9426116B01B9
:102400007C0180910F0581116BC081E080930F05E5
:102410008093EE049FEF9093ED041092EC049C0FD8
:102420009093EB048093EA048091EA04DD0FD82BAB
:10243000D093EA048091E904813009F078C01092C9
:10244000E9040E9426116B017C018091EA048093CB
:10245000BB008091110590911205A0911305B091D8
:102460001405892B8A2B8B2BA1F00E942611009139
:1024700011051091120520911305309114056C1966
:102480007D098E099F09061717072807390708F4E1
:1024900048C08091BC0083FDD8CF85EC8093BC0000
:1024A0000E9426116B017C0180910F05813009F497
:1024B00040C08091EC048C1710F4C091EC04E9EC5E
:1024C000F4E0AFEEB4E080E08C1355C08C2FDF91C8
:1024D000CF911F910F91FF90EF90DF90CF900895D3
:1024E0008091110590911205A0911305B0911405EA
:1024F000892B8A2B8B2B09F484CF0E942611009103
:1025000011051091120520911305309114056C19D5
:102510007D098E099F09061717072807390708F054
:1025200070CF809110050E94CF11C0E0CFCF85EE13
:10253000B5CF8091110590911205A0911305B0912E
:102540001405892B8A2B8B2B09F4AECF0E94261100
:102550000091110510911205209113053091140579
:102560006C197D098E099F09061717072807390777
:1025700008F09ACFD6CF91919D938F5FA5CF089504
:10258000E091C8048091C704E81730F4F0E0E1510D
:10259000FB4F808190E008958FEF9FEF0895909119
:1025A000C8048091C7042FEF3FEF981748F4E92F34
:1025B000F0E0E151FB4F208130E09F5F9093C80431
:1025C000C9010895CF92DF92EF92FF920F931F936C
:1025D000CF93DF937C01CB018A0120911805222340
:1025E00089F0EB016B01C40ED51ECC15DD0569F039
:1025F0006991D701ED91FC910190F081E02DC70127
:102600000995F3CF642F0E948A11C801DF91CF9101
:102610001F910F91FF90EF90DF90CF900895CF938F
:10262000DF931F92CDB7DEB769832091180522236F
:10263000F9F020911505203258F021E030E0FC013E
:102640003383228390E080E00F90DF91CF91089553
:1026500080911605E82FF0E0EA52FC4F99819083B3
:102660008F5F809316058093150581E090E0ECCF95
:1026700061E0CE0101960E948A11F7CFCF92DF92DE
:10268000EF92FF920F931F93CF93DF93D091150595
:1026900081E0D13208F09CC0C09117050E9426113C
:1026A0006B017C0180910F0581116CC082E08093E9
:1026B0000F0581E08093EE048FEF8093ED0410927C
:1026C000EC04D093EB04A6EDB3E0E9ECF4E080E099
:1026D000D8138DC01092EA048091EA04CC0FC82B65
:1026E000C093EA048091E904813009F084C010921B
:1026F000E9040E9426116B017C018091EA04809319
:10270000BB008091110590911205A0911305B09125
:102710001405892B8A2B8B2BA1F00E942611009186
:1027200011051091120520911305309114056C19B3
:102730007D098E099F09061717072807390708F42E
:1027400042C08091BC0083FDD8CF85EC8093BC0053
:102750000E9426116B017C0180910F05823009F4E3
:102760004CC08091ED048F3F09F469C08091ED0465
:10277000803209F466C08091ED04803309F463C0AF
:1027800084E026C08091110590911205A091130557
:10279000B0911405892B8A2B8B2B09F483CF0E94CF
:1027A0002611009111051091120520911305309109
:1027B00014056C197D098E099F090617170728074C
:1027C000390708F06FCF809110050E94CF1185E086
:1027D000109216051092150510921805DF91CF91F1
:1027E0001F910F91FF90EF90DF90CF9008959D91F2
:1027F00091938F5F6DCF85EEA9CF80911105909158
:102800001205A0911305B0911405892B8A2B8B2BEF
:1028100009F4A2CF0E942611009111051091120512
:1028200020911305309114056C197D098E099F09BB
:10283000061717072807390708F08ECFC4CF80E0A6
:10284000C7CF82E0C5CF83E0C3CF1F93CF93DF9381
:10285000162FEA010E94320F612F86EB95E00E944D
:102860000F13698186EB95E00E940F13688186EB58
:1028700095E00E940F1386EB95E00E943E1391E0D5
:10288000811190E0892FDF91CF911F91089590E001
:1028900080E00895FF920F931F93CF93DF93C62F8D
:1028A000042FF22E132F0E94320F6C2F86EB95E02F
:1028B0000E940F13CF2DD12F0C0F1D2F111DC017EC
:1028C000D10731F0699186EB95E00E940F13F7CFA5
:1028D00086EB95E00E943E1391E0811190E0892FF4
:1028E000DF91CF911F910F91FF900895CF93DF93C8
:1028F00000D0CDB7DEB75A834983AE014F5F5F4F3B
:102900000E9425140F900F90DF91CF910895CF93DF
:10291000DF931F92CDB7DEB749839E012F5F3F4FF4
:1029200041E00E944A140F90DF91CF9108950F93D8
:102930001F93CF93DF93EC01062F142F88810E9401
:10294000320F89819A81DC01ED91FC910190F08137
:10295000E02D602F099589819A81DC01ED91FC9130
:102960000190F081E02D612F099589819A81DF9195
:10297000CF911F910F910C943E13DC01ED91FC91CE
:102980000190F081E02D0994CF9389E195E00E94B8
:10299000A30F892BD1F389E195E00E94810FC82F05
:1029A00061E070E080E090E00E944B1189E195E0E9
:1029B0000E94A30F892B29F089E195E00E94810FE5
:1029C000F5CF8C2FCF9108951F93CF93DF93EC0118
:1029D000162F88810E94320F89819A81DC01ED9146
:1029E000FC910190F081E02D612F099589819A81F8
:1029F0000E943E1361E088810E94F0111092C80489
:102A00008093C70489819A81DC01ED91FC91028455
:102A1000F385E02D0995DF91CF911F9108958F9255
:102A20009F92AF92BF92CF92DF92EF92FF921F934D
:102A3000CF93DF93EC016A017B0120E030E040E8B6
:102A40005FE3CB01B6010E945B2B87FD7EC020E0D7
:102A500030EC4AE555E4C701B6010E94222E181653
:102A60003CF4C12C30ECD32E3AE5E32E35E4F32EC2
:102A70006B817C818D819E810E94602B4B015C016A
:102A800020E030E040E855E4C701B6010E94C12BC8
:102A90009B01AC01C501B4010E947A2D20E030E019
:102AA00040E05FE30E940E2D20E030E040E85FE36D
:102AB0000E940D2D6B017C0120E030E040E450E4E9
:102AC0000E945B2B87FD48C020E030E04FE753E4D5
:102AD000C701B6010E94222E181634F4C12CD12C45
:102AE0009FE7E92E93E4F92E60E0CE010E94E41402
:102AF000182F482F4F76406160E0CE010E94971456
:102B0000C701B6010E94F32D462F6EEFCE010E9441
:102B10009714412F60E0CE010E94971465E070E0A9
:102B200080E090E00E944B11412F406A60E0CE01AE
:102B3000DF91CF911F91FF90EF90DF90CF90BF90EA
:102B4000AF909F908F900C949714C12CD12C20E8BB
:102B5000E22E2FE3F22E8CCFC12CD12C80E4E82E74
:102B6000FE2CC2CF4F925F926F927F928F929F9274
:102B7000AF92BF92DF92EF92FF920F931F93CF938A
:102B8000DF93182F062F7A01E9010E947E114B0175
:102B90005C01812F0E94320F602F86EB95E00E942E
:102BA0000F1386EB95E00E943E13812F0E94320F97
:102BB00062E0812F0E94F0111092C8048093C70434
:102BC00001E010E02E01712C612CDD24D394909152
:102BD000C7048091C804981739F1111125C02097B6
:102BE000C1F401110EC086EB95E00E94CF12F701EF
:102BF00020813181822B932B9183808311E00D25DD
:102C0000E6CF86EB95E00E94CF12F7011082818318
:102C1000F6CF0E947E11681979098A099B0964150B
:102C2000750586059705E8F286EB95E00E943E1350
:102C3000209799F00E947E11AB01BC0148195909F7
:102C40006A097B09CE01B0E0A0E0481759076A077E
:102C50007B0718F0111101C01FEF812FDF91CF9179
:102C60001F910F91FF90EF90DF90BF90AF909F90DA
:102C70008F907F906F905F904F9008952F923F922A
:102C80004F925F926F927F928F929F92AF92BF927C
:102C9000CF92DF92EF92FF920F931F93CF93DF9328
:102CA00000D000D0CDB7DEB7782E662E4C833A83A5
:102CB00029830E947E116B017C01512C1B822C8187
:102CC000222E312C4801B12CA12C8C81581608F0F1
:102CD00049C0872D0E94320F662D86EB95E00E9439
:102CE0000F1386EB95E00E943E13872D0E94320F52
:102CF000B101651971096132710514F060E270E08B
:102D0000613208F060E2872D0E94F011482E109287
:102D1000C8048093C7048091C8044816E9F00115DF
:102D2000110579F486EB95E00E94CF12E981FA81D2
:102D30009B81E90FF11D97FDFA9580839F5F9B832F
:102D4000EACF0E947E116C197D098E099F096815D2
:102D500079058A059B0530F38C81813208F080E289
:102D6000580EB3CF01151105C1F00E947E116C19E8
:102D70007D098E099F0930E020E060177107820706
:102D8000930758F02B81822F220F990B2C81281743
:102D9000190619F014F08FEF8B838B810F900F9031
:102DA0000F900F90DF91CF911F910F91FF90EF90B7
:102DB000DF90CF90BF90AF909F908F907F906F905B
:102DC0005F904F903F902F900895CF92DF92EF92B7
:102DD000FF920F931F93CF93DF931F92CDB7DEB770
:102DE000F82EE62EC42ED22E08EE13E09E012F5FA1
:102DF0003F4F41E00E943E1681E090E001C0880F05
:102E0000CA94EAF74981DD2081F0482B49836E2D71
:102E10008F2D0E9487140F90DF91CF911F910F91FA
:102E2000FF90EF90DF90CF90089580954823EECFEC
:102E30000F931F93CF93DF931F92CDB7DEB708EEAA
:102E400013E09E012F5F3F4F41E065E78091C80688
:102E50000E943E16882339F089818E7790E09595FF
:102E600087958093C9068091C9060F90DF91CF9115
:102E70001F910F9108952F923F924F925F926F9200
:102E80007F928F929F92AF92BF92CF92DF92EF92FA
:102E9000FF920F931F93CF93DF93CDB7DEB7E197E8
:102EA0000FB6F894DEBF0FBECDBF8D8F4EA35FA3CC
:102EB00068A779A70AA71BA72CA73DA713E18B3307
:102EC00039F40E94181717E703E0883310F416E06E
:102ED00002E06EE389E195E00E94E50F9E01235F29
:102EE0003F4F3E8B2D8BCE010196988F8F8B6901C2
:102EF000B12E28EE33E0AE014D5E5F4F6B2D809119
:102F0000C8060E94B215EB88FC88B7010F2C000C94
:102F1000880B990B0E94622B133109F4CEC1B1E0EA
:102F2000EB22FF24F601F182E08220E030E040E075
:102F300051E40E94C12BAF89B88D6D937D938D9321
:102F40009C931397B00EF2E0CF0ED11C2F89388DD1
:102F50002C5F3F4F388F2F8B8D899E89281739071B
:102F600041F69D8D9B3309F0B5C18DEC9CECACE432
:102F7000BDE38EA79FA7A8ABB9ABAAE0B0E0BDA305
:102F8000ACA31AA219A2312C212CFE013196FA8F82
:102F9000E98F9E01235F3F4F3F8F2E8F18A33D8DFA
:102FA0003BA3812C912C54011C8E1B8E28EE33E008
:102FB000AE014D5E5F4F6BA18091C8060E94B215B5
:102FC0006B897C89072E000C880B990B0E94622B61
:102FD0006B017C018D8D8B3371F4AB8DBC8D1297A1
:102FE00051F420E030E040E856E4C701B6010E9409
:102FF0000D2D6B017C012601370177FA709477F86B
:103000007094C501B4010E94602B4B015C0120E06B
:1030100030E0A901C701B6010E94222E181614F053
:1030200073016201A7019601C501B4010E940E2D32
:103030000E94F32D4B015C012FE632E143E85AE395
:10304000C301B2010E94C12B2AA53BA54CA55DA5D9
:103050000E94C12BE98DFA8D2081318142815381FB
:103060000E940E2D6B017C01A98DBA8DCD92DD924F
:10307000ED92FC9213972EA13FA148A559A5C3013B
:10308000B2010E94C12BA70196010E940E2D13319F
:1030900009F42AC120E030E040E05EE30E94C12B49
:1030A0006B017C0120E030E0A9010E94222E20E08B
:1030B00030E040E05FE387FD12C1C701B6010E9426
:1030C0000E2D0E94EC2D6E7FEE8DFF8D8081918103
:1030D000682B792B7C8B6B8BAE014D5E5F4F68A1AB
:1030E0008091C8060E9425142B8D3C8D2F5F3F4F89
:1030F0003C8F2B8F3BA13E5F3BA388A1800F88A311
:10310000AE8DBF8D1296BF8FAE8FE98DFA8D34963E
:10311000FA8FE98F2B8D3C8D2330310509F046CF96
:1031200033E62316310471F489EE881683E098069D
:10313000A104B10438F06AE289E195E00E94E50F4C
:10314000312C212CC501B4010E94602B2EA53FA576
:1031500048A959A90E94C12B20E030E040EA50E480
:103160000E945B2B87FF05C0A9A1BAA11196BAA343
:10317000A9A3B4E68B169104A104B10408F0D3C04E
:10318000EBE02E1631040CF4CEC029A13AA12A306E
:1031900031050CF4C8C06EE289E195E00E94E50FAC
:1031A00020E030E040E45FE36EA17FA188A599A50F
:1031B0000E94C12B6EA37FA388A799A720E030E0CF
:1031C00040E45FE36AA57BA58CA59DA50E94C12B69
:1031D0006AA77BA78CA79DA7CE010D967C01D12E57
:1031E000DE0111963D01D3016D917D918D919D91EF
:1031F0003D01133109F4ABC020E030E040E05EE374
:103200000E94C12B4B015C0120E030E0A9010E942B
:10321000222E20E030E040E05FE387FD93C0C5014F
:10322000B4010E940E2D0E94EC2D6E7FF70180816B
:103230009181682B792B7C8B6B8BAE014D5E5F4F40
:103240006D2D8091C8060E942514D00EF2E0EF0E7D
:10325000F11C2F89388D2615370529F68CA19DA1E3
:1032600001979DA38CA3892B09F08BCE21E042E02E
:103270006AE68091C8060E94E51621E043E06AE60E
:103280008091C8060E94E516E1960FB6F894DEBF5D
:103290000FBECDBFDF91CF911F910F91FF90EF90A7
:1032A000DF90CF90BF90AF909F908F907F906F9066
:1032B0005F904F903F902F90089520E030E040E8DD
:1032C00050E40E94C12BEF89F88D60837183828363
:1032D000938338CE80E090E0A0E8BFE34ACEC701F8
:1032E000B6010E940D2DEDCE20E030E040E85EE317
:1032F0000E94C12B6B017C0120E030E0A9010E94FB
:10330000222E20E030E040E05FE387FD07C0C701E8
:10331000B6010E940E2D0E94EC2DDCCEC701B60135
:103320000E940D2DF8CF61E070E080E090E00E94F7
:103330004B11BFEF2B1A3B0AE4E62E16310409F0BD
:1033400024CE29CFC501B4010E940D2D6CCF20E001
:1033500030E040E85EE30E94C12B4B015C0120E0BD
:1033600030E0A9010E94222E20E030E040E05FE33F
:1033700087FD07C0C501B4010E940E2D0E94EC2DEF
:103380005ACFC501B4010E940D2DF8CFBF92CF9244
:10339000DF92EF92FF920F931F93CF93DF931F92D1
:1033A000CDB7DEB7F82EE62EC42EB22ED02E08EE04
:1033B00013E09E012F5F3F4F41E00E943E1688239D
:1033C00071F18C2D8B19990BAC014F5F5F4F81E030
:1033D00090E002C0880F991FBA94E2F70197042E7B
:1033E00001C0880F0A94EAF70D2D01C0000F4A951D
:1033F000EAF7482F4095998149238023482B498338
:103400006E2D8F2D0E9487140F90DF91CF911F9109
:103410000F91FF90EF90DF90CF90BF90089580E0E4
:10342000F3CFFC0101900020E9F73197AF01481B71
:10343000590BBC0189E195E00C94450F85E093E0C0
:103440000C94111ACF93DF930E943210EC010E946A
:103450001E1A8C0F9D1FDF91CF910895CF93DF939C
:103460000E943710EC010E941E1A8C0F9D1FDF91E5
:10347000CF9108958F929F92AF92BF920F931F9317
:10348000CF93DF93CDB7DEB7A1970FB6F894DEBF29
:103490000FBECDBF19A2423008F44AE08E010F5D85
:1034A0001F4F842E912CB12CA12CA50194010E94B8
:1034B000EB2CE62FB901CA01EA30F4F4E05DD80143
:1034C000EE938D01232B242B252B79F790E080E0C0
:1034D000109719F0CD010E94111AA1960FB6F89419
:1034E000DEBF0FBECDBFDF91CF911F910F91BF9077
:1034F000AF909F908F900895E95CE1CF85ED809328
:10350000BC008091110590911205A0911305B09116
:1035100014050796A11DB11D23E0B695A7959795B3
:1035200087952A95D1F72091BC0024FD03C0109205
:103530000F050895409111055091120560911305F2
:1035400070911405452B462B472B69F30097A10575
:10355000B10541F02AE22A95F1F700C00197A109CF
:10356000B109E1CF809110050C94CF111F93CF9337
:10357000DF93EC01162F0E947F2C181739F0612F72
:10358000CE01DF91CF911F910C94872CDF91CF91C9
:103590001F910895CF92DF92EF92FF921F93CF93E6
:1035A000DF93EC016B017A01888199819C012150A4
:1035B000310939832883642F0E94B61A10E088816C
:1035C0009981212F30E02E153F056CF42C0D3D1D07
:1035D000F90160819C0121503109398328830E94BF
:1035E000B61A1F5FECCF6C01990FEE08FF084AE096
:1035F000C701B601F7FE0BC08DE20E9432106627AC
:103600007727CB016C197D098E099F094AE00E943A
:103610003A1ADF91CF911F91FF90EF90DF90CF90FA
:103620000C941E1A1F93CF93DF93EC01172F0E9467
:10363000B61A612FCE0101960E94B61A6AE070E0B8
:1036400080E090E0DF91CF911F910C944B110C948E
:103650007F2C2F923F924F925F926F927F928F9228
:103660009F92AF92BF92CF92DF92EF92FF920F9311
:103670001F93CF93DF93CDB7DEB766970FB6F8945D
:10368000DEBF0FBECDBF69877A878B879C872D876A
:103690003E874F87588BC801EE8A10E088248A94B1
:1036A000982C540168E4462E68EE562E66246394E6
:1036B000712C05E07DEF272E7DE1372E9C01990FBF
:1036C000440B550B298B3A8B4B8B5C8B6D857E8520
:1036D0008F8598890E94F32D6D837E838F839887D1
:1036E00020E030E0A90169857A858B859C850E9460
:1036F0005B2B882309F499C129853A854B855C8524
:1037000063E67CE987E89FE30E94272E20E030ED06
:1037100042E854E40E94C12B0E94F32D6B0180917A
:103720000001853009F06AC0E4EBF0E1F491FD8B13
:10373000F7FDD9C161E085E00E94F510FD89FF2306
:1037400021F02D89223009F024C1F12CE12C60E018
:1037500072E18AE790E0A70196010E94952C2983E7
:103760003A834B835C83DA01C9010197A109B1094E
:103770008F3F9105A105B10509F00CF4F0C060E49C
:1037800072E48FE090E0A70196010E94952C2150F1
:103790003109410951098D89823009F0A2C082E0C6
:1037A0002F3F31054105510509F00CF48CC160E94A
:1037B00070ED83E090E0A70196010E94952C2150C6
:1037C00031094109510983E02F3F31054105510578
:1037D00009F00CF478C1C301B201A70196010E945F
:1037E000952C21503109410951092F3F31054105DF
:1037F000510511F00CF092C084E065C18F3F09F0D3
:1038000072C100930001E4EBF0E1F491FD8BFF3F06
:1038100009F469C1F13029F158F0F23009F43FC0E0
:103820003D8937FD60C161E085E00E94F51089CFD8
:1038300014BC15BC84B5826084BD85B5816085BD2E
:10384000F1018491E82FF0E0EE0FFF1FE251F24EFC
:1038500085919491EFEDFDE184918093CD031D8AD4
:1038600069CF109280001092810080918100886061
:103870008093810080918100816080938100F101BB
:103880008491E82FF0E0EE0FFF1FE251F24E859198
:103890009491EFEDFDE184918093CC034BCF109296
:1038A000B0001092B1008091B00082608093B000AF
:1038B0008091B10081608093B100F1018491E82F83
:1038C000F0E0EE0FFF1FE251F24E8591949190933C
:1038D000440480934304EFEDFDE18491809345041B
:1038E00029CF2F3F31054105510509F00CF44FC098
:1038F000C301B201A70196010E94952C2150310904
:10390000410951099D89992309F4AFC02F3F310521
:103910004105510511F00CF0B0C06ECF64E274EFB8
:1039200080E090E0A70196010E94952C215031097A
:103930004109510985E02F3F31054105510509F045
:1039400008F4C1C062E17AE780E090E0A701960147
:103950000E94952C21503109410951099DC09C01BB
:1039600081E0FD89F111AFC095B5987F892B85BDA8
:1039700027BD8092D2039092D303A092D403B09239
:10398000D50380916E00826080936E00ACC082E0AF
:10399000E8CFF12CE12C60E072E18AE790E0A7012A
:1039A00096010E94952C215031094109510991E05D
:1039B0002115310581E0480751055CF0C301B201D2
:1039C000A70196010E94952C215031094109510906
:1039D00093E0ED89E13009F07CC080918100887F1F
:1039E000892B8093810030938900209388008092F6
:1039F000CE039092CF03A092D003B092D1038091D6
:103A00006F00826080936F006EC02093B30080923D
:103A1000460490924704A0924804B09249048091D1
:103A200070008260809370005EC06D817E818F81A6
:103A300098850E944B1157C084E02F3F3105410506
:103A4000510509F008F490CF29813A814B815C81BE
:103A50008AE055954795379527958A95D1F7215056
:103A600031094109510985E07FCF83E02F3F3105BE
:103A70004105510509F00CF477CF62E17AE780E067
:103A800090E0A70196010E94952C2150310941092F
:103A90005109ED89EE2381F286E02F3F3105410582
:103AA000510589F080F029813A814B815C819AE04F
:103AB00055954795379527959A95D1F72150310916
:103AC0004109510987E09091B100987F892B80933B
:103AD000B100FD89F13009F486CFF23009F495CFB9
:103AE000FF2309F445CF6D817E818F8198850E94E7
:103AF0004B1185E00E94C91069897A898B899C895C
:103B00000E944B111F5F2E892113E0CD66960FB6E0
:103B1000F894DEBF0FBECDBFDF91CF911F910F9103
:103B2000FF90EF90DF90CF90BF90AF909F908F90DD
:103B30007F906F905F904F903F902F9008951F92CD
:103B40000F920FB60F9211242F933F934F935F93D1
:103B50006F937F938F939F93AF93BF93EF93FF9355
:103B60008091460490914704A0914804B091490483
:103B7000892B8A2B8B2BD1F190914504E091430442
:103B8000F09144048081892780838091460490913C
:103B90004704A0914804B0914904181619061A0662
:103BA0001B069CF48091460490914704A091480420
:103BB000B09149040197A109B109809346049093FB
:103BC0004704A0934804B0934904FF91EF91BF913B
:103BD000AF919F918F917F916F915F914F913F91A5
:103BE0002F910F900FBE0F901F901895809100019C
:103BF0000E94C910EACF1F920F920FB60F921124A4
:103C00002F933F934F935F936F937F938F939F93E4
:103C1000AF93BF93EF93FF9389E195E00E94C30FA9
:103C2000FF91EF91BF91AF919F918F917F916F9194
:103C30005F914F913F912F910F900FBE0F901F906A
:103C400018951F920F920FB60F9211242F938F93F6
:103C50009F93EF93FF93E0912905F0912A058081CE
:103C6000E0912F05F091300582FD1BC0908180917D
:103C700032058F5F8F7320913305821741F0E091F9
:103C80003205F0E0E75EFA4F958F80933205FF91A1
:103C9000EF919F918F912F910F900FBE0F901F90DA
:103CA00018958081F4CF1F920F920FB60F921124B6
:103CB0002F933F938F939F93AF93BF9380913B0438
:103CC00090913C04A0913D04B0913E0430913A049F
:103CD00023E0230F2D3758F50196A11DB11D209328
:103CE0003A0480933B0490933C04A0933D04B0932A
:103CF0003E0480913F0490914004A0914104B09112
:103D000042040196A11DB11D80933F04909340048D
:103D1000A0934104B0934204BF91AF919F918F91C2
:103D20003F912F910F900FBE0F901F90189526E88E
:103D3000230F0296A11DB11DD2CF1F920F920FB675
:103D40000F9211242F933F934F935F936F937F9321
:103D50008F939F93AF93BF93EF93FF938091B9009D
:103D6000887F803609F44AC0F0F5883209F4A7C08C
:103D700018F5803109F49BC0B8F4882309F4F9C020
:103D8000883009F494C0FF91EF91BF91AF919F915A
:103D90008F917F916F915F914F913F912F910F90F4
:103DA0000FBE0F901F901895883109F488C080329B
:103DB00051F78093ED0414C0803409F49DC040F4A1
:103DC0008033B9F38833F9F68093ED0485ECB0C005
:103DD000803509F485C0883509F496C0883499F691
:103DE0000E947E1AD0CF883909F48CC038F5883704
:103DF00029F050F4883611F0803729F683E080935B
:103E00000F051092390457C0883809F47BC08039F7
:103E100019F0803809F0B7CF80913904803208F06A
:103E200071C0E091390481E08E0F80933904809154
:103E3000BB00F0E0E75EFB4F80833DC0803B39F084
:103E4000E0F4803A09F479C0883A09F09CCF84E024
:103E500080930F051092180410921704E0916204E9
:103E6000F091630409958091170481110FC081E0DE
:103E7000809317041092F70309C0803C09F4A6CF81
:103E8000883C09F4A3CF883B09F07DCFE09118046A
:103E900081E08E0F80931804F0E0E950FC4F8081A0
:103EA0008093BB00909118048091170429C08091E1
:103EB000EA048093BB0085EC8093BC0064CF9091B2
:103EC000EC048091EB04981758F5E091EC0481E044
:103ED0008E0F8093EC04F0E0E753FB4F8081E9CF35
:103EE000E091EC0481E08E0F8093EC048091BB00A4
:103EF000F0E0E753FB4F80839091EC048091EB045A
:103F00009817C8F285E8D8CFE091EC0481E08E0FD5
:103F10008093EC048091BB00F0E0E753FB4F80837B
:103F20008091EE0481115CCF81E08093E90484EA02
:103F30008093BC0010920F0526CF85EC8093BC00C7
:103F400010920F0580913904803230F4E0913904E9
:103F5000F0E0E75EFB4F10826091390470E0E09181
:103F60006004F091610489E194E0099510923904AC
:103F70000ACF1092ED0434CF1F920F920FB60F921A
:103F800011242F933F934F935F936F937F938F935E
:103F90009F93AF93BF93CF93DF93EF93FF932091C2
:103FA000C30530E0F901E056FF4E8491F901E65275
:103FB000F24ED491F901E850F24EC491CC2379F03D
:103FC00081110E947210EC2FF0E0EE0FFF1FE457FA
:103FD000FF4EA591B491EC91ED2381E009F480E0CE
:103FE0002091C8053091C9052F5F3F4F3093C90517
:103FF0002093C8052091C6053091C70525363105A7
:1040000018F094E09093C2059091C205911130C0D0
:10401000811169C02091C8053091C9052436310548
:1040200028F41092C9051092C8055DC0109294063C
:104030001092C7051092C6052091C6053091C7059C
:10404000A9014F5F5F4F5093C7054093C60540914C
:10405000C8055091C905220F331FF901E653FA4FE5
:10406000518340831092C9051092C80591E021C088
:104070009091C205913001F58130A9F52091C605D6
:104080003091C705A9014F5F5F4F5093C70540931B
:10409000C6054091C8055091C905220F331FF9018B
:1040A000E653FA4F518340831092C9051092C80518
:1040B00092E09093C20517C09091C205923061F4CE
:1040C000882309F4B9CF2091C8053091C905253658
:1040D000310548F093E0EDCF9091C205933099F40B
:1040E000882309F49ECF9091C5059923A9F08111E9
:1040F00026C08091C405882371F08091C40561E0D9
:104100000E949B1009C09091C205943061F791E024
:1041100090939406DFCF2D9AFF91EF91DF91CF918D
:10412000BF91AF919F918F917F916F915F914F91CF
:104130003F912F910F900FBE0F901F901895809177
:10414000C405882321F08091C40560E0D9CF2D9863
:10415000E3CF10921C0510921B0588EE93E0A0E0BF
:10416000B0E080931D0590931E05A0931F05B093AA
:10417000200525EE32E030931A052093190525EC31
:1041800030E0309326052093250524EC30E0309371
:1041900028052093270520EC30E030932A05209352
:1041A000290521EC30E030932C0520932B0522ECDF
:1041B00030E030932E0520932D0526EC30E030932F
:1041C000300520932F05109232051092330510927E
:1041D0003405109235051092B9051092B8058093F8
:1041E000BA059093BB05A093BC05B093BD0587EFBE
:1041F00092E09093B7058093B60584E08093C30561
:104200001092C5051092F2061092F1061092F40673
:104210001092F3061092F6061092F50663E070E035
:1042200090E080E00E94DA2F009751F19093F2061F
:104230008093F10622E030E03093F4062093F306F9
:104240002091F5063091F606232B11F4DC011C9227
:1042500082E090E09093F6068093F50668E073E0C4
:104260008091F1069091F2060E94AD301DC010922F
:10427000E0061092DF061092DE061092DD0646C0C0
:104280008091F1069091F206009711F00E94D22AD7
:104290001092F2061092F1061092F6061092F506B0
:1042A0001092F4061092F3061092DC061092E306C8
:1042B0001092EA061092EB061092EC061092ED06B0
:1042C00081E08093E9068093E6061092E70692E08B
:1042D0009093E8068093DB0685E190E09093E006FA
:1042E0008093DF060E94362A9093E5068093E406C9
:1042F000009709F4BCCF25E1FC0111922A95E9F75A
:1043000087E090E09093DE068093DD068AE090E0FF
:104310009093E2068093E1068091DC06882341F0C9
:1043200061E08AE00E94F51060E08AE00E949B1044
:10433000E2E0FEE1E491F0E0EE0FFF1FE251F24E09
:10434000859194919093EF068093EE06E4EEFDE163
:10435000E491E093F00688E68093C80680E090E060
:10436000A0E8BFE38093B8069093B906A093BA067D
:10437000B093BB061092BC061092BD061092BE060A
:104380001092BF061092C0061092C1061092C2068B
:104390001092C3061092C4061092C5061092C6066B
:1043A0001092C7061092AC061092AD061092AE069F
:1043B0001092AF061092B0061092B1061092B2069B
:1043C0001092B3061092B4061092B5061092B6067B
:1043D0001092B706EBE9F6E081E1DF011D928A95C4
:1043E000E9F780E48093950686EB95E09093970635
:1043F000809396060895CF93DF93CDB7DEB76D9780
:104400000FB6F894DEBF0FBECDBF789484B582603E
:1044100084BD84B5816084BD85B5826085BD85B568
:10442000816085BD80916E00816080936E001092E6
:104430008100809181008260809381008091810061
:1044400081608093810080918000816080938000F2
:104450008091B10084608093B1008091B000816050
:104460008093B00080917A00846080937A0080917C
:104470007A00826080937A0080917A0081608093D4
:104480007A0080917A00806880937A001092C1004F
:10449000E0912905F0912A0582E08083E0912505CD
:1044A000F09126051082E0912705F091280580E122
:1044B000808310923105E0912D05F0912E0586E064
:1044C0008083E0912B05F0912C05808180618083B1
:1044D000E0912B05F0912C05808188608083E0912C
:1044E0002B05F0912C05808180688083E0912B055D
:1044F000F0912C0580818F7D808385E090E0A0E0A5
:10450000B0E080931D0590931E05A0931F05B09306
:1045100020051092C8041092C7041092160510923C
:1045200015050E94B11183E49FE09093630480938A
:10453000620484E49FE0909361048093600488E1C6
:104540008093B80087E391E10E942E1A85E291E101
:104550000E942E1AEE24E39410E000E020E030E008
:1045600048E452E460E070E080EA91E40E94291B94
:104570008FEF93E09A83898344E150E063E471E034
:10458000CE0101960E94CA1A48E150E06BE271E048
:10459000CE0101960E94CA1A4AE050E061E271E041
:1045A000CE0101960E94CA1A40E250E061E071E03B
:1045B000CE0101960E94CA1A8AEE93E00E94271B40
:1045C000869559EEC52E53E0D52EA82EB12C69EE56
:1045D000662E63E0762E78EE872E73E0972EC30169
:1045E0008C199D098A159B054CF5C6018A199B09F2
:1045F0000E94271B082FC6010E94271B182F602F1F
:1046000070E0C4010E94AC2F072E000C880B990BA0
:104610000E94622B1B012C01612F70E090E080E072
:104620000E94602BEE24E39410E000E0A2019101CF
:104630000E94291B21E0C21AD108D1CF85EB90E15D
:104640000E942E1A0E94C414382E0E94221A3DE99C
:10465000832E31E0932E8DE292E09A8F898FADE127
:10466000B2E0BE8BAD8BEDE3F2E0FA8BE98B00E2BA
:1046700010E080EC90E09C8B8B8B40E8E42EF12CDA
:10468000E89435F83D8EA989BA89AD53B2406D01E1
:10469000BD8DB93571F4F801EC57FB4F6081C8014D
:1046A00040970E94B61A6AE070E080E090E00E94B5
:1046B0004B11E989FA896191FA8BE98BC6010E9455
:1046C000B61AA98DBA8D6D91BA8FA98FC8010E94B3
:1046D000B61AED89FE896191FE8BED8BC80140967B
:1046E0000E94B61A8B899C8983569F4F988F8F8B17
:1046F000AB88BC881401D12CC12CD1014D905D90A8
:104700006D907D901D0120E030E0A901C301B20150
:104710000E94222E20E030E040E05FE387FD98C059
:10472000C301B2010E940E2D0E94EC2DC6018E0D18
:104730009F1D0E94B61AEF89F88D61917191F88FD3
:10474000EF8BC5010E94121BF2E0AF0EB11CCA94A0
:10475000CD2809F079C082E0E80EF11C98E0890EBE
:10476000911CAB89BC891496BC8BAB8B0F5F1F4F20
:10477000A115B14009F087CF89E191E10E942E1A7D
:104780006DE183E191E00E94B61A90E2C92ED12C2E
:10479000198A512C412CF9896F2E712C83E191E0FB
:1047A0000E94271B082E000C990B681679060CF046
:1047B000FDC0660C771CF301E957FD4FA080B18066
:1047C000D5010D900020E9F78D01015011090A195A
:1047D0001B090D8BF2013196F88FEF8B6FEF600F95
:1047E000C201805C9E4F0E94B61A11271801F1E0A9
:1047F0002F1A31082A0C3B1CD1018C91893409F401
:10480000D1C58BE093E00E94111A45019FEB491A34
:104810009EEF590AD201AA19BB09BA8FA98FE98C58
:10482000FA8CE80CF91C882D8A19BD898B17A8F41D
:10483000F40181914F010E943210F401319760819F
:10484000C7010E94B61AEBCFCC24C394D12C55CF0C
:10485000C301B2010E940D2D67CFAF88B88CA00EA6
:10486000B11E040D151D0E941E1AF301E35BFD4FDE
:1048700080809180F4016491C8010E94B61A8091F1
:104880004A04811160C0D1018C91893409F05BC068
:10489000B601C5018F5B9E4F0E94121BF4018491EB
:1048A00080934F0407E024E1181634F404E028E074
:1048B000813011F404E020E120935404082E000C10
:1048C000990B97FF03C0919581959109289FA001AD
:1048D000299F500D1124040F152F111D0F5F1F4F1D
:1048E000612C712C84E50E94320F6D2D86EB95E0D2
:1048F0000E940F136C2D86EB95E00E940F1326018A
:10490000F0E14F0E511C73016C187D08680C791C86
:10491000C11420E2D206F9F40E941E1A8FEC90E135
:104920000E942E1A81E080934A0402E0E02E02E306
:1049300010E020E030E048EC52E460E070E080E21B
:1049400091E40E94291B2501B3E04B0E511CE9891B
:10495000EF5FE98B20CF9FEFE91AF90AF301EC0D25
:10496000FD1D649186EB95E00E940F13AFEFCA1A0C
:10497000DA0A01501109101611064CF4C6018F71A4
:104980009927892B21F0C414D50409F0C1CF86EBF7
:1049900095E00E943E136AE070E080E090E00E94A3
:1049A0004B11101611067CF637019CCFB60184E13D
:1049B00091E00E94121B0E941E1A89E091E10E9460
:1049C00037104AE060E270E080E090E00E943A1A1E
:1049D0008EE70E943210B60190E080E04AE00E942B
:1049E0003A1A8FE20E9432104AE060E070E280E002
:1049F00090E00E943A1A89EF90E10E942E1A82E21A
:104A000093E00E94111A0E941E1A14EAE12E14E08B
:104A1000F12E00E110E0C8010E94271BD7018D9301
:104A20007D010F5F1F4F00321105A9F71092C804D6
:104A30001092C70410921605109215050E94B1112C
:104A400083E49FE0909363048093620484E49FE096
:104A5000909361048093600440E860E085E996E00B
:104A60000E9497146AE070E080E090E00E944B1191
:104A700040E050E06AE774E485E996E00E940F1593
:104A8000A0E4CA2EA8E7DA2EADE7EA2EFF24F394BD
:104A9000C0929806D0929906E0929A06F0929B06F0
:104AA00040E050E060E773E485E996E00E940F156E
:104AB000C0929E06D0929F06E092A006F092A106B8
:104AC000C0929806D0929906E0929A06F0929B06C0
:104AD00080EF90E090939D0680939C0680E090E0AC
:104AE000A6E1B4E48093A6069093A706A093A80637
:104AF000B093A9066CE382E191E00E94B61A65E0EA
:104B000070E080E090E00E944B116EEF85E996E046
:104B10000E94E414682F70E06F5F7F4F90E080E0A8
:104B20000E94602B20E034E244E759E40E94C12B4C
:104B30006B017C0160919E0670919F068091A0069A
:104B40009091A1060E94622B9B01AC01C701B601A6
:104B50000E947A2D9B01AC0160E070E080E89FE349
:104B60000E947A2D6093A2067093A3068093A406F8
:104B70009093A50680E490E00E94362A9093AB06BD
:104B80008093AA0684EB90E09A87898724EF31E02E
:104B90003E872D8784EC99E0988B8F874EE051E01B
:104BA0005A8349833E832D8398878F83E1ECF2E01B
:104BB000F88FEF8B84E894E09E8B8D8BA4E6B4E0B5
:104BC000BA8BA98B312C212CB0E4EB2EF12C00E315
:104BD00010E0EF89F88D81919191F88FEF8B00971C
:104BE00009F4E2C1019721F4CE0101969C8F8B8FCD
:104BF000EB8DFC8DC080D180C80140970E94271B9F
:104C0000A82EC8010E94271BB82E6A2DAA0C770B6C
:104C1000880B990B0E94622B2B013C016B2DBB0C66
:104C2000770B880B990B0E94622B9B01AC01C3018F
:104C3000B2010E94C12B4B015C01B601D7FE02C03C
:104C40006F5F7F4F75956795072E000C880B990B4A
:104C50000E94622B9B01AC01C501B4010E940E2D84
:104C60000E94EC2D4B01AD89BE896D937D93BE8B67
:104C7000AD8BC80180970E94271B782EC8010E9427
:104C8000271B898F672D770C770B880B990B0E9458
:104C9000622B2B013C01B98D6B2FBB0F770B880B5F
:104CA000990B0E94622B9B01AC01C301B2010E94CF
:104CB000C12B2B013C01B401092C000C880B990B72
:104CC0000E94622B9B01AC01C301B2010E940E2D18
:104CD0000E94EC2DE989FA8971836083B401C701D0
:104CE0000E94121BA989BA896D917D91BA8BA98BFB
:104CF000C801880F991F0E94121BEB8DFC8D8681C5
:104D0000978124813581821B930BB6010E94AC2FC1
:104D1000072E000C880B990B0E94622B2091A20693
:104D20003091A3064091A4065091A5060E94C12B84
:104D3000E091AA06F091AB06E20DF31D608371834A
:104D40008283938320E030E04AE754E40E94C12B41
:104D50000E94EC2DC701805A9F4F0E94121B0F5FCB
:104D60001F4FF2E0EF0EF11C24E0220E311C003444
:104D7000110509F02ECF16E0809195060E94320FA2
:104D80008091960690919706DC01ED91FC9101903F
:104D9000F081E02D612F099570E060E0809196062A
:104DA000909197060E94BD1470E060E08091960695
:104DB000909197060E94BD1460E070E18091960684
:104DC000909197060E94BD1460E170E08091960674
:104DD000909197060E94BD14809196069091970637
:104DE0000E943E131C5F163439F664E670E080E0E2
:104DF00090E00E944B118AEC9DE10E942E1A01E086
:104E000023E042E06BE68091C8060E94C61900E0EC
:104E100022E044E06BE18091C8060E94C61922E0BE
:104E200044E06CE18091C8060E94C61920E046E08B
:104E30006BE68091C8060E94E5160E94181784331D
:104E400011F08C3091F611E0198721E047E06BE614
:104E50008091C8060E94E51664E670E080E090E06C
:104E60000E944B1187E0898707E023E042E06AE671
:104E70008091C8060E94C61964E670E080E090E068
:104E80000E944B1119879E01275F3F4F41E06BE65F
:104E90008091C8060E944A1419869E01275F3F4FE1
:104EA00041E068E38091C8060E944A1419869E0179
:104EB000275F3F4F41E063E28091C8060E944A1499
:104EC00019869E01275F3F4F41E06CE18091C80643
:104ED0000E944A1480E889879E01275F3F4F41E086
:104EE00067E38091C8060E944A1419879E01275FD4
:104EF0003F4F41E06BE68091C8060E944A1484E06F
:104F000089879E01275F3F4F41E069E18091C80694
:104F10000E944A1419879E01275F3F4F41E06AE1D2
:104F20008091C8060E944A1440E06DE68091C80650
:104F30000E94871440E06EE68091C8060E948714A4
:104F400080E190E00E94362A5C0180E190E00E94BE
:104F5000362A2C01312CE12CD12CC12C56EF252ED8
:104F6000612C77247394C6014096F22CFC18873F7D
:104F70009B4010F440E1F42EC3018E199109F816FC
:104F8000190619F014F0FE2CF194D20190E080E0A3
:104F9000960123593E4E8F1560F4F901E80FF91F71
:104FA000E491ED930196F7CFDE011996BC8FAB8F9C
:104FB0001FCE92014F2D6FE68091C8060E944A14C1
:104FC0008F2C912CA114B10409F4C5C1432D4F714C
:104FD0006DE68091C8060E9487144E2D6EE6809182
:104FE000C8060E94871408EE13E095014F2D6FE666
:104FF0008091C8060E943E16A401B501C2010E941C
:105000009730892B09F4A7C1C5010E94D22AC20199
:105010000E94D22A11E01093C60434EBE32E34E050
:10502000F32E8B899C890E94271B082F8B899C89D2
:1050300001960E94271B90E0982F8827800F911DD2
:10504000D7018D939D937D01EB89FC893296FC8B72
:10505000EB8BEC30F14029F7E090B404F090B5040C
:105060000E94181766E0883308F067E7A70180916F
:10507000C8060E947614E090B604F090B7040E942F
:10508000181768E0883308F06AE7A7018091C8061E
:105090000E947614E090B804F090B9040E941817AA
:1050A0006AE0883308F06DE7A7018091C8060E9486
:1050B00076144091BA045091BB0463E18091C80614
:1050C0000E9476144091BC045091BD0465E180912A
:1050D000C8060E9476144091BE045091BF0467E157
:1050E0008091C8060E94761411114DC1EE24E394FC
:1050F00010E000E020E030E048E452E460E070E0DE
:1051000080E291E40E94291B85EB9DE10E942E1A0A
:105110000E94C414182F0E94221A1F7D193509F00D
:10512000BFC086E99DE10E942E1A95E0E92E08E5B0
:1051300012E020E030E048EC53E460E070E080E012
:1051400091E40E94291BEE24E39420E030E048EC37
:1051500053E460E070E080E791E40E94291B87E857
:105160009DE10E942E1A00E010E028EC31E440E0BE
:1051700050E060EC7EE38BE30E943B1700E010E020
:1051800021EE32E440E050E060EC7EE383E40E94F4
:105190003B170E94181766E0883308F067E708EEAF
:1051A00013E029EC36E042E08091C8060E943E16EA
:1051B0006091C9067091CA0676276727762780E036
:1051C00091E00E94121B0E94181768E0883308F0D3
:1051D0006AE708EE13E029EC36E042E08091C80669
:1051E0000E943E166091C9067091CA06762767270D
:1051F000762782E091E00E94121B0E9418176AE055
:10520000883308F06DE708EE13E029EC36E042E061
:105210008091C8060E943E166091C9067091CA0628
:1052200076276727762784E091E00E94121B29ECFD
:1052300036E042E063E18091C8060E943E1660912C
:10524000C9067091CA0676276727762786E091E01F
:105250000E94121B29EC36E042E065E18091C8060D
:105260000E943E166091C9067091CA06762767278C
:10527000762788E091E00E94121B29EC36E042E09C
:1052800067E18091C8060E943E166091C906709140
:10529000CA067627672776278AE091E00E94121BCC
:1052A00085E79DE10E942E1A10E000E0C8010E94EF
:1052B000271BC82E880FDD08EE08FF084AE0C7014B
:1052C000B601F7FE0BC08DE20E94321066277727E9
:1052D000CB016C197D098E099F094AE00E943A1A98
:1052E00089E00E943210C8018F7099270F9741F40E
:1052F0000E941E1A6AE070E080E090E00E944B116C
:105300000F5F1F4F011584E0180781F686E0E82E35
:1053100006E410E020E030E048E452E460E070E0B1
:1053200080E991E40E94291B21E047E06AE6809130
:10533000C8060E94E51683ED9DE10E942E1A00E04A
:1053400010E001151105E9F30E94AF0F8823C9F39E
:105350000E940000F6CFC80CD91CE6EFCE16EBE099
:10536000DE0618F5EF0C09F43394432D4F716DE60A
:105370008091C8060E9487144E2D6EE68091C80663
:105380000E948714F0CD83E69DE10E9437104AE029
:1053900061E070E080E090E00E943A1A89E20E94A9
:1053A000221AC9CF87E193E02ECAC5010E94D22AF2
:1053B000C2010E94D22A80E094E09A838983AE01E0
:1053C0004F5F5F4F60E78091C8060E94251488E117
:1053D00089879E01275F3F4F41E06BE18091C806BE
:1053E0000E944A1480EC89879E01275F3F4F41E06D
:1053F0006AE68091C8060E944A1482E089879E016D
:10540000275F3F4F41E068E38091C8060E944A143D
:1054100021E042E06AE68091C8060E94E51620E09D
:1054200047E06AE68091C8060E94E5168CE190E0AC
:105430009093DA068093D90610E0EDCD8091E406D2
:105440009091E5060E94D22A8091E1069091E206B1
:1054500097FD03C060E00E94F5108091F1069091E5
:10546000F206009711F00C94D22A08950F931F931F
:10547000CF93DF938230910510F482E090E0E091C9
:10548000F906F091FA0630E020E0B0E0A0E03097B5
:1054900099F42115310509F44AC0281B390B243031
:1054A0003105D8F58A819B816115710589F1FB0170
:1054B00093838283FE0111C0408151810281138157
:1054C00048175907E0F04817590799F4109761F009
:1054D00012960C93129713961C933296CF01DF917C
:1054E000CF911F910F9108950093F9061093FA063A
:1054F000F4CF2115310551F04217530738F0A901B7
:10550000DB019A01BD01DF01F801C1CFEF01F9CF45
:105510009093FA068093F906CDCFFE01E20FF31FB8
:10552000819391932250310939832883D7CF2091D9
:10553000F7063091F806232B41F420915901309160
:105540005A013093F8062093F706209157013091C5
:1055500058012115310541F42DB73EB740915B014B
:1055600050915C01241B350BE091F706F091F80691
:10557000E217F307A0F42E1B3F0B2817390778F02A
:10558000AC014E5F5F4F2417350748F04E0F5F1F89
:105590005093F8064093F706819391939FCFF0E0E4
:1055A000E0E09CCFCF93DF930097E9F0FC013297C6
:1055B00013821282A091F906B091FA06ED0130E053
:1055C00020E01097A1F420813181820F931F209158
:1055D000F7063091F8062817390709F061C0F093F3
:1055E000F806E093F706DF91CF910895EA01CE1710
:1055F000DF07E8F54A815B819E0141155105B1F74E
:10560000E901FB83EA8349915991C40FD51FEC1737
:10561000FD0761F4808191810296840F951FE90155
:1056200099838883828193819B838A83F0E0E0E081
:1056300012968D919C9113970097B9F52D913C91FD
:105640001197CD010296820F931F2091F70630919A
:10565000F8062817390739F6309751F51092FA06EF
:105660001092F906B093F806A093F706BCCFD38347
:10567000C28340815181840F951FC817D90761F4F7
:105680004E5F5F4F88819981480F591F5183408336
:105690008A819B81938382832115310509F0B0CFE4
:1056A000F093FA06E093F9069ECFFD01DC01C0CF2E
:1056B00013821282D7CF0E949D2B08F481E00895B7
:1056C000E89409C097FB3EF490958095709561959C
:1056D0007F4F8F4F9F4F9923A9F0F92F96E9BB2752
:1056E0009395F695879577956795B795F111F8CFCE
:1056F000FAF4BB0F11F460FF1BC06F5F7F4F8F4F39
:105700009F4F16C0882311F096E911C0772321F02E
:105710009EE8872F762F05C0662371F096E8862FC6
:1057200070E060E02AF09A95660F771F881FDAF71D
:10573000880F9695879597F90895990F0008550F4A
:10574000AA0BE0E8FEEF16161706E807F907C0F007
:1057500012161306E407F50798F0621B730B840B0F
:10576000950B39F40A2661F0232B242B252B21F4E9
:1057700008950A2609F4A140A6958FEF811D811D89
:1057800008950E94D42B0C94452C0E94372C38F09D
:105790000E943E2C20F0952311F00C942E2C0C949A
:1057A000342C11240C94792C0E94562C70F3959F64
:1057B000C1F3950F50E0551F629FF001729FBB2708
:1057C000F00DB11D639FAA27F00DB11DAA1F649FA4
:1057D0006627B00DA11D661F829F2227B00DA11D57
:1057E000621F739FB00DA11D621F839FA00D611DDD
:1057F000221F749F3327A00D611D231F849F600DFE
:10580000211D822F762F6A2F11249F5750409AF026
:10581000F1F088234AF0EE0FFF1FBB1F661F771FB2
:10582000881F91505040A9F79E3F510580F00C947D
:105830002E2C0C94792C5F3FE4F3983ED4F386959C
:1058400077956795B795F795E7959F5FC1F7FE2B1D
:10585000880F911D9695879597F9089597F99F67F9
:1058600080E870E060E008959FEF80EC08950024E8
:105870000A941616170618060906089500240A94B5
:1058800012161306140605060895092E0394000C3B
:1058900011F4882352F0BB0F40F4BF2B11F460FFCA
:1058A00004C06F5F7F4F8F4F9F4F089557FD9058F3
:1058B000440F551F59F05F3F71F04795880F97FBD4
:1058C000991F61F09F3F79F087950895121613068E
:1058D0001406551FF2CF4695F1DF08C016161706BD
:1058E0001806991FF1CF86957105610508940895F2
:1058F000E894BB2766277727CB0197F90895F99994
:10590000FECF92BD81BDF89A992780B50895262FC4
:10591000F999FECF1FBA92BD81BD20BD0FB6F89494
:10592000FA9AF99A0FBE01960895052E97FB1EF478
:1059300000940E94AC2C57FD07D00E94EB2C07FC72
:1059400003D04EF40C94AC2C509540953095219595
:105950003F4F4F4F5F4F089590958095709561959B
:105960007F4F8F4F9F4F08952F923F924F925F929C
:105970006F927F928F929F92AF92BF92CF92DF925F
:10598000EF92FF920F931F93CF93DF93CDB7DEB7C4
:10599000CA1BDB0B0FB6F894DEBF0FBECDBF099458
:1059A0002A88398848885F846E847D848C849B84AF
:1059B000AA84B984C884DF80EE80FD800C811B81BD
:1059C000AA81B981CE0FD11D0FB6F894DEBF0FBEEC
:1059D000CDBFED010895A1E21A2EAA1BBB1BFD014C
:1059E0000DC0AA1FBB1FEE1FFF1FA217B307E407BE
:1059F000F50720F0A21BB30BE40BF50B661F771F16
:105A0000881F991F1A9469F76095709580959095F5
:105A10009B01AC01BD01CF0108955058BB27AA27B7
:105A20000E94252D0C94452C0E94372C38F00E94A2
:105A30003E2C20F039F49F3F19F426F40C94342CBA
:105A40000EF4E095E7FB0C942E2CE92F0E94562CC7
:105A500058F3BA17620773078407950720F079F4A3
:105A6000A6F50C94782C0EF4E0950B2EBA2FA02DF1
:105A70000B01B90190010C01CA01A0011124FF27FB
:105A8000591B99F0593F50F4503E68F11A16F040F6
:105A9000A22F232F342F4427585FF3CF46953795F5
:105AA0002795A795F0405395C9F77EF41F16BA0BBA
:105AB000620B730B840BBAF09150A1F0FF0FBB1F68
:105AC000661F771F881FC2F70EC0BA0F621F731FB1
:105AD000841F48F4879577956795B795F7959E3F0E
