:100000000C9429010C9451010C9451010C94510150
:100010000C9451010C9451010C9451010C94DB1877
:100020000C9451010C9451010C9451010C94F81A48
:100030000C9451010C9451010C9451010C945101F8
:100040000C948F190C9451010C945D190C94371970
:100050000C9451010C9451010C9451010C945101D8
:100060000C94D9190C94510105A84CCDB2D44EB9B9
:100070003836A9020C50B9918688083CA6AAAA2A4B
:10008000BE000000803F07634236B79BD8A71A39ED
:10009000685618AEBAAB558C1D3CB7CC5763BD6DD6
:1000A000EDFD753EF6177231BF000000803F08007D
:1000B0000000BE922449123EABAAAA2ABECDCCCCE7
:1000C0004C3E00000080BEABAAAAAA3E0000000081
:1000D000BF000000803F0000000000084178D3BB53
:1000E0004387D1133D190E3CC3BD4282AD2B3E6800
:1000F000EC8276BED98FE1A93E4C80EFFFBE01C4F1
:10010000FF7F3F0000000000010000010000000030
:1001100000000000000000000000000000000000DF
:1001200023002600290000000000240027002A00E8
:1001300002536572766F3A00536B696C6C005461C0
:10014000736B5100526561647921004E5F32343027
:1001500039303700426974746C65000A2A20537480
:10016000617274202A0054007363726800636B002C
:10017000706565007075006869007374720073695A
:100180007400747200776B00637200767400630011
:100190004200700052007570004C00670046006419
:1001A000004F564600000000080002010000030452
:1001B0000700000000000000002072657472656195
:1001C0007420616E64207475726E007475726E00B6
:1001D00020746F6F20636C6F7365002066726565B5
:1001E000004F56462120576F6E2774207361766545
:1001F000210061626F7274656400736176656400EA
:100200004E5F32343039303700426974746C6500A7
:100210004C6F7720706F7765723A00010204081006
:100220002040800102040810200102040810200070
:10023000000000250028002B00040404040404042A
:100240000402020202020203030303030300E51B8C
:10025000D52D11241FBECFEFD8E0DEBFCDBF11E0FA
:10026000A0E0B1E0E6E3FDE602C005900D92A43FF8
:10027000B107D9F727E0A4EFB1E001C01D92AA337E
:10028000B207E1F711E0C8E2D1E004C02197FE0116
:100290000E949535C732D107C9F70E94EA1C0C9419
:1002A0008E360C94000047E018160CF444E040939E
:1002B000120598E0823024F494E1813009F490E151
:1002C00090931305282F880F330B37FF03C0319508
:1002D00021953109929FB001939F700D1124CB019C
:1002E000840F911D089580913603082E000C990B00
:1002F000909315058093140580913703082E000C08
:10030000990B90931705809316058091380380937D
:10031000180580910D0587FF0EC0909139039093C9
:10032000190590913A0390931A0590913B0390938D
:100330001B0590E005C08130E1F398E08230CCF3FA
:1003400090931C05482F082E000C550B57FF03C037
:1003500051954195510990911305949F9001959F56
:10036000300D112442ED51E0421B530B50930C0110
:1003700040930B01E0911205E20FF32FF11D45E3CD
:1003800053E070E060E0DA01AE0FBF1F9C91DA012C
:10039000AD52BE4F9C936F5F7F4F4150510926175E
:1003A00037078CF79EE79093080548E055E0421B1D
:1003B000530B50931E0540931D05809334030895FD
:1003C000CF93DF93DC019096FC0141E85FEF60E89A
:1003D00070E021913191261737070CF4B9014217CB
:1003E00053070CF4A901EA17FB0799F763387F4F0D
:1003F0001CF04E3751056CF122E020931805DC010A
:100400002D913D91ED01229737FF02C02F5F3F4FA5
:100410003595279539832883AE17BF0789F7A091B3
:100420001D05B0911E05EC01288102962D938E17B3
:100430009F07C9F781E080930D0510921C0580E1AC
:10044000809313051092330310923203DF91CF9102
:10045000089521E020931805E2CF80912E0390911A
:100460002F03891B990B089508950895AF92BF92A9
:10047000CF92DF92EF92FF920F931F93CF93DF9370
:100480006C017B018B01040F151FEB015E01AE189F
:10049000BF08C017D10759F06991D601ED91FC91C1
:1004A0000190F081E02DC6010995892B79F7C501EE
:1004B000DF91CF911F910F91FF90EF90DF90CF9040
:1004C000BF90AF900895FC01538D448D252F30E0EF
:1004D000842F90E0821B930B541710F0CF96089551
:1004E00001970895FC01918D828D981761F0A28D7E
:1004F000AE0FBF2FB11D5D968C91928D9F5F9F7344
:10050000928F90E008958FEF9FEF0895FC01918DF9
:10051000828D981731F0828DE80FF11D858D90E066
:1005200008958FEF9FEF0895FC01918D228D892F03
:1005300090E0805C9F4F821B91098F7399270895EB
:100540008FE695E00E94940221E0892B09F420E0D7
:10055000822F089580E090E0892B29F00E94A0026C
:1005600081110C9400000895FC01A48DA80FB92FEF
:10057000B11DA35ABF4F2C91848D90E001968F73CB
:100580009927848FA689B7892C93A089B1898C91EA
:10059000837080648C93938D848D981306C0028839
:1005A000F389E02D80818F7D80830895EF92FF9203
:1005B0000F931F93CF93DF93EC0181E0888F9B8D86
:1005C0008C8D98131AC0E889F989808185FF15C040
:1005D0009FB7F894EE89FF896083E889F989808163
:1005E0008370806480839FBF81E090E0DF91CF9132
:1005F0001F910F91FF90EF900895F62E0B8D10E054
:100600000F5F1F4F0F731127E02E8C8D8E110CC0C2
:100610000FB607FCFACFE889F989808185FFF5CF0D
:10062000CE010E94B402F1CFEB8DEC0FFD2FF11D36
:10063000E35AFF4FF0829FB7F8940B8FEA89FB894A
:1006400080818062CFCF682F8FE695E00C94D60230
:100650000F931F93CF93DF938C01D0E0C0E0F8019C
:10066000EC0FFD1F6491662341F08FE695E00E9438
:10067000D602892B11F02196F2CFCE01DF91CF91D6
:100680001F910F910895CF93DF93EC01888D8823FC
:10069000B9F0AA89BB89E889F9898C9185FD03C0E5
:1006A000808186FD0DC00FB607FCF7CF8C9185FFCA
:1006B000F2CF808185FFEDCFCE010E94B402E9CF59
:1006C000DF91CF910895833081F028F4813099F043
:1006D0008230A9F008958730A9F08830C9F08430BD
:1006E000B1F4809180008F7D03C0809180008F776E
:1006F00080938000089584B58F7784BD089584B574
:100700008F7DFBCF8091B0008F778093B0000895EC
:100710008091B0008F7DF9CF1F93CF93DF93282F67
:1007200030E0F901EB55FE4F8491F901E55EFD4F94
:10073000D491F901E75CFD4FC491CC23A9F0162FA9
:1007400081110E946303EC2FF0E0EE0FFF1FE15DCB
:10075000FD4FA591B4918FB7F894EC91111108C099
:10076000D095DE23DC938FBFDF91CF911F91089549
:10077000DE2BF8CF9091000189130BC0E0E3F1E08C
:10078000E4919FEF90930001E13049F028F0E230CE
:1007900061F060E00C948C0310926E00FACF90919F
:1007A0006F009D7F90936F00F4CF909170009D7FBC
:1007B0009093700091E09093B0009091B100987F79
:1007C00094609093B1001092B300E3CFCF93DF9386
:1007D00090E0FC01E55EFD4F2491875C9D4FFC019C
:1007E00084918823D1F090E0880F991FFC01EA5D85
:1007F000FE4FA591B491FC01E15DFD4FC591D491EF
:1008000061110EC09FB7F8948C91E22FE0958E2372
:100810008C932881E223E8839FBFDF91CF910895D5
:100820008FB7F894EC91E22BEC938FBFF6CF8E50FC
:10083000806480937C0080917A00806480937A0049
:1008400080917A0086FDFCCF8091780090917900AC
:1008500008953FB7F89480916B0290916C02A0913B
:100860006D02B0916E0226B5A89B05C02F3F19F00E
:100870000196A11DB11D3FBFBA2FA92F982F882720
:10088000BC01CD01620F711D811D911D42E0660FFB
:10089000771F881F991F4A95D1F708950F931F93CB
:1008A000CF93DF93CDB7DEB729970FB6F894DEBFAD
:1008B0000FBECDBF0E9429040091100710911107AF
:1008C0002091120730911307601771078207930771
:1008D00040F4609310077093110780931207909370
:1008E0001307009110071091110720911207309102
:1008F0001307601B710B820B930B6C3271408105E7
:100900009105C0F2F89480910507909106079A83AB
:100910008983E0910A07F0910B07DF01119680812E
:10092000898790910107E0911407F0911507809154
:100930001607992309F445C09081982B98879081D8
:10094000809589238F838F818C8388E08B83588562
:100950006F8149853B812C8189819A81508347FD34
:10096000252F3A952083262F39F0441F00C0000020
:100970006083000000C0F2CF38E04D91608300003A
:10098000019761F7F0931507E093140749873B83BC
:100990002C839A83898378940E942904609310079A
:1009A00070931107809312079093130729960FB63F
:1009B000F894DEBF0FBECDBFDF91CF911F910F9195
:1009C00008959081982B98879081809589238F83B3
:1009D0008F818E8388E08D8358856F8149853D8125
:1009E0002E8189819A81508347FD252F00C000C048
:1009F000208300C000C000C000C000C060830000B1
:100A0000262F3A9541F0441F000000C000C000C0EE
:100A100000C000C0E8CF38E04D9100C0608300C046
:100A2000019709F7F0931507E093140749873D8371
:100A30002E83AFCF8F929F92AF92BF92CF92DF92D1
:100A4000EF92FF926B017C010E9429044B015C0133
:100A5000C114D104E104F104B9F00E942904681919
:100A600079098A099B09683E73408105910580F3E5
:100A700021E0C21AD108E108F10888EE880E83E06F
:100A8000981EA11CB11CE4CFFF90EF90DF90CF9097
:100A9000BF90AF909F908F9008952FB7F89460917A
:100AA0006702709168028091690290916A022FBF7B
:100AB000089520914302260F3327331F2132310539
:100AC000ECF420916905FC0190E080E0243069F0AD
:100AD00082E00895A09143022191AC014D5D5D4FEC
:100AE000A40FB52FB11D2C930196861798F3809112
:100AF0004302680F6093430280E0089581E0089507
:100B00001092690581E0809348051092430561E0E9
:100B100082E10E948C0361E083E10E948C03E9EB97
:100B2000F0E080818E7F808380818D7F808388E468
:100B30008093B80085E48093BC000895CF93DF9341
:100B400091E0909322028823B9F0C091B800D0912F
:100B5000BA008091BC008A7B8093BC0060E082E197
:100B60000E948C0360E083E10E948C030E94800558
:100B7000D093BA00C093B800DF91CF910895CF927F
:100B8000DF92EF92FF920F931F93CF93DF93D82FB3
:100B9000C62F613208F098C00E9429046B017C01C5
:100BA0008091690581116BC081E080936905809314
:100BB00048059FEF90934705109246059C0F909330
:100BC00045058093440580914405DD0FD82BD093D3
:100BD000440580914305813009F078C010924305A7
:100BE0000E9429046B017C01809144058093BB0025
:100BF00080916B0590916C05A0916D05B0916E058B
:100C0000892B8A2B8B2BA1F00E94290400916B0564
:100C100010916C0520916D0530916E056C197D0960
:100C20008E099F09061717072807390708F448C0D7
:100C30008091BC0083FDD8CF85EC8093BC000E94DE
:100C400029046B017C0180916905813009F440C061
:100C5000809146058C1710F4C0914605E3E2F5E05B
:100C6000A9E4B5E080E08C1355C08C2FDF91CF91C3
:100C70001F910F91FF90EF90DF90CF90089580919A
:100C80006B0590916C05A0916D05B0916E05892B57
:100C90008A2B8B2B09F484CF0E94290400916B05C9
:100CA00010916C0520916D0530916E056C197D09D0
:100CB0008E099F09061717072807390708F070CF14
:100CC00080916A050E949E05C0E0CFCF85EEB5CF2A
:100CD00080916B0590916C05A0916D05B0916E05AA
:100CE000892B8A2B8B2B09F4AECF0E94290400910B
:100CF0006B0510916C0520916D0530916E056C1996
:100D00007D098E099F09061717072807390708F07C
:100D10009ACFD6CF91919D938F5FA5CF0895E09103
:100D20002F0380912E03E81730F4F0E0E75BFA4FD1
:100D3000808190E008958FEF9FEF089590912F03A9
:100D400080912E032FEF3FEF981748F4E92FF0E042
:100D5000E75BFA4F208130E09F5F90932F03C9013A
:100D60000895CF92DF92EF92FF920F931F93CF934C
:100D7000DF937C01CB018A0120912205222389F097
:100D8000EB016B01C40ED51ECC15DD0569F0699130
:100D9000D701ED91FC910190F081E02DC7010995FB
:100DA000F3CF642F0E945905C801DF91CF911F91A5
:100DB0000F91FF90EF90DF90CF900895CF93DF9346
:100DC0001F92CDB7DEB76983209122052223F9F067
:100DD00020911F05203258F021E030E0FC013383E0
:100DE000228390E080E00F90DF91CF910895809171
:100DF0002005E82FF0E0EE5FFD4F998190838F5F33
:100E00008093200580931F0581E090E0ECCF61E0A6
:100E1000CE0101960E945905F7CFCF92DF92EF9253
:100E2000FF920F931F93CF93DF93D0911F0581E023
:100E3000D13208F09CC0C09121050E9429046B01A9
:100E40007C018091690581116CC082E08093690505
:100E500081E0809348058FEF809347051092460507
:100E6000D0934505A2E0B2E0E3E2F5E080E0D813DC
:100E70008DC01092440580914405CC0FC82BC093BF
:100E8000440580914305813009F084C010924305E8
:100E90000E9429046B017C01809144058093BB0072
:100EA00080916B0590916C05A0916D05B0916E05D8
:100EB000892B8A2B8B2BA1F00E94290400916B05B2
:100EC00010916C0520916D0530916E056C197D09AE
:100ED0008E099F09061717072807390708F442C02B
:100EE0008091BC0083FDD8CF85EC8093BC000E942C
:100EF00029046B017C0180916905823009F44CC0A2
:100F0000809147058F3F09F469C080914705803281
:100F100009F466C080914705803309F463C084E01A
:100F200026C080916B0590916C05A0916D05B091E4
:100F30006E05892B8A2B8B2B09F483CF0E94290401
:100F400000916B0510916C0520916D0530916E0537
:100F50006C197D098E099F0906171707280739079D
:100F600008F06FCF80916A050E949E0585E010927F
:100F7000200510921F0510922205DF91CF911F913D
:100F80000F91FF90EF90DF90CF9008959D919193F6
:100F90008F5F6DCF85EEA9CF80916B0590916C0529
:100FA000A0916D05B0916E05892B8A2B8B2B09F4CE
:100FB000A2CF0E94290400916B0510916C0520912D
:100FC0006D0530916E056C197D098E099F09061714
:100FD00017072807390708F08ECFC4CF80E0C7CFA6
:100FE00082E0C5CF83E0C3CF90E080E0089508950C
:100FF0001F93CF93DF93EC01142F89819A8128816D
:1010000031E03093220520932105109220051092A3
:101010001F05DC01ED91FC910190F081E02D099517
:1010200089819A81DC01ED91FC910190F081E02DA4
:10103000612F099589819A81DF91CF911F910C943D
:101040000D07DC01ED91FC910190F081E02D0994F8
:10105000CF92DF92EF92FF920E944D05C0907E02E8
:10106000D0907F02E0908002F09081026C197D099F
:101070008E099F0921E0C0900101D0900201E0900B
:101080000301F0900401C616D706E806F9060CF035
:1010900020E0822FFF90EF90DF90CF900895DC0149
:1010A000ED91FC910190F081E02D09940F931F9335
:1010B000CF93DF93EC018A0189819A81288131E005
:1010C00030932205209321051092200510921F05D0
:1010D00024E0629FB00111246A5F7F4F0E944F0895
:1010E00070E060E089819A810E94210870E060E0F0
:1010F00089819A810E942108B80189819A810E9480
:101100002108612F70E089819A810E9421088981DC
:101110009A81DF91CF911F910F910C940D07CF937E
:10112000C0E040E050E16C2F87E197E00E94560854
:10113000CF5FC031B1F7CF910895BF92CF92DF92C8
:10114000EF92FF920F931F93CF93DF93EC0181E017
:101150008093220584E5809321051092200510924A
:101160001F056D2F70E082E296E00E944F08BE01DD
:10117000772782E296E00E944F0882E296E00E9482
:101180000D0761E084E50E94BF0510922F03809354
:101190002E0382E296E00E949E06809335038093A0
:1011A0000D050E945301EC01F12CE12C1C161D06CB
:1011B0004CF56C2FCF31D1050CF06EE184E50E9427
:1011C000BF05B82E10922F0380932E036E018EE17F
:1011D000C81AD1088E0180912F03B81659F082E207
:1011E00096E00E949E069FEFE91AF90AF701EB5C70
:1011F000FC4F80830150110929F0E6010C151D05F3
:1012000051F7D4CFDF91CF911F910F91FF90EF90C5
:10121000DF90CF90BF900895CF93DF93EC01898149
:101220009A81288131E03093220520932105109284
:10123000200510921F05DC01ED91FC910190F081D9
:10124000E02D099589819A810E940D0761E08881CE
:101250000E94BF0510922F0380932E0389819A81EB
:10126000DC01ED91FC910284F385E02D0995DF917D
:10127000CF9108958F929F92AF92BF92CF92DF92BB
:10128000EF92FF921F93CF93DF93EC016A017B01F2
:1012900020E030E040E85FE3CB01B6010E94483037
:1012A00087FD7EC020E030EC4AE555E4C701B60179
:1012B0000E94753318163CF4C12C30ECD32E3AE55D
:1012C000E32E35E4F32E6B817C818D819E810E941B
:1012D0004D304B015C0120E030E040E855E4C701AF
:1012E000B6010E94AE309B01AC01C501B4010E9461
:1012F0008E3220E030E040E05FE30E941D3220E0CB
:1013000030E040E85FE30E941C326B017C0120E08A
:1013100030E040E450E40E94483087FD48C020E0BF
:1013200030E04FE753E4C701B6010E947533181649
:1013300034F4C12CD12C9FE7E92E93E4F92E60E020
:10134000CE010E940C09182F482F4F76406160E0B3
:10135000CE010E94F807C701B6010E940733462F4D
:101360006EEFCE010E94F807412F60E0CE010E948F
:10137000F80765E070E080E090E00E941A05412FD8
:10138000406A60E0CE01DF91CF911F91FF90EF9016
:10139000DF90CF90BF90AF909F908F900C94F80704
:1013A000C12CD12C20E8E22E2FE3F22E8CCFC12CC1
:1013B000D12C80E4E82EFE2CC2CF4F925F926F9228
:1013C0007F928F929F92AF92BF92CF92DF92EF92D5
:1013D000FF92CF93C0E06C01F12CE12CC701B60164
:1013E0000E944D304B015C016EEF87E197E00E9457
:1013F0000C09682F70E06F5F7F4F90E080E00E94E3
:101400004D3020E034E244E759E40E94AE302B0135
:101410003C0160911A0770911B0780911C07909105
:101420001D070E944D309B01AC01C301B2010E9417
:101430008E329B01AC01C501B4010E948E320E9424
:101440000733AB016C2F87E197E00E945608CF5F0E
:10145000C03121F6CF91FF90EF90DF90CF90BF90F9
:10146000AF909F908F907F906F905F904F90089576
:101470000C94842ECF93DF93EC018881998100979F
:1014800011F00E94842E198218821D821C821B82F8
:101490001A82DF91CF910895FC018081918100979C
:1014A00011F00C94842E0895FC0101900020E9F7BE
:1014B0003197AF01481B590BBC018FE695E00C94A6
:1014C000360283E691E00C94540ACF93DF930E9496
:1014D0002803EC010E94610A8C0F9D1FDF91CF91C0
:1014E0000895CF93DF930E942303EC010E94610AC9
:1014F0008C0F9D1FDF91CF910895CF93DF93FC0157
:1015000044815581608171818FE695E00E943602A9
:10151000EC010E94610A8C0F9D1FDF91CF9108950D
:101520008F929F92AF92BF920F931F93CF93DF93AF
:10153000CDB7DEB7A1970FB6F894DEBF0FBECDBF13
:1015400019A2423008F44AE08E010F5D1F4F842E2D
:10155000912CB12CA12CA50194010E94EB31E62F16
:10156000B901CA01EA30F4F4E05DD801EE938D01CF
:10157000232B242B252B79F790E080E0109719F08E
:10158000CD010E94540AA1960FB6F894DEBF0FBE9B
:10159000CDBFDF91CF911F910F91BF90AF909F90E2
:1015A0008F900895E95CE1CFCF92DF92EF92FF92A6
:1015B000C12CD12C76014AE0C701B6010E94900AE5
:1015C00089E00E9423038FEFC81AD80AE80AF80AB4
:1015D00080E1C816D104E104F10469F7FF90EF90AF
:1015E000DF90CF900C94610ACF92DF92EF92FF923E
:1015F000CF93DF9397FF19C06B017C018DE20E94AE
:101600002303EC0166277727CB016C197D098E092E
:101610009F094AE00E94900A8C0F9D1FDF91CF9195
:10162000FF90EF90DF90CF9008954AE0DF91CF9147
:10163000FF90EF90DF90CF900C94900A4F925F92C2
:101640006F927F928F929F92AF92BF92CF92DF92D2
:10165000EF92FF920F931F93CF936B017C01742E37
:10166000AC019B010E941834882399F086E691E032
:10167000CF911F910F91FF90EF90DF90CF90BF908F
:10168000AF909F908F907F906F905F904F900C9451
:10169000540A46015701E894B7F82FEF3FEF4FE7A0
:1016A0005FE7C501B4010E94183481110DC02FEF0E
:1016B0003FEF4FE75FE7C501B4010E9448301816BD
:1016C0001CF48AE691E0D4CF2FEF3FEF4FE75FE4C1
:1016D000C701B6010E94753318161CF48EE691E01E
:1016E000C7CF2FEF3FEF4FE75FECC701B6010E9476
:1016F000483087FDF3CF20E030E0A901C701B601F3
:101700000E94483010E000E087FF08C08DE20E9490
:1017100023038C01F7FAF094F7F8F094C0E060E04E
:1017200070E080E09FE37C1641F020E030E040E292
:1017300051E40E948E32CF5FF6CFA70196010E943E
:101740001D322B013C010E9407334B015C014AE032
:101750000E94900A7C01E00EF11ECC23B1F1C5017C
:10176000B4010E944D309B01AC01C301B2010E9443
:101770001C324B015C018EE20E942303E80EF91E2D
:10178000C15018F120E030E040E251E4C501B4015D
:101790000E94AE302B013C010E9407334B01B12C5B
:1017A000A12C4AE0C501B4010E94900AE80EF91E7E
:1017B000C501B4010E944D309B01AC01C301B201CF
:1017C0000E941C324B015C01DBCFC701CF911F91FE
:1017D0000F91FF90EF90DF90CF90BF90AF909F90D0
:1017E0008F907F906F905F904F900895BF92CF92AF
:1017F000DF92EF92FF920F931F93CF93DF938C01B1
:10180000B62E6A01E90187E090E00E94E82D7C0194
:10181000DC01BC921696DC93CE931597E6010990F5
:101820000020E9F72197CC19DD091496DC93CE93BB
:101830001397CE0101960E94E82DF70192838183D0
:10184000DC01F6019F012C193D092C173D071CF402
:1018500021912D93F7CF2091300321542A3140F567
:101860002EE7C80FD91F288386E090E00E94E82D5C
:10187000FC01F182E0821382128215821482E80157
:10188000AC81BD811097B1F49B838A839D838C8347
:10189000E80188819981019699838883DF91CF91AE
:1018A0001F910F91FF90EF90DF90CF90BF90089520
:1018B00020E0D7CFB583A48313969C938E93129781
:1018C000D80115969C938E931497E2CFFC01248146
:1018D0003581232B39F421E0FB018081882349F0F5
:1018E00020E007C0808191810E94703621E0892B21
:1018F000B9F7822F0895FF920F931F93CF93DF9331
:10190000EC01F62E08811981C8010E946C31F8168D
:1019100021F06F2DC8010E947431CE01DF91CF916B
:101920001F910F91FF900895FF920F931F93CF93F4
:10193000DF9300D0CDB7DEB78C01F72E9A83898371
:10194000CE0101960E947B0C0F5F1F4F1A83098303
:101950006F2DCE0101960E947B0C66E070E080E066
:1019600090E00E941A050F900F90DF91CF911F9188
:101970000F91FF9008950C946C312F923F924F92EB
:101980005F926F927F928F929F92AF92BF92CF920F
:10199000DF92EF92FF920F931F93CF93DF93CDB718
:1019A000DEB72E970FB6F894DEBF0FBECDBF5C0139
:1019B00085E191E00E94BB0C682E62E771E0C501F1
:1019C0000E947036762C892B89F4C62CD12CF12CF0
:1019D000E12CC114D104E104F10439F00E94592F23
:1019E000A70196010E9482316B017C2CF5010190C8
:1019F0000020E9F73197EA19FB092E2F2150330B0C
:101A00006901F501E20FF31F30813C87512C10E092
:101A100000E0CE0101967C0181E491E0FC01EE1929
:101A2000FF09FE87ED87651409F49AC01801FFEFDE
:101A30002F1A3F0AC801805C9E4F0E94BB0C482EA3
:101A400047012D853E85020F131F882D8E198415A1
:101A500048F4C801880D991D0E94BB0CF4018193C4
:101A60004F01F3CF842C912C8101080D191DF70132
:101A7000E80DF91D108257104CC064E771E0C701F2
:101A80000E947036892B09F441C067E771E0C701F5
:101A90000E947036892BD1F16AE771E0C7010E947C
:101AA0007036892B99F16DE771E0C7010E9470369D
:101AB000892B61F160E871E0C7010E947036892BC3
:101AC00029F1C8018F5B9E4F0E94BB0C80930D05CE
:101AD0000E945301C801805C9E4F2E960FB6F89469
:101AE000DEBF0FBECDBFDF91CF911F910F91FF9051
:101AF000EF90DF90CF90BF90AF909F908F907F90AE
:101B00006F905F904F903F902F90089573945394EF
:101B10008ACFB501C7010E947036892B91F2FE0170
:101B2000E80DF91D80818634C1F064E871E0C701D9
:101B30000E947036892B89F0A601B501C7010E9469
:101B40008036892B51F4FC85FC3409F4BACFF23588
:101B500009F4B7CFF83509F4B4CF0C5F1F4FD7CFD6
:101B60008FE30E942303C5010E94540A0E94610A68
:101B70008FEF9FEFB2CF1F93CF93DF93EC010E94C3
:101B8000BB0C182FCE0101960E94BB0C90E0982F41
:101B90008827810F911DDF91CF911F910895CF92DA
:101BA000DF92EF92FF920F931F93CF93DF936A011F
:101BB0007B01082F10E0C801805B9F4F880F991FA1
:101BC0000E94BB0DBC01990F880B990B0E944F30EE
:101BD00020E030E04AE754E40E948E32A7019601EB
:101BE0000E94AE306B017C0182E191E00E94BB0C4F
:101BF0009AE0899FB0011124072E000C880B990BE5
:101C00000E944F30A70196010E941D326B017C019A
:101C100020E030E04AEF53E40E947533C4EFD1E096
:101C200018168CF420E030E44CE155E4C701B6010D
:101C30000E944830C4ECD9E087FF05C0C701B60157
:101C40000E940033EB01C8010E94BB0CAE01682F5B
:101C500087E197E0DF91CF911F910F91FF90EF9077
:101C6000DF90CF900C94560890E0C096880F991F93
:101C7000860F911D880F991F0C94BB0D7F928F9238
:101C80009F92AF92BF92CF92DF92EF92FF920F930B
:101C90001F93CF93DF93B82E6A01D62FC72F60E032
:101CA0000E94340EBC01990F880B990B0E944F3093
:101CB0007B018C0161E08B2D0E94340EBC01990FD9
:101CC000880B990B0E944F30762E872E982EA92EC6
:101CD00096014D2F5C2F0E94483087FF71C0772DF1
:101CE000682D992D8A2D272F362F492F582FB70170
:101CF000C8010E947533181694F096014D2F5C2F81
:101D0000672D782D892D9A2D0E94483076010D2F50
:101D10001C2F87FF04C0E72CF82C092D1A2DCB2D82
:101D2000D0E06E0180E3C80ED11CCC0FDD1FC35F75
:101D3000DE4FB701C8010E94003379836883C60172
:101D4000880F991F0E94BB0DEC01C6010E94BB0CBD
:101D5000682F880F770B880B990B0E944F309701E3
:101D6000A8010E94AE306B017C01BE01DD0F880B23
:101D7000990B0E944F309B01AC01C701B6010E9434
:101D80001D320E940033072E000C880B990B0E9415
:101D90004F3020E030E0A9010E941D32AB01BC01B0
:101DA0008B2DDF91CF911F910F91FF90EF90DF90DE
:101DB000CF90BF90AF909F908F907F900C94CF0D5D
:101DC0007C2D6D2DCE018FCF0F931F93CF938C0160
:101DD000005E1F4FCFE0F801729162918F01072ED4
:101DE000000C880B990B0E944F30AB01BC018C2F6B
:101DF0000E943E0EC15078F7CF911F910F91089528
:101E00002F923F924F925F926F927F928F929F920A
:101E1000AF92BF92CF92DF92EF92FF920F931F93F8
:101E2000CF93DF93CDB7DEB72E970FB6F894DEBF12
:101E30000FBECDBF182F092F6A017B0120E030E0D3
:101E4000A901CB01B6010E9448301816E4F0812F99
:101E5000902F2E960FB6F894DEBF0FBECDBFDF9148
:101E6000CF911F910F91FF90EF90DF90CF90BF9097
:101E7000AF909F908F907F906F905F904F903F902A
:101E80002F900C94E40E80E290E00E94E82D5C011B
:101E900070913103909030032DE031E0DC01612E30
:101EA000702E512C412C60E0772329F0643018F417
:101EB0004BE69416A1F0F90180819181F3014081F4
:101EC0005181841B950B11969C938E9397FF03C0B1
:101ED000919581959109481659060CF42C016F5F74
:101EE0002E5F3F4FF2E06F0E711C12966031E1F6EB
:101EF00020E030E0A901C701B6010E947533181631
:101F00000CF0BCC0B201550C880B990B0E944F30ED
:101F1000A70196010E948E326B017C0120E030E027
:101F2000A9010E94753320E030E040E05FE387FDC7
:101F3000A0C0C701B6010E941D320E9400337E87F7
:101F40006D87D12CC12C2D853E85032E000C440BB2
:101F5000550B29873A874B875C874D855E854C15E5
:101F60005D050CF48EC01501812E902EF12CC6015A
:101F70000D2C000CAA0BBB0B8D839E83AF83B887FF
:101F800080913103882341F093E09F1528F08091E0
:101F900030038B3609F45FC0D4016D917C91072E1C
:101FA000000C880B990B0E944F302B013C01ED85F2
:101FB000FE8520E030E0A901EF2B09F443C06D81DC
:101FC0007E818F8198850E944F302BED3FE049E460
:101FD00050E40E94AE3069837A838B839C83698549
:101FE0007A858B859C850E944F309B01AC0169816D
:101FF0007A818B819C810E948E320E94893220E0FE
:1020000030E040E85FE30E941D3220E030E040E035
:102010005FE30E94AE3069837A838B839C83D10116
:102020006D917C91072E000C880B990B0E944F300C
:102030009B01AC0169817A818B819C810E94AE30C9
:102040009B01AC01C301B2010E941D32AB01BC0176
:102050008F2D0E943E0EF394B2E08B0E911CE2E0B5
:102060002E0E311CF0E1FF128BCF2FEFC21AD20AD5
:1020700074CFC701B6010E941C325FCF1E861D8639
:1020800060CFA114B104D9F0C5012E960FB6F89413
:10209000DEBF0FBECDBFDF91CF911F910F91FF909B
:1020A000EF90DF90CF90BF90AF909F908F907F90F8
:1020B0006F905F904F903F902F900C94842E2E96AF
:1020C0000FB6F894DEBF0FBECDBFDF91CF911F9149
:1020D0000F91FF90EF90DF90CF90BF90AF909F90C7
:1020E0008F907F906F905F904F903F902F900895CA
:1020F0002F923F924F925F926F927F928F929F9218
:10210000AF92BF92CF92DF92EF92FF920F931F9305
:10211000CF93DF93CDB7DEB72F970FB6F894DEBF1E
:102120000FBECDBF4C016D8369017A01202F30E0D5
:102130003A83298320E030E0A901C701B6010E945B
:1021400048301816ECF01FE0812F012E000C990B7F
:1021500069817A81861797070CF453C1880D991D00
:10216000DC016C91062E000C770B880B990B0E94FA
:102170004F30AB01BC01812F0E943E0E1150E4CFC5
:1021800080E190E0E981FA818E1B9F0B8115F0E4DC
:102190009F0708F047C0880F991F009709F445C0B2
:1021A0000E94E82D3C01B0903103A09030032981BA
:1021B0003A81220F331F1301D401102F50E040E069
:1021C000512C412C1031A0F5BB2029F0143018F40B
:1021D0006BE6A616F9F0CA01820F931F835F9E4F2C
:1021E0007C916D817603F0011124FC83EB83FC016B
:1021F000808191816B817C81861B970BF10191839A
:10220000808397FF03C091958195910948165906DF
:102210000CF42C011F5F1196F2E02F0E311C4E5F63
:102220005F4FD0CF8FEF9FEFBBCF81E090E0B8CF73
:1022300020E030E0A901C701B6010E9475331816ED
:102240000CF0BAC0B201550C880B990B0E944F30AC
:10225000A70196010E948E326B017C0120E030E0E4
:10226000A9010E94753320E030E040E05FE387FD84
:102270009EC0C701B6010E941D320E9400337F87B5
:102280006E87B12CA12C6E857F85072E000C880BE4
:10229000990B6A877B878C879D878E859F858A159A
:1022A0009B050CF490C07C826B829A828982102FED
:1022B000B5010B2C000C880B990B6E837F838887EC
:1022C0009987103108F07BC080913103882339F061
:1022D000143028F4809130038B3609F45BC0A98157
:1022E000BA816C912D816203B0011124072E000C7C
:1022F000880B990B0E944F306B017C016E857F85A6
:1023000020E030E0A901672BE1F16E817F818885B3
:1023100099850E944F302BED3FE049E450E40E9444
:10232000AE301B012C016A857B858C859D850E94C2
:102330004F309B01AC01C201B1010E948E320E945C
:10234000893220E030E040E85FE30E941D3220E067
:1023500030E040E05FE30E94AE301B012C01AB8116
:10236000BC816D917C91072E000C880B990B0E940B
:102370004F309B01AC01C201B1010E94AE309B0104
:10238000AC01C701B6010E941D32AB01BC01812F17
:102390000E943E0E1F5FE981FA813196FA83E9833C
:1023A0002B813C812E5F3F4F3C832B838ACFC7011B
:1023B000B6010E941C3261CF1F861E8662CF3FEF9E
:1023C000A31AB30A6ACF61147104D9F0C3012F961E
:1023D0000FB6F894DEBF0FBECDBFDF91CF911F9136
:1023E0000F91FF90EF90DF90CF90BF90AF909F90B4
:1023F0008F907F906F905F904F903F902F900C94B4
:10240000842E2F960FB6F894DEBF0FBECDBFDF919E
:10241000CF911F910F91FF90EF90DF90CF90BF90E1
:10242000AF909F908F907F906F905F904F903F9074
:102430002F9008950F930E9473011092330310920E
:102440003203E9E0F5E02581368147815085038933
:102450006785848995890E9478100F9108958F92DD
:102460009F92AF92BF92CF92DF92EF92FF920F9323
:102470001F93CF93DF93CDB7DEB72B970FB6F894AA
:10248000DEBF0FBECDBF6C01FC0101900020E9F75B
:102490003297108189E11C3421F087EE123509F062
:1024A00080E080930C05C6010E94BD0C7C018FEF7B
:1024B000E816F80609F43EC1C7010E94BB0C082FBC
:1024C000C70102960E94BB0D7C01B601CE010196A8
:1024D0000E947936093409F0EDC0C7010E949D08B9
:1024E0000E947301BE016F5F7F4F85E393E00E94FE
:1024F000793667E871E085E393E00E947036892BB6
:1025000009F4EEC080E090E0A0E0B0E480930E0516
:1025100090930F05A0931005B09311056BE871E03F
:1025200085E393E00E947036892B09F4DDC0809129
:102530000D05813009F0D8C00E94592F24E630E003
:1025400040E050E00E9482310E944F3020E030E0B5
:1025500040E251E40E948E3220E030E040EA50E454
:102560000E941C324B015C0180922A0390922B0343
:10257000A0922C03B0922D03F12CE12CC0901D05EC
:10258000D0901E05CE0CDF1CF6016081062E000CDB
:10259000770B880B990B0E944F30A50194010E9484
:1025A0001D320E940033F6016083FFEFEF1AFF0A2D
:1025B00080E1E816F10411F7123509F099C0809115
:1025C00014059091150591958195910990931505A4
:1025D0008093140590E080E040910D05242F042E97
:1025E000000C330B37FF03C0319521953109821759
:1025F00093070CF089C042301CF540911305489FA9
:102600009001499F300D1124E0911D05F0911E05A8
:10261000E20FF31F20812195208320911305289F2D
:10262000F001299FF00D11249F012E5F3F4FE09193
:102630001D05F0911E05E20FF31F208121952083D7
:1026400020910D0560E022300CF462E0E62FF0E00E
:1026500020910D0522300CF480C024E030E0409140
:102660001D0550911E05E217F3070CF079C09F017C
:10267000220F331F70911305789FF001799FF00DA1
:102680001124E20FF31FE40FF51F408151815083A5
:1026900050911305589FD001599FB00D1124E0911E
:1026A0001D05F0911E05E20FF31FEA0FFB1F41838A
:1026B0006F5FCCCF80910D050E945301A5E3B3E07D
:1026C000970125533340F901EA0FFB1FAD01455334
:1026D0005340481759070CF003CFE491ED93F3CF23
:1026E00080E090E0DC0112CF812C912C54013CCF92
:1026F0001C3451F00E94592F24E630E040E050E0B5
:102700000E94823160FD5BCF10923303109232033E
:1027100020910E0530910F05409110055091110543
:1027200000911C056091180580911D0590911E0572
:102730000E9478102B960FB6F894DEBF0FBECDBF67
:10274000DF91CF911F910F91FF90EF90DF90CF908D
:10275000BF90AF909F908F90089528E030E07FCF9A
:1027600001963ACFCF92DF92EF92FF920F931F9391
:10277000CF93DF9381E10E941704EC016897D09317
:102780000102C093000280E10E94170448977C0177
:102790009093FF018093FE01CE31D1050CF0D2C0A1
:1027A000BE01DD0F880B990B0E944F3020E030E016
:1027B00040E85EE30E94AE308B01D82FC92FCB01D9
:1027C000AD2FBC2F8093A9029093AA02A093AB02D5
:1027D000B093AC028EE1E816F1040CF0C8C0B7016A
:1027E000FF0C880B990B0E944F3020E030E040E84E
:1027F0005EE30E94AE306B017C01CB01D701809378
:10280000A1029093A202A093A302B093A4029B0101
:10281000A701B8018D2F9C2F0E941D3220E030E0CF
:1028200040E05FE30E94AE306093AD027093AE0271
:102830008093AF029093B0029601A701B8018D2F4B
:102840009C2F0E947533502F412F9E01181624F0A3
:102850005C2D4D2D3E2D2F2D852F942FA32FB22F84
:102860008093B1029093B202A093B302B093B402EA
:102870009601A701B8018D2F9C2F0E94483087FD3B
:1028800003C08601DE2DCF2DC801AD2FBC2F809354
:10289000B5029093B602A093B702B093B80281E953
:1028A00091E00E94540A6091000270910102072E8B
:1028B000000C880B990B0E94F40A85E991E00E94B4
:1028C000540A6091FE017091FF01072E000C880BE5
:1028D000990B0E94F40A8AE991E00E94540A6091DF
:1028E000A9027091AA028091AB029091AC0242E0E1
:1028F0000E941E0B8FE991E00E94540A6091A10290
:102900007091A2028091A3029091A40242E00E94E1
:102910001E0B84EA91E00E94540A6091AD0270910E
:10292000AE028091AF029091B00242E00E941E0B75
:10293000DF91CF911F910F91FF90EF90DF90CF909B
:102940000C94610A60E074E06C1B7D0B072E000C98
:10295000880B990B0E944F300E94D8339B01AC0129
:1029600060E070E088E493E40E948E3225CF60E05E
:1029700074E06E197F09072E000C880B990B0E94DA
:102980004F300E94D8339B01AC0160E070E088E4D6
:1029900093E40E948E322FCF0F931F93CF93DF9338
:1029A000EC0188819981009759F02A813B81261793
:1029B000370730F081E0DF91CF911F910F9108959B
:1029C0008B016F5F7F4F0E949B35009759F0998371
:1029D00088831B830A832C813D81232B59F7FC01BB
:1029E0001082E8CF80E0E7CFEF92FF920F931F9322
:1029F000CF93DF936115710541F480E0DF91CF91B2
:102A00001F910F91FF90EF90089541155105B1F07E
:102A10007B01EC010C811D81040F151FB8010E9480
:102A2000CC14882351F3288139818C819D81B70191
:102A3000820F931F0E9479361D830C8381E0DECFC5
:102A4000EF92FF920F931F93CF93DF93EC017B01E3
:102A50008A01BA010E94CC1481110BC0CE010E94E0
:102A60003A0ACE01DF91CF911F910F91FF90EF9025
:102A700008951D830C83B701888199810E9479365E
:102A8000F0CFFB01DC0111961C921E9213961C9252
:102A90001E92129715961C921E92149786179707EE
:102AA00059F0608171816115710521F04481558172
:102AB0000C9420150C943A0A0895FB010190002013
:102AC000E9F73197AF01461B570B0C9420150F9374
:102AD0001F93CF93DF93CDB7DEB762970FB6F8940D
:102AE000DEBF0FBECDBF8C01CB01F8011182108279
:102AF00013821282158214824AE0BE016F5F7F4FFB
:102B00000E940B30BE016F5F7F4FC8010E945D15B0
:102B100062960FB6F894DEBF0FBECDBFDF91CF91A6
:102B20001F910F910895FC0111821082138212826D
:102B300015821482FB0101900020E9F73197AF0163
:102B4000461B570B0C942015EF92FF920F931F9387
:102B5000CF93DF93EC018B01198218821B821A82BA
:102B60001D821C82CB010E94D62F7C01BC01CE01AC
:102B70000E94CC14811109C0CE01DF91CF911F9129
:102B80000F91FF90EF900C943A0AFD82EC82B8010D
:102B900088819981DF91CF911F910F91FF90EF90E4
:102BA0000C94CF2F85ED8093BC0080916B059091A4
:102BB0006C05A0916D05B0916E050796A11DB11D24
:102BC00023E0B695A795979587952A95D1F72091FB
:102BD000BC0024FD03C010926905089540916B0567
:102BE00050916C0560916D0570916E05452B462BDB
:102BF000472B69F30097A105B10541F02AE22A9518
:102C0000F1F700C00197A109B109E1CF80916A05F0
:102C10000C949E052F923F924F925F926F927F92FB
:102C20008F929F92AF92BF92CF92DF92EF92FF92DC
:102C30000F931F93CF93DF93CDB7DEB766970FB691
:102C4000F894DEBF0FBECDBF69877A878B879C87DC
:102C50002D873E874F87588BC801EE8A10E0882465
:102C60008A94982C540168E4462E68EE562E662409
:102C70006394712C05E07EE3272E72E0372E9C01D1
:102C8000990F440B550B298B3A8B4B8B5C8B6D85C5
:102C90007E858F8598890E9407336D837E838F831D
:102CA000988720E030E0A90169857A858B859C852D
:102CB0000E944830882309F499C129853A854B85BB
:102CC0005C8563E67CE987E89FE30E947A3320E035
:102CD00030ED42E854E40E94AE300E9407336B01AD
:102CE00080910001853009F06AC0E0E3F1E0F491E1
:102CF000FD8BF7FDD9C161E085E00E94E603FD8907
:102D0000FF2321F02D89223009F024C1F12CE12C80
:102D100060E072E18AE790E0A70196010E948231AB
:102D200029833A834B835C83DA01C9010197A109A6
:102D3000B1098F3F9105A105B10509F00CF4F0C070
:102D400060E472E48FE090E0A70196010E94823176
:102D500021503109410951098D89823009F0A2C001
:102D600082E02F3F31054105510509F00CF48CC17B
:102D700060E970ED83E090E0A70196010E94823146
:102D8000215031094109510983E02F3F31054105A7
:102D9000510509F00CF478C1C301B201A7019601F5
:102DA0000E94823121503109410951092F3F3105DB
:102DB0004105510511F00CF092C084E065C18F3FD0
:102DC00009F072C100930001E0E3F1E0F491FD8BA2
:102DD000FF3F09F469C1F13029F158F0F23009F4EC
:102DE0003FC03D8937FD60C161E085E00E94E60398
:102DF00089CF14BC15BC84B5826084BD85B5816063
:102E000085BDF1018491E82FF0E0EE0FFF1FE15D39
:102E1000FD4F85919491E0E2F2E084918093F50179
:102E20001D8A69CF109280001092810080918100EC
:102E3000886080938100809181008160809381000F
:102E4000F1018491E82FF0E0EE0FFF1FE15DFD4FEF
:102E500085919491E0E2F2E084918093F4014BCF6C
:102E60001092B0001092B1008091B0008260809307
:102E7000B0008091B10081608093B100F101849134
:102E8000E82FF0E0EE0FFF1FE15DFD4F859194917B
:102E90009093700280936F02E0E2F2E0849180935D
:102EA000710229CF2F3F31054105510509F00CF47E
:102EB0004FC0C301B201A70196010E948231215087
:102EC0003109410951099D89992309F4AFC02F3F68
:102ED00031054105510511F00CF0B0C06ECF64E230
:102EE00074EF80E090E0A70196010E9482312150AA
:102EF00031094109510985E02F3F3105410551054F
:102F000009F008F4C1C062E17AE780E090E0A7012F
:102F100096010E94823121503109410951099DC019
:102F20009C0181E0FD89F111AFC095B5987F892B97
:102F300085BD27BD8092FA019092FB01A092FC0111
:102F4000B092FD0180916E00826080936E00ACC0F3
:102F500082E0E8CFF12CE12C60E072E18AE790E0BA
:102F6000A70196010E94823121503109410951097E
:102F700091E02115310581E0480751055CF0C3015E
:102F8000B201A70196010E94823121503109410905
:102F9000510993E0ED89E13009F07CC08091810016
:102FA000887F892B8093810030938900209388004B
:102FB0008092F6019092F701A092F801B092F90187
:102FC00080916F00826080936F006EC02093B30089
:102FD0008092720290927302A0927402B092750273
:102FE000809170008260809370005EC06D817E81F0
:102FF0008F8198850E941A0557C084E02F3F3105C4
:103000004105510509F008F490CF29813A814B819F
:103010005C818AE055954795379527958A95D1F734
:10302000215031094109510985E07FCF83E02F3FCD
:1030300031054105510509F00CF477CF62E17AE7DB
:1030400080E090E0A70196010E9482312150310971
:1030500041095109ED89EE2381F286E02F3F3105C8
:103060004105510589F080F029813A814B815C81CD
:103070009AE055954795379527959A95D1F7215020
:1030800031094109510987E09091B100987F892B5E
:103090008093B100FD89F13009F486CFF23009F454
:1030A00095CFFF2309F445CF6D817E818F8198856F
:1030B0000E941A0585E00E94BA0369897A898B8982
:1030C0009C890E941A051F5F2E892113E0CD669608
:1030D0000FB6F894DEBF0FBECDBFDF91CF911F9129
:1030E0000F91FF90EF90DF90CF90BF90AF909F90A7
:1030F0008F907F906F905F904F903F902F900895AA
:103100004F925F926F927F928F929F92AF92BF92F7
:10311000CF92DF92EF920F931F93CF93DF93D82E2E
:10312000192F0E94BB0C8695CD2DD12FB12CA12C2F
:10313000C82ED12C88EE882E83E0982E2197AC14CF
:10314000BD044CF5CE018C199D090E94BB0C782E54
:10315000CE010E94BB0C182F672D70E0C4010E94A5
:103160008135072E000C880B990B0E944F302B01E4
:103170003C01612F70E090E080E00E944D30EE2431
:10318000E39410E000E0A30192010E940A168FEF81
:10319000A81AB80AD3CFDF91CF911F910F91EF906A
:1031A000DF90CF90BF90AF909F908F907F906F9067
:1031B0005F904F9008951F920F920FB60F921124B7
:1031C0002F933F934F935F936F937F938F939F932F
:1031D000AF93BF93EF93FF9380917202909173022C
:1031E000A0917402B0917502892B8A2B8B2BD1F19F
:1031F00090917102E0916F02F091700280818927B5
:1032000080838091720290917302A0917402B091B8
:103210007502181619061A061B069CF48091720294
:1032200090917302A0917402B09175020197A10967
:10323000B1098093720290937302A0937402B093C9
:103240007502FF91EF91BF91AF919F918F917F9107
:103250006F915F914F913F912F910F900FBE0F9003
:103260001F901895809100010E94BA03EACF1F9227
:103270000F920FB60F9211242F933F934F935F93AA
:103280006F937F938F939F93AF93BF93EF93FF932E
:103290008FE695E00E94B402FF91EF91BF91AF914C
:1032A0009F918F917F916F915F914F913F912F915E
:1032B0000F900FBE0F901F9018951F920F920FB690
:1032C0000F9211242F938F939F93EF93FF93E0918D
:1032D0007F05F09180058081E0918505F09186055C
:1032E00082FD1BC09081809188058F5F8F73209134
:1032F0008905821741F0E0918805F0E0E159FA4F25
:10330000958F80938805FF91EF919F918F912F91D9
:103310000F900FBE0F901F9018958081F4CF1F92D1
:103320000F920FB60F9211242F933F938F939F9379
:10333000AF93BF938091670290916802A091690258
:10334000B0916A023091660223E0230F2D3758F5C1
:103350000196A11DB11D2093660280936702909390
:103360006802A0936902B0936A0280916B02909107
:103370006C02A0916D02B0916E020196A11DB11D6B
:1033800080936B0290936C02A0936D02B0936E02D7
:10339000BF91AF919F918F913F912F910F900FBE51
:1033A0000F901F90189526E8230F0296A11DB11DBE
:1033B000D2CF1F920F920FB60F9211242F933F93EB
:1033C0004F935F936F937F938F939F93AF93BF932D
:1033D000EF93FF938091B900887F803609F44AC04B
:1033E000F0F5883209F4A7C018F5803109F49BC0C4
:1033F000B8F4882309F4F9C0883009F494C0FF9127
:10340000EF91BF91AF919F918F917F916F915F915C
:103410004F913F912F910F900FBE0F901F901895D5
:10342000883109F488C0803251F78093470514C071
:10343000803409F49DC040F48033B9F38833F9F641
:103440008093470585ECB0C0803509F485C0883588
:1034500009F496C0883499F60E94D215D0CF8839E5
:1034600009F48CC038F5883729F050F4883611F00B
:10347000803729F683E0809369051092650257C072
:10348000883809F47BC0803919F0803809F0B7CF4B
:1034900080916502803208F071C0E091650281E0A0
:1034A0008E0F809365028091BB00F0E0EB5BFD4FD7
:1034B00080833DC0803B39F0E0F4803A09F479C064
:1034C000883A09F09CCF84E0809369051092440209
:1034D00010924302E0917802F0917902099580916F
:1034E000430281110FC081E08093430210922302B6
:1034F00009C0803C09F4A6CF883C09F4A3CF883BDF
:1035000009F07DCFE091440281E08E0F8093440268
:10351000F0E0ED5DFD4F80818093BB00909144020F
:103520008091430229C0809144058093BB0085ECC3
:103530008093BC0064CF9091460580914505981713
:1035400058F5E091460581E08E0F80934605F0E046
:10355000ED5DFA4F8081E9CFE091460581E08E0F65
:10356000809346058091BB00F0E0ED5DFA4F8083CB
:1035700090914605809145059817C8F285E8D8CF07
:10358000E091460581E08E0F809346058091BB0057
:10359000F0E0ED5DFA4F80838091480581115CCFAA
:1035A00081E08093430584EA8093BC001092690512
:1035B00026CF85EC8093BC0010926905809165024E
:1035C000803230F4E0916502F0E0EB5BFD4F108259
:1035D0006091650270E0E0917602F091770285E4F7
:1035E00092E00995109265020ACF1092470534CFF8
:1035F0001F920F920FB60F9211242F933F934F9368
:103600005F936F937F938F939F93AF93BF93CF936A
:10361000DF93EF93FF9320912F0630E0F901EB55F4
:10362000FE4F8491F901E55EFD4FD491F901E75C0D
:10363000FD4FC491CC2379F081110E946303EC2FDC
:10364000F0E0EE0FFF1FE45EFE4FA591B491EC9108
:10365000ED2381E009F480E02091340630913506B5
:103660002F5F3F4F3093350620933406209132066A
:10367000309133062536310518F094E090932E06EC
:1036800090912E06911130C0811169C020913406AD
:10369000309135062436310528F410923506109203
:1036A00034065DC010920007109233061092320665
:1036B0002091320630913306A9014F5F5F4F50933E
:1036C0003306409332064091340650913506220F5E
:1036D000331FF901EA5CF94F51834083109235069C
:1036E0001092340691E021C090912E06913001F5A0
:1036F0008130A9F52091320630913306A9014F5F40
:103700005F4F5093330640933206409134065091F8
:103710003506220F331FF901EA5CF94F51834083CC
:10372000109235061092340692E090932E0617C040
:1037300090912E06923061F4882309F4B9CF20913C
:103740003406309135062536310548F093E0EDCF4B
:1037500090912E06933099F4882309F49ECF90918E
:1037600031069923A9F0811126C080913006882363
:1037700071F08091300661E00E948C0309C0909145
:103780002E06943061F791E090930007DFCF2D9AD9
:10379000FF91EF91DF91CF91BF91AF919F918F9169
:1037A0007F916F915F914F913F912F910F900FBE3D
:1037B0000F901F90189580913006882321F08091FA
:1037C000300660E0D9CF2D98E3CFCF93DF931092EE
:1037D00072051092710588EE93E0A0E0B0E080934E
:1037E000730590937405A0937505B09376052BE34C
:1037F00031E03093700520936F0525EC30E0309375
:103800007C0520937B0524EC30E030937E052093EB
:103810007D0520EC30E03093800520937F0521EC7E
:1038200030E0309382052093810522EC30E0309324
:1038300084052093830526EC30E0309386052093A1
:103840008505109288051092890510928A051092BC
:103850008B05C2E2D6E010922506109224068093D2
:10386000260690932706A0932806B09329068DE498
:1038700091E090932306809322068FE591E0909348
:103880000D0680930C06D0930F06C0930E068FEFA3
:103890009FEF9093110680931006109212061092DB
:1038A0001306109214061092150610921706109225
:1038B0001606109219061092180610921B06109206
:1038C0001A0610921D0610921C0624E130E0309377
:1038D0001F0620931E06909321068093200684E005
:1038E00080932F061092310669EA71E08EE297E02C
:1038F0000E949315EDE1F7E081E1DF011D928A95C9
:10390000E9F780E480931707D0931907C09318074D
:1039100010920207109209071092100710921107D7
:10392000109212071092130781E080930F07809383
:103930000C0710920D0792E090930E0780930107F9
:1039400083E090E090930607809305070E94E82D9E
:1039500090930B0780930A07009799F123E0FC01ED
:1039600011922A95E9F781E090E090930407809303
:1039700003078AE090E090930807809307078091FF
:103980000207882341F061E08AE00E94E60360E0DC
:103990008AE00E948C03E3E4F2E0E491F0E0EE0FB1
:1039A000FF1FE15DFD4F85919491909315078093E2
:1039B0001407E5E2F2E0E491E0931607DF91CF917E
:1039C00008951092060710920507109204071092AE
:1039D0000307CFCFCF93DF93CDB7DEB7E3970FB613
:1039E000F894DEBF0FBECDBF789484B5826084BDED
:1039F00084B5816084BD85B5826085BD85B58160F3
:103A000085BD80916E00816080936E001092810070
:103A1000809181008260809381008091810081602B
:103A200080938100809180008160809380008091EC
:103A3000B10084608093B1008091B0008160809378
:103A4000B00080917A00846080937A0080917A003F
:103A5000826080937A0080917A00816080937A00FE
:103A600080917A00806880937A001092C100E09182
:103A70007F05F091800582E08083E0917B05F091E5
:103A80007C051082E0917D05F0917E0580E18083C8
:103A900010928705E0918305F091840586E080838C
:103AA000E0918105F0918205808180618083E091C1
:103AB0008105F0918205808188608083E091810595
:103AC000F0918205808180688083E0918105F0918A
:103AD000820580818F7D808385E090E0A0E0B0E06A
:103AE0008093730590937405A0937505B093760544
:103AF00010922F0310922E031092200510921F0592
:103B00000E94800584E392E090937902809378028A
:103B100085E392E0909377028093760288E0809329
:103B2000B800EE24E39410E000E020E030E048E448
:103B300052E460E070E080EA91E40E940A168BE6AD
:103B40000E94710A8BE591E00E94650A84E591E08C
:103B50000E94650A8BE491E00E94650A8AE191E087
:103B60000E94BB0C882321F08FEF93E00E94801805
:103B700081E391E00E94280361E1E62E63E0F62EE6
:103B800000E110E0C8010E94BB0CD7018D937D01BC
:103B90000F5F1F4F00321105A9F710922F031092EB
:103BA0002E031092200510921F050E94800584E3C9
:103BB00092E0909379028093780285E392E090936B
:103BC00077028093760240E860E087E197E00E9408
:103BD000F8076AE070E080E090E00E941A0540E09B
:103BE00050E06AE774E487E197E00E943A0980E4D4
:103BF00098E7ADE7B1E080931A0790931B07A09375
:103C00001C07B0931D0783E191E00E94BB0D092EB4
:103C1000000CAA0BBB0B80937A0290937B02A093BB
:103C20007C02B0937D02885D9945A109B10985396F
:103C30009141A105B10560F088EA91E6A0E0B0E00D
:103C400080937A0290937B02A0937C02B0937D02D2
:103C500060917A0270917B0280917C0290917D024A
:103C60000E944F3020E030E04AE754E40E948E3258
:103C700042E00E941E0B0E94610A20917A0230915C
:103C80007B0240917C0250917D02A8EEB3E00E943D
:103C9000A1316B017C0140E050E060E773E487E113
:103CA00097E00E943A09C0922007D0922107E09243
:103CB0002207F0922307C0921A07D0921B07E092C6
:103CC0001C07F0921D070E948F0888E391E00E9474
:103CD000650A90E080E08C010F5F1F4F805C9E4F73
:103CE0000E94BB0C080F111DC801805C9E4F0E94F2
:103CF000BB0C8E3419F0C8010496EDCF68E071E07A
:103D0000C8018E5B9E4F0E94940CF8941092800024
:103D100089E08093810080E293E090938900809312
:103D20008800109285001092840082E080936F00DA
:103D3000789410922E0610923306109232068091DB
:103D40002F0660E00E94E60364E070E08EE297E0F8
:103D50000E94CC1461E083E00E94E60386E090E0DC
:103D60000E94E82D8C01DC0111961C921E92139684
:103D70001C921E92129715961C921E9214978EE317
:103D800091E00E94650A109329030093280384ECB4
:103D900091E00E942F1264EF71E080E090E00E94B9
:103DA0001A05809107079091080797FD08C061E008
:103DB0000E94E60360E0809107070E948C0381E087
:103DC0008093020780910A0790910B07892B11F0CD
:103DD0000E944E0460910907633329F120910A077C
:103DE00030910B076150C9F070E08FEF92E30E94B1
:103DF0006D35F9014091050750910607CF01821BEF
:103E0000930B8417950760F44081469FC001479F3C
:103E1000900D112490833196EDCF70E060E0E9CFF2
:103E200083E38093090761E083E00E94E60380E179
:103E30000E941704BC01990F880B990B611571053D
:103E40008105910511F00E94A82F8DE091E00E945C
:103E5000E40E64EF71E080E090E00E941A05109299
:103E6000BD0284E491E00E94650A0091280310914C
:103E70002903F801C080D180C114D10409F4A3C082
:103E8000D8018D919C91181619060CF414C110914B
:103E90002503112311F40C94092800913003802F7D
:103EA000002E000C990B0E945836F82E80932403A4
:103EB0001530D8F4B2E68B17C1F00C34B1F00934E8
:103EC000A1F0612F70E0615F7F4F072E000C880B1F
:103ED000990B0E944F30EE24E39410E000E020E0C4
:103EE00030E040EA50E40E940A16809108018823DD
:103EF00049F0EBE6FE1206C088EF9BE00E94DD0968
:103F000010920801809123038356823050F48091EF
:103F10003003833631F081E08093070187E40E940B
:103F2000710A80913003803751F080910601811130
:103F300006C081E08093060180E70E94710A10911B
:103F40003003E1ECE10FE53310F00C94C1270E2EA5
:103F5000000CFF0BE255F04E0C949535B927C127A4
:103F6000C127F12AC127C127C127C127B028C127EE
:103F70005C2AC1273E2BE62A5C2AC127C127C1271C
:103F8000C127C127C127282BC127C127C127C12786
:103F9000C127C127C127C127C127C127C127C127E1
:103FA00075298B298B29D12BC127C127B028C1277F
:103FB0008B29C928B12BC1278B29C127C127B72835
:103FC000C127C1271C290E942808882309F458CF3B
:103FD00086E396E09093900280938F028091320660
:103FE0009091330690939202809391028091000702
:103FF00090E0909394028093930280912E068330F8
:1040000009F020C1809138069091390687589109AE
:104010008E35910508F010C18091320690913306DB
:10402000049709F0D8C080913A0690913B0680979A
:10403000479708F0D0C080913C0690913D060997C3
:10404000099708F0C8C010928E0210928D028FEF6F
:104050009FEFDC018093870290938802A0938902EE
:10406000B0938A0283E090E090938402809383026D
:104070008091870290918802A0918902B0918A0272
:10408000892F9A2FAB2FBB278A3509F429C208F054
:10409000E0C1823209F40CC208F0C5C1803109F4D4
:1040A0001CC208F073C166E971E0823009F476C180
:1040B0006AEE71E020C20E944D05C0907E02D09051
:1040C0007F02E0908002F09081026C197D098E09D8
:1040D0009F09C0900101D0900201E0900301F0908F
:1040E0000401C616D706E806F9060CF0D0CED801B2
:1040F0001296ED91FC91F12CE12C309711F0E080BB
:10410000F180F70120812093300383819481909383
:1041100022038093210345815681052E000C660BF6
:10412000770B409301015093020160930301709358
:104130000401A181B281E5E3F3E0AF0145535340AF
:10414000481759071CF43D913193F7CF21542A3178
:10415000F0F52EE78B5C9C4FDC012C930E944D0503
:1041600060937E0270937F0280938002909381021D
:1041700085E080932503E114F10451F0F70181817A
:104180009281009711F00E94842EC7010E94842E14
:10419000D80112968D919C91009711F40C94CC2D1E
:1041A000DC011296ED91FC91D8011396FC93EE93ED
:1041B0001297309771F0158214820E94842ED801D4
:1041C0008D919C91119701978D939C9360CE20E0E7
:1041D000C1CFF801F0CF809132069091330684343C
:1041E000910550F180913A0690913B0681549109D6
:1041F0008F9710F530E020E080E090E0DC01F901DD
:10420000E45CF94F408151814950510949305105D1
:1042100098F4F901E25CF94F40815181475151090D
:104220004231510508F49BC04081518146505109EB
:104230004730510508F4A5C010922E06109233069F
:10424000109232068FE695E00E9494021816190625
:104250000CF072C08FE695E00E947202382E8093B7
:104260003003082E000C990B0E945836182F8093AB
:10427000240382E08093250361E070E080E090E019
:104280000E941A05FFEBF30DFDA70EE7202EFA3171
:1042900010F0BAE02B2E0E944D052B013C012BE4BF
:1042A000321621F085E090E0123611F488EC90E0AF
:1042B0001B7F1BAB4C01990FAA08BB088FE695E04A
:1042C0000E949402892B09F4F1C1009121031091FD
:1042D00022038BE6381619F09BA9993639F48091A0
:1042E0000B0190910C01081719072CF4033DA1E074
:1042F0001A070CF4C1C181EA91E00E94650A64EFDB
:1043000071E080E090E00E941A058FE695E00E943F
:1043100072028FE695E00E949402892BB1F780919A
:1043200030030E94710A8BE68093300369ED71E0DF
:1043300085E393E00E9479360E944D052091250384
:104340002150223008F0E2C10E944D056093B9026D
:104350007093BA028093BB029093BC0298CD880FF1
:10436000991FAA1FBB1F81602C5F3F4F203831056A
:1043700009F045CF20E230E030938E0220938D0289
:1043800069CE880F991FAA1FBB1FEECF823109F497
:10439000B0C06EE771E0883109F08ACECE01819617
:1043A0000E94A4156BEC71E0CE0181960E94660C10
:1043B000882309F4A5C064E871E08EE297E00E94CA
:1043C0005D156EE277E0CE0187960E944115CE0121
:1043D00081960E944C0A6AEE71E0CE0187960E9497
:1043E000660C811115C06FA178A58BA59CA50197BE
:1043F00009F02EC16115710521F41092820262E864
:1044000072E0FB0180818093300381E0809325037B
:1044100010922E061092330610923206CE01879625
:104420000E944C0A0FCF823409F45DC048F48033F7
:1044300009F44DC064E771E0883309F4AFCF38CE9A
:104440008A3409F453C066E671E0823509F4A6CFD8
:104450002FCE823A39F198F48A37E1F140F482366E
:1044600021F16BE871E0883609F498CF21CE8039CC
:1044700059F168E871E0883909F490CF19CE823C8F
:10448000D1F040F4883AE9F065E871E0803B09F446
:1044900085CF0ECE803E91F06BE971E0823E09F44B
:1044A0007DCF06CE6FE971E079CF6DE971E076CF0F
:1044B00069E971E073CF64E971E070CF62E971E09E
:1044C0006DCF60E971E06ACF6EE871E067CF62E8B6
:1044D00071E064CF6AE771E061CF67E771E05ECFBA
:1044E00060E771E05BCF6DE671E058CF68E671E0A0
:1044F00055CF68EC71E0CE0181960E94931552CFA2
:104500006EED71E0CE0181960E94660C811111C0A2
:104510006EEB71E0CE0181960E94660C811109C09C
:1045200062EC71E0CE0181960E94660C882309F44A
:1045300042C08DA19EA1892B21F0E9A1FAA130975B
:1045400021F410928202E2E8F2E01081109305015A
:10455000163471F464E871E08EE297E00E94660C14
:10456000882331F069EA71E08EE297E00E945D15E0
:104570006EE277E0CE0101960E9441151FA318A6B6
:1045800041E050E0BE01695D7F4FCE0101960E947F
:10459000F414811104C0CE0101960E943A0ABE01B2
:1045A0006F5F7F4FCE0187960E944115CE01019625
:1045B0000E944C0A0CCF6DEC71E0CE0181960E94F6
:1045C000660C09A11AA1811131C060ED71E0CE0124
:1045D00081960E94660C811129C063ED71E0CE01C5
:1045E00081960E94660C811121C069EA71E0CE01BA
:1045F00081960E94660C811119C066ED71E0CE01B2
:1046000081960E94660C811111C018A70FA38BA17F
:104610009CA19AA789A78DA19EA19CA78BA71AA24E
:1046200019A21CA21BA21EA21DA2D1CE011511050A
:1046300051F04DA15EA1B8018EE297E00E942015D5
:104640001091050195CF8EE297E00E943A0AF8CFCB
:104650008BE68093300385E393E00E94793669ED21
:1046600071E085E393E00E947036892B09F0CDCE8E
:1046700086E480930501C9CE8FE695E00E94720220
:1046800098012F5F3F4F3093220320932103F801BD
:10469000EB5CFC4F80838FE695E00E949402892BAF
:1046A00009F013CE0E944D052B013C01009121031E
:1046B000109122037801B1E0EB1AF108F701EB5CED
:1046C000FC4FFAABE9AB8081821561F00E944D0589
:1046D0006419750986099709681579058A059B0586
:1046E0000CF4ECCDA9A9BAA98C91281201C08701BC
:1046F0001093220300932103BDA58EE7BA3108F081
:1047000080E0F801EB5CFC4F808316CE20913003F3
:10471000233609F4BCCB0091B9021091BA02209162
:10472000BB023091BC02601B710B820B930B1616FF
:104730001706180619060CF0AACB0E94B21320E047
:1047400030E040E251E46091B5027091B602809190
:10475000B7029091B8020E9475331816B4F520E0A4
:1047600030E040EA51E46091B1027091B202809170
:10477000B3029091B4020E94483087FF26C0809116
:104780003403813011F54090AD025090AE0260903C
:10479000AF027090B00220E030E040E85EE3C30179
:1047A000B2010E94AE304B015C01A301920160E0B6
:1047B00070E08CE092E40E941C32EE24E39410E05E
:1047C00000E0A50194010E940A164091050750914E
:1047D000060770E060E080910A0790910B070E9445
:1047E0006936B6010D2C000C880B990B0E944F30D6
:1047F0004B015C016091A9027091AA028091AB0209
:104800009091AC020E94D83323E333E343EB5FE3A0
:104810000E94AE309B01AC0160E070E080E091E46A
:104820000E941C322B013C012090030730900407AA
:10483000B10190E080E00E944D308B01F82EE92E0E
:104840009B01482F592FB201C3010E94483087FFB6
:1048500003C08201F62CE72C20E030E040EC50E46D
:104860006091AD027091AE028091AF029091B00262
:104870000E94AE306DA77EA78FA798AB9B01AC01BD
:1048800060E070E08FE793E40E941C322B013C0152
:1048900098014F2D5E2DC501B4010E94483087FF5D
:1048A00082C0C214D30408F067C06091A502709161
:1048B000A6028091A7029091A8029B01AC010E94E0
:1048C0001D3220E030E040E053E40E941D320E949F
:1048D0000733862E912CB12CA12C6DA57EA58FA51A
:1048E00098A90E940733962AC301B2010E94073398
:1048F000A62A750100271127492C5A2C6B2C7724E6
:10490000442D382D809109072E2D882391F0682F92
:1049100070E06E9DA0016F9D500D7E9D500D112485
:10492000252F849D20011124452D889D40011124AF
:10493000392DE0910F0780910A0790910B07509154
:104940000C07B601E51324C0660F771F6C0D7D1DA3
:10495000860F971FE0910C07E80FF92FF11D2083B8
:10496000E0910D07E80FF92FF11D408320910E070C
:10497000820F911DFC01308380910A0790910B07F3
:10498000892B11F00E944E04FFEFCF1ADF0A29CFC6
:10499000660F771F660F771F860F971FE80FF92F97
:1049A000F11D1082D7CFC301B2010E9400336B0109
:1049B0008B0161E083E00E94E603C114D10409F099
:1049C0006FC060E083E00E948C03C090A902D09089
:1049D000AA02E090AB02F090AC0220E030E040E8A8
:1049E0005FE3C701B6010E94483087FD12C0809086
:1049F000A1029090A202A090A302B090A40220E095
:104A000030E040E85FE3C501B4010E94483087FF11
:104A10008EC00E94B21320E030E040E85FE3609176
:104A2000A9027091AA028091AB029091AC020E94FF
:104A3000483087FF2CCA20E030E040E85FE3609117
:104A4000A1027091A2028091A3029091A4020E94FF
:104A5000483087FF1CCA00912803109129032CEDD0
:104A600035E044E851E06BE6C8010E94F60B2CEDFE
:104A700035E04CED51E06BE6C8010E94F60B30E0EA
:104A800020E044EC51E06BE6C8010E94F60B30E0F8
:104A900020E04AEE51E069E6C8010E94F60BF7C932
:104AA0000F3F110511F461E08DCFE8EAF1E0E491E8
:104AB000E33019F140F4E130B1F0E230C9F00038F0
:104AC00011058CF77ECFE73011F1E83041F1E43089
:104AD000B1F780918000806280938000D0928B003B
:104AE000C0928A0072CF84B5806884BDC7BC6DCF88
:104AF00084B5806284BDC8BC68CF80918000806826
:104B000080938000D0928900C09288005ECF80910F
:104B1000B00080688093B000C092B30056CF8091FF
:104B2000B00080628093B000C092B4004ECF8091FC
:104B30003403813009F025C120E030E040EA51E43F
:104B40006091B5027091B6028091B7029091B8025F
:104B50000E94483087FFB5C0A5019401C701B60186
:104B60000E941C324B015C0180929D0290929E0239
:104B7000A0929F02B092A0029F7720E030E040E830
:104B80005FE30E94753318160CF09BC020919502CC
:104B9000309196024091970250919802C501B4015C
:104BA0000E941D326B017C0120E030E041E654E4BC
:104BB0000E94753318160CF4D8C020E030E041E6AE
:104BC00054ECC701B6010E94483087FF06C0C12CD3
:104BD000D12C41E6E42E44ECF42EC0929502D09202
:104BE0009602E0929702F0929802209199023091F9
:104BF0009A0240919B0250919C02C501B4010E940F
:104C00001C322DEC3CEC4CE45EE30E94AE302B01F8
:104C10003C0120E030E040E05FE3C501B4010E94C8
:104C2000AE304B015C012DEC3CEC4CEC5DE3C7017C
:104C3000B6010E94AE309B01AC01C501B4010E94D7
:104C40001D329B01AC01C301B2010E941D326B01F8
:104C50007C0120E030E044EB52E40E94753340E0F8
:104C600050E064EB72EC18168CF020E030E044EB7E
:104C700052ECC701B6010E944830B701A601705836
:104C800087FF04C040E050E064EB72E44093A5026B
:104C90005093A6026093A7027093A80280E00E943E
:104CA0003E0E80919D0290919E02A0919F02B09134
:104CB000A0028093990290939A02A0939B02B093D2
:104CC0009C02C090A502D090A602E090A702F090AE
:104CD000A80220E030E046E952ECC701B6010E948C
:104CE000483087FD49C020E030E046E952E4C70182
:104CF000B6010E94753320ED37E040EB51E0181605
:104D00000CF0C5C86BE680912803909129030E949E
:104D1000F60B30E020E044EC51E06BE68091280394
:104D2000909129030E94F60B1092A5021092A60200
:104D30001092A7021092A80210929D0210929E0259
:104D400010929F021092A0021092990210929A0261
:104D500010929B0210929C02109295021092960261
:104D6000109297021092980292C8C12CD12C31E671
:104D7000E32E34E4F32E31CF20ED37E04CEA51E05E
:104D8000C1CF82300CF483C800912803109129030D
:104D9000D8018D919C91892B09F079C80E9428082F
:104DA000882309F474C830E020E04AEE51E069E657
:104DB000C8010E94F60B20E030E040EA51E4C70150
:104DC000B6010E947533181634F520E030E040EA51
:104DD00051E4C501B4010E9475331816E4F430E0C3
:104DE00020E040EE51E06BE6C8010E94F60B0E9405
:104DF0004D0564527A4F8F4F9F4F6093B902709365
:104E0000BA028093BB029093BC028BED91E00E94AA
:104E1000650A0C94471F20E030E040E850E4C701E9
:104E2000B6010E94483087FD0AC020E030E040E82B
:104E300050E4C501B4010E94483087FF15C0A501A8
:104E40009401C701B6010E9448304CEA51E087FD49
:104E500002C040EB51E020ED37E06BE6C8010E9454
:104E6000F60B80ED91E0D3CF0E944D056854744F4E
:104E70008F4F9F4F6093B9027093BA028093BB0229
:104E80009093BC02A7019601C501B4010E941C3297
:104E90002B013C0120E030E0A9010E947533181677
:104EA0000CF048C020E030E040E050E4C301B20123
:104EB0000E94753318160CF447C020E030E040E241
:104EC00051E4C701B6010E94483087FD0CC020E0C4
:104ED00030E040E251E4C501B4010E94483087FD52
:104EE00002C00C94471FA5019401C701B6010E949E
:104EF00048304CEB51E087FD02C040EC51E02CED16
:104F000035E06BE6C8010E94F60BA5019401C701CC
:104F1000B6010E94483044EB51E087FD02C048EBE7
:104F200051E02CED35E06BE6C8010E94F60B89EBF1
:104F300091E06DCF20E030E040E050ECC301B201E1
:104F40000E94483087FFB9CFA5019401C701B6017F
:104F50000E94483044EB51E087FD02C048EB51E02D
:104F600028EE33E06BE6C8010E94F60B8BEC91E073
:104F70004ECF89E092E00E94650A80E092E00E94B4
:104F8000650A809130038B3621F490910D05191636
:104F9000CCF40E94710A809123038B3699F480919E
:104FA00030038A3661F0803751F0809124038736D0
:104FB00031F0982F9B7F993611F0863719F48BE6E4
:104FC00080933003109130031B3691F480913503A8
:104FD000882371F06AE771E085E393E00E94703600
:104FE000892B31F065E373E08DEB92E00E94793616
:104FF00010922503109323031B3629F01356123009
:1050000010F0109230031092350310922203109288
:105010002103809130038B3609F046C0E0900D05E6
:10502000E7FE20C480911B05FF24FA94F80E82301D
:1050300008F4F12C10E03EECE32E42E3B42E212FD5
:1050400030E080910D05082E000C990B97FF03C0EE
:10505000919581959109281739075CF48FE695E0C1
:105060000E949402892B09F4B0C389ED91E00E945B
:105070002F1283E49DE00197F1F780910D0587FFE2
:1050800013C08DE091E00E94E001E0EDF2E080E1EC
:1050900093E011921192119211928E179F07C9F706
:1050A000809130030E94710A0E944D0520E137E291
:1050B00040E050E00E94EB318091090190910A019B
:1050C000092E000CAA0BBB0B82179307A407B50788
:1050D000BCF5790130930A012093090185E10E9412
:1050E00017048C018A3892403CF5809126039091F8
:1050F00027030817190721F022E0E216F104E4F46F
:1051000080E192E00E942803C80163E670E00E94FB
:105110008135072E000C880B990B0E94F40A86E556
:105120000E94710A8AE191E00E94BB0C882321F061
:1051300081ED93E00E9480181093270300932603CB
:1051400080E090E0892B11F40C94351F0E94A0029E
:10515000882311F40C94351F0E9400000C94351F15
:1051600087E6173409F00DCF809330030ACF809182
:10517000060191E0811190E090930601811110E504
:1051800010933003811102C08BE6EECF0E948F088E
:10519000F8CE8DE30E942303809121039091220396
:1051A000892BA1F085E393E00E94B12F880F991F0E
:1051B000FC01E35FFE4F60817181072E000C880BBC
:1051C000990B0E94F40A0E94610ADBCE0E94D40A65
:1051D0006AEE71E0CE0181960E9493150DE011E018
:1051E0008DE2E82E81E0F82ED8016D917D918D0140
:1051F000CE0101960E9467154D815E8169817A8199
:10520000CE0181960E94F414CE0101960E944C0AB0
:1052100042E050E068EE71E0CE0181960E94F41405
:10522000E016F10609F7CE0181960E947D0ACE01B3
:1052300081960E944C0AA5CE8AEF91E00E94650AF1
:10524000A1E18A2EA3E09A2EB0E4EB2EF12C00E12E
:1052500010E0F401D1904F01C8010E946C31D816C2
:1052600021F06D2DC8010E947431C7010E94BB0D51
:105270006C01C80180960E94BB0CB82EF4013197D6
:105280006081062E000C770B880B990B0E944F3023
:105290002B013C016B2DBB0C770B880B990B0E94EB
:1052A0004F309B01AC01C301B2010E94AE302B0113
:1052B0003C01B601DD0C880B990B0E944F309B011D
:1052C000AC01C301B2010E941D320E940033C7012C
:1052D00080960E94940C0F5F1F4FF2E0EF0EF11CBE
:1052E0000032110509F0B5CF4CCE82EF91E00E945B
:1052F000650AF1E1EF2EF3E0FF2E00E110E0C801B6
:105300000E94BB0CD7018D937D010F5F1F4F0032B0
:105310001105A9F736CE193649F4809121039091F1
:105320002203892B19F4109231032BCE1092100313
:10533000709007010DE011E0FE0131966F0170EDF4
:10534000E72E72E0F72EEDE28E2EE1E09E2E560162
:10535000D8016D917D918D01072E000C880B990B62
:105360000E944F3020E030E0A901772029F0F701BA
:1053700020813181428153810E941C320E9400337E
:10538000D6016D937D936D01B4E0EB0EF11C801698
:105390009106F1F664EE71E085E393E00E94DF2F61
:1053A0006C01C114D10409F447C0C6010E94B12F99
:1053B0008C0167EE71E090E080E00E94DF2F6C01CD
:1053C000F12CE12C88248394912C009769F00E94A1
:1053D000B12F7C0167EE71E090E080E00E94DF2F4A
:1053E0006C0162E0862E912C80913003982F9B7F78
:1053F000993609F01AC30031110598F49801220F6B
:10540000331FF501E20FF31FF182E0820430110532
:10541000D4F428533D4FF901F182E08291E090935A
:1054200031038D3609F09AC340E050E060E070E44B
:10543000C5010E94000F92C3F12CE12C10E000E0A6
:10544000912C812CD1CF91E090931003EACF82363A
:1054500009F084C3892881F48AE191E00E94BB0CA1
:105460002AE131E03AA329A361E0811160E0CE0195
:1054700081960E947B0C72C3E114F10409F46EC39F
:1054800088EE93E0B7010E948135072E000C880B4F
:10549000990B0E944F302B013C01B801110F880B72
:1054A000990B0E944F30EE24E39410E000E0A3013A
:1054B00092010E940A1652C3809121039091220307
:1054C00002970CF430CF1092100370900701ADE0FA
:1054D000EA2EA1E0FA2ECE0101965C01B0EDCB2EB2
:1054E000B2E0DB2E1DE2812E11E0912E8C01D7015E
:1054F0006D917D917D01072E000C880B990B0E9408
:105500004F3020E030E0A901772029F0F60120811A
:105510003181428153810E941C320E940033D501A7
:105520006D937D935D01B4E0CB0ED11C8E149F046E
:10553000F1F6F5E3EF2EF3E0FF2EDD24D394209176
:10554000210330912203C7018553934082179307AB
:105550005CF5F70140814031A8F42181022E000C56
:10556000330B842F880F990BF801E80FF91F318353
:1055700020834430B4F488539D4FDC012D933C9339
:10558000D0923103809130038D3439F440E050E003
:1055900060E070E4C8010E94000FB2E0EB0EF11C65
:1055A000CECFD0921003EECF80911003811105C0B1
:1055B000809123038B3609F4E4CC40E050E060E8AE
:1055C00070E4C8010E94000FC801E3C200E020E0BF
:1055D00030E040E050E461E085E393E00E94781021
:1055E000D0CCF12C0F2D10E080912103909122035B
:1055F00097FD019695958795081719070CF0D2C26B
:10560000000F111F0B5C1C4FF8016181062E000C6E
:10561000770B88EE93E00E948135072E000C880BF3
:10562000990B0E944F304B015C01D8016C91062E02
:10563000000C770B880B990B0E944F30EE24E394FB
:1056400010E000E0A50194010E940A16F394CACF6D
:1056500086E191E00E94BB0D0E949D080E941A12F3
:10566000809130030E94710A8BE6809330036BEEC9
:1056700071E085E393E00E94793683CC86E191E086
:105680000E94BB0D7C018091350380930D050E9423
:10569000530101966C018E0D9F1D8F3F9F41A8F015
:1056A00081EE91E00E94650A65E0E62E04E610E0D6
:1056B00020E030E048EC52E460E070E080E291E409
:1056C0000E940A160E941A12CFCF10E000E0222496
:1056D000239454E5352E1C141D04A4F720922205B2
:1056E000309221051092200510921F056F2D70E059
:1056F00082E296E00E944F08B701772782E296E0A7
:105700000E944F083801F801EB5CFC4F4F01280163
:10571000F0E14F0E511C0F5F1F4FD4016D914D01F1
:1057200082E296E00E94DE065801AE0CBF1CA6186D
:10573000B708B1E0CB1AD10841F0C5018F719927A4
:10574000892B19F04016510631F782E296E00E944B
:105750000D0766E070E080E090E00E941A05750198
:10576000BACF65E373E082E791E00E947036892B3F
:1057700069F065E373E08DEB92E00E947036892B4F
:1057800029F480910D0582300CF00AC285E393E084
:105790000E942F1280910D05813009F0F2CB80E23A
:1057A000E3CC6FEE71E085E393E00E94793685E308
:1057B00093E00E942F120E948F081092070110920E
:1057C000310387E60E94710ADCCBC0901D05D090A2
:1057D0001E0580911305189FC00CD11C1124F601E1
:1057E0006089062E000C770B880B990B0E944F30B6
:1057F00020E030E040E85EE30E94AE309B01AC0167
:1058000000E060911805C6010E9478108091130590
:10581000E0911D05F0911E05189FE00DF11D11246A
:1058200061891616D4F4FB2D6F02B0011124072EE6
:10583000000C880B990B0E941A05FF2061F01123C0
:1058400051F080911A05181306C0109119051150D6
:105850001F140CF4FA941F5FF2CB2E2D6202B001DC
:105860001124E5CF2E2D0E2C000C330B8091090551
:10587000803108F446C010920905809106014091DC
:10588000320350913303840F952F911D8217930794
:10589000A4F59093330380933203F09009050F2D04
:1058A00010E081E08E15ACF580911C05F816D8F15A
:1058B000409113052091320330913303429FC00180
:1058C000439F900D112420911C05080F191F021BE6
:1058D000110980911D0590911E05080F191F6091F7
:1058E0001805F80120812603B0011124072E000CB1
:1058F000880B990B0E944F3063C0109233031092B3
:10590000320380910905843041F688E080930905CF
:10591000C4CF2130310561F693E09F1548F28091A4
:105920003103882329F280913103811154C0A3E00F
:10593000AF1508F450C0B1E0812C912C5401FB1636
:1059400059F060910C05062E000C770B880B990B13
:105950000E944F304B015C010E5F1F4F809132035C
:1059600090913303089FB001099F700D189F700D2F
:105970001124072E000C880B990B0E944F302BED41
:105980003FE049E450E40E94AE302B013C016E2D13
:10599000EE0C770B880B990B0E944F309B01AC01EA
:1059A000C301B2010E948E320E94CA3320E030E06F
:1059B00040E251E40E94AE30A50194010E941D32E4
:1059C000AB01BC018F2D0E943E0E809109058F5FB7
:1059D000809309054ECBF801EE0FFF1FE853FD4FF2
:1059E00060817181072E000C880B990B0E944F304B
:1059F0004B015C016091070170E090E080E00E9443
:105A00004F30000F111F000F111FF801E053FD4F21
:105A100020813181428153810E94AE309B01AC01D3
:105A2000C501B4010E941C32CBCF833609F00FCDE3
:105A30001092070180912303833689F088E59CE06A
:105A40000E94DD0981E0809308016BE871E085E345
:105A500093E00E94793685E393E00E942F12C801FB
:105A60008F5E9C4F3C0192E08916910411F4D301A2
:105A7000EC92C8018096880F991F0E94BB0D7C0193
:105A8000C8019927C0960E94BB0C182FF3016081B2
:105A9000062E000C770B880B990B0E944F302B01C0
:105AA0003C01612F110F770B880B990B0E944F302F
:105AB0009B01AC01C301B2010E94AE302B013C013D
:105AC000B701FF0C880B990B0E944F309B01AC0172
:105AD000C301B2010E941D320E940033072E000C48
