:100000000C944B070C9473070C9473070C947307B0
:100010000C9473070C9473070C9473070C943220A0
:100020000C9473070C9473070C9473070C944F2271
:100030000C9473070C9473070C9473070C94730758
:100040000C94E6200C9473070C94B4200C948E202E
:100050000C9473070C9473070C9473070C94730738
:100060000C9430210C947307084AD73B3BCE016EA9
:1000700084BCBFFDC12F3D6C74319ABD56833DDAFF
:100080003D00C77F11BED9E4BB4C3E916BAAAABE0E
:10009000000000803F05A84CCDB2D44EB93836A937
:1000A000020C50B9918688083CA6AAAA2ABE000074
:1000B00000803F07634236B79BD8A71A39685618A5
:1000C000AEBAAB558C1D3CB7CC5763BD6DEDFD751D
:1000D0003EF6177231BF000000803F08000000BEEE
:1000E000922449123EABAAAA2ABECDCCCC4C3E00EB
:1000F000000080BEABAAAAAA3E00000000BF00001C
:1001000000803F0000000000084178D3BB4387D146
:10011000133D190E3CC3BD4282AD2B3E68EC827686
:10012000BED98FE1A93E4C80EFFFBE01C4FF7F3FE7
:1001300000000000000001000001000000000000BD
:10014000000000000000000000006B767446006BA9
:10015000636D68006B7075006B706565006B736331
:100160007268006B736E66006B636872006B636B22
:10017000006B6869006B737472006B7369740000C4
:1001800000000023002600290000000000240027B2
:10019000002A0000000000250028002B00040404B1
:1001A0000404040404020202020202030303030320
:1001B00003010204081020408001020408102001FD
:1001C00002040810200000000800020100000304DF
:1001D0000700000000000000000200F8F62A3F6857
:1001E000F57A0006FFFE0003000000650054FFEFF3
:1001F0000000FA80000B12820001030C30C30A7465
:10020000562D0D62DBC716F4BA023883F88330002E
:10021000F883258EF8833000F883FFFFFFFF0CBDC5
:10022000D811240004001A8279A10036003C000095
:1002300000000010000038836FA2003E0330400031
:10024000000002CAE3093E80000020000000000018
:10025000000040000000600000001FA4E8E4FFF57B
:10026000DCB9005B79CF1F3F787600867C5A008628
:100270002347FAB986310074878A00000000000025
:100280004305FFFFE9A800002182FAB84D46FFFAB6
:10029000DF3DFFFFB2B3000000003FFFBA98005DF2
:1002A000AC08000A637800014621FFFF000000004F
:1002B00042B500060064006400061406029F0F4762
:1002C0009132D90E9FC91DCF4C343BB67AE80064F9
:1002D000000600C800000000FFFE10000000000043
:1002E0000000000000000000000000070000FFF117
:1002F0000000FA460000A2B800001000000004D67A
:10030000000004CC000004CC00000000000000004D
:1003100000000000000000000000000600020005D0
:100320000007000000000064000000000000000062
:10033000000C000500640020000000000000000028
:100340000000000040000000030000000032F898A8
:100350000000FF650000830F000000060000FFF1B1
:100360000000FA460000A2B80000000000000000F3
:10037000000000000000000000000000003200004B
:10038000000000000000000010000000000100005C
:10039000000D0000B26A000200000001FB83007C37
:1003A0000000FB15FC001FB4FF8300000001006586
:1003B0000007006403E8006400280000FFFD00005F
:1003C000000016A000000000000000001000002F38
:1003D0000000000001F40000100000280000FFFFF2
:1003E0004581FFFFFA720000000000000000004499
:1003F00000010005BAC6004778A200000000000016
:1004000000000000060000000014000023BB002EC6
:10041000A25B00000568000BCF490004FFFD00024D
:1004200000000000000200000000001B00000000AF
:100430000000000000000000000000640007000849
:1004400000060006FFFE00000000000000000000A3
:10045000000000000000000000000000000000009C
:10046000000000000000000000000000000000008C
:1004700000000000000000000000002EA25B000051
:100480000568000BCF490000000000F8F62A3F681D
:10049000F57A0004FFFD00020000001B00000000D0
:1004A000000000000000000E000EFFFFFFCF000460
:1004B000000000000032FFFFFF9C00004305000029
:1004C00000000000000100000064FFE500000000E3
:1004D000000000000000000000000000000100001B
:1004E0000000000100000000000000018000000189
:1004F000800000018000002426D3000100010000DC
:100500000000000600100096003C00000000000003
:100510000000000000001F9E655D0C0A4E68CDCFF4
:10052000770950166759C619CE82000000000000F6
:100530000000000000000047711C000000000000E7
:10054000000017D78400030000000011DC470300FF
:100550000000C7938F9D1E1B1C19FFFFFFFF0000AB
:1005600000000EDFA4381F9E655D000000000047FC
:10057000711C02031885000040000000000000000C
:10058000000300000000000000003FFFFFFDFFFF30
:10059000F4C9FFFFBCF000010C0F000000000000D8
:1005A000000000000000000000000000000000004B
:1005B00000000000000000000000F5B7BAB3677D3E
:1005C000DF7E72902E554CF6E68800000000000099
:1005D00000000000000000000000D8DCB4B8B0D873
:1005E000B9ABF3F8FAB3B7BB8E9EAEF132F51BF19F
:1005F000B4B8B08097F1A9DFDFDFAADFDFDFF2AAAE
:100600004CCD6CA90CC92C97F1A989264666B289F4
:1006100099A92D557DB0B08AA896365676F1BAA321
:10062000B4B280C0B8A89711B28398BAA3F02408D6
:1006300044106418B2B9B49883F1A329557DBAB5B2
:10064000B1A38393F0002850F5B2B6AA839328543F
:100650007CF1B9A3829361BAA2DADEDFDB819AB9B9
:10066000AEF5606870F1DABAA2DFD9BAA2FAB9A31E
:100670008292DB31BAA2D9BAA2F8DF85A4D0C1BB7D
:10068000AD83C2C5C7B8A2DFDFDFBAA0DFDFDFD826
:10069000D8F1B8AAB38DB4980D355DB2B6BAAF8CA7
:1006A00096198F9FA70E161EB49AB8AA872C547C51
:1006B000BAA4B08AB691325676B28494A4C808CD52
:1006C000D8B8B4B0F19982A82D557D98A80E161E01
:1006D000A22C547C92A4F02C5078F184A898C4CD1C
:1006E000FCD80DDBA8FC2DF3D9BAA6F8DABAA6DE41
:1006F000D8BAB2B68696A6D0F3C841DAA6C8F8D85A
:10070000B0B4B882A892F52C548898F135D9F41871
:10071000D8F1A2D0F8F9A884D9C7DFF8F883C5DAF0
:10072000DF69DF83C1D8F40114F1A8824EA884F3F5
:1007300011D182F5D992289788F109F41C1CD8842C
:10074000A8F3C0F9D1D99782F129F40DD8F3F9F9BA
:10075000D1D982F4C203D8DEDF1AD8F1A2FAF9A8FF
:100760008498D9C7DFF8F8F883C7DADF69DFF88340
:10077000C3D8F40114F198A8822EA884F311D18271
:10078000F5D992509788F109F41CD884A8F3C0F8E1
:10079000F9D1D99782F149F40DD8F3F9F9D1D98279
:1007A000F4C403D8DEDFD8F1AD8898CCA809F9D914
:1007B0008292A8F57CF1883ACF944A6E98DB693131
:1007C000DAADF2DEF9D88795A8F221D1DAA5F9F4ED
:1007D00017D9F1AE8ED0C0C3AE82C684C3A88595AA
:1007E000C8A588F2C0F1F4010EF18E9EA8C63E564F
:1007F000F554F18872F40115F19845856EF58E9ED9
:100800000488F142985A8E9E068869F4011CF1987A
:100810001E1108D0F504F11E970202983625DBF967
:10082000D985A5F3C1DA85A5F3DFD88595A8F309A5
:10083000DAA5FAD88292A8F578F1881A849F2688DA
:100840009821DAF41DF3D8879F39D1AFD9DFDFFBC8
:10085000F9F40CF3D8FAD0F8DAF9F9D0DFD9F9D8ED
:10086000F40BD8F3879F39D1AFD9DFDFF41DF3D86C
:10087000FAFCA869F9F9AFD0DADEFAD9F88F9FA8A7
:10088000F1CCF398DB45D9AFDFD0F8D8F18F9FA832
:10089000CAF38809DAAF8FCBF8D8F2AD978D0CD9AF
:1008A000A5DFF9BAA6F3FAF412F2D8950DD1D9BAA8
:1008B000A6F3FADAA5F2C1BAA6F3DFD8F1BAB2B656
:1008C0008696A6D0CAF349DAA6CBF8D8B0B4B8D881
:1008D000AD84F2C0DFF18FCBC3A8B2B68696C8C193
:1008E000CBC3F3B0B48898A821DB718D9D71859539
:1008F00021D9ADF2FAD88597A828D9F408D8F28D75
:1009000029DAF405D9F285A4C2F2D8A88D9401D1D0
:10091000D9F411F2D88721D8F40AD8F28498A8C85B
:1009200001D1D9F411D8F3A4C8BBAFD0F2DEF8F8E6
:10093000F8F8F8F8F8F8D8F1B8F6B5B9B08A95A390
:10094000DE3CA3D9F8D85CA3D9F8D87CA3D9F8D8D1
:10095000F8F9D1A5D9DFDAFAD8B18530F7D9DED8E0
:10096000F830ADDADED8F2B48C99A32D557DA08392
:10097000DFDFDFB591A0F629D9FBD8A0FC29D9FA91
:10098000D8A0D051D9F8D8FC51D9F9D879D9FBD809
:10099000A0D0FC79D9FAD8A1F9F9F9F9F9A0DADFF0
:1009A000DFDFD8A1F8F8F8F8F8ACDEF8ADDE839315
:1009B000AC2C547CF1A8DFDFDFF69D2CDAA0DFD968
:1009C000FADB2DF8D8A850DAA0D0DED9D0F8F8F8A4
:1009D000DB55F8D8A878DAA0D0DFD9D0FAF8F8F843
:1009E000F8DB7DF8D89CA88CF530DB38D9D0DEDF79
:1009F000A0D0DEDFD8A848DB58D9DFD0DEA0DFD01A
:100A0000DED8A868DB70D9DFDFA0DFDFD8F1A888E7
:100A1000902C547C98A8D05C38D1DAF2AE8CDFF9F7
:100A2000D8B087A8C1C1B188A8C6F9F9DA36D8A864
:100A3000F9DA36D8A8F9DA36D8A8F9DA36D8A8F922
:100A4000DA36D8F78D9DADF818DAF2AEDFD8F7AD0B
:100A5000FA30D9A4DEF9D8F2AEDEFAF983A7D9C309
:100A6000C5C7F1889BA77AADF7DEDFA4F8849408A8
:100A7000A797F300AEF29819A488C6A39488F6321B
:100A8000DFF28393DB09D9F2AADFD8D8AEF8F9D127
:100A9000DAF3A4DEA7F1889B7AD8F38494AE19F92F
:100AA000DAAAF1DFD8A881C0C3C5C7A39283F6280C
:100AB000ADDED9F8D8A350ADD9F8D8A378ADD9F820
:100AC000D8F8F9D1A1DADEC3C5C7D8A18194F81846
:100AD000F2B089ACC3C5C7F1D8B8B4B09786A83115
:100AE0009B069907AB9728889BF00C201440B0B464
:100AF000B8F0A88A9A285078B79BA8295179247011
:100B000059446938644831F1BBAB88002C547CF0FF
:100B1000B38BB8A804285078F1B088B49726A859A8
:100B200098BBABB38B02264666B0B8F08A9CA82966
:100B300051798B2951798A2470598B2058718A44B4
:100B400069388B3940688A6448318B30496088F154
:100B5000AC002C547CF08CA804285078F18897269F
:100B6000A85998AC8C02264666F0899CA829517930
:100B7000247059446938644831A98809205970ABF8
:100B800011384069A8193148608CA83C415C207C30
:100B900000F187981986A86E767EA999882D557DD3
:100BA000D8B1B5B9A3DFDFDFAED0DFAAD0DEF2ABBC
:100BB000F8F9D9B087C4AAF1DFDFBBAFDFDFB9D85E
:100BC000B1F1A3978E60DFB084F2C8F8F9D9DED80E
:100BD0009385F14AB183A308B5839A0810B79F1093
:100BE000D8F1B0BAAEB08AC2B2B68E9EF1FBD9F4DB
:100BF0001DD8F9D90CF1D8F8F8AD61D9AEFBD8F40D
:100C00000CF1D8F8F8AD19D9AEFBDFD8F416F1D84D
:100C1000F8AD8D61D9F4F4ACF59C9C8DDF2BBAB6A0
:100C2000AEFAF8F40BD8F1AED0F8AD51DAAEFAF86E
:100C3000F1D8B9B1B6A3839C08B9B1839AB5AAC05B
:100C4000FD3083B79F10B58B93F20202D1ABDADE91
:100C5000D8F1B080BAABC0C3B284C1C3D8B1B9F3C4
:100C60008BA391B609B4D9ABDEB0879CB9A3DDF1F3
:100C7000B38B8B8B8B8BB08720283038B28BB69B95
:100C8000F2A3C0C8C2C4CCC6A3A3A3F1B087B59ACF
:100C9000D8F39BA3A3DCBAACDFB9A3FEF2ABC4AA22
:100CA000F1DFDFBBAFDFDFA3A3A3D8D8D8BBB3B7D7
:100CB000F1AAF9DAFFD9809AAA28B48098A720B7B8
:100CC0009787A86688F07951F1902C870CA78197B7
:100CD0006293F071716085940129517990A5F12892
:100CE0004C6C870C95188578A38390284C6C886C85
:100CF000D8F3A28200F210A8921980A2F2D926D8C5
:100D0000F188A84DD948D896A83980D93CD8958083
:100D1000A839A68698D92CDA87A72CD8A88995193E
:100D2000A980D938D8A88939A980DA3CD8A82EA8B2
:100D30003990D90CD8A8953198D90CD8A809D9FFE1
:100D4000D801DAFFD89539A9DA26FFD890A80D89FD
:100D500099A810809821DA2ED88999A83180DA2EA6
:100D6000D8A886963180DA2ED8A8873180DA2ED896
:100D7000A88292F34180F1D92ED8A882F31980F18C
:100D8000D92ED882ACF3C0A28022F1A62EA72EA91C
:100D90002298A829DAACDEFFD8A2F22AF1A92E8285
:100DA00092A8F23180A696F1D900AC8C9C0C30ACA4
:100DB000DED0DEFFD88C9CACD010ACDE8092A2F2EC
:100DC0004C82A8F1CAF235F19688A6D900D8F1FF75
:100DD000444D50206661696C6564202800494D557A
:100DE00000536572766F3A00536B696C6C00526504
:100DF00061647921004E5F3233303632300042690F
:100E000074746C65000A2A205374617274202A007D
:100E10004C6F7720706F7765723A007A65726F0059
:100E20007363726800636B007065650070750068BD
:100E300069007374720073697400747200776B00D8
:100E40006372007674006300420070005200757097
:100E5000004C006700460064004F5646007A01755A
:100E60000171016D01680163015D01580154014F79
:100E7000014A0161626F7274656400736176656432
:100E8000004E5F32333036323000426974746C6524
:100E900000003C23883411241FBECFEFD8E0DEBF12
:100EA000CDBF11E0A0E0B1E0E4E9FBE702C00590AE
:100EB0000D92A83BB107D9F727E0A8EBB1E001C03C
:100EC0001D92AA34B207E1F717E0CAE4D7E004C0E4
:100ED0002197FE010E94BE3CC934D107C9F70E9488
:100EE000D6230C94BD3D0C94000091E090936505D1
:100EF000809364051092630510926205089547E09F
:100F000018160CF444E04093090598E0823024F46C
:100F100094E1813009F490E190930A05282F880F1D
:100F2000330B37FF03C0319521953109929FB001F2
:100F3000939F700D1124CB01840F911D0895CF93C1
:100F4000DF93DC019096FC0141E85FEF60E870E020
:100F500021913191261737070CF4B9014217530735
:100F60000CF4A901EA17FB0799F763387F4F1CF0CF
:100F70004E3751056CF122E020930F05DC012D91D5
:100F80003D91ED01229737FF02C02F5F3F4F35950E
:100F9000279539832883AE17BF0789F7A0911405D9
:100FA000B0911505EC01288102962D938E179F07AD
:100FB000C9F781E0809304051092130580E18093C6
:100FC0000A051092FF041092FE04DF91CF9108955C
:100FD00021E020930F05E2CF80912203909123031B
:100FE000891B990B089508950895AF92BF92CF92EF
:100FF000DF92EF92FF920F931F93CF93DF936C01D9
:101000007B018B01040F151FEB015E01AE18BF08B9
:10101000C017D10759F06991D601ED91FC9101906B
:10102000F081E02DC6010995892B79F7C501DF9183
:10103000CF911F910F91FF90EF90DF90CF90BF90D5
:10104000AF900895FC01538D448D252F30E0842FFF
:1010500090E0821B930B541710F0CF9608950197E0
:101060000895FC01918D828D981761F0A28DAE0FCD
:10107000BF2FB11D5D968C91928D9F5F9F73928F54
:1010800090E008958FEF9FEF0895FC01918D828D80
:10109000981731F0828DE80FF11D858D90E008954D
:1010A0008FEF9FEF0895FC01918D228D892F90E0A5
:1010B000805C9F4F821B91098F739927089586E664
:1010C00095E00E94530821E0892B09F420E0822F4B
:1010D000089580E090E0892B29F00E945F0881113B
:1010E0000C9400000895FC01A48DA80FB92FB11D28
:1010F000A35ABF4F2C91848D90E001968F7399274E
:10110000848FA689B7892C93A089B1898C9183702B
:1011100080648C93938D848D981306C00288F38924
:10112000E02D80818F7D80830895EF92FF920F9351
:101130001F93CF93DF93EC0181E0888F9B8D8C8D83
:1011400098131AC0E889F989808185FF15C09FB777
:10115000F894EE89FF896083E889F989808183703A
:10116000806480839FBF81E090E0DF91CF911F91E9
:101170000F91FF90EF900895F62E0B8D10E00F5F0A
:101180001F4F0F731127E02E8C8D8E110CC00FB6E0
:1011900007FCFACFE889F989808185FFF5CFCE0178
:1011A0000E947308F1CFEB8DEC0FFD2FF11DE35A78
:1011B000FF4FF0829FB7F8940B8FEA89FB898081FB
:1011C0008062CFCF682F86E695E00C9495080F9348
:1011D0001F93CF93DF938C01D0E0C0E0F801EC0FB8
:1011E000FD1F6491662341F086E695E00E94950814
:1011F000892B11F02196F2CFCE01DF91CF911F9173
:101200000F910895CF93DF93EC01888D8823B9F077
:10121000AA89BB89E889F9898C9185FD03C0808101
:1012200086FD0DC00FB607FCF7CF8C9185FFF2CF7E
:10123000808185FFEDCFCE010E947308E9CFDF9159
:10124000CF910895833081F028F4813099F0823075
:10125000A9F008958730A9F08830C9F08430B1F43E
:10126000809180008F7D03C0809180008F77809374
:101270008000089584B58F7784BD089584B58F7DEF
:10128000FBCF8091B0008F778093B000089580915C
:10129000B0008F7DF9CF1F93CF93DF93282F30E0DD
:1012A000F901EB53FE4F8491F901EF54FE4FD491B5
:1012B000F901E356FE4FC491CC23A9F0162F8111FA
:1012C0000E942209EC2FF0E0EE0FFF1FED56FE4FBB
:1012D000A591B4918FB7F894EC91111108C0D095F5
:1012E000DE23DC938FBFDF91CF911F910895DE2B1A
:1012F000F8CF9091000189130BC0E9EDF1E0E49182
:101300009FEF90930001E13049F028F0E23061F066
:1013100060E00C944B0910926E00FACF90916F0030
:101320009D7F90936F00F4CF909170009D7F90937C
:10133000700091E09093B0009091B100987F94601C
:101340009093B1001092B300E3CFCF93DF9390E07E
:10135000FC01EF54FE4F249183569E4FFC01849173
:101360008823D1F090E0880F991FFC01E757FE4FCA
:10137000A591B491FC01ED56FE4FC591D491611138
:101380000EC09FB7F8948C91E22FE0958E238C933A
:101390002881E223E8839FBFDF91CF9108958FB723
:1013A000F894EC91E22BEC938FBFF6CF3FB7F89413
:1013B00080916B0290916C02A0916D02B0916E02CF
:1013C00026B5A89B05C02F3F19F00196A11DB11DA0
:1013D0003FBFBA2FA92F982F8827BC01CD01620FDC
:1013E000711D811D911D42E0660F771F881F991F97
:1013F0004A95D1F708958F929F92AF92BF92CF9264
:10140000DF92EF92FF926B017C010E94D6094B01A3
:101410005C01C114D104E104F104B9F00E94D609C1
:10142000681979098A099B09683E7340810591050D
:1014300080F321E0C21AD108E108F10888EE880E95
:1014400083E0981EA11CB11CE4CFFF90EF90DF90C9
:10145000CF90BF90AF909F908F9008952FB7F89442
:1014600060916702709168028091690290916A02AE
:101470002FBF089520914302260F3327331F2132B7
:101480003105ECF420915C05FC0190E080E0243013
:1014900069F082E00895A09143022191AC014D5D75
:1014A0005D4FA40FB52FB11D2C930196861798F3AD
:1014B00080914302680F6093430280E0089581E0C9
:1014C000089510925C0581E080933B0510923605EB
:1014D00061E082E10E944B0961E083E10E944B09D7
:1014E000E9EBF0E080818E7F808380818D7F808337
:1014F00088E48093B80085E48093BC000895CF937E
:10150000DF9391E0909322028823B9F0C091B80054
:10151000D091BA008091BC008A7B8093BC0060E0CF
:1015200082E10E944B0960E083E10E944B090E9426
:10153000610AD093BA00C093B800DF91CF910895AB
:10154000CF92DF92EF92FF920F931F93CF93DF938F
:10155000D82FC62F613208F098C00E94D6096B01BF
:101560007C0180915C0581116BC081E080935C05FA
:1015700080933B059FEF90933A05109239059C0F9D
:10158000909338058093370580913705DD0FD82B70
:10159000D093370580913605813009F078C01092DC
:1015A00036050E94D6096B017C0180913705809336
:1015B000BB0080915E0590915F05A0916005B091A0
:1015C0006105892B8A2B8B2BA1F00E94D6090091F3
:1015D0005E0510915F0520916005309161056C19E1
:1015E0007D098E099F09061717072807390708F490
:1015F00048C08091BC0083FDD8CF85EC8093BC00AF
:101600000E94D6096B017C0180915C05813009F450
:1016100040C0809139058C1710F4C0913905E6E17E
:10162000F5E0ACE3B5E080E08C1355C08C2FDF9182
:10163000CF911F910F91FF90EF90DF90CF90089581
:1016400080915E0590915F05A0916005B091610564
:10165000892B8A2B8B2B09F484CF0E94D609009109
:101660005E0510915F0520916005309161056C1950
:101670007D098E099F09061717072807390708F003
:1016800070CF80915D050E947F0AC0E0CFCF85EECC
:10169000B5CF80915E0590915F05A0916005B091F6
:1016A0006105892B8A2B8B2B09F4AECF0E94D609BA
:1016B00000915E0510915F052091600530916105F4
:1016C0006C197D098E099F09061717072807390726
:1016D00008F09ACFD6CF91919D938F5FA5CF0895B3
:1016E000E091230380912203E81730F4F0E0E45CFA
:1016F000FA4F808190E008958FEF9FEF08959091C9
:101700002303809122032FEF3FEF981748F4E92F2E
:10171000F0E0E45CFA4F208130E09F5F9093230378
:10172000C9010895CF92DF92EF92FF920F931F931A
:10173000CF93DF937C01CB018A01209165052223A1
:1017400089F0EB016B01C40ED51ECC15DD0569F0E7
:101750006991D701ED91FC910190F081E02DC701D5
:101760000995F3CF642F0E943A0AC801DF91CF9107
:101770001F910F91FF90EF90DF90CF900895CF933E
:10178000DF931F92CDB7DEB76983209165052223D1
:10179000F9F020916205203258F021E030E0FC01A0
:1017A0003383228390E080E00F90DF91CF91089502
:1017B00080916305E82FF0E0EE5FFD4F9981908303
:1017C0008F5F809363058093620581E090E0ECCFAA
:1017D00061E0CE0101960E943A0AF7CFCF92DF92E4
:1017E000EF92FF920F931F93CF93DF93D0916205F7
:1017F00081E0D13208F09CC0C09164050E94D609F6
:101800006B017C0180915C0581116CC082E080934A
:101810005C0581E080933B058FEF80933A05109241
:101820003905D0933805A2E0B2E0E6E1F5E080E0CA
:10183000D8138DC01092370580913705CC0FC82B77
:10184000C093370580913605813009F084C010922D
:1018500036050E94D6096B017C0180913705809383
:10186000BB0080915E0590915F05A0916005B091ED
:101870006105892B8A2B8B2BA1F00E94D609009140
:101880005E0510915F0520916005309161056C192E
:101890007D098E099F09061717072807390708F4DD
:1018A00042C08091BC0083FDD8CF85EC8093BC0002
:1018B0000E94D6096B017C0180915C05823009F49D
:1018C0004CC080913A058F3F09F469C080913A0578
:1018D000803209F466C080913A05803309F463C010
:1018E00084E026C080915E0590915F05A09160051F
:1018F000B0916105892B8A2B8B2B09F483CF0E9431
:10190000D60900915E0510915F0520916005309128
:1019100061056C197D098E099F09061717072807AD
:10192000390708F06FCF80915D050E947F0A85E03E
:10193000109263051092620510926505DF91CF91B8
:101940001F910F91FF90EF90DF90CF9008959D91A0
:1019500091938F5F6DCF85EEA9CF80915E059091B9
:101960005F05A0916005B0916105892B8A2B8B2BB7
:1019700009F4A2CF0E94D60900915E0510915F057F
:1019800020916005309161056C197D098E099F09D0
:10199000061717072807390708F08ECFC4CF80E055
:1019A000C7CF82E0C5CF83E0C3CF1F93CF93DF9330
:1019B000162FEA010E947507612F89E196E00E94C7
:1019C000BF0B698189E196E00E94BF0B688189E1C4
:1019D00096E00E94BF0B89E196E00E94EE0B91E039
:1019E000811190E0892FDF91CF911F91089590E0B0
:1019F00080E00895FF920F931F93CF93DF93C62F3C
:101A0000042FF22E132F0E9475076C2F89E196E0A8
:101A10000E94BF0BCF2DD12F0C0F1D2F111DC017F2
:101A2000D10731F0699189E196E00E94BF0BF7CFB1
:101A300089E196E00E94EE0B91E0811190E0892F00
:101A4000DF91CF911F910F91FF900895CF93DF9376
:101A50001F92CDB7DEB749839E012F5F3F4F41E014
:101A60000E94FA0C0F90DF91CF91089508950F9383
:101A70001F93CF93DF93EC01062F142F88810E94D0
:101A8000750789819A81DC01ED91FC910190F081CB
:101A9000E02D602F099589819A81DC01ED91FC91FF
:101AA0000190F081E02D612F099589819A81DF9164
:101AB000CF911F910F910C94EE0BDC01ED91FC91F5
:101AC0000190F081E02D0994FF920F931F93CF9323
:101AD000DF93EC01162FF42E052F88810E947507E5
:101AE00089819A8124E0129FB00111246A5F7F4F9F
:101AF000DC01ED91FC910190F081E02D099570E001
:101B000060E089819A810E945D0D70E060E08981CA
:101B10009A810E945D0D6F2D702F89819A810E949C
:101B20005D0D602F70E089819A810E945D0D898131
:101B30009A81DF91CF911F910F91FF900C94EE0B42
:101B4000CF93C0E040E050E16C2F87E297E00E9425
:101B5000640DCF5FC031B1F7CF9108952F923F92BE
:101B60004F925F926F927F928F929F92AF92BF92AD
:101B7000CF92DF92EF92FF920F931F93CF93DF9359
:101B800000D000D0CDB7DEB7782E662E4C833A83D6
:101B900029830E942E0A6B017C01512C1B822C810F
:101BA000222E312C4801B12CA12C8C81581608F022
:101BB00049C0872D0E947507662D89E196E00E9435
:101BC000BF0B89E196E00E94EE0B872D0E947507FE
:101BD000B101651971096132710514F060E270E0BC
:101BE000613208F060E2872D0E94A00A482E109210
:101BF000230380932203809123034816E9F0011503
:101C0000110579F489E196E00E947F0BE981FA8160
:101C10009B81E90FF11D97FDFA9580839F5F9B8360
:101C2000EACF0E942E0A6C197D098E099F0968155A
:101C300079058A059B0530F38C81813208F080E2BA
:101C4000580EB3CF01151105C1F00E942E0A6C1970
:101C50007D098E099F0930E020E060177107820737
:101C6000930758F02B81822F220F990B2C81281774
:101C7000190619F014F08FEF8B838B810F900F9062
:101C80000F900F90DF91CF911F910F91FF90EF90E8
:101C9000DF90CF90BF90AF909F908F907F906F908C
:101CA0005F904F903F902F9008950F931F93CF9385
:101CB000DF93C4E1D7E008EE13E025E137E042E02E
:101CC00062E788810E94AE0D89819A8198278927D1
:101CD0009827DF91CF911F910F910895CF92DF92B6
:101CE000EF92FF920F931F93CF93DF931F92CDB785
:101CF000DEB7F82EE62EC42ED22E08EE13E09E019B
:101D00002F5F3F4F41E00E94AE0D81E090E001C0A7
:101D1000880FCA94EAF74981DD2081F0482B498376
:101D20006E2D8F2D0E94260D0F90DF91CF911F9168
:101D30000F91FF90EF90DF90CF900895809548230A
:101D4000EECFBF92CF92DF92EF92FF920F931F934D
:101D5000CF93DF931F92CDB7DEB7F82EE62EC42EB9
:101D6000B22ED02E08EE13E09E012F5F3F4F41E0D0
:101D70000E94AE0D882371F18C2D8B19990BAC014B
:101D80004F5F5F4F81E090E002C0880F991FBA94C7
:101D9000E2F70197042E01C0880F0A94EAF70D2D8F
:101DA00001C0000F4A95EAF7482F409599814923D1
:101DB0008023482B49836E2D8F2D0E94260D0F9076
:101DC000DF91CF911F910F91FF90EF90DF90CF9017
:101DD000BF90089580E0F3CF1F93CF93DF93EC0182
:101DE000162F88810E94750789819A81DC01ED9107
:101DF000FC910190F081E02D612F099589819A81F4
:101E00000E94EE0B61E088810E94A00A10922303D9
:101E10008093220389819A81DC01ED91FC910284F7
:101E2000F385E02D0995DF91CF911F9108958F9251
:101E30009F92AF92BF92CF92DF92EF92FF921F9349
:101E4000CF93DF93EC016A017B0120E030E040E8B2
:101E50005FE3CB01B6010E94EC3687FD7EC020E037
:101E600030EC4AE555E4C701B6010E94B23A1816B3
:101E70003CF4C12C30ECD32E3AE5E32E35E4F32EBE
:101E80006B817C818D819E810E94F1364B015C01CA
:101E900020E030E040E855E4C701B6010E94523727
:101EA0009B01AC01C501B4010E94A43920E030E0DF
:101EB00040E05FE30E94C13820E030E040E85FE3AB
:101EC0000E94C0386B017C0120E030E040E450E427
:101ED0000E94EC3687FD48C020E030E04FE753E435
:101EE000C701B6010E94B23A181634F4C12CD12CA5
:101EF0009FE7E92E93E4F92E60E0CE010E94EC0EFC
:101F0000182F482F4F76406160E0CE010E94370DB8
:101F1000C701B6010E941D3A462F6EEFCE010E9406
:101F2000370D412F60E0CE010E94370D65E070E073
:101F300080E090E00E94FB09412F406A60E0CE0102
:101F4000DF91CF911F91FF90EF90DF90CF90BF90E6
:101F5000AF909F908F900C94370DC12CD12C20E81E
:101F6000E22E2FE3F22E8CCFC12CD12C80E4E82E70
:101F7000FE2CC2CF4F925F926F927F928F929F9270
:101F8000AF92BF92CF92DF92EF92FF92CF93C0E0D9
:101F90006C01F12CE12CC701B6010E94F1364B0116
:101FA0005C016EEF87E297E00E94EC0E682F70E014
:101FB0006F5F7F4F90E080E00E94F13620E034E2D6
:101FC00044E759E40E9452372B013C0160912A07F3
:101FD00070912B0780912C0790912D070E94F1366C
:101FE0009B01AC01C301B2010E94A4399B01AC0169
:101FF000C501B4010E94A4390E941D3AAB016C2FA7
:1020000087E297E00E94640DCF5FC03121F6CF9147
:10201000FF90EF90DF90CF90BF90AF909F908F9008
:102020007F906F905F904F900895FC010190002089
:10203000E9F73197AF01481B590BBC0186E695E0E3
:102040000C94F5078DE691E00C941510CF93DF9377
:102050000E94E708EC010E9422108C0F9D1FDF9167
:10206000CF910895CF93DF930E94E208EC010E9484
:1020700022108C0F9D1FDF91CF910895CF93DF9396
:10208000FC01448155816081718186E695E00E9462
:10209000F507EC010E9422108C0F9D1FDF91CF915C
:1020A00008958F929F92AF92BF920F931F93CF93F9
:1020B000DF93CDB7DEB7A1970FB6F894DEBF0FBEA2
:1020C000CDBF19A2423008F44AE08E010F5D1F4FC8
:1020D000842E912CB12CA12CA50194010E948F3843
:1020E000E62FB901CA01EA30F4F4E05DD801EE93BD
:1020F0008D01232B242B252B79F790E080E010977E
:1021000019F0CD010E941510A1960FB6F894DEBF0C
:102110000FBECDBFDF91CF911F910F91BF90AF90B8
:102120009F908F900895E95CE1CFCF92DF92EF927C
:10213000FF92C12CD12C76014AE0C701B6010E9462
:10214000511089E00E94E2088FEFC81AD80AE80A05
:10215000F80A80E1C816D104E104F10469F7FF90A0
:10216000EF90DF90CF900C9422104F925F926F927D
:102170007F928F929F92AF92BF92CF92DF92EF9217
:10218000FF920F931F93CF936B017C01742EAC01D0
:102190009B010E94613B882399F080E791E0CF91F9
:1021A0001F910F91FF90EF90DF90CF90BF90AF9075
:1021B0009F908F907F906F905F904F900C94151030
:1021C00046015701E894B7F82FEF3FEF4FE75FE77D
:1021D000C501B4010E94613B81110DC02FEF3FEF9B
:1021E0004FE75FE7C501B4010E94EC3618161CF4F6
:1021F00084E791E0D4CF2FEF3FEF4FE75FE4C701D3
:10220000B6010E94B23A18161CF488E791E0C7CFD5
:102210002FEF3FEF4FE75FECC701B6010E94EC36AE
:1022200087FDF3CF20E030E0A901C701B6010E948D
:10223000EC3610E000E087FF08C08DE20E94E20863
:102240008C01F7FAF094F7F8F094C0E060E070E0E9
:1022500080E09FE37C1641F020E030E040E251E472
:102260000E94A439CF5FF6CFA70196010E94C13822
:102270002B013C010E941D3A4B015C014AE00E9487
:1022800051107C01E00EF11ECC23B1F1C501B40167
:102290000E94F1369B01AC01C301B2010E94C0381B
:1022A0004B015C018EE20E94E208E80EF91EC1506B
:1022B00018F120E030E040E251E4C501B4010E9491
:1022C00052372B013C010E941D3A4B01B12CA12C2D
:1022D0004AE0C501B4010E945110E80EF91EC50183
:1022E000B4010E94F1369B01AC01C301B2010E940E
:1022F000C0384B015C01DBCFC701CF911F910F911B
:10230000FF90EF90DF90CF90BF90AF909F908F9015
:102310007F906F905F904F900895CF93DF93C3EAC3
:10232000D2E06C817D818E819F8145E00E94B51055
:1023300089E00E94E208688579858A859B8545E069
:102340000E94B510DF91CF910C942210FC012481E2
:102350003581232B39F421E0FB018081882349F06A
:1023600020E007C0808191810E949F3D21E0892B60
:10237000B9F7822F08950C942835CF93DF93EC01A1
:1023800088819981009711F00E942835198218825E
:102390001D821C821B821A82DF91CF910895FC015D
:1023A00080819181009711F00C94283508950C9448
:1023B00010382F923F924F925F926F927F928F923E
:1023C0009F92AF92BF92CF92DF92EF92FF920F93C4
:1023D0001F93CF93DF93CDB7DEB72E970FB6F89448
:1023E000DEBF0FBECDBF6C0185E191E00E94D71129
:1023F000782E6CE771E0C6010E949F3D472C892B27
:1024000089F4872C912CB12CA12C81149104A10466
:10241000B10439F00E94FD35A50194010E942638CF
:102420004B01482CF60101900020E9F73197EC1997
:10243000FD092E2F2150330B7901F601E20FF31F16
:1024400030813C87612C10E000E0CE0101965C01F8
:1024500081E491E0FC01EA19FB09FE87ED8776141F
:1024600009F474C01801FFEF2F1A3F0AC801805CFD
:102470009E4F0E94D711582E45012D853E85020F93
:10248000131F882D8A19851548F4C801880D991DD8
:102490000E94D711F40181934F01F3CF852C912C29
:1024A0008101080D191DF501E80DF91D1082641058
:1024B00025C0C8018F5B9E4F0E94D71180930405F1
:1024C0000E947F07C801805C9E4F2E960FB6F8943D
:1024D000DEBF0FBECDBFDF91CF911F910F91FF9057
:1024E000EF90DF90CF90BF90AF909F908F907F90B4
:1024F0006F905F904F903F902F900895B601C50167
:102500000E949F3D892BA9F2FE01E80DF91D8081F3
:102510008634C1F06EE771E0C5010E949F3D892BB2
:1025200089F0A701B601C5010E94AF3D892B51F486
:10253000FC85FC3409F4BDCFF23509F4BACFF83587
:1025400009F4B7CF0C5F1F4F639489CF8FE30E94CC
:10255000E208C6010E9415100E9422108FEF9FEF23
:10256000B4CF1F93CF93DF93EC010E94D711182FA4
:10257000CE0101960E94D71190E0982F8827810FF5
:10258000911DDF91CF911F910895CF92DF92EF922D
:10259000FF920F931F93CF93DF936A017B01082F64
:1025A00010E0C801805B9F4F880F991F0E94B112F5
:1025B000BC01990F880B990B0E94F33620E030E0A4
:1025C0004AE754E40E94A439A70196010E945237B9
:1025D0006B017C0182E191E00E94D7119AE0899F12
:1025E000B0011124072E000C880B990B0E94F336C2
:1025F000A70196010E94C1386B017C0120E030E008
:102600004AEF53E40E94B23AC4EFD1E018168CF4BA
:1026100020E030E44CE155E4C701B6010E94EC36FD
:10262000C4ECD9E087FF05C0C701B6010E94163A85
:10263000EB01C8010E94D711AE01682F87E297E035
:10264000DF91CF911F910F91FF90EF90DF90CF908E
:102650000C94640D90E0C096880F991F860F911D11
:10266000880F991F0C94B1127F928F929F92AF9214
:10267000BF92CF92DF92EF92FF920F931F93CF936F
:10268000DF93B82E6A01D62FC72F60E00E942A136D
:10269000BC01990F880B990B0E94F3367B018C01CA
:1026A00061E08B2D0E942A13BC01990F880B990BB6
:1026B0000E94F336762E872E982EA92E96014D2F46
:1026C0005C2F0E94EC3687FF71C0772D682D992D05
:1026D0008A2D272F362F492F582FB701C8010E9466
:1026E000B23A181694F096014D2F5C2F672D782D75
:1026F000892D9A2D0E94EC3676010D2F1C2F87FF15
:1027000004C0E72CF82C092D1A2DCB2DD0E06E013A
:1027100080E3C80ED11CCC0FDD1FC45FDE4FB701B4
:10272000C8010E94163A79836883C601880F991FF1
:102730000E94B112EC01C6010E94D711682F880FC8
:10274000770B880B990B0E94F3369701A8010E9422
:1027500052376B017C01BE01DD0F880B990B0E9483
:10276000F3369B01AC01C701B6010E94C1380E943B
:10277000163A072E000C880B990B0E94F33620E0C6
:1027800030E0A9010E94C138AB01BC018B2DDF9163
:10279000CF911F910F91FF90EF90DF90CF90BF905E
:1027A000AF909F908F907F900C94C5127C2D6D2DD3
:1027B000CE018FCF0F931F93CF938C01005E1F4FDD
:1027C000CFE0F801729162918F01072E000C880B07
:1027D000990B0E94F336AB01BC018C2F0E9434137D
:1027E000C15078F7CF911F910F9108952F923F928A
:1027F0004F925F926F927F928F929F92AF92BF9211
:10280000CF92DF92EF92FF920F931F93CF93DF93BC
:10281000CDB7DEB72E970FB6F894DEBF0FBECDBF93
:10282000182F092F6A017B0120E030E0A901CB01BC
:10283000B6010E94EC361816E4F0812F902F2E96E8
:102840000FB6F894DEBF0FBECDBFDF91CF911F91C1
:102850000F91FF90EF90DF90CF90BF90AF909F903F
:102860008F907F906F905F904F903F902F900C943F
:10287000DA1380E290E00E948C345C017091FD04D8
:102880009090FC042CE031E0DC01612E702E512C84
:10289000412C60E0772329F0643018F44BE694165D
:1028A000A1F0F90180819181F30140815181841B64
:1028B000950B11969C938E9397FF03C091958195EC
:1028C0009109481659060CF42C016F5F2E5F3F4F9B
:1028D000F2E06F0E711C12966031E1F620E030E0FC
:1028E000A901C701B6010E94B23A18160CF0BCC08B
:1028F000B201550C880B990B0E94F336A701960183
:102900000E94A4396B017C0120E030E0A9010E9403
:10291000B23A20E030E040E05FE387FDA0C0C701AD
:10292000B6010E94C1380E94163A7E876D87D12C6D
:10293000C12C2D853E85032E000C440B550B298799
:102940003A874B875C874D855E854C155D050CF499
:102950008EC01501812E902EF12CC6010D2C000C7D
:10296000AA0BBB0B8D839E83AF83B8878091FD0438
:10297000882341F093E09F1528F08091FC048B366A
:1029800009F45FC0D4016D917C91072E000C880B77
:10299000990B0E94F3362B013C01ED85FE8520E06A
:1029A00030E0A901EF2B09F443C06D817E818F8156
:1029B00098850E94F3362BED3FE049E450E40E94F5
:1029C000523769837A838B839C8369857A858B856B
:1029D0009C850E94F3369B01AC0169817A818B81D1
:1029E0009C810E94A4390E949F3920E030E040E899
:1029F0005FE30E94C13820E030E040E05FE30E94E6
:102A0000523769837A838B839C83D1016D917C914A
:102A1000072E000C880B990B0E94F3369B01AC012A
:102A200069817A818B819C810E9452379B01AC0124
:102A3000C301B2010E94C138AB01BC018F2D0E94BD
:102A40003413F394B2E08B0E911CE2E02E0E311C95
:102A5000F0E1FF128BCF2FEFC21AD20A74CFC70159
:102A6000B6010E94C0385FCF1E861D8660CFA114BC
:102A7000B104D9F0C5012E960FB6F894DEBF0FBE93
:102A8000CDBFDF91CF911F910F91FF90EF90DF901D
:102A9000CF90BF90AF909F908F907F906F905F90FE
:102AA0004F903F902F900C9428352E960FB6F894A7
:102AB000DEBF0FBECDBFDF91CF911F910F91FF9071
:102AC000EF90DF90CF90BF90AF909F908F907F90CE
:102AD0006F905F904F903F902F9008952F923F926C
:102AE0004F925F926F927F928F929F92AF92BF921E
:102AF000CF92DF92EF92FF920F931F93CF93DF93CA
:102B0000CDB7DEB72F970FB6F894DEBF0FBECDBF9F
:102B10004C016D8369017A01202F30E03A832983CB
:102B200020E030E0A901C701B6010E94EC3618167A
:102B3000ECF01FE0812F012E000C990B69817A8146
:102B4000861797070CF453C1880D991DDC016C9111
:102B5000062E000C770B880B990B0E94F336AB0105
:102B6000BC01812F0E9434131150E4CF80E190E02A
:102B7000E981FA818E1B9F0B8115F0E49F0708F015
:102B800047C0880F991F009709F445C00E948C34F4
:102B90003C01B090FD04A090FC0429813A81220FF1
:102BA000331F1301D401102F50E040E0512C412C71
:102BB0001031A0F5BB2029F0143018F46BE6A616EE
:102BC000F9F0CA01820F931F845F9E4F7C916D8143
:102BD0007603F0011124FC83EB83FC018081918159
:102BE0006B817C81861B970BF1019183808397FF1A
:102BF00003C0919581959109481659060CF42C0152
:102C00001F5F1196F2E02F0E311C4E5F5F4FD0CF49
:102C10008FEF9FEFBBCF81E090E0B8CF20E030E0B6
:102C2000A901C701B6010E94B23A18160CF0BAC049
:102C3000B201550C880B990B0E94F336A70196013F
:102C40000E94A4396B017C0120E030E0A9010E94C0
:102C5000B23A20E030E040E05FE387FD9EC0C7016C
:102C6000B6010E94C1380E94163A7F876E87B12C48
:102C7000A12C6E857F85072E000C880B990B6A8727
:102C80007B878C879D878E859F858A159B050CF495
:102C900090C07C826B829A828982102FB5010B2CA6
:102CA000000C880B990B6E837F838887998710317E
:102CB00008F07BC08091FD04882339F0143028F49B
:102CC0008091FC048B3609F45BC0A981BA816C91B8
:102CD0002D816203B0011124072E000C880B990B83
:102CE0000E94F3366B017C016E857F8520E030E029
:102CF000A901672BE1F16E817F81888599850E940A
:102D0000F3362BED3FE049E450E40E9452371B01BB
:102D10002C016A857B858C859D850E94F3369B01FD
:102D2000AC01C201B1010E94A4390E949F3920E088
:102D300030E040E85FE30E94C13820E030E040E04E
:102D40005FE30E9452371B012C01AB81BC816D9166
:102D50007C91072E000C880B990B0E94F3369B0187
:102D6000AC01C201B1010E9452379B01AC01C70105
:102D7000B6010E94C138AB01BC01812F0E943413FF
:102D80001F5FE981FA813196FA83E9832B813C81C7
:102D90002E5F3F4F3C832B838ACFC701B6010E9431
:102DA000C03861CF1F861E8662CF3FEFA31AB30AD9
:102DB0006ACF61147104D9F0C3012F960FB6F8944D
:102DC000DEBF0FBECDBFDF91CF911F910F91FF905E
:102DD000EF90DF90CF90BF90AF909F908F907F90BB
:102DE0006F905F904F903F902F900C9428352F96C6
:102DF0000FB6F894DEBF0FBECDBFDF91CF911F910C
:102E00000F91FF90EF90DF90CF90BF90AF909F9089
:102E10008F907F906F905F904F903F902F9008958C
:102E20008F929F92AF92BF92CF92DF92EF92FF92DA
:102E30000F931F93CF93DF93CDB7DEB72B970FB6CA
:102E4000F894DEBF0FBECDBF6C01FC0101900020E5
:102E5000E9F73297F0808CE4F81631F092E587EECE
:102E6000F91619F080E001C089E180930305C601DD
:102E70000E94D9118C018F3F980709F408C20E9463
:102E8000D711A82EC80102960E94B112E82EB92EC1
:102E9000082F192FB601CE0101960E94A83DF9E432
:102EA000AF1254C084E50E9475076B2D89E196E04E
:102EB0000E94BF0B6E2D89E196E00E94BF0B89E155
:102EC00096E00E94EE0B61E084E50E94A00A109259
:102ED00023038093220389E196E00E947F0B809375
:102EE0002803809304050E947F078C01B12CA12C3C
:102EF000101611060CF03EC0602F0F3111050CF0BA
:102F00006EE184E50E94A00AE82E109223038093CC
:102F1000220348018EE1881A9108680180912303F9
:102F2000E81659F089E196E00E947F0B9FEFA91AFD
:102F3000B90AF501E85DFC4F8083E1E0CE1AD108C3
:102F4000C9F08401C814D90449F7D2CF809104058F
:102F50000E947F07A8E2B3E008521340F801EA0F8D
:102F6000FB1F9D0128523340281739071CF4E491B8
:102F7000ED93F4CF80912903082E000C990B9093C8
:102F80000C0580930B051092210380912A03082ED3
:102F9000000C990B90930E0580930D051092200361
:102FA00080912B0380930F051091040517FF11C02A
:102FB00080912C038093100580912D03809311053F
:102FC00080912E038093120580E090E0A0E0BFE3A3
:102FD00006C080E090E0A0E8BFE31130A9F780933D
:102FE0001B0390931C03A0931D03B0931E0380E06A
:102FF00012300CF088E080931305212F012E000C75
:10300000330B37FF03C031952195310940910A05F3
:10301000429FC001439F900D112422ED31E0281BF7
:10302000390B30930B0120930A0160910905680F59
:10303000792F711D28E233E050E040E0F901E60FFE
:10304000F71FA081F901ED52FE4FA0834F5F5F4F44
:1030500021503109841795078CF72EE72093FB0444
:103060002BEF34E0281B390B309315052093140502
:10307000BE016F5F7F4F88E293E00E94A83D61E848
:1030800071E088E293E00E949F3D892B09F4D4C04F
:1030900080E090E0A0E0B0E4809305059093060501
:1030A000A0930705B093080565E871E088E293E016
:1030B0000E949F3D892B09F4C3C0113009F0C0C0A4
:1030C0000E94FD3524E630E040E050E00E942638C2
:1030D0000E94F33620E030E040E251E40E94A4393F
:1030E00020E030E040EA50E40E94C0384B015C012F
:1030F0008092240390922503A0922603B092270386
:1031000010E000E0C0901405D0901505C00ED11E4F
:10311000F6016081062E000C770B880B990B0E943C
:10312000F336A50194010E94C1380E94163AF601B7
:1031300060830F5F1F4F0031110521F7F2E5FF1289
:1031400083C080910B0590910C0591958195910913
:1031500090930C0580930B0590E080E0409104056E
:10316000242F042E000C330B37FF03C0319521951B
:103170003109821793070CF074C042301CF540915E
:103180000A05489F9001499F300D1124E0911405D4
:10319000F0911505E20FF31F2081219520832091E6
:1031A0000A05289FF001299FF00D11249F012E5F31
:1031B0003F4FE0911405F0911505E20FF31F2081B8
:1031C000219520832091040560E022300CF462E018
:1031D000E62FF0E02091040522300CF46BC024E0CF
:1031E00030E04091140550911505E217F3070CF0FB
:1031F00064C09F01220F331F70910A05789FF00170
:10320000799FF00D1124E20FF31FE40FF51F4081A9
:103210005181508350910A05589FD001599FB00D9C
:103220001124E0911405F0911505E20FF31FEA0F48
:10323000FB1F41836F5FCCCF80E090E0DC012CCF9F
:10324000812C912C540154CF8CE4F81651F00E943B
:10325000FD3524E630E040E050E00E94263860FD75
:1032600070CF1092FF041092FE042091050530915A
:1032700006054091070550910805009113056091DE
:103280000F0580911405909115050E946E152B96DF
:103290000FB6F894DEBF0FBECDBFDF91CF911F9167
:1032A0000F91FF90EF90DF90CF90BF90AF909F90E5
:1032B0008F90089528E030E094CF01964FCF0F9380
:1032C0001F93CF93DF93EC018B010E9410380817F6
:1032D00021F0602FCE010E9418382196CE010E9465
:1032E0001038181721F0612FCE010E94183866E0BF
:1032F00070E080E090E0DF91CF911F910F910C94EE
:10330000FB090F931F93CF93DF93EC018881998181
:10331000009759F02A813B812617370730F081E06A
:10332000DF91CF911F910F9108958B016F5F7F4FB8
:103330000E94C43C009759F0998388831B830A83B9
:103340002C813D81232B59F7FC011082E8CF80E0CE
:10335000E7CFEF92FF920F931F93CF93DF93611507
:10336000710541F480E0DF91CF911F910F91FF90A3
:10337000EF90089541155105B1F07B01EC010C81EE
:103380001D81040F151FB8010E948119882351F374
:10339000288139818C819D81B701820F931F0E9402
:1033A000A83D1D830C8381E0DECFEF92FF920F9347
:1033B0001F93CF93DF93EC017B018A01BA010E9436
:1033C000811981110BC0CE010E94BD11CE01DF9188
:1033D000CF911F910F91FF90EF9008951D830C8363
:1033E000B701888199810E94A83DF0CFFB01DC01E3
:1033F00011961C921E9213961C921E92129715966D
:103400001C921E9214978617970759F0608171815C
:103410006115710521F0448155810C94D5190C94E6
:10342000BD110895FB0101900020E9F73197AF012C
:10343000461B570B0C94D5190F931F93CF93DF9313
:10344000CDB7DEB762970FB6F894DEBF0FBECDBF23
:103450008C01CB01F8011182108213821282158235
:1034600014824AE0BE016F5F7F4F0E94AF36BE01FB
:103470006F5F7F4FC8010E94121A62960FB6F894D0
:10348000DEBF0FBECDBFDF91CF911F910F91089589
:10349000FC01118210821382128215821482FB01B8
:1034A00001900020E9F73197AF01461B570B0C94B0
:1034B000D519EF92FF920F931F93CF93DF93EC01F7
:1034C0008B01198218821B821A821D821C82CB01F9
:1034D0000E947A367C01BC01CE010E9481198111C3
:1034E00009C0CE01DF91CF911F910F91FF90EF9016
:1034F0000C94BD11FD82EC82B80188819981DF9125
:10350000CF911F910F91FF90EF900C94733685ED42
:103510008093BC0080915E0590915F05A09160054D
:10352000B09161050796A11DB11D23E0B695A79541
:10353000979587952A95D1F72091BC0024FD03C06B
:1035400010925C05089540915E0550915F05609171
:10355000600570916105452B462B472B69F3009759
:10356000A105B10541F02AE22A95F1F700C00197C3
:10357000A109B109E1CF80915D050C947F0A4F92BA
:103580005F926F927F928F929F92AF92BF92CF92F3
:10359000DF92EF92FF920F931F93CF93DF93CDB7FC
:1035A000DEB7E8970FB6F894DEBF0FBECDBF8090B0
:1035B0002507909026070E94D6092B013C01540153
:1035C000BB240E94550E6C01A816B9060CF057C01A
:1035D000893C910584F121E042E06AE6809114077C
:1035E0000E946E0E0E94550E6C01892B09F04BC093
:1035F0000E94D6096419750986099709693F7A42BC
:103600008105910578F380E0E8960FB6F894DEBF67
:103610000FBECDBFDF91CF911F910F91FF90EF9023
:10362000DF90CF90BF90AF909F908F907F906F90E2
:103630005F904F9008950E94550E6C01A816B90630
:10364000F4F47C01EA18FB08670181E2E816F10452
:103650001CF080E2C82ED12CCC2079F008EE13E0CB
:103660009E012F5F3F4F4C2D64E7809114070E940D
:10367000AE0DEC18FD0841F7DECF1982FACFC11468
:10368000D10409F4C0CF0E94D609641975098609CE
:103690009709693F7A428105910508F0B4CFAC14CF
:1036A000BD0409F08ECF882009F403C208EE13E0B0
:1036B00022EC31E0482D64E7809114070E94AE0DA2
:1036C0006090C6017090C7017624672476248090AC
:1036D000CA019090CB01982489249824A090CE010F
:1036E000B090CF01BA24AB24BA246091C20170918A
:1036F000C301762767277627072E000C880B990BC6
:103700000E94F33620E030E040E858E30E94523750
:103710006B017C01C0920407D0920507E092060776
:10372000F0920707B301770C880B990B0E94F336D0
:1037300020E030E040E858E30E9452372B013C0182
:10374000409208075092090760920A0770920B078F
:10375000B401990C880B990B0E94F33620E030E0FD
:1037600040E858E30E94523769A37AA38BA39CA335
:1037700060930C0770930D0780930E0790930F07CB
:10378000B501BB0C880B990B0E94F33620E030E0AA
:1037900040E858E30E9452376DA37EA38FA398A7F9
:1037A000609310077093110780931207909313078B
:1037B0009B01AC01C301B2010E9452374B015C0175
:1037C00029A13AA14BA15CA1C701B6010E945237C1
:1037D0009B01AC01C501B4010E94C0389B01AC0142
:1037E0000E94C1386DA77EA78FA798AB6093F8069B
:1037F0007093F9068093FA069093FB06A301920159
:10380000C701B6010E9452374B015C012DA13EA1B8
:103810004FA158A569A17AA18BA19CA10E94523702
:103820009B01AC01C501B4010E94C1389B01AC01F0
:103830000E94C13869A77AA78BA79CA76093FC0652
:103840007093FD068093FE069093FF06A7019601F4
:10385000C701B6010E9452374B015C01A3019201DE
:10386000C301B2010E9452379B01AC01C501B401F2
:103870000E94C0384B015C0129A13AA14BA15CA177
:10388000CA01B9010E9452379B01AC01C501B401C4
:103890000E94C0384B015C012DA13EA14FA158A54B
:1038A000CA01B9010E9452379B01AC01C501B401A4
:1038B0000E94C1384B015C01809200079092010781
:1038C000A0920207B0920307A7019601C701B601B3
:1038D0000E94C13869AB7AAB8BAB9CABA301920160
:1038E000C301B2010E94C1386DAB7EAB8FAB98AF04
:1038F000A701960169A97AA98BA99CA90E945237B0
:103900006B017C01A30192016DA97EA98FA998ADDD
:103910000E9452379B01AC01C701B6010E94C13819
:1039200020E030E040E85FE30E94C0386B017C019A
:1039300029A13AA14BA15CA16DA97EA98FA998AD3F
:103940000E9452372B013C012DA13EA14FA158A549
:1039500069A97AA98BA99CA90E9452379B01AC0145
:10396000C301B2010E94C038A70196010E944039EC
:103970006093A3027093A4028093A5029093A60281
:1039800029A53AA54BA55CA5CA01B9010E945237E9
:103990006B017C01A5019401C501B4010E9452375D
:1039A0009B01AC01C701B6010E94C1380E941D3BBA
:1039B0009B01AC016DA57EA58FA598A90E944039F9
:1039C0006B017C01C092A702D092A802E092A902EA
:1039D000F092AA02A501940169A57AA58BA59CA5E0
:1039E0000E9440396093AB027093AC028093AD02A9
:1039F0009093AE0220E030E0A901C501B4010E941D
:103A0000EC3687FF1AC020E030E0A901C701B601FB
:103A10000E94B23AA701960118160CF04DC06BED4A
:103A20007FE089E490E40E94C0386093A70270931D
:103A3000A8028093A9029093AA0203EA12E0F80177
:103A400061917191819191918F017F01F4E0EF1A61
:103A5000F10820EE3EE245E652E40E945237D701DB
:103A60006D937D938D939C931397B2E00F3A1B0750
:103A700031F78091170381110E948D116091AB0283
:103A80007091AC028091AD029091AE029F7701E0FF
:103A900010E020E030E044EB52E40E94B23A181605
:103AA00014F010E000E01093B0020093AF0281E048
:103AB000ABCD1092C20104CE6BED7FE089E490ECB7
:103AC000B2CF2F923F924F925F926F927F928F92DE
:103AD0009F92AF92BF92CF92DF92EF92FF920F939D
:103AE0001F93CF93DF93CDB7DEB766970FB6F894E9
:103AF000DEBF0FBECDBF69877A878B879C872D87F6
:103B00003E874F87588BC801EE8A10E088248A943C
:103B1000982C540168E4462E68EE562E6624639471
:103B2000712C05E072EA272E71E0372E9C01990F67
:103B3000440B550B298B3A8B4B8B5C8B6D857E85AB
:103B40008F8598890E941D3A6D837E838F83988725
:103B500020E030E0A90169857A858B859C850E94EB
:103B6000EC36882309F499C129853A854B855C8513
:103B700063E67CE987E89FE30E94BF3A20E030EDEE
:103B800042E854E40E9452370E941D3A6B01809132
:103B90000001853009F06AC0E9EDF1E0F491FD8B98
:103BA000F7FDD9C161E085E00E94A509FD89FF23E9
:103BB00021F02D89223009F024C1F12CE12C60E0A4
:103BC00072E18AE790E0A70196010E9426382983D6
:103BD0003A834B835C83DA01C9010197A109B109DA
:103BE0008F3F9105A105B10509F00CF4F0C060E428
:103BF00072E48FE090E0A70196010E9426382150E0
:103C00003109410951098D89823009F0A2C082E051
:103C10002F3F31054105510509F00CF48CC160E9D5
:103C200070ED83E090E0A70196010E9426382150B4
:103C300031094109510983E02F3F31054105510503
:103C400009F00CF478C1C301B201A70196010E94EA
:103C5000263821503109410951092F3F31054105CD
:103C6000510511F00CF092C084E065C18F3F09F05E
:103C700072C100930001E9EDF1E0F491FD8BFF3F8B
:103C800009F469C1F13029F158F0F23009F43FC06C
:103C90003D8937FD60C161E085E00E94A50989CFBB
:103CA00014BC15BC84B5826084BD85B5816085BDBA
:103CB000F1018491E82FF0E0EE0FFF1FED56FE4F6B
:103CC00085919491E6EBF1E084918093B9011D8A8E
:103CD00069CF1092800010928100809181008860ED
:103CE0008093810080918100816080938100F10147
:103CF0008491E82FF0E0EE0FFF1FED56FE4F859107
:103D00009491E6EBF1E084918093B8014BCF10924F
:103D1000B0001092B1008091B00082608093B0003A
:103D20008091B10081608093B100F1018491E82F0E
:103D3000F0E0EE0FFF1FED56FE4F859194919093AA
:103D4000700280936F02E6EBF1E084918093710240
:103D500029CF2F3F31054105510509F00CF44FC023
:103D6000C301B201A70196010E94263821503109F2
:103D7000410951099D89992309F4AFC02F3F3105AD
:103D80004105510511F00CF0B0C06ECF64E274EF44
:103D900080E090E0A70196010E9426382150310969
:103DA0004109510985E02F3F31054105510509F0D1
:103DB00008F4C1C062E17AE780E090E0A7019601D3
:103DC0000E94263821503109410951099DC09C01AA
:103DD00081E0FD89F111AFC095B5987F892B85BD34
:103DE00027BD8092BE019092BF01A092C001B09207
:103DF000C10180916E00826080936E00ACC082E051
:103E0000E8CFF12CE12C60E072E18AE790E0A701B5
:103E100096010E942638215031094109510991E04B
:103E20002115310581E0480751055CF0C301B2015D
:103E3000A70196010E9426382150310941095109F4
:103E400093E0ED89E13009F07CC080918100887FAA
:103E5000892B809381003093890020938800809281
:103E6000BA019092BB01A092BC01B092BD018091B9
:103E70006F00826080936F006EC02093B3008092C9
:103E8000720290927302A0927402B09275028091B5
:103E900070008260809370005EC06D817E818F8132
:103EA00098850E94FB0957C084E02F3F31054105EA
:103EB000510509F008F490CF29813A814B815C814A
:103EC0008AE055954795379527958A95D1F72150E2
:103ED00031094109510985E07FCF83E02F3F31054A
:103EE0004105510509F00CF477CF62E17AE780E0F3
:103EF00090E0A70196010E9426382150310941091E
:103F00005109ED89EE2381F286E02F3F310541050D
:103F1000510589F080F029813A814B815C819AE0DA
:103F200055954795379527959A95D1F721503109A1
:103F30004109510987E09091B100987F892B8093C6
:103F4000B100FD89F13009F486CFF23009F495CF44
:103F5000FF2309F445CF6D817E818F8198850E9472
:103F6000FB0985E00E94790969897A898B899C8996
:103F70000E94FB091F5F2E892113E0CD66960FB6C4
:103F8000F894DEBF0FBECDBFDF91CF911F910F918F
:103F9000FF90EF90DF90CF90BF90AF909F908F9069
:103FA0007F906F905F904F903F902F9008954F9229
:103FB0005F926F927F928F929F92AF92BF92CF92B9
:103FC000DF92EF920F931F93CF93DF93D82E192F89
:103FD0000E94D7118695CD2DD12FB12CA12CC82EA2
:103FE000D12C88EE882E83E0982E2197AC14BD0446
:103FF0004CF5CE018C199D090E94D711782ECE0167
:104000000E94D711182F672D70E0C4010E94873CD1
:10401000072E000C880B990B0E94F3362B013C01F4
:10402000612F70E090E080E00E94F136EE24E3948E
:1040300010E000E0A30192010E94611D8FEFA81A19
:10404000B80AD3CFDF91CF911F910F91EF90DF90FE
:10405000CF90BF90AF909F908F907F906F905F9028
:104060004F9008951F920F920FB60F9211242F9325
:104070003F934F935F936F937F938F939F93AF93F0
:10408000BF93EF93FF938091720290917302A0917E
:104090007402B0917502892B8A2B8B2BD1F19091F0
:1040A0007102E0916F02F091700280818927808314
:1040B0008091720290917302A0917402B091750286
:1040C000181619061A061B069CF48091720290912C
:1040D0007302A0917402B09175020197A109B10910
:1040E0008093720290937302A0937402B09375024E
:1040F000FF91EF91BF91AF919F918F917F916F91C0
:104100005F914F913F912F910F900FBE0F901F9095
:104110001895809100010E947909EACF1F920F92B1
:104120000FB60F9211242F933F934F935F936F938A
:104130007F938F939F93AF93BF93EF93FF9386E605
:1041400095E00E947308FF91EF91BF91AF919F910D
:104150008F917F916F915F914F913F912F910F9030
:104160000FBE0F901F9018951F920F920FB60F92CF
:1041700011242F938F939F93EF93FF93E0917605F4
:10418000F09177058081E0917C05F0917D0582FDBD
:104190001BC0908180917F058F5F8F732091800578
:1041A000821741F0E0917F05F0E0EA59FA4F958FD0
:1041B00080937F05FF91EF919F918F912F910F90A9
:1041C0000FBE0F901F9018958081F4CF1F920F9211
:1041D0000FB60F9211242F933F938F939F93AF931A
:1041E000BF938091670290916802A0916902B0919B
:1041F0006A023091660223E0230F2D3758F50196AD
:10420000A11DB11D209366028093670290936802FE
:10421000A0936902B0936A0280916B0290916C0244
:10422000A0916D02B0916E020196A11DB11D809307
:104230006B0290936C02A0936D02B0936E02BF91DB
:10424000AF919F918F913F912F910F900FBE0F9043
:104250001F90189526E8230F0296A11DB11DD2CFFD
:104260001F920F920FB60F9211242F933F934F93EB
:104270005F936F937F938F939F93AF93BF93EF93CE
:10428000FF938091B900887F803609F44AC0F0F529
:10429000883209F4A7C018F5803109F49BC0B8F43E
:1042A000882309F4F9C0883009F494C0FF91EF9194
:1042B000BF91AF919F918F917F916F915F914F913E
:1042C0003F912F910F900FBE0F901F90189588313E
:1042D00009F488C0803251F780933A0514C08034C5
:1042E00009F49DC040F48033B9F38833F9F6809324
:1042F0003A0585ECB0C0803509F485C0883509F4ED
:1043000096C0883499F60E94871AD0CF883909F46C
:104310008CC038F5883729F050F4883611F0803792
:1043200029F683E080935C051092650257C08838B7
:1043300009F47BC0803919F0803809F0B7CF80913B
:104340006502803208F071C0E091650281E08E0F55
:10435000809365028091BB00F0E0EB5BFD4F8083B2
:104360003DC0803B39F0E0F4803A09F479C0883AE6
:1043700009F09CCF84E080935C0510924402109277
:104380004302E0917902F0917A020995809143020B
:1043900081110FC081E0809343021092230209C073
:1043A000803C09F4A6CF883C09F4A3CF883B09F0F0
:1043B0007DCFE091440281E08E0F80934402F0E0D3
:1043C000ED5DFD4F80818093BB0090914402809110
:1043D000430229C0809137058093BB0085EC809310
:1043E000BC0064CF9091390580913805981758F535
:1043F000E091390581E08E0F80933905F0E0EA5EA7
:10440000FA4F8081E9CFE091390581E08E0F8093EA
:1044100039058091BB00F0E0EA5EFA4F808390910D
:104420003905809138059817C8F285E8D8CFE09112
:10443000390581E08E0F809339058091BB00F0E053
:10444000EA5EFA4F808380913B0581115CCF81E069
:104450008093360584EA8093BC0010925C0526CFD9
:1044600085EC8093BC0010925C05809165028032DF
:1044700030F4E0916502F0E0EB5BFD4F108260915B
:10448000650270E0E0917702F091780285E492E0B5
:104490000995109265020ACF10923A0534CF1F9207
:1044A0000F920FB60F9211242F933F934F935F9368
:1044B0006F937F938F939F93AF93BF93CF93DF932C
:1044C000EF93FF932091260630E0F901EB53FE4F66
:1044D0008491F901EF54FE4FD491F901E356FE4F58
:1044E000C491CC2379F081110E942209EC2FF0E0D5
:1044F000EE0FFF1FE158FE4FA591B491EC91ED2313
:1045000081E009F480E020912B0630912C062F5F8A
:104510003F4F30932C0620932B0620912906309193
:104520002A062536310518F094E0909325069091DF
:104530002506911130C0811169C020912B06309160
:104540002C062436310528F410922C0610922B06E6
:104550005DC01092F70610922A061092290620914B
:10456000290630912A06A9014F5F5F4F50932A0612
:104570004093290640912B0650912C06220F331FA1
:10458000F901E35DF94F5183408310922C0610929C
:104590002B0691E021C090912506913001F58130E4
:1045A000A9F52091290630912A06A9014F5F5F4F96
:1045B00050932A064093290640912B0650912C06D1
:1045C000220F331FF901E35DF94F518340831092AD
:1045D0002C0610922B0692E09093250617C090911E
:1045E0002506923061F4882309F4B9CF20912B0677
:1045F00030912C062536310548F093E0EDCF9091AF
:104600002506933099F4882309F49ECF90912806CB
:104610009923A9F0811126C080912706882371F083
:104620008091270661E00E944B0909C09091250600
:10463000943061F791E09093F706DFCF2D9AFF91C8
:10464000EF91DF91CF91BF91AF919F918F917F912A
:104650006F915F914F913F912F910F900FBE0F90EF
:104660001F90189580912706882321F080912706B6
:1046700060E0D9CF2D98E3CFCF93DF93E6E6F5E066
:104680001382128288EE93E0A0E0B0E084839583E9
:10469000A683B78325E431E03183208325EC30E025
:1046A0003587248724EC30E03787268720EC30E0FC
:1046B000318B208B21EC30E0338B228B22EC30E0ED
:1046C000358B248B26EC30E0378B268B118E128EA7
:1046D000138E148EC9E1D6E01B821A828C839D83CF
:1046E000AE83BF8387E591E099838883E3E0F6E0BA
:1046F00089E691E091838083D383C2838FEF9FEF1C
:1047000095838483168217821086118613861286FB
:104710001586148617861686118A108A24E130E0E1
:10472000338B228B958B848BE5E2F6E084E08183EA
:1047300013826BE871E08EE397E00E94481AEDE285
:10474000F7E081E1DF011D928A95E9F7E7E2F7E002
:1047500080E48083D283C18388E680931407E4E0F9
:10476000F7E080E090E0A0E8BFE380839183A2833C
:10477000B3831482158216821782108611861286E0
:1047800013861486158616861786E8EFF6E01082E3
:104790001182128213821482158216821782108669
:1047A000118612861386DF91CF910895CF93DF9300
:1047B000CDB7DEB7C454D1090FB6F894DEBF0FBE33
:1047C000CDBF789484B5826084BD84B5816084BD9A
:1047D00085B5826085BD85B5816085BD80916E009F
:1047E000816080936E0010928100809181008260D0
:1047F000809381008091810081608093810080910D
:1048000080008160809380008091B10084608093FB
:10481000B1008091B00081608093B00080917A00F7
:10482000846080937A0080917A00826080937A001D
:1048300080917A00816080937A0080917A0080680C
:1048400080937A001092C100E0917605F09177058F
:1048500082E08083E0917205F09173051082E0910F
:104860007405F091750580E1808310927E05E091DA
:104870007A05F0917B0586E08083E0917805F091E0
:104880007905808180618083E0917805F0917905D8
:10489000808188608083E0917805F091790580813E
:1048A00080688083E0917805F091790580818F7D23
:1048B000808385E090E0A0E0B0E080936A0590936B
:1048C0006B05A0936C05B0936D05109223031092B5
:1048D000220310926305109262050E94610A83EF21
:1048E00097E090937A028093790284EF97E0909317
:1048F00078028093770288E08093B800EE24E394F6
:1049000010E000E020E030E048E452E460E070E0D5
:1049100080EA91E40E94611D8BE60E94321085E0DE
:104920009EE00E9426108EEF9DE00E94261085EFEB
:104930009DE00E9426108AE191E00E94D711882311
:1049400021F08FEF93E00E94D71F88E198E20FB625
:10495000F894A895809360000FBE9093600064E681
:1049600070E080E090E00E94FB098DED9DE00E94E8
:10497000261001E023E042E06BE6809114070E94DC
:10498000A10E00E022E044E06BE1809114070E9458
:10499000A10E22E044E06CE1809114070E94A10E78
:1049A00020E046E06BE6809114070E946E0E08EE50
:1049B00013E09E012F5F3F4F41E065E780911407B0
:1049C0000E94AE0D882339F089818E7790E095950D
:1049D00087958093150780911507843319F08C30E3
:1049E00009F0BDCF33243394612C7724739439A21A
:1049F00021E047E06BE6809114070E946E0E64E6AA
:104A000070E080E090E00E94FB0987E089A307E066
:104A100023E042E06AE6809114070E94A10E64E65A
:104A200070E080E090E00E94FB0939A29E012F5DBA
:104A30003F4F41E06BE6809114070E94FA0C19A2E7
:104A40009E012F5D3F4F41E068E3809114070E9473
:104A5000FA0C19A29E012F5D3F4F41E063E2809165
:104A600014070E94FA0C19A29E012F5D3F4F41E0EE
:104A70006CE1809114070E94FA0C20E829A39E01A2
:104A80002F5D3F4F41E067E3809114070E94FA0CCD
:104A900039A29E012F5D3F4F41E06BE680911407E4
:104AA0000E94FA0C34E039A39E012F5D3F4F41E094
:104AB00069E1809114070E94FA0C39A29E012F5DD2
:104AC0003F4F41E06AE1809114070E94FA0C40E0F8
:104AD0006DE6809114070E94260D40E06EE68091FD
:104AE00014070E94260D80E190E00E948C345C0146
:104AF00080E190E00E948C342C01212CE12CD12CFF
:104B0000C12CC6014096873F9B40D8F096EFF92E06
:104B1000FC18C3018E199109F816190619F014F042
:104B2000FE2CF194D20190E080E0960126523E4F97
:104B30008F1550F4F901E80FF91FE491ED930196F8
:104B4000F7CF80E1F82EE5CF92014F2D6FE68091EF
:104B500014070E94FA0C8F2C912CA114B10409F4B3
:104B600045C1422D4F716DE6809114070E94260DBC
:104B70004E2D6EE6809114070E94260D08EE13E07C
:104B800095014F2D6FE6809114070E94AE0DA40190
:104B9000B501C2010E94893D892B09F427C1C501D5
:104BA0000E942835C2010E94283511E01093760238
:104BB00064E670E080E090E00E94FB09111117CFDD
:104BC0000FB6F894A895809160008861809360008A
:104BD000109260000FBEE12CFF24F394B12CC701AA
:104BE0000E94B1126C018091140762E06B1508F409
:104BF00017C108EE13E09E012F5F3F4F41E065E7CC
:104C00000E94AE0D882339F089818E7790E09595CA
:104C10008795809315078091150766E06E0D8833A0
:104C200020F06B2D660F6B0D695880911407D8AA80
:104C3000CFA6AE01415D5F4F0E94D50CB39472E0E8
:104C4000E70EF11C86E0B812CACF1091760211115E
:104C5000EFC021E047E06AE6809114070E946E0EE3
:104C600081EE9DE00E94E708B5E0EB2EB3E0FB2E5D
:104C700000E110E0C8010E94D711D7018D937D019A
:104C80000F5F1F4F00321105A9F7109223031092F6
:104C9000220310926305109262050E94610A83EF5D
:104CA00097E090937A028093790284EF97E0909353
:104CB00078028093770240E860E087E297E00E9404
:104CC000370D6AE070E080E090E00E94FB0940E070
:104CD00050E06AE774E487E297E00E94170F80E4EF
:104CE00098E7ADE7B1E080932A0790932B07A09354
:104CF0002C07B0932D0783E191E00E94B112092E99
:104D0000000CAA0BBB0B80937B0290937C02A093B8
:104D10007D02B0937E02885D9945A109B10985396C
:104D20009141A105B10560F088EA91E6A0E0B0E00C
:104D300080937B0290937C02A0937D02B0937E02CD
:104D400060917B0270917C0280917D0290917E0245
:104D50000E94F33620E030E04AE754E40E94A43990
:104D600042E00E94B5100E94221020917B023091F7
:104D70007C0240917D0250917E02A8EEB3E00E9439
:104D800045386B017C0140E050E060E773E487E266
:104D900097E00E94170FC0923007D0923107E0923F
:104DA0003207F0923307C0922A07D0922B07E09285
:104DB0002C07F0922D070E94A00D88EE9DE00E9426
:104DC000261090E080E08C010F5F1F4F805C9E4FAB
:104DD0000E94D711080F111DC801805C9E4F0E94D0
:104DE000D7118E34A1F1C8010496EDCFC80CD91C9F
:104DF00056EFC5165BE0D50610F00C943B34EF0C73
:104E000009F42394422D4F716DE6809114070E949E
:104E1000260D4E2D6EE6809114070E94260D71CE50
:104E2000DEA6CDA6AE01435D5F4F6DE06E0D04CFF3
:104E300080ED9DE00E94E708612F70E090E080E047
:104E40004AE00E94511089E20E94321009CF66E3C5
:104E500071E0C8018E5B9E4F0E945F1980919402A1
:104E60009091950285969093950280939402F89480
:104E70001092800089E08093810080E293E090931B
:104E8000890080938800109285001092840082E04F
:104E900080936F0078941092250610922A06109243
:104EA00029068091260660E00E94A50964E070E072
:104EB0008EE397E00E94811961E083E00E94A509DA
:104EC00012E30E94BF1A6AE070E080E090E00E9466
:104ED000FB091150B1F7C090AB02D090AC02E0904A
:104EE000AD02F090AE026091A7027091A80280918D
:104EF000A9029091AA029F7720E030E040EF51E4B0
:104F00000E94B23A181664F020E030E040EF51E41D
:104F1000C701B6019F770E94B23A18160CF045C13E
:104F200083E68093FC0482E080931A0320E030E45F
:104F30004CE156E4C701B6010E9452370E94163A6E
:104F4000072E000C880B990B6115710581059105E1
:104F500011F00E944C368CE091E00E94DA1364EF6D
:104F600071E080E090E00E94FB091092B1028EEEA9
:104F70009DE00E9426100E942E0A28E833E140E0BE
:104F800050E00E948F388091010190910201092E1A
:104F9000000CAA0BBB0B82179307A407B5070CF0F4
:104FA00059C0309302012093010187E480937C0073
:104FB00080917A00806480937A0080917A0086FDE7
:104FC000FCCF00917800109179000A38F2E01F07B9
:104FD000ECF580917F02909180028017910731F06B
:104FE0008091010190910201029784F580E19EE099
:104FF0000E94E708C80163E670E00E94873C6B01ED
:10500000072E000CEE08FF0877FFD1C08DE20E944A
:10501000E20866277727CB016C197D098E099F0965
:105020004AE00E94511086E50E9432108AE191E028
:105030000E94D711882321F081ED93E00E94D71FB1
:1050400060ED77E080E090E00E94FB091093800221
:1050500000937F0280910801882369F06091050127
:1050600070E08091FE049091FF040E94873C892BA0
:1050700011F40E94BF1A80910801882301F18091E8
:10508000AF029091B002892BD1F0A5E0EA2E09E1A0
:1050900010E020E030E048E452E460E070E080EAB4
:1050A00091E40E94611D8BE68093FC046EE871E040
:1050B00088E293E00E94A83D8FEF80931A038091CD
:1050C0009A028111AFC02DE236E030938F02209317
:1050D0008E028091290690912A06909391028093E6
:1050E00090028091F70690E0909393028093920251
:1050F00080912506833009F095C080912F0690910C
:105100003006875891098E35910508F085C0809149
:10511000290690912A06049709F04DC08091310626
:10512000909132068097479708F045C080913306EA
:105130009091340609970997F0F510928D0210921C
:105140008C024FEF5FEFBA014093860250938702C3
:10515000609388027093890283E090E090938302C9
:10516000809382028091860290918702A0918802AA
:10517000B0918902892F9A2FAB2FBB278A3509F46A
:10518000BCC208F073C2823209F49FC208F058C250
:10519000803109F4AFC208F006C26EE47EE08230CE
:1051A00009F409C261EB71E0B3C284E6BACE4AE009
:1051B000C701B60136CF8091290690912A06843422
:1051C000910550F1809131069091320681549109F8
:1051D0008F9710F590E080E040E050E0BA01FC01CC
:1051E000ED5CF94F20813181295031092930310599
:1051F00098F4FC01EB5CF94F208131812751310992
:105200002231310508F4B9C120813181265031099C
:105210002730310508F4C2C11092250610922A06E3
:105220001092290686E695E00E9453081816190682
:105230000CF075C081E080939A0286E695E00E94AA
:105240003108B82E8093FC04082E000C990B0E94A4
:10525000813D182F8093190382E080931A0361E047
:1052600070E080E090E00E94FB09BFEBBB0DBDAB9E
:10527000BA3108F00EC3EEE7E9AB0E942E0A2B010B
:105280003C012BE4B21621F085E090E0123611F4D7
:1052900088EC90E0A12EE894A2F86C01990FEE083A
:1052A000FF0886E695E00E945308892B09F40EC397
:1052B00000911503109116033BE6B31619F049E669
:1052C000A41207C080910A0190910B0108171907D9
:1052D0002CF4033D51E015070CF4DEC289E59EE095
:1052E0000E94261064EF71E080E090E00E94FB09CC
:1052F00086E695E00E94310886E695E00E94530814
:10530000892BB1F78091FC040E9432108BE68093C8
:10531000FC0468EA71E088E293E00E94A83D0E94E4
:105320002E0A10911A032FEF210F223008F0FFC22E
:105330000E942E0A6854744F8F4F9F4F60939602BD
:1053400070939702809398029093990210911A0398
:10535000112309F4AAC08091FC04082E000C990BBB
:105360000E94813DF82E809319031530B8F452E65F
:105370008517A1F0612F70E0615F7F4F072E000C51
:10538000880B990B0E94F336EE24E39410E000E0C2
:1053900020E030E040EA50E40E94611D8091090164
:1053A000882349F06BE6F61206C088EF9BE00E9466
:1053B000BA0F10920901809118038356823050F47D
:1053C0008091FC04833631F081E08093080187E40A
:1053D0000E9432108091FC04803751F080910701C7
:1053E000811106C081E08093070180E70E9432109E
:1053F0008091FC04843609F4AAC50CF013C38D34E3
:1054000009F41CC50CF0FCC2873409F476C3893456
:1054100009F414C58F3309F467C38091FC048B36FB
:1054200021F4909104051916CCF40E943210809159
:1054300018038B3699F48091FC048A3661F080372A
:1054400051F080911903873631F0982F9B7F993660
:1054500011F0863719F48BE68093FC041091FC045C
:105460001B3691F480912803882371F06EE871E077
:1054700088E293E00E949F3D892B31F068E273E05F
:1054800081EB92E00E94A83D10921A03109318033A
:105490001B3629F01356123010F01092FC041092B3
:1054A000280310921603109215038091FC048B368A
:1054B00011F00C941B332090040527FEF2C5809157
:1054C0001205FF24FA94F80E823008F4F12C10E053
:1054D000212F30E080910405082E000C990B97FFD6
:1054E00003C09195819591092817390714F00C9400
:1054F000E632C0901405D090150580910A05189FDA
:10550000C00CD11C1124D60150966C91062E000CB3
:10551000770B880B990B0E94F33620E030E040E8CF
:105520005EE30E9452379B01AC0100E060910F05E1
:10553000C6010E946E15A0911405B09115058091C9
:105540000A05189FA00DB11D112452962C91529757
:10555000211111C580910A05E0911405F0911505FE
:10556000189FE00DF11D1124618916160CF47FC5FA
:10557000EEEC6E02B00111247EC5440F551F661F6C
:10558000771F416004968038910509F028CE80E2AB
:1055900090E090938D0280938C02D6CD440F551FDE
:1055A000661F771FEFCF823109F4B0C066E37EE05B
:1055B000883109F0F7CDCE0181960E94591A64E92D
:1055C00071E0CE0181960E94A611882309F4A5C03E
:1055D0006EE771E08EE397E00E94121A6EE377E0C7
:1055E000CE0187960E94F619CE0181960E94CF11B6
:1055F00061EB71E0CE0187960E94A611811115C062
:105600006FA178A58BA59CA5019709F02EC1611506
:10561000710521F41092810261E872E0DB018C9146
:105620008093FC0481E080931A0310922506109267
:105630002A0610922906CE0187960E94CF11F2CD3C
:10564000823409F45DC048F4803309F44DC06CE243
:105650007EE0883309F4AFCFA5CD8A3409F453C076
:105660006BE17EE0823509F4A6CF9CCD823A39F118
:1056700098F48A37E1F140F4823621F163E47EE068
:10568000883609F498CF8ECD803959F160E47EE0F8
:10569000883909F490CF86CD823CD1F040F4883A25
:1056A000E9F06DE37EE0803B09F485CF7BCD803E61
:1056B00091F063E57EE0823E09F47DCF73CD67E52E
:1056C0007EE079CF65E57EE076CF61E57EE073CF61
:1056D0006CE47EE070CF6AE47EE06DCF68E47EE04B
:1056E0006ACF66E47EE067CF6AE37EE064CF62E380
:1056F0007EE061CF6FE27EE05ECF68E27EE05BCF6E
:1057000065E27EE058CF60E27EE055CF61E971E06E
:10571000CE0181960E94481A52CF66E971E0CE010F
:1057200081960E94A611811111C068E971E0CE0135
:1057300081960E94A611811109C06AE971E0CE012B
:1057400081960E94A611882309F442C08DA19EA1D2
:10575000892B21F0E9A1FAA1309721F4109281025E
:10576000E1E8F2E0108110930301163471F46EE762
:1057700071E08EE397E00E94A611882331F06BE878
:1057800071E08EE397E00E94121A6EE377E0CE019B
:1057900001960E94F6191FA318A641E050E0BE0131
:1057A000695D7F4FCE0101960E94A919811104C045
:1057B000CE0101960E94BD11BE016F5F7F4FCE01E9
:1057C00087960E94F619CE0101960E94CF110CCF48
:1057D0006CE971E0CE0181960E94A61109A11AA17F
:1057E000811131C06FE971E0CE0181960E94A6114E
:1057F000811129C062EA71E0CE0181960E94A61152
:10580000811121C06BE871E0CE0181960E94A61142
:10581000811119C065EA71E0CE0181960E94A6113E
:10582000811111C018A70FA38BA19CA19AA789A7CA
:105830008DA19EA19CA78BA71AA219A21CA21BA294
:105840001EA21DA2D1CE0115110551F04DA15EA1E0
:10585000B8018EE397E00E94D5191091030195CF0E
:105860008EE397E00E94BD11F8CF8BE68093FC0495
:1058700088E293E00E94A83D68EA71E088E293E044
:105880000E949F3D892B09F0CDCE86E480930301D1
:10589000C9CEFAE0F9ABF1CC86E695E00E9431087A
:1058A00098012F5F3F4F3093160320931503F801A3
:1058B000E85DFC4F808386E695E00E945308892BC3
:1058C00009F0F6CC0E942E0A2B013C010091150331
:1058D00010911603180161E0261A3108C101885D94
:1058E0009C4F4C01DC018C91B9A98B1761F00E948F
:1058F0002E0A64197509860997096C157D058E05B0
:105900009F050CF4CECCF4018081F9A9F81301C0F5
:10591000810110931603009315032DA98EE72A31F8
:1059200008F080E0F801E85DFC4F8083F8CC20911E
:10593000FC04233609F40ACDC0909602D090970259
:10594000E0909802F09099026C197D098E099F09E8
:1059500016161706180619060CF0F8CC10929A02C3
:1059600080910401882309F4F1CC1111F4CC0E9438
:105970002E0A8B019C010C191D092E093F09013DBE
:105980001740210531050CF490CD60939602709379
:10599000970280939802909399020E94FD3520917E
:1059A000940230919502032E000C440B550B0E947B
:1059B0002638EFEF77FD09C0EF5FAE2FB0E0AA5CAD
:1059C000BE4F8C91681B7109F5CFEE23A9F0F0E072
:1059D000EE0FFF1FE35AF14F6591749188E293E057
:1059E0000E947336809128038093FC0469E273E07F
:1059F00088E293E00E94A83D84E680931A03A6CC37
:105A0000813609F446C10CF05AC1863509F005CD3E
:105A10009091170321E092279093170391111BC0D7
:105A200086E719C08D3609F455C1C4F5893609F4E5
:105A300048C1A4F4873609F0F0CC9091060121E02A
:105A400092279093060123E0911101C027E1209352
:105A50000501911187E48093FC04DFCC8A3609F4B8
:105A60005CC08B3609F0D9CC68E273E08CE791E03A
:105A70000E949F3D892B69F068E273E081EB92E020
:105A80000E949F3D892B29F48091040582300CF0FF
:105A90003CC788E293E00E941017BFCC833709F41B
:105AA0009FC094F4803709F0B8CC9091070121E0B1
:105AB000911120E020930701911180E58093FC046F
:105AC000911128C08BE6C7CF863709F18A3709F0D4
:105AD000A4CC9091040121E0922790930401992392
