:100000000C9457010C947F010C947F010C947B1885
:100010000C947B180C947B180C947F010C947D1726
:100020000C947F010C947F010C947F010C94121AA4
:100030000C947F010C947F010C947F010C947F0140
:100040000C9431180C947F010C94FF170C94D91761
:100050000C947F010C947F010C947F010C947F0120
:100060000C94F3180C947F0105A84CCDB2D44EB972
:100070003836A9020C50B9918688083CA6AAAA2A4B
:10008000BE000000803F07634236B79BD8A71A39ED
:10009000685618AEBAAB558C1D3CB7CC5763BD6DD6
:1000A000EDFD753EF6177231BF000000803F08007D
:1000B0000000BE922449123EABAAAA2ABECDCCCCE7
:1000C0004C3E00000080BEABAAAAAA3E0000000081
:1000D000BF000000803F0000000000084178D3BB53
:1000E0004387D1133D190E3CC3BD4282AD2B3E6800
:1000F000EC8276BED98FE1A93E4C80EFFFBE01C4F1
:10010000FF7F3F0000000000010000010000000030
:1001100000000000000000000000000031307468A2
:100120000039746800387468003774680036746881
:10013000006231342C382C31342C382C32312C38AC
:100140002C32312C382C32332C382C32332C382CA6
:1001500032312C34006B6D77006D30203830203018
:10016000202D3830006B7075310054000000000005
:10017000240027002A0000000008000201000003FC
:100180000407000000000000000002536572766F53
:100190003A00536B696C6C005461736B510043758A
:1001A00073746F6D697A656420766F6963653A0070
:1001B000496E697420766F69636500526561647980
:1001C00021004E5F32333037313300426974746C32
:1001D00065000A2A205374617274202A004C6F77DC
:1001E00020706F7765723A00540073637268006321
:1001F0006B0070656500707500686900737472004B
:1002000073697400747200776B0063720076740017
:1002100063004200700052007570004C0067004699
:100220000064004F5646005F3F006A0165015901B6
:10023000550131012D012901250121011C014F56D4
:10024000462120576F6E2774207361766521006107
:10025000626F72746564007361766564004E5F322C
:10026000333037313300426974746C65000000002C
:100270000023002600290000000000250028002B94
:10028000000404040404040404020202020202033F
:100290000303030303010204081020408001020449
:1002A00008102001020408102000FF1A1F2B11243F
:1002B0001FBECFEFD8E0DEBFCDBF11E0A0E0B1E0C0
:1002C000EAE3F7E602C005900D92A83DB107D9F721
:1002D00027E0A8EDB1E001C01D92A534B207E1F717
:1002E00011E0C6E5D1E004C02197FE010E948A32E8
:1002F000C535D107C9F70E94171C0C9490330C9494
:10030000000047E018160CF444E04093140598E010
:10031000823024F494E1813009F490E19093150542
:10032000282F880F330B37FF03C0319521953109F2
:10033000929FB001939F700D1124CB01840F911DEA
:10034000089580913803082E000C990B909317059F
:100350008093160580913903082E000C990B909319
:1003600019058093180580913A0380931A058091AE
:100370000F0587FF0EC090913B0390931B05909152
:100380003C0390931C0590913D0390931D0590E0D4
:1003900005C08130E1F398E08230CCF390931E05E4
:1003A000082E000C990B97FF03C091958195910938
:1003B00040911505489F9001499F300D112482ED11
:1003C00091E0821B930B90930D0180930C0160913F
:1003D0001405620F732F711D87E393E050E040E036
:1003E000FC01E60FF71FA081FC01ED52FE4FA08338
:1003F0004F5F5F4F01972417350794F78EE780937F
:100400000A058AE095E0821B930B90932005809368
:100410001F050895CF93DF93DC019096FC0141E81E
:100420005FEF60E870E021913191261737070CF4F7
:10043000B901421753070CF4A901EA17FB0799F712
:1004400063387F4F1CF04E3751056CF122E020934A
:100450001A05DC012D913D91ED01229737FF02C075
:100460002F5F3F4F3595279539832883AE17BF07F8
:1004700089F7A0911F05B0912005EC012881029613
:100480002D938E179F07C9F781E080930F05109277
:100490001E0580E1809315051092360310923503F6
:1004A000DF91CF91089521E020931A05E2CF80914A
:1004B000310390913203891B990B08950895089593
:1004C000FC01248135816217730720F480819181BA
:1004D000009729F41092960286E992E00895860F1B
:1004E000971F0895DC01ED91FC910190F081E02DC2
:1004F0000994AF92BF92CF92DF92EF92FF920F9347
:100500001F93CF93DF936C017B018B01040F151FA9
:10051000EB015E01AE18BF08C017D10759F0699111
:10052000D601ED91FC910190F081E02DC601099575
:10053000892B79F7C501DF91CF911F910F91FF9022
:10054000EF90DF90CF90BF90AF900895FC01538D56
:10055000448D252F30E0842F90E0821B930B54179D
:1005600010F0CF96089501970895FC01918D828D2A
:10057000981761F0A28DAE0FBF2FB11D5D968C91C3
:10058000928D9F5F9F73928F90E008958FEF9FEF02
:100590000895FC01918D828D981731F0828DE80FBE
:1005A000F11D858D90E008958FEF9FEF0895FC0178
:1005B000918D228D892F90E0805C9F4F821B910945
:1005C0008F739927089581E795E00E94D70221E073
:1005D000892B09F420E0822F089580E090E0892B98
:1005E00029F00E94E30281110C9400000895FC019F
:1005F000A48DA80FB92FB11DA35ABF4F2C91848D84
:1006000090E001968F739927848FA689B7892C93E0
:10061000A089B1898C91837080648C93938D848D33
:10062000981306C00288F389E02D80818F7D808336
:100630000895EF92FF920F931F93CF93DF93EC01F6
:1006400081E0888F9B8D8C8D98131AC0E889F98979
:10065000808185FF15C09FB7F894EE89FF8960837C
:10066000E889F98980818370806480839FBF81E0FD
:1006700090E0DF91CF911F910F91FF90EF9008953F
:10068000F62E0B8D10E00F5F1F4F0F731127E02E1A
:100690008C8D8E110CC00FB607FCFACFE889F98952
:1006A000808185FFF5CFCE010E94F702F1CFEB8D5F
:1006B000EC0FFD2FF11DE35AFF4FF0829FB7F89426
:1006C0000B8FEA89FB8980818062CFCF0F931F93C4
:1006D000CF93DF938C01D0E0C0E0F801EC0FFD1F59
:1006E0006491662341F081E795E00E941903892B0C
:1006F00011F02196F2CFCE01DF91CF911F910F9192
:100700000895CF93DF93EC01888D8823B9F0AA89EF
:10071000BB89E889F9898C9185FD03C0808186FDBC
:100720000DC00FB607FCF7CF8C9185FFF2CF80810B
:1007300085FFEDCFCE010E94F702E9CFDF91CF9187
:100740000895833081F028F4813099F08230A9F047
:1007500008958730A9F08830C9F08430B1F48091D1
:1007600080008F7D03C0809180008F778093800010
:10077000089584B58F7784BD089584B58F7DFBCFB0
:100780008091B0008F778093B00008958091B00081
:100790008F7DF9CF1F93CF93DF93282F30E0F9019E
:1007A000EA58FE4F8491F901EB56FD4FD491F901BF
:1007B000EF57FD4FC491CC23A9F0162F81110E9451
:1007C000A103EC2FF0E0EE0FFF1FE958FD4FA591BC
:1007D000B4918FB7F894EC91111108C0D095DE2335
:1007E000DC938FBFDF91CF911F910895DE2BF8CF5F
:1007F0009091000189130BC0EAE8F1E0E4919FEFCA
:1008000090930001E13049F028F0E23061F060E0BF
:100810000C94CA0310926E00FACF90916F009D7FE6
:1008200090936F00F4CF909170009D7F9093700033
:1008300091E09093B0009091B100987F9460909374
:10084000B1001092B300E3CFCF93DF9390E0FC01AF
:10085000EB56FD4F24918F579D4FFC0184918823C7
:10086000D1F090E0880F991FFC01E459FE4FA5914B
:10087000B491FC01E958FD4FC591D49161110EC0AE
:100880009FB7F8948C91E22FE0958E238C9328816A
:10089000E223E8839FBFDF91CF9108958FB7F8944B
:1008A000EC91E22BEC938FBFF6CF8E508064809357
:1008B0007C0080917A00806480937A0080917A0035
:1008C00086FDFCCF809178009091790008953FB724
:1008D000F89480918B0290918C02A0918D02B0913E
:1008E0008E0226B5A89B05C02F3F19F00196A11DC9
:1008F000B11D3FBFBA2FA92F982F8827BC01CD016A
:10090000620F711D811D911D42E0660F771F881FC8
:10091000991F4A95D1F708958F929F92AF92BF92F7
:10092000CF92DF92EF92FF926B017C010E946704ED
:100930004B015C01C114D104E104F104B9F00E943F
:100940006704681979098A099B09683E7340810523
:10095000910580F321E0C21AD108E108F10888EE80
:10096000880E83E0981EA11CB11CE4CFFF90EF908D
:10097000DF90CF90BF90AF909F908F9008952FB74A
:10098000F894609187027091880280918902909119
:100990008A022FBF08952091A1023091A202281748
:1009A000390771F490919F028091A002981741F04D
:1009B000E0919F02F0E0EA5BFD4F808190E00895B6
:1009C0008FEF9FEF08950895EF92FF920F931F937B
:1009D000CF93DF93DC015C96ED90FC905D97E11482
:1009E000F10479F481E090E013969C938E93129732
:1009F00090E080E0DF91CF911F910F91FF90EF90F9
:100A000008955196ED91FC91529750968C91509784
:100A1000982F90950FB75E962C915E97122F1270BB
:100A200021FD6095F8942081112319F1282B208352
:100A3000E7012197F1F728E0462F50E0308160FF71
:100A40001AC0382B3083E7012197F1F7BA01759569
:100A50006795215089F7112381F080818923808354
:100A60000FBF5C968D919C910197F1F781E090E02A
:100A7000C1CF2923DCCF3923E5CF9081892BEFCF5C
:100A80002091A1023091A2022817390761F48091C8
:100A9000A00220919F0290E0805C9F4F821B9109F1
:100AA0008F739927089590E080E008952091A10226
:100AB0003091A20228173907B9F490919F028091D2
:100AC000A002981789F0E0919F02F0E0EA5BFD4FE9
:100AD000808120919F0230E02F5F3F4F2F7333279B
:100AE00020939F0290E008958FEF9FEF08950F935A
:100AF0001F930E94BF0460930B0770930C078093B1
:100B00000D0790930E0783E097E00E94560597FF2C
:100B10001DC00E94BF0400910B0710910C0720918B
:100B20000D0730910E07601B710B820B930B009128
:100B30000707109108072091090730910A076017ED
:100B4000710782079307F8F28FEF9FEF1F910F91C4
:100B5000089520912302260F3327331F21323105B8
:100B6000ECF420916B05FC0190E080E0243069F00A
:100B700082E00895A09123022191AC014D5F5D4F69
:100B8000A40FB52FB11D2C930196861798F3809171
:100B90002302680F6093230280E0089581E00895A6
:100BA00010926B0581E080934A051092450561E043
:100BB00082E10E94CA0361E083E10E94CA03E9EB7B
:100BC000F0E080818E7F808380818D7F808388E4C8
:100BD0008093B80085E48093BC000895CF93DF93A1
:100BE00091E0909302028823B9F0C091B800D091AF
:100BF000BA008091BC008A7B8093BC0060E082E1F7
:100C00000E94CA0360E083E10E94CA030E94D005EB
:100C1000D093BA00C093B800DF91CF910895CF92DE
:100C2000DF92EF92FF920F931F93CF93DF93D82F12
:100C3000C62F613208F098C00E9467046B017C01E6
:100C400080916B0581116BC081E080936B0580936F
:100C50004A059FEF90934905109248059C0F909389
:100C600047058093460580914605DD0FD82BD0932C
:100C7000460580914505813009F078C01092450500
:100C80000E9467046B017C01809146058093BB0044
:100C900080916D0590916E05A0916F05B0917005E2
:100CA000892B8A2B8B2BA1F00E94670400916D0584
:100CB00010916E0520916F05309170056C197D09BA
:100CC0008E099F09061717072807390708F448C037
:100CD0008091BC0083FDD8CF85EC8093BC000E943E
:100CE00067046B017C0180916B05813009F440C081
:100CF000809148058C1710F4C0914805E5E2F5E0B5
:100D0000ABE4B5E080E08C1355C08C2FDF91CF9120
:100D10001F910F91FF90EF90DF90CF9008958091F9
:100D20006D0590916E05A0916F05B0917005892BAE
:100D30008A2B8B2B09F484CF0E94670400916D05E8
:100D400010916E0520916F05309170056C197D0929
:100D50008E099F09061717072807390708F070CF73
:100D600080916C050E94EE05C0E0CFCF85EEB5CF37
:100D700080916D0590916E05A0916F05B091700501
:100D8000892B8A2B8B2B09F4AECF0E94670400912C
:100D90006D0510916E0520916F05309170056C19ED
:100DA0007D098E099F09061717072807390708F0DC
:100DB0009ACFD6CF91919D938F5FA5CFE0913203CB
:100DC00080913103E81730F4F0E0E55BFA4F808161
:100DD00090E008958FEF9FEF0895909132038091F6
:100DE00031032FEF3FEF981748F4E92FF0E0E55B70
:100DF000FA4F208130E09F5F90933203C90108953C
:100E0000CF92DF92EF92FF920F931F93CF93DF93D6
:100E10007C01CB018A0120912405222389F0EB017A
:100E20006B01C40ED51ECC15DD0569F06991D701A3
:100E3000ED91FC910190F081E02DC7010995F3CF70
:100E4000642F0E94A905C801DF91CF911F910F91D6
:100E5000FF90EF90DF90CF900895CF93DF931F9294
:100E6000CDB7DEB76983209124052223F9F02091C4
:100E70002105203258F021E030E0FC013383228349
:100E800090E080E00F90DF91CF910895809122054E
:100E9000E82FF0E0EE51FE4F998190838F5F8093B1
:100EA00022058093210581E090E0ECCF61E0CE0146
:100EB00001960E94A905F7CFCF92DF92EF92FF92A1
:100EC0000F931F93CF93DF93D091210581E0D1320F
:100ED00008F09CC0C09123050E9467046B017C014F
:100EE00080916B0581116CC082E080936B0581E07D
:100EF00080934A058FEF8093490510924805D0935F
:100F00004705A2EEB1E0E5E2F5E080E0D8138DC040
:100F10001092460580914605CC0FC82BC09346051C
:100F200080914505813009F084C0109245050E94EA
:100F300067046B017C01809146058093BB00809122
:100F40006D0590916E05A0916F05B0917005892B8C
:100F50008A2B8B2BA1F00E94670400916D051091E4
:100F60006E0520916F05309170056C197D098E0911
:100F70009F09061717072807390708F442C0809110
:100F8000BC0083FDD8CF85EC8093BC000E94670431
:100F90006B017C0180916B05823009F44CC080911B
:100FA00049058F3F09F469C080914905803209F4F1
:100FB00066C080914905803309F463C084E026C08F
:100FC00080916D0590916E05A0916F05B0917005AF
:100FD000892B8A2B8B2B09F483CF0E946704009105
:100FE0006D0510916E0520916F05309170056C199B
:100FF0007D098E099F09061717072807390708F08A
:101000006FCF80916C050E94EE0585E0109222055D
:101010001092210510922405DF91CF911F910F911D
:10102000FF90EF90DF90CF9008959D9191938F5F07
:101030006DCF85EEA9CF80916D0590916E05A09141
:101040006F05B0917005892B8A2B8B2B09F4A2CFE9
:101050000E94670400916D0510916E0520916F0547
:10106000309170056C197D098E099F0906171707C5
:101070002807390708F08ECFC4CF80E0C7CF82E0C1
:10108000C5CF83E0C3CF90E080E0089508951F931B
:10109000CF93DF93EC01142F89819A81288131E06D
:1010A00030932405209323051092220510922105E8
:1010B000DC01ED91FC910190F081E02D0995898191
:1010C0009A81DC01ED91FC910190F081E02D612F7E
:1010D000099589819A81DF91CF911F910C945C07CA
:1010E000DC01ED91FC910190F081E02D0994DC018F
:1010F000ED91FC910190F081E02D09940F931F93E5
:10110000CF93DF93EC018A0189819A81288131E0B4
:101110003093240520932305109222051092210577
:1011200024E0629FB00111246A5F7F4F0E9477081C
:1011300070E060E089819A810E94700870E060E050
:1011400089819A810E947008B80189819A810E94E0
:101150007008612F70E089819A810E9470088981EE
:101160009A81DF91CF911F910F910C945C07CF93DF
:10117000C0E040E050E16C2F82E297E00E947E08E0
:10118000CF5FC031B1F7CF910895BF92CF92DF9278
:10119000EF92FF920F931F93CF93DF93EC0181E0C7
:1011A0008093240584E580932305109222051092F4
:1011B00021056D2F70E084E296E00E947708BE0161
:1011C000772784E296E00E94770884E296E00E9406
:1011D0005C0761E084E50E940F0610923203809361
:1011E000310384E296E00E94ED06809337038093FA
:1011F0000F050E948101EC01F12CE12C1C161D064B
:101200004CF56C2FCF31D1050CF06EE184E50E94D6
:101210000F06B82E10923203809331036E018EE1D7
:10122000C81AD1088E0180913203B81659F084E2B1
:1012300096E00E94ED069FEFE91AF90AF701E95CD2
:10124000FC4F80830150110929F0E6010C151D05A2
:1012500051F7D4CFDF91CF911F910F91FF90EF9075
:10126000DF90CF90BF900895CF93DF93EC018981F9
:101270009A81288131E03093240520932305109230
:10128000220510922105DC01ED91FC910190F08185
:10129000E02D099589819A810E945C0761E088812F
:1012A0000E940F06109232038093310389819A8144
:1012B000DC01ED91FC910284F385E02D0995DF912D
:1012C000CF9108958F929F92AF92BF92CF92DF926B
:1012D000EF92FF921F93CF93DF93EC016A017B01A2
:1012E00020E030E040E85FE3CB01B6010E949E2D94
:1012F00087FD7EC020E030EC4AE555E4C701B60129
:101300000E94CB3018163CF4C12C30ECD32E3AE5B9
:10131000E32E35E4F32E6B817C818D819E810E94CA
:10132000A32D4B015C0120E030E040E855E4C7010B
:10133000B6010E94042E9B01AC01C501B4010E94BC
:10134000E42F20E030E040E05FE30E94732F20E0D4
:1013500030E040E85FE30E94722F6B017C0120E0E7
:1013600030E040E450E40E949E2D87FD48C020E01C
:1013700030E04FE753E4C701B6010E94CB301816A6
:1013800034F4C12CD12C9FE7E92E93E4F92E60E0D0
:10139000CE010E943409182F482F4F76406160E03B
:1013A000CE010E944708C701B6010E945D30462F5A
:1013B0006EEFCE010E944708412F60E0CE010E94EF
:1013C000470865E070E080E090E00E948C04412FC7
:1013D000406A60E0CE01DF91CF911F91FF90EF90C6
:1013E000DF90CF90BF90AF909F908F900C94470864
:1013F000C12CD12C20E8E22E2FE3F22E8CCFC12C71
:10140000D12C80E4E82EFE2CC2CF4F925F926F92D7
:101410007F928F929F92AF92BF92CF92DF92EF9284
:10142000FF92CF93C0E06C01F12CE12CC701B60113
:101430000E94A32D4B015C016EEF82E297E00E94B7
:101440003409682F70E06F5F7F4F90E080E00E946A
:10145000A32D20E034E244E759E40E94042E2B013E
:101460003C01609125077091260780912707909194
:1014700028070E94A32D9B01AC01C301B2010E9469
:10148000E42F9B01AC01C501B4010E94E42F0E942E
:101490005D30AB016C2F82E297E00E947E08CF5F47
:1014A000C03121F6CF91FF90EF90DF90CF90BF90A9
:1014B000AF909F908F907F906F905F904F90089526
:1014C000FC0124813581232B39F421E0FB0180814B
:1014D000882349F020E007C0808191810E94723307
:1014E00021E0892BB9F7822F0895FB01019000209C
:1014F000E9F73197AF01461B570BDC01ED91FC91E9
:101500000280F381E02D09948F929F92AF92BF9257
:101510000F931F93CF93DF93CDB7DEB7A1970FB68D
:10152000F894DEBF0FBECDBF19A2423008F44AE0E6
:101530008E010F5D1F4F842E912CB12CA12CA50183
:1015400094010E94412FE62FB901CA01EA3004F547
:10155000E05DD801EE938D01232B242B252B79F709
:1015600090E080E0109729F0BD0181E795E00E94AE
:10157000750AA1960FB6F894DEBF0FBECDBFDF91FE
:10158000CF911F910F91BF90AF909F908F90089532
:10159000E95CDFCF66E771E00C94750ACF92DF92C9
:1015A000EF92FF92C12CD12C76014AE0C701B6011F
:1015B0000E94840A69E081E795E00E9472028FEF41
:1015C000C81AD80AE80AF80A80E1C816D104E1046A
:1015D000F10459F781E795E0FF90EF90DF90CF900D
:1015E0000C94CA0ACF93DF930E946603EC0181E753
:1015F00095E00E94CA0A8C0F9D1FDF91CF9108953C
:10160000CF92DF92EF92FF92CF93DF936C01990F0D
:10161000EE08FF08F7FE1FC06DE281E795E00E942B
:101620007202EC0166277727CB016C197D098E09C0
:101630009F094AE00E94840AC80FD91F81E795E0FC
:101640000E94CA0A8C0F9D1FDF91CF91FF90EF90EF
:10165000DF90CF9008954AE0C701B6010E94840A46
:10166000EC01ECCFCF93DF93682F81E795E00E94E8
:101670007202EC0181E795E00E94CA0A8C0F9D1F5F
:10168000DF91CF910895CF93DF93FC014481558181
:101690006081718181E795E00E947902EC0181E728
:1016A00095E00E94CA0A8C0F9D1FDF91CF9108958B
:1016B0000F931F93CF93DF93EC010E94750A8C0167
:1016C000CE010E94CA0A800F911FDF91CF911F9116
:1016D0000F910895AF92BF92CF92DF92EF92FF9257
:1016E0000F931F93CF93DF937C01C62F8A0159017B
:1016F00087E090E00E943E2B6C01DC01CC931696B3
:10170000BC92AE921597C154CA3128F5F801D0E0C9
:10171000C0E0CE01019621912E3731F0EC01833DDE
:101720009140B9F7C2EDD1E0F601D483C383CE0175
:1017300001960E943E2BD60112969C938E93119790
:10174000F801DC01A8014C0F5D1FE417F50759F003
:1017500021912D93FACFE80109900020E9F7219714
:10176000C01BD10BE1CF2091330321542A3148F122
:1017700020E0C80FD91F288386E090E00E943E2B0E
:10178000FC01D182C0821382128215821482E70189
:10179000AC81BD811097B9F49B838A839D838C8330
:1017A000E70188819981019699838883DF91CF91A0
:1017B0001F910F91FF90EF90DF90CF90BF90AF906F
:1017C00008952EE7D6CFB583A48313969C938E936A
:1017D0001297D70115969C938E931497E1CF0C9492
:1017E000DA2BCF93DF93EC0188819981009711F078
:1017F0000E94DA2B198218821D821C821B821A8297
:10180000DF91CF910895FC0180819181009711F0C3
:101810000C94DA2B0895CF93C0913303CB3691F417
:1018200080913703882371F069E771E087E393E0E3
:101830000E947233892B31F067E373E082EC92E00F
:101840000E947B3310922A03C0932803CB3629F0E1
:10185000C356C23010F01092330310923703109227
:10186000270310922603CF910895FF920F931F93A1
:10187000CF93DF93EC01F62E08811981C8010E94F5
:10188000C22EF81621F06F2DC8010E94CA2ECE017B
:10189000DF91CF911F910F91FF900895FF920F93C9
:1018A0001F93CF93DF9300D0CDB7DEB78C01F72E17
:1018B0009A838983CE0101960E94350C0F5F1F4FDA
:1018C0001A8309836F2DCE0101960E94350C66E0C4
:1018D00070E080E090E00E948C040F900F90DF9108
:1018E000CF911F910F91FF9008950C94C22E2F92CB
:1018F0003F924F925F926F927F928F929F92AF92A0
:10190000BF92CF92DF92EF92FF920F931F93CF93EC
:10191000DF93CDB7DEB72E970FB6F894DEBF0FBEBC
:10192000CDBF5C0185E191E00E94750C682E6CE7EB
:1019300071E0C5010E947233762C892B89F4C62C84
:10194000D12CF12CE12CC114D104E104F10439F0C3
:101950000E94AF2CA70196010E94D82E6B017C2C0F
:10196000F50101900020E9F73197EA19FB092E2FC4
:101970002150330B6901F501E20FF31F30813C87E1
:10198000512C10E000E0CE0101967C0181E491E051
:10199000FC01EE19FF09FE87ED87651409F49AC072
:1019A0001801FFEF2F1A3F0AC801805C9E4F0E946A
:1019B000750C482E47012D853E85020F131F882D7B
:1019C0008E19841548F4C801880D991D0E94750C64
:1019D000F40181934F01F3CF842C912C8101080DE8
:1019E000191DF701E80DF91D108257104CC06EE764
:1019F00071E0C7010E947233892B09F441C061E88C
:101A000071E0C7010E947233892BD1F169E771E05F
:101A1000C7010E947233892B99F164E871E0C70114
:101A20000E947233892B61F167E871E0C7010E945F
:101A30007233892B29F1C8018F5B9E4F0E94750C70
:101A400080930F050E948101C801805C9E4F2E96F5
:101A50000FB6F894DEBF0FBECDBFDF91CF911F91BF
:101A60000F91FF90EF90DF90CF90BF90AF909F903D
:101A70008F907F906F905F904F903F902F90089540
:101A8000739453948ACFB501C7010E947233892B96
:101A900091F2FE01E80DF91D80818634C1F06BE8FA
:101AA00071E0C7010E947233892B89F0A601B5014C
:101AB000C7010E948233892B51F4FC85FC3409F460
:101AC000BACFF23509F4B7CFF83509F4B4CF0C5FCB
:101AD0001F4FD7CF6FE381E795E00E947202B501F7
:101AE00081E795E00E94580B8FEF9FEFB0CF1F93D7
:101AF000CF93DF93EC010E94750C182FCE01019655
:101B00000E94750C90E0982F8827810F911DDF911E
:101B1000CF911F910895CF92DF92EF92FF920F9392
:101B20001F93CF93DF936A017B01082F10E0C80158
:101B3000805B9F4F880F991F0E94770DBC01990F02
:101B4000880B990B0E94A52D20E030E04AE754E471
:101B50000E94E42FA70196010E94042E6B017C01D4
:101B600082E191E00E94750C9AE0899FB0011124F6
:101B7000072E000C880B990B0E94A52DA70196013A
:101B80000E94732F6B017C0120E030E04AEF53E4A8
:101B90000E94CB30C4EFD1E018168CF420E030E482
:101BA0004CE155E4C701B6010E949E2DC4ECD9E07A
:101BB00087FF05C0C701B6010E945630EB01C8017E
:101BC0000E94750CAE01682F82E297E0DF91CF9101
:101BD0001F910F91FF90EF90DF90CF900C947E08B3
:101BE00090E0C096880F991F860F911D880F991F4E
:101BF0000C94770D7F928F929F92AF92BF92CF926B
:101C0000DF92EF92FF920F931F93CF93DF93B82E43
:101C10006A01D62FC72F60E00E94F00DBC01990F1A
:101C2000880B990B0E94A52D7B018C0161E08B2D07
:101C30000E94F00DBC01990F880B990B0E94A52DF5
:101C4000762E872E982EA92E96014D2F5C2F0E945E
:101C50009E2D87FF71C0772D682D992D8A2D272FF6
:101C6000362F492F582FB701C8010E94CB301816C4
:101C700094F096014D2F5C2F672D782D892D9A2D8C
:101C80000E949E2D76010D2F1C2F87FF04C0E72C8C
:101C9000F82C092D1A2DCB2DD0E06E0180E3C80E53
:101CA000D11CCC0FDD1FC25FDE4FB701C8010E94FF
:101CB000563079836883C601880F991F0E94770D7B
:101CC000EC01C6010E94750C682F880F770B880BFA
:101CD000990B0E94A52D9701A8010E94042E6B016B
:101CE0007C01BE01DD0F880B990B0E94A52D9B0185
:101CF000AC01C701B6010E94732F0E945630072E17
:101D0000000C880B990B0E94A52D20E030E0A90162
:101D10000E94732FAB01BC018B2DDF91CF911F91DE
:101D20000F91FF90EF90DF90CF90BF90AF909F907A
:101D30008F907F900C948B0D7C2D6D2DCE018FCFCD
:101D40000F931F93CF938C01005E1F4FCFE0F801DC
:101D5000729162918F01072E000C880B990B0E94E3
:101D6000A52DAB01BC018C2F0E94FA0DC15078F754
:101D7000CF911F910F9108952F923F924F925F92B2
:101D80006F927F928F929F92AF92BF92CF92DF928B
:101D9000EF92FF920F931F93CF93DF93CDB7DEB7F0
:101DA0002E970FB6F894DEBF0FBECDBF182F092FA8
:101DB0006A017B0120E030E0A901CB01B6010E945D
:101DC0009E2D1816E4F0812F902F2E960FB6F894C2
:101DD000DEBF0FBECDBFDF91CF911F910F91FF905E
:101DE000EF90DF90CF90BF90AF909F908F907F90BB
:101DF0006F905F904F903F902F900C94A00E80E2D8
:101E000090E00E943E2B5C0170913403909033036C
:101E10002EE031E0DC01612E702E512C412C60E06F
:101E2000772329F0643018F44BE69416A1F0F901F9
:101E300080819181F30140815181841B950B119622
:101E40009C938E9397FF03C09195819591094816B5
:101E500059060CF42C016F5F2E5F3F4FF2E06F0EBE
:101E6000711C12966031E1F620E030E0A901C70153
:101E7000B6010E94CB3018160CF0BCC0B201550C54
:101E8000880B990B0E94A52DA70196010E94E42FB3
:101E90006B017C0120E030E0A9010E94CB3020E002
:101EA00030E040E05FE387FDA0C0C701B6010E94BB
:101EB000732F0E9456307E876D87D12CC12C2D85C3
:101EC0003E85032E000C440B550B29873A874B8720
:101ED0005C874D855E854C155D050CF48EC0150143
:101EE000812E902EF12CC6010D2C000CAA0BBB0BE1
:101EF0008D839E83AF83B88780913403882341F01C
:101F000093E09F1528F0809133038B3609F45FC06E
:101F1000D4016D917C91072E000C880B990B0E94C7
:101F2000A52D2B013C01ED85FE8520E030E0A901C7
:101F3000EF2B09F443C06D817E818F8198850E94CB
:101F4000A52D2BED3FE049E450E40E94042E698367
:101F50007A838B839C8369857A858B859C850E9497
:101F6000A52D9B01AC0169817A818B819C810E94A6
:101F7000E42F0E94DF2F20E030E040E85FE30E9482
:101F8000732F20E030E040E05FE30E94042E69837D
:101F90007A838B839C83D1016D917C91072E000CF9
:101FA000880B990B0E94A52D9B01AC0169817A8158
:101FB0008B819C810E94042E9B01AC01C301B20164
:101FC0000E94732FAB01BC018F2D0E94FA0DF39478
:101FD000B2E08B0E911CE2E02E0E311CF0E1FF12FC
:101FE0008BCF2FEFC21AD20A74CFC701B6010E945D
:101FF000722F5FCF1E861D8660CFA114B104D9F069
:10200000C5012E960FB6F894DEBF0FBECDBFDF918F
:10201000CF911F910F91FF90EF90DF90CF90BF90E5
:10202000AF909F908F907F906F905F904F903F9078
:102030002F900C94DA2B2E960FB6F894DEBF0FBEBD
:10204000CDBFDF91CF911F910F91FF90EF90DF9067
:10205000CF90BF90AF909F908F907F906F905F9048
:102060004F903F902F9008952F923F924F925F9202
:102070006F927F928F929F92AF92BF92CF92DF9298
:10208000EF92FF920F931F93CF93DF93CDB7DEB7FD
:102090002F970FB6F894DEBF0FBECDBF4C016D83F6
:1020A00069017A01202F30E03A83298320E030E073
:1020B000A901C701B6010E949E2D1816ECF01FE081
:1020C000812F012E000C990B69817A818617970761
:1020D0000CF453C1880D991DDC016C91062E000C87
:1020E000770B880B990B0E94A52DAB01BC01812FAA
:1020F0000E94FA0D1150E4CF80E190E0E981FA816D
:102100008E1B9F0B8115F0E49F0708F047C0880FD6
:10211000991F009709F445C00E943E2B3C01B090E6
:102120003403A090330329813A81220F331F130116
:10213000D401102F50E040E0512C412C1031A0F57B
:10214000BB2029F0143018F46BE6A616F9F0CA018A
:10215000820F931F825F9E4F7C916D817603F00109
:102160001124FC83EB83FC01808191816B817C8154
:10217000861B970BF1019183808397FF03C0919594
:1021800081959109481659060CF42C011F5F119690
:10219000F2E02F0E311C4E5F5F4FD0CF8FEF9FEFDD
:1021A000BBCF81E090E0B8CF20E030E0A901C701CB
:1021B000B6010E94CB3018160CF0BAC0B201550C13
:1021C000880B990B0E94A52DA70196010E94E42F70
:1021D0006B017C0120E030E0A9010E94CB3020E0BF
:1021E00030E040E05FE387FD9EC0C701B6010E947A
:1021F000732F0E9456307F876E87B12CA12C6E857D
:102200007F85072E000C880B990B6A877B878C874C
:102210009D878E859F858A159B050CF490C07C82D6
:102220006B829A828982102FB5010B2C000C880BCF
:10223000990B6E837F8388879987103108F07BC064
:1022400080913403882339F0143028F480913303CB
:102250008B3609F45BC0A981BA816C912D81620330
:10226000B0011124072E000C880B990B0E94A52D9C
:102270006B017C016E857F8520E030E0A901672B32
:10228000E1F16E817F81888599850E94A52D2BEDD6
:102290003FE049E450E40E94042E1B012C016A85B2
:1022A0007B858C859D850E94A52D9B01AC01C2017B
:1022B000B1010E94E42F0E94DF2F20E030E040E8CF
:1022C0005FE30E94732F20E030E040E05FE30E9474
:1022D000042E1B012C01AB81BC816D917C91072EDA
:1022E000000C880B990B0E94A52D9B01AC01C2012B
:1022F000B1010E94042E9B01AC01C701B6010E94EE
:10230000732FAB01BC01812F0E94FA0D1F5FE98181
:10231000FA813196FA83E9832B813C812E5F3F4F0E
:102320003C832B838ACFC701B6010E94722F61CFF5
:102330001F861E8662CF3FEFA31AB30A6ACF6114CD
:102340007104D9F0C3012F960FB6F894DEBF0FBE0B
:10235000CDBFDF91CF911F910F91FF90EF90DF9054
:10236000CF90BF90AF909F908F907F906F905F9035
:102370004F903F902F900C94DA2B2F960FB6F89435
:10238000DEBF0FBECDBFDF91CF911F910F91FF90A8
:10239000EF90DF90CF90BF90AF909F908F907F9005
:1023A0006F905F904F903F902F9008950F930E94F1
:1023B000A1011092360310923503EBE0F5E0258180
:1023C00036814781508503896785848995890E9474
:1023D00034100F9108958F929F92AF92BF92CF9237
:1023E000DF92EF92FF920F931F93CF93DF93CDB7BE
:1023F000DEB72B970FB6F894DEBF0FBECDBF6C01D2
:10240000FC0101900020E9F73297108189E11C342A
:1024100021F087EE123509F080E080930E05C601A9
:102420000E94770C7C018FEFE816F80609F43EC194
:10243000C7010E94750C082FC70102960E94770DF4
:102440007C01B601CE0101960E947B33093409F06C
:10245000EDC0C7010E94C5080E94A101BE016F5FC7
:102460007F4F87E393E00E947B336EE871E087E360
:1024700093E00E947233892B09F4EEC080E090E073
:10248000A0E0B0E48093100590931105A09312058D
:10249000B093130562E971E087E393E00E94723321
:1024A000892B09F4DDC080910F05813009F0D8C077
:1024B0000E94AF2C24E630E040E050E00E94D82E8D
:1024C0000E94A52D20E030E040E251E40E94E42F7C
:1024D00020E030E040EA50E40E94722F4B015C01A2
:1024E00080922D0390922E03A0922F03B09230037E
:1024F000F12CE12CC0901F05D0902005CE0CDF1CE4
:10250000F6016081062E000C770B880B990B0E9458
:10251000A52DA50194010E94732F0E945630F6014B
:102520006083FFEFEF1AFF0A80E1E816F10411F76C
:10253000123509F099C08091160590911705919573
:1025400081959109909317058093160590E080E09E
:1025500040910F05242F042E000C330B37FF03C0CE
:10256000319521953109821793070CF089C04230CB
:102570001CF540911505489F9001499F300D11248D
:10258000E0911F05F0912005E20FF31F20812195B6
:10259000208320911505289FF001299FF00D11241B
:1025A0009F012E5F3F4FE0911F05F0912005E20F44
:1025B000F31F20812195208320910F0560E02230B8
:1025C0000CF462E0E62FF0E020910F0522300CF4CD
:1025D00080C024E030E040911F0550912005E217B3
:1025E000F3070CF079C09F01220F331F709115057E
:1025F000789FF001799FF00D1124E20FF31FE40F93
:10260000F51F40815181508350911505589FD0018D
:10261000599FB00D1124E0911F05F0912005E20FA4
:10262000F31FEA0FFB1F41836F5FCCCF80910F0533
:102630000E948101A7E3B3E0970127533340F901DA
:10264000EA0FFB1FAD0147535340481759070CF0E1
:1026500003CFE491ED93F3CF80E090E0DC0112CF63
:10266000812C912C54013CCF1C3451F00E94AF2C92
:1026700024E630E040E050E00E94D82E60FD5BCFC1
:1026800010923603109235032091100530911105F8
:10269000409112055091130500911E0560911A0595
:1026A00080911F05909120050E9434102B960FB643
:1026B000F894DEBF0FBECDBFDF91CF911F910F9178
:1026C000FF90EF90DF90CF90BF90AF909F908F9052
:1026D000089528E030E07FCF01963ACF0F931F9303
:1026E000CF93DF93EC0188819981009759F02A817B
:1026F0003B812617370730F081E0DF91CF911F91A2
:102700000F9108958B016F5F7F4F0E94A432009755
:1027100059F0998388831B830A832C813D81232B65
:1027200059F7FC011082E8CF80E0E7CFEF92FF92EB
:102730000F931F93CF93DF936115710541F480E0F0
:10274000DF91CF911F910F91FF90EF900895411568
:102750005105B1F07B01EC010C811D81040F151FA7
:10276000B8010E946E13882351F3288139818C812E
:102770009D81B701820F931F0E947B331D830C83C1
:1027800081E0DECFEF92FF920F931F93CF93DF9301
:10279000EC017B018A01BA010E946E1381110BC00A
:1027A000CE010E94F10BCE01DF91CF911F910F91CD
:1027B000FF90EF9008951D830C83B7018881998164
:1027C0000E947B33F0CFFB01DC0111961C921E921C
:1027D00013961C921E92129715961C921E92149795
:1027E0008617970759F0608171816115710521F095
:1027F000448155810C94C2130C94F10B0895FB0194
:1028000001900020E9F73197AF01461B570B0C945C
:10281000C2130F931F93CF93DF93CDB7DEB76297A9
:102820000FB6F894DEBF0FBECDBF8C01CB01F8010F
:102830001182108213821282158214824AE0BE0134
:102840006F5F7F4F0E94612DBE016F5F7F4FC80198
:102850000E94FF1362960FB6F894DEBF0FBECDBF85
:10286000DF91CF911F910F910895FC011182108289
:102870001382128215821482FB0101900020E9F775
:102880003197AF01461B570B0C94C213EF92FF9286
:102890000F931F93CF93DF93EC018B011982188262
:1028A0001B821A821D821C82CB010E942C2D7C016E
:1028B000BC01CE010E946E13811109C0CE01DF91CF
:1028C000CF911F910F91FF90EF900C94F10BFD822F
:1028D000EC82B80188819981DF91CF911F910F918E
:1028E000FF90EF900C94252D85ED8093BC00809196
:1028F0006D0590916E05A0916F05B09170050796DA
:10290000A11DB11D23E0B695A795979587952A95AA
:10291000D1F72091BC0024FD03C010926B050895EF
:1029200040916D0550916E0560916F057091700535
:10293000452B462B472B69F30097A105B10541F0C4
:102940002AE22A95F1F700C00197A109B109E1CF68
:1029500080916C050C94EE052F923F924F925F92FE
:102960006F927F928F929F92AF92BF92CF92DF929F
:10297000EF92FF920F931F93CF93DF93CDB7DEB704
:1029800066970FB6F894DEBF0FBECDBF69877A8712
:102990008B879C872D873E874F87588BC801EE8A8F
:1029A00010E088248A94982C540168E4462E68EE3E
:1029B000562E66246394712C05E076E8272E72E08B
:1029C000372E9C01990F440B550B298B3A8B4B8B5F
:1029D0005C8B6D857E858F8598890E945D306D83C7
:1029E0007E838F83988720E030E0A90169857A850E
:1029F0008B859C850E949E2D882309F499C1298589
:102A00003A854B855C8563E67CE987E89FE30E9415
:102A1000D03020E030ED42E854E40E94042E0E94C1
:102A20005D306B0180910001853009F06AC0EAE8F1
:102A3000F1E0F491FD8BF7FDD9C161E085E00E94E2
:102A40002404FD89FF2321F02D89223009F024C1BF
:102A5000F12CE12C60E072E18AE790E0A701960199
:102A60000E94D82E29833A834B835C83DA01C90103
:102A70000197A109B1098F3F9105A105B10509F0A1
:102A80000CF4F0C060E472E48FE090E0A7019601DE
:102A90000E94D82E21503109410951098D89823077
:102AA00009F0A2C082E02F3F31054105510509F030
:102AB0000CF48CC160E970ED83E090E0A701960111
:102AC0000E94D82E215031094109510983E02F3F3E
:102AD00031054105510509F00CF478C1C301B2017B
:102AE000A70196010E94D82E2150310941095109B0
:102AF0002F3F31054105510511F00CF092C084E0E3
:102B000065C18F3F09F072C100930001EAE8F1E06E
:102B1000F491FD8BFF3F09F469C1F13029F158F0C0
:102B2000F23009F43FC03D8937FD60C161E085E0C6
:102B30000E94240489CF14BC15BC84B5826084BD76
:102B400085B5816085BDF1018491E82FF0E0EE0F3D
:102B5000FF1FE958FD4F85919491EAE9F2E08491D5
:102B60008093D9011D8A69CF109280001092810054
:102B700080918100886080938100809181008160D4
:102B800080938100F1018491E82FF0E0EE0FFF1FA8
:102B9000E958FD4F85919491EAE9F2E084918093A0
:102BA000D8014BCF1092B0001092B1008091B000CC
:102BB00082608093B0008091B10081608093B10009
:102BC000F1018491E82FF0E0EE0FFF1FE958FD4F6F
:102BD000859194919093900280938F02EAE9F2E0BC
:102BE00084918093910229CF2F3F310541055105F2
:102BF00009F00CF44FC0C301B201A70196010E9475
:102C0000D82E21503109410951099D89992309F490
:102C1000AFC02F3F31054105510511F00CF0B0C098
:102C20006ECF64E274EF80E090E0A70196010E940D
:102C3000D82E215031094109510985E02F3F310536
:102C40004105510509F008F4C1C062E17AE780E06E
:102C500090E0A70196010E94D82E21503109410928
:102C600051099DC09C0181E0FD89F111AFC095B56E
:102C7000987F892B85BD27BD8092DE019092DF0170
:102C8000A092E001B092E10180916E008260809399
:102C90006E00ACC082E0E8CFF12CE12C60E072E184
:102CA0008AE790E0A70196010E94D82E21503109B1
:102CB0004109510991E02115310581E0480751058D
:102CC0005CF0C301B201A70196010E94D82E2150E9
:102CD00031094109510993E0ED89E13009F07CC0E7
:102CE00080918100887F892B8093810030938900B7
:102CF000209388008092DA019092DB01A092DC019F
:102D0000B092DD0180916F00826080936F006EC091
:102D10002093B3008092920290929302A092940228
:102D2000B0929502809170008260809370005EC0C6
:102D30006D817E818F8198850E948C0457C084E0CC
:102D40002F3F31054105510509F008F490CF298145
:102D50003A814B815C818AE0559547953795279557
:102D60008A95D1F7215031094109510985E07FCF7A
:102D700083E02F3F31054105510509F00CF477CF71
:102D800062E17AE780E090E0A70196010E94D82EE8
:102D90002150310941095109ED89EE2381F286E084
:102DA0002F3F31054105510589F080F029813A8195
:102DB0004B815C819AE055954795379527959A9573
:102DC000D1F7215031094109510987E09091B100B3
:102DD000987F892B8093B100FD89F13009F486CF6B
:102DE000F23009F495CFFF2309F445CF6D817E8140
:102DF0008F8198850E948C0485E00E94F803698980
:102E00007A898B899C890E948C041F5F2E892113EB
:102E1000E0CD66960FB6F894DEBF0FBECDBFDF9152
:102E2000CF911F910F91FF90EF90DF90CF90BF90C7
:102E3000AF909F908F907F906F905F904F903F905A
:102E40002F9008954F925F926F927F928F929F92F0
:102E5000AF92BF92CF92DF92EF920F931F93CF93D7
:102E6000DF93D82E192F0E94750C8695CD2DD12F6A
:102E7000B12CA12CC82ED12C88EE882E83E0982E60
:102E80002197AC14BD044CF5CE018C199D090E940C
:102E9000750C782ECE010E94750C182F672D70E0EE
:102EA000C4010E947632072E000C880B990B0E94F9
:102EB000A52D2B013C01612F70E090E080E00E9485
:102EC000A32DEE24E39410E000E0A30192010E9400
:102ED000AC148FEFA81AB80AD3CFDF91CF911F910E
:102EE0000F91EF90DF90CF90BF90AF909F908F9019
:102EF0007F906F905F904F9008951F920F920FB642
:102F00000F9211242F933F934F935F936F937F936F
:102F10008F939F93AF93BF93EF93FF938091920210
:102F200090919302A0919402B0919502892B8A2BE3
:102F30008B2BD1F190919102E0918F02F091900250
:102F40008081892780838091920290919302A09141
:102F50009402B0919502181619061A061B069CF4E5
:102F60008091920290919302A0919402B091950267
:102F70000197A109B1098093920290939302A093C3
:102F80009402B0939502FF91EF91BF91AF919F9101
:102F90008F917F916F915F914F913F912F910F9002
:102FA0000FBE0F901F901895809100010E94F803AA
:102FB000EACF1F920F920FB60F9211242F933F93D7
:102FC0004F935F936F937F938F939F93AF93BF9331
:102FD000EF93FF9381E795E00E94F702FF91EF9155
:102FE000BF91AF919F918F917F916F915F914F9121
:102FF0003F912F910F900FBE0F901F9018951F9229
:103000000F920FB60F9211242F938F939F93EF93EC
:10301000FF93E0918105F09182058081E091870521
:10302000F091880582FD1BC0908180918A058F5F99
:103030008F7320918B05821741F0E0918A05F0E0B3
:10304000EF58FA4F958F80938A05FF91EF919F91EA
:103050008F912F910F900FBE0F901F901895808128
:10306000F4CF1F920F920FB60F9211242F933F931C
:103070008F939F93AF93BF93809187029091880223
:10308000A0918902B0918A023091860223E0230F39
:103090002D3758F50196A11DB11D2093860280930E
:1030A000870290938802A0938902B0938A0280914C
:1030B0008B0290918C02A0918D02B0918E020196AC
:1030C000A11DB11D80938B0290938C02A0938D0261
:1030D000B0938E02BF91AF919F918F913F912F91AD
:1030E0000F900FBE0F901F90189526E8230F0296A1
:1030F000A11DB11DD2CF1F920F920FB60F921124B6
:103100002F933F934F935F936F937F938F939F93EF
:10311000AF93BF93EF93FF93E091A102F091A202CE
:10312000309749F0A685B7858585968D91FF14C0A7
:103130009C918923A1F4FF91EF91BF91AF919F9151
:103140008F917F916F915F914F913F912F910F9050
:103150000FBE0F901F9018959C91892361F7A3894A
:10316000B4899C918589809589238C9386899789D8
:103170000197F1F7608D718DA685B785558538E08B
:1031800020E0CB010197F1F7822F90E0959587958C
:10319000282F4C91452309F02068315091F7868DF6
:1031A00081FD20958091A00290E001968F73992770
:1031B00030919F02381799F0A091A002B0E0AA5B6D
:1031C000BD4F2C938093A002828D938D0197F1F7D0
:1031D000A389B4898C919589892B8C93ACCF868DEA
:1031E0008160868FF1CF1F920F920FB60F9211243C
:1031F0002F933F934F935F936F937F938F939F93FF
:10320000AF93BF93EF93FF938091B900887F80368F
:1032100009F44AC0F0F5883209F4A7C018F58031E6
:1032200009F49BC0B8F4882309F4F9C0883009F484
:1032300094C0FF91EF91BF91AF919F918F917F913A
:103240006F915F914F913F912F910F900FBE0F9013
:103250001F901895883109F488C0803251F7809307
:10326000490514C0803409F49DC040F48033B9F39B
:103270008833F9F68093490585ECB0C0803509F4B0
:1032800085C0883509F496C0883499F60E94741474
:10329000D0CF883909F48CC038F5883729F050F43C
:1032A000883611F0803729F683E080936B05109201
:1032B000450257C0883809F47BC0803919F080383E
:1032C00009F0B7CF80914502803208F071C0E091DB
:1032D000450281E08E0F809345028091BB00F0E0B3
:1032E000EB5DFD4F80833DC0803B39F0E0F4803AD8
:1032F00009F479C0883A09F09CCF84E080936B058B
:103300001092240210922302E0919902F0919A0205
:1033100009958091230281110FC081E080932302DF
:103320001092030209C0803C09F4A6CF883C09F43E
:10333000A3CF883B09F07DCFE091240281E08E0F7E
:1033400080932402F0E0ED5FFD4F80818093BB000D
:10335000909124028091230229C080914605809398
:10336000BB0085EC8093BC0064CF909148058091B0
:103370004705981758F5E091480581E08E0F809336
:103380004805F0E0EB5DFA4F8081E9CFE091480518
:1033900081E08E0F809348058091BB00F0E0EB5DEB
:1033A000FA4F808390914805809147059817C8F29D
:1033B00085E8D8CFE091480581E08E0F80934805DD
:1033C0008091BB00F0E0EB5DFA4F808380914A056D
:1033D00081115CCF81E08093450584EA8093BC0035
:1033E00010926B0526CF85EC8093BC0010926B0584
:1033F00080914502803230F4E0914502F0E0EB5DCF
:10340000FD4F10826091450270E0E0919702F091CB
:10341000980285E292E00995109245020ACF109237
:10342000490534CF1F920F920FB60F9211242F939C
:103430003F934F935F936F937F938F939F93AF933C
:10344000BF93CF93DF93EF93FF932091310630E04A
:10345000F901EA58FE4F8491F901EB56FD4FD491E2
:10346000F901EF57FD4FC491CC2379F081110E94EF
:10347000A103EC2FF0E0EE0FFF1FE359FD4FA591E4
:10348000B491EC91ED2381E009F480E020913606BF
:10349000309137062F5F3F4F309337062093360623
:1034A00020913406309135062536310518F094E028
:1034B0009093300690913006911130C0811169C00F
:1034C00020913606309137062436310528F41092C3
:1034D0003706109236065DC010920207109235062C
:1034E000109234062091340630913506A9014F5FC1
:1034F0005F4F509335064093340640913606509105
:103500003706220F331FF901E85CF94F51834083DE
:10351000109237061092360691E021C09091300645
:10352000913001F58130A9F52091340630913506AE
:10353000A9014F5F5F4F5093350640933406409189
:10354000360650913706220F331FF901E85CF94F18
:1035500051834083109237061092360692E0909382
:10356000300617C090913006923061F4882309F438
:10357000B9CF20913606309137062536310548F00F
:1035800093E0EDCF90913006933099F4882309F4BD
:103590009ECF909133069923A9F0811126C0809186
:1035A0003206882371F08091320661E00E94CA03DE
:1035B00009C090913006943061F791E09093020732
:1035C000DFCF2D9AFF91EF91DF91CF91BF91AF9116
:1035D0009F918F917F916F915F914F913F912F912B
:1035E0000F900FBE0F901F90189580913206882380
:1035F00021F08091320660E0D9CF2D98E3CFCF92B1
:10360000DF92EF92FF92CF93DF93109274051092A6
:10361000730598EEC92E93E0D92EE12CF12CC092BF
:103620007505D0927605E0927705F09278058CE3E7
:1036300091E0909372058093710585EC90E09093F2
:103640007E0580937D0584EC90E0909380058093C7
:103650007F0580EC90E0909382058093810581EC5A
:1036600090E0909384058093830582EC90E09093A2
:1036700086058093850586EC90E09093880580937D
:10368000870510928A0510928B0510928C05109276
:103690008D05C4E2D6E01092270610922606C0924D
:1036A0002806D0922906E0922A06F0922B068EE494
:1036B00091E0909325068093240680E691E0909314
:1036C0000F0680930E06D0931106C09310068FEF5D
:1036D0009FEF909313068093120610921406109297
:1036E00015061092160610921706109219061092DF
:1036F000180610921B0610921A0610921D061092C0
:103700001C0610921F0610921E0624E130E0309332
:10371000210620932006909323068093220684E0BE
:10372000809331061092330668E971E089E397E0EF
:103730000E943514E8E2F7E081E1DF011D928A95ED
:10374000E9F780E480932207D0932407C0932307EE
:103750001092060710920507C0920707D09208073B
:10376000E0920907F0920A0788E691E09093040737
:103770008093030710921A071092190710921C07E2
:1037800010921B0710921E0710921D07109220071F
:1037900010921F07609121076E7F6D7F6093210754
:1037A0006695617081E0682789E00E94CA0361E044
:1037B00089E00E942404EEE9F2E0E491E09313072B
:1037C000EAE8F2E0E491F0E0EE0FFF1FE958FD4F68
:1037D00085919491909315078093140760E088E099
:1037E0000E9424048091210781FD04C061E088E0EB
:1037F0000E94CA0388E080930F07EDE9F2E0E491AC
:10380000E0931007E9E8F2E0E491F0E0EE0FFF1F2B
:10381000E359FD4F8591949190931207809311077E
:10382000DF91CF91FF90EF90DF90CF900895CF93ED
:10383000DF93CDB7DEB7E0970FB6F894DEBF0FBECB
:10384000CDBF789484B5826084BD84B5816084BD29
:1038500085B5826085BD85B5816085BD80916E002E
:10386000816080936E00109281008091810082605F
:10387000809381008091810081608093810080919C
:1038800080008160809380008091B100846080938B
:10389000B1008091B00081608093B00080917A0087
:1038A000846080937A0080917A00826080937A00AD
:1038B00080917A00816080937A0080917A0080689C
:1038C00080937A001092C100E0918105F091820509
:1038D00082E08083E0917D05F0917E051082E09189
:1038E0007F05F091800580E1808310928905E09149
:1038F0008505F091860586E08083E0918305F0914F
:103900008405808180618083E0918305F091840546
:10391000808188608083E0918305F09184058081B7
:1039200080688083E0918305F091840580818F7D9C
:10393000808385E090E0A0E0B0E0809375059093EF
:103940007605A0937705B093780510923203109214
:10395000310310922205109221050E94D0058EE5B8
:1039600092E090939A02809399028FE592E090936F
:1039700098028093970288E08093B800EE24E39445
:1039800010E000E020E030E048E452E460E070E065
:1039900080EA91E40E94AC148BE60E94320B82ED27
:1039A00091E00E94F20A8BEC91E00E94F20A82EC14
:1039B00091E00E94F20A8AE191E00E94750C88234E
:1039C00021F08FEF93E00E9422178BE891E00E9494
:1039D0006603B6E1EB2EB3E0FB2E00E110E0C80178
:1039E0000E94750CD7018D937D010F5F1F4F003230
:1039F0001105A9F71092320310923103109222059B
:103A0000109221050E94D0058EE592E090939A02D3
:103A1000809399028FE592E09093980280939702A9
:103A200040E860E082E297E00E9447086AE070E0C8
:103A300080E090E00E948C0440E050E06AE774E48B
:103A400082E297E00E94620980E498E7ADE7B1E086
:103A50008093250790932607A0932707B093280704
:103A600083E191E00E94770D092E000CAA0BBB0B9D
:103A700080939B0290939C02A0939D02B0939E0220
:103A8000885D9945A109B10985399141A105B10523
:103A900060F088EA91E6A0E0B0E080939B0290930A
:103AA0009C02A0939D02B0939E0260919B02709134
:103AB0009C0280919D0290919E020E94A52D20E083
:103AC00030E04AE754E40E94E42F6B017C014B0193
:103AD0005C01AC019B010E9428316BE971E081110E
:103AE0001BC026013701E89477F82FEF3FEF4FE72F
:103AF0005FE7C301B2010E942831811157C02FEF47
:103B00003FEF4FE75FE7C301B2010E949E2D1816F9
:103B10000CF04CC06FE971E081E795E00E94750AF6
:103B200081E795E00E94CA0A20919B0230919C0295
:103B300040919D0250919E02A8EEB3E00E94F72EA4
:103B40006B017C0140E050E060E773E482E297E0C3
:103B50000E946209C0922B07D0922C07E0922D0799
:103B6000F0922E07C0922507D0922607E0922707F1
:103B7000F09228070E94B70882E991E00E94F20AB9
:103B800090E080E08C010F5F1F4F805C9E4F0E9491
:103B9000750C080F111DC801805C9E4F0E94750CAA
:103BA0008E3409F47CC0C8010496ECCF2FEF3FEFB0
:103BB0004FE75FE4C701B6010E94CB3018161CF432
:103BC00063EA71E0A9CF2FEF3FEF4FE75FECC7014A
:103BD000B6010E949E2D87FDF3CF20E030E0A901C1
:103BE000C701B6010E949E2D87FF0BC06DE281E7E1
:103BF00095E00E94720246015701B7FAB094B7F8F7
:103C0000B0942AE037ED43EA5BE3C501B4010E94BA
:103C1000732F4B015C010E945D306B017C010E949F
:103C2000A32D9B01AC01C501B4010E94722F4B0171
:103C30005C014AE0C701B6010E94840A6EE281E796
:103C400095E00E94720220E030E040E251E4C501BC
:103C5000B4010E94042E4B015C010E945D306B0197
:103C6000F12CE12C4AE0C701B6010E94840AC70189
:103C7000B6010E94A32D9B01AC01C501B4010E94B5
:103C8000722F20E030E040E251E40E94042E0E94B6
:103C90005D3090E080E04AE00E94840A41CF68E015
:103CA00071E0C8018E5B9E4F0E944E0CF8941092FA
:103CB000800089E08093810080E293E09093890006
:103CC00080938800109285001092840082E0809397
:103CD0006F007894109230061092350610923406D8
:103CE0008091310660E00E94240464E070E089E382
:103CF00097E00E946E1361E083E00E94240486E056
:103D000090E00E943E2B8C01DC0111961C921E92C9
:103D100013961C921E92129715961C921E9214973F
:103D200088E991E00E94F20A10932C0300932B0380
:103D300080EB91E00E94F20A10921E0710921D077C
:103D400010921C0710921B0710921A071092190765
:103D50008DE991E09093200780931F0790910F07C2
:103D6000963108F047C02DEB30E030931A072093CE
:103D700019072BE931E030931C0720931B072CE235
:103D800031E030931E0720931D072091680084E0E6
:103D9000983048F031E09E3008F430E081E001C016
:103DA000880F3A95EAF7822B809368002DE630E081
:103DB000983050F02BE630E09E3030F02CE630E0CA
:103DC000963110F030E020E030931707209316076B
:103DD000292F30E0983008F07AC181E001C0880FC7
:103DE0009A95EAF78093180780911F079091200712
:103DF0000197F1F780911D0790911E07892B49F1DA
:103E0000E091A102F091A202B7E0E330FB0709F1D3
:103E1000309739F0A389B4899C918589809589234D
:103E20008C93809121078E7F809321071092A002AE
:103E300010929F0283E097E09093A2028093A102E8
:103E4000E0911607F0911707808190911807892B50
:103E5000808385E090E0A0E0B0E080930707909336
:103E60000807A0930907B0930A078AE090E09093AF
:103E7000BC028093BB028EE991E00E94F20A80911D
:103E8000BB029091BC020E94000B80E10E9455048D
:103E9000BC01990F880B990B61157105810591057E
:103EA00011F00E94FE2C8EE091E00E94A00E64EFC3
:103EB00071E080E090E00E948C041092C2028BEBD3
:103EC00091E00E94F20AA8EE2A2EA3E03A2E0E9468
:103ED000BF0428E833E140E050E00E94412F809188
:103EE000010190910201092E000CAA0BBB0B821755
:103EF0009307A407B5070CF04DC079013093020178
:103F00002093010185E10E9455048C018A3892407A
:103F1000ECF58091A3029091A4020817190721F0F3
:103F2000F2E0EF16F10494F58DED91E00E94660346
:103F3000C80163E670E00E9476326B01072E000C28
:103F4000EE08FF0877FFD0C06DE281E795E00E94A0
:103F5000720266277727CB016C197D098E099F09AC
:103F60004AE00E94840A86E50E94320B8AE191E0D1
:103F70000E94750C882321F081ED93E00E942217A6
:103F800060ED77E080E090E00E948C041093A40242
:103F90000093A30200912B0310912C03D8018D9163
:103FA0009C91892B09F0A4C00E94BF04C090A50277
:103FB000D090A602E090A702F090A8026C197D09AB
:103FC0008E099F09C0900301D0900401E090050183
:103FD000F0900601C616D706E806F9060CF088C070
:103FE0008091C1028111EDC188E396E09093B60201
:103FF0008093B50280913406909135069093B80273
:104000008093B7028091020790E09093BA02809368
:10401000B90280913006833009F0D3C180913A060D
:1040200090913B06875891098E35910508F0C3C1E0
:104030008091340690913506049709F08BC18091E8
:104040003C0690913D068097479708F083C1809188
:104050003E0690913F060997099708F07BC11092A0
:10406000B4021092B3028FEF9FEFDC018093AD0298
:104070009093AE02A093AF02B093B00283E090E0C1
:104080009093AA028093A9028091AD029091AE0212
:10409000A091AF02B091B002892F9A2FAB2FBB270E
:1040A0008A3509F42BC308F0E2C2823209F40EC348
:1040B00008F0C7C2803109F41EC308F078C268E175
:1040C00072E0823009F47BC26DEC71E022C39E3055
:1040D00040F42850310981E001C0880F2A95EAF7A1
:1040E00081CE2E503109F7CF4AE0C701B60139CF52
:1040F000F80180819181181619060CF08FC00E947A
:10410000BF04C090A502D090A602E090A702F09054
:10411000A8026C197D098E099F09C0900301D090F7
:104120000401E0900501F0900601C616D706E806E6
:10413000F9060CF073C0D8011296ED91FC91F12CA8
:10414000E12C309711F0E080F180F701408140933D
:104150003303638174817093270360932603858101
:104160009681092E000CAA0BBB0B80930301909340
:104170000401A0930501B093060181819281A7E318
:10418000B3E09D0127533340261737072CF4FC0179
:104190002191CF012D93F5CF41548EE74A3108F09C
:1041A00080E0FB01E95CFC4F80830E94BF046093C8
:1041B000A5027093A6028093A7029093A80285E0BF
:1041C00080932A03E114F10459F0D70111968D91DF
:1041D0009C91009711F00E94DA2BC7010E94DA2B04
:1041E000F80182819381009711F40C94162BDC0165
:1041F0001296ED91FC91D8011396FC93EE931297D1
:10420000309709F4A5C0158214820E94DA2BD801D8
:104210008D919C91119701978D939C9310912A03F6
:10422000112309F49BC400913303802F002E000C4E
:10423000990B0E946133F82E809329031530D8F42E
:10424000B2E68B17C1F00C34B1F00934A1F0612F44
:1042500070E0615F7F4F072E000C880B990B0E9466
:10426000A52DEE24E39410E000E020E030E040EAE9
:1042700050E40E94AC1480910B01882349F0EBE6D6
:10428000FE1206C088EF9BE00E94050A10920B0107
:10429000809128038356823050F480913303833613
:1042A00031F081E080930A0187E40E94320B809113
:1042B0003303803751F080910901811106C081E0FC
:1042C0008093090180E70E94320B10913303E1ECE7
:1042D000E10FE53308F01FC40E2E000CFF0BED5864
:1042E000FE4D0C948A3283258B258B2548288B25FF
:1042F0008B258B258B251E268B25B3278B25A72861
:104300003D28B3278B258B258B258B258B258B254E
:1043100091288B258B258B258B258B258B258B2514
:104320008B258B258B258B258B25DF26F626F626E0
:1043300032298B258B251E268B25F6263726182914
:104340008B25F6268B258B2525268B258B258626EA
:10435000F80159CF80913406909135068434910547
:1043600050F180913C0690913D06815491098F97C0
:1043700010F590E080E040E050E0BA01FC01E25C22
:10438000F94F20813181295031092930310598F4C4
:10439000FC01E05CF94F2081318127513109223144
:1043A000310508F4E6C020813181265031092730DB
:1043B000310508F4F7C010923006109235061092BD
:1043C000340681E795E00E94D702181619060CF012
:1043D00075C081E08093C10281E795E00E94B5023B
:1043E000B82E80933303082E000C990B0E94613382
:1043F000182F8093290382E080932A0361E070E004
:1044000080E090E00E948C04BFEBBB0DBDA72EE7BF
:10441000A22EBA3110F09AE0A92E0E94BF042B01FF
:104420003C01EBE4BE1621F085E090E0123611F479
:1044300088EC90E01B7F18AB6C01990FEE08FF0829
:1044400081E795E00E94D702892B09F439C20091D7
:10445000260310912703FBE6BF1619F028A9293679
:1044600039F480910C0190910D01081719072CF473
:10447000033D81E018070CF409C283E292E00E9438
:10448000F20A64EF71E080E090E00E948C0481E722
:1044900095E00E94B50281E795E00E94D702892B42
:1044A000B1F7809133030E94320B8BE68093330384
:1044B0006EEB71E087E393E00E947B3380913303DE
:1044C0008835B1F580913703813491F5E0E0AE2F66
:1044D000B0E0A95CBC4F8C91EF5F8E37C1F7F0E084
:1044E000EA5CFC4F108268E583E097E00E9472026C
:1044F00067E373E083E097E00E94580B83E097E066
:104500000E944005892B31F083E097E00E94560518
:10451000892BA1F761EC71E087E393E00E9472338D
:10452000892B09F0FDC181E0809308010E940B0CEA
:1045300083E097E00E944005892B09F40EC26DECE0
:1045400071E0CE0101960E9435140E94770597FD17
:10455000F3C18A30910509F4EFC189A31AA241E0A1
:1045600050E0BE016F5D7F4FCE0101960E94961311
:10457000ECCF440F551F661F771F416004968038AB
:10458000910509F0FBCE80E290E09093B402809315
:10459000B3024093AD025093AE026093AF027093AA
:1045A000B0026CCD440F551F661F771FE7CF8231D5
:1045B00009F4ADC060E072E0883109F085CDCE012C
:1045C00081960E9446146AEA71E0CE0181960E94AB
:1045D000600A882309F4A2C06BE871E089E397E0E0
:1045E0000E94FF1369E377E0CE0187960E94E313F0
:1045F000CE0181960E94030C6DEC71E0CE0187968E
:104600000E94600A811112C08BA59CA5019709F038
:1046100027C170E060E0CE0187960E946002DC0155
:104620008C918093330381E080932A0310923006AB
:104630001092350610923406CE0187960E94030C24
:10464000C0CE823409F45DC048F4803309F44DC013
:1046500066EF71E0883309F4B2CF36CD8A3409F4BD
:1046600053C068EE71E0823509F4A9CF2DCD823AAE
:1046700039F198F48A37E1F140F4823621F16DE0A6
:1046800072E0883609F49BCF1FCD803959F16AE07A
:1046900072E0883909F493CF17CD823CD1F040F411
:1046A000883AE9F067E072E0803B09F488CF0CCDEE
:1046B000803E91F06DE172E0823E09F480CF04CD3E
:1046C00061E272E07CCF6FE172E079CF6BE172E082
:1046D00076CF66E172E073CF64E172E070CF62E1A1
:1046E00072E06DCF60E172E06ACF64E072E067CFA4
:1046F0006CEF71E064CF69EF71E061CF62EF71E060
:104700005ECF6FEE71E05BCF6AEE71E058CF67EA83
:1047100071E0CE0181960E94351455CF6CEA71E0AC
:10472000CE0181960E94600A811110C06EEA71E08C
:10473000CE0181960E94600A811108C060EB71E091
:10474000CE0181960E94600A8823E9F170E060E062
:10475000CE0181960E946002FC0110811093070136
:10476000163471F46BE871E089E397E00E94600A07
:10477000882331F068E971E089E397E00E94FF1334
:1047800069E377E0CE0101960E94E3131FA318A608
:1047900041E050E0BE01695D7F4FCE0101960E946D
:1047A0009613811104C0CE0101960E94F10BBE0147
:1047B0006F5F7F4FCE0187960E94E313CE01019673
:1047C0000E94030C15CF62EB71E0CE0181960E942E
:1047D000600A09A11AA1811131C065EB71E0CE0117
:1047E00081960E94600A811129C068EB71E0CE01B8
:1047F00081960E94600A811121C068E971E0CE01B2
:1048000081960E94600A811119C06BEB71E0CE01A4
:1048100081960E94600A811111C018A70FA38BA175
:104820009CA19AA789A78DA19EA19CA78BA71AA23C
:1048300019A21CA21BA21EA21DA2DACE01151105EF
:1048400051F04DA15EA1B80189E397E00E94C21327
:104850001091070195CF89E397E00E94F10BF8CF03
:104860008BE6809333036FA178A587E393E00E94E2
:104870007B336EEB71E087E393E00E947233892B08
:1048800009F0D1CE86E480930701CDCE81E795E093
:104890000E94B50298012F5F3F4F3093270320936A
:1048A0002603F801E95CFC4F808381E795E00E94D4
:1048B000D702892B09F0CBCD0E94BF042B013C010C
:1048C0000091260310912703480191E0891A91086D
:1048D000D401A95CBC4FBFA7AEA78C918A1561F02B
:1048E0000E94BF0464197509860997096C157D0536
:1048F0008E059F050CF4A4CDEEA5FFA58081A8121E
:1049000001C084011093270300932603FDA58EE7C1
:10491000FA3108F080E0F801E95CFC4F8083CECDED
:1049200064EC71E087E393E00E947233892B09F015
:10493000FDCD10920801FACD62E070E0CE01019643
:104940000E946002DC011C911334F1F481E0809339
:104950000801CE0101960E94030C0E94BF04209121
:104960002A032150223008F0B4C00E94BF046854CA
:10497000744F8F4F9F4F6093BD027093BE02809320
:10498000BF029093C0024ACC143419F4109208016B
:10499000E0CF1B30F0F2153108F08CC01B50612FB6
:1049A00070E090E080E04AE00E94840A69E081E7DC
:1049B00095E00E947202E12FF0E08091BB0290919D
:1049C000BC02E817F9070CF06EC0EE0FFF1FE65DA2
:1049D000FD4F6591749187E393E00E94252D009728
:1049E00009F45CC0BC01CE0101960E94FF1367E38D
:1049F00073E081E795E00E94580B70E060E0CE0123
:104A000001960E946002FC0180818093330381E063
:104A100090E020910801222309F49BCF09811A819B
:104A2000080F191FC0902B03D0902C03A801181653
:104A3000190614F04DEC51E020ED37E0609133039E
:104A4000C6010E946A0BF80101900020E9F7319736
:104A50007F01E01AF10A6BE871E0C8010E9472332D
:104A6000892B99F06CE771E0C8010E947233892BA1
:104A700061F00E0D1F1DF801319780819FEB980F9B
:104A80009A3118F0883709F064CF30E020E04EEB1F
:104A900051E06BE6C6010E946A0B5BCFCE01019626
:104AA0000E94F10BA4CF87E292E00E94F20A8FEFFE
:104AB0009FEFAFCF1D33D8F763E070E0CE010196D2
:104AC0000E946002DC018C918093330384E090E0CB
:104AD000A0CF20913303233609F4A0CB0091BD026F
:104AE0001091BE022091BF023091C002601B710B79
:104AF000820B930B16161706180619060CF08ECBB0
:104B00001092C1028BCB86E692E00E94F20A8DE5FC
:104B100092E00E94F20A809133038B3621F4909147
:104B20000F051916CCF40E94320B809128038B36A6
:104B300099F4809133038A3661F0803751F0809187
:104B40002903873631F0982F9B7F993611F08637ED
:104B500019F48BE6809333030E940B0C809133038E
:104B60008B3609F072C4E0900F05E7FE94C3809184
:104B70001D05DD24DA94D80E823008F4D12C10E023
:104B80003EECC32E42E3B42E212F30E080910F057E
:104B9000082E000C990B97FF03C091958195910900
:104BA000281739070CF036C4E0901F05F090200557
:104BB00080911505189FE00CF11C1124D701509627
:104BC0006C91062E000C770B880B990B0E94A52D7B
:104BD00020E030E040E85EE30E94042E9B01AC013F
:104BE00000E060911A05C7010E94341080911505FC
:104BF000E0911F05F0912005189FE00DF11D112493
:104C0000618916160CF042C3BB2D6B02B001112452
:104C1000072E000C880B990B0E948C04DD2061F09C
:104C2000112351F080911C05181306C010911B052B
:104C300011501D140CF4DA941F5FA6CF87E61734C9
:104C400009F069CF8093330366CF8091090191E029
:104C5000811190E090930901811110E510933303C5
:104C6000811102C08BE6EECF0E94B70854CF6DE3EE
:104C700081E795E00E9472028091260390912703BC
:104C8000892B71F087E393E00E94072D880F991F0D
:104C9000FC01E25FFE4F808191810E94000B3BCFBF
:104CA0000E94CE0A6DEC71E0CE0181960E9435140F
:104CB0001EE0E12E11E0F12E0EE211E0D7016D9120
:104CC0007D917D01CE0101960E9409144D815E8186
:104CD00069817A81CE0181960E949613CE01019658
:104CE0000E94030C42E050E06BEC71E0CE01819633
:104CF0000E9496130E151F0509F7CE0181960E949A
:104D0000430BCE0181960E94030C05CF87E592E00C
:104D10000E94F20AA6E1CA2EA3E0DA2EB0E4EB2E3E
:104D2000F12C00E110E0F601B1906F01C8010E9482
:104D3000C22EB81621F06B2DC8010E94CA2EC701E1
:104D40000E94770D3C01C80180960E94750C582E78
:104D5000F60131976081062E000C770B880B990BBA
:104D60000E94A52D4B015C01652D550C770B880B1E
:104D7000990B0E94A52D9B01AC01C501B4010E94B5
:104D8000042E4B015C01B301770C880B990B0E9438
:104D9000A52D9B01AC01C501B4010E94732F0E9497
:104DA0005630C70180960E944E0C0F5F1F4FF2E0F5
:104DB000EF0EF11C0032110509F0B5CFACCE8FE437
:104DC00092E00E94F20A06E113E0F0E1EF2EF12CEE
:104DD000C7010E94750CD8018D938D01BFEFEB1AAE
:104DE000FB0AE0E2EE16F10499F795CE193649F484
:104DF0008091260390912703892B19F41092340394
:104E00008ACE1092150370900A017EE0C72E71E0E1
:104E1000D72ECE0101967C0105ED12E0EEE28E2E3A
:104E2000E1E09E2E5C01D6016D917D916D01072E12
:104E3000000C880B990B0E94A52D20E030E0A90101
:104E4000772029F0F80120813181428153810E942D
:104E5000722F0E945630D7016D937D937D010C5FB8
:104E60001F4F8C149D04F9F667EC71E087E393E023
:104E70000E94352D6C01C114D10409F447C0C6014C
:104E80000E94072D8C016AEC71E090E080E00E94A6
:104E9000352D6C01F12CE12C88248394912C009702
:104EA00069F00E94072D7C016AEC71E090E080E0DF
:104EB0000E94352D6C0162E0862E912C8091330387
:104EC000982F9B7F993609F0FAC20031110598F4AA
:104ED0009801220F331FF501E20FF31FF182E082E8
:104EE00004301105D4F423533D4FF901F182E082DF
:104EF00091E0909334038D3609F07AC340E050E09E
:104F000060E070E4C5010E94BC0E72C3F12CE12C7C
:104F100010E000E0912C812CD1CF91E0909315030B
:104F2000EACF823609F064C3E114F10409F460C3E6
:104F3000C101B7010E947632072E000C880B990B35
:104F40000E94A52D2B013C01B801110F880B990B74
:104F50000E94A52DEE24E39410E000E0A30192014D
:104F60000E94AC1445C380912603909127030297B9
:104F70000CF444CF1092150370900A01FEE0AF2E9E
:104F8000F1E0BF2ECE0101966C01A5EDEA2EA2E064
:104F9000FA2EBEE28B2EB1E09B2E8C01D5016D91D5
:104FA0007D915D01072E000C880B990B0E94A52DA9
:104FB00020E030E0A901772029F0F701208131813C
:104FC000428153810E94722F0E945630D6016D9308
:104FD0007D936D01B4E0EB0EF11C8A149B04F1F695
:104FE000E7E3EE2EE3E0FE2EDD24D39420912603AA
:104FF00030912703C70187539340821793075CF5CD
:10500000F70140814031A8F42181022E000C330BBE
:10501000842F880F990BF801E80FF91F3183208343
:105020004430B4F483539D4FDC012D933C93D092D4
:105030003403809133038D3439F440E050E060E074
:1050400070E4C8010E94BC0EB2E0EB0EF11CCECFA2
:10505000D0921503EECF80911503811105C0809188
:1050600028038B3609F457CD40E050E060E870E447
:10507000C8010E94BC0EC801D6C200E020E030E0AA
:1050800040E050E461E087E393E00E94341043CDB8
:10509000C0902603D0902703E2E0CE16D1048CF115
:1050A000D594C794F12C0F2D10E00C151D050CF0B4
:1050B000C3C2000F111F095C1C4FD80111966C91DF
:1050C000062E000C770BC1010E947632072E000CD1
:1050D000880B990B0E94A52D4B015C01F8016081A2
:1050E000062E000C770B880B990B0E94A52DEE2441
:1050F000E39410E000E0A50194010E94AC14F39445
:10510000D2CF8AE191E00E94750C2AE131E03A8326
:10511000298361E0811160E0CE0101960E94350C87
:10512000FACC86E191E00E94770D0E94C5080E94AA
:10513000D611809133030E94320B8BE680933303A8
:105140006EEC71E087E393E00E947B33E4CC86E170
:1051500091E00E94770D7C018091370380930F05C9
:105160000E94810101966C018E0D9F1D10E000E0F0
:105170008F3F9F41A8F08EE392E00E94F20A55E033
:10518000E52E04E610E020E030E048EC52E460E078
:1051900070E080E291E40E94AC140E94D611CDCF61
:1051A0001C141D04D4F721E02093240584E580938A
:1051B000230510922205109221056F2D70E084E2E4
:1051C00096E00E947708B701772784E296E00E9474
:1051D00077083801D801A95CBC4F4D012801B0E126
:1051E0004B0E511C0F5F1F4FF40161914F0184E280
:1051F00096E00E942D075801AE0CBF1CA618B708F8
:10520000F1E0CF1AD10841F0C5018F719927892BA0
:1052100019F04016510631F784E296E00E945C07CF
:1052200066E070E080E090E00E948C047501B8CFE9
:1052300067E373E08CE791E00E947233892B69F099
:1052400067E373E082EC92E00E947233892B29F4C9
:1052500080910F0582300CF0EDC187E393E00E944E
:10526000EB1159CC62ED71E087E393E00E947B3350
:1052700087E393E00E94EB110E94B70810920A01A5
:105280001092340387E60E94320B45CCEC2D6E025F
:10529000B0011124BDCC2E2D0E2C000C330B8091AF
:1052A0000B05803108F44DC010920B058091090167
:1052B0004091350350913603840F952F911D82172D
:1052C0009307DCF5909336038093350380910B05AB
:1052D000843019F488E080930B05F0900B050F2DB6
:1052E00010E0F1E0FE15ACF580911E05F816D8F13E
:1052F000409115052091350330913603429FC0013E
:10530000439F900D112420911E05080F191F021BA9
:10531000110980911F0590912005080F191F6091B8
:105320001A05D8012C912603B0011124072E000C78
:10533000880B990B0E94A52D63C010923603109222
:10534000350380910B05823009F688E080930B05C8
:10535000BDCF2130310561F623E02F1548F2809151
:105360003403882329F28091340381117EC083E0C5
:105370008F1508F47AC091E0812C912C5401F91614
:1053800059F060910E05062E000C770B880B990BD7
:105390000E94A52D4B015C010E5F1F4F80913503CC
:1053A00090913603089FB001099F700D189F700DF2
:1053B0001124072E000C880B990B0E94A52D2BEDB4
:1053C0003FE049E450E40E94042E2B013C016E2D85
:1053D000EE0C770B880B990B0E94A52D9B01AC015D
:1053E000C301B2010E94E42F0E94203120E030E08E
:1053F00040E251E40E94042EA50194010E94732F03
:10540000AB01BC018F2D0E94FA0D80910B058F5FBF
:1054100080930B0583E49DE00197F1F780910F05E0
:1054200087FF13C08EE091E00E940A02E5EDF2E0F2
:1054300085E193E011921192119211928E179F07BC
:10544000C9F7809133030E94320B80E090E0892BF2
:1054500011F40C94671F0E94E302882311F40C944A
:10546000671F0E9400000C94671FF801EE0FFF1FDA
:10547000E353FD4F60817181072E000C880B990B5F
:105480000E94A52D4B015C0160910A0170E090E043
:1054900080E00E94A52D000F111F000F111FF801C1
:1054A000EB52FD4F20813181428153810E94042EB5
:1054B0009B01AC01C501B4010E94722FA1CF8336BC
:1054C00009F02FCD10920A0180912803833689F0CC
:1054D00088E79CE00E94050A81E080930B0162E965
:1054E00071E087E393E00E947B3387E393E00E94BF
:1054F000EB11C8018A5E9C4F3C0192E08916910431
:1055000011F4D301EC92C8018096880F991F0E9474
:10551000770D7C01C8019927C0960E94750C182F41
:10552000F3016081062E000C770B880B990B0E940B
:10553000A52D2B013C01612F110F770B880B990BC7
:105540000E94A52D9B01AC01C301B2010E94042E53
:105550002B013C01B701FF0C880B990B0E94A52D74
:105560009B01AC01C301B2010E94732F0E9456300F
:10557000072E000C880B990B0E94A52DAB01BC01D6
:10558000802F0E948B0D0E94CE0A6DEC71E0CE013F
:1055900087960E94351406E113E0D8016D918D01C4
:1055A000062E000C770BCE0181960E9409144DA1A6
:1055B0005EA169A17AA1CE0187960E949613CE01C1
:1055C00081960E94030C42E050E06BEC71E0CE014A
:1055D00087960E949613E6E2F3E0E017F107E9F6FA
:1055E000CE0187960E94430BCE0187960E94030C42
:1055F000C114D10409F03FCC809133038B7F8936ED
:1056000009F089CA80911503811105C08091280392
:105610008B3609F480CA40E050E060E870E4C501D0
:105620000E94BC0EC5010E940A0275CA10912A038D
:105630000C941321812F73CA8091330374CA88E6B6
:1056400091E090930407809303078091A1029091C9
:10565000A2028350974071F4E0911607F09117076A
:105660009081809118078095892380831092A202EF
:105670001092A10289E397E00C94030C0F931F93FF
:10568000CF93DF938230910510F482E090E0E091B7
:105690004307F091440730E020E0B0E0A0E030970D
:1056A00099F42115310509F44AC0281B390B24301F
:1056B0003105D8F58A819B816115710589F1FB015E
:1056C00093838283FE0111C0408151810281138145
:1056D00048175907E0F04817590799F4109761F0F7
:1056E00012960C93129713961C933296CF01DF916A
:1056F000CF911F910F910895009343071093440792
:10570000F4CF2115310551F04217530738F0A901A4
:10571000DB019A01BD01DF01F801C1CFEF01F9CF33
:105720009093440780934307CDCFFE01E20FF31F10
:10573000819391932250310939832883D7CF2091C7
:10574000410730914207232B41F4209130013091E1
:105750003101309342072093410720912E0130916F
:105760002F012115310541F42DB73EB7409132018B
:1057700050913301241B350BE0914107F091420712
:10578000E217F307A0F42E1B3F0B2817390778F018
:10579000AC014E5F5F4F2417350748F04E0F5F1F77
:1057A0005093420740934107819391939FCFF0E03C
:1057B000E0E09CCFCF93DF930097E9F0FC013297B4
:1057C00013821282A0914307B0914407ED0130E0AB
:1057D00020E01097A1F420813181820F931F209146
:1057E0004107309142072817390709F061C0F0934B
:1057F0004207E0934107DF91CF910895EA01CE1768
:10580000DF07E8F54A815B819E0141155105B1F73B
:10581000E901FB83EA8349915991C40FD51FEC1725
:10582000FD0761F4808191810296840F951FE90143
:1058300099838883828193819B838A83F0E0E0E06F
:1058400012968D919C9113970097B9F52D913C91EB
:105850001197CD010296820F931F2091410730913D
:1058600042072817390739F6309751F51092440747
:1058700010924307B0934207A0934107BCCFD38354
:10588000C28340815181840F951FC817D90761F4E5
:105890004E5F5F4F88819981480F591F5183408324
:1058A0008A819B81938382832115310509F0B0CFD2
:1058B000F0934407E09343079ECFFD01DC01C0CF86
:1058C00013821282D7CF8F929F92AF92BF92CF92C4
:1058D000DF92EF92FF92CF93DF93EC0168817981A1
:1058E0008A819B81611571058105910521F464E22E
:1058F00079ED8BE597E02DE133EF41E050E00E9438
:10590000D82E49015A019B01AC01A7EAB1E40E94DB
:10591000F72E6B017C01ACEEB4EFA50194010E945F
:10592000052FC60ED71EE81EF91EF7FE06C081E041
:10593000C81AD108E10880E8F80AC882D982EA8248
:10594000FB82C701B6019F77DF91CF91FF90EF9067
:10595000DF90CF90BF90AF909F908F9008958F92DF
:105960009F92AF92BF92CF92DF92EF92FF9260919F
:1059700034017091350180913601909137016115A4
:1059800071058105910521F464E279ED8BE597E0DD
:105990002DE133EF41E050E00E94D82E49015A0139
:1059A0009B01AC01A7EAB1E40E94F72E6B017C01D8
:1059B000ACEEB4EFA50194010E94052FC60ED71ED0
:1059C000E81EF91EF7FE06C081E0C81AD108E108FA
:1059D00080E8F80AC0923401D0923501E092360195
:1059E000F0923701C701B6019F77FF90EF90DF90EB
:1059F000CF90BF90AF909F908F90089560933401A7
:105A00007093350180933601909337010895FC011E
:105A100088279927E89421912032E9F3293010F062
:105A20002E30C8F32B3241F02D3239F4689404C083
:105A30000E946C2D820F911D219120532A30C0F3BA
:105A40001EF4909581959F4F0895FB01DC01059010
:105A50000D920020E1F70895FC0105900020E9F780
:105A6000809590958E0F9F1F08954FE357E00E94F9
:105A70003A2D0895FA01A191B081009719F4109779
:105A8000E1F0CD01DC01CD010D90002011F4C00149
:105A900013C0FB012191222319F02015D9F7F3CF70
:105AA000FB012191201519F41E92119606C02223A4
:105AB000C1F70D900020A1F7D001FA01A193B083A6
:105AC0000895BB274A3031F4992322F4BDE2909522
:105AD00081959F4F0C94752D7AE0979F902D879F0D
