:100000000C94B9010C94E1010C94E1010C94E10110
:100010000C94E1010C94E1010C94E1010C94FC19A5
:100020000C94E1010C94E1010C94E1010C94191C75
:100030000C94E1010C94E1010C94E1010C94E101B8
:100040000C94B01A0C94E1010C947E1A0C94581A7A
:100050000C94E1010C94E1010C94E1010C94E10198
:100060000C94FA1A0C94E10105A84CCDB2D44EB907
:100070003836A9020C50B9918688083CA6AAAA2A4B
:10008000BE000000803F07634236B79BD8A71A39ED
:10009000685618AEBAAB558C1D3CB7CC5763BD6DD6
:1000A000EDFD753EF6177231BF000000803F08007D
:1000B0000000BE922449123EABAAAA2ABECDCCCCE7
:1000C0004C3E00000080BEABAAAAAA3E0000000081
:1000D000BF000000803F0000000000084178D3BB53
:1000E0004387D1133D190E3CC3BD4282AD2B3E6800
:1000F000EC8276BED98FE1A93E4C80EFFFBE01C4F1
:10010000FF7F3F0000000000010000010000000030
:1001100000000000000000000000000000000000DF
:1001200023002600290000000000240027002A00E8
:1001300000000000250028002B000404040404042F
:100140000404020202020202030303030303010286
:100150000408102040800102040810200102040855
:100160001020000000080002010000030407000046
:1001700000000000000002536572766F3A00536B76
:10018000696C6C005461736B51004D5520696E6948
:100190007469616C697A65642061742030783630E6
:1001A0000054686520626174746572792073686FA9
:1001B000756C64206265207475726E6564206F6E64
:1001C00020746F2064726976652074686520736599
:1001D00072766F73005468656E20636F6E6E656330
:1001E00074207468652063616D65726120746F208E
:1001F000746865204932432047726F766520736FBB
:10020000636B657420776974682053444120616E84
:10021000642053434C2070696E7321005365742031
:1002200074686520666F7572206469616C207377ED
:10023000697463686573206F6E20746865206361FC
:100240006D6572612061732076205E2076207620B5
:1002500028746865207365636F6E642073776974B2
:100260006368206469616C656420757020746F2018
:1002700049324329004661696C656420746F2069C6
:100280006E697469616C697A652074686520636160
:100290006D65726121004D5520696E697469616CEC
:1002A000697A656420617420307835300052656168
:1002B000647921004E5F3234303730320042697445
:1002C000746C65000A2A205374617274202A0054E9
:1002D000007363726800636B007065650070750081
:1002E0006869007374720073697400747200776BCC
:1002F0000063720076740063004200700052007563
:1003000070004C006700460064004F564600756E52
:100310006B6E6F772062616C6C207479706500740D
:10032000656E6E6973007461626C652074656E6ED3
:100330006973004F56462120576F6E2774207361F2
:100340007665210061626F72746564007361766521
:1003500064004E5F32343037303200426974746C5E
:1003600065004C6F7720706F7765723A0000061D4C
:10037000433011241FBECFEFD8E0DEBFCDBF12E067
:10038000A0E0B1E0E6E6F1E702C005900D92AA31E7
:10039000B107D9F727E0AAE1B2E001C01D92A2356A
:1003A000B207E1F711E0C8EBD1E004C02197FE01EC
:1003B0000E94AF37C73BD107C9F70E94841D0C9438
:1003C000A6380C94000047E018160CF444E0409363
:1003D000340598E0823024F494E1813009F490E10E
:1003E00090933505282F880F330B37FF03C03195C5
:1003F00021953109929FB001939F700D1124CB017B
:10040000840F911D089580915803082E000C990BBC
:10041000909337058093360580915903082E000C80
:10042000990B909339058093380580915A038093F6
:100430003A0580912F0587FF0EC090915B03909342
:100440003B0590915C0390933C0590915D039093E4
:100450003D0590E005C08130E1F398E08230CCF3B7
:1004600090933E05082E000C990B97FF03C09195C1
:100470008195910940913505489F9001499F300D24
:10048000112482ED91E0821B930B90930E018093D7
:100490000D0160913405620F732F711D87E593E0A4
:1004A00050E040E0FC01E60FF71FA081FC01ED5297
:1004B000FE4FA0834F5F5F4F01972417350794F7D6
:1004C0008EE780932A058AE295E0821B930B909336
:1004D000400580933F050895CF93DF93DC0190960C
:1004E000FC0141E85FEF60E870E02191319126174F
:1004F00037070CF4B901421753070CF4A901EA17A6
:10050000FB0799F763387F4F1CF04E3751056CF1AC
:1005100022E020933A05DC012D913D91ED012297D7
:1005200037FF02C02F5F3F4F3595279539832883CA
:10053000AE17BF0789F7A0913F05B0914005EC01C8
:10054000288102962D938E179F07C9F781E080932B
:100550002F0510923E0580E18093350510925603D9
:1005600010925503DF91CF91089521E020933A0531
:10057000E2CF8091510390915203891B990B08950A
:1005800008950895AF92BF92CF92DF92EF92FF92BB
:100590000F931F93CF93DF936C017B018B01040FAB
:1005A000151FEB015E01AE18BF08C017D10759F047
:1005B0006991D601ED91FC910190F081E02DC60189
:1005C0000995892B79F7C501DF91CF911F910F9183
:1005D000FF90EF90DF90CF90BF90AF900895FC0117
:1005E000538D448D252F30E0842F90E0821B930B98
:1005F000541710F0CF96089501970895FC01918D3E
:10060000828D981761F0A28DAE0FBF2FB11D5D9640
:100610008C91928D9F5F9F73928F90E008958FEFE2
:100620009FEF0895FC01918D828D981731F0828D96
:10063000E80FF11D858D90E008958FEF9FEF0895ED
:10064000FC01918D228D892F90E0805C9F4F821B51
:1006500091098F739927089581E995E00E942003FD
:1006600021E0892B09F420E0822F089580E090E0BA
:10067000892B29F00E942C0381110C94000008950D
:10068000FC01A48DA80FB92FB11DA35ABF4F2C9107
:10069000848D90E001968F739927848FA689B789FE
:1006A0002C93A089B1898C91837080648C93938DF5
:1006B000848D981306C00288F389E02D80818F7D98
:1006C00080830895EF92FF920F931F93CF93DF9350
:1006D000EC0181E0888F9B8D8C8D98131AC0E8897E
:1006E000F989808185FF15C09FB7F894EE89FF894D
:1006F0006083E889F98980818370806480839FBFEB
:1007000081E090E0DF91CF911F910F91FF90EF90EA
:100710000895F62E0B8D10E00F5F1F4F0F731127FA
:10072000E02E8C8D8E110CC00FB607FCFACFE88935
:10073000F989808185FFF5CFCE010E944003F1CF7A
:10074000EB8DEC0FFD2FF11DE35AFF4FF0829FB7A9
:10075000F8940B8FEA89FB8980818062CFCF682F64
:1007600081E995E00C9462030F931F93CF93DF937D
:100770008C01D0E0C0E0F801EC0FFD1F649166230E
:1007800041F081E995E00E946203892B11F02196E6
:10079000F2CFCE01DF91CF911F910F910895CF93AA
:1007A000DF93EC01888D8823B9F0AA89BB89E88999
:1007B000F9898C9185FD03C0808186FD0DC00FB63F
:1007C00007FCF7CF8C9185FFF2CF808185FFEDCFBD
:1007D000CE010E944003E9CFDF91CF91089583308D
:1007E00081F028F4813099F08230A9F008958730A3
:1007F000A9F08830C9F08430B1F4809180008F7DF9
:1008000003C0809180008F7780938000089584B525
:100810008F7784BD089584B58F7DFBCF8091B00024
:100820008F778093B00008958091B0008F7DF9CFCD
:100830001F93CF93DF93282F30E0F901EE59FE4F3D
:100840008491F901E25BFE4FD491F901E65CFE4F21
:10085000C491CC23A9F0162F81110E94EF03EC2F35
:10086000F0E0EE0FFF1FE05DFE4FA591B4918FB752
:10087000F894EC91111108C0D095DE23DC938FBF62
:10088000DF91CF911F910895DE2BF8CF9091000159
:1008900089130BC0E6E7F1E0E4919FEF909300012C
:1008A000E13049F028F0E23061F060E00C94180487
:1008B00010926E00FACF90916F009D7F90936F0021
:1008C000F4CF909170009D7F9093700091E0909391
:1008D000B0009091B100987F94609093B100109215
:1008E000B300E3CFCF93DF9390E0FC01E25BFE4FD8
:1008F0002491865C9E4FFC0184918823D1F090E086
:10090000880F991FFC01EA5DFE4FA591B491FC018F
:10091000E05DFE4FC591D49161110EC09FB7F89470
:100920008C91E22FE0958E238C932881E223E8833B
:100930009FBFDF91CF9108958FB7F894EC91E22B90
:10094000EC938FBFF6CF8E50806480937C008091B3
:100950007A00806480937A0080917A0086FDFCCFD3
:10096000809178009091790008953FB7F894809134
:100970008D0290918E02A0918F02B091900226B5C7
:10098000A89B05C02F3F19F00196A11DB11D3FBFC7
:10099000BA2FA92F982F8827BC01CD01620F711D96
:1009A000811D911D42E0660F771F881F991F4A9590
:1009B000D1F708958F929F92AF92BF92CF92DF921C
:1009C000EF92FF926B017C010E94B5044B015C0128
:1009D000C114D104E104F104B9F00E94B50468190E
:1009E00079098A099B09683E73408105910580F366
:1009F00021E0C21AD108E108F10888EE880E83E0F0
:100A0000981EA11CB11CE4CFFF90EF90DF90CF9017
:100A1000BF90AF909F908F9008952FB7F8946091FA
:100A2000890270918A0280918B0290918C022FBF73
:100A30000895BF92CF92DF92EF92FF920F931F9390
:100A4000CF93DF93EC017B018A0184E0B82E6E0125
:100A500086E0C80ED11CEE81FF810480F581E02D77
:100A6000C601099581115BC02D853E852115310593
:100A700009F451C0EB85FC85309751F021503109C4
:100A80003E872D8722A533A53C872B871CAE1BAE46
:100A90009281913109F04DC09381D8019C932481BA
:100AA00030E0D7012D933C939581911191E0D801CD
:100AB00011969C939581992391F190E065E02581B1
:100AC000921768F5492F50E0969FD0011124EF014D
:100AD000CA0FDB1F2E817D01E00EF11ED701129699
:100AE0002C9312972F8113962C9313972885149685
:100AF0002C9379854F5F5F4F649F9001659F300D08
:100B00001124200F311FD9017C932A85D701169615
:100B10002C939F5FD4CFBA94B1109DCF83E0DF9127
:100B2000CF911F910F91FF90EF90DF90CF90BF90EA
:100B3000089580E1F4CF2F923F924F925F926F928F
:100B40007F928F929F92AF92BF92CF92DF92EF925D
:100B5000FF920F931F93CF93DF93CDB7DEB7E39749
:100B60000FB6F894DEBF0FBECDBF6C018B01DC0168
:100B700017968D919C91009709F454C0F12CE12CAB
:100B8000039708F0D7C0F12CE12CAA24A394B12C30
:100B90000115110509F4CEC0AE01455D5F4FBE01E0
:100BA0006E5C7F4FD60115968D919C910E94190520
:100BB0008111C0C04AA95BA9CA0101979501082EFD
:100BC00002C0220F331F0A94E2F7B8016223732395
:100BD000672BF1F241155105D9F249305105C4F6A0
:100BE000880F991FF601E80FF91FA185B2851097AC
:100BF00079F28CA511968C9311978BA58C938CA56B
:100C0000882341F085E0FE01BD96129601900D9279
:100C10008A95E1F7C9018095909508231923E22A66
:100C2000F32AB6CF4601F12CE12CAA24A394B12CCF
:100C300066246394712C1E01B5E02B0E311CF2E08A
:100C40004F2E512CC5010197F30102C0EE0FFF1F7B
:100C50008A95E2F7CF0180239123892B09F45FC0A5
:100C6000D40119968D919C91892B09F458C0F601F5
:100C700085819681D101E6E21D92EA95E9F75A82D3
:100C80004982F2E1FB83AC82DC011696ED91FC9186
:100C90000680F781E02DBE016F5F7F4F06960995B4
:100CA000AE01455D5F4FBE016E5C7F4FF6018581F1
:100CB00096810E94190581113DC02AA93BA9C9014D
:100CC0000197A301082E02C0440F551F0A94E2F7B2
:100CD000BA0160237123672BF9F0880F991FF60181
:100CE000E80FF91FA185B2859C918BA59817A1F0FB
:100CF00021153105A9F22930310574F487E0FE0190
:100D0000BB9601900D928A95E1F7CA018095909566
:100D100008231923E42AF52A2A153B0509F6FFEFD3
:100D2000AF1ABF0A22E0820E911C39E0A316B1046B
:100D300009F088CFC701E3960FB6F894DEBF0FBE67
:100D4000CDBFDF91CF911F910F91FF90EF90DF907A
:100D5000CF90BF90AF909F908F907F906F905F905B
:100D60004F903F902F900895DC01ED91FC9102840B
:100D7000F385E02D0995862F0895DC01ED91FC9116
:100D80000084F185E02D0995862F08950895462F5A
:100D9000DC0115968D919C91DC01ED91FC91068012
:100DA000F781E02D65E0099420916502260F332735
:100DB000331F21323105ECF420918B05FC0190E0CA
:100DC00080E0243069F082E00895A09165022191CD
:100DD000AC014B5B5D4FA40FB52FB11D2C93019659
:100DE000861798F380916502680F6093650280E032
:100DF000089581E0089510928B0581E080936A0543
:100E00001092650561E082E10E94180461E083E1CF
:100E10000E941804E9EBF0E080818E7F808380815E
:100E20008D7F808388E48093B80085E48093BC0044
:100E30000895CF93DF9391E0909344028823B9F013
:100E4000C091B800D091BA008091BC008A7B809399
:100E5000BC0060E082E10E94180460E083E10E942F
:100E600018040E94FB06D093BA00C093B800DF912B
:100E7000CF910895CF92DF92EF92FF920F931F933D
:100E8000CF93DF93D82FC62F613208F098C00E940D
:100E9000B5046B017C0180918B0581116BC081E0F1
:100EA00080938B0580936A059FEF9093690510925C
:100EB00068059C0F90936705809366058091660591
:100EC000DD0FD82BD093660580916505813009F040
:100ED00078C0109265050E94B5046B017C01809179
:100EE00066058093BB0080918D0590918E05A09141
:100EF0008F05B0919005892B8A2B8B2BA1F00E9436
:100F0000B50400918D0510918E0520918F053091CB
:100F100090056C197D098E099F0906171707280788
:100F2000390708F448C08091BC0083FDD8CF85EC18
:100F30008093BC000E94B5046B017C0180918B05FD
:100F4000813009F440C0809168058C1710F4C0917D
:100F50006805E5E4F5E0ABE6B5E080E08C1355C04C
:100F60008C2FDF91CF911F910F91FF90EF90DF9029
:100F7000CF90089580918D0590918E05A0918F0559
:100F8000B0919005892B8A2B8B2B09F484CF0E947A
:100F9000B50400918D0510918E0520918F0530913B
:100FA00090056C197D098E099F09061717072807F8
:100FB000390708F070CF80918C050E941907C0E0B6
:100FC000CFCF85EEB5CF80918D0590918E05A09104
:100FD0008F05B0919005892B8A2B8B2B09F4AECF0E
:100FE0000E94B50400918D0510918E0520918F050A
:100FF000309190056C197D098E099F090617170716
:101000002807390708F09ACFD6CF91919D938F5F2B
:10101000A5CF0895E091520380915103E81730F471
:10102000F0E0E559FA4F808190E008958FEF9FEF4F
:10103000089590915203809151032FEF3FEF98173D
:1010400048F4E92FF0E0E559FA4F208130E09F5F46
:1010500090935203C9010895CF92DF92EF92FF92CD
:101060000F931F93CF93DF937C01CB018A012091D3
:101070004405222389F0EB016B01C40ED51ECC156B
:10108000DD0569F06991D701ED91FC910190F08146
:10109000E02DC7010995F3CF642F0E94D406C80143
:1010A000DF91CF911F910F91FF90EF90DF90CF9044
:1010B0000895CF93DF931F92CDB7DEB76983209158
:1010C00044052223F9F020914105203258F021E017
:1010D00030E0FC013383228390E080E00F90DF91C9
:1010E000CF91089580914205E82FF0E0EC5DFD4F2F
:1010F000998190838F5F809342058093410581E0C1
:1011000090E0ECCF61E0CE0101960E94D406F7CFCB
:10111000CF92DF92EF92FF920F931F93CF93DF93C3
:10112000D091410581E0D13208F09CC0C0914305C7
:101130000E94B5046B017C0180918B0581116CC00C
:1011400082E080938B0581E080936A058FEF809326
:10115000690510926805D0936705A4E2B2E0E5E462
:10116000F5E080E0D8138DC0109266058091660589
:10117000CC0FC82BC093660580916505813009F0BE
:1011800084C0109265050E94B5046B017C018091BA
:1011900066058093BB0080918D0590918E05A0918E
:1011A0008F05B0919005892B8A2B8B2BA1F00E9483
:1011B000B50400918D0510918E0520918F05309119
:1011C00090056C197D098E099F09061717072807D6
:1011D000390708F442C08091BC0083FDD8CF85EC6C
:1011E0008093BC000E94B5046B017C0180918B054B
:1011F000823009F44CC0809169058F3F09F469C0C1
:1012000080916905803209F466C080916905803358
:1012100009F463C084E026C080918D0590918E050D
:10122000A0918F05B0919005892B8A2B8B2B09F407
:1012300083CF0E94B50400918D0510918E052091F9
:101240008F05309190056C197D098E099F0906174D
:1012500017072807390708F06FCF80918C050E9487
:10126000190785E01092420510924105109244053D
:10127000DF91CF911F910F91FF90EF90DF90CF9072
:1012800008959D9191938F5F6DCF85EEA9CF809149
:101290008D0590918E05A0918F05B0919005892BB9
:1012A0008A2B8B2B09F4A2CF0E94B50400918D05E7
:1012B00010918E0520918F05309190056C197D0954
:1012C0008E099F09061717072807390708F08ECFE0
:1012D000C4CF80E0C7CF82E0C5CF83E0C3CF1F93E8
:1012E000CF93DF93EC01142F8E819F812A8131E00F
:1012F0003093440520934305109242051092410516
:10130000DC01ED91FC910190F081E02D09958111B6
:1013100008C063E070E080E090E0DF91CF911F9122
:1013200008958E819F81DC01ED91FC910190F08107
:10133000E02D612F0995882361F38E819F810E94A2
:10134000880860E070E0CB01E8CF90E080E008958D
:1013500008951F93CF93DF93EC01142F89819A8115
:10136000288131E0309344052093430510924205D3
:1013700010924105DC01ED91FC910190F081E02D8E
:10138000099589819A81DC01ED91FC910190F081B0
:10139000E02D612F099589819A81DF91CF911F916D
:1013A0000C948808DC01ED91FC910190F081E02D16
:1013B0000994DC01ED91FC910190F081E02D0994FC
:1013C0000F931F93CF93DF93EC018A0189819A8158
:1013D000288131E030934405209343051092420563
:1013E0001092410524E0629FB00111246A5F7F4F93
:1013F0000E94D90970E060E089819A810E94D20937
:1014000070E060E089819A810E94D209B8018981E7
:101410009A810E94D209612F70E089819A810E948D
:10142000D20989819A81DF91CF911F910F910C94FC
:101430008808CF93C0E040E050E16C2F8FE297E046
:101440000E94E009CF5FC031B1F7CF910895BF92FC
:10145000CF92DF92EF92FF920F931F93CF93DF9380
:10146000EC0181E08093440584E58093430510926C
:101470004205109241056D2F70E084E496E00E94D1
:10148000D909BE01772784E496E00E94D90984E453
:1014900096E00E94880861E084E50E943A07109275
:1014A00052038093510384E496E00E9419088093CC
:1014B000570380932F050E94E301EC01F12CE12CEE
:1014C0001C161D064CF56C2FCF31D1050CF06EE1CA
:1014D00084E50E943A07B82E10925203809351037C
:1014E0006E018EE1C81AD1088E0180915203B816A0
:1014F00059F084E496E00E9419089FEFE91AF90A6E
:10150000F701E95AFC4F80830150110929F0E601E7
:101510000C151D0551F7D4CFDF91CF911F910F917D
:10152000FF90EF90DF90CF90BF9008950F931F939F
:10153000CF93DF93EC018A018E819F812A8131E074
:1015400030934405209343051092420510924105C3
:10155000DC01ED91FC910190F081E02D0995811164
:1015600009C063E070E080E090E0DF91CF911F91CF
:101570000F9108958E819F810E94880861E08A8181
:101580000E943A071092520380935103813049F729
:101590008E819F81DC01ED91FC910284F385E02D29
:1015A0000995F801808360E070E0CB01DECFCF9336
:1015B000DF93EC0189819A81288131E030934405E1
:1015C000209343051092420510924105DC01ED91F4
:1015D000FC910190F081E02D099589819A810E940A
:1015E000880861E088810E943A0710925203809334
:1015F000510389819A81DC01ED91FC910284F3858C
:10160000E02D0995DF91CF9108958F929F92AF922F
:10161000BF92CF92DF92EF92FF921F93CF93DF930F
:10162000EC016A017B0120E030E040E85FE3CB01A0
:10163000B6010E94AF3287FD7EC020E030EC4AE563
:1016400055E4C701B6010E94DC3518163CF4C12CE4
:1016500030ECD32E3AE5E32E35E4F32E6B817C811A
:101660008D819E810E94B4324B015C0120E030E00C
:1016700040E855E4C701B6010E9415339B01AC0157
:10168000C501B4010E94F53420E030E040E05FE3A2
:101690000E94843420E030E040E85FE30E9483341D
:1016A0006B017C0120E030E040E450E40E94AF3266
:1016B00087FD48C020E030E04FE753E4C701B601A2
:1016C0000E94DC35181634F4C12CD12C9FE7E92E8A
:1016D00093E4F92E60E0CE010E94D70A182F482F1C
:1016E0004F76406160E0CE010E94A909C701B601B2
:1016F0000E946E35462F6EEFCE010E94A909412F40
:1017000060E0CE010E94A90965E070E080E090E011
:101710000E94DA04412F406A60E0CE01DF91CF9150
:101720001F91FF90EF90DF90CF90BF90AF909F9070
:101730008F900C94A909C12CD12C20E8E22E2FE324
:10174000F22E8CCFC12CD12C80E4E82EFE2CC2CFFF
:101750004F925F926F927F928F929F92AF92BF92C1
:10176000CF92DF92EF92FF92CF93C0E06C01F12C09
:10177000E12CC701B6010E94B4324B015C016EEF4F
:101780008FE297E00E94D70A682F70E06F5F7F4F6B
:1017900090E080E00E94B43220E034E244E759E473
:1017A0000E9415332B013C01609132077091330781
:1017B00080913407909135070E94B4329B01AC01AF
:1017C000C301B2010E94F5349B01AC01C501B40113
:1017D0000E94F5340E946E35AB016C2F8FE297E0CA
:1017E0000E94E009CF5FC03121F6CF91FF90EF90CA
:1017F000DF90CF90BF90AF909F908F907F906F9031
:101800005F904F900895FC0101900020E9F7319717
:10181000AF01481B590BBC0181E995E00C94C20251
:1018200084EB91E00C94030CCF93DF930E94B403FC
:10183000EC010E94100C8C0F9D1FDF91CF91089539
:10184000CF93DF93FC01448155816081718181E9EF
:1018500095E00E94C202EC010E94100C8C0F9D1FAB
:10186000DF91CF910895CF93DF930E94AF03EC01F6
:101870000E94100C8C0F9D1FDF91CF9108958F92C5
:101880009F92AF92BF920F931F93CF93DF93CDB7E9
:10189000DEB7A1970FB6F894DEBF0FBECDBF19A279
:1018A000423008F44AE08E010F5D1F4F842E912CC8
:1018B000B12CA12CA50194010E945234E62FB9014C
:1018C000CA01EA30F4F4E05DD801EE938D01232BD8
:1018D000242B252B79F790E080E0109719F0CD01AB
:1018E0000E94030CA1960FB6F894DEBF0FBECDBFC9
:1018F000DF91CF911F910F91BF90AF909F908F90EC
:101900000895E95CE1CFCF92DF92EF92FF92C12C74
:10191000D12C76014AE0C701B6010E943F0C89E054
:101920000E94AF038FEFC81AD80AE80AF80A80E1CC
:10193000C816D104E104F10469F7FF90EF90DF903D
:10194000CF900C94100CCF92DF92EF92FF92CF9336
:10195000DF9397FF19C06B017C018DE20E94AF03FA
:10196000EC0166277727CB016C197D098E099F0949
:101970004AE00E943F0C8C0F9D1FDF91CF91FF909A
:10198000EF90DF90CF9008954AE0DF91CF91FF90E4
:10199000EF90DF90CF900C943F0CEF92FF920F935B
:1019A0001F93CF93DF9300D0CDB7DEB78C01DC015E
:1019B00015968D919C91009739F0DC01ED91FC9189
:1019C0000280F381E02D099581E090E0F801948395
:1019D000838388E090E00E944F30FC01D80112968A
:1019E0008C9190E0B0E0A0E082839383A483B583E0
:1019F0008CE791E09183808384E496E097838683EB
:101A0000D8011696FC93EE9315971A8284E0E82E7F
:101A1000F12CF80185819681DC01ED91FC91048027
:101A2000F581E02DAE014E5F5F4F61E009958111B8
:101A300003C08A81833031F0B1E0EB1AF10849F735
:101A400081E121C084E08983F80185819681DC01F0
:101A5000ED91FC910680F781E02D44E064E009956A
:101A6000998192FF10C0F80185819681DC01ED918A
:101A7000FC910480F581E02DAE014F5F5F4F64E083
:101A80000995882369F30F900F90DF91CF911F91F3
:101A90000F91FF90EF900895FC0124813581232B55
:101AA00039F421E0FB018081882349F020E007C060
:101AB000808191810E94883821E0892BB9F7822F9B
:101AC00008950C94EB30CF93DF93EC0188819981DA
:101AD000009711F00E94EB30198218821D821C823F
:101AE0001B821A82DF91CF910895FC018081918140
:101AF000009711F00C94EB3008957F928F929F9293
:101B0000AF92BF92CF92DF92EF92FF920F931F930B
:101B1000CF93DF931F92CDB7DEB76C015B01742EBC
:101B20007C0110E000E088248394912CC401002EF5
:101B300002C0880F991F0A94E2F78A219B21892B02
:101B400009F465C0D60115968D919C91DC01ED914B
:101B5000FC910680F781E02D41E0400F60E209959D
:101B6000811125C0F60185819681DC01ED91FC9102
:101B70000480F581E02DAE014F5F5F4F61E2099572
:101B8000811115C04981842F8170871549F170FA40
:101B900040F94983F60185819681DC01ED91FC9144
:101BA0000680F781E02D61E209958823C9F00F9046
:101BB000DF91CF911F910F91FF90EF90DF90CF9029
:101BC000BF90AF909F908F907F9008950097B9F04D
:101BD0000E94EB30D7011A961C921E9219970FC0E3
:101BE000D70119968D919C91772081F3892B39F437
:101BF00087E090E00E944F30F701928781878981CA
:101C000086958695837090E0F601908787830F5FB5
:101C10001F4FF2E0EF0EF11C0830110509F086CFDE
:101C200080E0C5CFCF92DF92FF920F931F93CF93A7
:101C3000DF931F92CDB7DEB78C0141E00E947D0D8E
:101C4000811151C064E170E080E090E00E94DA040C
:101C5000D80118961C921E9217976801B9E0CB0E16
:101C6000D11CFF24F394F601819191916F01892B8E
:101C700031F4F394F9E0FF12F6CF80E034C0D801DC
:101C800015968D919C91DC01ED91FC910680F78178
:101C9000E02D4F2D60E20995811125C0F801858165
:101CA0009681DC01ED91FC910480F581E02DAE017F
:101CB0004F5F5F4F61E20995811115C04981842F03
:101CC000869586958370A9F2437F4983F8018581C3
:101CD0009681DC01ED91FC910680F781E02D61E2B7
:101CE0000995882331F20F90DF91CF911F910F91C9
:101CF000FF90DF90CF9008950F931F93CF93DF93C2
:101D0000EC018DE391E0998388838D819E8100971A
:101D100039F0DC01ED91FC910280F381E02D099511
:101D20008E01075F1F4F6996F801819191918F0194
:101D3000009731F00E94EB30F80132971182108247
:101D40000C171D0789F7DF91CF911F910F9108950F
:101D5000CF93DF93EC010E947C0ECE01DF91CF91F7
:101D60000C94EB300C94EB30FF920F931F93CF93B6
:101D7000DF93EC01F62E08811981C8010E94D3334C
:101D8000F81621F06F2DC8010E94DB33CE01DF91E0
:101D9000CF911F910F91FF900895FF920F931F9382
:101DA000CF93DF9300D0CDB7DEB78C01F72E9A83A7
:101DB0008983CE0101960E94B40E0F5F1F4F1A83D4
:101DC00009836F2DCE0101960E94B40E66E070E08B
:101DD00080E090E00E94DA040F900F90DF91CF91A5
:101DE0001F910F91FF9008950C94D3332F923F923F
:101DF0004F925F926F927F928F929F92AF92BF921B
:101E0000CF92DF92EF92FF920F931F93CF93DF93C6
:101E1000CDB7DEB72E970FB6F894DEBF0FBECDBF9D
:101E20005C0185E191E00E94F40E682E67EB71E0A1
:101E3000C5010E948838762C892B89F4C62CD12CB8
:101E4000F12CE12CC114D104E104F10439F00E9419
:101E5000C031A70196010E94E9336B017C2CF5018A
:101E600001900020E9F73197EA19FB092E2F215044
:101E7000330B6901F501E20FF31F30813C87512CD0
:101E800010E000E0CE0101967C0181E491E0FC01CC
:101E9000EE19FF09FE87ED87651409F49AC0180151
:101EA000FFEF2F1A3F0AC801805C9E4F0E94F40E7C
:101EB000482E47012D853E85020F131F882D8E1950
:101EC000841548F4C801880D991D0E94F40EF40190
:101ED00081934F01F3CF842C912C8101080D191DA2
:101EE000F701E80DF91D108257104CC069EB71E045
:101EF000C7010E948838892B09F441C06CEB71E05E
:101F0000C7010E948838892BD1F16FEB71E0C701BE
:101F10000E948838892B99F162EC71E0C7010E9418
:101F20008838892B61F165EC71E0C7010E9488381F
:101F3000892B29F1C8018F5B9E4F0E94F40E80937C
:101F40002F050E94E301C801805C9E4F2E960FB6BC
:101F5000F894DEBF0FBECDBFDF91CF911F910F91DF
:101F6000FF90EF90DF90CF90BF90AF909F908F90B9
:101F70007F906F905F904F903F902F900895739453
:101F800053948ACFB501C7010E948838892B91F2FA
:101F9000FE01E80DF91D80818634C1F069EC71E025
:101FA000C7010E948838892B89F0A601B501C701B5
:101FB0000E949838892B51F4FC85FC3409F4BACF7F
:101FC000F23509F4B7CFF83509F4B4CF0C5F1F4FE1
:101FD000D7CF8FE30E94AF03C5010E94030C0E947C
:101FE000100C8FEF9FEFB2CF1F93CF93DF93EC01D5
:101FF0000E94F40E182FCE0101960E94F40E90E07C
:10200000982F8827810F911DDF91CF911F910895FF
:10201000CF92DF92EF92FF920F931F93CF93DF93B4
:102020006A017B01082F10E0C801805B9F4F880F79
:10203000991F0E94F40FBC01990F880B990B0E9405
:10204000B63220E030E04AE754E40E94F534A701BC
:1020500096010E9415336B017C0182E191E00E94A0
:10206000F40E9AE0899FB0011124072E000C880B12
:10207000990B0E94B632A70196010E9484346B012D
:102080007C0120E030E04AEF53E40E94DC35C4EFED
:10209000D1E018168CF420E030E44CE155E4C7019F
:1020A000B6010E94AF32C4ECD9E087FF05C0C7017A
:1020B000B6010E946735EB01C8010E94F40EAE0123
:1020C000682F8FE297E0DF91CF911F910F91FF90E2
:1020D000EF90DF90CF900C94E00990E0C096880FCD
:1020E000991F860F911D880F991F0C94F40F7F92F2
:1020F0008F929F92AF92BF92CF92DF92EF92FF9218
:102100000F931F93CF93DF93B82E6A01D62FC72F5B
:1021100060E00E946D10BC01990F880B990B0E9422
:10212000B6327B018C0161E08B2D0E946D10BC01E9
:10213000990F880B990B0E94B632762E872E982E17
:10214000A92E96014D2F5C2F0E94AF3287FF71C0E0
:10215000772D682D992D8A2D272F362F492F582F0F
:10216000B701C8010E94DC35181694F096014D2F76
:102170005C2F672D782D892D9A2D0E94AF32760124
:102180000D2F1C2F87FF04C0E72CF82C092D1A2DCA
:10219000CB2DD0E06E0180E3C80ED11CCC0FDD1F2B
:1021A000C15FDE4FB701C8010E946735798368833C
:1021B000C601880F991F0E94F40FEC01C6010E940E
:1021C000F40E682F880F770B880B990B0E94B6329C
:1021D0009701A8010E9415336B017C01BE01DD0F40
:1021E000880B990B0E94B6329B01AC01C701B60166
:1021F0000E9484340E946735072E000C880B990BCF
:102200000E94B63220E030E0A9010E948434AB0184
:10221000BC018B2DDF91CF911F910F91FF90EF901B
:10222000DF90CF90BF90AF909F908F907F900C9455
:1022300008107C2D6D2DCE018FCF0F931F93CF9360
:102240008C01005E1F4FCFE0F801729162918F0107
:10225000072E000C880B990B0E94B632AB01BC0113
:102260008C2F0E947710C15078F7CF911F910F915A
:1022700008952F923F924F925F926F927F928F922A
:102280009F92AF92BF92CF92DF92EF92FF920F9305
:102290001F93CF93DF93CDB7DEB72E970FB6F89489
:1022A000DEBF0FBECDBF182F092F6A017B0120E0D2
:1022B00030E0A901CB01B6010E94AF321816E4F05C
:1022C000812F902F2E960FB6F894DEBF0FBECDBF94
:1022D000DF91CF911F910F91FF90EF90DF90CF9002
:1022E000BF90AF909F908F907F906F905F904F9036
:1022F0003F902F900C941D1180E290E00E944F308F
:102300005C0170915403909053032FE031E0DC01A5
:10231000612E702E512C412C60E0772329F064301F
:1023200018F44BE69416A1F0F90180819181F30134
:1023300040815181841B950B11969C938E9397FF3E
:1023400003C0919581959109481659060CF42C010A
:102350006F5F2E5F3F4FF2E06F0E711C129660317F
:10236000E1F620E030E0A901C701B6010E94DC35AA
:1023700018160CF0BCC0B201550C880B990B0E94CA
:10238000B632A70196010E94F5346B017C0120E072
:1023900030E0A9010E94DC3520E030E040E05FE35E
:1023A00087FDA0C0C701B6010E9484340E94673532
:1023B0007E876D87D12CC12C2D853E85032E000C88
:1023C000440B550B29873A874B875C874D855E8583
:1023D0004C155D050CF48EC01501812E902EF12C4C
:1023E000C6010D2C000CAA0BBB0B8D839E83AF8303
:1023F000B88780915403882341F093E09F1528F01B
:10240000809153038B3609F45FC0D4016D917C91A8
:10241000072E000C880B990B0E94B6322B013C0151
:10242000ED85FE8520E030E0A901EF2B09F443C0E3
:102430006D817E818F8198850E94B6322BED3FE0C1
:1024400049E450E40E94153369837A838B839C832B
:1024500069857A858B859C850E94B6329B01AC018B
:1024600069817A818B819C810E94F5340E94F034CD
:1024700020E030E040E85FE30E94843420E030E078
:1024800040E05FE30E94153369837A838B839C83EA
:10249000D1016D917C91072E000C880B990B0E9445
:1024A000B6329B01AC0169817A818B819C810E944B
:1024B00015339B01AC01C301B2010E948434AB010E
:1024C000BC018F2D0E947710F394B2E08B0E911C0B
:1024D000E2E02E0E311CF0E1FF128BCF2FEFC21A7B
:1024E000D20A74CFC701B6010E9483345FCF1E8623
:1024F0001D8660CFA114B104D9F0C5012E960FB688
:10250000F894DEBF0FBECDBFDF91CF911F910F9129
:10251000FF90EF90DF90CF90BF90AF909F908F9003
:102520007F906F905F904F903F902F900C94EB3086
:102530002E960FB6F894DEBF0FBECDBFDF91CF91C0
:102540001F910F91FF90EF90DF90CF90BF90AF90D1
:102550009F908F907F906F905F904F903F902F90C3
:1025600008952F923F924F925F926F927F928F9237
:102570009F92AF92BF92CF92DF92EF92FF920F9312
:102580001F93CF93DF93CDB7DEB72F970FB6F89495
:10259000DEBF0FBECDBF4C016D8369017A01202FD4
:1025A00030E03A83298320E030E0A901C701B60179
:1025B0000E94AF321816ECF01FE0812F012E000CA4
:1025C000990B69817A81861797070CF453C1880D9E
:1025D000991DDC016C91062E000C770B880B990B72
:1025E0000E94B632AB01BC01812F0E9477101150BE
:1025F000E4CF80E190E0E981FA818E1B9F0B811589
:10260000F0E49F0708F047C0880F991F009709F46E
:1026100045C00E944F303C01B0905403A09053033A
:1026200029813A81220F331F1301D401102F50E06A
:1026300040E0512C412C1031A0F5BB2029F0143082
:1026400018F46BE6A616F9F0CA01820F931F815F9A
:102650009E4F7C916D817603F0011124FC83EB8306
:10266000FC01808191816B817C81861B970BF1013C
:102670009183808397FF03C09195819591094816B6
:1026800059060CF42C011F5F1196F2E02F0E311C3D
:102690004E5F5F4FD0CF8FEF9FEFBBCF81E090E0D9
:1026A000B8CF20E030E0A901C701B6010E94DC35B7
:1026B00018160CF0BAC0B201550C880B990B0E9489
:1026C000B632A70196010E94F5346B017C0120E02F
:1026D00030E0A9010E94DC3520E030E040E05FE31B
:1026E00087FD9EC0C701B6010E9484340E946735F1
:1026F0007F876E87B12CA12C6E857F85072E000CFD
:10270000880B990B6A877B878C879D878E859F8531
:102710008A159B050CF490C07C826B829A82898218
:10272000102FB5010B2C000C880B990B6E837F8347
:1027300088879987103108F07BC0809154038823E3
:1027400039F0143028F4809153038B3609F45BC0C0
:10275000A981BA816C912D816203B0011124072EE9
:10276000000C880B990B0E94B6326B017C016E85C0
:102770007F8520E030E0A901672BE1F16E817F8148
:10278000888599850E94B6322BED3FE049E450E4FC
:102790000E9415331B012C016A857B858C859D85E4
:1027A0000E94B6329B01AC01C201B1010E94F53416
:1027B0000E94F03420E030E040E85FE30E9484347F
:1027C00020E030E040E05FE30E9415331B012C0164
:1027D000AB81BC816D917C91072E000C880B990B0D
:1027E0000E94B6329B01AC01C201B1010E941533B7
:1027F0009B01AC01C701B6010E948434AB01BC014E
:10280000812F0E9477101F5FE981FA813196FA8348
:10281000E9832B813C812E5F3F4F3C832B838ACF02
:10282000C701B6010E94833461CF1F861E8662CF26
:102830003FEFA31AB30A6ACF61147104D9F0C30140
:102840002F960FB6F894DEBF0FBECDBFDF91CF91AC
:102850001F910F91FF90EF90DF90CF90BF90AF90BE
:102860009F908F907F906F905F904F903F902F90B0
:102870000C94EB302F960FB6F894DEBF0FBECDBF91
:10288000DF91CF911F910F91FF90EF90DF90CF904C
:10289000BF90AF909F908F907F906F905F904F9080
:1028A0003F902F9008950F930E94030210925603B9
:1028B00010925503EBE2F5E0258136814781508582
:1028C00003896785848995890E94B1120F910895C3
:1028D0008F929F92AF92BF92CF92DF92EF92FF9230
:1028E0000F931F93CF93DF93CDB7DEB72B970FB620
:1028F000F894DEBF0FBECDBF6C01FC01019000203B
:10290000E9F73297108189E11C3421F087EE123506
:1029100009F080E080932E05C6010E94F60E7C012E
:102920008FEFE816F80609F43EC1C7010E94F40EC5
:10293000082FC70102960E94F40F7C01B601CE0158
:1029400001960E949138093409F0EDC0C7010E9438
:10295000270A0E940302BE016F5F7F4F87E593E065
:102960000E9491386CEC71E087E593E00E94883812
:10297000892B09F4EEC080E090E0A0E0B0E4809301
:10298000300590933105A0933205B093330560ED87
:1029900071E087E593E00E948838892B09F4DDC057
:1029A00080912F05813009F0D8C00E94C03124E603
:1029B00030E040E050E00E94E9330E94B63220E06F
:1029C00030E040E251E40E94F53420E030E040EA9B
:1029D00050E40E9483344B015C0180924D0390923D
:1029E0004E03A0924F03B0925003F12CE12CC09003
:1029F0003F05D0904005CE0CDF1CF6016081062E0D
:102A0000000C770B880B990B0E94B632A50194013C
:102A10000E9484340E946735F6016083FFEFEF1A4D
:102A2000FF0A80E1E816F10411F7123509F099C0A8
:102A300080913605909137059195819591099093F4
:102A400037058093360590E080E040912F05242FD4
:102A5000042E000C330B37FF03C03195219531094B
:102A6000821793070CF089C042301CF54091350560
:102A7000489F9001499F300D1124E0913F05F0914E
:102A80004005E20FF31F2081219520832091350519
:102A9000289FF001299FF00D11249F012E5F3F4FC9
:102AA000E0913F05F0914005E20FF31F2081219551
:102AB000208320912F0560E022300CF462E0E62FA5
:102AC000F0E020912F0522300CF480C024E030E0AB
:102AD00040913F0550914005E217F3070CF079C093
:102AE0009F01220F331F70913505789FF001799F68
:102AF000F00D1124E20FF31FE40FF51F4081518107
:102B0000508350913505589FD001599FB00D112425
:102B1000E0913F05F0914005E20FF31FEA0FFB1F24
:102B200041836F5FCCCF80912F050E94E301A7E521
:102B3000B3E0970127553340F901EA0FFB1FAD01C0
:102B400047555340481759070CF003CFE491ED93D4
:102B5000F3CF80E090E0DC0112CF812C912C540166
:102B60003CCF1C3451F00E94C03124E630E040E0FC
:102B700050E00E94E93360FD5BCF10925603109243
:102B80005503209130053091310540913205509127
:102B9000330500913E0560913A0580913F05909183
:102BA00040050E94B1122B960FB6F894DEBF0FBEFF
:102BB000CDBFDF91CF911F910F91FF90EF90DF90EC
:102BC000CF90BF90AF909F908F90089528E030E015
:102BD0007FCF01963ACF0E9472380F931F93CF9305
:102BE000DF93EC0188819981009759F02A813B811C
:102BF0002617370730F081E0DF91CF911F910F91B9
:102C000008958B016F5F7F4F0E94B537009759F091
:102C1000998388831B830A832C813D81232B59F759
:102C2000FC011082E8CF80E0E7CFEF92FF920F9394
:102C30001F93CF93DF936115710541F480E0DF911D
:102C4000CF911F910F91FF90EF900895411551057D
:102C5000B1F07B01EC010C811D81040F151FB8013F
:102C60000E94ED15882351F3288139818C819D8143
:102C7000B701820F931F0E9491381D830C8381E05E
:102C8000DECFEF92FF920F931F93CF93DF93EC0170
:102C90007B018A01BA010E94ED1581110BC0CE01A2
:102CA0000E94630DCE01DF91CF911F910F91FF9094
:102CB000EF9008951D830C83B701888199810E944C
:102CC0009138F0CFFB01DC0111961C921E921396F5
:102CD0001C921E92129715961C921E92149786179C
:102CE000970759F0608171816115710521F0448168
:102CF00055810C9441160C94630D0895FB010190CD
:102D00000020E9F73197AF01461B570B0C94411691
:102D10000F931F93CF93DF93CDB7DEB762970FB6B4
:102D2000F894DEBF0FBECDBF8C01CB01F80111823C
:102D3000108213821282158214824AE0BE016F5FF4
:102D40007F4F0E947232BE016F5F7F4FC8010E94A9
:102D50007E1662960FB6F894DEBF0FBECDBFDF9130
:102D6000CF911F910F910895FC011182108213825F
:102D7000128215821482FB0101900020E9F731973D
:102D8000AF01461B570B0C944116EF92FF920F9325
:102D90001F93CF93DF93EC018B01198218821B8262
:102DA0001A821D821C82CB010E943D327C01BC0133
:102DB000CE010E94ED15811109C0CE01DF91CF91A6
:102DC0001F910F91FF90EF900C94630DFD82EC82A8
:102DD000B80188819981DF91CF911F910F91FF9068
:102DE000EF900C94363285ED8093BC0080918D0578
:102DF00090918E05A0918F05B09190050796A11D29
:102E0000B11D23E0B695A795979587952A95D1F79B
:102E10002091BC0024FD03C010928B0508954091C1
:102E20008D0550918E0560918F0570919005452B11
:102E3000462B472B69F30097A105B10541F02AE223
:102E40002A95F1F700C00197A109B109E1CF80915E
:102E50008C050C9419072F923F924F925F926F92BC
:102E60007F928F929F92AF92BF92CF92DF92EF921A
:102E7000FF920F931F93CF93DF93CDB7DEB7669783
:102E80000FB6F894DEBF0FBECDBF69877A878B87F8
:102E90009C872D873E874F87588BC801EE8A10E0AC
:102EA00088248A94982C540168E4462E68EE562EA5
:102EB00066246394712C05E07FE3272E71E0372EA2
:102EC0009C01990F440B550B298B3A8B4B8B5C8BD8
:102ED0006D857E858F8598890E946E356D837E8392
:102EE0008F83988720E030E0A90169857A858B85FA
:102EF0009C850E94AF32882309F499C129853A85BF
:102F00004B855C8563E67CE987E89FE30E94E135B9
:102F100020E030ED42E854E40E9415330E946E3503
:102F20006B0180910001853009F06AC0E6E7F1E0AD
:102F3000F491FD8BF7FDD9C161E085E00E94720438
:102F4000FD89FF2321F02D89223009F024C1F12CC5
:102F5000E12C60E072E18AE790E0A70196010E940F
:102F6000E93329833A834B835C83DA01C9010197F2
:102F7000A109B1098F3F9105A105B10509F00CF434
:102F8000F0C060E472E48FE090E0A70196010E9437
:102F9000E93321503109410951098D89823009F005
:102FA000A2C082E02F3F31054105510509F00CF424
:102FB0008CC160E970ED83E090E0A70196010E946A
:102FC000E933215031094109510983E02F3F31058F
:102FD0004105510509F00CF478C1C301B201A70104
:102FE00096010E94E93321503109410951092F3FCF
:102FF00031054105510511F00CF092C084E065C126
:103000008F3F09F072C100930001E6E7F1E0F4910F
:10301000FD8BFF3F09F469C1F13029F158F0F2301E
:1030200009F43FC03D8937FD60C161E085E00E9441
:10303000720489CF14BC15BC84B5826084BD85B58B
:10304000816085BDF1018491E82FF0E0EE0FFF1F54
:10305000E05DFE4F85919491E3E5F1E084918093EA
:103060001B021D8A69CF109280001092810080910E
:1030700081008860809381008091810081608093CD
:103080008100F1018491E82FF0E0EE0FFF1FE05D79
:10309000FE4F85919491E3E5F1E0849180931A02CB
:1030A0004BCF1092B0001092B1008091B0008260BE
:1030B0008093B0008091B10081608093B100F101F4
:1030C0008491E82FF0E0EE0FFF1FE05DFE4F859149
:1030D00094919093920280939102E3E5F1E08491C0
:1030E0008093930229CF2F3F31054105510509F007
:1030F0000CF44FC0C301B201A70196010E94E9334D
:1031000021503109410951099D89992309F4AFC022
:103110002F3F31054105510511F00CF0B0C06ECFC5
:1031200064E274EF80E090E0A70196010E94E93329
:10313000215031094109510985E02F3F31054105F1
:10314000510509F008F4C1C062E17AE780E090E03F
:10315000A70196010E94E933215031094109510923
:103160009DC09C0181E0FD89F111AFC095B5987FAC
:10317000892B85BD27BD8092200290922102A092CA
:103180002202B092230280916E00826080936E00D2
:10319000ACC082E0E8CFF12CE12C60E072E18AE77C
:1031A00090E0A70196010E94E933215031094109BD
:1031B000510991E02115310581E0480751055CF086
:1031C000C301B201A70196010E94E93321503109E0
:1031D0004109510993E0ED89E13009F07CC080910B
:1031E0008100887F892B8093810030938900209310
:1031F000880080921C0290921D02A0921E02B09242
:103200001F0280916F00826080936F006EC02093D8
:10321000B3008092940290929502A0929602B0928E
:103220009702809170008260809370005EC06D8113
:103230007E818F8198850E94DA0457C084E02F3FF9
:1032400031054105510509F008F490CF29813A81F3
:103250004B815C818AE055954795379527958A95EE
:10326000D1F7215031094109510985E07FCF83E031
:103270002F3F31054105510509F00CF477CF62E18C
:103280007AE780E090E0A70196010E94E93321509F
:10329000310941095109ED89EE2381F286E02F3F82
:1032A00031054105510589F080F029813A814B8132
:1032B0005C819AE055954795379527959A95D1F772
:1032C000215031094109510987E09091B100987F5F
:1032D000892B8093B100FD89F13009F486CFF2305B
:1032E00009F495CFFF2309F445CF6D817E818F814D
:1032F00098850E94DA0485E00E94460469897A89EB
:103300008B899C890E94DA041F5F2E892113E0CDEE
:1033100066960FB6F894DEBF0FBECDBFDF91CF919A
:103320001F910F91FF90EF90DF90CF90BF90AF90E3
:103330009F908F907F906F905F904F903F902F90D5
:1033400008954F925F926F927F928F929F92AF9269
:10335000BF92CF92DF92EF920F931F93CF93DF93A1
:10336000D82E192F0E94F40E8695CD2DD12FB12C79
:10337000A12CC82ED12C88EE882E83E0982E219780
:10338000AC14BD044CF5CE018C199D090E94F40EBD
:10339000782ECE010E94F40E182F672D70E0C40124
:1033A0000E948737072E000C880B990B0E94B632BB
:1033B0002B013C01612F70E090E080E00E94B4326C
:1033C000EE24E39410E000E0A30192010E942B1789
:1033D0008FEFA81AB80AD3CFDF91CF911F910F9129
:1033E000EF90DF90CF90BF90AF909F908F907F90A5
:1033F0006F905F904F9008951F920F920FB60F92AB
:1034000011242F933F934F935F936F937F938F93E9
:103410009F93AF93BF93EF93FF938091940290910A
:103420009502A0919602B0919702892B8A2B8B2B43
:10343000D1F190919302E0919102F09192028081FA
:10344000892780838091940290919502A0919602A1
:10345000B0919702181619061A061B069CF4809163
:10346000940290919502A0919602B09197020197D3
:10347000A109B1098093940290939502A0939602BA
:10348000B0939702FF91EF91BF91AF919F918F9170
:103490007F916F915F914F913F912F910F900FBE50
:1034A0000F901F901895809100010E944604EACF6A
:1034B0001F920F920FB60F9211242F933F934F93A9
:1034C0005F936F937F938F939F93AF93BF93EF938C
:1034D000FF9381E995E00E944003FF91EF91BF9136
:1034E000AF919F918F917F916F915F914F913F919C
:1034F0002F910F900FBE0F901F9018951F920F9253
:103500000FB60F9211242F938F939F93EF93FF93F6
:10351000E091A105F091A2058081E091A705F091CD
:10352000A80582FD1BC090818091AA058F5F8F73D3
:103530002091AB05821741F0E091AA05F0E0EF562B
:10354000FA4F958F8093AA05FF91EF919F918F91EC
:103550002F910F900FBE0F901F9018958081F4CF80
:103560001F920F920FB60F9211242F933F938F93B8
:103570009F93AF93BF938091890290918A02A0910B
:103580008B02B0918C023091880223E0230F2D37FB
:1035900058F50196A11DB11D2093880280938902E0
:1035A00090938A02A0938B02B0938C0280918D023B
:1035B00090918E02A0918F02B09190020196A11D70
:1035C000B11D80938D0290938E02A0938F02B093D1
:1035D0009002BF91AF919F918F913F912F910F904A
:1035E0000FBE0F901F90189526E8230F0296A11D7D
:1035F000B11DD2CF1F920F920FB60F9211242F93AD
:103600003F934F935F936F937F938F939F93AF936A
:10361000BF93EF93FF938091B900887F803609F4C0
:103620004AC0F0F5883209F4A7C018F5803109F4D2
:103630009BC0B8F4882309F4F9C0883009F494C019
:10364000FF91EF91BF91AF919F918F917F916F917A
:103650005F914F913F912F910F900FBE0F901F9050
:103660001895883109F488C0803251F78093690534
:1036700014C0803409F49DC040F48033B9F388331A
:10368000F9F68093690585ECB0C0803509F485C0F2
:10369000883509F496C0883499F60E94F316D0CF85
:1036A000883909F48CC038F5883729F050F4883609
:1036B00011F0803729F683E080938B051092870202
:1036C00057C0883809F47BC0803919F0803809F078
:1036D000B7CF80918702803208F071C0E0918702F5
:1036E00081E08E0F809387028091BB00F0E0E95962
:1036F000FD4F80833DC0803B39F0E0F4803A09F40F
:1037000079C0883A09F09CCF84E080938B051092B1
:10371000660210926502E0919A02F0919B0209956F
:103720008091650281110FC081E080936502109243
:10373000450209C0803C09F4A6CF883C09F4A3CF18
:10374000883B09F07DCFE091660281E08E0F809387
:103750006602F0E0EB5BFD4F80818093BB009091AF
:1037600066028091650229C0809166058093BB0046
:1037700085EC8093BC0064CF9091680580916705CB
:10378000981758F5E091680581E08E0F80936805E1
:10379000F0E0EB5BFA4F8081E9CFE091680581E0D2
:1037A0008E0F809368058091BB00F0E0EB5BFA4FD1
:1037B000808390916805809167059817C8F285E825
:1037C000D8CFE091680581E08E0F809368058091E5
:1037D000BB00F0E0EB5BFA4F808380916A058111BA
:1037E0005CCF81E08093650584EA8093BC001092F1
:1037F0008B0526CF85EC8093BC0010928B058091C1
:103800008702803230F4E0918702F0E0E959FD4F01
:1038100010826091870270E0E0919802F091990225
:1038200087E692E00995109287020ACF1092690507
:1038300034CF1F920F920FB60F9211242F933F9304
:103840004F935F936F937F938F939F93AF93BF93A8
:10385000CF93DF93EF93FF932091510630E0F9016E
:10386000EE59FE4F8491F901E25BFE4FD491F901CC
:10387000E65CFE4FC491CC2379F081110E94EF03E6
:10388000EC2FF0E0EE0FFF1FE45EFE4FA591B49128
:10389000EC91ED2381E009F480E02091560630910F
:1038A00057062F5F3F4F30935706209356062091BF
:1038B0005406309155062536310518F094E0909362
:1038C000500690915006911130C0811169C020912D
:1038D0005606309157062436310528F410925706C3
:1038E000109256065DC01092220710925506109253
:1038F00054062091540630915506A9014F5F5F4F41
:1039000050935506409354064091560650915706E1
:10391000220F331FF901E85AF94F51834083109267
:1039200057061092560691E021C0909150069130B2
:1039300001F58130A9F52091540630915506A90171
:103940004F5F5F4F50935506409354064091560683
:1039500050915706220F331FF901E85AF94F51834E
:103960004083109257061092560692E090935006AC
:1039700017C090915006923061F4882309F4B9CFB2
:1039800020915606309157062536310548F093E0D0
:10399000EDCF90915006933099F4882309F49ECF8F
:1039A000909153069923A9F0811126C08091520667
:1039B000882371F08091520661E00E94180409C0CA
:1039C00090915006943061F791E090932207DFCFF9
:1039D0002D9AFF91EF91DF91CF91BF91AF919F9180
:1039E0008F917F916F915F914F913F912F910F90A8
:1039F0000FBE0F901F90189580915206882321F0DA
:103A00008091520660E0D9CF2D98E3CFCF93DF931A
:103A1000E1E9F5E01382128288EE93E0A0E0B0E0E5
:103A200084839583A683B7832CE831E03183208398
:103A300025EC30E03587248724EC30E03787268773
:103A400020EC30E0318B208B21EC30E0338B228B6B
:103A500022EC30E0358B248B26EC30E0378B268B44
:103A6000118E128E138E148EC4E4D6E01B821A823D
:103A70008C839D83AE83BF838EE991E09983888395
:103A8000EEE2F6E080EB91E091838083D383C28302
:103A90008FEF9FEF9583848316821782108611869D
:103AA000138612861586148617861686118A108A42
:103AB00024E130E0338B228B958B848BE0E5F6E0BC
:103AC00084E08183138266ED71E086E497E00E94D2
:103AD000B416E5E3F7E081E1DF011D928A95E9F78D
:103AE000EFE2F7E080E48083D283C18369ED71E087
:103AF00083E297E00E94B4166EED71E089E297E0F0
:103B0000DF91CF910C94B416CF93DF93CDB7DEB78E
:103B1000C654D1090FB6F894DEBF0FBECDBF78945E
:103B200084B5826084BD84B5816084BD85B58260C2
:103B300085BD85B5816085BD80916E008160809373
:103B40006E001092810080918100826080938100DC
:103B500080918100816080938100809180008160EC
:103B6000809380008091B10084608093B100809147
:103B7000B00081608093B00080917A00846080936F
:103B80007A0080917A00826080937A0080917A0036
:103B9000816080937A0080917A00806880937A00B7
:103BA0001092C100E091A105F091A20582E080830E
:103BB000E0919D05F0919E051082E0919F05F091A6
:103BC000A00580E180831092A905E091A505F09100
:103BD000A60586E08083E091A305F091A40580818D
:103BE00080618083E091A305F091A40580818860C5
:103BF0008083E091A305F091A40580818068808393
:103C0000E091A305F091A40580818F7D808385E0FC
:103C100090E0A0E0B0E08093950590939605A09386
:103C20009705B09398051092520310925103109289
:103C30004205109241050E94FB0680EC92E09093B1
:103C40009B0280939A0281EC92E090939902809378
:103C5000980288E08093B800EE24E39410E000E03E
:103C600020E030E048E452E460E070E080EA91E473
:103C70000E942B178BE60E94330C84EC92E00E948A
:103C8000140C8DEB92E00E94140C84EB92E00E94E5
:103C9000140C8AE191E00E94F40E882321F08FEF4A
:103CA00093E00E94A11987E791E00E94B40324E306
:103CB000E22E23E0F22E00E110E0C8010E94F40E93
:103CC000D7018D937D010F5F1F4F00321105A9F7BA
:103CD0001092520310925103109242051092410526
:103CE0000E94FB0680EC92E090939B0280939A02E4
:103CF00081EC92E0909399028093980240E860E012
:103D00008FE297E00E94A9096AE070E080E090E00D
:103D10000E94DA0440E050E06AE774E48FE297E042
:103D20000E94050B80E498E7ADE7B1E0809332078D
:103D300090933307A0933407B093350783E191E064
:103D40000E94F40F092E000CAA0BBB0B80939C025F
:103D500090939D02A0939E02B0939F02885D994527
:103D6000A109B10985399141A105B10560F088EA41
:103D700091E6A0E0B0E080939C0290939D02A09316
:103D80009E02B0939F0260919C0270919D0280916F
:103D90009E0290919F020E94B63220E030E04AE7F6
:103DA00054E40E94F5346B017C014B015C01AC01D1
:103DB0009B010E943936882309F448C083EE91E0C4
:103DC0000E94030C0E94100C20919C0230919D02D5
:103DD00040919E0250919F02A8EEB3E00E940834E9
:103DE0006B017C0140E050E060E773E48FE297E014
:103DF0000E94050BC0923807D0923907E0923A072B
:103E0000F0923B07C0923207D0923307E09234071A
:103E1000F09235070E94190A8EE791E00E94140C77
:103E200090E080E08C010F5F1F4F805C9E4F0E94EE
:103E3000F40E080F111DC801805C9E4F0E94F40E05
:103E40008E3409F493C0C8010496ECCF26013701E3
:103E5000E89477F82FEF3FEF4FE75FE7C301B20138
:103E60000E94393681110DC02FEF3FEF4FE75FE71A
:103E7000C301B2010E94AF3218161CF487EE91E024
:103E80009FCF2FEF3FEF4FE75FE4C701B6010E94DE
:103E9000DC3518161CF48BEE91E092CF2FEF3FEF3C
:103EA0004FE75FECC701B6010E94AF3287FDF3CF49
:103EB00020E030E0A901C701B6010E94AF3287FFC0
:103EC00009C08DE20E94AF0346015701B7FAB094D2
:103ED000B7F8B0942AE037ED43EA5BE3C501B401DB
:103EE0000E9484344B015C010E946E356B017C01A1
:103EF0000E94B4329B01AC01C501B4010E9483341D
:103F00004B015C014AE0C701B6010E943F0C8EE202
:103F10000E94AF0320E030E040E251E4C501B4016B
:103F20000E9415334B015C010E946E356B01F12C30
:103F3000E12C4AE0C701B6010E943F0CC701B6015F
:103F40000E94B4329B01AC01C501B4010E948334CC
:103F500020E030E040E251E40E9415330E946E35CB
:103F600090E080E04AE00E943F0C2CCF68E071E0D6
:103F7000C8018E5B9E4F0E94CD0EF8941092800077
:103F800089E08093810080E293E0909389008093A0
:103F90008800109285001092840082E080936F0068
:103FA0007894109250061092550610925406809103
:103FB000510660E00E94720464E070E086E497E0DD
:103FC0000E94ED1561E083E00E94720486E090E0BB
:103FD0000E944F308C01DC0111961C921E921396A8
:103FE0001C921E92129715961C921E92149784E8AA
:103FF00091E00E94140C10934C0300934B03E1E4F6
:10400000F1E026E531E023963FAF2EAF23972396CC
:10401000AEADBFAD23972D913D912396BFAFAEAF0F
:1040200023978191D9018C9323962EAD3FAD239791
:104030002857314061F710920701BDE3EB2EB1E044
:10404000FB2E10E5912ECC24CA94D12C80E1A82E11
:1040500090E6892E89E190E00E944F308C01DC01CE
:104060001196FC92EE9212969C9212971496DC9204
:10407000CE92139716961C921E92159718961C9224
:104080001E921797FC013996DF012A2D1D922A9561
:10409000E9F70E94CD0CB82E86E992E0BB20E9F149
:1040A00080910101882391F01092010185E792E04F
:1040B0000E94140C8CE192E00E94140C85ED91E0BA
:1040C0000E94140C81EA91E00E94140C0115110564
:1040D00041F0D801ED91FC910280F381E02DC801FF
:1040E000099589E190E00E944F308C01FC01F1823A
:1040F000E0828282D482C382168215821086178261
:104100003996DF012A2D1D922A95E9F70E94CD0CE0
:10411000B82E811137C18AE891E00E94140C1093E7
:10412000DB020093DA0268EE73E080E090E00E9428
:10413000DA04B1108FCFE091D802F091D902EE0FDE
:10414000FF1FEE5AFE4F608171818091DA029091DB
:10415000DB020E94120E0E940D056093D402709340
:10416000D5028093D6029093D7020E940D0500914C
:104170004B0310914C0387E090E00E944F307C018C
:104180008BE6F70180831682158283E090E09483AA
:10419000838384E090E00E944F30FC01D7011296A7
:1041A0009C938E93119783E7808389E6818384E7CC
:1041B00082838091530381548A3108F0F0C08EE7E6
:1041C000838386E090E00E944F30FC01F182E08220
:1041D0001382128215821482D80114968D919C91BB
:1041E0001597009709F0DDC01396FC93EE93129794
:1041F0001596FC93EE931497F801808191810196B6
:104200009183808380E10E94A304BC01990F880BF5
:10421000990B611571058105910511F00E940F320E
:104220008FE091E00E941D1164EF71E080E090E06A
:104230000E94DA041092E0028DEA92E00E94140CCF
:104240009E012F5F3F4F3AAF29AF1E0131E2230E8F
:10425000311C00914B0310914C03D8018D919C911E
:10426000892B09F0A7C00E940D05C090A002D09034
:10427000A102E090A202F090A3026C197D098E09C0
:104280009F09C0900201D0900301E0900401F090DA
:104290000501C616D706E806F9060CF08BC088E5BE
:1042A00096E09093B2028093B1028091540690916F
:1042B00055069093B4028093B3028091220790E058
:1042C0009093B6028093B50280915006833009F036
:1042D000A1C280915A0690915B06875891098E354C
:1042E000910508F091C2809154069091550604976B
:1042F00009F059C280915C0690915D0680974797BE
:1043000008F051C280915E0690915F060997099767
:1043100008F049C21092B0021092AF022FEF3FEFA7
:10432000A9012093A9023093AA024093AB025093B3
:10433000AC0283E090E09093A6028093A502809166
:10434000A9029091AA02A091AB02B091AC02892F70
:104350009A2FAB2FBB278A3509F4B2C308F069C383
:10436000823209F495C308F04EC3803109F4A5C325
:1043700008F0FFC26FEF72E0823009F402C36FE011
:1043800072E0A9C30115110509F4CDCED801ED9154
:10439000FC910280F381E02DC8010995C4CE80E034
:1043A0000FCF95838483DC011396FC93EE931297D1
:1043B000D8011ECFF80180819181181619060CF0E2
:1043C0008FC00E940D05C090A002D090A102E09085
:1043D000A202F090A3026C197D098E099F09C0907A
:1043E0000201D0900301E0900401F0900501C6168F
:1043F000D706E806F9060CF073C0D8011296ED91C5
:10440000FC91F12CE12C309711F0E080F180F70164
:10441000408140935303638174817093450360939B
:10442000440385819681092E000CAA0BBB0B809357
:10443000020190930301A0930401B09305018181CF
:104440009281A7E5B3E09D01275533402617370732
:104450002CF4FC012191CF012D93F5CF41548EE72F
:104460004A3108F080E0FB01E95AFC4F80830E944A
:104470000D056093A0027093A1028093A202909315
:10448000A30285E080934803E114F10459F0D701B9
:1044900011968D919C91009711F00E94EB30C7010D
:1044A0000E94EB30F80182819381009711F40C9403
:1044B0003830DC011296ED91FC91D8011396FC93F3
:1044C000EE931297309709F46CC1158214820E9402
:1044D000EB30D8018D919C91119701978D939C930E
:1044E00010914803112309F4B5C000915303802FA4
:1044F000002E000C990B0E947738F82E809347030A
:104500001530D8F4B2E68B17C1F00C34B1F0093491
:10451000A1F0612F70E0615F7F4F072E000C880BC8
:10452000990B0E94B632EE24E39410E000E020E004
:1045300030E040EA50E40E942B1780910A01882362
:1045400049F0EBE6FE1206C088EF9BE00E94A80B44
:1045500010920A01809146038356823050F4809174
:104560005303833631F081E08093090187E40E9490
:10457000330C80915303803751F0809108018111F1
:1045800006C081E08093080180E70E94330C80918F
:104590005303843614F00C94242B823614F00C94BC
:1045A000B72C8B3411F40C949F2D14F00C94012B28
:1045B000823411F40C944D2D0CF0A6C78F3311F4F6
:1045C0000C94092C809153038B3621F490912F0584
:1045D0001916CCF40E94330C809146038B3699F463
:1045E000809153038A3661F0803751F08091470300
:1045F000873631F0982F9B7F993611F0863719F462
:104600008BE680935303109153031B3691F48091F2
:104610005703882371F06FEB71E087E593E00E9408
:104620008838892B31F067E573E080EE92E00E94D4
:10463000913810924803109346031B3629F0135605
:10464000123010F01092530310925703109245034A
:1046500010924403809153038B3609F049C0E090D7
:104660002F05E7FC02C00C94792E80913D05DD24D6
:10467000DA94D80E823008F4D12C10E03EECC32E30
:1046800042E3B42E212F30E080912F05082E000C3C
:10469000990B97FF03C091958195910928173907C8
:1046A00064F481E995E00E942003892B11F40C94B5
:1046B0002B2E86E092E00E94681483E49DE001972F
:1046C000F1F780912F0587FF13C08FE091E00E94E2
:1046D0006C02E3EFF2E083E393E011921192119206
:1046E00011928E179F07C9F7809153030E94330CD4
:1046F0000E940D0520E137E240E050E00E94523474
:1047000080910B0190910C01092E000CAA0BBB0BA0
:1047100082179307A407B507BCF5790130930C0104
:1047200020930B0185E10E94A3048C018A389240FA
:104730003CF58091490390914A030817190721F02D
:10474000E2E0EE16F104E4F482E693E00E94B403A2
:10475000C80163E670E00E948737072E000C880BC3
:10476000990B0E94A30C86E50E94330C8AE191E02C
:104770000E94F40E882321F081ED93E00E94A1199C
:1047800010934A030093490380E090E0892B09F4D9
:1047900060CD0E942C03882309F457CD0E940000AD
:1047A00054CDF80192CE80915406909155068434F0
:1047B000910550F180915C0690915D0681549109BC
:1047C0008F9710F590E080E040E050E0BA01FC01E6
:1047D000E25AF94F208131812950310929303105C0
:1047E00098F4FC01E05AF94F2081318127513109B9
:1047F0002231310508F49FC02081318126503109D2
:104800002730310508F4B0C01092500610925506BA
:104810001092540681E995E00E94200318161906AB
:104820000CF072C081E995E00E94FE02B82E8093E0
:104830005303082E000C990B0E947738182F809391
:10484000470382E08093480361E070E080E090E0FD
:104850000E94DA04BFEBBB0DBBAF4EE7A42EBA310A
:1048600010F03AE0A32E0E940D052B013C01EBE471
:10487000BE1621F085E090E0123611F488EC90E04D
:104880001B7F1FAF6C01990FEE08FF0881E995E0CF
:104890000E942003892B09F4F0C100914403109178
:1048A0004503FBE6BF1619F02FAD293639F4809188
:1048B0000D0190910E01081719072CF4033D31E00A
:1048C00013070CF4C0C18AE093E00E94140C64EF5B
:1048D00071E080E090E00E94DA0481E995E00E94B6
:1048E000FE0281E995E00E942003892BB1F78091B7
:1048F00053030E94330C8BE68093530366E072E00F
:1049000087E593E00E9491380E940D0520914803AD
:104910002150223008F0E2C10E940D056854744F06
:104920008F4F9F4F6093DC027093DD028093DE0215
:104930009093DF02D5CD440F551F661F771F41604E
:1049400004968038910509F042CF80E290E0909380
:10495000B0028093AF024093A9025093AA026093E1
:10496000AB027093AC02E5CC440F551F661F771F56
:10497000E7CF823109F4ADC067EE72E0883109F00B
:10498000FECCC1010E94C51662EF71E0C1010E9418
:104990004C0D882309F4A3C069EC71E086E497E02C
:1049A0000E947E1666E477E0CE01C1960E946216F0
:1049B000C1010E94750D6FE072E0CE01C1960E94A8
:1049C0004C0D811115C069A97AA98DA99EA90197DD
:1049D00009F025C16115710521F41092A40264EA61
:1049E00072E0DB018C918093530381E08093480354
:1049F000109250061092550610925406CE01C196A0
:104A00000E94750D07CF823409F45DC048F48033ED
:104A100009F44DC06DED72E0883309F4B2CFAFCC2C
:104A20008A3409F453C06FEC72E0823509F4A9CFDF
:104A3000A6CC823A39F198F48A37E1F140F4823613
:104A400021F164EF72E0883609F49BCF98CC80396D
:104A500059F161EF72E0883909F493CF90CC823C30
:104A6000D1F040F4883AE9F06EEE72E0803B09F450
:104A700088CF85CC803E91F064E073E0823E09F4FB
:104A800080CF7DCC68E073E07CCF66E073E079CFC7
:104A900062E073E076CF6DEF72E073CF6BEF72E0A0
:104AA00070CF69EF72E06DCF67EF72E06ACF6BEEA7
:104AB00072E067CF63EE72E064CF60EE72E061CFC8
:104AC00069ED72E05ECF66ED72E05BCF61ED72E0A2
:104AD00058CF6FEE71E0C1010E94B41655CF64EF5C
:104AE00071E0C1010E944C0D81110FC066EF71E0B1
:104AF000C1010E944C0D811108C068EF71E0C10135
:104B00000E944C0D882309F442C08DA19EA1892BDF
:104B100021F0E9A1FAA1309721F41092A402E4EA6D
:104B2000F2E0108110930601163471F469EC71E023
:104B300086E497E00E944C0D882331F066ED71E029
:104B400086E497E00E947E1666E477E0CE01019647
:104B50000E94621619AB1AAA41E050E0BE016F5CD8
:104B60007F4FCE0101960E941516811104C0CE011F
:104B700001960E94630DBE016F5F7F4FCE01C1960B
:104B80000E946216CE0101960E94750D11CF6AEF48
:104B900071E0C1010E944C0D09A11AA181112DC023
:104BA0006DEF71E0C1010E944C0D811126C060E0E3
:104BB00072E0C1010E944C0D81111FC066ED71E0D1
:104BC000C1010E944C0D811118C063E072E0C10167
:104BD0000E944C0D811111C01AAB09AB8BA19CA195
:104BE0009CAB8BAB8DA19EA19EAB8DAB1AA219A2E3
:104BF0001CA21BA21EA21DA2DBCE0115110551F0A5
:104C00004DA15EA1B80186E497E00E944116109183
:104C100006019ACF86E497E00E94630DF8CF8BE6F9
:104C20008093530387E593E00E94913866E072E039
:104C300087E593E00E948838892B09F0D6CE86E478
:104C400080930601D2CE81E995E00E94FE02980190
:104C50002F5F3F4F3093450320934403F801E95AF7
:104C6000FC4F808381E995E00E942003892B09F0A5
:104C700014CE0E940D052B013C01009144031091BC
:104C80004503480141E0841A9108C401895A9C4FA8
:104C90009EAF8DAFDC018C918A1561F00E940D05ED
:104CA00064197509860997096C157D058E059F05A0
:104CB0000CF4ECCDEDADFEAD8081A81201C08401F5
:104CC0001093450300934403FBAD8EE7FA3108F0DF
:104CD00080E0F801E95AFC4F808316CE20915303FF
:104CE000233609F4FDCB0091DC021091DD02209106
:104CF000DE023091DF02601B710B820B930B1616E4
:104D00001706180619060CF0EBCB6090DA027090CB
:104D1000DB02E091D802F091D902EE0FFF1FEE5AAC
:104D2000FE4F40805180D30113968D919C91009746
:104D300011F0019731F0B201C3010E949B057C0183
:104D4000FEC0F30185819681DC01ED91FC91048028
:104D5000F581E02DAE014F5F5F4F6FE10995F12CBA
:104D6000E12C8111ECC07EAE6DAE1CAE1BAEF12C01
:104D7000E12CDBACD394E1E0F0E00BAC02C0EE0F31
:104D8000FF1F0A94E2F72596FFAFEEAF2597CF01FC
:104D900084219521892B09F4C3C0ADADBEAD199610
:104DA000ED91FC91309709F4BBC0998180819817EF
:104DB00009F4B6C061E0C3010E94C706F301058192
:104DC0001681D801ED91FC910284F385E02D4D2DE3
:104DD00060E2C80109956111B2C0D801ED91FC9162
:104DE0000084F185E02DAE014E5F5F4F64E3C801A2
:104DF00009956111A4C08A81882309F47CC0D80177
:104E0000ED91FC910084F185E02DAE014F5F5F4F85
:104E10006FE1C8010995611192C08A81811181E019
:104E20008A83FE0131966F01812C912C54018A8175
:104E300090E0B0E0A0E088169906AA06BB0608F04C
:104E40005AC0D801ED91FC910284F385E02D41E038
:104E5000480D65E3C8010995F60135962196FFAF27
:104E6000EEAF219761116BC0A6014E5F5F4FD80175
:104E7000ED91FC910084F185E02D60E4C801099575
:104E8000A6014D5F5F4FD801ED91FC910084F18543
:104E9000E02D61E4C8010995A6014C5F5F4FD80180
:104EA000ED91FC910084F185E02D62E4C801099543
:104EB000D801ED91FC910084F185E02D21964EAD55
:104EC0005FAD219763E4C8010995A6014A5F5F4F72
:104ED000D801ED91FC910084F185E02D64E4C801D6
:104EE0000995BFEF8B1A9B0AAB0ABB0A2196CEAC81
:104EF000DFAC21979CCF60E0C3010E94C706EDADF7
:104F0000FEADA185B28587E0FE01319601900D923C
:104F10008A95E1F725962EAD3FAD2597E22AF32A33
:104F20004BAD5CAD4F5F5F4F5CAF4BAF8DAD9EAD9A
:104F300002969EAF8DAF4830510509F01ACFE4209C
:104F4000F520EF2809F4EFCE80E040FC04C0569431
:104F500047948F5FFACF282F30E0220F331F620E65
:104F6000731ED3011996ED91FC91309709F475C227
:104F7000893008F072C28181882309F46EC20E94D0
:104F80000D056093D4027093D5028093D60290935E
:104F9000D702A091DA02B091DB022091D8023091C1
:104FA000D902F901EE0FFF1FEE5AFE4F8081918169
:104FB00040E0BC0160FD04C0769567954F5FFACF75
:104FC000E42FF0E0EE0FFF1FEA0FFB1F0184F285D4
:104FD000E02D309781F0493070F4428150E05093D9
:104FE000D3024093D20240E0BC0160FD06C076953A
:104FF00067954F5FFACF40E0F1CFE42FF0E0EE0F7E
:10500000FF1FEA0FFB1F0184F285E02D309779F036
:10501000493068F4438150E05093D1024093D0026C
:1050200040E080FD06C0969587954F5FFACF40E03F
:10503000F2CFE42FF0E0EE0FFF1FEA0FFB1F018419
:10504000F285E02D309729F1493018F5848190E000
:105050009093CF028093CE022130310521F51D9629
:10506000ED91FC9100E0309709F0068110E080910D
:10507000CC029091CD0280179107A9F0309731F0C2
:105080008681813041F0823009F4DFC18EE093E007
:1050900004C080E0DCCF86E293E00E94140C109301
:1050A000CD020093CC026091D2027091D302072E00
:1050B000000C880B990B0E94B63220E030E048E4E7
:1050C00052E40E9483340E9467354B016091D00204
:1050D0007091D102072E000C880B990B0E94B632FA
:1050E00020E030E048E452E40E9483340E946735B7
:1050F0006B019B01C40197FE04C08827992788197A
:105100009909029754F4C60137FF04C088279927EC
:105110008C199D0902970CF4E3C96091CB02062E0D
:10512000000C770B880B990B0E94B63220E030E020
:1051300040E251E40E94F5342B013C01B601DD0C44
:10514000880B990B0E94B632A30192010E94F5349C
:105150000E9467356B01B401990C880B990B0E9472
:10516000B632A30192010E94F5340E946735209166
:10517000C9023091CA02F901E61BF70BBF01412CAD
:10518000512C5AEF652E52EC752E6438FFEF7F07D5
:105190006CF06E37710514F06DE770E0072E000CAF
:1051A000880B990B0E94B6322B013C016091C8021A
:1051B000062E000C770B880B990B0E94B63220E06C
:1051C00030E040E251E40E94F5344B015C01AC0157
:1051D0009B01C301B2010E94F5340E9467358B0127
:1051E0007093CA026093C9026091C6027091C702AF
:1051F0006C197D0964382FEF72070CF429C16E37E2
:10520000710514F06DE770E0072E000C880B990B08
:105210000E94B632A50194010E94F5340E946735C0
:105220002B017093C7026093C60288E0D1011D92E2
:105230008A95E9F78091C50289A78AA78091C4025F
:105240008BA78CA78091C3028DA78EA78091C202E5
:105250008FA788AB80E1E9ADFAAD11928A95E9F7A5
:105260008091C10289838091C0028C839091BF029A
:10527000998B8091BE0281958A8B91959B8B8C8BAB
:105280009091BD02892F81958D8B8091BC028E8B70
:105290009F8B888F9091BB02892F8195898F8091F8
:1052A000BA028A8F9B8F8C8F9091B9029D8F8091CB
:1052B000B80281958E8F91959F8F88A38091B702B8
:1052C000809307013EAE2DAE9E012F5F3F4F3CAF56
:1052D0002BAF47E553E021965FAF4EAF2197CE014C
:1052E000C19698AF8FAB9801110F440B550B2796C1
:1052F0002CAF3DAF4EAF5FAF2797052C000C660873
:105300007708ADADBEAD6D91BEAFADAF062E000C52
:10531000770B880B990B0E94B6326B017C01EBADC9
:10532000FCAD108120E030E0A9011123F9F02796AF
:105330006CAD7DAD8EAD9FAD27970E94B63220E05B
:1053400030E040E251E40E9415334B015C01612FD3
:10535000110F770B880B990B0E94B6329B01AC01A1
:10536000C501B4010E94F5349B01AC01C701B6012F
:105370000E9484346B017C01ABADBCAD11961C91D5
:1053800020E030E0A9011123D9F0C301B2010E944D
:10539000B63220E030E040E251E40E9415334B0188
:1053A0005C01612F110F770B880B990B0E94B632AD
:1053B0009B01AC01C501B4010E94F5349B01AC0115
:1053C000C701B6010E9484346B017C0120E030E00B
:1053D0004AEF52EC0E94AF3263E887FD0FC020E035
:1053E00030E04AEF52E4C701B6010E94DC356DE7B8
:1053F000181624F0C701B6010E9467352196EEAD5C
:10540000FFAD219761932196FFAFEEAF21972BADB2
:105410003CAD2E5F3F4F3CAF2BAF4FA958AD8DAD8C
:105420009EAD4817590709F06CCF80E190E090934A
:105430004503809344038CE4809353038EE7809369
:10544000670386E0809348034BC88FE193E025CE45
:1054500060E070E08AEF92ECDDCE0E940D050091D5
:10546000D4021091D5022091D6023091D702601B50
:10547000710B820B930B613D77408105910508F418
:105480002FC8E091D802F091D902EE0FFF1FEE5A1B
:10549000FE4F6081718140E08091DA029091DB02E1
:1054A0000E947D0D8091D8029091D9020196817061
:1054B00099279093D9028093D802880F991FFC01F5
:1054C000EE5AFE4F608171818091DA029091DB0289
:1054D0000E94120E2091D8023091D90246E0429FDC
:1054E000C001439F900D11248D5D984F0E94200CA8
:1054F0000E940D056093D4027093D5028093D6026A
:105500009093D7020C947022873409F48CC18934AB
:1055100009F058C8809144039091450302970CF418
:1055200030C21092330390900901AFE0EA2EA1E05F
:10553000FA2E9E012F5F3F4F5901B3EFCB2EB2E001
:10554000DB2E8901D7016D917D917D01072E000C25
:10555000880B990B0E94B63220E030E0A901992017
:1055600029F0F60120813181428153810E948334E8
:105570000E946735D5016D937D935D01B4E0CB0E3C
:10558000D11CEFE2EE16E1E0FE06E1F6F7E5EF2EC4
:10559000F3E0FF2EDD24D3942091440330914503A2
:1055A000C70187559340821793070CF052C2D70169
:1055B0004C914031B8F411962C91022E000C330B13
:1055C000842F880F990BF801E80FF91F318320838E
:1055D00044300CF03BC285519D4FFC013183208348
:1055E000D0925403809153038D3439F440E050E05D
:1055F00060E070E4C8010E943911F2E0EF0EF11C86
:10560000CBCF8D3409F486CF0CF436C2843509F43F
:105610007FC2813611F00C94E22284E493E00E9470
:10562000140CA4E3EA2EA3E0FA2E00E110E0C80176
:105630000E94F40ED7018D937D010F5F1F4F003242
:105640001105A9F70C94E2228B3609F4E9C20CF09B
:1056500044C0873611F40C94E222CCF4843611F065
:105660000C94E22264E172E087E593E00E949138B5
:1056700087E593E00E9468140E94190A10920901BC
:105680001092540387E60E94330C0C94E222893670
:1056900009F470C18A3611F00C94E2228DE30E9465
:1056A000AF038091440390914503892B09F4D3C043
:1056B00087E593E00E941832880F991FFC01E15F93
:1056C000FE4F60817181072E000C880B990B0E94A0
:1056D000A30C0E94100C0C94E222803709F4A8C09D
:1056E0000CF08FC08D3611F00C94E222109233032F
:1056F000709009010FE011E0FE0131966F01E3EFB8
:10570000EE2EE2E0FE2EFFE28F2EF1E09F2E5601FC
:10571000D8016D917D918D01072E000C880B990B9E
:105720000E94B63220E030E0A901772029F0F7018D
:1057300020813181428153810E9483340E946735E8
:10574000D6016D937D936D01B4E0EB0EF11C8016D4
:105750009106F1F669E072E087E593E00E94463237
:105760006C0174E4472E73E0572EC114D10409F480
:105770000CC1C6010E9418328C016CE072E090E00E
:1057800080E00E9446326C01F12CE12C8824839445
:10579000912C009769F00E9418327C016CE072E055
:1057A00090E080E00E9446326C0162E0862E912CEF
:1057B00080915303982F9B7F993609F085C3003160
:1057C0001105A0F49801220F331FF501E20FF31F1A
:1057D000F182E082043011050CF0DEC025513D4F0E
:1057E000F901F182E08291E0909354038D3609F043
:1057F0000AC140E050E060E070E4C5010E94391148
:10580000F8C3833709F459C08D3709F46FCF0C946E
:10581000E2228BE593E00E94140C82E593E00E9463
:10582000140C0C94E22287E6809353030C94E2223A
:105830009091080121E0911120E02093080191113D
:1058400080E580935303911102C08BE6EDCF0E9457
:10585000190A0C94E2220E94830C6FE072E0C101ED
:105860000E94B4160FE011E08FE2E82E81E0F82EDE
:10587000D8016D917D918D01CE0101960E9488160F
:105880004D815E8169817A81C1010E941516CE0128
:1058900001960E94750D42E050E06DE072E0C1019A
:1058A0000E941516E016F10619F7C1010E94200C9E
:1058B000C1010E94750D0C94E2228CE493E00E94D9
:1058C000140CB4E38B2EB3E09B2E10E4E12EF12CEC
:1058D00000E110E0F401D1904F01C8010E94D333E0
:1058E000D81621F06D2DC8010E94DB33C7010E943C
:1058F000F40F6C01C80180960E94F40EB82EF401DA
:1059000031976081062E000C770B880B990B0E9453
:10591000B6322B013C016B2DBB0C770B880B990B1E
:105920000E94B6329B01AC01C301B2010E94153343
:105930002B013C01B601DD0C880B990B0E94B6329D
:105940009B01AC01C301B2010E9484340E946735FF
:10595000C70180960E94CD0E0F5F1F4FF2E0EF0E41
:10596000F11C0032110509F0B5CF0C94E222893602
:1059700009F0BCCE8091440390914503892B09F036
:10598000B5CE109254030C94E222F12CE12C10E0DD
:1059900000E0912C812C0CCF91E09093330326CF23
:1059A000823689F5892879F48AE191E00E94F40E23
:1059B0002AE131E03AA329A361E0811160E0C1014D
:1059C0000E94B40E16C3E114F10409F412C388EE68
:1059D00093E0B7010E948737072E000C880B990BC4
:1059E0000E94B6323B014C01B801110F880B990B94
:1059F0000E94B632EE24E39410E000E0A40193018B
:105A00000E942B17F6C28D3709F0F3C2B2E08B1655
:105A1000910409F0EEC2F801EE0FFF1FEA5AFE4FA3
:105A20000190F081E02DE082B801110F880B990BF5
:105A30000E94A30C89E00E94AF03B701FF0C880B02
:105A4000990B0E94A30C0E94100CD3C2D092330376
:105A5000C9CD80913303811106C0809146038B36F6
:105A600011F40C94E22240E050E060E870E4C801D8
:105A70000E943911C801F8C26091070170E090E0FE
:105A800080E00E94B4329B01AC0100E061E087E558
:105A900093E00E94B1120C94E222F12CE8EECE2E9B
:105AA000E3E0DE2E0F2D10E080914403909145033A
:105AB00097FD019695958795081719070CF0DFC299
:105AC000000F111F095A1C4FD80111966C91062E18
:105AD000000C770BC6010E948737072E000C880B3D
