:100000000C9415010C943D010C943D010C943D01A0
:100010000C943D010C943D010C943D010C9411167F
:100020000C943D010C943D010C943D010C942E1850
:100030000C943D010C943D010C943D010C943D0148
:100040000C94C5160C943D010C9493160C946D16EB
:100050000C943D010C943D010C943D010C943D0128
:100060000C940F170C943D0105A84CCDB2D44EB999
:100070003836A9020C50B9918688083CA6AAAA2A4B
:10008000BE000000803F07634236B79BD8A71A39ED
:10009000685618AEBAAB558C1D3CB7CC5763BD6DD6
:1000A000EDFD753EF6177231BF000000803F08007D
:1000B0000000BE922449123EABAAAA2ABECDCCCCE7
:1000C0004C3E00000080BEABAAAAAA3E0000000081
:1000D000BF000000803F0000000000084178D3BB53
:1000E0004387D1133D190E3CC3BD4282AD2B3E6800
:1000F000EC8276BED98FE1A93E4C80EFFFBE01C4F1
:10010000FF7F3F0000000000010000010000000030
:1001100000000000000000000000000000000000DF
:10012000240027002A0000000000250028002B00E2
:100130000000000023002600290004040404040435
:100140000404020202020202030303030303010286
:100150000408102040800102040810200102040855
:100160001020000000080002010000030407000046
:1001700000000000000002536572766F3A00536B76
:10018000696C6C005461736B510052656164792134
:10019000004E5F32343039303700426974746C6518
:1001A000000A2A205374617274202A005400736379
:1001B000726800636B0070656500707500686900A7
:1001C0007374720073697400747200776B006372E9
:1001D0000076740063004200700052007570004C9D
:1001E000006700460064004F5646004F56462120E7
:1001F000576F6E27742073617665210061626F729C
:10020000746564007361766564004E5F3234303922
:10021000303700426974746C65004C6F7720706FE2
:100220007765723A0000FA18052711241FBECFEF38
:10023000D8E0DEBFCDBF11E0A0E0B1E0E0EDFEE52B
:1002400002C005900D92A23EB107D9F726E0A2EEBA
:10025000B1E001C01D92AA3EB207E1F711E0C4E18E
:10026000D1E004C02197FE010E94552EC331D10771
:10027000C9F70E946D190C945B2F0C94000047E0A5
:1002800018160CF444E04093D80498E0823024F42B
:1002900094E1813009F490E19093D904282F880FDC
:1002A000330B37FF03C0319521953109929FB0017F
:1002B000939F700D1124CB01840F911D089580919F
:1002C000FC02082E000C990B9093DB048093DA0457
:1002D0008091FD02082E000C990B9093DD04809311
:1002E000DC048091FE028093DE048091D30487FFBA
:1002F0000EC09091FF029093DF04909100039093C1
:10030000E004909101039093E10490E005C08130F6
:10031000E1F398E08230CCF39093E204082E000CD5
:10032000990B97FF03C09195819591094091D9044C
:10033000489F9001499F300D112482ED91E0821B6E
:10034000930B90930C0180930B016091D804620F82
:10035000732F711D8BEF92E050E040E0FC01E60F3F
:10036000F71FA081FC01ED52FE4FA0834F5F5F4F4E
:1003700001972417350794F78EE78093CE048EEC0F
:1003800094E0821B930B9093E4048093E30408951C
:10039000CF93DF93DC019096FC0141E85FEF60E8CA
:1003A00070E021913191261737070CF4B9014217FB
:1003B00053070CF4A901EA17FB0799F763387F4F3D
:1003C0001CF04E3751056CF122E02093DE04DC0175
:1003D0002D913D91ED01229737FF02C02F5F3F4FD6
:1003E0003595279539832883AE17BF0789F7A091E4
:1003F000E304B091E404EC01288102962D938E175A
:100400009F07C9F781E08093D3041092E20480E152
:100410008093D9041092FA021092F902DF91CF91E1
:10042000089521E02093DE04E2CF8091F5029091BF
:10043000F602891B990B089508950895AF92BF9213
:10044000CF92DF92EF92FF920F931F93CF93DF93A0
:100450006C017B018B01040F151FEB015E01AE18CF
:10046000BF08C017D10759F06991D601ED91FC91F1
:100470000190F081E02DC6010995892B79F7C5011E
:10048000DF91CF911F910F91FF90EF90DF90CF9070
:10049000BF90AF900895FC01538D448D252F30E01F
:1004A000842F90E0821B930B541710F0CF96089581
:1004B00001970895FC01918D828D981761F0A28DAE
:1004C000AE0FBF2FB11D5D968C91928D9F5F9F7374
:1004D000928F90E008958FEF9FEF0895FC01918D2A
:1004E000828D981731F0828DE80FF11D858D90E097
:1004F00008958FEF9FEF0895FC01918D228D892F34
:1005000090E0805C9F4F821B91098F73992708951B
:1005100085E395E00E947C0221E0892B09F420E02C
:10052000822F089580E090E0892B29F00E948802B4
:1005300081110C9400000895FC01A48DA80FB92F1F
:10054000B11DA35ABF4F2C91848D90E001968F73FB
:100550009927848FA689B7892C93A089B1898C911A
:10056000837080648C93938D848D981306C0028869
:10057000F389E02D80818F7D80830895EF92FF9233
:100580000F931F93CF93DF93EC0181E0888F9B8DB6
:100590008C8D98131AC0E889F989808185FF15C070
:1005A0009FB7F894EE89FF896083E889F989808193
:1005B0008370806480839FBF81E090E0DF91CF9162
:1005C0001F910F91FF90EF900895F62E0B8D10E084
:1005D0000F5F1F4F0F731127E02E8C8D8E110CC0F3
:1005E0000FB607FCFACFE889F989808185FFF5CF3E
:1005F000CE010E949C02F1CFEB8DEC0FFD2FF11D7F
:10060000E35AFF4FF0829FB7F8940B8FEA89FB897A
:1006100080818062CFCF682F85E395E00C94BE0285
:100620000F931F93CF93DF938C01D0E0C0E0F801CC
:10063000EC0FFD1F6491662341F085E395E00E9475
:10064000BE02892B11F02196F2CFCE01DF91CF911E
:100650001F910F910895CF93DF93EC01888D88232C
:10066000B9F0AA89BB89E889F9898C9185FD03C015
:10067000808186FD0DC00FB607FCF7CF8C9185FFFA
:10068000F2CF808185FFEDCFCE010E949C02E9CFA1
:10069000DF91CF910895833081F028F4813099F073
:1006A0008230A9F008958730A9F08830C9F08430ED
:1006B000B1F4809180008F7D03C0809180008F779E
:1006C00080938000089584B58F7784BD089584B5A4
:1006D0008F7DFBCF8091B0008F778093B00008951D
:1006E0008091B0008F7DF9CFCF93DF93282F30E03A
:1006F000F901EE59FE4F8491F901E25BFE4FD4916E
:10070000F901E65CFE4FC491CC23A1F081110E9457
:100710004B03EC2FF0E0EE0FFF1FE05DFE4FA591C5
:10072000B491EC91ED2381E090E009F480E0DF9159
:10073000CF91089580E090E0FACF1F93CF93DF939D
:10074000282F30E0F901EE59FE4F8491F901E25B68
:10075000FE4FD491F901E65CFE4FC491CC23A9F081
:10076000162F81110E944B03EC2FF0E0EE0FFF1FBC
:10077000EA5DFE4FA591B4918FB7F894EC911111F9
:1007800008C0D095DE23DC938FBFDF91CF911F91FE
:100790000895DE2BF8CF9091000189130BC0E6E796
:1007A000F1E0E4919FEF90930001E13049F028F0EF
:1007B000E23061F060E00C949D0310926E00FACF7D
:1007C00090916F009D7F90936F00F4CF9091700097
:1007D0009D7F9093700091E09093B0009091B10054
:1007E000987F94609093B1001092B300E3CFCF93C1
:1007F000DF9390E0FC01E25BFE4F2491865C9E4F0C
:10080000FC0184918823D1F090E0880F991FFC01AE
:10081000E45EFE4FA591B491FC01EA5DFE4FC591E7
:10082000D49161110EC09FB7F8948C91E22FE0959E
:100830008E238C932881E223E8839FBFDF91CF91A1
:1008400008958FB7F894EC91E22BEC938FBFF6CF1D
:100850008E50806480937C0080917A0080648093C5
:100860007A0080917A0086FDFCCF8091780090918B
:10087000790008953FB7F8948091550290915602FF
:10088000A0915702B091580226B5A89B05C02F3FF2
:1008900019F00196A11DB11D3FBFBA2FA92F982FA6
:1008A0008827BC01CD01620F711D811D911D42E0A1
:1008B000660F771F881F991F4A95D1F708958F9269
:1008C0009F92AF92BF92CF92DF92EF92FF926B0115
:1008D0007C010E943A044B015C01C114D104E10483
:1008E000F104B9F00E943A04681979098A099B0950
:1008F000683E73408105910580F321E0C21AD1085A
:10090000E108F10888EE880E83E0981EA11CB11C56
:10091000E4CFFF90EF90DF90CF90BF90AF909F908B
:100920008F9008952FB7F894609151027091520200
:1009300080915302909154022FBF089520912D026F
:10094000260F3327331F21323105ECF420912F0578
:10095000FC0190E080E0243069F082E00895A091ED
:100960002D022191AC01435F5D4FA40FB52FB11D46
:100970002C930196861798F380912D02680F60934F
:100980002D0280E0089581E0089510922F0581E006
:1009900080930E051092090561E082E10E949D039B
:1009A00061E083E10E949D03E9EBF0E080818E7FAE
:1009B000808380818D7F808388E48093B80085E484
:1009C0008093BC000895CF93DF9391E090930C0245
:1009D0008823B9F0C091B800D091BA008091BC00D2
:1009E0008A7B8093BC0060E082E10E949D0360E00E
:1009F00083E10E949D030E94C504D093BA00C09376
:100A0000B800DF91CF910895CF92DF92EF92FF92DD
:100A10000F931F93CF93DF93D82FC62F613208F027
:100A200098C00E943A046B017C0180912F058111CE
:100A30006BC081E080932F0580930E059FEF90930C
:100A40000D0510920C059C0F90930B0580930A05E1
:100A500080910A05DD0FD82BD0930A0580910905F6
:100A6000813009F078C0109209050E943A046B01A8
:100A70007C0180910A058093BB00809131059091A3
:100A80003205A0913305B0913405892B8A2B8B2B2D
:100A9000A1F00E943A040091310510913205209195
:100AA0003305309134056C197D098E099F090617AD
:100AB00017072807390708F448C08091BC0083FD58
:100AC000D8CF85EC8093BC000E943A046B017C0176
:100AD00080912F05813009F440C080910C058C175E
:100AE00010F4C0910C05E9EEF4E0AFE0B5E080E071
:100AF0008C1355C08C2FDF91CF911F910F91FF90D8
:100B0000EF90DF90CF90089580913105909132055C
:100B1000A0913305B0913405892B8A2B8B2B09F4D6
:100B200084CF0E943A040091310510913205209142
:100B30003305309134056C197D098E099F0906171C
:100B400017072807390708F070CF809130050E94F9
:100B5000E304C0E0CFCF85EEB5CF80913105909111
:100B60003205A0913305B0913405892B8A2B8B2B4C
:100B700009F4AECF0E943A0400913105109132057C
:100B800020913305309134056C197D098E099F0938
:100B9000061717072807390708F09ACFD6CF919183
:100BA0009D938F5FA5CF0895E091F6028091F502A5
:100BB000E81730F4F0E0E15FFA4F808190E00895AB
:100BC0008FEF9FEF08959091F6028091F5022FEF3D
:100BD0003FEF981748F4E92FF0E0E15FFA4F2081EA
:100BE00030E09F5F9093F602C9010895CF92DF92A3
:100BF000EF92FF920F931F93CF93DF937C01CB0172
:100C00008A012091E804222389F0EB016B01C40ED4
:100C1000D51ECC15DD0569F06991D701ED91FC91E8
:100C20000190F081E02DC7010995F3CF642F0E9458
:100C30009E04C801DF91CF911F910F91FF90EF901B
:100C4000DF90CF900895CF93DF931F92CDB7DEB79B
:100C500069832091E8042223F9F02091E5042032F1
:100C600058F021E030E0FC013383228390E080E003
:100C70000F90DF91CF9108958091E604E82FF0E086
:100C8000E451FE4F998190838F5F8093E6048093B7
:100C9000E50481E090E0ECCF61E0CE0101960E9496
:100CA0009E04F7CFCF92DF92EF92FF920F931F93A4
:100CB000CF93DF93D091E50481E0D13208F09CC05E
:100CC000C091E7040E943A046B017C0180912F05DA
:100CD00081116CC082E080932F0581E080930E0526
:100CE0008FEF80930D0510920C05D0930B05ACEEA1
:100CF000B1E0E9EEF4E080E0D8138DC010920A056F
:100D000080910A05CC0FC82BC0930A058091090574
:100D1000813009F084C0109209050E943A046B01E9
:100D20007C0180910A058093BB00809131059091F0
:100D30003205A0913305B0913405892B8A2B8B2B7A
:100D4000A1F00E943A0400913105109132052091E2
:100D50003305309134056C197D098E099F090617FA
:100D600017072807390708F442C08091BC0083FDAB
:100D7000D8CF85EC8093BC000E943A046B017C01C3
:100D800080912F05823009F44CC080910D058F3F72
:100D900009F469C080910D05803209F466C0809124
:100DA0000D05803309F463C084E026C080913105CD
:100DB00090913205A0913305B0913405892B8A2B8F
:100DC0008B2B09F483CF0E943A04009131051091D6
:100DD000320520913305309134056C197D098E0957
:100DE0009F09061717072807390708F06FCF80916A
:100DF00030050E94E30485E01092E6041092E504B9
:100E00001092E804DF91CF911F910F91FF90EF9026
:100E1000DF90CF9008959D9191938F5F6DCF85EE78
:100E2000A9CF8091310590913205A0913305B09101
:100E30003405892B8A2B8B2B09F4A2CF0E943A040C
:100E40000091310510913205209133053091340520
:100E50006C197D098E099F0906171707280739079E
:100E600008F08ECFC4CF80E0C7CF82E0C5CF83E04B
:100E7000C3CF90E080E0089508951F93CF93DF9350
:100E8000EC01142F89819A81288131E03093E804A4
:100E90002093E7041092E6041092E504DC01ED9142
:100EA000FC910190F081E02D099589819A81DC0106
:100EB000ED91FC910190F081E02D612F09958981E0
:100EC0009A81DF91CF911F910C945206DC01ED9134
:100ED000FC910190F081E02D0994DC01ED91FC91F1
:100EE0000190F081E02D09940F931F93CF93DF932E
:100EF000EC018A0189819A81288131E03093E804EC
:100F00002093E7041092E6041092E50424E0629F27
:100F1000B00111246A5F7F4F0E946D0770E060E0AE
:100F200089819A810E94660770E060E089819A81D8
:100F30000E946607B80189819A810E946607612F25
:100F400070E089819A810E94660789819A81DF9188
:100F5000CF911F910F910C945206CF93C0E040E0C7
:100F600050E16C2F87EC96E00E947407CF5FC03190
:100F7000B1F7CF910895BF92CF92DF92EF92FF9297
:100F80000F931F93CF93DF93EC0181E08093E804EC
:100F900084E58093E7041092E6041092E5046D2F37
:100FA00070E088EE95E00E946D07BE01772788EE1D
:100FB00095E00E946D0788EE95E00E94520661E080
:100FC00084E50E9404051092F6028093F50288EEF3
:100FD00095E00E94E3058093FB028093D3040E9476
:100FE0003F01EC01F12CE12C1C161D064CF56C2F79
:100FF000CF31D1050CF06EE184E50E940405B82ED6
:101000001092F6028093F5026E018EE1C81AD108A3
:101010008E018091F602B81659F088EE95E00E9494
:10102000E3059FEFE91AF90AF701E550FD4F8083C8
:101030000150110929F0E6010C151D0551F7D4CF17
:10104000DF91CF911F910F91FF90EF90DF90CF90A4
:10105000BF900895CF93DF93EC0189819A81288115
:1010600031E03093E8042093E7041092E6041092F4
:10107000E504DC01ED91FC910190F081E02D0995F2
:1010800089819A810E94520661E088810E9404054C
:101090001092F6028093F50289819A81DC01ED912C
:1010A000FC910284F385E02D0995DF91CF9108959D
:1010B0008F929F92AF92BF92CF92DF92EF92FF9268
:1010C0001F93CF93DF93EC016A017B0120E030E0B6
:1010D00040E85FE3CB01B6010E94692987FD7EC02D
:1010E00020E030EC4AE555E4C701B6010E94962C99
:1010F00018163CF4C12C30ECD32E3AE5E32E35E43F
:10110000F32E6B817C818D819E810E946E294B0123
:101110005C0120E030E040E855E4C701B6010E94E0
:10112000CF299B01AC01C501B4010E94AF2B20E087
:1011300030E040E05FE30E943E2B20E030E040E8FA
:101140005FE30E943D2B6B017C0120E030E040E436
:1011500050E40E94692987FD48C020E030E04FE755
:1011600053E4C701B6010E94962C181634F4C12C22
:10117000D12C9FE7E92E93E4F92E60E0CE010E9486
:101180002A08182F482F4F76406160E0CE010E9458
:101190003D07C701B6010E94282C462F6EEFCE01F5
:1011A0000E943D07412F60E0CE010E943D0765E0AF
:1011B00070E080E090E00E945F04412F406A60E0B0
:1011C000CE01DF91CF911F91FF90EF90DF90CF90F4
:1011D000BF90AF909F908F900C943D07C12CD12C65
:1011E00020E8E22E2FE3F22E8CCFC12CD12C80E40C
:1011F000E82EFE2CC2CF4F925F926F927F928F9219
:101200009F92AF92BF92CF92DF92EF92FF92CF93D5
:10121000C0E06C01F12CE12CC701B6010E946E29DF
:101220004B015C016EEF87EC96E00E942A08682F64
:1012300070E06F5F7F4F90E080E00E946E2920E0B9
:1012400034E244E759E40E94CF292B013C0160912C
:10125000CA067091CB068091CC069091CD060E9473
:101260006E299B01AC01C301B2010E94AF2B9B010F
:10127000AC01C501B4010E94AF2B0E94282CAB0128
:101280006C2F87EC96E00E947407CF5FC03121F687
:10129000CF91FF90EF90DF90CF90BF90AF909F9055
:1012A0008F907F906F905F904F900895FC01019018
:1012B0000020E9F73197AF01481B590BBC0185E3CA
:1012C00095E00C941E0286E791E00C945609CF93AA
:1012D000DF930E941003EC010E9463098C0F9D1F95
:1012E000DF91CF910895CF93DF930E940B03EC0120
:1012F0000E9463098C0F9D1FDF91CF910895CF93BA
:10130000DF93FC01448155816081718185E395E023
:101310000E941E02EC010E9463098C0F9D1FDF9149
:10132000CF9108958F929F92AF92BF920F931F9388
:10133000CF93DF93CDB7DEB7A1970FB6F894DEBF9A
:101340000FBECDBF19A2423008F44AE08E010F5DF6
:101350001F4F842E912CB12CA12CA50194010E9429
:101360000C2BE62FB901CA01EA30F4F4E05DD80194
:10137000EE938D01232B242B252B79F790E080E031
:10138000109719F0CD010E945609A1960FB6F89456
:10139000DEBF0FBECDBFDF91CF911F910F91BF90E8
:1013A000AF909F908F900895E95CE1CFCF92DF924C
:1013B000EF92FF92C12CD12C76014AE0C701B60111
:1013C0000E94920989E00E940B038FEFC81AD80A85
:1013D000E80AF80A80E1C816D104E104F10469F7CB
:1013E000FF90EF90DF90CF900C946309CF92DF9243
:1013F000EF92FF92CF93DF936B017C018DE20E940D
:101400000B03EC0166277727CB016C197D098E0948
:101410009F094AE00E9492098C0F9D1FDF91CF9196
:10142000FF90EF90DF90CF900895FC0124813581EB
:10143000232B39F421E0FB018081882349F020E04F
:1014400007C0808191810E943D2F21E0892BB9F74F
:10145000822F0895AF92BF92CF92DF92EF92FF92C8
:101460000F931F93CF93DF937C01C62F8A015901FD
:1014700087E090E00E9409276C01DC01CC9316966E
:10148000BC92AE921597C154CA3128F5F801D0E04C
:10149000C0E0CE01019621912E3731F0EC01833D61
:1014A0009140B9F7C2EDD1E0F601D483C383CE01F8
:1014B00001960E940927D60112969C938E9311974C
:1014C000F801DC01A8014C0F5D1FE417F50759F086
:1014D00021912D93FACFE80109900020E9F7219797
:1014E000C01BD10BE1CF2091F70221542A3148F1E2
:1014F00020E0C80FD91F288386E090E00E940927CA
:10150000FC01D182C0821382128215821482E7010B
:10151000AC81BD811097B9F49B838A839D838C83B2
:10152000E70188819981019699838883DF91CF9122
:101530001F910F91FF90EF90DF90CF90BF90AF90F1
:1015400008952EE7D6CFB583A48313969C938E93EC
:101550001297D70115969C938E931497E1CF0C9414
:10156000A527CF93DF93EC0188819981009711F033
:101570000E94A527198218821D821C821B821A8252
:10158000DF91CF910895FC0180819181009711F046
:101590000C94A5270895FF920F931F93CF93DF9389
:1015A000EC01F62E08811981C8010E948D2AF816D7
:1015B00021F06F2DC8010E94952ACE01DF91CF91B5
:1015C0001F910F91FF900895FF920F931F93CF9358
:1015D000DF9300D0CDB7DEB78C01F72E9A838983D5
:1015E000CE0101960E94CB0A0F5F1F4F1A83098319
:1015F0006F2DCE0101960E94CB0A66E070E080E07C
:1016000090E00E945F040F900F90DF91CF911F91A7
:101610000F91FF9008950C948D2A2F923F924F9234
:101620005F926F927F928F929F92AF92BF92CF9272
:10163000DF92EF92FF920F931F93CF93DF93CDB77B
:10164000DEB72E970FB6F894DEBF0FBECDBF5C019C
:1016500085E191E00E940B0B682E69E771E0C501FE
:101660000E943D2F762C892B89F4C62CD12CF12C8D
:10167000E12CC114D104E104F10439F00E947A286C
:10168000A70196010E94A32A6B017C2CF501019011
:101690000020E9F73197EA19FB092E2F2150330B6F
:1016A0006901F501E20FF31F30813C87512C10E0F6
:1016B00000E0CE0101967C0181E491E0FC01EE198D
:1016C000FF09FE87ED87651409F49AC01801FFEF42
:1016D0002F1A3F0AC801805C9E4F0E940B0B482EB8
:1016E00047012D853E85020F131F882D8E19841505
:1016F00048F4C801880D991D0E940B0BF4018193D9
:101700004F01F3CF842C912C8101080D191DF70195
:10171000E80DF91D108257104CC06BE771E0C7014E
:101720000E943D2F892B09F441C06EE771E0C7018B
:101730000E943D2F892BD1F161E871E0C7010E9421
:101740003D2F892B99F164E871E0C7010E943D2F7C
:10175000892B61F167E871E0C7010E943D2F892B59
:1017600029F1C8018F5B9E4F0E940B0B8093D3041D
:101770000E943F01C801805C9E4F2E960FB6F894E0
:10178000DEBF0FBECDBFDF91CF911F910F91FF90B4
:10179000EF90DF90CF90BF90AF909F908F907F9011
:1017A0006F905F904F903F902F9008957394539453
:1017B0008ACFB501C7010E943D2F892B91F2FE010E
:1017C000E80DF91D80818634C1F06BE871E0C70136
:1017D0000E943D2F892B89F0A601B501C7010E9407
:1017E0004D2F892B51F4FC85FC3409F4BACFF23526
:1017F00009F4B7CFF83509F4B4CF0C5F1F4FD7CF3A
:101800008FE30E940B03C5010E9456090E946309E1
:101810008FEF9FEFB2CF1F93CF93DF93EC010E9426
:101820000B0B182FCE0101960E940B0B90E0982F06
:101830008827810F911DDF91CF911F910895CF923D
:10184000DF92EF92FF920F931F93CF93DF936A0182
:101850007B01082F10E0C801805B9F4F880F991F04
:101860000E940B0CBC01990F880B990B0E947029E8
:1018700020E030E04AE754E40E94AF2BA701960134
:101880000E94CF296B017C0182E191E00E940B0B49
:101890009AE0899FB0011124072E000C880B990B48
:1018A0000E947029A70196010E943E2B6B017C01CA
:1018B00020E030E04AEF53E40E94962CC4EFD1E0E0
:1018C00018168CF420E030E44CE155E4C701B60171
:1018D0000E946929C4ECD9E087FF05C0C701B601A1
:1018E0000E94212CEB01C8010E940B0BAE01682F56
:1018F00087EC96E0DF91CF911F910F91FF90EF90D1
:10190000DF90CF900C94740790E0C096880F991FD9
:10191000860F911D880F991F0C940B0C7F928F924C
:101920009F92AF92BF92CF92DF92EF92FF920F936E
:101930001F93CF93DF93B82E6A01D62FC72F60E095
:101940000E94840CBC01990F880B990B0E9470298E
:101950007B018C0161E08B2D0E94840CBC01990FEE
:10196000880B990B0E947029762E872E982EA92E0F
:1019700096014D2F5C2F0E94692987FF71C0772D3A
:10198000682D992D8A2D272F362F492F582FB701D3
:10199000C8010E94962C181694F096014D2F5C2FCA
:1019A000672D782D892D9A2D0E94692976010D2F9A
:1019B0001C2F87FF04C0E72CF82C092D1A2DCB2DE6
:1019C000D0E06E0180E3C80ED11CCC0FDD1FC35FD9
:1019D000DE4FB701C8010E94212C79836883C601BC
:1019E000880F991F0E940B0CEC01C6010E940B0B83
:1019F000682F880F770B880B990B0E94702997012D
:101A0000A8010E94CF296B017C01BE01DD0F880B6C
:101A1000990B0E9470299B01AC01C701B6010E947D
:101A20003E2B0E94212C072E000C880B990B0E9444
:101A3000702920E030E0A9010E943E2BAB01BC01DF
:101A40008B2DDF91CF911F910F91FF90EF90DF9041
:101A5000CF90BF90AF909F908F907F900C941F0C71
:101A60007C2D6D2DCE018FCF0F931F93CF938C01C3
:101A7000005E1F4FCFE0F801729162918F01072E37
:101A8000000C880B990B0E947029AB01BC018C2FB4
:101A90000E948E0CC15078F7CF911F910F9108953D
:101AA0002F923F924F925F926F927F928F929F926E
:101AB000AF92BF92CF92DF92EF92FF920F931F935C
:101AC000CF93DF93CDB7DEB72E970FB6F894DEBF76
:101AD0000FBECDBF182F092F6A017B0120E030E037
:101AE000A901CB01B6010E9469291816E4F0812FE3
:101AF000902F2E960FB6F894DEBF0FBECDBFDF91AC
:101B0000CF911F910F91FF90EF90DF90CF90BF90FA
:101B1000AF909F908F907F906F905F904F903F908D
:101B20002F900C94340D80E290E00E9409275C0114
:101B30007091F8029090F7022DE031E0DC01612E07
:101B4000702E512C412C60E0772329F0643018F47A
:101B50004BE69416A1F0F90180819181F301408157
:101B60005181841B950B11969C938E9397FF03C014
:101B7000919581959109481659060CF42C016F5FD7
:101B80002E5F3F4FF2E06F0E711C12966031E1F64E
:101B900020E030E0A901C701B6010E94962C18167A
:101BA0000CF0BCC0B201550C880B990B0E94702937
:101BB000A70196010E94AF2B6B017C0120E030E071
:101BC000A9010E94962C20E030E040E05FE387FD11
:101BD000A0C0C701B6010E943E2B0E94212C7E8727
:101BE0006D87D12CC12C2D853E85032E000C440B16
:101BF000550B29873A874B875C874D855E854C1549
:101C00005D050CF48EC01501812E902EF12CC601BD
:101C10000D2C000CAA0BBB0B8D839E83AF83B88762
:101C20008091F802882341F093E09F1528F080917D
:101C3000F7028B3609F45FC0D4016D917C91072EB9
:101C4000000C880B990B0E9470292B013C01ED853B
:101C5000FE8520E030E0A901EF2B09F443C06D813F
:101C60007E818F8198850E9470292BED3FE049E4A9
:101C700050E40E94CF2969837A838B839C83698592
:101C80007A858B859C850E9470299B01AC016981B6
:101C90007A818B819C810E94AF2B0E94AA2B20E02D
:101CA00030E040E85FE30E943E2B20E030E040E07F
:101CB0005FE30E94CF2969837A838B839C83D10160
:101CC0006D917C91072E000C880B990B0E94702956
:101CD0009B01AC0169817A818B819C810E94CF2913
:101CE0009B01AC01C301B2010E943E2BAB01BC01C0
:101CF0008F2D0E948E0CF394B2E08B0E911CE2E0CB
:101D00002E0E311CF0E1FF128BCF2FEFC21AD20A38
:101D100074CFC701B6010E943D2B5FCF1E861D8682
:101D200060CFA114B104D9F0C5012E960FB6F89476
:101D3000DEBF0FBECDBFDF91CF911F910F91FF90FE
:101D4000EF90DF90CF90BF90AF909F908F907F905B
:101D50006F905F904F903F902F900C94A5272E96F8
:101D60000FB6F894DEBF0FBECDBFDF91CF911F91AC
:101D70000F91FF90EF90DF90CF90BF90AF909F902A
:101D80008F907F906F905F904F903F902F9008952D
:101D90002F923F924F925F926F927F928F929F927B
:101DA000AF92BF92CF92DF92EF92FF920F931F9369
:101DB000CF93DF93CDB7DEB72F970FB6F894DEBF82
:101DC0000FBECDBF4C016D8369017A01202F30E039
:101DD0003A83298320E030E0A901C701B6010E94BF
:101DE00069291816ECF01FE0812F012E000C990BC9
:101DF00069817A81861797070CF453C1880D991D64
:101E0000DC016C91062E000C770B880B990B0E945D
:101E10007029AB01BC01812F0E948E0C1150E4CFC0
:101E200080E190E0E981FA818E1B9F0B8115F0E43F
:101E30009F0708F047C0880F991F009709F445C015
:101E40000E9409273C01B090F802A090F702298176
:101E50003A81220F331F1301D401102F50E040E0CC
:101E6000512C412C1031A0F5BB2029F0143018F46E
:101E70006BE6A616F9F0CA01820F931F835F9E4F8F
:101E80007C916D817603F0011124FC83EB83FC01CE
:101E9000808191816B817C81861B970BF1019183FD
:101EA000808397FF03C09195819591094816590643
:101EB0000CF42C011F5F1196F2E02F0E311C4E5FC7
:101EC0005F4FD0CF8FEF9FEFBBCF81E090E0B8CFD7
:101ED00020E030E0A901C701B6010E94962C181637
:101EE0000CF0BAC0B201550C880B990B0E947029F6
:101EF000A70196010E94AF2B6B017C0120E030E02E
:101F0000A9010E94962C20E030E040E05FE387FDCD
:101F10009EC0C701B6010E943E2B0E94212C7F87E4
:101F20006E87B12CA12C6E857F85072E000C880B47
:101F3000990B6A877B878C879D878E859F858A15FD
:101F40009B050CF490C07C826B829A828982102F50
:101F5000B5010B2C000C880B990B6E837F8388874F
:101F60009987103108F07BC08091F802882339F0FE
:101F7000143028F48091F7028B3609F45BC0A981F4
:101F8000BA816C912D816203B0011124072E000CDF
:101F9000880B990B0E9470296B017C016E857F85EF
:101FA00020E030E0A901672BE1F16E817F81888517
:101FB00099850E9470292BED3FE049E450E40E948E
:101FC000CF291B012C016A857B858C859D850E940C
:101FD00070299B01AC01C201B1010E94AF2B0E948C
:101FE000AA2B20E030E040E85FE30E943E2B20E097
:101FF00030E040E05FE30E94CF291B012C01AB8160
:10200000BC816D917C91072E000C880B990B0E946E
:1020100070299B01AC01C201B1010E94CF299B0133
:10202000AC01C701B6010E943E2BAB01BC01812F60
:102030000E948E0C1F5FE981FA813196FA83E98351
:102040002B813C812E5F3F4F3C832B838ACFC7017E
:10205000B6010E943D2B61CF1F861E8662CF3FEFE7
:10206000A31AB30A6ACF61147104D9F0C3012F9681
:102070000FB6F894DEBF0FBECDBFDF91CF911F9199
:102080000F91FF90EF90DF90CF90BF90AF909F9017
:102090008F907F906F905F904F903F902F900C9417
:1020A000A5272F960FB6F894DEBF0FBECDBFDF91E8
:1020B000CF911F910F91FF90EF90DF90CF90BF9045
:1020C000AF909F908F907F906F905F904F903F90D8
:1020D0002F9008950F930E945F011092FA021092C0
:1020E000F902EFECF4E025813681478150850389C0
:1020F0006785848995890E94C80E0F9108958F92F3
:102100009F92AF92BF92CF92DF92EF92FF920F9386
:102110001F93CF93DF93CDB7DEB72B970FB6F8940D
:10212000DEBF0FBECDBF6C01FC0101900020E9F7BE
:102130003297108189E11C3421F087EE123509F0C5
:1021400080E08093D204C6010E940D0B7C018FEFCA
:10215000E816F80609F43EC1C7010E940B0B082FD0
:10216000C70102960E940B0C7C01B601CE010196BC
:102170000E94462F093409F0EDC0C7010E94BB0739
:102180000E945F01BE016F5F7F4F8BEF92E00E9464
:10219000462F6EE871E08BEF92E00E943D2F892B75
:1021A00009F4EEC080E090E0A0E0B0E48093D404B5
:1021B0009093D504A093D604B093D70462E971E05C
:1021C0008BEF92E00E943D2F892B09F4DDC08091B6
:1021D000D304813009F0D8C00E947A2824E630E088
:1021E00040E050E00E94A32A0E94702920E030E0E5
:1021F00040E251E40E94AF2B20E030E040EA50E49E
:102200000E943D2B4B015C018092F1029092F20200
:10221000A092F302B092F402F12CE12CC090E304FE
:10222000D090E404CE0CDF1CF6016081062E000C79
:10223000770B880B990B0E947029A50194010E94CD
:102240003E2B0E94212CF6016083FFEFEF1AFF0A5C
:1022500080E1E816F10411F7123509F099C0809178
:10226000DA049091DB049195819591099093DB04B8
:102270008093DA0490E080E04091D304242F042E70
:10228000000C330B37FF03C03195219531098217BC
:1022900093070CF089C042301CF54091D904489F47
:1022A0009001499F300D1124E091E304F091E40482
:1022B000E20FF31F2081219520832091D904289FCC
:1022C000F001299FF00D11249F012E5F3F4FE091F7
:1022D000E304F091E404E20FF31F208121952083B1
:1022E0002091D30460E022300CF462E0E62FF0E0AD
:1022F0002091D30422300CF480C024E030E04091DF
:10230000E3045091E404E217F3070CF079C09F0155
:10231000220F331F7091D904789FF001799FF00D3F
:102320001124E20FF31FE40FF51F40815181508308
:102330005091D904589FD001599FB00D1124E091BC
:10234000E304F091E404E20FF31FEA0FFB1F418363
:102350006F5FCCCF8091D3040E943F01ABEFB2E01E
:1023600097012B5F3240F901EA0FFB1FAD014B5F74
:102370005240481759070CF003CFE491ED93F3CF87
:1023800080E090E0DC0112CF812C912C54013CCFF5
:102390001C3451F00E947A2824E630E040E050E0FE
:1023A0000E94A32A60FD5BCF1092FA021092F902FC
:1023B0002091D4043091D5044091D6045091D70493
:1023C0000091E2046091DE048091E3049091E404C2
:1023D0000E94C80E2B960FB6F894DEBF0FBECDBF7D
:1023E000DF91CF911F910F91FF90EF90DF90CF90F1
:1023F000BF90AF909F908F90089528E030E07FCFFE
:1024000001963ACF0F931F93CF93DF93EC0188810E
:102410009981009759F02A813B812617370730F0C0
:1024200081E0DF91CF911F910F9108958B016F5F34
:102430007F4F0E946F2E009759F0998388831B83EA
:102440000A832C813D81232B59F7FC011082E8CFB0
:1024500080E0E7CFEF92FF920F931F93CF93DF932C
:102460006115710541F480E0DF91CF911F910F91CB
:10247000FF90EF90089541155105B1F07B01EC01FB
:102480000C811D81040F151FB8010E9402128823C0
:1024900051F3288139818C819D81B701820F931F6F
:1024A0000E94462F1D830C8381E0DECFEF92FF92C6
:1024B0000F931F93CF93DF93EC017B018A01BA0145
:1024C0000E94021281110BC0CE010E94B10ACE01FE
:1024D000DF91CF911F910F91FF90EF9008951D8391
:1024E0000C83B701888199810E94462FF0CFFB01B0
:1024F000DC0111961C921E9213961C921E9212974A
:1025000015961C921E9214978617970759F06081B2
:1025100071816115710521F0448155810C94561229
:102520000C94B10A0895FB0101900020E9F731975E
:10253000AF01461B570B0C9456120F931F93CF936A
:10254000DF93CDB7DEB762970FB6F894DEBF0FBE4C
:10255000CDBF8C01CB01F80111821082138212824F
:10256000158214824AE0BE016F5F7F4F0E942C29C2
:10257000BE016F5F7F4FC8010E94931262960FB633
:10258000F894DEBF0FBECDBFDF91CF911F910F91A9
:102590000895FC0111821082138212821582148226
:1025A000FB0101900020E9F73197AF01461B570B63
:1025B0000C945612EF92FF920F931F93CF93DF93D9
:1025C000EC018B01198218821B821A821D821C82E7
:1025D000CB010E94F7287C01BC01CE010E940212AF
:1025E000811109C0CE01DF91CF911F910F91FF9012
:1025F000EF900C94B10AFD82EC82B8018881998138
:10260000DF91CF911F910F91FF90EF900C94F028E4
:1026100085ED8093BC008091310590913205A091A9
:102620003305B09134050796A11DB11D23E0B69581
:10263000A795979587952A95D1F72091BC0024FD01
:1026400003C010922F050895409131055091320535
:102650006091330570913405452B462B472B69F368
:102660000097A105B10541F02AE22A95F1F700C0D3
:102670000197A109B109E1CF809130050C94E304E1
:102680002F923F924F925F926F927F928F929F9282
:10269000AF92BF92CF92DF92EF92FF920F931F9370
:1026A000CF93DF93CDB7DEB766970FB6F894DEBF52
:1026B0000FBECDBF69877A878B879C872D873E8722
:1026C0004F87588BC801EE8A10E088248A94982C92
:1026D000540168E4462E68EE562E66246394712CED
:1026E00005E07FE3272E71E0372E9C01990F440B04
:1026F000550B298B3A8B4B8B5C8B6D857E858F853B
:1027000098890E94282C6D837E838F83988720E090
:1027100030E0A90169857A858B859C850E946929AD
:10272000882309F499C129853A854B855C8563E640
:102730007CE987E89FE30E949B2C20E030ED42E893
:1027400054E40E94CF290E94282C6B018091000143
:10275000853009F06AC0E6E7F1E0F491FD8BF7FD02
:10276000D9C161E085E00E94F703FD89FF2321F0D4
:102770002D89223009F024C1F12CE12C60E072E1B6
:102780008AE790E0A70196010E94A32A29833A8351
:102790004B835C83DA01C9010197A109B1098F3F1D
:1027A0009105A105B10509F00CF4F0C060E472E4F4
:1027B0008FE090E0A70196010E94A32A21503109E1
:1027C000410951098D89823009F0A2C082E02F3F72
:1027D00031054105510509F00CF48CC160E970ED3B
:1027E00083E090E0A70196010E94A32A21503109BD
:1027F0004109510983E02F3F31054105510509F099
:102800000CF478C1C301B201A70196010E94A32A6A
:1028100021503109410951092F3F31054105510529
:1028200011F00CF092C084E065C18F3F09F072C1D5
:1028300000930001E6E7F1E0F491FD8BFF3F09F41E
:1028400069C1F13029F158F0F23009F43FC03D89F7
:1028500037FD60C161E085E00E94F70389CF14BCB9
:1028600015BC84B5826084BD85B5816085BDF101EC
:102870008491E82FF0E0EE0FFF1FEA5DFE4F859197
:102880009491E3E5F1E084918093E3011D8A69CF9F
:102890001092800010928100809181008860809366
:1028A000810080918100816080938100F101849199
:1028B000E82FF0E0EE0FFF1FEA5DFE4F8591949147
:1028C000E3E5F1E084918093E2014BCF1092B000F8
:1028D0001092B1008091B00082608093B00080912E
:1028E000B10081608093B100F1018491E82FF0E0A4
:1028F000EE0FFF1FEA5DFE4F8591949190935A026F
:1029000080935902E3E5F1E0849180935B0229CF43
:102910002F3F31054105510509F00CF44FC0C301AB
:10292000B201A70196010E94A32A21503109410951
:1029300051099D89992309F4AFC02F3F3105410505
:10294000510511F00CF0B0C06ECF64E274EF80E07E
:1029500090E0A70196010E94A32A21503109410964
:10296000510985E02F3F31054105510509F008F473
:10297000C1C062E17AE780E090E0A70196010E9481
:10298000A32A21503109410951099DC09C0181E0D0
:10299000FD89F111AFC095B5987F892B85BD27BD05
:1029A0008092E8019092E901A092EA01B092EB01D5
:1029B00080916E00826080936E00ACC082E0E8CFB0
:1029C000F12CE12C60E072E18AE790E0A70196012A
:1029D0000E94A32A215031094109510991E0211592
:1029E000310581E0480751055CF0C301B201A70140
:1029F00096010E94A32A215031094109510993E00F
:102A0000ED89E13009F07CC080918100887F892BBD
:102A10008093810030938900209388008092E401A4
:102A20009092E501A092E601B092E70180916F00DB
:102A3000826080936F006EC02093B30080925C022E
:102A400090925D02A0925E02B0925F02809170004F
:102A50008260809370005EC06D817E818F819885D9
:102A60000E945F0457C084E02F3F310541055105A6
:102A700009F008F490CF29813A814B815C818AE08A
:102A800055954795379527958A95D1F72150310966
:102A90004109510985E07FCF83E02F3F3105410592
:102AA000510509F00CF477CF62E17AE780E090E01D
:102AB000A70196010E94A32A215031094109510919
:102AC000ED89EE2381F286E02F3F31054105510566
:102AD00089F080F029813A814B815C819AE055959B
:102AE0004795379527959A95D1F721503109410996
:102AF000510987E09091B100987F892B8093B100B4
:102B0000FD89F13009F486CFF23009F495CFFF2327
:102B100009F445CF6D817E818F8198850E945F0485
:102B200085E00E94CB0369897A898B899C890E9400
:102B30005F041F5F2E892113E0CD66960FB6F894CF
:102B4000DEBF0FBECDBFDF91CF911F910F91FF90E0
:102B5000EF90DF90CF90BF90AF909F908F907F903D
:102B60006F905F904F903F902F9008954F925F929B
:102B70006F927F928F929F92AF92BF92CF92DF928D
:102B8000EF920F931F93CF93DF93D82E192F0E94AC
:102B90000B0B8695CD2DD12FB12CA12CC82ED12C6D
:102BA00088EE882E83E0982E2197AC14BD044CF556
:102BB000CE018C199D090E940B0B782ECE010E942C
:102BC0000B0B182F672D70E0C4010E94412E072EB9
:102BD000000C880B990B0E9470292B013C01612F7E
:102BE00070E090E080E00E946E29EE24E39410E013
:102BF00000E0A30192010E9440138FEFA81AB80AC7
:102C0000D3CFDF91CF911F910F91EF90DF90CF90B5
:102C1000BF90AF909F908F907F906F905F904F90FC
:102C200008951F920F920FB60F9211242F933F9386
:102C30004F935F936F937F938F939F93AF93BF93C4
:102C4000EF93FF9380915C0290915D02A0915E02F0
:102C5000B0915F02892B8A2B8B2BD1F190915B0273
:102C6000E0915902F0915A028081892780838091F6
:102C70005C0290915D02A0915E02B0915F02181615
:102C800019061A061B069CF480915C0290915D0265
:102C9000A0915E02B0915F020197A109B1098093F2
:102CA0005C0290935D02A0935E02B0935F02FF917D
:102CB000EF91BF91AF919F918F917F916F915F91B4
:102CC0004F913F912F910F900FBE0F901F9018952D
:102CD000809100010E94CB03EACF1F920F920FB6A2
:102CE0000F9211242F933F934F935F936F937F9392
:102CF0008F939F93AF93BF93EF93FF9385E395E0FB
:102D00000E949C02FF91EF91BF91AF919F918F9193
:102D10007F916F915F914F913F912F910F900FBED7
:102D20000F901F9018951F920F920FB60F921124BB
:102D30002F938F939F93EF93FF93E0914505F0912D
:102D400046058081E0914B05F0914C0582FD1BC04A
:102D5000908180914E058F5F8F7320914F05821770
:102D600041F0E0914E05F0E0EB5CFA4F958F8093D7
:102D70004E05FF91EF919F918F912F910F900FBE74
:102D80000F901F9018958081F4CF1F920F920FB66D
:102D90000F9211242F933F938F939F93AF93BF93E1
:102DA0008091510290915202A0915302B09154022D
:102DB0003091500223E0230F2D3758F50196A11DC5
:102DC000B11D209350028093510290935202A09320
:102DD0005302B09354028091550290915602A091F3
:102DE0005702B09158020196A11DB11D8093550262
:102DF00090935602A0935702B0935802BF91AF919F
:102E00009F918F913F912F910F900FBE0F901F9028
:102E1000189526E8230F0296A11DB11DD2CF1F924F
:102E20000F920FB60F9211242F933F934F935F93FE
:102E30006F937F938F939F93AF93BF93EF93FF9382
:102E40008091B900887F803609F44AC0F0F5883255
:102E500009F4A7C018F5803109F49BC0B8F48823A1
:102E600009F4F9C0883009F494C0FF91EF91BF9143
:102E7000AF919F918F917F916F915F914F913F9112
:102E80002F910F900FBE0F901F901895883109F465
:102E900088C0803251F780930D0514C0803409F446
:102EA0009DC040F48033B9F38833F9F680930D0563
:102EB00085ECB0C0803509F485C0883509F496C02A
:102EC000883499F60E940813D0CF883909F48CC051
:102ED00038F5883729F050F4883611F0803729F614
:102EE00083E080932F0510924F0257C0883809F471
:102EF0007BC0803919F0803809F0B7CF80914F023C
:102F0000803208F071C0E0914F0281E08E0F809313
:102F10004F028091BB00F0E0E15DFD4F80833DC03A
:102F2000803B39F0E0F4803A09F479C0883A09F03E
:102F30009CCF84E080932F0510922E0210922D02D8
:102F4000E0916202F0916302099580912D02811156
:102F50000FC081E080932D0210920D0209C0803CC9
:102F600009F4A6CF883C09F4A3CF883B09F07DCFB4
:102F7000E0912E0281E08E0F80932E02F0E0E35F5D
:102F8000FD4F80818093BB0090912E0280912D0295
:102F900029C080910A058093BB0085EC8093BC001A
:102FA00064CF90910C0580910B05981758F5E0912E
:102FB0000C0581E08E0F80930C05F0E0E751FB4F8C
:102FC0008081E9CFE0910C0581E08E0F80930C05A4
:102FD0008091BB00F0E0E751FB4F808390910C059E
:102FE00080910B059817C8F285E8D8CFE0910C05C1
:102FF00081E08E0F80930C058091BB00F0E0E751DB
:10300000FB4F808380910E0581115CCF81E080931E
:10301000090584EA8093BC0010922F0526CF85EC29
:103020008093BC0010922F0580914F02803230F4C3
:10303000E0914F02F0E0E15DFD4F108260914F02A0
:1030400070E0E0916002F09161028FE292E00995F8
:1030500010924F020ACF10920D0534CF1F920F929B
:103060000FB60F9211242F933F934F935F936F935B
:103070007F938F939F93AF93BF93EF93FF93809131
:10308000F5050E9474032091FA053091FB052F5F2E
:103090003F4F3093FB052093FA052091F8053091BE
:1030A000F9052536310518F094E09093F4059091D8
:1030B000F405911130C0811169C02091FA05309159
:1030C000FB052436310528F41092FB051092FA0511
:1030D0005DC01092C6061092F9051092F805209175
:1030E000F8053091F905A9014F5F5F4F5093F9053D
:1030F0004093F8054091FA055091FB05220F331FCC
:10310000F901E450FA4F518340831092FB0510926D
:10311000FA0591E021C09091F405913001F58130DC
:10312000A9F52091F8053091F905A9014F5F5F4F8E
:103130005093F9054093F8054091FA055091FB052D
:10314000220F331FF901E450FA4F5183408310924C
:10315000FB051092FA0592E09093F40517C0909148
:10316000F405923061F4882309F4B9CF2091FA056F
:103170003091FB052536310548F093E0EDCF909175
:10318000F405933099F4882309F49ECF9091F705C4
:103190009923A9F0811124C08091F605882371F04C
:1031A0008091F60561E00E949D0309C09091F405AD
:1031B000943061F791E09093C606DFCF2D9AFF918E
:1031C000EF91BF91AF919F918F917F916F915F919F
:1031D0004F913F912F910F900FBE0F901F90189518
:1031E0008091F605882321F08091F60560E0DBCF21
:1031F0002D98E5CFCF93DF93E5E3F5E013821282BC
:1032000088EE93E0A0E0B0E084839583A683B78343
:103210002EE431E03183208325EC30E035872487AC
:1032200024EC30E03787268720EC30E0318B208B90
:1032300021EC30E0338B228B22EC30E0358B248B79
:1032400026EC30E0378B268B118E128E138E148E67
:10325000C8EED5E01B821A828C839D83AE83BF8328
:1032600080E691E099838883E2EDF5E082E791E0E2
:1032700091838083D383C2838FEF9FEF9583848371
:10328000168217821086118613861286158614867A
:1032900017861686118A108A24E130E0338B228B40
:1032A000958B848BE4EFF5E084E0818313826EECF0
:1032B00071E08EED96E00E94C912EDECF6E081E13E
:1032C000DF011D928A95E9F7E7ECF6E080E4808360
:1032D000D283C183DF91CF910895CF93DF93CDB790
:1032E000DEB7E0970FB6F894DEBF0FBECDBF78947F
:1032F00084B5826084BD84B5816084BD85B58260FB
:1033000085BD85B5816085BD80916E0081608093AB
:103310006E00109281008091810082608093810014
:103320008091810081608093810080918000816024
:10333000809380008091B10084608093B10080917F
:10334000B00081608093B00080917A0084608093A7
:103350007A0080917A00826080937A0080917A006E
:10336000816080937A0080917A00806880937A00EF
:103370001092C100E0914505F091460582E08083FE
:10338000E0914105F09142051082E0914305F091F2
:10339000440580E1808310924D05E0914905F0914C
:1033A0004A0586E08083E0914705F09148058081D9
:1033B00080618083E0914705F091480580818860B5
:1033C0008083E0914705F091480580818068808383
:1033D000E0914705F091480580818F7D808385E0ED
:1033E00090E0A0E0B0E08093390590933A05A09377
:1033F0003B05B0933C051092F6021092F502109234
:10340000E6041092E5040E94C5048CE192E09093DA
:103410006302809362028DE192E090936102809357
:10342000600288E08093B800EE24E39410E000E0AE
:1034300020E030E048E452E460E070E080EA91E4AB
:103440000E9440138BE60E94730981EA91E00E947A
:1034500067098AE991E00E94670981E991E00E9489
:1034600067098AE191E00E940B0B882321F08FEF1E
:1034700093E00E94B61587E791E00E941003F8EDF3
:10348000EF2EF2E0FF2E00E110E0C8010E940B0BCE
:10349000D7018D937D010F5F1F4F00321105A9F7F2
:1034A0001092F6021092F5021092E6041092E504D2
:1034B0000E94C5048CE192E09093630280936202C3
:1034C0008DE192E0909361028093600240E860E0B9
:1034D00087EC96E00E943D076AE070E080E090E0B3
:1034E0000E945F0440E050E06AE774E487EC96E0F5
:1034F0000E94580880E498E7ADE7B1E08093CA06DF
:103500009093CB06A093CC06B093CD0683E191E0D7
:103510000E940B0C092E000CAA0BBB0B80936402BB
:1035200090936502A0936602B0936702885D994507
:10353000A109B10985399141A105B10560F088EA79
:1035400091E6A0E0B0E08093640290936502A093BE
:103550006602B09367026091640270916502809187
:103560006602909167020E94702920E030E04AE7ED
:1035700054E40E94AF2B6B017C014B015C01AC0158
:103580009B010E94F32C882309F448C088E991E04C
:103590000E9456090E9463092091640230916502DD
:1035A0004091660250916702A8EEB3E00E94C22AE1
:1035B0006B017C0140E050E060E773E487EC96E04B
:1035C0000E945808C092D006D092D106E092D2064E
:1035D000F092D306C092CA06D092CB06E092CC06F7
:1035E000F092CD060E94AD078EE791E00E94670938
:1035F00090E080E08C010F5F1F4F805C9E4F0E9427
:103600000B0B080F111DC801805C9E4F0E940B0B15
:103610008E3409F493C0C8010496ECCF260137011B
:10362000E89477F82FEF3FEF4FE75FE7C301B20170
:103630000E94F32C81110DC02FEF3FEF4FE75FE7A2
:10364000C301B2010E94692918161CF48CE991E0AB
:103650009FCF2FEF3FEF4FE75FE4C701B6010E9416
:10366000962C18161CF480EA91E092CF2FEF3FEFD2
:103670004FE75FECC701B6010E94692987FDF3CFD0
:1036800020E030E0A901C701B6010E94692987FF47
:1036900009C08DE20E940B0346015701B7FAB094AE
:1036A000B7F8B0942AE037ED43EA5BE3C501B40113
:1036B0000E943E2B4B015C010E94282C6B017C0177
:1036C0000E946E299B01AC01C501B4010E943D2BF3
:1036D0004B015C014AE0C701B6010E9492098EE2EB
:1036E0000E940B0320E030E040E251E4C501B40148
:1036F0000E94CF294B015C010E94282C6B01F12C08
:10370000E12C4AE0C701B6010E949209C701B60147
:103710000E946E299B01AC01C501B4010E943D2BA2
:1037200020E030E040E251E40E94CF290E94282CA2
:1037300090E080E04AE00E9492092CCF68E071E0BE
:10374000C8018E5B9E4F0E94E40AF894109280009C
:1037500089E08093810080E293E0909389008093D8
:103760008800109285001092840082E080936F00A0
:1037700078941092F4051092F9051092F805809152
:10378000F50560E00E94F70364E070E08EED96E0DE
:103790000E94021261E083E00E94F70386E090E05D
:1037A0000E9409278C01DC0111961C921E9213962F
:1037B0001C921E92129715961C921E92149784E8E2
:1037C00091E00E9467091093F0020093EF0280E1FC
:1037D0000E942804BC01990F880B990B6115710593
:1037E0008105910511F00E94C9288DE091E00E94A9
:1037F000340D64EF71E080E090E00E945F0410926D
:1038000084028AE891E00E946709E8EE2E2EE3E048
:103810003E2E0091EF021091F002F801808191811B
:10382000892B09F08FC00E949204C0906802D0904A
:103830006902E0906A02F0906B026C197D098E09B2
:103840009F09C0900101D0900201E0900301F09027
:103850000401C616D706E806F9060CF073C08CEF13
:1038600095E090937A02809379028091F805909187
:10387000F90590937C0280937B028091C60690E0CC
:1038800090937E0280937D028091F405833009F04D
:10389000C2C18091FE059091FF05875891098E3530
:1038A000910508F0B2C18091F8059091F90504974F
:1038B00009F07AC1809100069091010680974797A0
:1038C00008F072C18091020690910306099709974A
:1038D00008F06AC110927802109277028FEF9FEF82
:1038E000DC018093710290937202A0937302B093F3
:1038F000740283E090E090936E0280936D02809159
:10390000710290917202A0917302B0917402892F9A
:103910009A2FAB2FBB278A3509F4CFC208F086C295
:10392000823209F4B2C208F06BC2803109F4C2C21B
:1039300008F019C26CED71E0823009F41CC267ED29
:1039400071E0C6C2D8018D919C91181619060CF031
:103950008DC00E949204C0906802D0906902E090ED
:103960006A02F0906B026C197D098E099F09C09064
:103970000101D0900201E0900301F0900401C6160D
:10398000D706E806F9060CF071C0D8011296ED9141
:10399000FC91F12CE12C309711F0E080F180F701DF
:1039A00020812093F702838194819093E902809390
:1039B000E80245815681052E000C660B770B40937B
:1039C0000101509302016093030170930401A181EE
:1039D000B281EBEFF2E0AF014B5F5240481759075D
:1039E0001CF43D913193F7CF21542A3108F0D8C00F
:1039F0002EE785509D4FDC012C930E94920460932A
:103A000068027093690280936A0290936B0285E06A
:103A10008093EC02E114F10451F0F701818192816D
:103A2000009711F00E94A527C7010E94A527D80181
:103A300012968D919C91009711F40C94FC26DC0158
:103A40001296ED91FC91D8011396FC93EE93129788
:103A5000309709F4A7C0158214820E94A527D801C7
:103A60008D919C91119701978D939C931091EC02ED
:103A7000112309F4FEC30091F702802F002E000CE1
:103A8000990B0E942C2FF82E8093EB021530D8F45E
:103A9000E2E68E17C1F00C34B1F00934A1F0612FC9
:103AA00070E0615F7F4F072E000C880B990B0E941E
:103AB0007029EE24E39410E000E020E030E040EADA
:103AC00050E40E94401380910801882349F0FBE6EE
:103AD000FF1206C088EF9BE00E94FB0810920801CD
:103AE0008091EA028356823050F48091F702833647
:103AF00031F081E08093070187E40E94730980918F
:103B0000F702803751F080910601811106C081E0F3
:103B10008093060180E70E9473091091F702E1EC9F
:103B2000E10FE53308F05DC30E2E000CFF0BE556E8
:103B3000F24E0C94552EE920F120F1202624F1209C
:103B4000F120F120F120E021F1209123F1207224D5
:103B50001B249123F120F120F120F120F120F1200C
:103B60005C24F120F120F120F120F120F120F1205E
:103B7000F120F120F120F120F120AB22C122C1225D
:103B8000FD24F120F120E021F120C122F921E324DC
:103B9000F120C122F120F120E721F120F120522271
:103BA00020E027CFF80157CF8091F8059091F905D3
:103BB0008434910550F18091000690910106815462
:103BC00091098F9710F530E020E080E090E0DC0173
:103BD000F901EE5FF94F4081518149505109493057
:103BE000510598F4F901EC5FF94F4081518147513B
:103BF00051094231510508F49FC04081518146501E
:103C000051094730510508F4A9C01092F4051092EB
:103C1000F9051092F80585E395E00E947C021816DC
:103C200019060CF072C085E395E00E945A02982EA6
:103C30008093F702082E000C990B0E942C2F182F4E
:103C40008093EB0282E08093EC0261E070E080E020
:103C500090E00E945F04FFEBF90DFDA74EE7842E74
:103C6000FA3110F03AE0832E0E9492042B013C01BD
:103C70002BE4921621F085E090E0123611F488ECE6
:103C800090E01B7F18AB6C01990FEE08FF0885E3ED
:103C900095E00E947C02892B09F4F5C10091E802AD
:103CA0001091E9028BE6981619F098A9993639F423
:103CB00080910B0190910C01081719072CF4033D1A
:103CC000A1E01A070CF4C5C187EE91E00E946709D4
:103CD00064EF71E080E090E00E945F0485E395E08E
:103CE0000E945A0285E395E00E947C02892BB1F77D
:103CF0008091F7020E9473098BE68093F7026BEBC9
:103D000071E08BEF92E00E94462F0E949204209176
:103D1000EC022150223008F0E6C10E94920468545F
:103D2000744F8F4F9F4F60938002709381028093F6
:103D30008202909383029ACE880F991FAA1FBB1FFD
:103D400081602C5F3F4F2038310509F041CF20E2E0
:103D500030E03093780220937702C3CD880F991F0B
:103D6000AA1FBB1FEECF823109F4B0C064EC71E032
:103D7000883109F0E4CDCE0181960E94DA1267EA1B
:103D800071E0CE0181960E94150A882309F4A5C02E
:103D90006BE871E08EED96E00E9493126EED76E096
:103DA000CE0187960E947712CE0181960E94C30AA7
:103DB00067ED71E0CE0187960E94150A811115C04A
:103DC0006FA178A58BA59CA5019709F02EC161155F
:103DD000710521F410926C026CE672E0FB018081A7
:103DE0008093F70281E08093EC021092F405109228
:103DF000F9051092F805CE0187960E94C30A0BCFF1
:103E0000823409F45DC048F4803309F44DC06AEB94
:103E100071E0883309F4AFCF92CD8A3409F453C0EE
:103E20006CEA71E0823509F4A6CF89CD823A39F186
:103E300098F48A37E1F140F4823621F161ED71E0C6
:103E4000883609F498CF7BCD803959F16EEC71E05A
:103E5000883909F490CF73CD823CD1F040F4883A90
:103E6000E9F06BEC71E0803B09F485CF68CD803ED2
:103E700091F061EE71E0823E09F47DCF60CD65EE98
:103E800071E079CF63EE71E076CF6FED71E073CFC3
:103E90006AED71E070CF68ED71E06DCF66ED71E0B5
:103EA0006ACF64ED71E067CF68EC71E064CF60ECDD
:103EB00071E061CF6DEB71E05ECF66EB71E05BCFDF
:103EC00063EB71E058CF6EEA71E055CF64EA71E0C0
:103ED000CE0181960E94C91252CF69EA71E0CE01EB
:103EE00081960E94150A811111C06BEA71E0CE0122
:103EF00081960E94150A811109C06DEA71E0CE0118
:103F000081960E94150A882309F442C08DA19EA1C2
:103F1000892B21F0E9A1FAA1309721F410926C02CB
:103F2000ECE6F2E0108110930501163471F46BE8B1
:103F300071E08EED96E00E94150A882331F06EEC58
:103F400071E08EED96E00E9493126EED76E0CE0168
:103F500001960E9477121FA318A641E050E0BE010F
:103F6000695D7F4FCE0101960E942A12811104C023
:103F7000CE0101960E94B10ABE016F5F7F4FCE0154
:103F800087960E947712CE0101960E94C30A0CCF39
:103F90006FEA71E0CE0181960E94150A09A11AA16B
:103FA000811131C062EB71E0CE0181960E94150A49
:103FB000811129C065EB71E0CE0181960E94150A3E
:103FC000811121C06EEC71E0CE0181960E94150A2C
:103FD000811119C068EB71E0CE0181960E94150A2B
:103FE000811111C018A70FA38BA19CA19AA789A723
:103FF0008DA19EA19CA78BA71AA219A21CA21BA2ED
:104000001EA21DA2D1CE0115110551F04DA15EA138
:10401000B8018EED96E00E9456121091050195CFE1
:104020008EED96E00E94B10AF8CF8BE68093F702FE
:104030008BEF92E00E94462F6BEB71E08BEF92E0EA
:104040000E943D2F892B09F0CDCE86E48093050197
:10405000C9CE85E395E00E945A0298012F5F3F4F39
:104060003093E9022093E802F801E550FD4F808388
:1040700085E395E00E947C02892B09F00FCE0E9417
:1040800092042B013C010091E8021091E9025801D1
:10409000B1E0AB1AB108F501E550FD4FFFA7EEA75F
:1040A0008081881561F00E9492046419750986095F
:1040B00097096C157D058E059F050CF4E8CDAEA51E
:1040C000BFA58C91881201C085011093E90200936D
:1040D000E802BDA58EE7BA3108F080E0F801E550AE
:1040E000FD4F808312CE2091F702233609F4BECC17
:1040F000009180021091810220918202309183020E
:10410000601B710B820B930B161617061806190607
:104110000CF0ACCC88E00E9474038C0161E070E08C
:1041200080E090E00115110519F460E070E0CB012A
:104130004AE00E9492090E94630980917F02012B4C
:10414000E1F1811193CC0091EF021091F00230E087
:1041500020E04EEB51E06BE6C8010E942A0A20EDF8
:1041600037E042EC51E06DE6C8010E942A0A83E183
:10417000E7E3F1E0DE01119601900D928A95E1F7F7
:1041800030E020E0AE014F5F5F4F62E4C8010E9463
:104190002A0A20ED37E04DEC51E06BE6C8010E94A1
:1041A0002A0A30E020E04BEB51E06BE6C8010E94A8
:1041B0002A0A81E080937F0259CC882309F456CCE7
:1041C00085E08093EC0284E68093F70210927F02F0
:1041D0004DCC83E192E00E9467098AE092E00E9460
:1041E00067098091F7028B3621F49091D304191658
:1041F000CCF40E9473098091EA028B3699F4809185
:10420000F7028A3661F0803751F08091EB028736F1
:1042100031F0982F9B7F993611F0863719F48BE691
:104220008093F7021091F7021B3691F48091FB0204
:10423000882371F061E871E08BEF92E00E943D2FDE
:10424000892B31F06BEF72E084E892E00E94462FF8
:104250001092EC021093EA021B3629F0135612302A
:1042600010F01092F7021092FB021092E9021092E5
:10427000E8028091F7028B3609F046C0E090D30443
:10428000E7FE1CC48091E104FF24FA94F80E82300A
:1042900008F4F12C10E03EECE32E42E3B42E212F83
:1042A00030E08091D304082E000C990B97FF03C0D7
:1042B000919581959109281739075CF485E395E07C
:1042C0000E947C02892B09F4ACC38BEB91E00E9425
:1042D0007F1083E49DE00197F1F78091D30487FF7D
:1042E00013C08DE091E00E94C801E7E9F2E087ED9C
:1042F00092E011921192119211928E179F07C9F7B5
:104300008091F7020E9473090E94920420E137E233
:1043100040E050E00E940C2B8091090190910A012D
:10432000092E000CAA0BBB0B82179307A407B50735
:10433000D4F5790130930A012093090185E10E94A7
:1043400028048C018A38924054F58091ED029091B6
:10435000EE020817190721F022E0E216F104FCF43E
:104360008AE192E00E941003C80163E670E00E94B7
:10437000412E9B01072E000C880B990B37FF81C43F
:104380000E94F60986E50E9473098AE191E00E9485
:104390000B0B882321F081ED93E00E94B61510935A
:1043A000EE020093ED0280E090E0892B09F431CA1F
:1043B0000E948802882309F428CA0E94000025CAA6
:1043C00087E6173409F00DCF8093F7020ACF80916A
:1043D000060191E0811190E090930601811110E5B2
:1043E0001093F702811102C08BE6EECF0E94AD0759
:1043F000F8CE8DE30E940B038091E8029091E902D0
:10440000892BD1F08BEF92E00E94D228880F991F60
:10441000FC01E35FFE4F60817181072E000C880B69
:10442000990B97FF05C00E94F6090E946309D9CE37
:104430004AE00E949209F9CF0E94D60967ED71E027
:10444000CE0181960E94C9120DE011E08DE2E82EA6
:1044500081E0F82ED8016D917D918D01CE010196FC
:104460000E949D124D815E8169817A81CE01819683
:104470000E942A12CE0101960E94C30A42E050E037
:1044800065ED71E0CE0181960E942A12E016F106D8
:1044900009F7CE0181960E947F09CE0181960E9484
:1044A000C30A9FCE84E092E00E946709A8ED8A2E9D
:1044B000A2E09A2EB0E4EB2EF12C00E110E0F40122
:1044C000D1904F01C8010E948D2AD81621F06D2D80
:1044D000C8010E94952AC7010E940B0C6C01C801FB
:1044E00080960E940B0BB82EF40131976081062E46
:1044F000000C770B880B990B0E9470292B013C0153
:104500006B2DBB0C770B880B990B0E9470299B01BC
:10451000AC01C301B2010E94CF292B013C01B601BD
:10452000DD0C880B990B0E9470299B01AC01C30123
:10453000B2010E943E2B0E94212CC70180960E944E
:10454000E40A0F5F1F4FF2E0EF0EF11C003211057D
:1045500009F0B5CF46CE8CEF91E00E946709F8EDE7
:10456000EF2EF2E0FF2E00E110E0C8010E940B0BDD
:10457000D7018D937D010F5F1F4F00321105A9F701
:1045800030CE193649F48091E8029091E902892BE6
:1045900019F41092F80225CE1092D70270900701FC
:1045A0000DE011E0FE0131966F0177E9E72E72E030
:1045B000F72EEDE28E2EE1E09E2E5601D8016D9190
:1045C0007D918D01072E000C880B990B0E9470299C
:1045D00020E030E0A901772029F0F7012081318126
:1045E000428153810E943D2B0E94212CD6016D9364
:1045F0007D936D01B4E0EB0EF11C80169106F1F68F
:1046000061ED71E08BEF92E00E9400296C01C11412
:10461000D10409F447C0C6010E94D2288C0164ED80
:1046200071E090E080E00E9400296C01F12CE12C07
:1046300088248394912C009769F00E94D2287C01F1
:1046400064ED71E090E080E00E9400296C0162E07E
:10465000862E912C8091F702982F9B7F993609F036
:1046600014C30031110598F49801220F331FF5018E
:10467000E20FF31FF182E08204301105D4F42157D8
:104680003D4FF901F182E08291E09093F8028D367E
:1046900009F094C340E050E060E070E4C5010E947E
:1046A000500D8CC3F12CE12C10E000E0912C812CFA
:1046B000D1CF91E09093D702EACF823609F07EC342
:1046C000892881F48AE191E00E940B0B2AE131E014
:1046D0003AA329A361E0811160E0CE0181960E9496
:1046E000CB0A6CC3E114F10409F468C3C101B7013A
:1046F0000E94412E072E000C880B990B0E947029F6
:104700002B013C01B801110F880B990B0E947029F5
:10471000EE24E39410E000E0A30192010E94401314
:104720004DC38091E8029091E90202970CF431CFD9
:104730001092D70270900701FDE0EF2EF1E0FF2EFE
:10474000CE0101965C01A7E9CA2EA2E0DA2EBDE2F5
:104750008B2EB1E09B2E8C01D7016D917D917D0157
:10476000072E000C880B990B0E94702920E030E086
:10477000A901772029F0F6012081318142815381FE
:104780000E943D2B0E94212CD5016D937D935D01EC
:10479000B4E0CB0ED11C8E149F04F1F6EBEFEE2E9D
:1047A000E2E0FE2EDD24D3942091E8023091E9026C
:1047B000C7018B5F9240821793075CF5F701408138
:1047C0004031A8F42181022E000C330B842F880F76
:1047D000990BF801E80FF91F318320834430B4F4BA
:1047E00081579D4FDC012D933C93D092F80280912C
:1047F000F7028D3439F440E050E060E070E4C80125
:104800000E94500DB2E0EB0EF11CCECFD092D70239
:10481000EECF8091D702811105C08091EA028B36DC
:1048200009F4DFCC40E050E060E870E4C8010E9489
:10483000500DC801DEC200E020E030E040E050E46E
:1048400061E08BEF92E00E94C80ECBCCF12C0F2DD3
:1048500010E08091E8029091E90297FD019695950C
:104860008795081719070CF0CDC2000F111F0550CE
:104870001D4FF8016181062E000C770BC1010E94CB
:10488000412E072E000C880B990B0E9470294B01BA
:104890005C01D8016C91062E000C770B880B990BEC
:1048A0000E947029EE24E39410E000E0A501940139
:1048B0000E944013F394CBCF86E191E00E940B0C51
:1048C0000E94BB070E946A108091F7020E94730940
:1048D0008BE68093F70268ED71E08BEF92E00E9427
:1048E000462F7FCC86E191E00E940B0C7C018091E9
:1048F000FB028093D3040E943F0101966C018E0D50
:104900009F1D10E000E08F3F9F41A8F08BEE91E0EB
:104910000E94670955E0E52E04E610E020E030E053
:1049200048EC52E460E070E080E291E40E944013C1
:104930000E946A10CDCF1C141D04D4F7E1E0E0936F
:10494000E804F4E5F093E7041092E6041092E5041D
:104950006F2D70E088EE95E00E946D07B701772714
:1049600088EE95E00E946D073801C80185509D4F83
:104970004C01280190E1490E511C0F5F1F4FD401DB
:104980006D914D0188EE95E00E9423065801AE0C12
:10499000BF1CA618B708B1E0CB1AD10841F0C50179
:1049A0008F719927892B19F04016510631F788EE3F
:1049B00095E00E94520666E070E080E090E00E9480
:1049C0005F047501B8CF6BEF72E089E791E00E9458
:1049D0003D2F892B69F06BEF72E084E892E00E9432
:1049E0003D2F892B29F48091D30482300CF008C22A
:1049F0008BEF92E00E947F10F4CB6CED71E08BEFB7
:104A000092E00E94462F8BEF92E00E947F100E945E
:104A1000AD07109207011092F80287E60E94730911
:104A2000E0CBC090E304D090E4048091D904189FB7
:104A3000C00CD11C1124F6016089062E000C770BE6
:104A4000880B990B0E94702920E030E040E85EE37B
:104A50000E94CF299B01AC0100E06091DE04C601F9
:104A60000E94C80E8091D904E091E304F091E4041F
:104A7000189FE00DF11D112461891616D4F4FB2D49
:104A80006F02B0011124072E000C880B990B0E94B5
:104A90005F04FF2061F0112351F08091E0041813AE
:104AA00006C01091DF0411501F140CF4FA941F5F1C
:104AB000F6CB2E2D6202B0011124E5CF2E2D0E2C47
:104AC000000C330B8091CF04803108F446C0109263
:104AD000CF04809106014091F9025091FA02840FAF
:104AE000952F911D82179307A4F59093FA02809356
:104AF000F902F090CF040F2D10E081E08E15ACF597
:104B00008091E204F816D8F14091D9042091F9027D
:104B10003091FA02429FC001439F900D11242091D1
:104B2000E204080F191F021B11098091E304909100
:104B3000E404080F191F6091DE04F80120812603A8
:104B4000B0011124072E000C880B990B0E947029CC
:104B500063C01092FA021092F9028091CF0484305F
:104B600041F688E08093CF04C4CF2130310561F64F
:104B700093E09F1548F28091F802882329F28091F2
:104B8000F802811154C0A3E0AF1508F450C0B1E0A1
:104B9000812C912C5401FB1659F06091D204062E01
:104BA000000C770B880B990B0E9470294B015C015C
:104BB0000E5F1F4F8091F9029091FA02089FB00199
:104BC000099F700D189F700D1124072E000C880B83
:104BD000990B0E9470292BED3FE049E450E40E94BC
:104BE000CF292B013C016E2DEE0C770B880B990B16
:104BF0000E9470299B01AC01C301B2010E94AF2B3E
:104C00000E94EB2C20E030E040E251E40E94CF29EA
:104C1000A50194010E943E2BAB01BC018F2D0E9487
:104C20008E0C8091CF048F5F8093CF0452CBF8011C
:104C3000EE0FFF1FE157FD4F60817181072E000CC1
:104C4000880B990B0E9470294B015C016091070150
:104C500070E090E080E00E947029000F111F000FAB
:104C6000111FF801E956FD4F2081318142815381A6
:104C70000E94CF299B01AC01C501B4010E943D2BCC
:104C8000CBCF4AE00E9492097DCB833609F015CD47
:104C9000109207018091EA02833689F088E59CE052
:104CA0000E94FB0881E08093080162E971E08BEFCC
:104CB00092E00E94462F8BEF92E00E947F10C80185
:104CC00088529D4F3C0192E08916910411F4D30162
:104CD000EC92C8018096880F991F0E940B0C7C01F2
:104CE000C8019927C0960E940B0B182FF301608111
:104CF000062E000C770B880B990B0E9470292B0154
:104D00003C01612F110F770B880B990B0E947029C2
:104D10009B01AC01C301B2010E94CF292B013C01D0
:104D2000B701FF0C880B990B0E9470299B01AC0105
:104D3000C301B2010E943E2B0E94212C072E000CC1
:104D4000880B990B0E947029AB01BC01802F0E9437
:104D50001F0C0E94D60967ED71E0CE0187960E9474
:104D6000C91208ED12E0D8016D918D01062E000CDC
:104D7000770BCE0181960E949D124DA15EA169A183
:104D80007AA1CE0187960E942A12CE0181960E94B6
:104D9000C30A42E050E065ED71E0CE0187960E94C3
:104DA0002A12E8EEF2E0E017F107E9F6CE01879665
:104DB0000E947F09CE0187960E94C30AC114D104C4
:104DC00009F025CC8091F7028B7F893609F009CA5A
:104DD0008091D702811105C08091EA028B3609F4D7
:104DE00000CA40E050E060E870E4C5010E94500D48
:104DF000C5010E94C801F5C91091EC020C943B1D3D
:104E0000812FF3C98091F702F4C98EED96E00C94DE
:104E1000C30A0F931F93CF93DF938230910510F451
:104E200082E090E0E091E806F091E90630E020E0D1
:104E3000B0E0A0E0309799F42115310509F44AC09B
:104E4000281B390B24303105D8F58A819B816115E7
:104E5000710589F1FB0193838283FE0111C04081BA
:104E600051810281138148175907E0F0481759070B
:104E700099F4109761F012960C93129713961C9365
:104E80003296CF01DF91CF911F910F91089500933A
:104E9000E8061093E906F4CF2115310551F04217C9
:104EA000530738F0A901DB019A01BD01DF01F801C8
:104EB000C1CFEF01F9CF9093E9068093E806CDCFFB
:104EC000FE01E20FF31F8193919322503109398340
:104ED0002883D7CF2091E6063091E706232B41F4B3
:104EE00020912F01309130013093E7062093E606A0
:104EF00020912D0130912E012115310541F42DB75E
:104F00003EB74091310150913201241B350BE091A5
:104F1000E606F091E706E217F307A0F42E1B3F0B1D
:104F20002817390778F0AC014E5F5F4F241735071B
:104F300048F04E0F5F1F5093E7064093E6068193BB
:104F400091939FCFF0E0E0E09CCFCF93DF93009769
:104F5000E9F0FC01329713821282A091E806B09129
:104F6000E906ED0130E020E01097A1F420813181C5
:104F7000820F931F2091E6063091E7062817390724
:104F800009F061C0F093E706E093E606DF91CF9168
:104F90000895EA01CE17DF07E8F54A815B819E019B
:104FA00041155105B1F7E901FB83EA834991599114
:104FB000C40FD51FEC17FD0761F480819181029623
:104FC000840F951FE90199838883828193819B8354
:104FD0008A83F0E0E0E012968D919C911397009700
:104FE000B9F52D913C911197CD010296820F931F37
:104FF0002091E6063091E7062817390739F63097F1
:1050000051F51092E9061092E806B093E706A093D6
:10501000E606BCCFD383C28340815181840F951FA4
:10502000C817D90761F44E5F5F4F88819981480F97
:10503000591F518340838A819B81938382832115E9
:10504000310509F0B0CFF093E906E093E8069ECF72
:10505000FD01DC01C0CF13821282D7CF8F929F92C5
:10506000AF92BF92CF92DF92EF92FF92CF93DF93F6
:10507000EC01688179818A819B81611571058105C7
:10508000910521F464E279ED8BE597E02DE133EFB2
:1050900041E050E00E94A32A49015A019B01AC0162
:1050A000A7EAB1E40E94C22A6B017C01ACEEB4EF26
:1050B000A50194010E94D02AC60ED71EE81EF91E33
:1050C000F7FE06C081E0C81AD108E10880E8F80AB6
:1050D000C882D982EA82FB82C701B6019F77DF913D
:1050E000CF91FF90EF90DF90CF90BF90AF909F90C7
:1050F0008F9008958F929F92AF92BF92CF92DF923E
:10510000EF92FF92609133017091340180913501EB
:1051100090913601611571058105910521F464E2D4
:1051200079ED8BE597E02DE133EF41E050E00E940F
:10513000A32A49015A019B01AC01A7EAB1E40E94EC
:10514000C22A6B017C01ACEEB4EFA50194010E9470
:10515000D02AC60ED71EE81EF91EF7FE06C081E053
:10516000C81AD108E10880E8F80AC0923301D09249
:105170003401E0923501F0923601C701B6019F7704
:10518000FF90EF90DF90CF90BF90AF909F908F9067
:1051900008956093330170933401809335019093A7
:1051A00036010895FC0188279927E894219120323F
:1051B000E9F3293010F02E30C8F32B3241F02D32B4
:1051C00039F4689404C00E943729820F911D2191FF
:1051D00020532A30C0F31EF4909581959F4F089577
:1051E000FB01DC0105900D920020E1F70895FC0120
:1051F00005900020E9F7809590958E0F9F1F0895E8
:1052000044EE56E00E9405290895FA01A191B0816B
:10521000009719F41097E1F0CD01DC01CD010D905C
:10522000002011F4C00113C0FB012191222319F0C9
:105230002015D9F7F3CFFB012191201519F41E9207
:10524000119606C02223C1F70D900020A1F7D001CE
:10525000FA01A193B0830895BB274A3031F4992312
:1052600022F4BDE2909581959F4F0C9440297AE0FD
:10527000979F902D879F802D910D11240895BB2716
:10528000FB015527AA27880F991FAA1FA41710F002
:10529000A41B83955051B9F7A05DAA3308F0A95D0E
:1052A000A193009779F7B111B1931192CB010C94AE
:1052B0005929DC01FC01672F71917723E1F73297BF
:1052C00004C07C916D9370836291AE17BF07C8F3E1
:1052D00008950E94AB2908F481E00895E89409C07C
:1052E00097FB3EF490958095709561957F4F8F4F19
:1052F0009F4F9923A9F0F92F96E9BB279395F6952F
:10530000879577956795B795F111F8CFFAF4BB0FAC
:1053100011F460FF1BC06F5F7F4F8F4F9F4F16C010
:10532000882311F096E911C0772321F09EE8872F9A
:10533000762F05C0662371F096E8862F70E060E056
:105340002AF09A95660F771F881FDAF7880F9695CF
:10535000879597F90895990F0008550FAA0BE0E873
:10536000FEEF16161706E807F907C0F01216130627
:10537000E407F50798F0621B730B840B950B39F467
:105380000A2661F0232B242B252B21F408950A26CD
:1053900009F4A140A6958FEF811D811D08950E94FB
:1053A000E2290C94532A0E94452A38F00E944C2A84
:1053B00020F0952311F00C943C2A0C94422A1124DD
:1053C0000C94872A0E94642A70F3959FC1F3950F6D
:1053D00050E0551F629FF001729FBB27F00DB11D79
:1053E000639FAA27F00DB11DAA1F649F6627B00D09
:1053F000A11D661F829F2227B00DA11D621F739FF2
:10540000B00DA11D621F839FA00D611D221F749FFF
:105410003327A00D611D231F849F600D211D822F46
:10542000762F6A2F11249F5750409AF0F1F088236D
:105430004AF0EE0FFF1FBB1F661F771F881F91509A
:105440005040A9F79E3F510580F00C943C2A0C94E3
:10545000872A5F3FE4F3983ED4F386957795679566
:10546000B795F795E7959F5FC1F7FE2B880F911DC4
:105470009695879597F9089597F99F6780E870E06A
:1054800060E008959FEF80EC089500240A941616BA
:10549000170618060906089500240A941216130622
:1054A000140605060895092E0394000C11F48823B0
:1054B00052F0BB0F40F4BF2B11F460FF04C06F5FCC
:1054C0007F4F8F4F9F4F089557FD9058440F551FA2
:1054D00059F05F3F71F04795880F97FB991F61F076
:1054E0009F3F79F087950895121613061406551FED
:1054F000F2CF4695F1DF08C0161617061806991F59
:10550000F1CF86957105610508940895E894BB274D
:1055100066277727CB0197F90895F999FECF92BDB9
:1055200081BDF89A992780B50895262FF999FECF65
:105530001FBA92BD81BD20BD0FB6F894FA9AF99AB0
:105540000FBE01960895052E97FB1EF400940E944D
:10555000BA2A57FD07D00E940C2B07FC03D04EF44B
:105560000C94BA2A50954095309521953F4F4F4F56
:105570005F4F089590958095709561957F4F8F4FFF
:105580009F4F08950E942E2BA59F900DB49F900DC4
:10559000A49F800D911D11240895B7FF0C94C22A79
:1055A0000E94C22A821B930B08952F923F924F9222
:1055B0005F926F927F928F929F92AF92BF92CF92A3
:1055C000DF92EF92FF920F931F93CF93DF93CDB7AC
:1055D000DEB7CA1BDB0B0FB6F894DEBF0FBECDBF24
:1055E00009942A88398848885F846E847D848C84F5
:1055F0009B84AA84B984C884DF80EE80FD800C81FE
:105600001B81AA81B981CE0FD11D0FB6F894DEBFE0
:105610000FBECDBFED010895A1E21A2EAA1BBB1B40
:10562000FD010DC0AA1FBB1FEE1FFF1FA217B3076E
:10563000E407F50720F0A21BB30BE40BF50B661F84
:10564000771F881F991F1A9469F760957095809548
:1056500090959B01AC01BD01CF010895A29FB001BF
:10566000B39FC001A39F700D811D1124911DB29F96
:10567000700D811D1124911D08955058BB27AA2734
:105680000E94552B0C94532A0E94452A38F00E9400
:105690004C2A20F039F49F3F19F426F40C94422A46
:1056A0000EF4E095E7FB0C943C2AE92F0E94642A53
:1056B00058F3BA17620773078407950720F079F447
:1056C000A6F50C94862A0EF4E0950B2EBA2FA02D89
:1056D0000B01B90190010C01CA01A0011124FF279F
:1056E000591B99F0593F50F4503E68F11A16F0409A
:1056F000A22F232F342F4427585FF3CF4695379599
:105700002795A795F0405395C9F77EF41F16BA0B5D
:10571000620B730B840BBAF09150A1F0FF0FBB1F0B
:10572000661F771F881FC2F70EC0BA0F621F731F54
:10573000841F48F4879577956795B795F7959E3FB1
:1057400008F0B0CF9395880F08F09927EE0F979542
:10575000879508950E94592CE3950C94822C0E9401
:10576000C32B0C94532A0E944C2A58F00E94452ABD
:1057700040F029F45F3F29F00C943C2A51110C941D
:10578000872A0C94422A0E94642A68F39923B1F371
:10579000552391F3951B550BBB27AA276217730757
:1057A000840738F09F5F5F4F220F331F441FAA1FEB
:1057B000A9F335D00E2E3AF0E0E832D091505040A7
:1057C000E695001CCAF72BD0FE2F29D0660F771F55
:1057D000881FBB1F261737074807AB07B0E809F03B
:1057E000BB0B802DBF01FF2793585F4F3AF09E3FC0
:1057F000510578F00C943C2A0C94872A5F3FE4F31F
:10580000983ED4F3869577956795B795F7959F5F02
:10581000C9F7880F911D9695879597F90895E1E04E
:10582000660F771F881FBB1F621773078407BA07AD
:1058300020F0621B730B840BBA0BEE1F88F7E09508
:1058400008950E94282C6894B1110C94872A089519
:105850000E946C2A88F09F5798F0B92F9927B7516A
:10586000B0F0E1F0660F771F881F991F1AF0BA9504
:10587000C9F714C0B13091F00E94862AB1E00895B2
:105880000C94862A672F782F8827B85F39F0B93FA4
:10589000CCF3869577956795B395D9F73EF49095B7
:1058A0008095709561957F4F8F4F9F4F08950C9411
:1058B000422A0E946C2AD8F3E894E0E0BB279F5765
:1058C000F0F02AED3FE049EC06C0EE0FBB0F661F7B
:1058D000771F881F28F0B23A62077307840728F001
:1058E000B25A620B730B840BE3959A9572F780386A
:1058F00030F49A95BB0F661F771F881FD2F7904828
:105900000C94342DEF93E0FF07C0A2EA2AED3FE0AC
:1059100049EC5FEB0E94552B0E94532A0F90039491
:1059200001FC9058E8E6F0E00C94672D0E94AB294A
:1059300008F48FEF0895FA01EE0FFF1F309621054E
:105940003105A1F16115710561F48038BFE39B0752
:1059500049F168949038810561F08038BFEF9B076A
:1059600041F099234AF5FF3FE1053105210519F181
:10597000E8940894E795D901AA2329F4AB2FBE2F08
:10598000F85FD0F310C0FF5F70F4A695E0F7F73929
:1059900050F019F0FF3A38F49F779F930DD00F9095
:1059A00007FC9058089546F00C94422A60E070E09D
:1059B00080E89FE308954FE79F775F934F933F936E
:1059C0002F930E94C52D2F913F914F915F910E947F
:1059D000CF290C94002D9F930E94592C0F9007FC07
:1059E000EE5F0C94822C0E94AB29880B990B0895D2
:1059F00029F416F00C943C2A0C94862A0C94422A22
:105A00000E946C2AA8F39638A0F707F80F92E89442
:105A10002BE33AEA48EB5FE70E94E5290F920F92E9
:105A20000F924DB75EB70F920E940D2EE6E8F0E0A0
:105A30000E94402D4F915F91EF91FF91E595EE1FF0
:105A4000FF1F49F0FE57E0684427EE0F441FFA9508
:105A5000E1F74195550B0E94872D0F9007FE0C949E
:105A60007B2D08959F3F31F0915020F487957795D5
:105A70006795B795880F911D9695879597F9089525
:105A8000DF93CF931F930F93FF92EF92DF927B01EF
:105A90008C01689406C0DA2EEF010E94E229FE0113
:105AA000E894A5912591359145915591A6F3EF0183
:105AB0000E94552BFE019701A801DA9469F7DF9047
:105AC000EF90FF900F911F91CF91DF9108959F93D9
:105AD0008F937F936F93FF93EF939B01AC010E9491
