:100000000C9432010C945A010C945A010C945A012C
:100010000C945A010C945A010C945A010C949A199C
:100020000C945A010C945A010C945A010C94B71B6D
:100030000C945A010C945A010C945A010C945A01D4
:100040000C944E1A0C945A010C941C1A0C94F61928
:100050000C945A010C945A010C945A010C945A01B4
:100060000C94981A0C945A0105A84CCDB2D44EB9F0
:100070003836A9020C50B9918688083CA6AAAA2A4B
:10008000BE000000803F07634236B79BD8A71A39ED
:10009000685618AEBAAB558C1D3CB7CC5763BD6DD6
:1000A000EDFD753EF6177231BF000000803F08007D
:1000B0000000BE922449123EABAAAA2ABECDCCCCE7
:1000C0004C3E00000080BEABAAAAAA3E0000000081
:1000D000BF000000803F0000000000084178D3BB53
:1000E0004387D1133D190E3CC3BD4282AD2B3E6800
:1000F000EC8276BED98FE1A93E4C80EFFFBE01C4F1
:10010000FF7F3F0000000000010000010000000030
:100110000000000000000000000000006B76744644
:10012000006B636D68006B7075006B706565006BCC
:1001300073637268006B736E66006B636872006B4A
:10014000636B006B6869006B737472006B73697426
:100150000000000000240027002A00000000080022
:10016000020100000304070000000000000000532B
:100170006572766F3A00536B696C6C005461736BF7
:100180005100526561647921004E5F323530323260
:100190003400426974746C65000A2A2053746172D9
:1001A00074202A0054007363726800636B007065EA
:1001B000650070750068690073747200736974007B
:1001C000747200776B006372007674006300420003
:1001D000700052007570004C006700460064004FCC
:1001E000564600000000002300260029004C01476D
:1001F0000143013F013A0135012F012A0126012166
:10020000011C0161626F72746564007361766564DC
:10021000004E5F32353032323400426974746C659E
:10022000004C6F7720706F7765723A000200000013
:1002300000250028002B0004040404040404040224
:100240000202020202030303030303010204081073
:100250002040800102040810200102040810200040
:10026000E91C3C2E11241FBECFEFD8E0DEBFCDBF6E
:1002700012E0A0E0B1E0EEEAFDE602C005900D92CA
:10028000A631B107D9F727E0A6E1B2E001C01D927F
:10029000A933B207E1F711E0C1E3D1E004C021972F
:1002A000FE010E94A035C033D107C9F70E94F31D9B
:1002B0000C94CA360C94000047E018160CF444E085
:1002C0004093080598E0823024F494E1813009F4E9
:1002D00090E190930905282F880F330B37FF03C057
:1002E000319521953109929FB001939F700D112492
:1002F000CB01840F911D0895CF93DF93DC0190967D
:10030000FC0141E85FEF60E870E021913191261730
:1003100037070CF4B901421753070CF4A901EA1787
:10032000FB0799F763387F4F1CF04E3751056CF18E
:1003300022E020930E05DC012D913D91ED012297E5
:1003400037FF02C02F5F3F4F3595279539832883AC
:10035000AE17BF0789F7A0911305B0911405EC0102
:10036000288102962D938E179F07C9F781E080930D
:1003700003051092120580E1809309051092FE0496
:100380001092FD04DF91CF91089521E020930E0596
:10039000E2CF8091210390912203891B990B08954C
:1003A00008950895AF92BF92CF92DF92EF92FF929D
:1003B0000F931F93CF93DF936C017B018B01040F8D
:1003C000151FEB015E01AE18BF08C017D10759F029
:1003D0006991D601ED91FC910190F081E02DC6016B
:1003E0000995892B79F7C501DF91CF911F910F9165
:1003F000FF90EF90DF90CF90BF90AF900895FC01F9
:10040000538D448D252F30E0842F90E0821B930B79
:10041000541710F0CF96089501970895FC01918D1F
:10042000828D981761F0A28DAE0FBF2FB11D5D9622
:100430008C91928D9F5F9F73928F90E008958FEFC4
:100440009FEF0895FC01918D828D981731F0828D78
:10045000E80FF11D858D90E008958FEF9FEF0895CF
:10046000FC01918D228D892F90E0805C9F4F821B33
:1004700091098F739927089586E795E00E943002CD
:1004800021E0892B09F420E0822F089580E090E09C
:10049000892B29F00E943C0281110C9400000895E0
:1004A000FC01A48DA80FB92FB11DA35ABF4F2C91E9
:1004B000848D90E001968F739927848FA689B789E0
:1004C0002C93A089B1898C91837080648C93938DD7
:1004D000848D981306C00288F389E02D80818F7D7A
:1004E00080830895EF92FF920F931F93CF93DF9332
:1004F000EC0181E0888F9B8D8C8D98131AC0E88960
:10050000F989808185FF15C09FB7F894EE89FF892E
:100510006083E889F98980818370806480839FBFCC
:1005200081E090E0DF91CF911F910F91FF90EF90CC
:100530000895F62E0B8D10E00F5F1F4F0F731127DC
:10054000E02E8C8D8E110CC00FB607FCFACFE88917
:10055000F989808185FFF5CFCE010E945002F1CF4D
:10056000EB8DEC0FFD2FF11DE35AFF4FF0829FB78B
:10057000F8940B8FEA89FB8980818062CFCF682F46
:1005800086E795E00C9472020F931F93CF93DF934D
:100590008C01D0E0C0E0F801EC0FFD1F64916623F0
:1005A00041F086E795E00E947202892B11F02196B6
:1005B000F2CFCE01DF91CF911F910F910895CF938C
:1005C000DF93EC01888D8823B9F0AA89BB89E8897B
:1005D000F9898C9185FD03C0808186FD0DC00FB621
:1005E00007FCF7CF8C9185FFF2CF808185FFEDCF9F
:1005F000CE010E945002E9CFDF91CF910895833060
:1006000081F028F4813099F08230A9F00895873084
:10061000A9F08830C9F08430B1F4809180008F7DDA
:1006200003C0809180008F7780938000089584B507
:100630008F7784BD089584B58F7DFBCF8091B00006
:100640008F778093B00008958091B0008F7DF9CFAF
:100650001F93CF93DF93282F30E0F901E55AFE4F27
:100660008491F901E55BFD4FD491F901E95CFD4FFF
:10067000C491CC23A9F0162F81110E94FF02EC2F08
:10068000F0E0EE0FFF1FE35DFD4FA591B4918FB732
:10069000F894EC91111108C0D095DE23DC938FBF44
:1006A000DF91CF911F910895DE2BF8CF909131010A
:1006B00089130BC0ECE2F2E0E4919FEF90933101DB
:1006C000E13049F028F0E23061F060E00C9428035A
:1006D00010926E00FACF90916F009D7F90936F0003
:1006E000F4CF909170009D7F9093700091E0909373
:1006F000B0009091B100987F94609093B1001092F7
:10070000B300E3CFCF93DF9390E0FC01E55BFD4FB7
:100710002491895C9D4FFC0184918823D1F090E065
:10072000880F991FFC01EF5AFE4FA591B491FC016F
:10073000E35DFD4FC591D49161110EC09FB7F89450
:100740008C91E22FE0958E238C932881E223E8831D
:100750009FBFDF91CF9108958FB7F894EC91E22B72
:10076000EC938FBFF6CF8E50806480937C00809195
:100770007A00806480937A0080917A0086FDFCCFB5
:10078000809178009091790008953FB7F894809116
:100790007F0290918002A0918102B091820226B5E1
:1007A000A89B05C02F3F19F00196A11DB11D3FBFA9
:1007B000BA2FA92F982F8827BC01CD01620F711D78
:1007C000811D911D42E0660F771F881F991F4A9572
:1007D000D1F708958F929F92AF92BF92CF92DF92FE
:1007E000EF92FF926B017C010E94C5034B015C01FB
:1007F000C114D104E104F104B9F00E94C5036819E1
:1008000079098A099B09683E73408105910580F347
:1008100021E0C21AD108E108F10888EE880E83E0D1
:10082000981EA11CB11CE4CFFF90EF90DF90CF90F9
:10083000BF90AF909F908F9008952FB7F8946091DC
:100840007B0270917C0280917D0290917E022FBF8D
:10085000089520915702260F3327331F2132310587
:10086000ECF420917005FC0190E080E0243069F008
:1008700082E00895A09157022191AC01495C5D4F3F
:10088000A40FB52FB11D2C930196861798F3809174
:100890005702680F6093570280E0089581E0089541
:1008A0001092700581E080934F0510924A0561E037
:1008B00082E10E94280361E083E10E942803E9EBC2
:1008C000F0E080818E7F808380818D7F808388E4CB
:1008D0008093B80085E48093BC000895CF93DF93A4
:1008E00091E0909336028823B9F0C091B800D0917E
:1008F000BA008091BC008A7B8093BC0060E082E1FA
:100900000E94280360E083E10E9428030E945004B3
:10091000D093BA00C093B800DF91CF910895CF92E1
:10092000DF92EF92FF920F931F93CF93DF93D82F15
:10093000C62F613208F098C00E94C5036B017C018C
:100940008091700581116BC081E080937005809368
:100950004F059FEF90934E0510924D059C0F90937D
:100960004C0580934B0580914B05DD0FD82BD09320
:100970004B0580914A05813009F078C010924A05F4
:100980000E94C5036B017C0180914B058093BB00E5
:100990008091720590917305A0917405B0917505D1
:1009A000892B8A2B8B2BA1F00E94C5030091720525
:1009B0001091730520917405309175056C197D09AE
:1009C0008E099F09061717072807390708F448C03A
:1009D0008091BC0083FDD8CF85EC8093BC000E9441
:1009E000C5036B017C0180917005813009F440C022
:1009F00080914D058C1710F4C0914D05EAE2F5E0A9
:100A0000A0E5B5E080E08C1355C08C2FDF91CF912D
:100A10001F910F91FF90EF90DF90CF9008958091FC
:100A2000720590917305A0917405B0917505892B9D
:100A30008A2B8B2B09F484CF0E94C5030091720589
:100A40001091730520917405309175056C197D091D
:100A50008E099F09061717072807390708F070CF76
:100A6000809171050E946E04C0E0CFCF85EEB5CFB6
:100A70008091720590917305A0917405B0917505F0
:100A8000892B8A2B8B2B09F4AECF0E94C5030091D2
:100A900072051091730520917405309175056C19DC
:100AA0007D098E099F09061717072807390708F0DF
:100AB0009ACFD6CF91919D938F5FA5CF0895E09166
:100AC000220380912103E81730F4F0E0E05BFA4F55
:100AD000808190E008958FEF9FEF08959091220319
:100AE000809121032FEF3FEF981748F4E92FF0E0B2
:100AF000E05BFA4F208130E09F5F90932203C901B1
:100B00000895CF92DF92EF92FF920F931F93CF93AE
:100B1000DF937C01CB018A0120911805222389F003
:100B2000EB016B01C40ED51ECC15DD0569F0699192
:100B3000D701ED91FC910190F081E02DC70109955D
:100B4000F3CF642F0E942904C801DF91CF911F9138
:100B50000F91FF90EF90DF90CF900895CF93DF93A8
:100B60001F92CDB7DEB76983209118052223F9F0D3
:100B700020911505203258F021E030E0FC0133834C
:100B8000228390E080E00F90DF91CF9108958091D3
:100B90001605E82FF0E0EA5EFD4F998190838F5FA4
:100BA000809316058093150581E090E0ECCF61E01D
:100BB000CE0101960E942904F7CFCF92DF92EF92E7
:100BC000FF920F931F93CF93DF93D091150581E090
:100BD000D13208F09CC0C09117050E94C5036B017B
:100BE0007C018091700581116CC082E0809370055A
:100BF00081E080934F058FEF80934E0510924D0555
:100C0000D0934C05A6E1B2E0EAE2F5E080E0D8132B
:100C10008DC010924B0580914B05CC0FC82BC09313
:100C20004B0580914A05813009F084C010924A0535
:100C30000E94C5036B017C0180914B058093BB0032
:100C40008091720590917305A0917405B09175051E
:100C5000892B8A2B8B2BA1F00E94C5030091720572
:100C60001091730520917405309175056C197D09FB
:100C70008E099F09061717072807390708F442C08D
:100C80008091BC0083FDD8CF85EC8093BC000E948E
:100C9000C5036B017C0180917005823009F44CC062
:100CA00080914E058F3F09F469C080914E058032D6
:100CB00009F466C080914E05803309F463C084E076
:100CC00026C08091720590917305A0917405B09132
:100CD0007505892B8A2B8B2B09F483CF0E94C503C2
:100CE000009172051091730520917405309175057E
:100CF0006C197D098E099F09061717072807390700
:100D000008F06FCF809171050E946E0485E010920B
:100D100016051092150510921805DF91CF911F91BD
:100D20000F91FF90EF90DF90CF9008959D91919358
:100D30008F5F6DCF85EEA9CF80917205909173057D
:100D4000A0917405B0917505892B8A2B8B2B09F422
:100D5000A2CF0E94C50300917205109173052091E6
:100D60007405309175056C197D098E099F09061768
:100D700017072807390708F08ECFC4CF80E0C7CF08
:100D800082E0C5CF83E0C3CF90E080E00895EF928A
:100D9000FF920F931F93CF93DF93EC0180E0B0E0BD
:100DA000A0E0E881F981AE17BF07D8F4AE171F069F
:100DB000A8F4E82FF0E00A811B817F010E0D1F1DB2
:100DC000F80140830A811B810E0D1F1DF80161830C
:100DD0000A811B81F701E00FF11F228311968D5FBD
:100DE000E0CF81E0DF91CF911F910F91FF90EF90C5
:100DF00008958F929F92AF92BF92CF92DF92EF921F
:100E0000FF92CF93DF93E62F6A01FF24D7FCF09483
:100E1000EF2C832E942EA52EBB24A7FCBA94E111AF
:100E20000EC0482D6C2DDF91CF91FF90EF90DF9099
:100E3000CF90BF90AF909F908F900C94C706DC012D
:100E40006D917C911197E617170609F0D8F4E150DF
:100E5000E6171706B8F46E2F660FE60FF0E012964D
:100E60000D90BC91A02DAE0FBF1F8C92EC01AA81FA
:100E7000BB81AE0FBF1F1196CC926A817B81E60FBA
:100E8000F71F228380E0DF91CF91FF90EF90DF90FA
:100E9000CF90BF90AF909F908F90089508951F932B
:100EA000CF93DF93EC01142F89819A81288131E05F
:100EB000309318052093170510921605109215050A
:100EC000DC01ED91FC910190F081E02D0995898183
:100ED0009A81DC01ED91FC910190F081E02D612F70
:100EE000099589819A81DF91CF911F910C94DD053D
:100EF000DC01ED91FC910190F081E02D09940F93BC
:100F00001F93CF93DF93EC018A0189819A81288115
:100F100031E03093180520931705109216051092B2
:100F2000150524E0629FB00111246A5F7F4FDC0148
:100F3000ED91FC910190F081E02D099570E060E069
:100F400089819A810E94780770E060E089819A81A6
:100F50000E947807B80189819A810E947807612FE1
:100F600070E089819A810E94780789819A81DF9156
:100F7000CF911F910F910C94DD05CF93C0E040E01D
:100F800050E16C2F80E197E00E947F07CF5FC03176
:100F9000B1F7CF910895CF93DF93EC0189819A81C6
:100FA000288131E03093180520931705109216051B
:100FB00010921505DC01ED91FC910190F081E02D7E
:100FC000099589819A810E94DD0561E088810E94EE
:100FD0008F04109222038093210389819A81DC017E
:100FE000ED91FC910284F385E02D0995DF91CF917D
:100FF00008958F929F92AF92BF92CF92DF92EF921D
:10100000FF921F93CF93DF93EC016A017B0120E0F5
:1010100030E040E85FE3CB01B6010E94A03087FDDD
:101020007EC020E030EC4AE555E4C701B6010E94DD
:10103000CD3318163CF4C12C30ECD32E3AE5E32E18
:1010400035E4F32E6B817C818D819E810E94A530D9
:101050004B015C0120E030E040E855E4C701B601F7
:101060000E9406319B01AC01C501B4010E94E63229
:1010700020E030E040E05FE30E94753220E030E0A5
:1010800040E85FE30E9474326B017C0120E030E0B5
:1010900040E450E40E94A03087FD48C020E030E0EA
:1010A0004FE753E4C701B6010E94CD33181634F45C
:1010B000C12CD12C9FE7E92E93E4F92E60E0CE01FC
:1010C0000E94CB07182F482F4F76406160E0CE0179
:1010D0000E944F07C701B6010E945F33462F6EEF93
:1010E000CE010E944F07412F60E0CE010E944F07C2
:1010F00065E070E080E090E00E94EA03412F406AE2
:1011000060E0CE01DF91CF911F91FF90EF90DF90D3
:10111000CF90BF90AF909F908F900C944F07C12CB1
:10112000D12C20E8E22E2FE3F22E8CCFC12CD12C33
:1011300080E4E82EFE2CC2CF4F925F926F927F9296
:101140008F929F92AF92BF92CF92DF92EF92FF92D7
:10115000CF93C0E06C01F12CE12CC701B6010E94D5
:10116000A5304B015C016EEF80E197E00E94CB0758
:10117000682F70E06F5F7F4F90E080E00E94A530A5
:1011800020E034E244E759E40E9406312B013C019F
:1011900060911307709114078091150790911607BD
:1011A0000E94A5309B01AC01C301B2010E94E6324E
:1011B0009B01AC01C501B4010E94E6320E945F337D
:1011C000AB016C2F80E197E00E947F07CF5FC031B9
:1011D00021F6CF91FF90EF90DF90CF90BF90AF902E
:1011E0009F908F907F906F905F904F900895FC013B
:1011F00001900020E9F73197AF01481B590BBC0162
:1012000086E795E00C94D2018BE891E00C94F70806
:10121000CF93DF930E94C402EC010E9404098C0F5B
:101220009D1FDF91CF910895CF93DF930E94BF025E
:10123000EC010E9404098C0F9D1FDF91CF9108954E
:10124000CF93DF93FC01448155816081718186E7F2
:1012500095E00E94D201EC010E9404098C0F9D1FB1
:10126000DF91CF9108958F929F92AF92BF920F938B
:101270001F93CF93DF93CDB7DEB7A1970FB6F89446
:10128000DEBF0FBECDBF19A2423008F44AE08E0186
:101290000F5D1F4F842E912CB12CA12CA501940120
:1012A0000E944332E62FB901CA01EA30F4F4E05D4E
:1012B000D801EE938D01232B242B252B79F790E079
:1012C00080E0109719F0CD010E94F708A1960FB6A3
:1012D000F894DEBF0FBECDBFDF91CF911F910F916C
:1012E000BF90AF909F908F900895E95CE1CFCF922F
:1012F000DF92EF92FF92C12CD12C76014AE0C70118
:10130000B6010E94330989E00E94BF028FEFC81A1C
:10131000D80AE80AF80A80E1C816D104E104F10409
:1013200069F7FF90EF90DF90CF900C9404094F92F3
:101330005F926F927F928F929F92AF92BF92CF9265
:10134000DF92EF92FF920F931F93CF936B017C017B
:10135000742EAC019B010E942A34882399F08EE8F8
:1013600091E0CF911F910F91FF90EF90DF90CF9080
:10137000BF90AF909F908F907F906F905F904F90B5
:101380000C94F70846015701E894B7F82FEF3FEFA8
:101390004FE75FE7C501B4010E942A3481110DC0F7
:1013A0002FEF3FEF4FE75FE7C501B4010E94A03088
:1013B00018161CF482E991E0D4CF2FEF3FEF4FE7EE
:1013C0005FE4C701B6010E94CD3318161CF486E90C
:1013D00091E0C7CF2FEF3FEF4FE75FECC701B601BA
:1013E0000E94A03087FDF3CF20E030E0A901C701C3
:1013F000B6010E94A03010E000E087FF08C08DE237
:101400000E94BF028C01F7FAF094F7F8F094C0E064
:1014100060E070E080E09FE37C1641F020E030E087
:1014200040E251E40E94E632CF5FF6CFA701960179
:101430000E9475322B013C010E945F334B015C011D
:101440004AE00E9433097C01E00EF11ECC23B1F189
:10145000C501B4010E94A5309B01AC01C301B201DA
:101460000E9474324B015C018EE20E94BF02E80EC2
:10147000F91EC15018F120E030E040E251E4C5010E
:10148000B4010E9406312B013C010E945F334B01E5
:10149000B12CA12C4AE0C501B4010E943309E80E29
:1014A000F91EC501B4010E94A5309B01AC01C30126
:1014B000B2010E9474324B015C01DBCFC701CF91B6
:1014C0001F910F91FF90EF90DF90CF90BF90AF9062
:1014D0009F908F907F906F905F904F900895AF9204
:1014E000BF92CF92DF92EF92FF920F931F93CF9311
:1014F000DF937C01C62F8A01590187E090E00E94AA
:10150000402E6C01DC01CC931696BC92AE921597DE
:10151000C154CA3128F5F801D0E0C0E0CE010196EF
:1015200021912E3731F0EC01833D9140B9F7C2EDA6
:10153000D1E0F601D483C383CE0101960E94402EF0
:10154000D60112969C938E931197F801DC01A801A5
:101550004C0F5D1FE417F50759F021912D93FACF39
:10156000E80109900020E9F72197C01BD10BE1CFDA
:101570002091FB0421542A3148F120E0C80FD91FE3
:10158000288386E090E00E94402EFC01D182C08238
:101590001382128215821482E701AC81BD811097FB
:1015A000B9F49B838A839D838C83E7018881998129
:1015B000019699838883DF91CF911F910F91FF90BE
:1015C000EF90DF90CF90BF90AF9008952EE7D6CFE9
:1015D000B583A48313969C938E931297D701159687
:1015E0009C938E931497E1CF4F925F926F927F926C
:1015F0008F929F92AF92BF92CF92DF92EF92FF9223
:10160000CF936B017C01CA01B9010E945F334B018A
:101610005C0120E030E0A901C701B6010E94A030C2
:10162000882309F49CC1A701960163E67CE987E859
:101630009FE30E94D23320E030ED42E854E40E9460
:1016400006310E945F336B0180913101853009F0D2
:1016500066C0ECE2F2E0C491C7FDD7C161E085E06D
:101660000E948203CC2319F0C23009F025C1F12C6D
:10167000E12C60E072E18AE790E0A70196010E9408
:10168000DA3129013A01DA01C9010197A109B10949
:101690008F3F9105A105B10509F00CF4F1C060E49C
:1016A00072E48FE090E0A70196010E94DA312150A8
:1016B000310941095109C23009F0A3C082E02F3F2E
:1016C00031054105510509F00CF490C160E970ED58
:1016D00083E090E0A70196010E94DA3121503109A0
:1016E0004109510983E02F3F31054105510509F0BA
:1016F0000CF47CC168E478EE81E090E0A7019601EB
:101700000E94DA3121503109410951092F3F310539
:101710004105510511F00CF092C084E067C18F3F84
:1017200009F073C185E080933101ECE2F2E0C491ED
:10173000CF3F09F46AC1C13021F150F0C23009F441
:101740003EC0C7FD62C161E085E00E9482038CCF8C
:1017500014BC15BC84B5826084BD85B5816085BD2F
:10176000ECE3F2E0E491F0E0EE0FFF1FE35DFD4FEC
:1017700085919491E0E5F2E0E491E0931D05C0E0ED
:101780006DCF10928000109281008091810088605E
:101790008093810080918100816080938100ECE3DF
:1017A000F2E0E491F0E0EE0FFF1FE35DFD4F859165
:1017B0009491E0E5F2E0E491E0931C054FCF1092A4
:1017C000B0001092B1008091B00082608093B000B0
:1017D0008091B10081608093B100ECE3F2E0E4918C
:1017E000F0E0EE0FFF1FE35DFD4F85919491909324
:1017F0001B0580931A05E0E5F2E0E491E0931905FA
:101800002DCF2F3F31054105510509F00CF452C091
:1018100068E478EE81E090E0A70196010E94DA3159
:101820002150310941095109CC2309F4B4C02F3F9B
:1018300031054105510511F00CF0B5C06ECF64E2E1
:1018400074EF80E090E0A70196010E94DA31215008
:1018500031094109510985E02F3F31054105510505
:1018600009F008F4C3C062E17AE780E090E0A701E4
:1018700096010E94DA312150310941095109A1C074
:101880009C0181E0C111B2C095B5987F892B85BDBF
:1018900027BD8FEF9FEFDC018093260590932705EE
:1018A000A0932805B093290580916E0082608093F3
:1018B0006E00ABC082E0E6CFF12CE12C60E072E17B
:1018C0008AE790E0A70196010E94DA3121503109A0
:1018D0004109510991E02115310581E04807510581
:1018E0006CF068E478EE81E090E0A70196010E9438
:1018F000DA31215031094109510993E0C13009F031
:101900007BC080918100887F892B809381003093F8
:101910008900209388008FEF9FEFDC0180932205E0
:1019200090932305A0932405B093250580916F0023
:10193000826080936F0069C02093B3008FEF9FEFA8
:10194000DC0180931E0590931F05A0932005B093A2
:1019500021058091700082608093700056C0C5019F
:10196000B4010E94EA0351C084E02F3F31054105D4
:10197000510509F008F488CF8AE07594679457946C
:1019800047948A95D1F7A301920121503109410969
:10199000510985E079CF83E02F3F3105410551059D
:1019A00009F00CF471CF62E17AE780E090E0A701E2
:1019B00096010E94DA312150310941095109CC23A5
:1019C00099F286E02F3F31054105510579F070F01D
:1019D0009AE075946794579447949A95D1F7A30128
:1019E0009201215031094109510987E09091B100DC
:1019F000987F892B8093B100C13009F488CFC23021
:101A000009F49ACFCC2309F443CFC501B4010E9455
:101A1000EA0385E00E94560360E070E0CB01CF91BD
:101A2000FF90EF90DF90CF90BF90AF909F908F90FE
:101A30007F906F905F904F900C94EA03FC0124819B
:101A40003581232B39F421E0FB018081882349F083
:101A500020E007C0808191810E94813621E0892B9E
:101A6000B9F7822F08950C94DC2ECF93DF93EC010D
:101A700088819981009711F00E94DC2E19821882CA
:101A80001D821C821B821A82DF91CF910895FC0176
:101A900080819181009711F00C94DC2E0895FF92C3
:101AA0000F931F93CF93DF93EC01F62E08811981DA
:101AB000C8010E94C431F81621F06F2DC8010E94A0
:101AC000CC31CE01DF91CF911F910F91FF900895FE
:101AD000FF920F931F93CF93DF9300D0CDB7DEB764
:101AE0008C01F72E9A838983CE0101960E944F0DB7
:101AF0000F5F1F4F1A8309836F2DCE0101960E943D
:101B00004F0D66E070E080E090E00E94EA030F90E5
:101B10000F90DF91CF911F910F91FF9008950C943A
:101B2000C4312F923F924F925F926F927F928F9229
:101B30009F92AF92BF92CF92DF92EF92FF920F935C
:101B40001F93CF93DF93CDB7DEB72E970FB6F894E0
:101B5000DEBF0FBECDBF5C0185E191E00E948F0D1D
:101B6000682E6AE971E0C5010E948136762C892BC6
:101B700089F4C62CD12CF12CE12CC114D104E10440
:101B8000F10439F00E94B12FA70196010E94DA31C9
:101B90006B017C2CF50101900020E9F73197EA19DF
:101BA000FB092E2F2150330B6901F501E20FF31FC2
:101BB00030813C87512C10E000E0CE0101967C0181
:101BC00081E491E0FC01EE19FF09FE87ED876514C1
:101BD00009F49AC01801FFEF2F1A3F0AC801805C70
:101BE0009E4F0E948F0D482E47012D853E85020F86
:101BF000131F882D8E19841548F4C801880D991D6E
:101C00000E948F0DF40181934F01F3CF842C912C0E
:101C10008101080D191DF701E80DF91D10825710FB
:101C20004CC06CE971E0C7010E948136892B09F430
:101C300041C06FE971E0C7010E948136892BD1F163
:101C400062EA71E0C7010E948136892B99F165EA49
:101C500071E0C7010E948136892B61F168EA71E069
:101C6000C7010E948136892B29F1C8018F5B9E4FE5
:101C70000E948F0D809303050E945C01C801805C67
:101C80009E4F2E960FB6F894DEBF0FBECDBFDF91EC
:101C9000CF911F910F91FF90EF90DF90CF90BF9069
:101CA000AF909F908F907F906F905F904F903F90FC
:101CB0002F900895739453948ACFB501C7010E9461
:101CC0008136892B91F2FE01E80DF91D8081863461
:101CD000C1F06CEA71E0C7010E948136892B89F05E
:101CE000A601B501C7010E949136892B51F4FC85EC
:101CF000FC3409F4BACFF23509F4B7CFF83509F45A
:101D0000B4CF0C5F1F4FD7CF8FE30E94BF02C50136
:101D10000E94F7080E9404098FEF9FEFB2CF7F92D5
:101D20008F929F92AF92BF92CF92DF92EF92FF92EB
:101D30000F931F93CF93DF93F82E192F0E948F0DCF
:101D40008695CF2DD12FF12CE12C082F10E088EEB5
:101D5000C82E83E0D82E2197E016F1062CF5CE018F
:101D6000801B910B0E948F0DB82ECE010E948F0D0B
:101D7000782E6B2D70E0C6010E948C35072E000C6A
:101D8000880B990B0E94A7304B015C01672D70E016
:101D900090E080E00E94A530A50194010E94F40A21
:101DA0008FEFE81AF80AD7CFDF91CF911F910F91EB
:101DB000FF90EF90DF90CF90BF90AF909F908F906B
:101DC0007F9008951F93CF93DF93EC010E948F0DB6
:101DD000182FCE0101960E948F0D90E0982F882732
:101DE000810F911DDF91CF911F910895CF92DF92C6
:101DF000EF92FF920F931F93CF93DF936A017B01C2
:101E0000082F10E0C801805B9F4F880F991F0E9428
:101E1000E20EBC01990F880B990B0E94A73020E0BD
:101E200030E04AE754E40E94E632A70196010E949E
:101E300006316B017C0182E191E00E948F0D9AE0F6
:101E4000899FB0011124072E000C880B990B0E946A
:101E5000A730A70196010E9475326B017C0120E03A
:101E600030E04AEF53E40E94CD33C4EFD1E01816BE
:101E70008CF420E030E44CE155E4C701B6010E9447
:101E8000A030C4ECD9E087FF05C0C701B6010E94AD
:101E90005833EB01C8010E948F0DAE01682F80E11D
:101EA00097E0DF91CF911F910F91FF90EF90DF901E
:101EB000CF900C947F0790E0C096880F991F860FF3
:101EC000911D880F991F0C94E20E7F928F929F9222
:101ED000AF92BF92CF92DF92EF92FF920F931F9338
:101EE000CF93DF93B82E6A01D62FC72F60E00E94F0
:101EF0005B0FBC01990F880B990B0E94A7307B01E7
:101F00008C0161E08B2D0E945B0FBC01990F880B47
:101F1000990B0E94A730762E872E982EA92E960117
:101F20004D2F5C2F0E94A03087FF71C0772D682D48
:101F3000992D8A2D272F362F492F582FB701C801E9
:101F40000E94CD33181694F096014D2F5C2F672D0B
:101F5000782D892D9A2D0E94A03076010D2F1C2FEF
:101F600087FF04C0E72CF82C092D1A2DCB2DD0E0CB
:101F70006E0180E3C80ED11CCC0FDD1FCF5EDE4F9B
:101F8000B701C8010E94583379836883C601880F5E
:101F9000991F0E94E20EEC01C6010E948F0D682F6E
:101FA000880F770B880B990B0E94A7309701A80127
:101FB0000E9406316B017C01BE01DD0F880B990B7D
:101FC0000E94A7309B01AC01C701B6010E94753287
:101FD0000E945833072E000C880B990B0E94A730E3
:101FE00020E030E0A9010E947532AB01BC018B2DCD
:101FF000DF91CF911F910F91FF90EF90DF90CF90E5
:10200000BF90AF909F908F907F900C94F60E7C2D98
:102010006D2DCE018FCF0F931F93CF938C01005E58
:102020001F4FCFE0F801729162918F01072E000CD3
:10203000880B990B0E94A730AB01BC018C2F0E942A
:10204000650FC15078F7CF911F910F9108952F928E
:102050003F924F925F926F927F928F929F92AF9238
:10206000BF92CF92DF92EF92FF920F931F93CF9385
:10207000DF93CDB7DEB72E970FB6F894DEBF0FBE55
:10208000CDBF182F092F6A017B0120E030E0A901A4
:10209000CB01B6010E94A0301816E4F0812F902FDA
:1020A0002E960FB6F894DEBF0FBECDBFDF91CF9155
:1020B0001F910F91FF90EF90DF90CF90BF90AF9066
:1020C0009F908F907F906F905F904F903F902F9058
:1020D0000C940B1080E290E00E94402E5C01709105
:1020E000FC049090FB0421E131E0DC01612E702EB4
:1020F000512C412C60E0772329F0643018F44BE632
:102100009416A1F0F90180819181F3014081518100
:10211000841B950B11969C938E9397FF03C091950A
:1021200081959109481659060CF42C016F5F2E5FBA
:102130003F4FF2E06F0E711C12966031E1F620E025
:1021400030E0A901C701B6010E94CD3318160CF08A
:10215000BCC0B201550C880B990B0E94A730A70197
:1021600096010E94E6326B017C0120E030E0A9017B
:102170000E94CD3320E030E040E05FE387FDA0C067
:10218000C701B6010E9475320E9458337E876D8761
:10219000D12CC12C2D853E85032E000C440B550BF4
:1021A00029873A874B875C874D855E854C155D0591
:1021B0000CF48EC01501812E902EF12CC6010D2C31
:1021C000000CAA0BBB0B8D839E83AF83B8878091D5
:1021D000FC04882341F093E09F1528F08091FB04D4
:1021E0008B3609F45FC0D4016D917C91072E000CF1
:1021F000880B990B0E94A7302B013C01ED85FE85D1
:1022000020E030E0A901EF2B09F443C06D817E810D
:102210008F8198850E94A7302BED3FE049E450E480
:102220000E94063169837A838B839C8369857A85D2
:102230008B859C850E94A7309B01AC0169817A81C6
:102240008B819C810E94E6320E94E13220E030E0E6
:1022500040E85FE30E94753220E030E040E05FE359
:102260000E94063169837A838B839C83D1016D91AF
:102270007C91072E000C880B990B0E94A7309B01C4
:10228000AC0169817A818B819C810E9406319B011E
:10229000AC01C301B2010E947532AB01BC018F2DAC
:1022A0000E94650FF394B2E08B0E911CE2E02E0EBB
:1022B000311CF0E1FF128BCF2FEFC21AD20A74CF7C
:1022C000C701B6010E9474325FCF1E861D8660CFA3
:1022D000A114B104D9F0C5012E960FB6F894DEBF53
:1022E0000FBECDBFDF91CF911F910F91FF90EF9067
:1022F000DF90CF90BF90AF909F908F907F906F9026
:102300005F904F903F902F900C94DC2E2E960FB63E
:10231000F894DEBF0FBECDBFDF91CF911F910F911B
:10232000FF90EF90DF90CF90BF90AF909F908F90F5
:102330007F906F905F904F903F902F9008952F92D5
:102340003F924F925F926F927F928F929F92AF9245
:10235000BF92CF92DF92EF92FF920F931F93CF9392
:10236000DF93CDB7DEB72F970FB6F894DEBF0FBE61
:10237000CDBF4C016D8369017A01202F30E03A8393
:10238000298320E030E0A901C701B6010E94A030F6
:102390001816ECF01FE0812F012E000C990B6981BB
:1023A0007A81861797070CF453C1880D991DDC01BB
:1023B0006C91062E000C770B880B990B0E94A730AE
:1023C000AB01BC01812F0E94650F1150E4CF80E169
:1023D00090E0E981FA818E1B9F0B8115F0E49F0745
:1023E00008F047C0880F991F009709F445C00E9464
:1023F000402E3C01B090FC04A090FB0429813A815E
:10240000220F331F1301D401102F50E040E0512C54
:10241000412C1031A0F5BB2029F0143018F46BE6E4
:10242000A616F9F0CA01820F931F8F5E9E4F7C9112
:102430006D817603F0011124FC83EB83FC01808124
:1024400091816B817C81861B970BF1019183808345
:1024500097FF03C0919581959109481659060CF490
:102460002C011F5F1196F2E02F0E311C4E5F5F4F63
:10247000D0CF8FEF9FEFBBCF81E090E0B8CF20E0CF
:1024800030E0A901C701B6010E94CD3318160CF047
:10249000BAC0B201550C880B990B0E94A730A70156
:1024A00096010E94E6326B017C0120E030E0A90138
:1024B0000E94CD3320E030E040E05FE387FD9EC026
:1024C000C701B6010E9475320E9458337F876E871C
:1024D000B12CA12C6E857F85072E000C880B990BE3
:1024E0006A877B878C879D878E859F858A159B054C
:1024F0000CF490C07C826B829A828982102FB50185
:102500000B2C000C880B990B6E837F83888799872F
:10251000103108F07BC08091FC04882339F014301E
:1025200028F48091FB048B3609F45BC0A981BA8141
:102530006C912D816203B0011124072E000C880BD1
:10254000990B0E94A7306B017C016E857F8520E08E
:1025500030E0A901672BE1F16E817F818885998543
:102560000E94A7302BED3FE049E450E40E94063181
:102570001B012C016A857B858C859D850E94A73077
:102580009B01AC01C201B1010E94E6320E94E1321E
:1025900020E030E040E85FE30E94753220E030E068
:1025A00040E05FE30E9406311B012C01AB81BC813E
:1025B0006D917C91072E000C880B990B0E94A7301F
:1025C0009B01AC01C201B1010E9406319B01AC012B
:1025D000C701B6010E947532AB01BC01812F0E9478
:1025E000650F1F5FE981FA813196FA83E9832B81B8
:1025F0003C812E5F3F4F3C832B838ACFC701B601BE
:102600000E94743261CF1F861E8662CF3FEFA31AED
:10261000B30A6ACF61147104D9F0C3012F960FB6C3
:10262000F894DEBF0FBECDBFDF91CF911F910F9108
:10263000FF90EF90DF90CF90BF90AF909F908F90E2
:102640007F906F905F904F903F902F900C94DC2E76
:102650002F960FB6F894DEBF0FBECDBFDF91CF919E
:102660001F910F91FF90EF90DF90CF90BF90AF90B0
:102670009F908F907F906F905F904F903F902F90A2
:1026800008958F929F92AF92BF92CF92DF92EF9276
:10269000FF920F931F93CF93DF93CDB7DEB72B97A6
:1026A0000FB6F894DEBF0FBECDBF6C01FC010190E8
:1026B0000020E9F73297F0808CE4F81631F092E5CB
:1026C00087EEF91619F080E001C089E180930205D8
:1026D000C6010E94910D8C018F3F980709F4FBC140
:1026E0000E948F0DA82EC80102960E94E20EE82ECD
:1026F000B92E082F192FB601CE0101960E948A36F5
:10270000F9E4AF125BC081E08093180584E5809303
:10271000170510921605109215056B2D89E296E0AB
:102720000E94AE056E2D89E296E00E94AE0589E218
:1027300096E00E94DD0561E084E50E948F0410921E
:1027400022038093210389E296E00E946E05809324
:102750002703809303050E945C018C01B12CA12CFE
:10276000101611060CF03EC0602F0F3111050CF051
:102770006EE184E50E948F04E82E1092220380937C
:10278000210348018EE1881A910868018091220393
:10279000E81659F089E296E00E946E059FEFA91AAB
:1027A000B90AF501E95DFC4F8083E1E0CE1AD1085A
:1027B000C9F08401C814D90449F7D2CF8091030528
:1027C0000E945C01A7E2B3E007521340F801EA0F50
:1027D000FB1F9D0127523340281739071CF4E49151
:1027E000ED93F4CF80912803082E000C990B909361
:1027F0000B0580930A0580912903082E000C990B84
:1028000090930D0580930C0580912A0380930E050B
:102810001091030517FF0EC080912B0380930F05C5
:1028200080912C038093100580912D0380931105D6
:1028300080E005C01130E1F388E01230CCF38093E2
:102840001205212F012E000C330B37FF03C03195E9
:102850002195310940910905429FC001439F900D88
:10286000112422ED31E0281B390B30931001209305
:102870000F0160910805680F792F711D27E233E081
:1028800050E040E0F901E60FF71FA081F901ED5299
:10289000FE4FA0834F5F5F4F21503109841795078A
:1028A0008CF72EE72093FA042AEF34E0281B390B2B
:1028B0003093140520931305BE016F5F7F4F87E2AD
:1028C00093E00E948A366FEA71E087E293E00E940B
:1028D0008136892B09F4D4C080E090E0A0E0B0E418
:1028E0008093040590930505A0930605B093070512
:1028F00063EB71E087E293E00E948136892B09F453
:10290000C3C0113009F0C0C00E94B12F24E630E0EE
:1029100040E050E00E94DA310E94A73020E030E031
:1029200040E251E40E94E63220E030E040EA50E428
:102930000E9474324B015C01809223039092240325
:10294000A0922503B092260310E000E0C09013058A
:10295000D0901405C00ED11EF6016081062E000C29
:10296000770B880B990B0E94A730A50194010E9458
:1029700075320E945833F60160830F5F1F4F00319C
:10298000110521F7F2E5FF1283C080910A059091AD
:102990000B0591958195910990930B0580930A05FC
:1029A00090E080E040910305242F042E000C330BAF
:1029B00037FF03C0319521953109821793070CF039
:1029C00074C042301CF540910905489F9001499F11
:1029D000300D1124E0911305F0911405E20FF31F5F
:1029E00020812195208320910905289FF001299FAE
:1029F000F00D11249F012E5F3F4FE0911305F091E0
:102A00001405E20FF31F20812195208320910305F7
:102A100060E022300CF462E0E62FF0E02091030544
:102A200022300CF46BC024E030E04091130550914B
:102A30001405E217F3070CF064C09F01220F331F47
:102A400070910905789FF001799FF00D1124E20F34
:102A5000F31FE40FF51F4081518150835091090508
:102A6000589FD001599FB00D1124E0911305F091AA
:102A70001405E20FF31FEA0FFB1F41836F5FCCCFFA
:102A800080E090E0DC012CCF812C912C540154CFBC
:102A90008CE4F81651F00E94B12F24E630E040E0BB
:102AA00050E00E94DA3160FD70CF1092FE04109267
:102AB000FD042091040530910505409106055091D3
:102AC00007050091120560910E0580911305909104
:102AD00014050E949F112B960FB6F894DEBF0FBE0F
:102AE000CDBFDF91CF911F910F91FF90EF90DF90BD
:102AF000CF90BF90AF909F908F90089528E030E0E6
:102B000094CF01964FCF0F931F93CF93DF93EC0198
:102B100088819981009759F02A813B8126173707D0
:102B200030F081E0DF91CF911F910F9108958B01DB
:102B30006F5F7F4F0E94A635009759F09983888375
:102B40001B830A832C813D81232B59F7FC011082C2
:102B5000E8CF80E0E7CFEF92FF920F931F93CF93E0
:102B6000DF936115710541F480E0DF91CF911F91F2
:102B70000F91FF90EF90089541155105B1F07B0141
:102B8000EC010C811D81040F151FB8010E948315F3
:102B9000882351F3288139818C819D81B701820F6F
:102BA000931F0E948A361D830C8381E0DECFEF9253
:102BB000FF920F931F93CF93DF93EC017B018A0168
:102BC000BA010E94831581110BC0CE010E94350D00
:102BD000CE01DF91CF911F910F91FF90EF9008955B
:102BE0001D830C83B701888199810E948A36F0CFBA
:102BF000FB01DC0111961C921E9213961C921E92F0
:102C0000129715961C921E9214978617970759F0E3
:102C1000608171816115710521F0448155810C94A9
:102C2000D7150C94350D0895FB0101900020E9F7AC
:102C30003197AF01461B570B0C94D7150F931F9379
:102C4000CF93DF93CDB7DEB762970FB6F894DEBFB0
:102C50000FBECDBF8C01CB01F8011182108213820F
:102C60001282158214824AE0BE016F5F7F4F0E947C
:102C70006330BE016F5F7F4FC8010E9414166296D9
:102C80000FB6F894DEBF0FBECDBFDF91CF911F917D
:102C90000F910895FC011182108213821282158215
:102CA0001482FB0101900020E9F73197AF01461B28
:102CB000570B0C94D715EF92FF920F931F93CF935E
:102CC000DF93EC018B01198218821B821A821D820C
:102CD0001C82CB010E942E307C01BC01CE010E94DF
:102CE0008315811109C0CE01DF91CF911F910F9102
:102CF000FF90EF900C94350DFD82EC82B801888135
:102D00009981DF91CF911F910F91FF90EF900C94DB
:102D1000273085ED8093BC008091720590917305FA
:102D2000A0917405B09175050796A11DB11D23E012
:102D3000B695A795979587952A95D1F72091BC00D0
:102D400024FD03C0109270050895409172055091C2
:102D500073056091740570917505452B462B472BC3
:102D600069F30097A105B10541F02AE22A95F1F730
:102D700000C00197A109B109E1CF809171050C94C0
:102D80006E04EF92FF920F931F93CF93DF93EC01AA
:102D9000888199818C01000F111F080F191FEA808B
:102DA000FB80A801B7018C819D810E946B36892B25
:102DB00009F432C0AE81BF818A853FB7F8942C9167
:102DC000982F90959223822BF7010E0F1F1FE0176B
:102DD000F10781F0219148E08C9300C027FF9C937C
:102DE000220F00C000C000C008F49C9300C04A95A8
:102DF00099F7EDCF3FBF88819981AC01440F551FF2
:102E0000480F591F6A817B818C819D810E94783691
:102E10008BEC97E00197F1F7DF91CF911F910F9124
:102E2000FF90EF900895CF92DF92EF92FF92CF93B1
:102E30006A017B010097A1F4AB01960160E08091EB
:102E40000A0790910B070E94F90680910A0790915A
:102E50000B07CF91FF90EF90DF90CF900C94C116AD
:102E600081309105F1F4C0E0CF5F20E030E0A901AE
:102E70006C2F80910A0790910B070E94F9068091B0
:102E80000A0790910B070E94C116A70196016C2FAB
:102E900080910A0790910B070E94F906C33021F731
:102EA000D4CF029791F6C3E0CF5F20E030E0A901D4
:102EB0006C2F80910A0790910B070E94F906809170
:102EC0000A0790910B070E94C116A70196016C2F6B
:102ED00080910A0790910B070E94F906C63021F7EE
:102EE000B4CF2F923F924F925F926F927F928F92C8
:102EF0009F92AF92BF92CF92DF92EF92FF920F9389
:102F00001F93CF93DF9300D000D000D0CDB7DEB7B2
:102F10009E838D836A017B01213009F421C1F8F081
:102F2000223009F4EAC18D819E8126960FB6F8946D
:102F3000DEBF0FBECDBFDF91CF911F910F91FF90EC
:102F4000EF90DF90CF90BF90AF909F908F907F9049
:102F50006F905F904F903F902F900C941317470104
:102F6000BB2497FCB094AB2C8D2D90E0B0E0A0E09A
:102F7000DD24EE24FF242401350125E0421A510806
:102F80006108710805E010E09C01AD0128193909BC
:102F90004A095B0929833A834B835C83C818D908A3
:102FA000EA08FB08212C3324339489819A81AB8170
:102FB000BC81840D951DA61DB71D85309105A10509
:102FC000B10524F485E090E0A0E0B0E0BA2FA92F8D
:102FD000982F8827B301A20135E0431651046104FC
:102FE000710424F445E050E060E070E0BA01552738
:102FF0004427480F591F6A1F7B1FD301C2018C0D44
:103000009D1DAE1DBF1D85309105A105B10524F4A0
:1030100085E090E0A0E0B0E0480F591F6A1F7B1FD9
:103020008D819E810E9413176AE070E080E090E03D
:10303000043140F0C101B8010E948C35072E000C0C
:10304000880B990B0E94EA0345E0441A5108610875
:1030500071080B5F1F4F0F3F110509F0A6CF5FEFFF
:10306000851A9108A108B10877247A9424018FEF7A
:10307000480E511C00E011E049815A816B817C812E
:10308000480D591D6A1D7B1D4530510561057105AF
:1030900024F445E050E060E070E0762F652F542F77
:1030A0004427D501C40125E082169104A104B1048E
:1030B00024F485E090E0A0E0B0E0DC0199278827C7
:1030C000840F951FA61FB71FB501A4014C0D5D1DF0
:1030D0006E1D7F1D453051056105710524F445E0E5
:1030E00050E060E070E0480F591F6A1F7B1F8D8120
:1030F0009E810E94131733E16AE070E080E090E067
:10310000371550F4C801B201681979090E948C354D
:10311000072E000C880B990B0E94EA034BEF740EEC
:1031200055E0850E911CA11CB11C7110A5CF2696EF
:103130000FB6F894DEBF0FBECDBFDF91CF911F91C8
:103140000F91FF90EF90DF90CF90BF90AF909F9046
:103150008F907F906F905F904F903F902F90089549
:1031600040E050E0BA0190E080E00E941317A70110
:10317000960161E080910A0790910B070E94F90681
:10318000A701960164E080910A0790910B070E94C5
:10319000F90680910A0790910B070E94C11664E618
:1031A00070E080E090E00E94EA0320E030E0A901B6
:1031B00061E080910A0790910B070E94F90620E0D8
:1031C00030E0A90164E080910A0790910B070E940A
:1031D000F906A701960162E080910A0790910B071A
:1031E0000E94F906A701960165E080910A07909177
:1031F0000B070E94F90680910A0790910B070E9425
:10320000C11664E670E080E090E00E94EA0320E0EE
:1032100030E0A90162E080910A0790910B070E94BB
:10322000F90620E030E0A90165E080910A0790915D
:103230000B070E94F906A701960163E080910A0737
:1032400090910B070E94F906A701960166E0809114
:103250000A0790910B070E94F90680910A07909146
:103260000B070E94C11664E670E080E090E00E94C7
:10327000EA0320E030E0A90163E080910A07909121
:103280000B070E94F90620E030E0A90166E080917A
:103290000A0790910B070E94F90680910A07909106
:1032A0000B070E94C11664E670E080E090E00E9487
:1032B000EA03B701A60190E080E00E941317809115
:1032C0000A0790910B0726960FB6F894DEBF0FBE43
:1032D000CDBFDF91CF911F910F91FF90EF90DF90C5
:1032E000CF90BF90AF909F908F907F906F905F90A6
:1032F0004F903F902F900C94C11613E040E050E0A7
:10330000BA018D819E810E94131764E170E080E014
:1033100090E00E94EA03B701A6018D819E810E9480
:10332000131764E170E080E090E00E94EA0311501E
:1033300029F7FDCE1F920F920FB60F9211242F93F3
:103340003F934F935F936F937F938F939F93AF932D
:10335000BF93EF93FF9380911E0590911F05A0915D
:103360002005B0912105892B8A2B8B2BD1F19091CF
:103370001905E0911A05F0911B058081892780834A
:1033800080911E0590911F05A0912005B091210507
:10339000181619061A061B069CF480911E059091BA
:1033A0001F05A0912005B09121050197A109B10940
:1033B00080931E0590931F05A0932005B0932105CF
:1033C000FF91EF91BF91AF919F918F917F916F91FD
:1033D0005F914F913F912F910F900FBE0F901F90D3
:1033E0001895809131010E945603EACF1F920F92E7
:1033F0000FB60F9211242F933F934F935F936F93C8
:103400007F938F939F93AF93BF93EF93FF9386E741
:1034100095E00E945002FF91EF91BF91AF919F9173
:103420008F917F916F915F914F913F912F910F906D
:103430000FBE0F901F9018951F920F920FB60F920C
:1034400011242F938F939F93EF93FF93E091860521
:10345000F09187058081E0918C05F0918D0582FDCA
:103460001BC0908180918F058F5F8F732091900595
:10347000821741F0E0918F05F0E0EA58FA4F958FFE
:1034800080938F05FF91EF919F918F912F910F90D6
:103490000FBE0F901F9018958081F4CF1F920F924E
:1034A0000FB60F9211242F933F938F939F93AF9357
:1034B000BF9380917B0290917C02A0917D02B0919C
:1034C0007E0230917A0223E0230F2D3758F50196C2
:1034D000A11DB11D20937A0280937B0290937C0200
:1034E000A0937D02B0937E0280917F029091800232
:1034F000A0918102B09182020196A11DB11D80931D
:103500007F0290938002A0938102B0938202BF91C8
:10351000AF919F918F913F912F910F900FBE0F9080
:103520001F90189526E8230F0296A11DB11DD2CF3A
:103530001F920F920FB60F9211242F933F934F9328
:103540005F936F937F938F939F93AF93BF93EF930B
:10355000FF938091B900887F803609F44AC0F0F566
:10356000883209F4A7C018F5803109F49BC0B8F47B
:10357000882309F4F9C0883009F494C0FF91EF91D1
:10358000BF91AF919F918F917F916F915F914F917B
:103590003F912F910F900FBE0F901F90189588317B
:1035A00009F488C0803251F780934E0514C08034EE
:1035B00009F49DC040F48033B9F38833F9F6809361
:1035C0004E0585ECB0C0803509F485C0883509F416
:1035D00096C0883499F60E948916D0CF883909F4AC
:1035E0008CC038F5883729F050F4883611F08037D0
:1035F00029F683E0809370051092790257C08838CD
:1036000009F47BC0803919F0803809F0B7CF809178
:103610007902803208F071C0E091790281E08E0F6A
:10362000809379028091BB00F0E0E75AFD4F8083E0
:103630003DC0803B39F0E0F4803A09F479C0883A23
:1036400009F09CCF84E0809370051092580210928C
:103650005702E0918502F091860209958091570208
:1036600081110FC081E0809357021092370209C088
:10367000803C09F4A6CF883C09F4A3CF883B09F02D
:103680007DCFE091580281E08E0F80935802F0E0E8
:10369000E95CFD4F80818093BB009091580280913E
:1036A000570229C080914B058093BB0085EC809325
:1036B000BC0064CF90914D0580914C05981758F54A
:1036C000E0914D0581E08E0F80934D05F0E0E65DC1
:1036D000FA4F8081E9CFE0914D0581E08E0F809314
:1036E0004D058091BB00F0E0E65DFA4F808390913C
:1036F0004D0580914C059817C8F285E8D8CFE09128
:103700004D0581E08E0F80934D058091BB00F0E068
:10371000E65DFA4F808380914F0581115CCF81E097
:1037200080934A0584EA8093BC001092700526CFEE
:1037300085EC8093BC0010927005809179028032F4
:1037400030F4E0917902F0E0E75AFD4F1082609189
:10375000790270E0E0918302F091840289E592E0C1
:103760000995109279020ACF10924E0534CF1F921C
:103770000F920FB60F9211242F933F934F935F93A5
:103780006F937F938F939F93AF93BF93CF93DF9369
:10379000EF93FF932091360630E0F901E55AFE4F92
:1037A0008491F901E55BFD4FD491F901E95CFD4F8E
:1037B000C491CC2379F081110E94FF02EC2FF0E03C
:1037C000EE0FFF1FED51FE4FA591B491EC91ED234B
:1037D00081E009F480E020913B0630913C062F5FA8
:1037E0003F4F30933C0620933B06209139063091A1
:1037F0003A062536310518F094E0909335069091FD
:103800003506911130C0811169C020913B0630917D
:103810003C062436310528F410923C0610923B06F3
:103820005DC01092070710923A0610923906209157
:10383000390630913A06A9014F5F5F4F50933A061F
:103840004093390640913B0650913C06220F331FAE
:10385000F901E35CF94F5183408310923C061092CA
:103860003B0691E021C090913506913001F5813001
:10387000A9F52091390630913A06A9014F5F5F4FB3
:1038800050933A064093390640913B0650913C06CE
:10389000220F331FF901E35CF94F518340831092EB
:1038A0003C0610923B0692E09093350617C090912B
:1038B0003506923061F4882309F4B9CF20913B0694
:1038C00030913C062536310548F093E0EDCF9091DC
:1038D0003506933099F4882309F49ECF90913806E9
:1038E0009923A9F0811126C080913706882371F0B1
:1038F0008091370661E00E94280309C09091350647
:10390000943061F791E090930707DFCF2D9AFF91F4
:10391000EF91DF91CF91BF91AF919F918F917F9167
:103920006F915F914F913F912F910F900FBE0F902C
:103930001F90189580913706882321F080913706D3
:1039400060E0D9CF2D98E3CFCF92DF92EF92FF9234
:103950000F931F93E82FF92F05C00150110921097A
:10396000310961F1908196239417B9F305C0015094
:1039700011092109310911F1908196239413F7CF90
:10398000C12CD12CE12CF12C0AC08FEFC81AD80A17
:10399000E80AF80A0C151D052E053F0579F080810F
:1039A0008623841791F36C2D7D2D8E2D9F2D1F91D5
:1039B0000F91FF90EF90DF90CF90089560E070E05E
:1039C00080E090E01F910F91FF90EF90DF90CF90FB
:1039D0000895CF93DF93109279051092780588EEC1
:1039E00093E0A0E0B0E080937A0590937B05A093EC
:1039F0007C05B0937D0523E631E030937705209375
:103A0000760525EC30E0309383052093820524EC85
:103A100030E0309385052093840520EC30E030932E
:103A200087052093860521EC30E0309389052093AB
:103A3000880522EC30E030938B0520938A0526EC34
:103A400030E030938D0520938C0510928F051092F5
:103A500090051092910510929205C9E2D6E010925D
:103A60002C0610922B0680932D0690932E06A09381
:103A70002F06B093300685E791E090932A06809355
:103A8000290687E891E09093140680931306D0935B
:103A90001606C09315068FEF9FEF9093180680933C
:103AA00017061092190610921A0610921B06109211
:103AB0001C0610921E0610921D06109220061092EF
:103AC0001F061092220610922106109224061092D0
:103AD000230624E130E030932606209325069093B8
:103AE00028068093270684E08093360610923806D5
:103AF00063E072E087E297E00E944A16E6E1F7E0B1
:103B000081E1DF011D928A95E9F780E48093100737
:103B1000D0931207C093110786E08093080787E0CF
:103B2000809309078BE090E00E94402EEC01E2E5D3
:103B3000F2E0E491EA87EEE3F2E0E491F0E0EE0FE8
:103B4000FF1FE35DFD4F859194919F838E8361E01C
:103B500087E00E94820386E090E09983888382E177
:103B600090E00E94402E9B838A83892B21F489EB6D
:103B700091E00E949F3630E020E048815981CA01DF
:103B8000880F991F840F951F2817390740F4EA8181
:103B9000FB81E20FF31F10822F5F3F4FEECF0E9499
:103BA000402E9D838C83892B21F489EB91E00E9428
:103BB0009F3690E080E0488159819A01220F331F9F
:103BC000240F351F8217930738F4EC81FD81E80F2D
:103BD000F91F10820196EFCFD0930B07C0930A070D
:103BE000DF91CF910895CF93DF93CDB7DEB7E597FF
:103BF0000FB6F894DEBF0FBECDBF789484B5826057
:103C000084BD84B5816084BD85B5826085BD85B580
:103C1000816085BD80916E00816080936E001092FE
:103C20008100809181008260809381008091810079
:103C3000816080938100809180008160809380000A
:103C40008091B10084608093B1008091B000816068
:103C50008093B00080917A00846080937A00809194
:103C60007A00826080937A0080917A0081608093EC
:103C70007A0080917A00806880937A001092C10067
:103C8000E0918605F091870582E08083E0918205CE
:103C9000F09183051082E0918405F091850580E123
:103CA000808310928E05E0918A05F0918B0586E065
:103CB0008083E0918805F09189058081806180830F
:103CC000E0918805F0918905808188608083E0918A
:103CD0008805F0918905808180688083E09188055E
:103CE000F091890580818F7D808385E090E0A0E060
:103CF000B0E080937A0590937B05A0937C05B09308
:103D00007D05109222031092210310921605109245
:103D100015050E94500480ED91E0909386028093F7
:103D2000850281ED91E0909384028093830288E084
:103D30008093B80020E030E048E452E460E070E0B6
:103D400080EA91E40E94F40A8BE60E94140989E952
:103D500091E00E94080982E991E00E94080989E83F
:103D600091E00E9408098AE191E00E948F0D88236A
:103D700021F08FEF93E00E948F0E8FE691E00E947A
:103D8000C40247E0E42E43E0F42E00E110E0C80155
:103D90000E948F0DD7018D937D010F5F1F4F003261
:103DA0001105A9F710922203109221031092160513
:103DB000109215050E94500480ED91E090938602C8
:103DC0008093850281ED91E0909384028093830239
:103DD00040E860E080E197E00E944F076AE070E011
:103DE00080E090E00E94EA0340E050E06AE774E47B
:103DF00080E197E00E94F90780E498E7ADE7B1E041
:103E00008093130790931407A0931507B093160798
:103E100083E191E00E94E20E092E000CAA0BBB0B7D
:103E20008093870290938802A0938902B0938A02BC
:103E3000885D9945A109B10985399141A105B1056F
:103E400060F088EA91E6A0E0B0E08093870290936A
:103E50008802A0938902B0938A02609187027091D0
:103E600088028091890290918A020E94A73020E006
:103E700030E04AE754E40E94E63242E00E949709AB
:103E80000E940409209187023091880240918902A2
:103E900050918A02A8EEB3E00E94F9316B017C01D7
:103EA00040E050E060E773E480E197E00E94F907AA
:103EB000C0921907D0921A07E0921B07F0921C07D4
:103EC000C0921307D0921407E0921507F0921607DC
:103ED0000E94BD0786E791E00E94080990E080E01B
:103EE0008C010F5F1F4F805C9E4F0E948F0D080F4B
:103EF000111DC801805C9E4F0E948F0D8E3419F0F9
:103F0000C8010496EDCF68E071E0C8018E5B9E4F5A
:103F10000E94680D8091AD029091AE0285969093BB
:103F2000AE028093AD02F8941092800089E08093F5
:103F3000810080E293E09093890080938800109242
:103F400085001092840082E080936F007894109234
:103F5000350610923A06109239068091360660E0D6
:103F60000E94820364E070E087E297E00E9483157C
:103F700061E083E00E94820386E090E00E94402E90
:103F80008C01DC0111961C921E9213961C921E92BB
:103F9000129715961C921E9214978CE791E00E943E
:103FA00008091093200300931F0385ED91E00E9400
:103FB000411364EF71E080E090E00E94EA0380E149
:103FC0000E94B303BC01990F880B990B6115710511
:103FD0008105910511F00E94003081E191E00E947D
:103FE0000B1064EF71E080E090E00E94EA03109211
:103FF000B30282E891E00E94080938EE232E33E0F4
:10400000332E00911F0310912003F801E080F1800E
:10401000E114F10409F08FC00E941D0480908B020E
:1040200090908C02A0908D02B0908E026819790950
:104030008A099B098090000190900101A0900201E3
:10404000B090030186169706A806B9060CF073C057
:104050008DE396E090939D0280939C0280913906B7
:1040600090913A0690939F0280939E028091070759
:1040700090E09093A1028093A00280913506833056
:1040800009F090C280913F069091400687589109AF
:104090008E35910508F080C28091390690913A06DC
:1040A000049709F048C2809141069091420680979A
:1040B000479708F040C280914306909144060997C3
:1040C000099708F038C210929B0210929A028FEF63
:1040D0009FEFDC018093940290939502A093960247
:1040E000B093970283E090E09093910280939002C6
:1040F0008091940290919502A0919602B0919702BE
:10410000892F9A2FAB2FBB278A3509F4A8C308F053
:104110005FC3823209F48BC308F044C3803109F4D1
:104120009BC308F0F2C264ED71E0823009F4F5C27D
:1041300060E172E09FC3D8018D919C911816190619
:104140000CF08FC00E941D04C0908B02D0908C0296
:10415000E0908D02F0908E026C197D098E099F0906
:10416000C0900001D0900101E0900201F0900301A5
:10417000C616D706E806F9060CF073C0D8011296E9
:10418000ED91FC91F12CE12C309711F0E080F18061
:10419000F70180818093FB04C380D480D0921903FF
:1041A000C092180345815681052E000C660B770BD3
:1041B0004093000150930101609302017093030149
:1041C00021813281A7E2B3E0AD01475253404C1543
:1041D0005D052CF4F90191919F019D93F5CF8154D8
:1041E0008A3108F0A4C18EE7F601E95DFC4F8083B7
:1041F0000E941D0460938B0270938C0280938D0249
:1042000090938E0285E080931C03E114F10459F031
:10421000D70111968D919C91009711F00E94DC2E90
:10422000C7010E94DC2EF80182819381009711F46E
:104230000C94352EDC011296ED91FC91D801139669
:10424000FC93EE931297309709F473C11582148290
:104250000E94DC2ED8018D919C91119701978D932E
:104260009C9300911C03002309F4A9C08091FB04D6
:10427000082E000C990B0E946336182F80931B03A5
:10428000053090F4823681F0602F70E0615F7F4FDF
:10429000072E000C880B990B0E94A73020E030E01D
:1042A00040EA50E40E94F40A80910C01882341F016
:1042B0001B3631F488EF9BE00E949C0810920C01A1
:1042C00080911A038356823050F48091FB04833628
:1042D00031F081E080930B0187E40E941409809102
:1042E000FB04803751F080910A01811106C081E002
:1042F00080930A0180E70E9414098091FB048436B0
:1043000011F40C942F2C14F00C94D129893409F455
:10431000D1C70CF0C7C7833411F40C94102B873429
:1043200011F40C94912A8F3311F40C94872A809104
:10433000FB048B3621F4909103051916CCF40E94EE
:10434000140980911A038B3699F48091FB048A3604
:1043500061F0803751F080911B03873631F0982F40
:104360009B7F993611F0863719F48BE68093FB0416
:104370001091FB041B3691F480912703882371F080
:1043800062EA71E087E293E00E948136892B31F086
:1043900067E273E083EB92E00E948A3610921C037E
:1043A00010931A031B3629F01356123010F0109296
:1043B000FB041092270310921903109218038091A6
:1043C000FB048B3609F049C0E0900305E7FC02C00E
:1043D0000C94932C80911105DD24DA94D80E823050
:1043E00008F4D12C10E03EECC32E42E3B42E212F72
:1043F00030E080910305082E000C990B97FF03C055
:104400009195819591092817390764F486E795E01D
:104410000E943002892B11F40C94442C8EEE91E012
:104420000E94411383E49DE00197F1F78091030519
:1044300087FF13C081E191E00E947C01E6ECF2E08D
:1044400086E093E011921192119211928E179F07BC
:10445000C9F78091FB040E9414090E941D0420E109
:1044600037E240E050E00E94433280910D0190918C
:104470000E01092E000CAA0BBB0B82179307A40791
:10448000B5070CF047C0790130930E0120930D0160
:1044900085E10E94B3038C018A389240BCF580917B
:1044A0001D0390911E030817190721F0E2E0EE1694
:1044B000F10464F581E292E00E94C402C80163E65F
:1044C00070E00E948C356B01072E000CEE08FF088F
:1044D00077FD02C00C94772D8DE20E94BF02662703
:1044E0007727CB016C197D098E099F094AE00E944C
:1044F000330986E50E9414098AE191E00E948F0D3C
:10450000882321F081ED93E00E948F0E10931E030B
:1045100000931D0380E090E0892B09F472CD0E9486
:104520003C02882309F469CD0E94000066CD80E03A
:104530005BCEF8018BCE8091390690913A06843497
:10454000910550F180914106909142068154910964
:104550008F9710F590E080E040E050E0BA01FC0158
:10456000ED5BF94F20813181295031092930310526
:1045700098F4FC01EB5BF94F20813181275131091F
:104580002231310508F4A3C0208131812650310940
:104590002730310508F4B4C01092350610923A065F
:1045A0001092390686E795E00E9430021816190627
:1045B0000CF076C086E795E00E940E02D82E80931C
:1045C000FB04082E000C990B0E946336182F809371
:1045D0001B0382E080931C0361E070E080E090E0C8
:1045E0000E94EA03FFEBFD0DFDA7EAE0CE2EFA31B3
:1045F00010F4FEE7CF2E0E941D042B013C012BE49A
:10460000D21621F085E090E0123611F488EC90E0AB
:104610001B7F1FA79C01990F440B550B28AB39AB8F
:104620004AAB5BAB86E795E00E943002892B09F428
:10463000FCC100911803109119033BE6D31619F041
:104640004FA5493639F480910F0190911001081758
:1046500019072CF4033D51E015070CF4CCC18FED84
:1046600091E00E94080964EF71E080E090E00E9410
:10467000EA0386E795E00E940E0286E795E00E9435
:104680003002892BB1F78091FB040E9414098BE65C
:104690008093FB046EEE71E087E293E00E948A361D
:1046A0000E941D0420911C032150223008F0EFC10C
:1046B0000E941D046854744F8F4F9F4F6093AF0248
:1046C0007093B0028093B1029093B202CACD440FAE
:1046D000551F661F771F416004968038910509F0C9
:1046E0003ECF80E290E090939B0280939A024093A9
:1046F0009402509395026093960270939702F2CCC5
:10470000440F551F661F771FE7CF823109F4B0C0F1
:104710006CEB71E0883109F00BCDCE0181960E94DF
:104720005B166CED71E0CE0181960E941E0D882310
:1047300009F4A5C06CEA71E087E297E00E941416C4
:1047400067E277E0CE0187960E94F815CE01819648
:104750000E94470D60E172E0CE0187960E941E0D17
:10476000811115C06FA178A58BA59CA5019709F0B3
:104770002EC16115710521F410928F026FE872E06D
:10478000FB0180818093FB0481E080931C031092E5
:10479000350610923A0610923906CE0187960E948D
:1047A000470D00CF823409F45DC048F4803309F42A
:1047B0004DC062EB71E0883309F4AFCFB9CC8A34D5
:1047C00009F453C064EA71E0823509F4A6CFB0CC95
:1047D000823A39F198F48A37E1F140F4823621F1D6
:1047E00069EC71E0883609F498CFA2CC803959F190
:1047F00066EC71E0883909F490CF9ACC823CD1F014
:1048000040F4883AE9F063EC71E0803B09F485CF2D
:104810008FCC803E91F069ED71E0823E09F47DCF4E
:1048200087CC6DED71E079CF6BED71E076CF67ED00
:1048300071E073CF62ED71E070CF60ED71E06DCF2C
:104840006EEC71E06ACF6CEC71E067CF60EC71E008
:1048500064CF68EB71E061CF65EB71E05ECF6EEA2B
:1048600071E05BCF6BEA71E058CF66EA71E055CF3B
:1048700069ED71E0CE0181960E944A1652CF68E040
:1048800072E0CE0181960E941E0D811111C06EED65
:1048900071E0CE0181960E941E0D811109C060EE6B
:1048A00071E0CE0181960E941E0D882309F442C05A
:1048B0008DA19EA1892B21F0E9A1FAA1309721F4C5
:1048C00010928F02EFE8F2E0108110930401163489
:1048D00071F46CEA71E087E297E00E941E0D882374
:1048E00031F063E072E087E297E00E94141667E21D
:1048F00077E0CE0101960E94F8151FA318A641E0AB
:1049000050E0BE01695D7F4FCE0101960E94AB155C
:10491000811104C0CE0101960E94350DBE016F5F6A
:104920007F4FCE0187960E94F815CE0101960E9416
:10493000470D0CCF62EE71E0CE0181960E941E0DF4
:1049400009A11AA1811131C065EE71E0CE018196F5
:104950000E941E0D811129C068EE71E0CE01819682
:104960000E941E0D811121C063E072E0CE0181968C
:104970000E941E0D811119C06BEE71E0CE0181966F
:104980000E941E0D811111C018A70FA38BA19CA11D
:104990009AA789A78DA19EA19CA78BA71AA219A24D
:1049A0001CA21BA21EA21DA2D1CE0115110551F001
:1049B0004DA15EA1B80187E297E00E94D715109142
:1049C000040195CF87E297E00E94350DF8CF8BE682
:1049D0008093FB0487E293E00E948A366EEE71E0DA
:1049E00087E293E00E948136892B09F0CDCE86E4E0
:1049F00080930401C9CE86E795E00E940E029801DB
:104A00002F5F3F4F3093190320931803F801E95D9E
:104A1000FC4F808386E795E00E943002892B09F0E5
:104A200008CE0E941D042B013C0100911803109137
:104A30001903480181E0881A9108D401A95DBC4F8F
:104A40005D018C918C1581F00E941D04641975091B
:104A50008609970928A939A94AA95BA9621773078A
:104A6000840795070CF4DECDD5018C91C81201C0E6
:104A700084011093190300931803BDA58EE7BA3182
:104A800008F080E0F801E95DFC4F808309CE2091B9
:104A9000FB04233609F4E5CB0091AF021091B0027C
:104AA0002091B1023091B202601B710B820B930B0B
:104AB00016161706180619060CF0D3CB0E941D0413
:104AC0000091A9021091AA022091AB023091AC0290
:104AD000AB01BC01401B510B620B730B80910501B4
:104AE00090910601092E000CAA0BBB0B84179507A9
:104AF000A607B70708F0F5C00E941D046093A9023D
:104B00007093AA028093AB029093AC0210920601BC
:104B100010920501309208012092070161E0809116
:104B200008070E94820360E0809108070E94280322
:104B300083E090E00197F1F761E0809108070E941F
:104B400028038BE490E00197F1F760E0809108077B
:104B50000E94280360E0809108070E9482038091F0
:104B6000080790E0FC01E55BFD4F6491FC01E95C06
:104B7000FD4FE491F0E0EE0FFF1FED51FE4F8591E8
:104B8000949100E412E42FE030E0462F0E94A41C30
:104B9000611571058105910529F06F5F7F4F8F4F7A
:104BA0009F4F9F708B019C0102501109210931090F
:104BB0000E351A4E2105310528F50E94A53020E05A
:104BC00030E048E652E40E94E63260930C077093AE
:104BD0000D0780930E0790930F0781EF91E00E94DD
:104BE000F70860910C0770910D0780910E07909166
:104BF0000F0742E00E9497098FEF91E00E94F708AB
:104C00000E94040980900C0790900D07A0900E0759
:104C1000B0900F078092A5029092A602A092A702E0
:104C2000B092A80220E030E040EF52E4C501B401A8
:104C30000E94CD3318160CF454C06091A3027091F9
:104C4000A40290E080E00E94A530A50194010E949A
:104C500075320E945F339B017093A4026093A3029C
:104C60006091A2026F5F6093A2026A30D0F170E09F
:104C7000C9010E9478358B0190E080E00E94A53048
:104C80004B015C018092A5029092A602A092A7021D
:104C9000B092A8021093A4020093A30281E0809333
:104CA000A20220E030E044EB52E4C501B4010E94CE
:104CB000CD3318160CF05EC080911703811109C026
:104CC00020E04FEF5FEF6FEF70E090E080E00E9438
:104CD000711730920601209205013092080120924E
:104CE000070180910901882309F4BBCA80911C0344
:104CF0008111BBC70E941D04AB01BC018091AF02B2
:104D00009091B002A091B102B091B2028A019B01D0
:104D1000081B190B2A0B3B0B80910701909108018E
:104D2000092E000CAA0BBB0B80179107A207B30733
:104D30000CF045CB4093AF025093B0026093B102A8
:104D40007093B2020E94B12F2091AD023091AE0259
:104D5000032E000C440B550B0E94DA31EFEF77FD68
:104D600085C2EF5FAE2FB0E0AC5ABE4F8C91681B8E
:104D70007109F5CF20E030E04CE852E4C501B40100
:104D80000E94CD33181674F48091170321E040E09F
:104D90005FEF6FEF70E08111A4CF90E080E00E94A0
:104DA00071179FCF20E030E048E452E4C501B40120
:104DB0000E94CD33181654F480911703811191CFBE
:104DC00022E04FEF50E060E070E0E7CF20E030E01D
:104DD00040E450E4C501B4010E94A03087FF26C022
:104DE00080ED97E0909306018093050188E893E1B8
:104DF000909308018093070100911F0310912003F5
:104E000028EE33E042E052E06BE6C8010E946F0AF0
:104E10002CED35E046E052E06BE6C8010E946F0AD7
:104E200030E020E04EEE51E06BE6EFC0109117034A
:104E300020E030E040EC50E4C501B4010E94A03015
:104E400087FFE7C0111109C022E040E050E06FEF9A
:104E500070E090E080E00E9471170E94B12F5AE04C
:104E6000C52ED12CE12CF12CA70196010E94DA313C
:104E700064526FA70E94B12FA70196010E94DA31F8
:104E800012ED160F6091A5027091A6028091A70203
:104E90009091A8029B01AC010E9475320E945F3381
:104EA000062F0E94B12F23E030E040E050E00E9446
:104EB000DA31AA24A394A60E202F30E0A8EEB3E0A6
:104EC0000E94653268AB79AB8AAB9BAB00E0212FC7
:104ED00030E03DAB2CAB0A1508F040C0B12E912C50
:104EE000812C3FA5B316C0F5CCA8DDA8C80CD91CF1
:104EF000C601880F991F880F991FAC0145505109B1
:104F00005EA74DA7CC0CDD1CF12CE12C412C512CC3
:104F1000320188A999A9AAA9BBA9481659066A0607
:104F20007B06ACF461E085E00E9428038DA59EA578
:104F30000197F1F760E085E00E9428038DA59EA50A
:104F40000197F1F74C0C5D1C6E1C7F1CE2CFB394F3
:104F50009FEF891A990AC5CF0F5FBDCF1A821982B8
:104F600081E08B8382E08D83109111010E94B12F2B
:104F700024E1C22ED12CE12CF12CA70196010E9434
:104F8000DA311A50610F6A83109113010E94B12F18
:104F90001A50A70196010E94DA31160F1C83109156
:104FA00015010E94B12FA70196010E94DA311A5013
:104FB000610F6E8360911803709119039E012F5F3A
:104FC0003F4F87E293E0D901AD01421B530B4617D7
:104FD00057072CF44D91FC014193CF01F5CFFB0114
:104FE000E95DFC4F8EE7808300911F031091200341
:104FF00030E020E047E253E069E4C8010E946F0A14
:1050000030E020E040E152E069E6C8010E946F0A0A
:1050100068CE20E030E040E251E4C501B4010E94D6
:10502000A03087FF13C0111108C040E050E06FEFBF
:1050300070E090E080E00E94131700911F03109130
:10504000200320ED37E045ED51E0E6CE20E030E0F2
:1050500040E151E4C501B4010E9474324B015C018E
:105060008092A5029092A602A092A702B092A802F6
:1050700011112DC020E030E040E251E40E94E63200
:105080002B013C0120E030E040EA50E40E94A030D7
:1050900087FFE6C020E030E0A901C301B2010E9411
:1050A000CD3318162CF4C301B2010E9458337B0192
:1050B000F701EE0FFF1FEE0FFF1FE45CFE4F408174
:1050C00051816281738190E080E00E941317FE019C
:1050D00035968CE1DF011D928A95E9F720E030E0FA
:1050E00040E05FE3C501B4010E9406316B017C0121
:1050F000AC019B0160E070E080E791E40E947432B3
:105100000E9458337A83698320E030E040E251E422
:10511000C701B6010E9474320E9458337C836B83AE
:105120000E94B12F22E330E040E050E00E94DA31EB
:1051300020E030E040E85FE316161706180619066F
:1051400094F00E94B12F22E030E040E050E00E9455
:10515000DA3161507109072E000C880B990B0E94FF
:10516000A7309B01AC01C090A502D090A602E090B0
:10517000A702F090A802C701B6010E9406310E9462
:1051800058337E836D8320E030E040E05FE3C70169
:10519000B6010E94063120E030E040E751E40E9471
:1051A00075320E9458337A8B698B7C8B6B8BA7018D
:1051B000960160E070E080E792E40E9474320E9401
:1051C00058337E8B6D8B788F6F8BA701960160E0D3
:1051D00070E082E892E40E9474320E9458337A8F21
:1051E000698F7C8F6B8F20E030E040E251E4C70193
:1051F000B6010E9475320E9458337E8F6D8F78A35E
:105200006F8F80E190E09093190380931803E7E299
:10521000F3E0DE01119620E08D919D918F3791058D
:105220001CF580383FEF930714F480E89FEF8193DB
:105230002F5F203189F78EE78093370388E893E169
:10524000909308018093070130E020E047E253E0AB
:105250006CE480911F03909120030E946F0A41CD5E
:1052600085E0E82EF12C24CF8FE7E1CFEE23A9F0E3
:10527000F0E0EE0FFF1FE351FE4F6591749187E25E
:1052800093E00E942730809127038093FB0468E21B
:1052900073E087E293E00E948A3684E680931C03E1
:1052A0000C943121813609F448C20CF05EC28D3471
:1052B00009F03DC8809118039091190302970CF4EE
:1052C0005EC21092060390900B0161E1E62E61E050
:1052D000F62E9E012F5F3F4F590176ECC72E72E0EC
:1052E000D72E8901D7016D917D917D01072E000C8C
:1052F000880B990B0E94A73020E030E0A90199208B
:1053000029F0F60120813181428153810E9474325B
:105310000E945833D5016D937D935D01B4E0CB0EAF
:10532000D11CE1E3EE16E1E0FE06E1F657E2E52EE0
:1053300053E0F52EDD24D394209118033091190306
:10534000C70187529340821793070CF05AC2D701C6
:105350002C912031B8F411964C91042E000C550B71
:10536000822F880F990BF801E80FF91F51834083B2
:1053700024300CF043C282549D4FFC015183408382
:10538000D092FC048091FB048D3439F440E050E06D
:1053900060E070E4C8010E942710F2E0EF0EF11CFB
:1053A000CBCF8B3609F440C2DCF4893609F4E0C176
:1053B0000CF0D1C0873611F00C9497219091FB042A
:1053C0009A3711F00C9497218091090121E08227EE
:1053D0008093090181119AE59093FB040C94972125
:1053E000803709F4A2C00CF08AC08D3611F00C94FD
:1053F00097211092060390900B0101E111E09E01AC
:105400002F5F3F4F690186ECE82E82E0F82E5901AC
:10541000D8016D917D918D01072E000C880B990BA1
:105420000E94A73020E030E0A901992029F0F7017F
:1054300020813181428153810E9474320E9458330D
:10544000D6016D937D936D01B4E0EB0EF11CE1E0AC
:1054500001331E07E9F66AE072E087E293E00E94FA
:1054600037307C0155245394E114F10409F48BC1C5
:10547000C7010E9409308C016DE072E090E080E08D
:105480000E9437307C01D12CC12C88248394912C2C
:10549000009769F00E9409306C016DE072E090E0C5
:1054A00080E00E9437307C01B2E08B2E912C8091FD
:1054B000FB04982F9B7F993609F01EC3003111051C
:1054C00098F49801220F331FF501E20FF31FD182E8
:1054D000C082043011050CF05DC122543D4FD9014A
:1054E000CD92DC925092FC048D3609F09DC340E0D1
:1054F00050E060E070E4C5010E94271095C3833737
:1055000009F4C1C08A3709F459CF0C9497218AE174
:1055100092E00E94080981E192E00E9408090C943F
:10552000972187E68093FB0449CF90910A0121E0FF
:10553000911120E020930A01911180E58093FB04F2
:10554000911105C08BE68093FB040C9497210E9477
:10555000BD070C9497218DE30E94BF028091180330
:1055600090911903892B29F187E293E00E94093079
:10557000880F991FFC01EF5EFE4FC080D1800D2C7B
:10558000000CEE08FF084AE0C701B601F7FE0BC0A9
:105590008DE20E94BF0266277727CB016C197D0937
:1055A0008E099F094AE00E9433090E9404090C9465
:1055B00097210E94770960E172E0CE0181960E94F6
:1055C0004A16A1E1EA2EA1E0FA2E01E311E0D7018B
:1055D0006D917D917D01CE0101960E941E164D8137
:1055E0005E8169817A81CE0181960E94AB15CE01E0
:1055F00001960E94470D42E050E06EE072E0CE015D
:1056000081960E94AB150E151F0509F7CE018196F4
:105610000E942009CE0181960E94470D0C9497218B
:105620008091180390911903029724F410921703A4
:105630000C94972181E0809317034091270350E059
:1056400070E060E0BA01552744278091280390E07C
:10565000B0E0A0E0BA2FA92F982F8827840F951FBC
:10566000A61FB71F20912903AC01BD01420F511D98
:10567000611D711D80912A0320912B0390E00E94EF
:1056800071170C9497218BE092E00E94080927E0A3
:10569000822E23E0922E30E4E32EF12C00E110E084
:1056A000F401D1904F01C8010E94C431D81621F0F5
:1056B0006D2DC8010E94CC31C7010E94E20E6C0121
:1056C000C80180960E948F0DB82EF4013197608139
:1056D000062E000C770B880B990B0E94A7302B012C
:1056E0003C016B2DBB0C770B880B990B0E94A730EC
:1056F0009B01AC01C301B2010E9406312B013C01A8
:10570000B601DD0C880B990B0E94A7309B01AC0100
:10571000C301B2010E9475320E945833C7018096BE
:105720000E94680D0F5F1F4FF2E0EF0EF11C003278
:10573000110509F0B5CF0C94972183E092E00E9407
:10574000080907E013E090E1E92EF12CC7010E945F
:105750008F0DD8018D938D01BFEFEB1AFB0AE0E2AC
:10576000EE16F10499F70C949721893609F041CE91
:105770008091180390911903892B09F03ACE109269
:10578000FC040C949721D12CC12C10E000E0912C4A
:10579000812C8DCE50920603A7CE823609F044C2EA
:1057A000892881F48AE191E00E948F0D2AE131E09D
:1057B0003AA329A361E0811160E0CE0181960E94A5
:1057C0004F0D32C2C114D10409F42EC288EE93E009
:1057D000B6010E948C35072E000C880B990B0E9495
:1057E000A7303B014C01B801110F880B990B0E94A7
:1057F000A730A40193010E94F40A16C2D0920603B6
:10580000C1CD80910603811106C080911A038B36A9
:1058100011F40C94972140E050E060E870E4C80176
:105820000E942710C8011DC267E273E08AE991E077
:105830000E948136892B69F067E273E083EB92E086
:105840000E948136892B29F48091030582300CF067
:1058500010C287E293E00E9441130C94972161E10A
:1058600072E087E293E00E948A3687E293E00E942A
:1058700041130E94BD0710920B011092FC0487E6B1
:105880000E9414090C949721E0901305F0901405E0
:1058900080910905189FE00CF11C1124D701509646
:1058A0006C91062E000C770B880B990B0E94A73089
:1058B00020E030E040E85EE30E9406319B01AC014D
:1058C00000E060910E05C7010E949F1180910905BB
:1058D000E0911305F0911405189FE00DF11D1124BE
:1058E00061891616DCF4BB2D6B02B0011124072E62
:1058F000000C880B990B0E94EA03DD2061F0112354
:1059000051F080911005181306C010910F05115029
:105910001D140CF4DA941F5F0C94F721EC2D6E0229
:10592000B0011124E4CF2E2D0E2C000C330B8091EE
:10593000FF04803108F446C01092FF0480910A01F0
:105940004091FD045091FE04840F952F911D821704
:105950009307A4F59093FE048093FD04F090FF0458
:105960000F2D10E0F1E0FE15ACF580911205F81650
:10597000D8F1409109052091FD043091FE04429F29
:10598000C001439F900D112420911205080F191F8B
:10599000021B11098091130590911405080F191F1E
:1059A00060910E05D8012C912603B0011124072E19
:1059B000000C880B990B0E94A73063C01092FE0464
:1059C0001092FD048091FF04843041F688E08093BA
:1059D000FF04C4CF2130310561F623E02F1548F2D2
:1059E0008091FC04882329F28091FC04811155C028
:1059F00033E03F1508F451C041E0812C912C540153
:105A0000F41659F060910205062E000C770B880BF6
:105A1000990B0E94A7304B015C010E5F1F4F8091D4
:105A2000FD049091FE04089FB001099F700D189F1E
:105A3000700D1124072E000C880B990B0E94A730C3
:105A40002BED3FE049E450E40E9406312B013C017C
:105A50006E2DEE0C770B880B990B0E94A7309B01E3
:105A6000AC01C301B2010E94E6320E94223420E060
:105A700030E040E251E40E940631A50194010E9409
:105A80007532AB01BC018F2D0E94650F8091FF0420
:105A90008F5F8093FF040C941222F801EE0FFF1F1A
:105AA000E254FD4F60817181072E000C880B990B29
:105AB0000E94A7304B015C0160910B0170E090E007
:105AC00080E00E94A730000F111F000F111FF80186
:105AD000EA53FD4F20813181428153810E9406317A
