:100000000C9416010C943E010C943E010C943E019C
:100010000C943E010C943E010C943E010C944C1542
:100020000C943E010C943E010C943E010C94691713
:100030000C943E010C943E010C943E010C943E0144
:100040000C9400160C943E010C94CE150C94A8153B
:100050000C943E010C943E010C943E010C943E0124
:100060000C944A160C943E0105A84CCDB2D44EB95E
:100070003836A9020C50B9918688083CA6AAAA2A4B
:10008000BE000000803F07634236B79BD8A71A39ED
:10009000685618AEBAAB558C1D3CB7CC5763BD6DD6
:1000A000EDFD753EF6177231BF000000803F08007D
:1000B0000000BE922449123EABAAAA2ABECDCCCCE7
:1000C0004C3E00000080BEABAAAAAA3E0000000081
:1000D000BF000000803F0000000000084178D3BB53
:1000E0004387D1133D190E3CC3BD4282AD2B3E6800
:1000F000EC8276BED98FE1A93E4C80EFFFBE01C4F1
:10010000FF7F3F0000000000010000010000000030
:1001100000000000000000000000000000000000DF
:10012000240027002A0000000000230026002900E8
:10013000536572766F3A00536B696C6C005461734F
:100140006B5100526561647921004E5F3233303566
:10015000323900426974746C65000A2A2053746154
:100160007274202A004C6F7720706F7765723A00A6
:100170007A65726F007363726800636B0070656507
:10018000007075006869007374720073697400749C
:100190007200776B00637200767400630042007037
:1001A0000052007570004C006700460064004F5616
:1001B00046000000000800020100000304070000E0
:1001C0000000000000004F56462120576F6E277434
:1001D0002073617665210061626F727465640073DB
:1001E00061766564004E5F323330353239004269E2
:1001F00074746C6500010204081020408001020440
:10020000081020010204081020000000002500282A
:10021000002B000404040404040404020202020289
:1002200002030303030303023518562611241FBEDD
:10023000CFEFD8E0DEBFCDBF11E0A0E0B1E0E2E754
:10024000FDE502C005900D92AE3BB107D9F726E05F
:10025000AEEBB1E001C01D92A63CB207E1F711E0A0
:10026000C5E1D1E004C02197FE010E94A62DC43152
:10027000D107C9F70E94A8180C94AC2E0C9400006A
:1002800047E018160CF444E04093A30498E0823051
:1002900024F494E1813009F490E19093A404282F90
:1002A000880F330B37FF03C0319521953109929F99
:1002B000B001939F700D1124CB01840F911D0895FF
:1002C0008091C702082E000C990B9093A60480938E
:1002D000A5048091C802082E000C990B9093A804E5
:1002E0008093A7048091C9028093A90480919E0401
:1002F00087FF0EC09091CA029093AA049091CB02FE
:100300009093AB049091CC029093AC0490E005C024
:100310008130E1F398E08230CCF39093AD04082E65
:10032000000C990B97FF03C091958195910940911D
:10033000A404489F9001499F300D112482ED91E063
:10034000821B930B90930B0180930A016091A3048D
:10035000620F732F711D86EC92E050E040E0FC01CB
:10036000E60FF71FA081FC01ED52FE4FA0834F5F07
:100370005F4F01972417350794F78EE78093990410
:1003800089E994E0821B930B9093AF048093AE04B1
:100390000895CF93DF93DC019096FC0141E85FEF75
:1003A00060E870E021913191261737070CF4B9010C
:1003B000421753070CF4A901EA17FB0799F76338B2
:1003C0007F4F1CF04E3751056CF122E02093A904B9
:1003D000DC012D913D91ED01229737FF02C02F5F87
:1003E0003F4F3595279539832883AE17BF0789F787
:1003F000A091AE04B091AF04EC01288102962D9338
:100400008E179F07C9F781E080939E041092AD0478
:1004100080E18093A4041092C5021092C402DF917F
:10042000CF91089521E02093A904E2CF8091C002EA
:100430009091C102891B990B089508950895AF9278
:10044000BF92CF92DF92EF92FF920F931F93CF93C1
:10045000DF936C017B018B01040F151FEB015E0123
:10046000AE18BF08C017D10759F06991D601ED91B8
:10047000FC910190F081E02DC6010995892B79F757
:10048000C501DF91CF911F910F91FF90EF90DF9009
:10049000CF90BF90AF900895FC01538D448D252FD0
:1004A00030E0842F90E0821B930B541710F0CF960E
:1004B000089501970895FC01918D828D981761F040
:1004C000A28DAE0FBF2FB11D5D968C91928D9F5F57
:1004D0009F73928F90E008958FEF9FEF0895FC0136
:1004E000918D828D981731F0828DE80FF11D858DE9
:1004F00090E008958FEF9FEF0895FC01918D228D7C
:10050000892F90E0805C9F4F821B91098F73992700
:10051000089581E195E00E947D0221E0892B09F494
:1005200020E0822F089580E090E0892B29F00E943E
:10053000890281110C9400000895FC01A48DA80F7C
:10054000B92FB11DA35ABF4F2C91848D90E0019615
:100550008F739927848FA689B7892C93A089B18935
:100560008C91837080648C93938D848D981306C0D6
:100570000288F389E02D80818F7D80830895EF923A
:10058000FF920F931F93CF93DF93EC0181E0888F4D
:100590009B8D8C8D98131AC0E889F989808185FF1D
:1005A00015C09FB7F894EE89FF896083E889F989BF
:1005B00080818370806480839FBF81E090E0DF91C1
:1005C000CF911F910F91FF90EF900895F62E0B8D14
:1005D00010E00F5F1F4F0F731127E02E8C8D8E11CF
:1005E0000CC00FB607FCFACFE889F989808185FF36
:1005F000F5CFCE010E949D02F1CFEB8DEC0FFD2FC8
:10060000F11DE35AFF4FF0829FB7F8940B8FEA89F0
:10061000FB8980818062CFCF682F81E195E00C94C7
:10062000BF020F931F93CF93DF938C01D0E0C0E004
:10063000F801EC0FFD1F6491662341F081E195E024
:100640000E94BF02892B11F02196F2CFCE01DF91DB
:10065000CF911F910F910895CF93DF93EC01888D77
:100660008823B9F0AA89BB89E889F9898C9185FD2D
:1006700003C0808186FD0DC00FB607FCF7CF8C91BB
:1006800085FFF2CF808185FFEDCFCE010E949D02D4
:10069000E9CFDF91CF910895833081F028F4813044
:1006A00099F08230A9F008958730A9F08830C9F018
:1006B0008430B1F4809180008F7D03C080918000F0
:1006C0008F7780938000089584B58F7784BD0895D7
:1006D00084B58F7DFBCF8091B0008F778093B00081
:1006E00008958091B0008F7DF9CFCF93DF93282FAD
:1006F00030E0F901EE54FE4F8491F901EB50FE4FCA
:10070000D491F901ED5EFD4FC491CC23A1F081118C
:100710000E944C03EC2FF0E0EE0FFF1FEA5DFE4F4E
:10072000A591B491EC91ED2381E090E009F480E093
:10073000DF91CF91089580E090E0FACF1F93CF939F
:10074000DF93282F30E0F901EE54FE4F8491F90138
:10075000EB50FE4FD491F901ED5EFD4FC491CC23D7
:10076000A9F0162F81110E944C03EC2FF0E0EE0F40
:10077000FF1FE75FFD4FA591B4918FB7F894EC91FF
:10078000111108C0D095DE23DC938FBFDF91CF918C
:100790001F910895DE2BF8CF90912C0189130BC087
:1007A000E7E2F2E0E4919FEF90932C01E13049F011
:1007B00028F0E23061F060E00C949E0310926E002D
:1007C000FACF90916F009D7F90936F00F4CF90913E
:1007D00070009D7F9093700091E09093B000909195
:1007E000B100987F94609093B1001092B300E3CF72
:1007F000CF93DF9390E0FC01EB50FE4F24918D5E90
:100800009D4FFC0184918823D1F090E0880F991FBF
:10081000FC01E45EFE4FA591B491FC01E75FFD4F42
:10082000C591D49161110EC09FB7F8948C91E22FBD
:10083000E0958E238C932881E223E8839FBFDF918C
:10084000CF9108958FB7F894EC91E22BEC938FBF82
:10085000F6CF8E3008F08E508770806480937C00D5
:1008600080917A00806480937A0080917A0086FD7E
:10087000FCCF809178009091790008953FB7F8946B
:100880008091270290912802A0912902B0912A021A
:1008900026B5A89B05C02F3F19F00196A11DB11DDB
:1008A0003FBFBA2FA92F982F8827BC01CD01620F17
:1008B000711D811D911D42E0660F771F881F991FD2
:1008C0004A95D1F708958F929F92AF92BF92CF929F
:1008D000DF92EF92FF926B017C010E943E044B017C
:1008E0005C01C114D104E104F104B9F00E943E049A
:1008F000681979098A099B09683E73408105910549
:1009000080F321E0C21AD108E108F10888EE880ED0
:1009100083E0981EA11CB11CE4CFFF90EF90DF9004
:10092000CF90BF90AF909F908F9008952FB7F8947D
:1009300060912302709124028091250290912602F9
:100940002FBF08952091FF01260F3327331F213237
:100950003105ECF420910B05FC0190E080E024309F
:1009600069F082E00895A091FF012191AC0141520C
:100970005E4FA40FB52FB11D2C930196861798F3E7
:100980008091FF01680F6093FF0180E0089581E08E
:10099000089510920B0581E08093EA041092E5041B
:1009A00061E082E10E949E0361E083E10E949E0378
:1009B000E9EBF0E080818E7F808380818D7F808372
:1009C00088E48093B80085E48093BC000895CF93B9
:1009D000DF9391E09093DE018823B9F0C091B800D5
:1009E000D091BA008091BC008A7B8093BC0060E00B
:1009F00082E10E949E0360E083E10E949E030E94C8
:100A0000C904D093BA00C093B800DF91CF91089584
:100A1000CF92DF92EF92FF920F931F93CF93DF93CA
:100A2000D82FC62F613208F098C00E943E046B0197
:100A30007C0180910B0581116BC081E080930B05D7
:100A40008093EA049FEF9093E9041092E8049C0FCE
:100A50009093E7048093E6048091E604DD0FD82BA1
:100A6000D093E6048091E504813009F078C01092BB
:100A7000E5040E943E046B017C018091E6048093B2
:100A8000BB0080910D0590910E05A0910F05B091CE
:100A90001005892B8A2B8B2BA1F00E943E0400911C
:100AA0000D0510910E0520910F05309110056C1960
:100AB0007D098E099F09061717072807390708F4CB
:100AC00048C08091BC0083FDD8CF85EC8093BC00EA
:100AD0000E943E046B017C0180910B05813009F47A
:100AE00040C08091E8048C1710F4C091E804E5EC54
:100AF000F4E0ABEEB4E080E08C1355C08C2FDF91B6
:100B0000CF911F910F91FF90EF90DF90CF900895BC
:100B100080910D0590910E05A0910F05B0911005E3
:100B2000892B8A2B8B2B09F484CF0E943E040091E1
:100B30000D0510910E0520910F05309110056C19CF
:100B40007D098E099F09061717072807390708F03E
:100B500070CF80910C050E94E704C0E0CFCF85EEF6
:100B6000B5CF80910D0590910E05A0910F05B09124
:100B70001005892B8A2B8B2B09F4AECF0E943E04E3
:100B800000910D0510910E0520910F053091100573
:100B90006C197D098E099F09061717072807390761
:100BA00008F09ACFD6CF91919D938F5FA5CF0895EE
:100BB000E091C1028091C002E81730F4F0E0E55105
:100BC000FB4F808190E008958FEF9FEF0895909103
:100BD000C1028091C0022FEF3FEF981748F4E92F30
:100BE000F0E0E551FB4F208130E09F5F9093C10220
:100BF000C9010895CF92DF92EF92FF920F931F9356
:100C0000CF93DF937C01CB018A012091B30422238F
:100C100089F0EB016B01C40ED51ECC15DD0569F022
:100C20006991D701ED91FC910190F081E02DC70110
:100C30000995F3CF642F0E94A204C801DF91CF91E0
:100C40001F910F91FF90EF90DF90CF900895CF9379
:100C5000DF931F92CDB7DEB769832091B3042223BF
:100C6000F9F02091B004203258F021E030E0FC018E
:100C70003383228390E080E00F90DF91CF9108953D
:100C80008091B104E82FF0E0E254FE4F9981908307
:100C90008F5F8093B1048093B00481E090E0ECCF4B
:100CA00061E0CE0101960E94A204F7CFCF92DF92BD
:100CB000EF92FF920F931F93CF93DF93D091B004E5
:100CC00081E0D13208F09CC0C091B2040E943E0481
:100CD0006B017C0180910B0581116CC082E08093D7
:100CE0000B0581E08093EA048FEF8093E904109272
:100CF000E804D093E704AEEBB1E0E5ECF4E080E08B
:100D0000D8138DC01092E6048091E604CC0FC82B56
:100D1000C093E6048091E504813009F084C010920C
:100D2000E5040E943E046B017C018091E6048093FF
:100D3000BB0080910D0590910E05A0910F05B0911B
:100D40001005892B8A2B8B2BA1F00E943E04009169
:100D50000D0510910E0520910F05309110056C19AD
:100D60007D098E099F09061717072807390708F418
:100D700042C08091BC0083FDD8CF85EC8093BC003D
:100D80000E943E046B017C0180910B05823009F4C6
:100D90004CC08091E9048F3F09F469C08091E90457
:100DA000803209F466C08091E904803309F463C09D
:100DB00084E026C080910D0590910E05A0910F054D
:100DC000B0911005892B8A2B8B2B09F483CF0E94BD
:100DD0003E0400910D0510910E0520910F053091F4
:100DE00010056C197D098E099F090617170728073A
:100DF000390708F06FCF80910C050E94E70485E069
:100E00001092B1041092B0041092B304DF91CF910C
:100E10001F910F91FF90EF90DF90CF9008959D91DB
:100E200091938F5F6DCF85EEA9CF80910D05909145
:100E30000E05A0910F05B0911005892B8A2B8B2BE5
:100E400009F4A2CF0E943E0400910D0510910E05F9
:100E500020910F05309110056C197D098E099F09AD
:100E6000061717072807390708F08ECFC4CF80E090
:100E7000C7CF82E0C5CF83E0C3CF90E080E0089584
:100E800008951F93CF93DF93EC01142F89819A81EA
:100E9000288131E03093B3042093B2041092B1045E
:100EA0001092B004DC01ED91FC910190F081E02DF5
:100EB000099589819A81DC01ED91FC910190F08185
:100EC000E02D612F099589819A81DF91CF911F9142
:100ED0000C945606DC01ED91FC910190F081E02D1F
:100EE0000994DC01ED91FC910190F081E02D0994D1
:100EF0000F931F93CF93DF93EC018A0189819A812D
:100F0000288131E03093B3042093B2041092B104ED
:100F10001092B00424E0629FB00111246A5F7F4FF9
:100F20000E94710770E060E089819A810E946A07DF
:100F300070E060E089819A810E946A07B801898126
:100F40009A810E946A07612F70E089819A810E94CC
:100F50006A0789819A81DF91CF911F910F910C943B
:100F60005606CF93C0E040E050E16C2F83EA96E054
:100F70000E947807CF5FC031B1F7CF910895BF923B
:100F8000CF92DF92EF92FF920F931F93CF93DF9355
:100F9000EC0181E08093B30484E58093B204109265
:100FA000B1041092B0046D2F70E084EC95E00E94C3
:100FB0007107BE01772784EC95E00E94710784ECED
:100FC00095E00E94560661E084E50E9408051092B3
:100FD000C1028093C00284EC95E00E94E7058093F3
:100FE000C60280939E040E944001EC01F12CE12C8A
:100FF0001C161D064CF56C2FCF31D1050CF06EE19F
:1010000084E50E940805B82E1092C1028093C002A8
:101010006E018EE1C81AD1088E018091C102B81606
:1010200059F084EC95E00E94E7059FEFE91AF90A70
:10103000F701EA53FD4F80830150110929F0E601C1
:101040000C151D0551F7D4CFDF91CF911F910F9152
:10105000FF90EF90DF90CF90BF900895CF93DF93F4
:10106000EC0189819A81288131E03093B304209387
:10107000B2041092B1041092B004DC01ED91FC9125
:101080000190F081E02D099589819A810E94560690
:1010900061E088810E9408051092C1028093C0021D
:1010A00089819A81DC01ED91FC910284F385E02D28
:1010B0000995DF91CF9108958F929F92AF92BF9241
:1010C000CF92DF92EF92FF92CF93C82F90E080E013
:1010D0000E94BF286B017C016EEF83EA96E00E94BC
:1010E0002E08682F70E06F5F7F4F90E080E00E94D5
:1010F000BF2820E034E244E759E40E9420294B0154
:101100005C016091A6067091A7068091A806909157
:10111000A9060E94BF289B01AC01C501B4010E9431
:10112000002B9B01AC01C701B6010E94002B0E945D
:10113000792BAB016C2F83EA96E0CF91FF90EF9073
:10114000DF90CF90BF90AF909F908F900C947807D6
:101150000F931F93CF938C01C0E0B8018C2F0E9496
:101160005C08CF5FC031C9F7CF911F910F910895EF
:101170008F929F92AF92BF92CF92DF92EF92FF92A7
:101180001F93CF93DF93EC016A017B0120E030E0F5
:1011900040E85FE3CB01B6010E94BA2887FD7EC01C
:1011A00020E030EC4AE555E4C701B6010E94E72B88
:1011B00018163CF4C12C30ECD32E3AE5E32E35E47E
:1011C000F32E6B817C818D819E810E94BF284B0113
:1011D0005C0120E030E040E855E4C701B6010E9420
:1011E00020299B01AC01C501B4010E94002B20E025
:1011F00030E040E05FE30E948F2A20E030E040E8EA
:101200005FE30E948E2A6B017C0120E030E040E425
:1012100050E40E94BA2887FD48C020E030E04FE744
:1012200053E4C701B6010E94E72B181634F4C12C11
:10123000D12C9FE7E92E93E4F92E60E0CE010E94C5
:101240002E08182F482F4F76406160E0CE010E9493
:101250004107C701B6010E94792B462F6EEFCE01E0
:101260000E944107412F60E0CE010E94410765E0E6
:1012700070E080E090E00E946304412F406A60E0EB
:10128000CE01DF91CF911F91FF90EF90DF90CF9033
:10129000BF90AF909F908F900C944107C12CD12CA0
:1012A00020E8E22E2FE3F22E8CCFC12CD12C80E44B
:1012B000E82EFE2CC2CFFC0101900020E9F7319707
:1012C000AF01481B590BBC0181E195E00C941F0252
:1012D00083E691E00C945B09CF93DF930E941103A6
:1012E000EC010E9468098C0F9D1FDF91CF9108953A
:1012F000CF93DF930E940C03EC010E9468098C0FCE
:101300009D1FDF91CF910895CF93DF93FC0144811E
:1013100055816081718181E195E00E941F02EC019D
:101320000E9468098C0F9D1FDF91CF9108958F92C5
:101330009F92AF92BF920F931F93CF93DF93CDB73E
:10134000DEB7A1970FB6F894DEBF0FBECDBF19A2CE
:10135000423008F44AE08E010F5D1F4F842E912C1D
:10136000B12CA12CA50194010E945D2AE62FB901A0
:10137000CA01EA30F4F4E05DD801EE938D01232B2D
:10138000242B252B79F790E080E0109719F0CD0100
:101390000E945B09A1960FB6F894DEBF0FBECDBFC9
:1013A000DF91CF911F910F91BF90AF909F908F9041
:1013B0000895E95CE1CFCF92DF92EF92FF92C12CCA
:1013C000D12C76014AE0C701B6010E94970989E055
:1013D0000E940C038FEFC81AD80AE80AF80A80E1C5
:1013E000C816D104E104F10469F7FF90EF90DF9093
:1013F000CF900C946809CF92DF92EF92FF92CF9337
:10140000DF936C01990FEE08FF08F7FE1BC08DE219
:101410000E940C03EC0166277727CB016C197D092C
:101420008E099F094AE00E949709C80FD91F0E94A0
:1014300068098C0F9D1FDF91CF91FF90EF90DF9097
:10144000CF9008954AE0C701B6010E949709EC01C8
:10145000EECF4F925F926F927F928F929F92AF9258
:10146000BF92CF92DF92EF92FF92CF936B017C01FC
:10147000CA01B9010E94792B4B015C0120E030E0E8
:10148000A901C701B6010E94BA28882309F49CC1AA
:10149000A701960163E67CE987E89FE30E94EC2BB5
:1014A00020E030ED42E854E40E9420290E94792B8C
:1014B0006B0180912C01853009F066C0E7E2F2E013
:1014C000C491C7FDD7C161E085E00E94F803CC2339
:1014D00019F0C23009F025C1F12CE12C60E072E175
:1014E0008AE790E0A70196010E94F42929013A01B8
:1014F000DA01C9010197A109B1098F3F9105A10541
:10150000B10509F00CF4F1C060E472E48FE090E002
:10151000A70196010E94F42921503109410951097E
:10152000C23009F0A3C082E02F3F310541055105CB
:1015300009F00CF490C160E970ED83E090E0A70140
:1015400096010E94F429215031094109510983E093
:101550002F3F31054105510509F00CF47CC168E4C9
:1015600078EE81E090E0A70196010E94F4292150D5
:101570003109410951092F3F31054105510511F04C
:101580000CF092C084E067C18F3F09F073C185E021
:1015900080932C01E7E2F2E0C491CF3F09F46AC1E5
:1015A000C13021F150F0C23009F43EC0C7FD62C124
:1015B00061E085E00E94F8038CCF14BC15BC84B5B3
:1015C000826084BD85B5816085BDE8E1F2E0E4918B
:1015D000F0E0EE0FFF1FE75FFD4F85919491EAEF7A
:1015E000F1E0E491E093B804C0E06DCF1092800088
:1015F00010928100809181008860809381008091A9
:101600008100816080938100E8E1F2E0E491F0E004
:10161000EE0FFF1FE75FFD4F85919491EAEFF1E038
:10162000E491E093B7044FCF1092B0001092B10054
:101630008091B00082608093B0008091B1008160A1
:101640008093B100E8E1F2E0E491F0E0EE0FFF1FDB
:10165000E75FFD4F859194919093B6048093B50414
:10166000EAEFF1E0E491E093B4042DCF2F3F310590
:101670004105510509F00CF452C068E478EE81E0B0
:1016800090E0A70196010E94F429215031094109F7
:101690005109CC2309F4B4C02F3F31054105510550
:1016A00011F00CF0B5C06ECF64E274EF80E090E012
:1016B000A70196010E94F4292150310941095109DD
:1016C00085E02F3F31054105510509F008F4C3C0FD
:1016D00062E17AE780E090E0A70196010E94F42998
:1016E0002150310941095109A1C09C0181E0C1117A
:1016F000B2C095B5987F892B85BD27BD8FEF9FEF31
:10170000DC018093C1049093C204A093C304B093FE
:10171000C40480916E00826080936E00ABC082E052
:10172000E6CFF12CE12C60E072E18AE790E0A701BE
:1017300096010E94F429215031094109510991E093
:101740002115310581E0480751056CF068E478EE19
:1017500081E090E0A70196010E94F429215031090F
:101760004109510993E0C13009F07BC080918100AB
:10177000887F892B80938100309389002093880093
:101780008FEF9FEFDC018093BD049093BE04A09384
:10179000BF04B093C00480916F00826080936F009B
:1017A00069C02093B3008FEF9FEFDC018093B904F1
:1017B0009093BA04A093BB04B093BC0480917000D2
:1017C00082608093700056C0C501B4010E9463041A
:1017D00051C084E02F3F31054105510509F008F45F
:1017E00088CF8AE075946794579447948A95D1F787
:1017F000A3019201215031094109510985E079CFB6
:1018000083E02F3F31054105510509F00CF471CFFC
:1018100062E17AE780E090E0A70196010E94F42956
:101820002150310941095109CC2399F286E02F3F1B
:1018300031054105510579F070F09AE0759467948F
:10184000579447949A95D1F7A301920121503109F9
:101850004109510987E09091B100987F892B8093CD
:10186000B100C13009F488CFC23009F49ACFCC233B
:1018700009F443CFC501B4010E94630485E00E94CE
:10188000CC0360E070E0CB01CF91FF90EF90DF9050
:10189000CF90BF90AF909F908F907F906F905F9010
:1018A0004F900C946304FC0124813581232B39F47F
:1018B00021E0FB018081882349F020E007C080817E
:1018C00091810E948E2E21E0892BB9F7822F0895F5
:1018D0000C94F626CF93DF93EC01888199810097D1
:1018E00011F00E94F626198218821D821C821B822A
:1018F0001A82DF91CF910895FC0180819181009738
:1019000011F00C94F6260895FF920F931F93CF9336
:10191000DF93EC01F62E08811981C8010E94DE29AF
:10192000F81621F06F2DC8010E94E629CE01DF9143
:10193000CF911F910F91FF900895FF920F931F93E6
:10194000CF93DF9300D0CDB7DEB78C01F72E9A830B
:101950008983CE0101960E94840C0F5F1F4F1A836A
:1019600009836F2DCE0101960E94840C66E070E021
:1019700080E090E00E9463040F900F90DF91CF9180
:101980001F910F91FF9008950C94DE292F923F92A2
:101990004F925F926F927F928F929F92AF92BF927F
:1019A000CF92DF92EF92FF920F931F93CF93DF932B
:1019B000CDB7DEB72E970FB6F894DEBF0FBECDBF02
:1019C0005C0185E191E00E94C40C682E66E671E03E
:1019D000C5010E948E2E762C892B89F4C62CD12C21
:1019E000F12CE12CC114D104E104F10439F00E947E
:1019F000CB27A70196010E94F4296B017C2CF501ED
:101A000001900020E9F73197EA19FB092E2F2150A8
:101A1000330B6901F501E20FF31F30813C87512C34
:101A200010E000E0CE0101967C0181E491E0FC0130
:101A3000EE19FF09FE87ED87651409F49AC01801B5
:101A4000FFEF2F1A3F0AC801805C9E4F0E94C40C12
:101A5000482E47012D853E85020F131F882D8E19B4
:101A6000841548F4C801880D991D0E94C40CF40126
:101A700081934F01F3CF842C912C8101080D191D06
:101A8000F701E80DF91D108257104CC068E671E0AF
:101A9000C7010E948E2E892B09F441C06BE671E0CC
:101AA000C7010E948E2E892BD1F16EE671E0C7012D
:101AB0000E948E2E892B99F161E771E0C7010E9487
:101AC0008E2E892B61F164E771E0C7010E948E2E92
:101AD000892B29F1C8018F5B9E4F0E94C40C809313
:101AE0009E040E944001C801805C9E4F2E960FB656
:101AF000F894DEBF0FBECDBFDF91CF911F910F9144
:101B0000FF90EF90DF90CF90BF90AF909F908F901D
:101B10007F906F905F904F903F902F9008957394B7
:101B200053948ACFB501C7010E948E2E892B91F262
:101B3000FE01E80DF91D80818634C1F068E771E08F
:101B4000C7010E948E2E892B89F0A601B501C7011D
:101B50000E949E2E892B51F4FC85FC3409F4BACFE7
:101B6000F23509F4B7CFF83509F4B4CF0C5F1F4F45
:101B7000D7CF8FE30E940C03C5010E945B090E942E
:101B800068098FEF9FEFB2CF7F928F929F92AF92B3
:101B9000BF92CF92DF92EF92FF920F931F93CF935A
:101BA000DF93F82E192F0E94C40C8695CF2DD12FCC
:101BB000F12CE12C082F10E088EEC82E83E0D82EFF
:101BC0002197E016F1062CF5CE01801B910B0E94A7
:101BD000C40CB82ECE010E94C40C782E6B2D70E080
:101BE000C6010E94922D072E000C880B990B0E94B3
:101BF000C1284B015C01672D70E090E080E00E94FD
:101C0000BF28A50194010E94290A8FEFE81AF80A5B
:101C1000D7CFDF91CF911F910F91FF90EF90DF9081
:101C2000CF90BF90AF909F908F907F9008951F931B
:101C3000CF93DF93EC010E94C40C182FCE010196C4
:101C40000E94C40C90E0982F8827810F911DDF918E
:101C5000CF911F910895CF92DF92EF92FF920F9351
:101C60001F93CF93DF936A017B01082F10E0C80117
:101C7000805B9F4F880F991F0E94170EBC01990F20
:101C8000880B990B0E94C12820E030E04AE754E419
:101C90000E94002BA70196010E9420296B017C0164
:101CA00082E191E00E94C40C9AE0899FB001112466
:101CB000072E000C880B990B0E94C128A7019601E2
:101CC0000E948F2A6B017C0120E030E04AEF53E450
:101CD0000E94E72BC4EFD1E018168CF420E030E42A
:101CE0004CE155E4C701B6010E94BA28C4ECD9E022
:101CF00087FF05C0C701B6010E94722BEB01C80126
:101D00000E94C40CAE01682F83EA96E0DF91CF9168
:101D10001F910F91FF90EF90DF90CF900C94780778
:101D200090E0C096880F991F860F911D880F991F0C
:101D30000C94170E7F928F929F92AF92BF92CF9288
:101D4000DF92EF92FF920F931F93CF93DF93B82E02
:101D50006A01D62FC72F60E00E94900EBC01990F38
:101D6000880B990B0E94C1287B018C0161E08B2DAF
:101D70000E94900EBC01990F880B990B0E94C128FC
:101D8000762E872E982EA92E96014D2F5C2F0E941D
:101D9000BA2887FF71C0772D682D992D8A2D272F9E
:101DA000362F492F582FB701C8010E94E72B18166C
:101DB00094F096014D2F5C2F672D782D892D9A2D4B
:101DC0000E94BA2876010D2F1C2F87FF04C0E72C34
:101DD000F82C092D1A2DCB2DD0E06E0180E3C80E12
:101DE000D11CCC0FDD1FC45FDE4FB701C8010E94BC
:101DF000722B79836883C601880F991F0E94170E82
:101E0000EC01C6010E94C40C682F880F770B880B69
:101E1000990B0E94C1289701A8010E9420296B01FB
:101E20007C01BE01DD0F880B990B0E94C1289B012C
:101E3000AC01C701B6010E948F2A0E94722B072EA7
:101E4000000C880B990B0E94C12820E030E0A9010A
:101E50000E948F2AAB01BC018B2DDF91CF911F9186
:101E60000F91FF90EF90DF90CF90BF90AF909F9039
:101E70008F907F900C942B0E7C2D6D2DCE018FCFEB
:101E80000F931F93CF938C01005E1F4FCFE0F8019B
:101E9000729162918F01072E000C880B990B0E94A2
:101EA000C128AB01BC018C2F0E949A0EC15078F75B
:101EB000CF911F910F9108952F923F924F925F9271
:101EC0006F927F928F929F92AF92BF92CF92DF924A
:101ED000EF92FF920F931F93CF93DF93CDB7DEB7AF
:101EE0002E970FB6F894DEBF0FBECDBF182F092F67
:101EF0006A017B0120E030E0A901CB01B6010E941C
:101F0000BA281816E4F0812F902F2E960FB6F89469
:101F1000DEBF0FBECDBFDF91CF911F910F91FF901C
:101F2000EF90DF90CF90BF90AF909F908F907F9079
:101F30006F905F904F903F902F900C94400F80E2F5
:101F400090E00E945A265C017091C3029090C202F8
:101F50002CE031E0DC01612E702E512C412C60E030
:101F6000772329F0643018F44BE69416A1F0F901B8
:101F700080819181F30140815181841B950B1196E1
:101F80009C938E9397FF03C0919581959109481674
:101F900059060CF42C016F5F2E5F3F4FF2E06F0E7D
:101FA000711C12966031E1F620E030E0A901C70112
:101FB000B6010E94E72B18160CF0BCC0B201550CFC
:101FC000880B990B0E94C128A70196010E94002B43
:101FD0006B017C0120E030E0A9010E94E72B20E0AA
:101FE00030E040E05FE387FDA0C0C701B6010E947A
:101FF0008F2A0E94722B7E876D87D12CC12C2D8554
:102000003E85032E000C440B550B29873A874B87DE
:102010005C874D855E854C155D050CF48EC0150101
:10202000812E902EF12CC6010D2C000CAA0BBB0B9F
:102030008D839E83AF83B8878091C302882341F04C
:1020400093E09F1528F08091C2028B3609F45FC09F
:10205000D4016D917C91072E000C880B990B0E9486
:10206000C1282B013C01ED85FE8520E030E0A9016F
:10207000EF2B09F443C06D817E818F8198850E948A
:10208000C1282BED3FE049E450E40E9420296983F8
:102090007A838B839C8369857A858B859C850E9456
:1020A000C1289B01AC0169817A818B819C810E944E
:1020B000002B0E94FB2A20E030E040E85FE30E9412
:1020C0008F2A20E030E040E05FE30E94202969830E
:1020D0007A838B839C83D1016D917C91072E000CB8
:1020E000880B990B0E94C1289B01AC0169817A8100
:1020F0008B819C810E9420299B01AC01C301B2010C
:102100000E948F2AAB01BC018F2D0E949A0EF3947E
:10211000B2E08B0E911CE2E02E0E311CF0E1FF12BA
:102120008BCF2FEFC21AD20A74CFC701B6010E941B
:102130008E2A5FCF1E861D8660CFA114B104D9F010
:10214000C5012E960FB6F894DEBF0FBECDBFDF914E
:10215000CF911F910F91FF90EF90DF90CF90BF90A4
:10216000AF909F908F907F906F905F904F903F9037
:102170002F900C94F6262E960FB6F894DEBF0FBE65
:10218000CDBFDF91CF911F910F91FF90EF90DF9026
:10219000CF90BF90AF909F908F907F906F905F9007
:1021A0004F903F902F9008952F923F924F925F92C1
:1021B0006F927F928F929F92AF92BF92CF92DF9257
:1021C000EF92FF920F931F93CF93DF93CDB7DEB7BC
:1021D0002F970FB6F894DEBF0FBECDBF4C016D83B5
:1021E00069017A01202F30E03A83298320E030E032
:1021F000A901C701B6010E94BA281816ECF01FE029
:10220000812F012E000C990B69817A81861797071F
:102210000CF453C1880D991DDC016C91062E000C45
:10222000770B880B990B0E94C128AB01BC01812F51
:102230000E949A0E1150E4CF80E190E0E981FA818A
:102240008E1B9F0B8115F0E49F0708F047C0880F95
:10225000991F009709F445C00E945A263C01B0908E
:10226000C302A090C20229813A81220F331F1301B9
:10227000D401102F50E040E0512C412C1031A0F53A
:10228000BB2029F0143018F46BE6A616F9F0CA0149
:10229000820F931F845F9E4F7C916D817603F001C6
:1022A0001124FC83EB83FC01808191816B817C8113
:1022B000861B970BF1019183808397FF03C0919553
:1022C00081959109481659060CF42C011F5F11964F
:1022D000F2E02F0E311C4E5F5F4FD0CF8FEF9FEF9C
:1022E000BBCF81E090E0B8CF20E030E0A901C7018A
:1022F000B6010E94E72B18160CF0BAC0B201550CBB
:10230000880B990B0E94C128A70196010E94002BFF
:102310006B017C0120E030E0A9010E94E72B20E066
:1023200030E040E05FE387FD9EC0C701B6010E9438
:102330008F2A0E94722B7F876E87B12CA12C6E850D
:102340007F85072E000C880B990B6A877B878C870B
:102350009D878E859F858A159B050CF490C07C8295
:102360006B829A828982102FB5010B2C000C880B8E
:10237000990B6E837F8388879987103108F07BC023
:102380008091C302882339F0143028F48091C2026E
:102390008B3609F45BC0A981BA816C912D816203EF
:1023A000B0011124072E000C880B990B0E94C12844
:1023B0006B017C016E857F8520E030E0A901672BF1
:1023C000E1F16E817F81888599850E94C1282BED7E
:1023D0003FE049E450E40E9420291B012C016A855A
:1023E0007B858C859D850E94C1289B01AC01C20123
:1023F000B1010E94002B0E94FB2A20E030E040E85F
:102400005FE30E948F2A20E030E040E05FE30E941B
:1024100020291B012C01AB81BC816D917C91072E81
:10242000000C880B990B0E94C1289B01AC01C201D2
:10243000B1010E9420299B01AC01C701B6010E9495
:102440008F2AAB01BC01812F0E949A0E1F5FE98188
:10245000FA813196FA83E9832B813C812E5F3F4FCD
:102460003C832B838ACFC701B6010E948E2A61CF9D
:102470001F861E8662CF3FEFA31AB30A6ACF61148C
:102480007104D9F0C3012F960FB6F894DEBF0FBECA
:10249000CDBFDF91CF911F910F91FF90EF90DF9013
:1024A000CF90BF90AF909F908F907F906F905F90F4
:1024B0004F903F902F900C94F6262F960FB6F894DD
:1024C000DEBF0FBECDBFDF91CF911F910F91FF9067
:1024D000EF90DF90CF90BF90AF909F908F907F90C4
:1024E0006F905F904F903F902F9008950F930E94B0
:1024F00060011092C5021092C402EAE9F4E025815D
:1025000036814781508503896785848995890E9432
:10251000D4100F9108958F929F92AF92BF92CF9255
:10252000DF92EF92FF920F931F93CF93DF93CDB77C
:10253000DEB72B970FB6F894DEBF0FBECDBF6C0190
:10254000FC0101900020E9F73297108189E11C34E9
:1025500021F087EE123509F080E080939D04C601DA
:102560000E94C60C7C018FEFE816F80609F43EC104
:10257000C7010E94C40C082FC70102960E94170EC3
:102580007C01B601CE0101960E94972E093409F014
:10259000EDC0C7010E94BF070E946001BE016F5FCE
:1025A0007F4F86EC92E00E94972E6BE771E086ECFD
:1025B00092E00E948E2E892B09F4EEC080E090E01C
:1025C000A0E0B0E480939F049093A004A093A104A2
:1025D000B093A2046FE771E086EC92E00E948E2E29
:1025E000892B09F4DDC080919E04813009F0D8C0A8
:1025F0000E94CB2724E630E040E050E00E94F4291E
:102600000E94C12820E030E040E251E40E94002B0B
:1026100020E030E040EA50E40E948E2A4B015C0149
:102620008092BC029092BD02A092BE02B092BF0204
:10263000F12CE12CC090AE04D090AF04CE0CDF1C86
:10264000F6016081062E000C770B880B990B0E9417
:10265000C128A50194010E948F2A0E94722BF601C5
:102660006083FFEFEF1AFF0A80E1E816F10411F72B
:10267000123509F099C08091A5049091A604919516
:10268000819591099093A6048093A50490E080E041
:1026900040919E04242F042E000C330B37FF03C0FF
:1026A000319521953109821793070CF089C042308A
:1026B0001CF54091A404489F9001499F300D1124BE
:1026C000E091AE04F091AF04E20FF31F2081219559
:1026D00020832091A404289FF001299FF00D11244C
:1026E0009F012E5F3F4FE091AE04F091AF04E20FE7
:1026F000F31F20812195208320919E0460E02230E9
:102700000CF462E0E62FF0E020919E0422300CF4FD
:1027100080C024E030E04091AE045091AF04E21755
:10272000F3070CF079C09F01220F331F7091A404AE
:10273000789FF001799FF00D1124E20FF31FE40F51
:10274000F51F4081518150835091A404589FD001BE
:10275000599FB00D1124E091AE04F091AF04E20F47
:10276000F31FEA0FFB1F41836F5FCCCF80919E0464
:102770000E944001A6ECB2E09701265C3240F901CC
:10278000EA0FFB1FAD01465C5240481759070CF099
:1027900003CFE491ED93F3CF80E090E0DC0112CF22
:1027A000812C912C54013CCF1C3451F00E94CB273A
:1027B00024E630E040E050E00E94F42960FD5BCF69
:1027C0001092C5021092C40220919F043091A0047F
:1027D0004091A1045091A2040091AD046091A9041C
:1027E0008091AE049091AF040E94D4102B960FB646
:1027F000F894DEBF0FBECDBFDF91CF911F910F9137
:10280000FF90EF90DF90CF90BF90AF909F908F9010
:10281000089528E030E07FCF01963ACF0F931F93C1
:10282000CF93DF93EC0188819981009759F02A8139
:102830003B812617370730F081E0DF91CF911F9160
:102840000F9108958B016F5F7F4F0E94C02D0097FD
:1028500059F0998388831B830A832C813D81232B24
:1028600059F7FC011082E8CF80E0E7CFEF92FF92AA
:102870000F931F93CF93DF936115710541F480E0AF
:10288000DF91CF911F910F91FF90EF900895411527
:102890005105B1F07B01EC010C811D81040F151F66
:1028A000B8010E940E14882351F3288139818C814C
:1028B0009D81B701820F931F0E94972E1D830C8369
:1028C00081E0DECFEF92FF920F931F93CF93DF93C0
:1028D000EC017B018A01BA010E940E1481110BC028
:1028E000CE010E946A0CCE01DF91CF911F910F9112
:1028F000FF90EF9008951D830C83B7018881998123
:102900000E94972EF0CFFB01DC0111961C921E92C3
:1029100013961C921E92129715961C921E92149753
:102920008617970759F0608171816115710521F053
:10293000448155810C9462140C946A0C0895FB0137
:1029400001900020E9F73197AF01461B570B0C941B
:1029500062140F931F93CF93DF93CDB7DEB76297C7
:102960000FB6F894DEBF0FBECDBF8C01CB01F801CE
:102970001182108213821282158214824AE0BE01F3
:102980006F5F7F4F0E947D28BE016F5F7F4FC80140
:102990000E949F1462960FB6F894DEBF0FBECDBFA3
:1029A000DF91CF911F910F910895FC011182108248
:1029B0001382128215821482FB0101900020E9F734
:1029C0003197AF01461B570B0C946214EF92FF92A4
:1029D0000F931F93CF93DF93EC018B011982188221
:1029E0001B821A821D821C82CB010E9448287C0116
:1029F000BC01CE010E940E14811109C0CE01DF91ED
:102A0000CF911F910F91FF90EF900C946A0CFD8273
:102A1000EC82B80188819981DF91CF911F910F914C
:102A2000FF90EF900C94412885ED8093BC0080913D
:102A30000D0590910E05A0910F05B0911005079618
:102A4000A11DB11D23E0B695A795979587952A9569
:102A5000D1F72091BC0024FD03C010920B0508950E
:102A600040910D0550910E0560910F057091100574
:102A7000452B462B472B69F30097A105B10541F083
:102A80002AE22A95F1F700C00197A109B109E1CF27
:102A900080910C050C94E7041F920F920FB60F92D1
:102AA00011242F933F934F935F936F937F938F9353
:102AB0009F93AF93BF93EF93FF938091B90490914D
:102AC000BA04A091BB04B091BC04892B8A2B8B2B38
:102AD000D1F19091B404E091B504F091B6048081F5
:102AE000892780838091B9049091BA04A091BB0496
:102AF000B091BC04181619061A061B069CF48091A6
:102B0000B9049091BA04A091BB04B091BC040197A0
:102B1000A109B1098093B9049093BA04A093BB04AE
:102B2000B093BC04FF91EF91BF91AF919F918F91B2
:102B30007F916F915F914F913F912F910F900FBEB9
:102B40000F901F90189580912C010E94CC03EACF22
:102B50001F920F920FB60F9211242F933F934F9312
:102B60005F936F937F938F939F93AF93BF93EF93F5
:102B7000FF9381E195E00E949D02FF91EF91BF914B
:102B8000AF919F918F917F916F915F914F913F9105
:102B90002F910F900FBE0F901F9018951F920F92BC
:102BA0000FB60F9211242F938F939F93EF93FF9360
:102BB000E0912105F09122058081E0912705F091B7
:102BC000280582FD1BC0908180912A058F5F8F733D
:102BD00020912B05821741F0E0912A05F0E0EF5E8D
:102BE000FA4F958F80932A05FF91EF919F918F91D6
:102BF0002F910F900FBE0F901F9018958081F4CFEA
:102C00001F920F920FB60F9211242F933F938F9321
:102C10009F93AF93BF938091230290912402A09140
:102C20002502B09126023091220223E0230F2D3796
:102C300058F50196A11DB11D209322028093230215
:102C400090932402A0932502B0932602809127023C
:102C500090912802A0912902B0912A020196A11D0B
:102C6000B11D8093270290932802A0932902B0936C
:102C70002A02BF91AF919F918F913F912F910F9019
:102C80000FBE0F901F90189526E8230F0296A11DE6
:102C9000B11DD2CF1F920F920FB60F9211242F9316
:102CA0003F934F935F936F937F938F939F93AF93D4
:102CB000BF93EF93FF938091B900887F803609F42A
:102CC0004AC0F0F5883209F4A7C018F5803109F43C
:102CD0009BC0B8F4882309F4F9C0883009F494C083
:102CE000FF91EF91BF91AF919F918F917F916F91E4
:102CF0005F914F913F912F910F900FBE0F901F90BA
:102D00001895883109F488C0803251F78093E9041E
:102D100014C0803409F49DC040F48033B9F3883383
:102D2000F9F68093E90485ECB0C0803509F485C0DC
:102D3000883509F496C0883499F60E941415D0CFCE
:102D4000883909F48CC038F5883729F050F4883672
:102D500011F0803729F683E080930B051092210251
:102D600057C0883809F47BC0803919F0803809F0E1
:102D7000B7CF80912102803208F071C0E09121022A
:102D800081E08E0F809321028091BB00F0E0EF5F25
:102D9000FD4F80833DC0803B39F0E0F4803A09F478
:102DA00079C0883A09F09CCF84E080930B0510929B
:102DB00000021092FF01E0912D02F0912E02099580
:102DC0008091FF0181110FC081E08093FF0110927B
:102DD000DF0109C0803C09F4A6CF883C09F4A3CFE9
:102DE000883B09F07DCFE091000281E08E0F809357
:102DF0000002F0E0E152FE4F80818093BB00909191
:102E000000028091FF0129C08091E6048093BB00FD
:102E100085EC8093BC0064CF9091E8048091E70436
:102E2000981758F5E091E80481E08E0F8093E8044C
:102E3000F0E0EB53FB4F8081E9CFE091E80481E0C3
:102E40008E0F8093E8048091BB00F0E0EB53FB4FC2
:102E500080839091E8048091E7049817C8F285E890
:102E6000D8CFE091E80481E08E0F8093E804809150
:102E7000BB00F0E0EB53FB4F80838091EA048111AB
:102E80005CCF81E08093E50484EA8093BC001092DB
:102E90000B0526CF85EC8093BC0010920B0580912A
:102EA0002102803230F4E0912102F0E0EF5FFD4F2B
:102EB00010826091210270E0E0912B02F0912C02CF
:102EC00081E092E00995109221020ACF1092E90464
:102ED00034CF1F920F920FB60F9211242F933F936E
:102EE0004F935F936F937F938F939F93AF93BF9312
:102EF000EF93FF938091D1050E9475032091D60531
:102F00003091D7052F5F3F4F3093D7052093D605DB
:102F10002091D4053091D5052536310518F094E07F
:102F20009093D0059091D005911130C0811169C066
:102F30002091D6053091D7052436310528F410921A
:102F4000D7051092D6055DC01092A2061092D50545
:102F50001092D4052091D4053091D505A9014F5F79
:102F60005F4F5093D5054093D4054091D6055091BD
:102F7000D705220F331FF901E852FA4F51834083DE
:102F80001092D7051092D60591E021C09091D005FE
:102F9000913001F58130A9F52091D4053091D50506
:102FA000A9014F5F5F4F5093D5054093D4054091E1
:102FB000D6055091D705220F331FF901E852FA4F79
:102FC000518340831092D7051092D60592E09093DA
:102FD000D00517C09091D005923061F4882309F490
:102FE000B9CF2091D6053091D7052536310548F067
:102FF00093E0EDCF9091D005933099F4882309F4B4
:103000009ECF9091D3059923A9F0811124C080917E
:10301000D205882371F08091D20561E00E949E0361
:1030200009C09091D005943061F791E09093A20689
:10303000DFCF2D9AFF91EF91BF91AF919F918F912B
:103040007F916F915F914F913F912F910F900FBEA4
:103050000F901F9018958091D205882321F08091C0
:10306000D20560E0DBCF2D98E5CFCF93DF93E1E190
:10307000F5E01382128288EE93E0A0E0B0E0848352
:103080009583A683B7832BE331E03183208325EC3E
:1030900030E03587248724EC30E03787268720EC22
:1030A00030E0318B208B21EC30E0338B228B22EC13
:1030B00030E0358B248B26EC30E0378B268B118E5D
:1030C000128E138E148EC4ECD5E01B821A828C8370
:1030D0009D83AE83BF838DE491E099838883EEEA7C
:1030E000F5E08FE591E091838083D383C2838FEFF6
:1030F0009FEF95838483168217821086118613862C
:1031000012861586148617861686118A108A24E17F
:1031100030E0338B228B958B848BE0EDF5E084E0FF
:103120008183138265E871E08AEB96E00E94D514F2
:10313000E9EAF6E081E1DF011D928A95E9F7E3EA29
:10314000F6E080E48083D283C183DF91CF9108953C
:10315000CF93DF93CDB7DEB7AC970FB6F894DEBF51
:103160000FBECDBF789484B5826084BD84B5816084
:1031700084BD85B5826085BD85B5816085BD809142
:103180006E00816080936E001092810080918100BA
:1031900082608093810080918100816080938100B2
:1031A000809180008160809380008091B100846074
:1031B0008093B1008091B00081608093B0008091D5
:1031C0007A00846080937A0080917A008260809394
:1031D0007A0080917A00816080937A0080917A00F1
:1031E000806880937A001092C100E0912105F091EF
:1031F000220582E08083E0911D05F0911E0510827A
:10320000E0911F05F091200580E18083109229054F
:10321000E0912505F091260586E08083E091230565
:10322000F0912405808180618083E0912305F091F5
:103230002405808188608083E0912305F091240536
:10324000808180688083E0912305F091240580814E
:103250008F7D808385E090E0A0E0B0E0809315054D
:1032600090931605A0931705B09318051092C1020C
:103270001092C0021092B1041092B0040E94C904CE
:103280008DE192E090932E0280932D028EE192E0E8
:1032900090932C0280932B0288E08093B80020E06A
:1032A00030E048E452E460E070E080EA91E40E949B
:1032B000290A8BE60E9478098AE591E00E946C0950
:1032C00083E591E00E946C098AE491E00E946C0918
:1032D0008AE191E00E94C40C882321F08FEF93E0F3
:1032E0000E94C40D80E391E00E94110345EAE42EA0
:1032F00042E0F42E00E110E0C8010E94C40CD701A6
:103300008D937D010F5F1F4F00321105A9F71092B9
:10331000C1021092C0021092B1041092B0040E9437
:10332000C9048DE192E090932E0280932D028EE1EC
:1033300092E090932C0280932B0240E860E083EAB5
:1033400096E00E9441076AE070E080E090E00E9411
:10335000630440E050E06AE774E483EA96E00E9488
:10336000B80880E498E7ADE7B1E08093A6069093B3
:10337000A706A093A806B093A90683E191E00E9456
:10338000170E092E000CAA0BBB0BAC01BD01485D4A
:10339000594561097109453951416105710508F0C7
:1033A0006BC080932F0290933002A0933102B093B0
:1033B000320260912F02709130028091310290911F
:1033C00032020E94C12820E030E04AE754E40E9423
:1033D000002B6B017C014B015C01AC019B010E9445
:1033E000442C882309F44DC088E891E00E945B09D1
:1033F0000E94680920912F023091300240913102E1
:1034000050913202A8EEB3E00E94132A6B017C01B6
:1034100040E050E060E773E483EA96E00E94B80879
:10342000C092AC06D092AD06E092AE06F092AF0626
:10343000C092A606D092A706E092A806F092A9062E
:103440000E94B10787E391E00E946C0990E080E060
:103450008C010F5F1F4F805C9E4F0E94C40C080FB1
:10346000111DC801805C9E4F0E94C40C8E3409F46B
:1034700098C0C8010496ECCF88EA91E6A0E0B0E0DD
:1034800090CF26013701E89477F82FEF3FEF4FE711
:103490005FE7C301B2010E94442C81110DC02FEFE0
:1034A0003FEF4FE75FE7C301B2010E94BA28181649
:1034B0001CF48CE891E09ACF2FEF3FEF4FE75FE4E9
:1034C000C701B6010E94E72B18161CF480E991E0B1
:1034D0008DCF2FEF3FEF4FE75FECC701B6010E94A2
:1034E000BA2887FDF3CF20E030E0A901C701B6017B
:1034F0000E94BA2887FF09C08DE20E940C03460192
:103500005701B7FAB094B7F8B0942AE037ED43EA20
:103510005BE3C501B4010E948F2A4B015C010E944C
:10352000792B6B017C010E94BF289B01AC01C50176
:10353000B4010E948E2A4B015C014AE0C701B6012A
:103540000E9497098EE20E940C0320E030E040E2E6
:1035500051E4C501B4010E9420294B015C010E9485
:10356000792B6B01F12CE12C4AE0C701B6010E94D6
:103570009709C701B6010E94BF289B01AC01C50194
:10358000B4010E948E2A20E030E040E251E40E9423
:1035900020290E94792B90E080E04AE00E94970960
:1035A00027CF68E071E0C8018E5B9E4F0E949D0CA2
:1035B00061E083E00E94F80380E10E942904BC01DD
:1035C000990F880B990B611571058105910511F013
:1035D0000E941A2886E090E00E945A268C01DC01A5
:1035E00011961C921E9213961C921E92129715967B
:1035F0001C921E9214978DE391E00E946C09109327
:10360000BB020093BA028CE091E00E94400F64EF8D
:1036100071E080E090E00E9463041092510283E424
:1036200091E00E946C0938EE232E33E0332E0E9485
:10363000960428E833E140E050E00E945D2A809142
:10364000000190910101092E000CAA0BBB0B8217FF
:103650009307A407B5070CF04BC079013093010123
:103660002093000185E10E9429048C018A38924050
:10367000DCF580913302909134020817190721F08C
:10368000E2E0EE16F10484F585E691E00E94110374
:10369000C80163E670E00E94922D6B01072E000CBA
:1036A000EE08FF0877FFC1C08DE20E940C03662779
:1036B0007727CB016C197D098E099F094AE00E948A
:1036C000970986E50E9478098AE191E00E94C40C7E
:1036D000882321F081ED93E00E94C40D60ED77E036
:1036E00080E090E00E946304109334020093330260
:1036F0000091BA021091BB02D8018D919C91892B47
:1037000009F097C00E949604C0903502D09036020E
:10371000E0903702F09038026C197D098E099F09FC
:10372000C0900201D0900301E0900401F0900501E7
:10373000C616D706E806F9060CF07BC08091500249
:103740008111E9C188ED95E090934702809346028C
:103750008091D4059091D5059093490280934802B9
:103760008091A20690E090934B0280934A02809150
:10377000D005833009F0CFC18091DA059091DB0547
:10378000875891098E35910508F0BFC18091D40505
:103790009091D505049709F087C18091DC0590913F
:1037A000DD058097479708F07FC18091DE059091F5
:1037B000DF050997099708F077C11092450210922A
:1037C00044028FEF9FEFDC0180933E0290933F0213
:1037D000A0934002B093410283E090E090933B02BB
:1037E00080933A0280913E0290913F02A091400264
:1037F000B0914102892F9A2FAB2FBB278A3509F44C
:10380000DBC208F092C2823209F4BEC208F077C26D
:10381000803109F4CEC208F025C263EA71E082303B
:1038200009F428C264EB71E0D2C24AE0C701B601D4
:1038300046CFF80180819181181619060CF08DC0D1
:103840000E949604C0903502D0903602E090370274
:10385000F09038026C197D098E099F09C090020111
:10386000D0900301E0900401F0900501C616D70640
:10387000E806F9060CF071C0D8011296ED91FC91A2
:10388000F12CE12C309711F0E080F180F7014081BC
:103890004093C202838194819093B6028093B502D3
:1038A00085809680092C000CAA08BB088092020132
:1038B00090920301A0920401B0920501A181B2810E
:1038C000E6ECF2E09F01265C3240281739071CF431
:1038D0002D912193F7CF41542EE74A3108F020E093
:1038E0008A539D4FDC012C930E949604609335020D
:1038F00070933602809337029093380285E080936C
:10390000B902E114F10451F0F7018181928100972D
:1039100011F00E94F626C7010E94F626D8011296E1
:103920008D919C91009711F40C944D26DC01129618
:10393000ED91FC91D8011396FC93EE93129730977A
:1039400009F4B0C0158214820E94F626D8018D9128
:103950009C91119701978D939C930091B90200233C
:1039600009F4A8C3F090C2028F2D0F2C000C990B04
:103970000E947D2E182F8093B8020530F0F4823615
:10398000E1F0ECE4FE16C9F0F9E4FF16B1F022E52F
:10399000F21699F087E5F81681F0602F70E0615F0C
:1039A0007F4F072E000C880B990B0E94C12820E046
:1039B00030E040EA50E40E94290A809109018823FE
:1039C00041F01B3631F488EF9BE00E94A80810926A
:1039D00009018091B7028356823050F48091C2026F
:1039E000833631F081E08093080187E40E947809F2
:1039F0008091C202803751F080910701811106C089
:103A000081E08093070180E70E9478099090C202CC
:103A1000E6ECE90DEE3308F005C30E2E000CFF0BAB
:103A2000EC5EF24E0C94A62D37213221122012208A
:103A300012200A201220122090231220122012207D
:103A40001220CA2012206D221220EC2385236D2221
:103A500012201220122012206D221220D6231220B2
:103A600012206D2212201220122012201220122069
:103A70001220122012209321AA21AA2169241220A7
:103A80001220CA201220AA21E5204F241220AA21A8
:103A900012201220D120122012203A2112201220AE
:103AA0001220AA21F8014ECF8091D4059091D5051E
:103AB0008434910550F18091DC059091DD058154AD
:103AC00091098F9710F590E080E040E050E0BA0156
:103AD000FC01E252FA4F208131812950310929300D
:103AE000310598F4FC01E052FA4F208131812751D1
:103AF00031092231310508F497C0208131812650E7
:103B000031092730310508F4A8C01092D005109271
:103B1000D5051092D40581E195E00E947D0218162A
:103B200019060CF06AC081E08093500281E195E0B3
:103B30000E945B02D82E8093C202082E000C990BC3
:103B40000E947D2E182F8093B80282E08093B902E4
:103B500061E070E080E090E00E946304BFEB5B2EC8
:103B60005D0CF9E1AEE7CA2EF51510F4FAE0CF2EA0
:103B70000E9496044B015C01412EE89442F881E1D9
:103B800095E00E947D02892B09F4FCC10091B502E9
:103B90001091B6022BE6D21619F089E6481207C03A
:103BA00080910A0190910B01081719072CF4033D2D
:103BB00091E019070CF4CCC18EEA91E00E946C09E7
:103BC00064EF71E080E090E00E94630481E195E0A1
:103BD0000E945B0281E195E00E947D02892BB1F792
:103BE0008091C2020E9478098BE68093C2026BEA40
:103BF00071E086EC92E00E94972E0E94960420913C
:103C0000B9022150223008F0EBC10E94960468549A
:103C1000744F8F4F9F4F60934C0270934D0280936F
:103C20004E0290934F0299CE440F551F661F771F87
:103C3000416004968038910509F04ACF80E290E017
:103C4000909345028093440240933E0250933F027A
:103C50006093400270934102BFCD440F551F661F11
:103C6000771FE7CF823109F4B0C06BE871E088318B
:103C700009F0D8CDCE0181960E94E61467E971E083
:103C8000CE0181960E94530C882309F4A5C068E7F1
:103C900071E08AEB96E00E949F146AEB76E0CE0119
:103CA00087960E948314CE0181960E947C0C64EB5F
:103CB00071E0CE0187960E94530C811115C06FA14F
:103CC00078A58BA59CA5019709F02EC161157105FA
:103CD00021F41092390269E372E0FB018081809344
:103CE000C20281E08093B9021092D0051092D505EE
:103CF0001092D405CE0187960E947C0C0CCF8234A2
:103D000009F45DC048F4803309F44DC061E871E006
:103D1000883309F4AFCF86CD8A3409F453C060E705
:103D200071E0823509F4A6CF7DCD823A39F198F45D
:103D30008A37E1F140F4823621F168E971E0883692
:103D400009F498CF6FCD803959F165E971E0883970
:103D500009F490CF67CD823CD1F040F4883AE9F085
:103D600062E971E0803B09F485CF5CCD803E91F043
:103D700068EA71E0823E09F47DCF54CD6CEA71E0CF
:103D800079CF6AEA71E076CF66EA71E073CF61EAD3
:103D900071E070CF6FE971E06DCF6DE971E06ACFCE
:103DA0006BE971E067CF6FE871E064CF67E871E0BD
:103DB00061CF64E871E05ECF6DE771E05BCF6AE7E9
:103DC00071E058CF65E771E055CF64E971E0CE014D
:103DD00081960E94D51452CF69E971E0CE01819697
:103DE0000E94530C811111C06BE971E0CE018196E4
:103DF0000E94530C811109C06DE971E0CE018196DA
:103E00000E94530C882309F442C08DA19EA1892BE6
:103E100021F0E9A1FAA1309721F410923902E9E3E7
:103E2000F2E0108110930601163471F468E771E036
:103E30008AEB96E00E94530C882331F065E871E02C
:103E40008AEB96E00E949F146AEB76E0CE01019621
:103E50000E9483141FA318A641E050E0BE01695DD3
:103E60007F4FCE0101960E943614811104C0CE010D
:103E700001960E946A0CBE016F5F7F4FCE0187964C
:103E80000E948314CE0101960E947C0C0CCF6FE936
:103E900071E0CE0181960E94530C09A11AA18111F3
:103EA00031C062EA71E0CE0181960E94530C81110B
:103EB00029C065EA71E0CE0181960E94530C811100
:103EC00021C065E871E0CE0181960E94530C8111FA
:103ED00019C068EA71E0CE0181960E94530C8111ED
:103EE00011C018A70FA38BA19CA19AA789A78DA188
:103EF0009EA19CA78BA71AA219A21CA21BA21EA25C
:103F00001DA2D1CE0115110551F04DA15EA1B80140
:103F10008AEB96E00E9462141091060195CF8AEB1D
:103F200096E00E946A0CF8CF8BE68093C20286EC82
:103F300092E00E94972E6BEA71E086EC92E00E947C
:103F40008E2E892B09F0CDCE86E480930601C9CE52
:103F500081E195E00E945B0298012F5F3F4F309313
:103F6000B6022093B502F801EA53FD4F808381E148
:103F700095E00E947D02892B09F008CE0E949604EC
:103F80004B015C010091B5021091B6027801A1E0ED
:103F9000EA1AF108F701EA53FD4F3F0180818C15C1
:103FA00061F00E949604681979098A099B09683CA6
:103FB0007105810591050CF4E2CDD3018C91C812F5
:103FC00001C087011093B6020093B502B9E18EE7F4
:103FD000B51508F480E0F801EA53FD4F80830DCE5B
:103FE0002091C202233609F4B8CC00914C02109102
:103FF0004D0220914E0230914F02601B710B820BDB
:10400000930B16161706180619060CF0A6CC10927C
:104010005002A3CC8EEE91E00E946C0985EE91E0F7
:104020000E946C098091C2028B3621F490919E040B
:104030001916CCF40E9478098091B7028B3699F456
:104040008091C2028A3661F0803751F08091B802C7
:10405000873631F0982F9B7F993611F0863719F407
:104060008BE68093C2021091C2021B3691F48091BC
:10407000C602882371F06EE671E086EC92E00E9441
:104080008E2E892B31F066EC72E081E592E00E9481
:10409000972E1092B9021093B7021B3629F01356CF
:1040A000123010F01092C2021092C6021092B602A4
:1040B0001092B5028091C2028B3609F0FDC4E090E7
:1040C0009E04E7FE1FC48091AC04DD24DA94D80E70
:1040D000823008F4D12C10E03EECC32E42E3B42E23
:1040E000212F30E080919E04082E000C990B97FF41
:1040F00003C0919581959109281739070CF0C1C427
:10410000E090AE04F090AF048091A404189FE00CFE
:10411000F11C1124D70150966C91062E000C770BE0
:10412000880B990B0E94C12820E030E040E85EE354
:104130000E9420299B01AC0100E06091A904C70105
:104140000E94D4108091A404E091AE04F091AF04D9
:10415000189FE00DF11D1124618916160CF0CDC3D6
:10416000BB2D6B02B0011124072E000C880B990B9C
:104170000E946304DD2061F0112351F08091AB04B3
:10418000181306C01091AA0411501D140CF4DA94EF
:104190001F5FA6CF97E487E6991244CF8093C202AF
:1041A00041CF8091070191E0811190E09093070148
:1041B000882311F0E0E59E2E9092C202811102C088
:1041C0008BE6ECCF0E94B1072DCF8DE30E940C034C
:1041D0008091B5029091B602892B71F086EC92E045
:1041E0000E942328880F991FFC01E45FFE4F808105
:1041F00091810E94FB0916CF0E94DB0964EB71E0FC
:10420000CE0181960E94D5146CE0E62E61E0F62E78
:104210000CE211E0D7016D917D917D01CE010196F7
:104220000E94A9144D815E8169817A81CE018196B7
:104230000E943614CE0101960E947C0C42E050E0B0
:1042400062EB71E0CE0181960E9436140E151F05B7
:1042500009F7CE0181960E948409CE0181960E94C1
:104260007C0CE0CE88EF9BE00E94A808DBCE88E7BC
:104270009CE0FACF8FED91E00E946C0945EAC42ED4
:1042800042E0D42E50E4E52EF12C00E110E0F601DE
:10429000B1906F01C8010E94DE29B81621F06B2D84
:1042A000C8010E94E629C7010E94170E3C01C801FF
:1042B00080960E94C40C582EF60131976081062E1C
:1042C000000C770B880B990B0E94C1284B015C01F5
:1042D000652D550C770B880B990B0E94C1289B010B
:1042E000AC01C501B4010E9420294B015C01B3015E
:1042F000770C880B990B0E94C1289B01AC01C5016A
:10430000B4010E948F2A0E94722BC70180960E94DE
:104310009D0C0F5F1F4FF2E0EF0EF11C00321105F4
:1043200009F0B5CF7FCE87ED91E00E946C0905EAD8
:1043300012E030E1E32EF12CC7010E94C40CD80139
:104340008D938D01BFEFEB1AFB0AE0E2EE16F1044C
:1043500099F768CEF9E69F1209C08091B502909155
:10436000B602892B19F41092C3025CCE1092A402FB
:10437000709008019CE0C92E91E0D92ECE010196E3
:104380007C0104E612E02CE2822E21E0922E5C01F8
:10439000D6016D917D916D01072E000C880B990B54
:1043A0000E94C12820E030E0A901772029F0F8011F
:1043B00020813181428153810E948E2A0E94722B7A
:1043C000D7016D937D937D010C5F1F4F8C149D046D
:1043D000F9F66EEA71E086EC92E00E9451286C01D9
:1043E000C114D10409F446C0C6010E9423288C01DF
:1043F00061EB71E090E080E00E9451286C01F12CAB
:10440000E12C88248394912C009769F00E94232842
:104410007C0161EB71E090E080E00E9451286C012A
:1044200082E0882E912C8091C202982F9B7F993632
:1044300009F07CC30031110598F49801220F331F55
:10444000F501E20FF31FF182E08204301105CCF494
:10445000245A3D4FF901F182E082F1E0F093C3026A
:104460008D36E9F440E050E060E070E4C5010E9460
:104470005C0FF5C3F12CE12C10E000E0912C812CB5
:10448000D2CF21E02093A402EBCF873741F4C801BB
:1044900099270E94C40CB7010E945C08E0C38236D1
:1044A00009F0DDC3E114F10409F4D9C3C101B70176
:1044B0000E94922D072E000C880B990B0E94C12898
:1044C0002B013C01B801110F880B990B0E94C128E8
:1044D000A30192010E94290AC2C38091B502909162
:1044E000B60202970CF43FCF1092A402809008010C
:1044F0007CE0A72E71E0B72EDE0111967D0104E667
:1045000012E0ECE26E2EE1E07E2E6D01F50161918C
:1045100071915F01072E000C880B990B0E94C12836
:1045200020E030E0A901882029F0D8012D913D91AB
:104530004D915C910E948E2A0E94722BF70161932B
:1045400071937F010C5F1F4F6A147B04F9F6F7E546
:1045500083E09F1282E0A82EB12C06EC12E0F12C31
:10456000E12C772473948091B5029091B602E816FD
:10457000F9060CF0B8C0D8014C914031B0F4119656
:104580002C91022E000C330B842F880F990BF6010F
:10459000E80FF91F318320834430BCF4845A9D4FC7
:1045A000FC01318320837092C3028091C2028D345A
:1045B00079F440E050E060E070E4C6010E945C0FD6
:1045C000EA0CFB1C0A0D1B1DCECF7092A402EDCF8E
:1045D000873509F06AC061E0D80111968C910E947C
:1045E000F803F8018081813609F059C092808180FA
:1045F00061E0882D0E94F803911005C060E0882DCD
:104600000E949E03DDCFFFEF9F1202C061E0F7CF53
:10461000E82DF0E0EE54FE4FE491E33021F138F460
:10462000E130B9F0E230D1F097FCF0CFE7CFE730DE
:1046300031F1E83061F1E430B9F7809180008062B7
:1046400080938000892D90E090938B0080938A0066
:10465000B7CF84B5806884BD97BCB2CF84B5806283
:1046600084BD98BCADCF809180008068809380002D
:10467000892D90E09093890080938800A1CF80914C
:10468000B00080688093B0009092B30099CF809181
:10469000B00080628093B0009092B40091CF8436D5
:1046A00009F08ECF62818181ABCF823509F088CF4E
:1046B0008DE30E940C0360E0F80181810E94F80301
:1046C000D8018C91813639F411968C910E9429047D
:1046D0000E94FB0975CF843609F072CFF801818101
:1046E0000E947503F5CF8091A402811105C08091CD
:1046F000B7028B3609F496CC40E050E060E870E4F5
:10470000C6010E945C0FC601C5C200E020E030E097
:1047100040E050E461E086EC92E00E94D41082CC4C
:104720000091B5021091B602023011057CF1159589
:104730000795912CA92CB12CA016B1060CF0B1C292
:10474000AA0CBB1CC5018A539D4F5C01DC0111966C
:104750006C91062E000C770BC1010E94922D072E42
:10476000000C880B990B0E94C1286B017C01F5019C
:104770006081062E000C770B880B990B0E94C128D4
:10478000A70196010E94290A9394D4CF8AE191E06F
:104790000E94C40C2AE131E03A83298361E081114F
:1047A00060E0CE0101960E94840C3CCC86E191E051
:1047B0000E94170E0E94BF070E9476128091C202CB
:1047C0000E9478098BE68093C20265EB71E086EC6B
:1047D00092E00E94972E26CC86E191E00E94170E6F
:1047E0007C018091C60280939E040E944001019644
:1047F0006C018E0D9F1D10E000E08F3F9F4138F04F
:1048000086EC91E00E946C090E947612DBCF1C14AA
:104810001D04D4F721E02093B30484E58093B2040F
:104820001092B1041092B0046F2D70E084EC95E00A
:104830000E947107B701772784EC95E00E94710709
:104840003801D801AA53BD4F4D012801B0E14B0EEC
:10485000511C0F5F1F4FF40161914F0184EC95E0F3
:104860000E9427065801AE0CBF1CA618B708F1E03D
:10487000CF1AD10841F0C5018F719927892B19F002
:104880004016510631F784EC95E00E94560666E02A
:1048900070E080E090E00E9463047501B8CF66ECA0
:1048A00072E086E691E00E948E2E892B69F066EC1C
:1048B00072E081E592E00E948E2E892B29F480918E
:1048C0009E0482300CF0F0C186EC92E00E948B12C4
:1048D000A9CB69EB71E086EC92E00E94972E86EC02
:1048E00092E00E948B120E94B10710920801109270
:1048F000C30287E60E94780995CBEC2D6E02B001C9
:10490000112432CC2E2D0E2C000C330B80919A04E6
:10491000803108F44DC010929A04809107014091B3
:10492000C4025091C502840F952F911D82179307E1
:10493000DCF59093C5028093C40280919A04843080
:1049400019F488E080939A04F0909A040F2D10E0F7
:10495000F1E0FE15ACF58091AD04F816D8F1409168
:10496000A4042091C4023091C502429FC001439F1C
:10497000900D11242091AD04080F191F021B11097D
:104980008091AE049091AF04080F191F6091A904A3
:10499000D8012C912603B0011124072E000C880B9E
:1049A000990B0E94C12863C01092C5021092C402E4
:1049B00080919A04823009F688E080939A04BDCFF2
:1049C0002130310561F623E02F1548F28091C302B2
:1049D000882329F28091C30281117EC083E08F1564
:1049E00008F47AC091E0812C912C5401F91659F009
:1049F00060919D04062E000C770B880B990B0E948A
:104A0000C1284B015C010E5F1F4F8091C402909141
:104A1000C502089FB001099F700D189F700D1124E9
:104A2000072E000C880B990B0E94C1282BED3FE04C
:104A300049E450E40E9420292B013C016E2DEE0C2C
:104A4000770B880B990B0E94C1289B01AC01C30115
:104A5000B2010E94002B0E943C2C20E030E040E29A
:104A600051E40E942029A50194010E948F2AAB01E4
:104A7000BC018F2D0E949A0E80919A048F5F8093C3
:104A80009A0483E49DE00197F1F780919E0487FFEB
:104A900013C08CE091E00E94C901E4E6F2E084EAF0
:104AA00092E011921192119211928E179F07C9F7FD
:104AB0008091C2020E94780980E090E0892B11F475
:104AC0000C94171B0E948902882311F40C94171B65
:104AD0000E9400000C94171BF801EE0FFF1FE45A10
:104AE000FD4F60817181072E000C880B990B0E948D
:104AF000C1284B015C016091080170E090E080E00A
:104B00000E94C128000F111F000F111FF801EC595E
:104B1000FD4F20813181428153810E9420299B01D8
:104B2000AC01C501B4010E948E2AA1CF833609F0E1
:104B3000ACCC109208018091B702833689F088E7E7
:104B40009CE00E94A80881E0809309016FE771E072
:104B500086EC92E00E94972E86EC92E00E948B12E7
:104B6000D801AB55BD4F3D01B2E08B16910411F455
:104B7000F301E082C8018096880F991F0E94170EEA
:104B80007C01C8019927C0960E94C40C182FD3013C
:104B90006C91062E000C770B880B990B0E94C12894
:104BA0002B013C01612F110F770B880B990B0E9491
:104BB000C1289B01AC01C301B2010E9420292B0135
:104BC0003C01B701FF0C880B990B0E94C1289B0187
:104BD000AC01C301B2010E948F2A0E94722B072EE2
:104BE000000C880B990B0E94C128AB01BC01802FDF
:104BF0000E942B0E0E94DB0964EB71E0CE018796C8
:104C00000E94D51405EA12E0F80161918F01062E89
:104C1000000C770BCE0181960E94A9144DA15EA1D4
:104C200069A17AA1CE0187960E943614CE018196A1
:104C30000E947C0C42E050E062EB71E0CE0187966E
:104C40000E94361485EB92E080179107E9F6CE01B9
:104C500087960E948409CE0187960E947C0CC1141D
:104C6000D10409F0BDCB8091C2028B7F893609F057
:104C7000D9C98091A402811105C08091B7028B36F9
:104C800009F4D0C940E050E060E870E4C5010E943A
:104C90005C0FC5010E94C901C5C90091B9020C94FD
:104CA000B21C8091C202C6C9892DC0C98AEB96E0A8
:104CB0000C947C0C0F931F93CF93DF93823091055C
:104CC00010F482E090E0E091C406F091C50630E077
:104CD00020E0B0E0A0E0309799F42115310509F407
:104CE0004AC0281B390B24303105D8F58A819B81B5
:104CF0006115710589F1FB0193838283FE0111C067
:104D0000408151810281138148175907E0F048170B
:104D1000590799F4109761F012960C931297139615
:104D20001C933296CF01DF91CF911F910F9108957F
:104D30000093C4061093C506F4CF2115310551F038
:104D40004217530738F0A901DB019A01BD01DF01C9
:104D5000F801C1CFEF01F9CF9093C5068093C40647
:104D6000CDCFFE01E20FF31F8193919322503109C1
:104D700039832883D7CF2091C2063091C306232BD5
:104D800041F420912F01309130013093C3062093DC
:104D9000C20620912D0130912E012115310541F4DB
:104DA0002DB73EB74091310150913201241B350B94
:104DB000E091C206F091C306E217F307A0F42E1BA0
:104DC0003F0B2817390778F0AC014E5F5F4F24176F
:104DD000350748F04E0F5F1F5093C3064093C2063D
:104DE000819391939FCFF0E0E0E09CCFCF93DF934E
:104DF0000097E9F0FC01329713821282A091C40659
:104E0000B091C506ED0130E020E01097A1F42081BB
:104E10003181820F931F2091C2063091C30628175B
:104E2000390709F061C0F093C306E093C206DF9131
:104E3000CF910895EA01CE17DF07E8F54A815B813B
:104E40009E0141155105B1F7E901FB83EA834991C0
:104E50005991C40FD51FEC17FD0761F48081918132
:104E60000296840F951FE90199838883828193813B
:104E70009B838A83F0E0E0E012968D919C911397DA
:104E80000097B9F52D913C911197CD010296820FB3
:104E9000931F2091C2063091C3062817390739F6AF
:104EA000309751F51092C5061092C406B093C30610
:104EB000A093C206BCCFD383C28340815181840FAB
:104EC000951FC817D90761F44E5F5F4F888199819C
:104ED000480F591F518340838A819B81938382832A
:104EE0002115310509F0B0CFF093C506E093C40653
:104EF0009ECFFD01DC01C0CF13821282D7CF8F92EB
:104F00009F92AF92BF92CF92DF92EF92FF92CF9398
:104F1000DF93EC01688179818A819B81611571053C
:104F20008105910521F464E279ED8BE597E02DE1AF
:104F300033EF41E050E00E94F42949015A019B01FE
:104F4000AC01A7EAB1E40E94132A6B017C01ACEE2C
:104F5000B4EFA50194010E94212AC60ED71EE81EB7
:104F6000F91EF7FE06C081E0C81AD108E10880E802
:104F7000F80AC882D982EA82FB82C701B6019F770C
:104F8000DF91CF91FF90EF90DF90CF90BF90AF90E7
:104F90009F908F9008958F929F92AF92BF92CF92E1
:104FA000DF92EF92FF926091330170913401809112
:104FB000350190913601611571058105910521F446
:104FC00064E279ED8BE597E02DE133EF41E050E0CD
:104FD0000E94F42949015A019B01AC01A7EAB1E4FE
:104FE0000E94132A6B017C01ACEEB4EFA501940181
:104FF0000E94212AC60ED71EE81EF91EF7FE06C023
:1050000081E0C81AD108E10880E8F80AC0923301AB
:10501000D0923401E0923501F0923601C701B60119
:105020009F77FF90EF90DF90CF90BF90AF909F90D1
:105030008F9008956093330170933401809335010C
:10504000909336010895FC0188279927E8942191CF
:105050002032E9F3293010F02E30C8F32B3241F022
:105060002D3239F4689404C00E948828820F911D63
:10507000219120532A30C0F31EF4909581959F4FC3
:105080000895FB01DC0105900D920020E1F70895E1
:10509000FC0105900020E9F7809590958E0F9F1FE9
:1050A000089540EC56E00E9456280895FA01A19117
:1050B000B081009719F41097E1F0CD01DC01CD012A
:1050C0000D90002011F4C00113C0FB012191222397
:1050D00019F02015D9F7F3CFFB012191201519F410
:1050E0001E92119606C02223C1F70D900020A1F751
:1050F000D001FA01A193B0830895BB274A3031F45F
:10510000992322F4BDE2909581959F4F0C949128AC
:105110007AE0979F902D879F802D910D11240895FF
:10512000BB27FB015527AA27880F991FAA1FA41781
:1051300010F0A41B83955051B9F7A05DAA3308F075
:10514000A95DA193009779F7B111B1931192CB01A9
:105150000C94AA28DC01FC01672F71917723E1F7F9
:10516000329704C07C916D9370836291AE17BF0734
:10517000C8F308950E94FC2808F481E00895E8949B
:1051800009C097FB3EF490958095709561957F4F8F
:105190008F4F9F4F9923A9F0F92F96E9BB2793953D
:1051A000F695879577956795B795F111F8CFFAF44D
:1051B000BB0F11F460FF1BC06F5F7F4F8F4F9F4F7E
:1051C00016C0882311F096E911C0772321F09EE8DC
:1051D000872F762F05C0662371F096E8862F70E042
:1051E00060E02AF09A95660F771F881FDAF7880F1C
:1051F0009695879597F90895990F0008550FAA0B72
:10520000E0E8FEEF16161706E807F907C0F01216D9
:105210001306E407F50798F0621B730B840B950BDC
:1052200039F40A2661F0232B242B252B21F4089531
:105230000A2609F4A140A6958FEF811D811D0895CE
:105240000E9433290C94A4290E94962938F00E94C8
:105250009D2920F0952311F00C948D290C9493290D
:1052600011240C94D8290E94B52970F3959FC1F39D
:10527000950F50E0551F629FF001729FBB27F00D04
:10528000B11D639FAA27F00DB11DAA1F649F662759
:10529000B00DA11D661F829F2227B00DA11D621FA8
:1052A000739FB00DA11D621F839FA00D611D221F62
:1052B000749F3327A00D611D231F849F600D211D46
:1052C000822F762F6A2F11249F5750409AF0F1F0C9
:1052D00088234AF0EE0FFF1FBB1F661F771F881F32
:1052E00091505040A9F79E3F510580F00C948D29B4
:1052F0000C94D8295F3FE4F3983ED4F386957795D4
:105300006795B795F795E7959F5FC1F7FE2B880FD7
:10531000911D9695879597F9089597F99F6780E86D
:1053200070E060E008959FEF80EC089500240A94F7
:105330001616170618060906089500240A94121670
:105340001306140605060895092E0394000C11F4A3
:10535000882352F0BB0F40F4BF2B11F460FF04C050
:105360006F5F7F4F8F4F9F4F089557FD9058440FA9
:10537000551F59F05F3F71F04795880F97FB991FB4
:1053800061F09F3F79F08795089512161306140671
:10539000551FF2CF4695F1DF08C0161617061806FE
:1053A000991FF1CF86957105610508940895E894D9
:1053B000BB2766277727CB0197F90895F999FECF88
:1053C00092BD81BDF89A992780B50895262FF99945
:1053D000FECF1FBA92BD81BD20BD0FB6F894FA9AD8
:1053E000F99A0FBE01960895052E97FB1EF40094BE
:1053F0000E940B2A57FD07D00E945D2A07FC03D0AC
:105400004EF40C940B2A50954095309521953F4FC2
:105410004F4F5F4F089590958095709561957F4FA0
:105420008F4F9F4F08950E947F2AA59F900DB49F94
:10543000900DA49F800D911D11240895B7FF0C9429
:10544000132A0E94132A821B930B08952F923F92D6
:105450004F925F926F927F928F929F92AF92BF9284
:10546000CF92DF92EF92FF920F931F93CF93DF9330
:10547000CDB7DEB7CA1BDB0B0FB6F894DEBF0FBE8D
:10548000CDBF09942A88398848885F846E847D84DA
:105490008C849B84AA84B984C884DF80EE80FD80DC
:1054A0000C811B81AA81B981CE0FD11D0FB6F89452
:1054B000DEBF0FBECDBFED010895A1E21A2EAA1BDB
:1054C000BB1BFD010DC0AA1FBB1FEE1FFF1FA217B4
:1054D000B307E407F50720F0A21BB30BE40BF50BB1
:1054E000661F771F881F991F1A9469F7609570953A
:1054F000809590959B01AC01BD01CF010895A29FBD
:10550000B001B39FC001A39F700D811D1124911D97
:10551000B29F700D811D1124911D08955058BB2715
:10552000AA270E94A62A0C94A4290E94962938F042
:105530000E949D2920F039F49F3F19F426F40C9421
:1055400093290EF4E095E7FB0C948D29E92F0E9436
:10555000B52958F3BA17620773078407950720F037
:1055600079F4A6F50C94D7290EF4E0950B2EBA2FFA
:10557000A02D0B01B90190010C01CA01A001112459
:10558000FF27591B99F0593F50F4503E68F11A1605
:10559000F040A22F232F342F4427585FF3CF469596
:1055A00037952795A795F0405395C9F77EF41F16B8
:1055B000BA0B620B730B840BBAF09150A1F0FF0F82
:1055C000BB1F661F771F881FC2F70EC0BA0F621F6E
:1055D000731F841F48F4879577956795B795F7955E
:1055E0009E3F08F0B0CF9395880F08F09927EE0FF3
:1055F0009795879508950E94AA2BE3950C94D32B39
:105600000E94142B0C94A4290E949D2958F00E94FA
:10561000962940F029F45F3F29F00C948D2951110F
:105620000C94D8290C9493290E94B52968F39923E6
:10563000B1F3552391F3951B550BBB27AA2762178E
:105640007307840738F09F5F5F4F220F331F441F9B
:10565000AA1FA9F335D00E2E3AF0E0E832D09150CF
:105660005040E695001CCAF72BD0FE2F29D0660FBC
:10567000771F881FBB1F261737074807AB07B0E8FF
:1056800009F0BB0B802DBF01FF2793585F4F3AF005
:105690009E3F510578F00C948D290C94D8295F3FDA
:1056A000E4F3983ED4F3869577956795B795F7958B
:1056B0009F5FC9F7880F911D9695879597F9089573
:1056C000E1E0660F771F881FBB1F6217730784070F
:1056D000BA0720F0621B730B840BBA0BEE1F88F71E
:1056E000E09508950E94792B6894B1110C94D82903
:1056F00008950E94BD2988F09F5798F0B92F9927E7
:10570000B751B0F0E1F0660F771F881F991F1AF0AC
:10571000BA95C9F714C0B13091F00E94D729B1E011
:1057200008950C94D729672F782F8827B85F39F010
:10573000B93FCCF3869577956795B395D9F73EF445
:1057400090958095709561957F4F8F4F9F4F0895ED
:105750000C9493290E94BD29D8F3E894E0E0BB277C
:105760009F57F0F02AED3FE049EC06C0EE0FBB0F6B
:10577000661F771F881F28F0B23A620773078407F5
:1057800028F0B25A620B730B840BE3959A9572F76B
:10579000803830F49A95BB0F661F771F881FD2F7A9
:1057A00090480C94852CEF93E0FF07C0A2EA2AED05
:1057B0003FE049EC5FEB0E94A62A0E94A4290F90CB
:1057C000039401FC9058E8E6F0E00C94B82C0E9499
:1057D000FC2808F48FEF0895FA01EE0FFF1F3096B2
:1057E00021053105A1F16115710561F48038BFE330
:1057F0009B0749F168949038810561F08038BFEFCC
:105800009B0741F099234AF5FF3FE105310521054A
:1058100019F1E8940894E795D901AA2329F4AB2F4C
:10582000BE2FF85FD0F310C0FF5F70F4A695E0F7CD
:10583000F73950F019F0FF3A38F49F779F930DD065
:105840000F9007FC9058089546F00C94932960E05F
:1058500070E080E89FE308954FE79F775F934F9351
:105860003F932F930E94162D2F913F914F915F915F
:105870000E9420290C94512C9F930E94AA2B0F90D8
:1058800007FCEE5F0C94D32B0E94FC28880B990B2D
:10589000089529F416F00C948D290C94D7290C94B2
:1058A00093290E94BD29A8F39638A0F707F80F9214
:1058B000E8942BE33AEA48EB5FE70E9436290F921F
:1058C0000F920F924DB75EB70F920E945E2DE6E8E1
:1058D000F0E00E94912C4F915F91EF91FF91E5953F
:1058E000EE1FFF1F49F0FE57E0684427EE0F441FEC
:1058F000FA95E1F74195550B0E94D82C0F9007FEC1
:105900000C94CC2C08959F3F31F0915020F4879552
:1059100077956795B795880F911D9695879597F917
:105920000895DF93CF931F930F93FF92EF92DF922F
:105930007B018C01689406C0DA2EEF010E943329A6
:10594000FE01E894A5912591359145915591A6F3D5
:10595000EF010E94A62AFE019701A801DA9469F7D7
:10596000DF90EF90FF900F911F91CF91DF910895FD
:105970009F938F937F936F93FF93EF939B01AC0162
:105980000E942029EF91FF910E94912C2F913F912D
:105990004F915F910C9420299B01AC0160E070E075
:1059A00080E89FE30C94002B0C948D290C94832C9D
:1059B0000E94BD29D8F39923C9F3940F511DA3F375
:1059C0009150504094F059F0882332F0660F771FC1
:1059D000881F91505040C1F79E3F51052CF7880F0A
:1059E000911D9695879597F908955F3FACF0983E85
:1059F0009CF0BB27869577956795B79508F4B160BD
:105A00009395C1F7BB0F58F711F460FFE8CF6F5FB4
:105A10007F4F8F4F9F4FE3CF0C94D82916F00C94F3
:105A2000832C0C94932968940C948D290E94BD2991
:105A3000A8F39923C1F3AEF3DF93CF931F930F9392
:105A4000FF92C92FDD2788232AF02197660F771F41
:105A5000881FDAF720E030E040E85FEB9FE3883909
:105A600020F0803E38F021968F770E948F2AEEEA50
:105A7000F0E004C00E948F2AEBEDF0E00E94912C30
:105A80008B01BE01EC01FB2E6F5771097595771FD5
:105A9000880B990B0E94C12828E132E741E35FE3BC
:105AA0000E943329AF2D9801AE01FF900F911F91F5
:105AB000CF91DF910E94A62A0C94A429FA01DC015F
:105AC000AA0FBB1F9B01AC01BF5728F42227332725
:105AD0004427507820C0B75190F4AB2F002446954E
