:100000000C94B9010C94E1010C94E1010C94E10110
:100010000C94E1010C94E1010C94E1010C946C1A34
:100020000C94E1010C94E1010C94E1010C94891C05
:100030000C94E1010C94E1010C94E1010C94E101B8
:100040000C94201B0C94E1010C94EE1A0C94C81A29
:100050000C94E1010C94E1010C94E1010C94E10198
:100060000C946A1B0C94E10105A84CCDB2D44EB996
:100070003836A9020C50B9918688083CA6AAAA2A4B
:10008000BE000000803F07634236B79BD8A71A39ED
:10009000685618AEBAAB558C1D3CB7CC5763BD6DD6
:1000A000EDFD753EF6177231BF000000803F08007D
:1000B0000000BE922449123EABAAAA2ABECDCCCCE7
:1000C0004C3E00000080BEABAAAAAA3E0000000081
:1000D000BF000000803F0000000000084178D3BB53
:1000E0004387D1133D190E3CC3BD4282AD2B3E6800
:1000F000EC8276BED98FE1A93E4C80EFFFBE01C4F1
:10010000FF7F3F0000000000010000010000000030
:1001100000000000000000000000000000000000DF
:1001200023002600290000000000240027002A00E8
:1001300000000000250028002B000404040404042F
:100140000404020202020202030303030303010286
:100150000408102040800102040810200102040855
:100160001020000000080002010000030407000046
:1001700000000000000002536572766F3A00536B76
:10018000696C6C005461736B51004D5520696E6948
:100190007469616C697A65642061742030783630E6
:1001A0000054686520626174746572792073686FA9
:1001B000756C64206265207475726E6564206F6E64
:1001C00020746F2064726976652074686520736599
:1001D00072766F73005468656E20636F6E6E656330
:1001E00074207468652063616D65726120746F208E
:1001F000746865204932432047726F766520736FBB
:10020000636B657420776974682053444120616E84
:10021000642053434C2070696E7321005365742031
:1002200074686520666F7572206469616C207377ED
:10023000697463686573206F6E20746865206361FC
:100240006D6572612061732076205E2076207620B5
:1002500028746865207365636F6E642073776974B2
:100260006368206469616C656420757020746F2018
:1002700049324329004661696C656420746F2069C6
:100280006E697469616C697A652074686520636160
:100290006D65726121004D5520696E697469616CEC
:1002A000697A656420617420307835300052656168
:1002B000647921004E5F3234303132330042697448
:1002C000746C65000A2A205374617274202A0054E9
:1002D000007363726800636B007065650070750081
:1002E0006869007374720073697400747200776BCC
:1002F0000063720076740063004200700052007563
:1003000070004C006700460064004F564600756E52
:100310006B6E6F772062616C6C207479706500740D
:10032000656E6E6973007461626C652074656E6ED3
:100330006973004F56462120576F6E2774207361F2
:100340007665210061626F72746564007361766521
:1003500064004E5F32343031323300426974746C61
:1003600065004C6F7720706F7765723A0000761DDC
:10037000353011241FBECFEFD8E0DEBFCDBF12E075
:10038000A0E0B1E0EAE4F1E702C005900D92AC30E4
:10039000B107D9F727E0ACE0B2E001C01D92AB3362
:1003A000B207E1F711E0C8EBD1E004C02197FE01EC
:1003B0000E948D37C73BD107C9F70E94FC1D0C94E2
:1003C00098380C94000047E018160CF444E0409371
:1003D0001B0598E0823024F494E1813009F490E127
:1003E00090931C05282F880F330B37FF03C03195DE
:1003F00021953109929FB001939F700D1124CB017B
:10040000840F911D089580913F03082E000C990BD5
:1004100090931E0580931D0580914003082E000CCB
:10042000990B9093200580931F0580914103809341
:1004300021058091160587FF0EC09091420390938D
:100440002205909143039093230590914403909348
:10045000240590E005C08130E1F398E08230CCF3D0
:1004600090932505082E000C990B97FF03C09195DA
:100470008195910940911C05489F9001499F300D3D
:10048000112482ED91E0821B930B90931E018093C7
:100490001D0160911B05620F732F711D8EE393E0A8
:1004A00050E040E0FC01E60FF71FA081FC01ED5297
:1004B000FE4FA0834F5F5F4F01972417350794F7D6
:1004C0008EE78093110581E195E0821B930B909359
:1004D0002705809326050895CF93DF93DC0190963E
:1004E000FC0141E85FEF60E870E02191319126174F
:1004F00037070CF4B901421753070CF4A901EA17A6
:10050000FB0799F763387F4F1CF04E3751056CF1AC
:1005100022E020932105DC012D913D91ED012297F0
:1005200037FF02C02F5F3F4F3595279539832883CA
:10053000AE17BF0789F7A0912605B0912705EC01FA
:10054000288102962D938E179F07C9F781E080932B
:1005500016051092250580E180931C0510923D033D
:1005600010923C03DF91CF91089521E02093210563
:10057000E2CF8091380390913903891B990B08953C
:1005800008950895AF92BF92CF92DF92EF92FF92BB
:100590000F931F93CF93DF936C017B018B01040FAB
:1005A000151FEB015E01AE18BF08C017D10759F047
:1005B0006991D601ED91FC910190F081E02DC60189
:1005C0000995892B79F7C501DF91CF911F910F9183
:1005D000FF90EF90DF90CF90BF90AF900895FC0117
:1005E000538D448D252F30E0842F90E0821B930B98
:1005F000541710F0CF96089501970895FC01918D3E
:10060000828D981761F0A28DAE0FBF2FB11D5D9640
:100610008C91928D9F5F9F73928F90E008958FEFE2
:100620009FEF0895FC01918D828D981731F0828D96
:10063000E80FF11D858D90E008958FEF9FEF0895ED
:10064000FC01918D228D892F90E0805C9F4F821B51
:1006500091098F739927089588E795E00E942003F8
:1006600021E0892B09F420E0822F089580E090E0BA
:10067000892B29F00E942C0381110C94000008950D
:10068000FC01A48DA80FB92FB11DA35ABF4F2C9107
:10069000848D90E001968F739927848FA689B789FE
:1006A0002C93A089B1898C91837080648C93938DF5
:1006B000848D981306C00288F389E02D80818F7D98
:1006C00080830895EF92FF920F931F93CF93DF9350
:1006D000EC0181E0888F9B8D8C8D98131AC0E8897E
:1006E000F989808185FF15C09FB7F894EE89FF894D
:1006F0006083E889F98980818370806480839FBFEB
:1007000081E090E0DF91CF911F910F91FF90EF90EA
:100710000895F62E0B8D10E00F5F1F4F0F731127FA
:10072000E02E8C8D8E110CC00FB607FCFACFE88935
:10073000F989808185FFF5CFCE010E944003F1CF7A
:10074000EB8DEC0FFD2FF11DE35AFF4FF0829FB7A9
:10075000F8940B8FEA89FB8980818062CFCF682F64
:1007600088E795E00C9462030F931F93CF93DF9378
:100770008C01D0E0C0E0F801EC0FFD1F649166230E
:1007800041F088E795E00E946203892B11F02196E1
:10079000F2CFCE01DF91CF911F910F910895CF93AA
:1007A000DF93EC01888D8823B9F0AA89BB89E88999
:1007B000F9898C9185FD03C0808186FD0DC00FB63F
:1007C00007FCF7CF8C9185FFF2CF808185FFEDCFBD
:1007D000CE010E944003E9CFDF91CF91089583308D
:1007E00081F028F4813099F08230A9F008958730A3
:1007F000A9F08830C9F08430B1F4809180008F7DF9
:1008000003C0809180008F7780938000089584B525
:100810008F7784BD089584B58F7DFBCF8091B00024
:100820008F778093B00008958091B0008F7DF9CFCD
:100830001F93CF93DF93282F30E0F901EE59FE4F3D
:100840008491F901E25BFE4FD491F901E65CFE4F21
:10085000C491CC23A9F0162F81110E94EF03EC2F35
:10086000F0E0EE0FFF1FE05DFE4FA591B4918FB752
:10087000F894EC91111108C0D095DE23DC938FBF62
:10088000DF91CF911F910895DE2BF8CF9091000159
:1008900089130BC0E6E7F1E0E4919FEF909300012C
:1008A000E13049F028F0E23061F060E00C94180487
:1008B00010926E00FACF90916F009D7F90936F0021
:1008C000F4CF909170009D7F9093700091E0909391
:1008D000B0009091B100987F94609093B100109215
:1008E000B300E3CFCF93DF9390E0FC01E25BFE4FD8
:1008F0002491865C9E4FFC0184918823D1F090E086
:10090000880F991FFC01EA5DFE4FA591B491FC018F
:10091000E05DFE4FC591D49161110EC09FB7F89470
:100920008C91E22FE0958E238C932881E223E8833B
:100930009FBFDF91CF9108958FB7F894EC91E22B90
:10094000EC938FBFF6CF8E50806480937C008091B3
:100950007A00806480937A0080917A0086FDFCCFD3
:10096000809178009091790008953FB7F894809134
:100970007F0290918002A0918102B091820226B5FF
:10098000A89B05C02F3F19F00196A11DB11D3FBFC7
:10099000BA2FA92F982F8827BC01CD01620F711D96
:1009A000811D911D42E0660F771F881F991F4A9590
:1009B000D1F708958F929F92AF92BF92CF92DF921C
:1009C000EF92FF926B017C010E94B5044B015C0128
:1009D000C114D104E104F104B9F00E94B50468190E
:1009E00079098A099B09683E73408105910580F366
:1009F00021E0C21AD108E108F10888EE880E83E0F0
:100A0000981EA11CB11CE4CFFF90EF90DF90CF9017
:100A1000BF90AF909F908F9008952FB7F8946091FA
:100A20007B0270917C0280917D0290917E022FBFAB
:100A30000895BF92CF92DF92EF92FF920F931F9390
:100A4000CF93DF93EC017B018A0184E0B82E6E0125
:100A500086E0C80ED11CEE81FF810480F581E02D77
:100A6000C601099581115BC02D853E852115310593
:100A700009F451C0EB85FC85309751F021503109C4
:100A80003E872D8722A533A53C872B871CAE1BAE46
:100A90009281913109F04DC09381D8019C932481BA
:100AA00030E0D7012D933C939581911191E0D801CD
:100AB00011969C939581992391F190E065E02581B1
:100AC000921768F5492F50E0969FD0011124EF014D
:100AD000CA0FDB1F2E817D01E00EF11ED701129699
:100AE0002C9312972F8113962C9313972885149685
:100AF0002C9379854F5F5F4F649F9001659F300D08
:100B00001124200F311FD9017C932A85D701169615
:100B10002C939F5FD4CFBA94B1109DCF83E0DF9127
:100B2000CF911F910F91FF90EF90DF90CF90BF90EA
:100B3000089580E1F4CF2F923F924F925F926F928F
:100B40007F928F929F92AF92BF92CF92DF92EF925D
:100B5000FF920F931F93CF93DF93CDB7DEB7E39749
:100B60000FB6F894DEBF0FBECDBF6C018B01DC0168
:100B700017968D919C91009709F454C0F12CE12CAB
:100B8000039708F0D7C0F12CE12CAA24A394B12C30
:100B90000115110509F4CEC0AE01455D5F4FBE01E0
:100BA0006E5C7F4FD60115968D919C910E94190520
:100BB0008111C0C04AA95BA9CA0101979501082EFD
:100BC00002C0220F331F0A94E2F7B8016223732395
:100BD000672BF1F241155105D9F249305105C4F6A0
:100BE000880F991FF601E80FF91FA185B2851097AC
:100BF00079F28CA511968C9311978BA58C938CA56B
:100C0000882341F085E0FE01BD96129601900D9279
:100C10008A95E1F7C9018095909508231923E22A66
:100C2000F32AB6CF4601F12CE12CAA24A394B12CCF
:100C300066246394712C1E01B5E02B0E311CF2E08A
:100C40004F2E512CC5010197F30102C0EE0FFF1F7B
:100C50008A95E2F7CF0180239123892B09F45FC0A5
:100C6000D40119968D919C91892B09F458C0F601F5
:100C700085819681D101E6E21D92EA95E9F75A82D3
:100C80004982F2E1FB83AC82DC011696ED91FC9186
:100C90000680F781E02DBE016F5F7F4F06960995B4
:100CA000AE01455D5F4FBE016E5C7F4FF6018581F1
:100CB00096810E94190581113DC02AA93BA9C9014D
:100CC0000197A301082E02C0440F551F0A94E2F7B2
:100CD000BA0160237123672BF9F0880F991FF60181
:100CE000E80FF91FA185B2859C918BA59817A1F0FB
:100CF00021153105A9F22930310574F487E0FE0190
:100D0000BB9601900D928A95E1F7CA018095909566
:100D100008231923E42AF52A2A153B0509F6FFEFD3
:100D2000AF1ABF0A22E0820E911C39E0A316B1046B
:100D300009F088CFC701E3960FB6F894DEBF0FBE67
:100D4000CDBFDF91CF911F910F91FF90EF90DF907A
:100D5000CF90BF90AF909F908F907F906F905F905B
:100D60004F903F902F900895DC01ED91FC9102840B
:100D7000F385E02D0995862F0895DC01ED91FC9116
:100D80000084F185E02D0995862F08950895462F5A
:100D9000DC0115968D919C91DC01ED91FC91068012
:100DA000F781E02D65E0099420915702260F332743
:100DB000331F21323105ECF420917205FC0190E0E3
:100DC00080E0243069F082E00895A09157022191DB
:100DD000AC01495C5D4FA40FB52FB11D2C9301965A
:100DE000861798F380915702680F6093570280E04E
:100DF000089581E008951092720581E08093510575
:100E000010924C0561E082E10E94180461E083E1E8
:100E10000E941804E9EBF0E080818E7F808380815E
:100E20008D7F808388E48093B80085E48093BC0044
:100E30000895CF93DF9391E0909336028823B9F021
:100E4000C091B800D091BA008091BC008A7B809399
:100E5000BC0060E082E10E94180460E083E10E942F
:100E600018040E94FB06D093BA00C093B800DF912B
:100E7000CF910895CF92DF92EF92FF920F931F933D
:100E8000CF93DF93D82FC62F613208F098C00E940D
:100E9000B5046B017C018091720581116BC081E00A
:100EA00080937205809351059FEF909350051092A7
:100EB0004F059C0F90934E0580934D0580914D05F5
:100EC000DD0FD82BD0934D0580914C05813009F072
:100ED00078C010924C050E94B5046B017C01809192
:100EE0004D058093BB008091740590917505A0918C
:100EF0007605B0917705892B8A2B8B2BA1F00E9468
:100F0000B504009174051091750520917605309116
:100F100077056C197D098E099F09061717072807A1
:100F2000390708F448C08091BC0083FDD8CF85EC18
:100F30008093BC000E94B5046B017C018091720516
:100F4000813009F440C080914F058C1710F4C09196
:100F50004F05ECE2F5E0A2E5B5E080E08C1355C06A
:100F60008C2FDF91CF911F910F91FF90EF90DF9029
:100F7000CF9008958091740590917505A0917605A4
:100F8000B0917705892B8A2B8B2B09F484CF0E9493
:100F9000B504009174051091750520917605309186
:100FA00077056C197D098E099F0906171707280711
:100FB000390708F070CF809173050E941907C0E0CF
:100FC000CFCF85EEB5CF8091740590917505A09136
:100FD0007605B0917705892B8A2B8B2B09F4AECF40
:100FE0000E94B50400917405109175052091760555
:100FF000309177056C197D098E099F09061717072F
:101000002807390708F09ACFD6CF91919D938F5F2B
:10101000A5CF0895E091390380913803E81730F4A3
:10102000F0E0EE5AFA4F808190E008958FEF9FEF45
:10103000089590913903809138032FEF3FEF98176F
:1010400048F4E92FF0E0EE5AFA4F208130E09F5F3C
:1010500090933903C9010895CF92DF92EF92FF92E6
:101060000F931F93CF93DF937C01CB018A012091D3
:101070002B05222389F0EB016B01C40ED51ECC1584
:10108000DD0569F06991D701ED91FC910190F08146
:10109000E02DC7010995F3CF642F0E94D406C80143
:1010A000DF91CF911F910F91FF90EF90DF90CF9044
:1010B0000895CF93DF931F92CDB7DEB76983209158
:1010C0002B052223F9F020912805203258F021E049
:1010D00030E0FC013383228390E080E00F90DF91C9
:1010E000CF91089580912905E82FF0E0EA5EFD4F49
:1010F000998190838F5F809329058093280581E0F3
:1011000090E0ECCF61E0CE0101960E94D406F7CFCB
:10111000CF92DF92EF92FF920F931F93CF93DF93C3
:10112000D091280581E0D13208F09CC0C0912A05F9
:101130000E94B5046B017C018091720581116CC025
:1011400082E08093720581E0809351058FEF809358
:10115000500510924F05D0934E05A6E1B2E0ECE2A7
:10116000F5E080E0D8138DC010924D0580914D05BB
:10117000CC0FC82BC0934D0580914C05813009F0F0
:1011800084C010924C050E94B5046B017C018091D3
:101190004D058093BB008091740590917505A091D9
:1011A0007605B0917705892B8A2B8B2BA1F00E94B5
:1011B000B504009174051091750520917605309164
:1011C00077056C197D098E099F09061717072807EF
:1011D000390708F442C08091BC0083FDD8CF85EC6C
:1011E0008093BC000E94B5046B017C018091720564
:1011F000823009F44CC0809150058F3F09F469C0DA
:1012000080915005803209F466C08091500580338A
:1012100009F463C084E026C080917405909175053F
:10122000A0917605B0917705892B8A2B8B2B09F439
:1012300083CF0E94B504009174051091750520912B
:101240007605309177056C197D098E099F0906177F
:1012500017072807390708F06FCF809173050E94A0
:10126000190785E0109229051092280510922B0588
:10127000DF91CF911F910F91FF90EF90DF90CF9072
:1012800008959D9191938F5F6DCF85EEA9CF809149
:10129000740590917505A0917605B0917705892B1D
:1012A0008A2B8B2B09F4A2CF0E94B5040091740500
:1012B0001091750520917605309177056C197D099F
:1012C0008E099F09061717072807390708F08ECFE0
:1012D000C4CF80E0C7CF82E0C5CF83E0C3CF1F93E8
:1012E000CF93DF93EC01142F8E819F812A8131E00F
:1012F00030932B0520932A0510922905109228057A
:10130000DC01ED91FC910190F081E02D09958111B6
:1013100008C063E070E080E090E0DF91CF911F9122
:1013200008958E819F81DC01ED91FC910190F08107
:10133000E02D612F0995882361F38E819F810E94A2
:10134000880860E070E0CB01E8CF90E080E008958D
:1013500008951F93CF93DF93EC01142F89819A8115
:10136000288131E030932B0520932A05109229051E
:1013700010922805DC01ED91FC910190F081E02DA7
:10138000099589819A81DC01ED91FC910190F081B0
:10139000E02D612F099589819A81DF91CF911F916D
:1013A0000C948808DC01ED91FC910190F081E02D16
:1013B0000994DC01ED91FC910190F081E02D0994FC
:1013C0000F931F93CF93DF93EC018A0189819A8158
:1013D000288131E030932B0520932A0510922905AE
:1013E0001092280524E0629FB00111246A5F7F4FAC
:1013F0000E94D90970E060E089819A810E94D20937
:1014000070E060E089819A810E94D209B8018981E7
:101410009A810E94D209612F70E089819A810E948D
:10142000D20989819A81DF91CF911F910F910C94FC
:101430008808CF93C0E040E050E16C2F86E197E050
:101440000E94E009CF5FC031B1F7CF910895BF92FC
:10145000CF92DF92EF92FF920F931F93CF93DF9380
:10146000EC0181E080932B0584E580932A0510929E
:101470002905109228056D2F70E08BE296E00E94FE
:10148000D909BE0177278BE296E00E94D9098BE249
:1014900096E00E94880861E084E50E943A07109275
:1014A0003903809338038BE296E00E9419088093F9
:1014B0003E03809316050E94E301EC01F12CE12C20
:1014C0001C161D064CF56C2FCF31D1050CF06EE1CA
:1014D00084E50E943A07B82E1092390380933803AE
:1014E0006E018EE1C81AD1088E0180913903B816B9
:1014F00059F08BE296E00E9419089FEFE91AF90A69
:10150000F701E25CFC4F80830150110929F0E601EC
:101510000C151D0551F7D4CFDF91CF911F910F917D
:10152000FF90EF90DF90CF90BF9008950F931F939F
:10153000CF93DF93EC018A018E819F812A8131E074
:1015400030932B0520932A05109229051092280527
:10155000DC01ED91FC910190F081E02D0995811164
:1015600009C063E070E080E090E0DF91CF911F91CF
:101570000F9108958E819F810E94880861E08A8181
:101580000E943A071092390380933803813049F75B
:101590008E819F81DC01ED91FC910284F385E02D29
:1015A0000995F801808360E070E0CB01DECFCF9336
:1015B000DF93EC0189819A81288131E030932B05FA
:1015C00020932A051092290510922805DC01ED913F
:1015D000FC910190F081E02D099589819A810E940A
:1015E000880861E088810E943A071092390380934D
:1015F000380389819A81DC01ED91FC910284F385A5
:10160000E02D0995DF91CF9108958F929F92AF922F
:10161000BF92CF92DF92EF92FF921F93CF93DF930F
:10162000EC016A017B0120E030E040E85FE3CB01A0
:10163000B6010E94A13287FD7EC020E030EC4AE571
:1016400055E4C701B6010E94CE3518163CF4C12CF2
:1016500030ECD32E3AE5E32E35E4F32E6B817C811A
:101660008D819E810E94A6324B015C0120E030E01A
:1016700040E855E4C701B6010E9407339B01AC0165
:10168000C501B4010E94E73420E030E040E05FE3B0
:101690000E94763420E030E040E85FE30E94753439
:1016A0006B017C0120E030E040E450E40E94A13274
:1016B00087FD48C020E030E04FE753E4C701B601A2
:1016C0000E94CE35181634F4C12CD12C9FE7E92E98
:1016D00093E4F92E60E0CE010E94D70A182F482F1C
:1016E0004F76406160E0CE010E94A909C701B601B2
:1016F0000E946035462F6EEFCE010E94A909412F4E
:1017000060E0CE010E94A90965E070E080E090E011
:101710000E94DA04412F406A60E0CE01DF91CF9150
:101720001F91FF90EF90DF90CF90BF90AF909F9070
:101730008F900C94A909C12CD12C20E8E22E2FE324
:10174000F22E8CCFC12CD12C80E4E82EFE2CC2CFFF
:101750004F925F926F927F928F929F92AF92BF92C1
:10176000CF92DF92EF92FF92CF93C0E06C01F12C09
:10177000E12CC701B6010E94A6324B015C016EEF5D
:1017800086E197E00E94D70A682F70E06F5F7F4F75
:1017900090E080E00E94A63220E034E244E759E481
:1017A0000E9407332B013C016091190770911A07C1
:1017B00080911B0790911C070E94A6329B01AC01EF
:1017C000C301B2010E94E7349B01AC01C501B40121
:1017D0000E94E7340E946035AB016C2F86E197E0F0
:1017E0000E94E009CF5FC03121F6CF91FF90EF90CA
:1017F000DF90CF90BF90AF909F908F907F906F9031
:101800005F904F900895EF92FF920F931F93CF93A5
:10181000DF9300D0CDB7DEB78C01DC0115968D913A
:101820009C91009739F0DC01ED91FC910280F381ED
:10183000E02D099581E090E0F8019483838388E0AE
:1018400090E00E944130FC01D80112968C9190E00A
:10185000B0E0A0E082839383A483B58389E591E01F
:10186000918380838BE296E097838683D8011696D6
:10187000FC93EE9315971A8284E0E82EF12CF80180
:1018800085819681DC01ED91FC910480F581E02D4C
:10189000AE014E5F5F4F61E00995811103C08A81FF
:1018A000833031F0B1E0EB1AF10849F781E121C052
:1018B00084E08983F80185819681DC01ED91FC91BA
:1018C0000680F781E02D44E064E00995998192FF5C
:1018D00010C0F80185819681DC01ED91FC910480B6
:1018E000F581E02DAE014F5F5F4F64E009958823DD
:1018F00069F30F900F90DF91CF911F910F91FF909F
:10190000EF900895FC0101900020E9F73197AF01B5
:10191000481B590BBC0188E795E00C94C20281E991
:1019200091E00C94820CCF93DF930E94B403EC01FE
:101930000E948F0C8C0F9D1FDF91CF910895CF9344
:10194000DF930E94AF03EC010E948F0C8C0F9D1F50
:10195000DF91CF910895CF93DF93FC0144815581AE
:101960006081718188E795E00E94C202EC010E94CB
:101970008F0C8C0F9D1FDF91CF9108958F929F92B6
:10198000AF92BF920F931F93CF93DF93CDB7DEB784
:10199000A1970FB6F894DEBF0FBECDBF19A242309B
:1019A00008F44AE08E010F5D1F4F842E912CB12C5C
:1019B000A12CA50194010E944434E62FB901CA016B
:1019C000EA30F4F4E05DD801EE938D01232B242B53
:1019D000252B79F790E080E0109719F0CD010E9457
:1019E000820CA1960FB6F894DEBF0FBECDBFDF917B
:1019F000CF911F910F91BF90AF909F908F900895BE
:101A0000E95CE1CFCF92DF92EF92FF92C12CD12C13
:101A100076014AE0C701B6010E94BE0C89E00E942F
:101A2000AF038FEFC81AD80AE80AF80A80E1C8168F
:101A3000D104E104F10469F7FF90EF90DF90CF90BB
:101A40000C948F0CCF92DF92EF92FF92CF93DF93A3
:101A500097FF19C06B017C018DE20E94AF03EC017E
:101A600066277727CB016C197D098E099F094AE00B
:101A70000E94BE0C8C0F9D1FDF91CF91FF90EF90C5
:101A8000DF90CF9008954AE0DF91CF91FF90EF90E3
:101A9000DF90CF900C94BE0CBF92CF92DF92EF926A
:101AA000FF920F931F93CF93DF938C01B62E6A01A1
:101AB000E90187E090E00E9441307C01DC01BC92AA
:101AC0001696DC93CE931597E60109900020E9F76E
:101AD0002197CC19DD091496DC93CE931397CE0190
:101AE00001960E944130F70192838183DC01F60167
:101AF0009F012C193D092C173D071CF421912D93B2
:101B0000F7CF20913A0321542A3140F52EE7C80F30
:101B1000D91F288386E090E00E944130FC01F182C9
:101B2000E0821382128215821482E801AC81BD81A9
:101B30001097B1F49B838A839D838C83E80188810D
:101B40009981019699838883DF91CF911F910F919D
:101B5000FF90EF90DF90CF90BF90089520E0D7CF17
:101B6000B583A48313969C938E931297D8011596F0
:101B70009C938E931497E2CFFC0124813581232B13
:101B800039F421E0FB018081882349F020E007C07F
:101B9000808191810E947A3821E0892BB9F7822FC8
:101BA0000895CF93DF93EC0188819981009711F01C
:101BB0000E94DD30198218821D821C821B821A82CB
:101BC000DF91CF910895FC0180819181009711F000
:101BD0000C94DD3008950C94DD307F928F929F92AB
:101BE000AF92BF92CF92DF92EF92FF920F931F932B
:101BF000CF93DF931F92CDB7DEB76C015B01742EDC
:101C00007C0110E000E088248394912CC401002E14
:101C100002C0880F991F0A94E2F78A219B21892B21
:101C200009F465C0D60115968D919C91DC01ED916A
:101C3000FC910680F781E02D41E0400F60E20995BC
:101C4000811125C0F60185819681DC01ED91FC9121
:101C50000480F581E02DAE014F5F5F4F61E2099591
:101C6000811115C04981842F8170871549F170FA5F
:101C700040F94983F60185819681DC01ED91FC9163
:101C80000680F781E02D61E209958823C9F00F9065
:101C9000DF91CF911F910F91FF90EF90DF90CF9048
:101CA000BF90AF909F908F907F9008950097B9F06C
:101CB0000E94DD30D7011A961C921E9219970FC010
:101CC000D70119968D919C91772081F3892B39F456
:101CD00087E090E00E944130F701928781878981F7
:101CE00086958695837090E0F601908787830F5FD5
:101CF0001F4FF2E0EF0EF11C0830110509F086CFFE
:101D000080E0C5CFCF92DF92FF920F931F93CF93C6
:101D1000DF931F92CDB7DEB78C0141E00E94ED0D3D
:101D2000811151C064E170E080E090E00E94DA042B
:101D3000D80118961C921E9217976801B9E0CB0E35
:101D4000D11CFF24F394F601819191916F01892BAD
:101D500031F4F394F9E0FF12F6CF80E034C0D801FB
:101D600015968D919C91DC01ED91FC910680F78197
:101D7000E02D4F2D60E20995811125C0F801858184
:101D80009681DC01ED91FC910480F581E02DAE019E
:101D90004F5F5F4F61E20995811115C04981842F22
:101DA000869586958370A9F2437F4983F8018581E2
:101DB0009681DC01ED91FC910680F781E02D61E2D6
:101DC0000995882331F20F90DF91CF911F910F91E8
:101DD000FF90DF90CF9008950F931F93CF93DF93E1
:101DE000EC018DE491E0998388838D819E81009739
:101DF00039F0DC01ED91FC910280F381E02D099531
:101E00008E01075F1F4F6996F801819191918F01B3
:101E1000009731F00E94DD30F80132971182108274
:101E20000C171D0789F7DF91CF911F910F9108952E
:101E3000CF93DF93EC010E94EC0ECE01DF91CF91A6
:101E40000C94DD300C94DD30FF920F931F93CF93F1
:101E5000DF93EC01F62E08811981C8010E94C53379
:101E6000F81621F06F2DC8010E94CD33CE01DF910D
:101E7000CF911F910F91FF900895FF920F931F93A1
:101E8000CF93DF9300D0CDB7DEB78C01F72E9A83C6
:101E90008983CE0101960E94240F0F5F1F4F1A8382
:101EA00009836F2DCE0101960E94240F66E070E039
:101EB00080E090E00E94DA040F900F90DF91CF91C4
:101EC0001F910F91FF9008950C94C5332F923F926C
:101ED0004F925F926F927F928F929F92AF92BF923A
:101EE000CF92DF92EF92FF920F931F93CF93DF93E6
:101EF000CDB7DEB72E970FB6F894DEBF0FBECDBFBD
:101F00005C0185E191E00E94640F682E64E971E054
:101F1000C5010E947A38762C892B89F4C62CD12CE5
:101F2000F12CE12CC114D104E104F10439F00E9438
:101F3000B231A70196010E94DB336B017C2CF501C5
:101F400001900020E9F73197EA19FB092E2F215063
:101F5000330B6901F501E20FF31F30813C87512CEF
:101F600010E000E0CE0101967C0181E491E0FC01EB
:101F7000EE19FF09FE87ED87651409F49AC0180170
:101F8000FFEF2F1A3F0AC801805C9E4F0E94640F2A
:101F9000482E47012D853E85020F131F882D8E196F
:101FA000841548F4C801880D991D0E94640FF4013E
:101FB00081934F01F3CF842C912C8101080D191DC1
:101FC000F701E80DF91D108257104CC066E971E069
:101FD000C7010E947A38892B09F441C069E971E090
:101FE000C7010E947A38892BD1F16CE971E0C701F1
:101FF0000E947A38892B99F16FE971E0C7010E943C
:102000007A38892B61F162EA71E0C7010E947A385F
:10201000892B29F1C8018F5B9E4F0E94640F80932A
:1020200016050E94E301C801805C9E4F2E960FB6F4
:10203000F894DEBF0FBECDBFDF91CF911F910F91FE
:10204000FF90EF90DF90CF90BF90AF909F908F90D8
:102050007F906F905F904F903F902F900895739472
:1020600053948ACFB501C7010E947A38892B91F227
:10207000FE01E80DF91D80818634C1F066EA71E049
:10208000C7010E947A38892B89F0A601B501C701E2
:102090000E948A38892B51F4FC85FC3409F4BACFAC
:1020A000F23509F4B7CFF83509F4B4CF0C5F1F4F00
:1020B000D7CF8FE30E94AF03C5010E94820C0E941C
:1020C0008F0C8FEF9FEFB2CF1F93CF93DF93EC0175
:1020D0000E94640F182FCE0101960E94640F90E0B9
:1020E000982F8827810F911DDF91CF911F9108951F
:1020F000CF92DF92EF92FF920F931F93CF93DF93D4
:102100006A017B01082F10E0C801805B9F4F880F98
:10211000991F0E946410BC01990F880B990B0E94B3
:10212000A83220E030E04AE754E40E94E734A701F7
:1021300096010E9407336B017C0182E191E00E94CD
:10214000640F9AE0899FB0011124072E000C880BC0
:10215000990B0E94A832A70196010E9476346B0168
:102160007C0120E030E04AEF53E40E94CE35C4EF1A
:10217000D1E018168CF420E030E44CE155E4C701BE
:10218000B6010E94A132C4ECD9E087FF05C0C701A7
:10219000B6010E945935EB01C8010E94640FAE01DF
:1021A000682F86E197E0DF91CF911F910F91FF900B
:1021B000EF90DF90CF900C94E00990E0C096880FEC
:1021C000991F860F911D880F991F0C9464107F92A0
:1021D0008F929F92AF92BF92CF92DF92EF92FF9237
:1021E0000F931F93CF93DF93B82E6A01D62FC72F7B
:1021F00060E00E94DD10BC01990F880B990B0E94D2
:10220000A8327B018C0161E08B2D0E94DD10BC01A6
:10221000990F880B990B0E94A832762E872E982E44
:10222000A92E96014D2F5C2F0E94A13287FF71C00D
:10223000772D682D992D8A2D272F362F492F582F2E
:10224000B701C8010E94CE35181694F096014D2FA3
:102250005C2F672D782D892D9A2D0E94A132760151
:102260000D2F1C2F87FF04C0E72CF82C092D1A2DE9
:10227000CB2DD0E06E0180E3C80ED11CCC0FDD1F4A
:10228000C15EDE4FB701C8010E945935798368836A
:10229000C601880F991F0E946410EC01C6010E94BC
:1022A000640F682F880F770B880B990B0E94A83258
:1022B0009701A8010E9407336B017C01BE01DD0F6D
:1022C000880B990B0E94A8329B01AC01C701B60193
:1022D0000E9476340E945935072E000C880B990B0A
:1022E0000E94A83220E030E0A9010E947634AB01C0
:1022F000BC018B2DDF91CF911F910F91FF90EF903B
:10230000DF90CF90BF90AF909F908F907F900C9474
:1023100078107C2D6D2DCE018FCF0F931F93CF930F
:102320008C01005E1F4FCFE0F801729162918F0126
:10233000072E000C880B990B0E94A832AB01BC0140
:102340008C2F0E94E710C15078F7CF911F910F9109
:1023500008952F923F924F925F926F927F928F9249
:102360009F92AF92BF92CF92DF92EF92FF920F9324
:102370001F93CF93DF93CDB7DEB72E970FB6F894A8
:10238000DEBF0FBECDBF182F092F6A017B0120E0F1
:1023900030E0A901CB01B6010E94A1321816E4F089
:1023A000812F902F2E960FB6F894DEBF0FBECDBFB3
:1023B000DF91CF911F910F91FF90EF90DF90CF9021
:1023C000BF90AF909F908F907F906F905F904F9055
:1023D0003F902F900C948D1180E290E00E9441304C
:1023E0005C0170913B0390903A032FE131E0DC01F6
:1023F000612E702E512C412C60E0772329F064303F
:1024000018F44BE69416A1F0F90180819181F30153
:1024100040815181841B950B11969C938E9397FF5D
:1024200003C0919581959109481659060CF42C0129
:102430006F5F2E5F3F4FF2E06F0E711C129660319E
:10244000E1F620E030E0A901C701B6010E94CE35D7
:1024500018160CF0BCC0B201550C880B990B0E94E9
:10246000A832A70196010E94E7346B017C0120E0AD
:1024700030E0A9010E94CE3520E030E040E05FE38B
:1024800087FDA0C0C701B6010E9476340E9459356D
:102490007E876D87D12CC12C2D853E85032E000CA7
:1024A000440B550B29873A874B875C874D855E85A2
:1024B0004C155D050CF48EC01501812E902EF12C6B
:1024C000C6010D2C000CAA0BBB0B8D839E83AF8322
:1024D000B88780913B03882341F093E09F1528F053
:1024E00080913A038B3609F45FC0D4016D917C91E1
:1024F000072E000C880B990B0E94A8322B013C017F
:10250000ED85FE8520E030E0A901EF2B09F443C002
:102510006D817E818F8198850E94A8322BED3FE0EE
:1025200049E450E40E94073369837A838B839C8358
:1025300069857A858B859C850E94A8329B01AC01B8
:1025400069817A818B819C810E94E7340E94E23408
:1025500020E030E040E85FE30E94763420E030E0A5
:1025600040E05FE30E94073369837A838B839C8317
:10257000D1016D917C91072E000C880B990B0E9464
:10258000A8329B01AC0169817A818B819C810E9478
:1025900007339B01AC01C301B2010E947634AB0149
:1025A000BC018F2D0E94E710F394B2E08B0E911CBA
:1025B000E2E02E0E311CF0E1FF128BCF2FEFC21A9A
:1025C000D20A74CFC701B6010E9475345FCF1E8650
:1025D0001D8660CFA114B104D9F0C5012E960FB6A7
:1025E000F894DEBF0FBECDBFDF91CF911F910F9149
:1025F000FF90EF90DF90CF90BF90AF909F908F9023
:102600007F906F905F904F903F902F900C94DD30B3
:102610002E960FB6F894DEBF0FBECDBFDF91CF91DF
:102620001F910F91FF90EF90DF90CF90BF90AF90F0
:102630009F908F907F906F905F904F903F902F90E2
:1026400008952F923F924F925F926F927F928F9256
:102650009F92AF92BF92CF92DF92EF92FF920F9331
:102660001F93CF93DF93CDB7DEB72F970FB6F894B4
:10267000DEBF0FBECDBF4C016D8369017A01202FF3
:1026800030E03A83298320E030E0A901C701B60198
:102690000E94A1321816ECF01FE0812F012E000CD1
:1026A000990B69817A81861797070CF453C1880DBD
:1026B000991DDC016C91062E000C770B880B990B91
:1026C0000E94A832AB01BC01812F0E94E71011507B
:1026D000E4CF80E190E0E981FA818E1B9F0B8115A8
:1026E000F0E49F0708F047C0880F991F009709F48E
:1026F00045C00E9441303C01B0903B03A0903A039A
:1027000029813A81220F331F1301D401102F50E089
:1027100040E0512C412C1031A0F5BB2029F01430A1
:1027200018F46BE6A616F9F0CA01820F931F815EBA
:102730009E4F7C916D817603F0011124FC83EB8325
:10274000FC01808191816B817C81861B970BF1015B
:102750009183808397FF03C09195819591094816D5
:1027600059060CF42C011F5F1196F2E02F0E311C5C
:102770004E5F5F4FD0CF8FEF9FEFBBCF81E090E0F8
:10278000B8CF20E030E0A901C701B6010E94CE35E4
:1027900018160CF0BAC0B201550C880B990B0E94A8
:1027A000A832A70196010E94E7346B017C0120E06A
:1027B00030E0A9010E94CE3520E030E040E05FE348
:1027C00087FD9EC0C701B6010E9476340E9459352C
:1027D0007F876E87B12CA12C6E857F85072E000C1C
:1027E000880B990B6A877B878C879D878E859F8551
:1027F0008A159B050CF490C07C826B829A82898238
:10280000102FB5010B2C000C880B990B6E837F8366
:1028100088879987103108F07BC080913B0388231B
:1028200039F0143028F480913A038B3609F45BC0F8
:10283000A981BA816C912D816203B0011124072E08
:10284000000C880B990B0E94A8326B017C016E85ED
:102850007F8520E030E0A901672BE1F16E817F8167
:10286000888599850E94A8322BED3FE049E450E429
:102870000E9407331B012C016A857B858C859D8511
:102880000E94A8329B01AC01C201B1010E94E73451
:102890000E94E23420E030E040E85FE30E947634BA
:1028A00020E030E040E05FE30E9407331B012C0191
:1028B000AB81BC816D917C91072E000C880B990B2C
:1028C0000E94A8329B01AC01C201B1010E940733F2
:1028D0009B01AC01C701B6010E947634AB01BC017B
:1028E000812F0E94E7101F5FE981FA813196FA83F8
:1028F000E9832B813C812E5F3F4F3C832B838ACF22
:10290000C701B6010E94753461CF1F861E8662CF53
:102910003FEFA31AB30A6ACF61147104D9F0C3015F
:102920002F960FB6F894DEBF0FBECDBFDF91CF91CB
:102930001F910F91FF90EF90DF90CF90BF90AF90DD
:102940009F908F907F906F905F904F903F902F90CF
:102950000C94DD302F960FB6F894DEBF0FBECDBFBE
:10296000DF91CF911F910F91FF90EF90DF90CF906B
:10297000BF90AF909F908F907F906F905F904F909F
:102980003F902F9008950F930E94030210923D03F1
:1029900010923C03E2E1F5E02581368147815085C4
:1029A00003896785848995890E9421130F91089571
:1029B0008F929F92AF92BF92CF92DF92EF92FF924F
:1029C0000F931F93CF93DF93CDB7DEB72B970FB63F
:1029D000F894DEBF0FBECDBF6C01FC01019000205A
:1029E000E9F73297108189E11C3421F087EE123526
:1029F00009F080E080931505C6010E94660F7C01F6
:102A00008FEFE816F80609F43EC1C7010E94640F73
:102A1000082FC70102960E9464107C01B601CE0106
:102A200001960E948338093409F0EDC0C7010E9465
:102A3000270A0E940302BE016F5F7F4F8EE393E07F
:102A40000E94833869EA71E08EE393E00E947A384D
:102A5000892B09F4EEC080E090E0A0E0B0E4809320
:102A6000170590931805A0931905B0931A056DEA00
:102A700071E08EE393E00E947A38892B09F4DDC07F
:102A800080911605813009F0D8C00E94B23124E649
:102A900030E040E050E00E94DB330E94A83220E0AA
:102AA00030E040E251E40E94E73420E030E040EAC8
:102AB00050E40E9475344B015C0180923403909283
:102AC0003503A0923603B0923703F12CE12CC0906D
:102AD0002605D0902705CE0CDF1CF6016081062E5E
:102AE000000C770B880B990B0E94A832A50194016A
:102AF0000E9476340E945935F6016083FFEFEF1A89
:102B0000FF0A80E1E816F10411F7123509F099C0C7
:102B100080911D0590911E05919581959109909345
:102B20001E0580931D0590E080E040911605242F3E
:102B3000042E000C330B37FF03C03195219531096A
:102B4000821793070CF089C042301CF540911C0598
:102B5000489F9001499F300D1124E0912605F09186
:102B60002705E20FF31F20812195208320911C056A
:102B7000289FF001299FF00D11249F012E5F3F4FE8
:102B8000E0912605F0912705E20FF31F20812195A2
:102B900020832091160560E022300CF462E0E62FDD
:102BA000F0E02091160522300CF480C024E030E0E3
:102BB0004091260550912705E217F3070CF079C0E4
:102BC0009F01220F331F70911C05789FF001799FA0
:102BD000F00D1124E20FF31FE40FF51F4081518126
:102BE000508350911C05589FD001599FB00D11245E
:102BF000E0912605F0912705E20FF31FEA0FFB1F76
:102C000041836F5FCCCF809116050E94E301AEE354
:102C1000B3E097012E533340F901EA0FFB1FAD01DA
:102C20004E535340481759070CF003CFE491ED93EE
:102C3000F3CF80E090E0DC0112CF812C912C540185
:102C40003CCF1C3451F00E94B23124E630E040E029
:102C500050E00E94DB3360FD5BCF10923D03109289
:102C60003C032091170530911805409119055091AA
:102C70001A05009125056091210580912605909106
:102C800027050E9421132B960FB6F894DEBF0FBEC6
:102C9000CDBFDF91CF911F910F91FF90EF90DF900B
:102CA000CF90BF90AF909F908F90089528E030E034
:102CB0007FCF01963ACF0E9464380F931F93CF9332
:102CC000DF93EC0188819981009759F02A813B813B
:102CD0002617370730F081E0DF91CF911F910F91D8
:102CE00008958B016F5F7F4F0E94A737009759F0BF
:102CF000998388831B830A832C813D81232B59F779
:102D0000FC011082E8CF80E0E7CFEF92FF920F93B3
:102D10001F93CF93DF936115710541F480E0DF913C
:102D2000CF911F910F91FF90EF900895411551059C
:102D3000B1F07B01EC010C811D81040F151FB8015E
:102D40000E945D16882351F3288139818C819D81F1
:102D5000B701820F931F0E9483381D830C8381E08B
:102D6000DECFEF92FF920F931F93CF93DF93EC018F
:102D70007B018A01BA010E945D1681110BC0CE0150
:102D80000E94D10DCE01DF91CF911F910F91FF9045
:102D9000EF9008951D830C83B701888199810E946B
:102DA0008338F0CFFB01DC0111961C921E92139622
:102DB0001C921E92129715961C921E9214978617BB
:102DC000970759F0608171816115710521F0448187
:102DD00055810C94B1160C94D10D0895FB0101900E
:102DE0000020E9F73197AF01461B570B0C94B11641
:102DF0000F931F93CF93DF93CDB7DEB762970FB6D4
:102E0000F894DEBF0FBECDBF8C01CB01F80111825B
:102E1000108213821282158214824AE0BE016F5F13
:102E20007F4F0E946432BE016F5F7F4FC8010E94D6
:102E3000EE1662960FB6F894DEBF0FBECDBFDF91DF
:102E4000CF911F910F910895FC011182108213827E
:102E5000128215821482FB0101900020E9F731975C
:102E6000AF01461B570B0C94B116EF92FF920F93D4
:102E70001F93CF93DF93EC018B01198218821B8281
:102E80001A821D821C82CB010E942F327C01BC0160
:102E9000CE010E945D16811109C0CE01DF91CF9154
:102EA0001F910F91FF90EF900C94D10DFD82EC8259
:102EB000B80188819981DF91CF911F910F91FF9087
:102EC000EF900C94283285ED8093BC0080917405BE
:102ED00090917505A0917605B09177050796A11D93
:102EE000B11D23E0B695A795979587952A95D1F7BB
:102EF0002091BC0024FD03C01092720508954091FA
:102F00007405509175056091760570917705452B94
:102F1000462B472B69F30097A105B10541F02AE242
:102F20002A95F1F700C00197A109B109E1CF80917D
:102F300073050C9419072F923F924F925F926F92F4
:102F40007F928F929F92AF92BF92CF92DF92EF9239
:102F5000FF920F931F93CF93DF93CDB7DEB76697A2
:102F60000FB6F894DEBF0FBECDBF69877A878B8717
:102F70009C872D873E874F87588BC801EE8A10E0CB
:102F800088248A94982C540168E4462E68EE562EC4
:102F900066246394712C05E07FE3272E71E0372EC1
:102FA0009C01990F440B550B298B3A8B4B8B5C8BF7
:102FB0006D857E858F8598890E9460356D837E83BF
:102FC0008F83988720E030E0A90169857A858B8519
:102FD0009C850E94A132882309F499C129853A85EC
:102FE0004B855C8563E67CE987E89FE30E94D335E7
:102FF00020E030ED42E854E40E9407330E9460353F
:103000006B0180910001853009F06AC0E6E7F1E0CC
:10301000F491FD8BF7FDD9C161E085E00E94720457
:10302000FD89FF2321F02D89223009F024C1F12CE4
:10303000E12C60E072E18AE790E0A70196010E942E
:10304000DB3329833A834B835C83DA01C90101971F
:10305000A109B1098F3F9105A105B10509F00CF453
:10306000F0C060E472E48FE090E0A70196010E9456
:10307000DB3321503109410951098D89823009F032
:10308000A2C082E02F3F31054105510509F00CF443
:103090008CC160E970ED83E090E0A70196010E9489
:1030A000DB33215031094109510983E02F3F3105BC
:1030B0004105510509F00CF478C1C301B201A70123
:1030C00096010E94DB3321503109410951092F3FFC
:1030D00031054105510511F00CF092C084E065C145
:1030E0008F3F09F072C100930001E6E7F1E0F4912F
:1030F000FD8BFF3F09F469C1F13029F158F0F2303E
:1031000009F43FC03D8937FD60C161E085E00E9460
:10311000720489CF14BC15BC84B5826084BD85B5AA
:10312000816085BDF1018491E82FF0E0EE0FFF1F73
:10313000E05DFE4F85919491E3E5F1E08491809309
:103140000D021D8A69CF109280001092810080913B
:1031500081008860809381008091810081608093EC
:103160008100F1018491E82FF0E0EE0FFF1FE05D98
:10317000FE4F85919491E3E5F1E0849180930C02F8
:103180004BCF1092B0001092B1008091B0008260DD
:103190008093B0008091B10081608093B100F10113
:1031A0008491E82FF0E0EE0FFF1FE05DFE4F859168
:1031B00094919093840280938302E3E5F1E08491FB
:1031C0008093850229CF2F3F31054105510509F034
:1031D0000CF44FC0C301B201A70196010E94DB337A
:1031E00021503109410951099D89992309F4AFC042
:1031F0002F3F31054105510511F00CF0B0C06ECFE5
:1032000064E274EF80E090E0A70196010E94DB3356
:10321000215031094109510985E02F3F3105410510
:10322000510509F008F4C1C062E17AE780E090E05E
:10323000A70196010E94DB33215031094109510950
:103240009DC09C0181E0FD89F111AFC095B5987FCB
:10325000892B85BD27BD8092120290921302A09205
:103260001402B092150280916E00826080936E000D
:10327000ACC082E0E8CFF12CE12C60E072E18AE79B
:1032800090E0A70196010E94DB33215031094109EA
:10329000510991E02115310581E0480751055CF0A5
:1032A000C301B201A70196010E94DB33215031090D
:1032B0004109510993E0ED89E13009F07CC080912A
:1032C0008100887F892B809381003093890020932F
:1032D000880080920E0290920F02A0921002B0928B
:1032E000110280916F00826080936F006EC0209306
:1032F000B3008092860290928702A0928802B092D8
:103300008902809170008260809370005EC06D8140
:103310007E818F8198850E94DA0457C084E02F3F18
:1033200031054105510509F008F490CF29813A8112
:103330004B815C818AE055954795379527958A950D
:10334000D1F7215031094109510985E07FCF83E050
:103350002F3F31054105510509F00CF477CF62E1AB
:103360007AE780E090E0A70196010E94DB332150CC
:10337000310941095109ED89EE2381F286E02F3FA1
:1033800031054105510589F080F029813A814B8151
:103390005C819AE055954795379527959A95D1F791
:1033A000215031094109510987E09091B100987F7E
:1033B000892B8093B100FD89F13009F486CFF2307A
:1033C00009F495CFFF2309F445CF6D817E818F816C
:1033D00098850E94DA0485E00E94460469897A890A
:1033E0008B899C890E94DA041F5F2E892113E0CD0E
:1033F00066960FB6F894DEBF0FBECDBFDF91CF91BA
:103400001F910F91FF90EF90DF90CF90BF90AF9002
:103410009F908F907F906F905F904F903F902F90F4
:1034200008954F925F926F927F928F929F92AF9288
:10343000BF92CF92DF92EF920F931F93CF93DF93C0
:10344000D82E192F0E94640F8695CD2DD12FB12C27
:10345000A12CC82ED12C88EE882E83E0982E21979F
:10346000AC14BD044CF5CE018C199D090E94640F6B
:10347000782ECE010E94640F182F672D70E0C401D2
:103480000E947937072E000C880B990B0E94A832F6
:103490002B013C01612F70E090E080E00E94A63299
:1034A000EE24E39410E000E0A30192010E949B1738
:1034B0008FEFA81AB80AD3CFDF91CF911F910F9148
:1034C000EF90DF90CF90BF90AF909F908F907F90C4
:1034D0006F905F904F9008951F920F920FB60F92CA
:1034E00011242F933F934F935F936F937F938F9309
:1034F0009F93AF93BF93EF93FF9380918602909138
:103500008702A0918802B0918902892B8A2B8B2B8C
:10351000D1F190918502E0918302F0918402808143
:10352000892780838091860290918702A0918802EA
:10353000B0918902181619061A061B069CF4809190
:10354000860290918702A0918802B091890201972A
:10355000A109B1098093860290938702A093880203
:10356000B0938902FF91EF91BF91AF919F918F919D
:103570007F916F915F914F913F912F910F900FBE6F
:103580000F901F901895809100010E944604EACF89
:103590001F920F920FB60F9211242F933F934F93C8
:1035A0005F936F937F938F939F93AF93BF93EF93AB
:1035B000FF9388E795E00E944003FF91EF91BF9150
:1035C000AF919F918F917F916F915F914F913F91BB
:1035D0002F910F900FBE0F901F9018951F920F9272
:1035E0000FB60F9211242F938F939F93EF93FF9316
:1035F000E0918805F09189058081E0918E05F09138
:103600008F0582FD1BC09081809191058F5F8F7324
:1036100020919205821741F0E0919105F0E0E85881
:10362000FA4F958F80939105FF91EF919F918F9124
:103630002F910F900FBE0F901F9018958081F4CF9F
:103640001F920F920FB60F9211242F933F938F93D7
:103650009F93AF93BF9380917B0290917C02A09146
:103660007D02B0917E0230917A0223E0230F2D3744
:1036700058F50196A11DB11D20937A0280937B021B
:1036800090937C02A0937D02B0937E0280917F0292
:1036900090918002A0918102B09182020196A11DB9
:1036A000B11D80937F0290938002A0938102B0931A
:1036B0008202BF91AF919F918F913F912F910F9077
:1036C0000FBE0F901F90189526E8230F0296A11D9C
:1036D000B11DD2CF1F920F920FB60F9211242F93CC
:1036E0003F934F935F936F937F938F939F93AF938A
:1036F000BF93EF93FF938091B900887F803609F4E0
:103700004AC0F0F5883209F4A7C018F5803109F4F1
:103710009BC0B8F4882309F4F9C0883009F494C038
:10372000FF91EF91BF91AF919F918F917F916F9199
:103730005F914F913F912F910F900FBE0F901F906F
:103740001895883109F488C0803251F7809350056C
:1037500014C0803409F49DC040F48033B9F3883339
:10376000F9F68093500585ECB0C0803509F485C02A
:10377000883509F496C0883499F60E946317D0CF33
:10378000883909F48CC038F5883729F050F4883628
:1037900011F0803729F683E0809372051092790248
:1037A00057C0883809F47BC0803919F0803809F097
:1037B000B7CF80917902803208F071C0E091790230
:1037C00081E08E0F809379028091BB00F0E0E75A90
:1037D000FD4F80833DC0803B39F0E0F4803A09F42E
:1037E00079C0883A09F09CCF84E0809372051092EA
:1037F000580210925702E0918C02F0918D020995C7
:103800008091570281110FC081E08093570210927E
:10381000370209C0803C09F4A6CF883C09F4A3CF45
:10382000883B09F07DCFE091580281E08E0F8093B4
:103830005802F0E0E95CFD4F80818093BB009091DD
:1038400058028091570229C080914D058093BB009A
:1038500085EC8093BC0064CF90914F0580914E051C
:10386000981758F5E0914F0581E08E0F80934F0532
:10387000F0E0E45DFA4F8081E9CFE0914F0581E00F
:103880008E0F80934F058091BB00F0E0E45DFA4F0E
:10389000808390914F0580914E059817C8F285E876
:1038A000D8CFE0914F0581E08E0F80934F05809136
:1038B000BB00F0E0E45DFA4F8083809151058111F7
:1038C0005CCF81E080934C0584EA8093BC00109229
:1038D000720526CF85EC8093BC0010927205809112
:1038E0007902803230F4E0917902F0E0E75AFD4F3E
:1038F00010826091790270E0E0918A02F0918B026F
:1039000089E592E00995109279020ACF109250054C
:1039100034CF1F920F920FB60F9211242F933F9323
:103920004F935F936F937F938F939F93AF93BF93C7
:10393000CF93DF93EF93FF932091380630E0F901A6
:10394000EE59FE4F8491F901E25BFE4FD491F901EB
:10395000E65CFE4FC491CC2379F081110E94EF0305
:10396000EC2FF0E0EE0FFF1FE45EFE4FA591B49147
:10397000EC91ED2381E009F480E020913D06309147
:103980003E062F5F3F4F30933E0620933D06209129
:103990003B0630913C062536310518F094E09093B3
:1039A000370690913706911130C0811169C020917E
:1039B0003D0630913E062436310528F410923E062D
:1039C00010923D065DC01092090710923C061092BD
:1039D0003B0620913B0630913C06A9014F5F5F4FAB
:1039E00050933C0640933B0640913D0650913E0665
:1039F000220F331FF901E15CF94F5183408310928C
:103A00003E0610923D0691E021C09091370691301C
:103A100001F58130A9F520913B0630913C06A901C2
:103A20004F5F5F4F50933C0640933B0640913D06ED
:103A300050913E06220F331FF901E15CF94F51838B
:103A4000408310923E0610923D0692E09093370616
:103A500017C090913706923061F4882309F4B9CFEA
:103A600020913D0630913E062536310548F093E021
:103A7000EDCF90913706933099F4882309F49ECFC7
:103A800090913A069923A9F0811126C080913906B8
:103A9000882371F08091390661E00E94180409C002
:103AA00090913706943061F791E090930907DFCF4A
:103AB0002D9AFF91EF91DF91CF91BF91AF919F919F
:103AC0008F917F916F915F914F913F912F910F90C7
:103AD0000FBE0F901F90189580913906882321F012
:103AE0008091390660E0D9CF2D98E3CFCF93DF9353
:103AF000E8E7F5E01382128288EE93E0A0E0B0E000
:103B000084839583A683B78329E631E031832083BC
:103B100025EC30E03587248724EC30E03787268792
:103B200020EC30E0318B208B21EC30E0338B228B8A
:103B300022EC30E0358B248B26EC30E0378B268B63
:103B4000118E128E138E148ECBE2D6E01B821A8257
:103B50008C839D83AE83BF838BE791E099838883B9
:103B6000E5E1F6E08DE891E091838083D383C28321
:103B70008FEF9FEF958384831682178210861186BC
:103B8000138612861586148617861686118A108A61
:103B900024E130E0338B228B958B848B80E190E0A5
:103BA0000E9441309093340780933307E7E3F6E0B7
:103BB00084E08183138263EB71E08DE297E00E94E1
:103BC0002417ECE1F7E081E1DF011D928A95E9F726
:103BD000E6E1F7E080E48083D283C18366EB71E0A5
:103BE0008AE097E00E9424176BEB71E080E197E098
:103BF000DF91CF910C942417CF93DF93CDB7DEB72D
:103C0000E4970FB6F894DEBF0FBECDBF789484B5AD
:103C1000826084BD84B5816084BD85B5826085BDC8
:103C200085B5816085BD80916E00816080936E0056
:103C30001092810080918100826080938100809148
:103C400081008160809381008091800081608093F9
:103C500080008091B10084608093B1008091B000B9
:103C600081608093B00080917A00846080937A00B4
:103C700080917A00826080937A0080917A008160DE
:103C800080937A0080917A00806880937A00109205
:103C9000C100E0918805F091890582E08083E09180
:103CA0008405F09185051082E0918605F0918705E5
:103CB00080E1808310929005E0918C05F0918D0554
:103CC00086E08083E0918A05F0918B058081806198
:103CD0008083E0918A05F0918B05808188608083E4
:103CE000E0918A05F0918B05808180688083E09166
:103CF0008A05F0918B0580818F7D808385E090E03F
:103D0000A0E0B0E080937C0590937D05A0937E05B4
:103D1000B0937F0510923903109238031092290551
:103D2000109228050E94FB0680EC92E090938D0291
:103D300080938C0281EC92E090938B0280938A02B4
:103D400088E08093B800EE24E39410E000E020E0E7
:103D500030E048E452E460E070E080EA91E40E94E0
:103D60009B178BE60E949F0C84EC92E00E94930CC0
:103D70008DEB92E00E94930C84EB92E00E94930CF6
:103D80008AE191E00E94640F882321F08FEF93E095
:103D90000E94111A87E791E00E94B4032BE1E22E02
:103DA00023E0F22E00E110E0C8010E94640FD70169
:103DB0008D937D010F5F1F4F00321105A9F71092FF
:103DC00039031092380310922905109228050E9499
:103DD000FB0680EC92E090938D0280938C0281EC44
:103DE00092E090938B0280938A0240E860E086E143
:103DF00097E00E94A9096AE070E080E090E00E94EC
:103E0000DA0440E050E06AE774E486E197E00E945B
:103E1000050B80E498E7ADE7B1E080931907909334
:103E20001A07A0931B07B0931C0783E191E00E943F
:103E30006410092E000CAA0BBB0B80938E0290938A
:103E40008F02A0939002B0939102885D9945A109D9
:103E5000B10985399141A105B10560F088EA91E683
:103E6000A0E0B0E080938E0290938F02A093900226
:103E7000B093910260918E0270918F0280919002B6
:103E8000909191020E94A83220E030E04AE754E489
:103E90000E94E7346B017C014B015C01AC019B018A
:103EA0000E942B36882309F448C088EC91E00E94D8
:103EB000820C0E948F0C20918E0230918F024091D3
:103EC000900250919102A8EEB3E00E94FA336B0188
:103ED0007C0140E050E060E773E486E197E00E94F7
:103EE000050BC0921F07D0922007E0922107F092A5
:103EF0002207C0921907D0921A07E0921B07F0928E
:103F00001C070E94190A8EE791E00E94930C90E032
:103F100080E08C010F5F1F4F805C9E4F0E94640FFA
:103F2000080F111DC801805C9E4F0E94640F8E34E3
:103F300009F493C0C8010496ECCF26013701E89438
:103F400077F82FEF3FEF4FE75FE7C301B2010E9421
:103F50002B3681110DC02FEF3FEF4FE75FE7C30115
:103F6000B2010E94A13218161CF48CEC91E09FCF94
:103F70002FEF3FEF4FE75FE4C701B6010E94CE3558
:103F800018161CF480ED91E092CF2FEF3FEF4FE732
:103F90005FECC701B6010E94A13287FDF3CF20E09C
:103FA00030E0A901C701B6010E94A13287FF09C014
:103FB0008DE20E94AF0346015701B7FAB094B7F8FB
:103FC000B0942AE037ED43EA5BE3C501B4010E94F7
:103FD00076344B015C010E9460356B017C010E94CC
:103FE000A6329B01AC01C501B4010E9475344B019E
:103FF0005C014AE0C701B6010E94BE0C8EE20E943D
:10400000AF0320E030E040E251E4C501B4010E947A
:1040100007334B015C010E9460356B01F12CE12CF0
:104020004AE0C701B6010E94BE0CC701B6010E945A
:10403000A6329B01AC01C501B4010E94753420E099
:1040400030E040E251E40E9407330E94603590E086
:1040500080E04AE00E94BE0C2CCF68E071E0C8010D
:104060008E5B9E4F0E943D0FF8941092800089E075
:104070008093810080E293E0909389008093880090
:10408000109285001092840082E080936F007894F3
:104090001092370610923C0610923B06809138062B
:1040A00060E00E94720464E070E08DE297E00E949C
:1040B0005D1661E083E00E94720486E090E00E9459
:1040C00041308C01DC0111961C921E9213961C92B9
:1040D0001E92129715961C921E92149784E891E0F6
:1040E0000E94930C1093330300933203E091330743
:1040F000F091340785E191E09183808383E191E041
:104100009383828381E191E09583848382E091E0CF
:10411000978386838FE091E0918780878DE091E09F
:10412000938782878BE091E09587848789E091E08F
:104130009787868710921701BDE4CB2EB1E0DB2E66
:1041400010E5912EAA24AA94B12C80E1E82E90E6E5
:10415000892E89E190E00E9441308C01FC01D182DE
:10416000C0829282B482A382168215821086178240
:104170003996DF012E2D1D922A95E9F70E94030C36
:10418000F82E86E992E0FF20E9F180910101882371
:1041900091F01092010185E792E00E94930C8CE16E
:1041A00092E00E94930C85ED91E00E94930C81EACD
:1041B00091E00E94930C0115110541F0D801ED9199
:1041C000FC910280F381E02DC801099589E190E01E
:1041D0000E9441308C01FC01D182C0828282B48273
:1041E000A38216821582108617823996DF012E2D42
:1041F0001D922A95E9F70E94030CF82E8111F1C057
:104200008AE891E00E94930C1093C1020093C002CF
:1042100068EE73E080E090E00E94DA04F11099CF3C
:10422000E091BE02F091BF02EE0FFF1FEF5AFE4F6A
:10423000608171818091C0029091C1020E94820EC2
:104240000E940D056093BA027093BB028093BC027A
:104250009093BD021092AD020E940D056093AE02D4
:104260007093AF028093B0029093B10280E10E94FC
:10427000A304BC01990F880B990B61157105810589
:10428000910511F00E9401328FE191E00E948D11A1
:1042900064EF71E080E090E00E94DA041092C702BF
:1042A0008DEA92E00E94930C009132031091330347
:1042B000F80180819181892B09F0A0C00E940D0531
:1042C000C0909202D0909302E0909402F0909502F8
:1042D0006C197D098E099F09C0900401D0900501D9
:1042E000E0900601F0900701C616D706E806F90629
:1042F0000CF084C08091C6028111ECC18FE396E07E
:104300009093A4028093A30280913B0690913C0677
:104310009093A6028093A5028091090790E0909364
:10432000A8028093A70280913706833009F0D2C19A
:104330008091410690914206875891098E359105EA
:1043400008F0C2C180913B0690913C06049709F0A9
:104350008AC180914306909144068097479708F060
:1043600082C180914506909146060997099708F009
:104370007AC11092A2021092A1028FEF9FEFDC018E
:1043800080939B0290939C02A0939D02B0939E0207
:1043900083E090E0909398028093970280919B0233
:1043A00090919C02A0919D02B0919E02892F9A2F1C
:1043B000AB2FBB278A3509F4E2C208F099C28232DA
:1043C00009F4C5C208F07EC2803109F4D5C208F0F4
:1043D0002CC26FEF72E0823009F42FC262E072E00B
:1043E000D9C20115110509F413CFD801ED91FC9143
:1043F0000280F381E02DC80109950ACFD8018D9183
:104400009C91181619060CF08FC00E940D05C090E3
:104410009202D0909302E0909402F09095026C1971
:104420007D098E099F09C0900401D0900501E0909C
:104430000601F0900701C616D706E806F9060CF04B
:1044400073C0D8011296ED91FC91F12CE12C3097BC
:1044500011F0E080F180F701808180933A03C380FE
:10446000D480D0922C03C0922B0345815681052E17
:10447000000C660B770B4093040150930501609389
:1044800006017093070121813281AEE3B3E0AD01F3
:104490004E5353404C155D052CF4F90191919F0149
:1044A0009D93F5CF81548A3108F0D9C08EE7F6018B
:1044B000E25CFC4F80830E940D0560939202709332
:1044C0009302809394029093950285E080932F034A
:1044D000E114F10459F0D70111968D919C91009748
:1044E00011F00E94DD30C7010E94DD30F8018281A9
:1044F0009381009711F40C942C30DC011296ED910D
:10450000FC91D8011396FC93EE931297309709F41F
:10451000A8C0158214820E94DD30D8018D919C9133
:10452000119701978D939C9310912F03112311F4F0
:104530000C94662A00913A03802F002E000C990BF0
:104540000E946938F82E80932E031530D8F4E2E6E5
:104550008E17C1F00C34B1F00934A1F0612F70E076
:10456000615F7F4F072E000C880B990B0E94A832C9
:10457000EE24E39410E000E020E030E040EA50E474
:104580000E949B1780911A01882349F0FBE6FF12D5
:1045900006C088EF9BE00E94A80B10921A01809140
:1045A0002D038356823050F480913A03833631F0E4
:1045B00081E08093190187E40E949F0C80913A0367
:1045C000803751F080911801811106C081E08093FD
:1045D000180180E70E949F0C10913A03E1ECE10F73
:1045E000E53308F02BC70E2E000CFF0BE650FD4DF7
:1045F0000C948D37162A1E2A1E2A1B2D1E2A1E2AAF
:104600001E2A1E2AD52A1E2A812C1E2A6A2D0B2D0F
:10461000812C1E2A1E2A1E2A1E2A1E2A1E2A542DBC
:104620001E2A1E2A1E2A1E2A1E2A1E2A1E2A1E2A4A
:104630001E2A1E2A1E2A1E2A9A2BB02BB02BF72DBB
:104640001E2A1E2AD52A1E2AB02BEE2ADD2D1E2A4E
:10465000B02B1E2A1E2ADC2A1E2A1E2A412B80E08D
:1046600026CFF80156CF80913B0690913C068434CA
:10467000910550F18091430690914406815491092F
:104680008F9710F530E020E080E090E0DC01F90148
:10469000EB5BF94F40815181495051094930510537
:1046A00098F4F901E95BF94F408151814751510973
:1046B0004231510508F4A2C0408151814650510950
:1046C0004730510508F4ACC01092370610923C06F2
:1046D00010923B0688E795E00E9420031816190601
:1046E0000CF075C081E08093C60288E795E00E94D7
:1046F000FE02382E80933A03082E000C990B0E947C
:104700006938182F80932E0382E080932F0361E095
:1047100070E080E090E00E94DA04FFEBF30DFDA76B
:104720004EE7242EFA3110F03AE0232E0E940D05B8
:104730002B013C012BE4321621F085E090E012368B
:1047400011F488EC90E01B7F19AB6C01990FEE0817
:10475000FF0888E795E00E942003892B09F4F5C142
:1047600000912B0310912C033BE6331619F089A915
:10477000893639F480911D0190911E01081719079F
:104780002CF4033D91E019070CF4C5C18AE093E0D5
:104790000E94930C64EF71E080E090E00E94DA04E4
:1047A00088E795E00E94FE0288E795E00E942003DA
:1047B000892BB1F780913A030E949F0C8BE680937E
:1047C0003A0367EE71E08EE393E00E9483380E9423
:1047D0000D0520912F032150223008F0E4C10E94E2
:1047E0000D056854744F8F4F9F4F6093C2027093B2
:1047F000C3028093C4029093C50296CE880F991F7E
:10480000AA1FBB1F81602C5F3F4F2038310509F084
:104810003ECF20E230E03093A2022093A102B0CD3F
:10482000880F991FAA1FBB1FEECF823109F4B0C0B9
:1048300067EE72E0883109F0D1CDCE0181960E94F9
:10484000351767ED71E0CE0181960E94BC0D88237B
:1048500009F4A5C066EA71E08DE297E00E94EE16C9
:104860006DE277E0CE0187960E94D216CE01819646
:104870000E94E30D62E072E0CE0187960E94BC0DBB
:10488000811115C06FA178A58BA59CA5019709F092
:104890002EC16115710521F41092960266E972E04D
:1048A000FB01808180933A0381E080932F03109273
:1048B000370610923C0610923B06CE0187960E9466
:1048C000E30D08CF823409F45DC048F4803309F465
:1048D0004DC06DED72E0883309F4AFCF7FCD8A34DF
:1048E00009F453C06FEC72E0823509F4A6CF76CD9F
:1048F000823A39F198F48A37E1F140F4823621F1B5
:1049000064EF72E0883609F498CF68CD803959F1A8
:1049100061EF72E0883909F490CF60CD823CD1F02C
:1049200040F4883AE9F06EEE72E0803B09F485CFFE
:1049300055CD803E91F064E073E0823E09F47DCF76
:104940004DCD68E073E079CF66E073E076CF62E04A
:1049500073E073CF6DEF72E070CF6BEF72E06DCFED
:1049600069EF72E06ACF67EF72E067CF6BEE72E0DB
:1049700064CF63EE72E061CF60EE72E05ECF69ED0E
:1049800072E05BCF66ED72E058CF61ED72E055CF1B
:1049900064ED71E0CE0181960E94241752CF69ED3B
:1049A00071E0CE0181960E94BC0D811111C066ECB0
:1049B00071E0CE0181960E94BC0D811109C062ECAC
:1049C00071E0CE0181960E94BC0D882309F442C09B
:1049D0008DA19EA1892B21F0E9A1FAA1309721F4A4
:1049E00010929602E6E9F2E0108110930801163465
:1049F00071F466EA71E08DE297E00E94BC0D8823B5
:104A000031F063EB71E08DE297E00E94EE166DE20B
:104A100077E0CE0101960E94D2161FA318A641E0AE
:104A200050E0BE01695D7F4FCE0101960E94851660
:104A3000811104C0CE0101960E94D10DBE016F5FAD
:104A40007F4FCE0187960E94D216CE0101960E941A
:104A5000E30D0CCF6BED71E0CE0181960E94BC0D91
:104A600009A11AA1811131C06EED71E0CE018196CC
:104A70000E94BC0D811129C061EE71E0CE018196CA
:104A80000E94BC0D811121C063EB71E0CE018196C3
:104A90000E94BC0D811119C064EE71E0CE018196B7
:104AA0000E94BC0D811111C018A70FA38BA19CA15E
:104AB0009AA789A78DA19EA19CA78BA71AA219A22C
:104AC0001CA21BA21EA21DA2D1CE0115110551F0E0
:104AD0004DA15EA1B8018DE297E00E94B116109140
:104AE000080195CF8DE297E00E94D10DF8CF8BE6BB
:104AF00080933A038EE393E00E94833867EE71E07F
:104B00008EE393E00E947A38892B09F0CDCE86E4BB
:104B100080930801C9CE88E795E00E94FE029801C3
:104B20002F5F3F4F30932C0320932B03F801E25C5F
:104B3000FC4F808388E795E00E942003892B09F0D1
:104B40000FCE0E940D052B013C0100912B0310910B
:104B50002C035801A1E0AA1AB108F501E25CFC4F50
:104B60004F018081821561F00E940D05641975095D
:104B7000860997096C157D058E059F050CF4E9CD16
:104B8000D4018C91281201C0850110932C0300934D
:104B90002B03BDA58EE7BA3108F080E0F801E25C96
:104BA000FC4F808314CE20913A03233609F4BCCC09
:104BB0000091C2021091C3022091C4023091C5023B
:104BC000601B710B820B930B16161706180619063D
:104BD0000CF0AACC1092C602E090C002F090C10284
:104BE000E091BE02F091BF02EE0FFF1FEF5AFE4FA1
:104BF00080809180F70183819481009711F0019763
:104C000031F0B401C7010E949B056C01F2C085819F
:104C10009681DC01ED91FC910480F581E02DAE01DF
:104C20004F5F5F4F6FE10995D12CC12C8111E1C01D
:104C3000FEA6EDA6312C212CD12CC12CBB24B39483
:104C4000B20CE1E0F0E0022C02C0EE0FFF1F0A946C
:104C5000E2F7FCABEBABCF0188219921892B09F45A
:104C6000BBC0ADA5BEA51996ED91FC91309709F496
:104C7000B3C099818081981709F4AEC061E0C70183
:104C80000E94C706F70105811681D801ED91FC91BC
:104C90000284F385E02D4B2D60E2C8010995611176
:104CA000A8C0D801ED91FC910084F185E02DAE0102
:104CB0004E5F5F4F64E3C801099561119AC08A8114
:104CC000882309F476C0D801ED91FC910084F18528
:104CD000E02DAE014F5F5F4F6FE1C8010995611193
:104CE00088C08A81811181E08A83FE0131965F014B
:104CF000412C512C32018A8190E0B0E0A0E04816AE
:104D000059066A067B0608F054C0D801ED91FC9163
:104D10000284F385E02D41E0440D65E3C801099567
:104D2000F5013596FAABE9AB611163C0A5014E5FA1
:104D30005F4FD801ED91FC910084F185E02D60E496
:104D4000C8010995A5014D5F5F4FD801ED91FC9118
:104D50000084F185E02D61E4C8010995A5014C5F4F
:104D60005F4FD801ED91FC910084F185E02D62E464
:104D7000C8010995D801ED91FC910084F185E02DE1
:104D800049A95AA963E4C8010995A5014A5F5F4F83
:104D9000D801ED91FC910084F185E02D64E4C80117
:104DA0000995BFEF4B1A5B0A6B0A7B0AA9A8BAA840
:104DB000A2CF60E0C7010E94C706EDA5FEA5A185B0
:104DC000B28587E0FE01319601900D928A95E1F758
:104DD0002BA93CA9C22AD32A3FEF231A330A8DA557
:104DE0009EA502969EA78DA798E02916310409F08A
:104DF00025CFC820D920CD2809F4FCCE80E080FC46
:104E000004C0969487948F5FFACF282F30E0220F4A
:104E1000331FE20EF31ED7011996ED91FC913097E6
:104E200009F4AEC2893008F0ABC28181882309F44D
:104E3000A7C20E940D056093BA027093BB028093D3
:104E4000BC029093BD02A091C002B091C10220911A
:104E5000BE023091BF02F901EE0FFF1FEF5AFE4F65
:104E60008081918140E0BC0160FD04C0769567952A
:104E70004F5FFACFE42FF0E0EE0FFF1FEA0FFB1FAA
:104E80000184F285E02D309781F0493070F4428141
:104E900050E05093B9024093B80240E0BC0160FD7D
:104EA00006C0769567954F5FFACF40E0F1CFE42FCB
:104EB000F0E0EE0FFF1FEA0FFB1F0184F285E02DEB
:104EC000309779F0493068F4438150E05093B7024D
:104ED0004093B60240E080FD06C0969587954F5FEF
:104EE000FACF40E0F2CFE42FF0E0EE0FFF1FEA0F21
:104EF000FB1F0184F285E02D309729F1493018F528
:104F0000848190E09093B5028093B4022130310502
:104F100021F51D96ED91FC9100E0309709F0068196
:104F200010E08091B2029091B30280179107A9F02E
:104F3000309731F08681813041F0823009F4C4C16C
:104F40008EE093E004C080E0DCCF86E293E00E9434
:104F5000930C1093B3020093B202C090B402D090AD
:104F6000B5020091B6021091B702E090B802F0903D
:104F7000B902B7010F2C000C880B990B0E94220D6F
:104F800089E00E94AF03B801012E000C880B990B39
:104F90000E94220D89E00E94AF038AEE91E00E94F8
:104FA000820CB601DD0C880B990B0E94220D0E9429
:104FB0008F0C6091150170911601072E000C880B63
:104FC000990B0E94A83220E030E040E251E40E94B8
:104FD000E7344B015C01B70162537109072E000CE5
:104FE000880B990B0E94A832A50194010E94E73416
:104FF0000E9459352B01B80162537109072E000C2C
:10500000880B990B0E94A832A50194010E94E734F5
:105010000E9459356DA77EA78FA798AB6091AB0210
:105020007091AC0264197509673ABFEF7B070CF405
:105030004EC16B35710514F06AE570E0072E000C67
:10504000880B990B0E94A8324B015C0160911301FF
:1050500070911401072E000C880B990B0E94A83246
:1050600020E030E040E251E40E94E7346B017C0133
:10507000AC019B01C501B4010E94E7340E9459357F
:105080004B018B017093AC026093AB026091A9025B
:105090007091AA02EDA5FEA56E1B7F0B663BFFEF8C
:1050A0007F070CF41BC16C34710514F06BE470E0E5
:1050B000072E000C880B990B0E94A832A7019601BD
:1050C0000E94E7340E9459356B011B017093AA02BC
:1050D0006093A902C20157FE04C08827992784194A
:1050E0009509029754F48DA59EA597FF03C091954D
:1050F0008195910902970CF4CDC0C4018C96893535
:10510000910508F0F2C0FE0133968EE0DF011D929A
:105110008A95E9F78091110190911201889DB00163
:10512000899D700D989D700D1124072E000C880B21
:10513000990B0E94A83220E030E040E251E40E9446
:10514000E7340E9459357A836983C60137FC01969A
:10515000959587959195819591099C01255B3F4F88
:1051600060910F0170911001C8010E947937C90147
:10517000860F971F9A8B898B261B370B3C8B2B8BAB
:10518000C10163E070E00E9479379B01265A3F4FCE
:1051900060910D0170910E01C8010E947937C9011B
:1051A000861B970B9E8B8D8B620F731F788F6F8B77
:1051B000B601DD0C880B990B0E94A8322AE939E967
:1051C00049E95FE30E94E73420E030E040E251E447
:1051D0000E9476346B017C0160910B0170910C018F
:1051E000C8010E947937072E000C880B990B0E948A
:1051F000A8324B015C01AC019B01C701B6010E94C2
:1052000075340E9459357A8F698FA5019401C701C1
:10521000B6010E9476340E9459357C8F6B8FC10194
:105220006DEF7FEF0E9479379B012E51310960911C
:10523000090170910A01C8010E947937C901860FDE
:10524000971F9E8F8D8F261B370B38A32F8F80E1E2
:1052500090E090932C0380932B038CE480933A038B
:10526000EEE3F3E0DE01119620E08D919D918D3704
:105270009105CCF583383FEF930714F483E89FEF53
:1052800081932F5F203189F78EE780934E0386E06C
:1052900080932F030E940D050091AE021091AF0282
:1052A0002091B0023091B102601B710B820B930B05
:1052B000683E73408105910508F047C08091AD02BA
:1052C0008F5F8093AD0230C98FE193E040CE812C97
:1052D000912C64EBA62E62ECB62EB8CE60E070E0A6
:1052E00086E992ECEBCE8DE7CBCFE0903203F090E5
:1052F0003303C40117FF04C0882799278819990927
:1053000048E2489F9001499F300D112440EC51E044
:1053100017FD02C044EC51E06BE6C7010E944C0D42
:1053200030E020E042EF51E06BE6C7010E944C0DF7
:1053300030E020E042E052E069E6C7010E944C0DF7
:105340001092AC021092AB02A5CF86EF91E00E94C2
:10535000820C6091AD0270E090E080E04AE00E9433
:10536000BE0C0E948F0C1092AD020E940D0560933E
:10537000AE027093AF028093B0029093B102D4C892
:105380000E940D050091BA021091BB022091BC024F
:105390003091BD02601B710B820B930B613D774016
:1053A0008105910508F4C0C8E091BE02F091BF02EA
:1053B000EE0FFF1FEF5AFE4F6081718140E0809138
:1053C000C0029091C1020E94ED0D8091BE029091A9
:1053D000BF020196817099279093BF028093BE020D
:1053E000880F991FFC01EF5AFE4F608171818091F7
:1053F000C0029091C1020E94820E2091BE023091A3
:10540000BF0246E0429FC001439F900D1124865F7A
:10541000984F0E94AB0C0E940D056093BA027093E6
:10542000BB028093BC029093BD027EC88BE593E0E3
:105430000E94930C82E593E00E94930C80913A03C2
:105440008B3621F4909116051916CCF40E949F0C0E
:1054500080912D038B3699F480913A038A3661F05E
:10546000803751F080912E03873631F0982F9B7F43
:10547000993611F0863719F48BE680933A03109130
:105480003A031B3691F480913E03882371F06CE956
:1054900071E08EE393E00E947A38892B31F06EE35D
:1054A00073E087EC92E00E94833810922F031093F0
:1054B0002D031B3629F01356123010F010923A03C8
:1054C00010923E0310922C0310922B0380913A030A
:1054D0008B3609F07EC4E0901605E7FEA1C38091EB
:1054E0002405FF24FA94F80E823008F4F12C10E021
:1054F0003EECE32E42E3B42E212F30E080911605DE
:10550000082E000C990B97FF03C091958195910986
:10551000281739070CF043C4C0902605D090270502
:1055200080911C05189FC00CD11C1124F6016089C4
:10553000062E000C770B880B990B0E94A83220E0F6
:1055400030E040E85EE30E9407339B01AC0100E0DD
:1055500060912105C6010E94211380911C05E091F4
:105560002605F0912705189FE00DF11D1124618992
:1055700016160CF050C3FB2D6F02B0011124072E3C
:10558000000C880B990B0E94DA04FF2061F01123B4
:1055900051F080912305181306C010912205115077
:1055A0001F140CF4FA941F5FA7CF87E6173409F095
:1055B00045CF80933A0342CF8091180191E0811149
:1055C00090E090931801811110E510933A03811136
:1055D00002C08BE6EECF0E94190A30CF8DE30E9405
:1055E000AF0380912B0390912C03892BA1F08EE3C4
:1055F00093E00E940A32880F991FFC01E15EFE4F82
:1056000060817181072E000C880B990B0E94220D7E
:105610000E948F0C13CF0E94020D62E072E0CE0157
:1056200081960E9424170FE111E08FE3E82E81E0BC
:10563000F82ED8016D917D918D01CE0101960E94C9
:10564000F8164D815E8169817A81CE0181960E9432
:105650008516CE0101960E94E30D42E050E060E025
:1056600072E0CE0181960E948516E016F10609F7D8
:10567000CE0181960E94AB0CCE0181960E94E30D73
:10568000DDCE8CE493E00E94930CABE18A2EA3E084
:105690009A2EB0E4EB2EF12C00E110E0F401D19051
:1056A0004F01C8010E94C533D81621F06D2DC801E5
:1056B0000E94CD33C7010E9464106C01C80180961E
:1056C0000E94640FB82EF40131976081062E000C01
:1056D000770B880B990B0E94A8322B013C016B2D94
:1056E000BB0C770B880B990B0E94A8329B01AC0175
:1056F000C301B2010E9407332B013C01B601DD0C4E
:10570000880B990B0E94A8329B01AC01C301B20126
:105710000E9476340E945935C70180960E943D0F41
:105720000F5F1F4FF2E0EF0EF11C0032110509F080
:10573000B5CF84CE84E493E00E94930CFBE1EF2E7E
:10574000F3E0FF2E00E110E0C8010E94640FD701D2
:105750008D937D010F5F1F4F00321105A9F76ECEAB
:10576000193649F480912B0390912C03892B19F45D
:1057700010923B0363CE10921A03709019010FE14F
:1057800011E0FE0131966F017AEDE72E72E0F72EFF
:10579000EFE38E2EE1E09E2E5601D8016D917D91B2
:1057A0008D01072E000C880B990B0E94A83220E077
:1057B00030E0A901772029F0F70120813181428171
:1057C00053810E9475340E945935D6016D937D93A3
:1057D0006D01B4E0EB0EF11C80169106F1F66CEF52
:1057E00071E08EE393E00E9438326C01C114D10461
:1057F00009F447C0C6010E940A328C016FEF71E0C4
:1058000090E080E00E9438326C01F12CE12C882479
:105810008394912C009769F00E940A327C016FEF0B
:1058200071E090E080E00E9438326C0162E0862EE8
:10583000912C80913A03982F9B7F993609F055C39C
:105840000031110598F49801220F331FF501E20F82
:10585000F31FF182E08204301105D4F42E523D4F43
:10586000F901F182E08291E090933B038D3609F0DB
:10587000D5C340E050E060E070E4C5010E94A9118A
:10588000CDC3F12CE12C10E000E0912C812CD1CF84
:1058900091E090931A03EACF823609F0BFC38928BA
:1058A00081F48AE191E00E94640F2AE131E03AA399
:1058B00029A361E0811160E0CE0181960E94240F4E
:1058C000ADC3E114F10409F4A9C388EE93E0B70174
:1058D0000E947937072E000C880B990B0E94A83282
:1058E0002B013C01B801110F880B990B0E94A832C3
:1058F000EE24E39410E000E0A30192010E949B17C4
:105900008DC380912B0390912C0302970CF430CF20
:1059100010921A0390901901AFE1EA2EA1E0FA2E3D
:105920009E012F5F3F4F5901BAEDCB2EB2E0DB2E27
:105930008901D7016D917D917D01072E000C880BA7
:10594000990B0E94A83220E030E0A901992029F0AB
:10595000F60120813181428153810E9475340E9479
:105960005935D5016D937D935D01B4E0CB0ED11C0B
:10597000EFE3EE16E1E0FE06E1F6FEE3EF2EF3E0E4
:10598000FF2EDD24D39420912B0330912C03C701EB
:105990008E5393408217930764F5D7014C914031A1
:1059A000B0F411962C91022E000C330B842F880F2B
:1059B000990BF801E80FF91F318320834430B4F4C8
:1059C0008E529D4FFC0131832083D0923B03809106
:1059D0003A038D3439F440E050E060E070E4C801EF
:1059E0000E94A911F2E0EF0EF11CCDCFD0921A0364
:1059F000EECF80911A03811105C080912D038B3663
:105A000009F41CCD40E050E060E870E4C8010E9459
:105A1000A911C8011EC36091170170E090E080E0F9
:105A20000E94A6329B01AC0100E061E08EE393E0AE
:105A30000E94211303CDF12C2F2D30E080912B03F8
:105A400090912C0397FD0196959587952817390716
:105A50000CF006C3220F331F8901025C1C4FD801D2
:105A600011966C91062E000C770B88EE93E00E9445
:105A70007937072E000C880B990B0E94A8324B0136
:105A80005C01F8016081062E000C770B880B990BE6
:105A90000E94A832EE24E39410E000E0A5019401F6
:105AA0000E949B17F394C8CF86E191E00E94641096
:105AB0000E94270A0E94C31480913A030E949F0CFF
:105AC0008BE680933A0363E072E08EE393E00E94FA
:105AD0008338B4CC86E191E00E9464107C0180910F
