:100000000C9459010C9481010C9481010C947E187C
:100010000C947E180C947E180C9481010C9480171B
:100020000C9481010C9481010C9481010C94151A9B
:100030000C9481010C9481010C9481010C94810138
:100040000C9434180C9481010C9402180C94DC1755
:100050000C9481010C9481010C9481010C94810118
:100060000C94F6180C94810105A84CCDB2D44EB96D
:100070003836A9020C50B9918688083CA6AAAA2A4B
:10008000BE000000803F07634236B79BD8A71A39ED
:10009000685618AEBAAB558C1D3CB7CC5763BD6DD6
:1000A000EDFD753EF6177231BF000000803F08007D
:1000B0000000BE922449123EABAAAA2ABECDCCCCE7
:1000C0004C3E00000080BEABAAAAAA3E0000000081
:1000D000BF000000803F0000000000084178D3BB53
:1000E0004387D1133D190E3CC3BD4282AD2B3E6800
:1000F000EC8276BED98FE1A93E4C80EFFFBE01C4F1
:10010000FF7F3F0000000000010000010000000030
:1001100000000000000000000000000031307468A2
:100120000039746800387468003774680036746881
:1001300000357468006231342C382C31342C382C62
:1001400032312C382C32312C382C32332C382C32A2
:10015000332C382C32312C34006B6D77006D30200D
:1001600038302030202D3830006B707531000000A1
:100170000000240027002A000000000800020100FF
:100180000003040700000000000000000253657235
:10019000766F3A00536B696C6C00437573746F6DC6
:1001A000697A656420766F6963653A00496E69749F
:1001B00020766F696365005461736B51005265610D
:1001C000647921004E5F3233303432310042697439
:1001D000746C65000A2A205374617274202A004CE2
:1001E0006F7720706F7765723A007A65726F00736F
:1001F00063726800636B0070656500707500686904
:10020000007374720073697400747200776B00631A
:100210007200767400630042007000520075700036
:100220004C006700460064004F5646005F3F00697F
:10023000015D015901350131012D012901250121FE
:10024000011C014F56462120576F6E2774207361A1
:100250007665210061626F72746564007361766512
:1002600064004E5F32333034323100426974746C52
:1002700065000000000023002600290000000000A7
:10028000250028002B0004040404040404040202D2
:100290000202020203030303030301020408102005
:1002A0004080010204081020010204081020021BF3
:1002B000082B11241FBECFEFD8E0DEBFCDBF11E069
:1002C000A0E0B1E0ECE0F7E602C005900D92A03DA1
:1002D000B107D9F727E0A0EDB1E001C01D92AD3321
:1002E000B207E1F711E0C8E5D1E004C02197FE01B3
:1002F0000E948732C735D107C9F70E941A1C0C9497
:1003000079330C94000047E018160CF444E0409355
:100310000C0598E0823024F494E1813009F490E1F6
:1003200090930D05282F880F330B37FF03C03195AD
:1003300021953109929FB001939F700D1124CB013B
:10034000840F911D089580913003082E000C990BA5
:1003500090930F0580930E0580913103082E000CB9
:10036000990B90931105809310058091320380932F
:1003700012058091070587FF0EC09091330390937B
:100380001305909134039093140590913503909345
:10039000150590E005C08130E1F398E08230CCF3A0
:1003A00090931605082E000C990B97FF03C09195AA
:1003B0008195910940910D05489F9001499F300D0D
:1003C000112482ED91E0821B930B90930C0180939A
:1003D0000B0160910C05620F732F711D8FE293E08A
:1003E00050E040E0FC01E60FF71FA081FC01ED5258
:1003F000FE4FA0834F5F5F4F01972417350794F797
:100400008EE78093020582E095E0821B930B909328
:100410001805809317050895CF93DF93DC0190961C
:10042000FC0141E85FEF60E870E02191319126170F
:1004300037070CF4B901421753070CF4A901EA1766
:10044000FB0799F763387F4F1CF04E3751056CF16D
:1004500022E020931205DC012D913D91ED012297C0
:1004600037FF02C02F5F3F4F35952795398328838B
:10047000AE17BF0789F7A0911705B0911805EC01D9
:10048000288102962D938E179F07C9F781E08093EC
:1004900007051092160580E180930D0510922E033A
:1004A00010922D03DF91CF91089521E02093120542
:1004B000E2CF8091290390912A03891B990B08951B
:1004C00008950895FC01248135816217730720F493
:1004D00080819181009729F410928E028EE892E03B
:1004E0000895860F971F0895DC01ED91FC9101900E
:1004F000F081E02D0994AF92BF92CF92DF92EF92FC
:10050000FF920F931F93CF93DF936C017B018B01BD
:10051000040F151FEB015E01AE18BF08C017D1070D
:1005200059F06991D601ED91FC910190F081E02D97
:10053000C6010995892B79F7C501DF91CF911F91EC
:100540000F91FF90EF90DF90CF90BF90AF90089504
:10055000FC01538D448D252F30E0842F90E0821BC9
:10056000930B541710F0CF96089501970895FC014E
:10057000918D828D981761F0A28DAE0FBF2FB11DA6
:100580005D968C91928D9F5F9F73928F90E00895FE
:100590008FEF9FEF0895FC01918D828D981731F0B8
:1005A000828DE80FF11D858D90E008958FEF9FEF0C
:1005B0000895FC01918D228D892F90E0805C9F4FE2
:1005C000821B91098F739927089589E695E00E940F
:1005D000D90221E0892B09F420E0822F089580E0E0
:1005E00090E0892B29F00E94E50281110C94000013
:1005F0000895FC01A48DA80FB92FB11DA35ABF4FB8
:100600002C91848D90E001968F739927848FA68911
:10061000B7892C93A089B1898C91837080648C9365
:10062000938D848D981306C00288F389E02D808114
:100630008F7D80830895EF92FF920F931F93CF9346
:10064000DF93EC0181E0888F9B8D8C8D98131AC00D
:10065000E889F989808185FF15C09FB7F894EE89F4
:10066000FF896083E889F989808183708064808351
:100670009FBF81E090E0DF91CF911F910F91FF909C
:10068000EF900895F62E0B8D10E00F5F1F4F0F7344
:100690001127E02E8C8D8E110CC00FB607FCFACFFF
:1006A000E889F989808185FFF5CFCE010E94F902A2
:1006B000F1CFEB8DEC0FFD2FF11DE35AFF4FF082D0
:1006C0009FB7F8940B8FEA89FB8980818062CFCF36
:1006D0000F931F93CF93DF938C01D0E0C0E0F8011C
:1006E000EC0FFD1F6491662341F089E695E00E94BE
:1006F0001B03892B11F02196F2CFCE01DF91CF9110
:100700001F910F910895CF93DF93EC01888D88237B
:10071000B9F0AA89BB89E889F9898C9185FD03C064
:10072000808186FD0DC00FB607FCF7CF8C9185FF49
:10073000F2CF808185FFEDCFCE010E94F902E9CF93
:10074000DF91CF910895833081F028F4813099F0C2
:100750008230A9F008958730A9F08830C9F084303C
:10076000B1F4809180008F7D03C0809180008F77ED
:1007700080938000089584B58F7784BD089584B5F3
:100780008F7DFBCF8091B0008F778093B00008956C
:100790008091B0008F7DF9CF1F93CF93DF93282FE7
:1007A00030E0F901E858FE4F8491F901E656FD4F1B
:1007B000D491F901EA57FD4FC491CC23A9F0162F2B
:1007C00081110E94A303EC2FF0E0EE0FFF1FE4580D
:1007D000FD4FA591B4918FB7F894EC91111108C019
:1007E000D095DE23DC938FBFDF91CF911F910895C9
:1007F000DE2BF8CF9091000189130BC0ECE8F1E0FB
:10080000E4919FEF90930001E13049F028F0E2304D
:1008100061F060E00C94CC0310926E00FACF9091DE
:100820006F009D7F90936F00F4CF909170009D7F3B
:100830009093700091E09093B0009091B100987FF8
:1008400094609093B1001092B300E3CFCF93DF9305
:1008500090E0FC01E656FD4F24918A579D4FFC0124
:1008600084918823D1F090E0880F991FFC01E25910
:10087000FE4FA591B491FC01E458FD4FC591D49170
:1008800061110EC09FB7F8948C91E22FE0958E23F2
:100890008C932881E223E8839FBFDF91CF91089555
:1008A0008FB7F894EC91E22BEC938FBFF6CF8E507C
:1008B000806480937C0080917A00806480937A00C9
:1008C00080917A0086FDFCCF80917800909179002C
:1008D00008953FB7F8948091830290918402A0918B
:1008E0008502B091860226B5A89B05C02F3F19F05E
:1008F0000196A11DB11D3FBFBA2FA92F982F8827A0
:10090000BC01CD01620F711D811D911D42E0660F7A
:10091000771F881F991F4A95D1F708958F929F924C
:10092000AF92BF92CF92DF92EF92FF926B017C0168
:100930000E9469044B015C01C114D104E104F1047B
:10094000B9F00E946904681979098A099B09683E0F
:1009500073408105910580F321E0C21AD108E108B6
:10096000F10888EE880E83E0981EA11CB11CE4CF2C
:10097000FF90EF90DF90CF90BF90AF909F908F90BF
:1009800008952FB7F89460917F0270918002809152
:100990008102909182022FBF089520919902309197
:1009A0009A022817390771F4909197028091980262
:1009B000981741F0E0919702F0E0E25CFD4F8081F2
:1009C00090E008958FEF9FEF08950895EF92FF92C2
:1009D0000F931F93CF93DF93DC015C96ED90FC9017
:1009E0005D97E114F10479F481E090E013969C9313
:1009F0008E93129790E080E0DF91CF911F910F913D
:100A0000FF90EF9008955196ED91FC91529750967A
:100A10008C915097982F90950FB75E962C915E977A
:100A2000122F127021FD6095F8942081112319F185
:100A3000282B2083E7012197F1F728E0462F50E08B
:100A4000308160FF1AC0382B3083E7012197F1F71E
:100A5000BA0175956795215089F7112381F080813E
:100A6000892380830FBF5C968D919C910197F1F74C
:100A700081E090E0C1CF2923DCCF3923E5CF9081FD
:100A8000892BEFCF2091990230919A0228173907CC
:100A900061F4809198022091970290E0805C9F4FD2
:100AA000821B91098F739927089590E080E0089543
:100AB0002091990230919A0228173907B9F4909140
:100AC000970280919802981789F0E0919702F0E0E0
:100AD000E25CFD4F80812091970230E02F5F3F4F15
:100AE0002F7333272093970290E008958FEF9FEFA5
:100AF00008950F931F930E94C1046093030770939E
:100B0000040780930507909306078BEF96E00E94F9
:100B1000580597FF1DC00E94C10400910307109162
:100B200004072091050730910607601B710B820BAB
:100B3000930B0091FF06109100072091010730915F
:100B400002076017710782079307F8F28FEF9FEF94
:100B50001F910F91089520911B02260F3327331FF9
:100B600021323105ECF420916305FC0190E080E036
:100B7000243069F082E00895A0911B022191AC011C
:100B800045505E4FA40FB52FB11D2C9301968617CB
:100B900098F380911B02680F60931B0280E0089518
:100BA00081E008951092630581E0809342051092E0
:100BB0003D0561E082E10E94CC0361E083E10E9497
:100BC000CC03E9EBF0E080818E7F808380818D7F94
:100BD000808388E48093B80085E48093BC00089506
:100BE000CF93DF9391E09093FA018823B9F0C091FD
:100BF000B800D091BA008091BC008A7B8093BC0081
:100C000060E082E10E94CC0360E083E10E94CC03BB
:100C10000E94D205D093BA00C093B800DF91CF9163
:100C20000895CF92DF92EF92FF920F931F93CF938D
:100C3000DF93D82FC62F613208F098C00E94690454
:100C40006B017C018091630581116BC081E0809311
:100C50006305809342059FEF9093410510924005F4
:100C60009C0F90933F0580933E0580913E05DD0FDC
:100C7000D82BD0933E0580913D05813009F078C096
:100C800010923D050E9469046B017C0180913E0534
:100C90008093BB008091650590916605A0916705E2
:100CA000B0916805892B8A2B8B2BA1F00E946904D7
:100CB00000916505109166052091670530916805E2
:100CC0006C197D098E099F09061717072807390730
:100CD00008F448C08091BC0083FDD8CF85EC809398
:100CE000BC000E9469046B017C0180916305813026
:100CF00009F440C0809140058C1710F4C091400564
:100D0000EDE1F5E0A3E4B5E080E08C1355C08C2F55
:100D1000DF91CF911F910F91FF90EF90DF90CF90D7
:100D200008958091650590916605A0916705B09141
:100D30006805892B8A2B8B2B09F484CF0E946904C8
:100D40000091650510916605209167053091680551
:100D50006C197D098E099F0906171707280739079F
:100D600008F070CF809164050E94F005C0E0CFCFFD
:100D700085EEB5CF8091650590916605A0916705D8
:100D8000B0916805892B8A2B8B2B09F4AECF0E947A
:100D90006904009165051091660520916705309101
:100DA00068056C197D098E099F0906171707280722
:100DB000390708F09ACFD6CF91919D938F5FA5CF39
:100DC000E0912A0380912903E81730F4F0E0ED5B0D
:100DD000FA4F808190E008958FEF9FEF08959091F2
:100DE0002A03809129032FEF3FEF981748F4E92F4A
:100DF000F0E0ED5BFA4F208130E09F5F90932A0393
:100E0000C9010895CF92DF92EF92FF920F931F9343
:100E1000CF93DF937C01CB018A0120911C05222313
:100E200089F0EB016B01C40ED51ECC15DD0569F010
:100E30006991D701ED91FC910190F081E02DC701FE
:100E40000995F3CF642F0E94AB05C801DF91CF91C4
:100E50001F910F91FF90EF90DF90CF900895CF9367
:100E6000DF931F92CDB7DEB7698320911C05222343
:100E7000F9F020911905203258F021E030E0FC0112
:100E80003383228390E080E00F90DF91CF9108952B
:100E900080911A05E82FF0E0E652FE4F9981908389
:100EA0008F5F80931A058093190581E090E0ECCF65
:100EB00061E0CE0101960E94AB05F7CFCF92DF92A1
:100EC000EF92FF920F931F93CF93DF93D091190569
:100ED00081E0D13208F09CC0C0911B050E946904DA
:100EE0006B017C018091630581116CC082E080936D
:100EF000630581E0809342058FEF80934105109256
:100F00004005D0933F05AAEDB1E0EDE1F5E080E0CA
:100F1000D8138DC010923E0580913E05CC0FC82B92
:100F2000C0933E0580913D05813009F084C0109248
:100F30003D050E9469046B017C0180913E05809310
:100F4000BB008091650590916605A0916705B09101
:100F50006805892B8A2B8B2BA1F00E9469040091D4
:100F600065051091660520916705309168056C193B
:100F70007D098E099F09061717072807390708F406
:100F800042C08091BC0083FDD8CF85EC8093BC002B
:100F90000E9469046B017C0180916305823009F431
:100FA0004CC0809141058F3F09F469C08091410593
:100FB000803209F466C080914105803309F463C032
:100FC00084E026C08091650590916605A091670533
:100FD000B0916805892B8A2B8B2B09F483CF0E9453
:100FE00069040091650510916605209167053091AF
:100FF00068056C197D098E099F09061717072807D0
:10100000390708F06FCF809164050E94F00585E0F4
:1010100010921A051092190510921C05DF91CF91BC
:101020001F910F91FF90EF90DF90CF9008959D91C9
:1010300091938F5F6DCF85EEA9CF809165059091DB
:101040006605A0916705B0916805892B8A2B8B2BCB
:1010500009F4A2CF0E94690400916505109166050C
:1010600020916705309168056C197D098E099F09EB
:10107000061717072807390708F08ECFC4CF80E07E
:10108000C7CF82E0C5CF83E0C3CF90E080E0089572
:1010900008951F93CF93DF93EC01142F89819A81D8
:1010A000288131E030931C0520931B0510921A050E
:1010B00010921905DC01ED91FC910190F081E02D79
:1010C000099589819A81DC01ED91FC910190F08173
:1010D000E02D612F099589819A81DF91CF911F9130
:1010E0000C945E07DC01ED91FC910190F081E02D04
:1010F0000994DC01ED91FC910190F081E02D0994BF
:101100000F931F93CF93DF93EC018A0189819A811A
:10111000288131E030931C0520931B0510921A059D
:101120001092190524E0629FB00111246A5F7F4F7D
:101130000E94790870E060E089819A810E947208BB
:1011400070E060E089819A810E947208B80189810B
:101150009A810E947208612F70E089819A810E94B1
:10116000720889819A81DF91CF911F910F910C9420
:101170005E07CF93C0E040E050E16C2F8AE197E03A
:101180000E948008CF5FC031B1F7CF910895BF9220
:10119000CF92DF92EF92FF920F931F93CF93DF9343
:1011A000EC0181E080931C0584E580931B0510927F
:1011B0001A05109219056D2F70E08CE196E00E94DF
:1011C0007908BE0177278CE196E00E9479088CE1CE
:1011D00096E00E945E0761E084E50E94110610928D
:1011E0002A03809329038CE196E00E94EF06809306
:1011F0002F03809307050E948301EC01F12CE12C61
:101200001C161D064CF56C2FCF31D1050CF06EE18C
:1012100084E50E941106B82E10922A0380932903B8
:101220006E018EE1C81AD1088E0180912A03B8168A
:1012300059F08CE196E00E94EF069FEFE91AF90A57
:10124000F701E15DFC4F80830150110929F0E601AF
:101250000C151D0551F7D4CFDF91CF911F910F9140
:10126000FF90EF90DF90CF90BF900895CF93DF93E2
:10127000EC0189819A81288131E030931C0520930B
:101280001B0510921A0510921905DC01ED91FC91D5
:101290000190F081E02D099589819A810E945E0775
:1012A00061E088810E94110610922A03809329032D
:1012B00089819A81DC01ED91FC910284F385E02D16
:1012C0000995DF91CF9108958F929F92AF92BF922F
:1012D000CF92DF92EF92FF92CF93C82F90E080E001
:1012E0000E948C2D6B017C016EEF8AE197E00E94D9
:1012F0003609682F70E06F5F7F4F90E080E00E94BA
:101300008C2D20E034E244E759E40E94ED2D4B019E
:101310005C0160911D0770911E0780911F079091DD
:1013200020070E948C2D9B01AC01C501B4010E94D5
:10133000CD2F9B01AC01C701B6010E94CD2F0E94A9
:101340004630AB016C2F8AE197E0CF91FF90EF9090
:10135000DF90CF90BF90AF909F908F900C948008BB
:101360000F931F93CF938C01C0E0B8018C2F0E9484
:101370006409CF5FC031C9F7CF911F910F910895D4
:101380008F929F92AF92BF92CF92DF92EF92FF9295
:101390001F93CF93DF93EC016A017B0120E030E0E3
:1013A00040E85FE3CB01B6010E94872D87FD7EC038
:1013B00020E030EC4AE555E4C701B6010E94B430A4
:1013C00018163CF4C12C30ECD32E3AE5E32E35E46C
:1013D000F32E6B817C818D819E810E948C2D4B012F
:1013E0005C0120E030E040E855E4C701B6010E940E
:1013F000ED2D9B01AC01C501B4010E94CD2F20E071
:1014000030E040E05FE30E945C2F20E030E040E805
:101410005FE30E945B2F6B017C0120E030E040E441
:1014200050E40E94872D87FD48C020E030E04FE760
:1014300053E4C701B6010E94B430181634F4C12C2D
:10144000D12C9FE7E92E93E4F92E60E0CE010E94B3
:101450003609182F482F4F76406160E0CE010E9478
:101460004908C701B6010E944630462F6EEFCE01F3
:101470000E944908412F60E0CE010E94490865E0C2
:1014800070E080E090E00E948E04412F406A60E0AE
:10149000CE01DF91CF911F91FF90EF90DF90CF9021
:1014A000BF90AF909F908F900C944908C12CD12C85
:1014B00020E8E22E2FE3F22E8CCFC12CD12C80E439
:1014C000E82EFE2CC2CFFC0124813581232B39F478
:1014D00021E0FB018081882349F020E007C0808162
:1014E00091810E945B3321E0892BB9F7822F089507
:1014F000FB0101900020E9F73197AF01461B570B24
:10150000DC01ED91FC910280F381E02D09948F9232
:101510009F92AF92BF920F931F93CF93DF93CDB75C
:10152000DEB7A1970FB6F894DEBF0FBECDBF19A2EC
:10153000423008F44AE08E010F5D1F4F842E912C3B
:10154000B12CA12CA50194010E942A2FE62FB901EC
:10155000CA01EA3004F5E05DD801EE938D01232B3A
:10156000242B252B79F790E080E0109729F0BD011E
:1015700089E695E00E94780AA1960FB6F894DEBF3E
:101580000FBECDBFDF91CF911F910F91BF90AF9054
:101590009F908F900895E95CDFCF65E771E00C9430
:1015A000780ACF92DF92EF92FF92C12CD12C760174
:1015B0004AE0C701B6010E94870A69E089E695E022
:1015C0000E9474028FEFC81AD80AE80AF80A80E16C
:1015D000C816D104E104F10459F789E695E0FF90BB
:1015E000EF90DF90CF900C94CD0ACF93DF930E94C1
:1015F0006803EC0189E695E00E94CD0A8C0F9D1FDF
:10160000DF91CF910895CF92DF92EF92FF92CF9327
:10161000DF936C01990FEE08FF08F7FE1FC06DE223
:1016200089E695E00E947402EC0166277727CB01DA
:101630006C197D098E099F094AE00E94870AC80F2C
:10164000D91F89E695E00E94CD0A8C0F9D1FDF917E
:10165000CF91FF90EF90DF90CF9008954AE0C701BF
:10166000B6010E94870AEC01ECCFCF93DF93682F7D
:1016700089E695E00E947402EC0189E695E00E94FB
:10168000CD0A8C0F9D1FDF91CF910895CF93DF93EB
:10169000FC01448155816081718189E695E00E9459
:1016A0007B02EC0189E695E00E94CD0A8C0F9D1F1C
:1016B000DF91CF9108950F931F93CF93DF93EC01A8
:1016C0000E94780A8C01CE010E94CD0A800F911FE2
:1016D000DF91CF911F910F910895AF92BF92CF925A
:1016E000DF92EF92FF920F931F93CF93DF937C01D2
:1016F000C62F8A01590187E090E00E94272B6C01D8
:10170000DC01CC931696BC92AE921597C154CA31A7
:1017100028F5F801D0E0C0E0CE01019621912E37E6
:1017200031F0EC01833D9140B9F7C2EDD1E0F60113
:10173000D483C383CE0101960E94272BD601129633
:101740009C938E931197F801DC01A8014C0F5D1F4B
:10175000E417F50759F021912D93FACFE80109908C
:101760000020E9F72197C01BD10BE1CF20912B037B
:1017700021542A3148F120E0C80FD91F288386E080
:1017800090E00E94272BFC01D182C082138212823A
:1017900015821482E701AC81BD811097B9F49B8357
:1017A0008A839D838C83E70188819981019699833F
:1017B0008883DF91CF911F910F91FF90EF90DF9081
:1017C000CF90BF90AF9008952EE7D6CFB583A48376
:1017D00013969C938E931297D70115969C938E9394
:1017E0001497E1CF0C94C32BCF93DF93EC01888146
:1017F0009981009711F00E94C32B198218821D82D3
:101800001C821B821A82DF91CF910895FC01808196
:101810009181009711F00C94C32B0895CF93C09140
:101820002B03CB3691F480912F03882371F068E766
:1018300071E08FE293E00E945B33892B31F06FE21D
:1018400073E08AEB92E00E94643310922203C0930B
:101850002003CB3629F0C356C23010F010922B0370
:1018600010922F0310921F0310921E03CF91089520
:10187000FF920F931F93CF93DF93EC01F62E088115
:101880001981C8010E94AB2EF81621F06F2DC801F6
:101890000E94B32ECE01DF91CF911F910F91FF9047
:1018A0000895FF920F931F93CF93DF9300D0CDB78E
:1018B000DEB78C01F72E9A838983CE0101960E94B0
:1018C000380C0F5F1F4F1A8309836F2DCE010196CD
:1018D0000E94380C66E070E080E090E00E948E0488
:1018E0000F900F90DF91CF911F910F91FF9008956E
:1018F0000C94AB2E2F923F924F925F926F927F92F9
:101900008F929F92AF92BF92CF92DF92EF92FF920F
:101910000F931F93CF93DF93CDB7DEB72E970FB6FC
:10192000F894DEBF0FBECDBF5C0185E191E00E945F
:10193000780C682E6BE771E0C5010E945B33762C52
:10194000892B89F4C62CD12CF12CE12CC114D104A3
:10195000E104F10439F00E94982CA70196010E943D
:10196000C12E6B017C2CF50101900020E9F7319725
:10197000EA19FB092E2F2150330B6901F501E20F03
:10198000F31F30813C87512C10E000E0CE0101961E
:101990007C0181E491E0FC01EE19FF09FE87ED87EF
:1019A000651409F49AC01801FFEF2F1A3F0AC80105
:1019B000805C9E4F0E94780C482E47012D853E8505
:1019C000020F131F882D8E19841548F4C801880D45
:1019D000991D0E94780CF40181934F01F3CF842C60
:1019E000912C8101080D191DF701E80DF91D1082D8
:1019F00057104CC06DE771E0C7010E945B33892B23
:101A000009F441C060E871E0C7010E945B33892B93
:101A1000D1F168E771E0C7010E945B33892B99F12E
:101A200063E871E0C7010E945B33892B61F166E8CE
:101A300071E0C7010E945B33892B29F1C8018F5BDC
:101A40009E4F0E94780C809307050E948301C80175
:101A5000805C9E4F2E960FB6F894DEBF0FBECDBFB2
:101A6000DF91CF911F910F91FF90EF90DF90CF907A
:101A7000BF90AF909F908F907F906F905F904F90AE
:101A80003F902F900895739453948ACFB501C70166
:101A90000E945B33892B91F2FE01E80DF91D8081D4
:101AA0008634C1F06AE871E0C7010E945B33892B7C
:101AB00089F0A601B501C7010E946B33892B51F44F
:101AC000FC85FC3409F4BACFF23509F4B7CFF83508
:101AD00009F4B4CF0C5F1F4FD7CF6FE389E695E0D1
:101AE0000E947402B50189E695E00E945B0B8FEFBE
:101AF0009FEFB0CF1F93CF93DF93EC010E94780C40
:101B0000182FCE0101960E94780C90E0982F88271C
:101B1000810F911DDF91CF911F910895CF92DF9298
:101B2000EF92FF920F931F93CF93DF936A017B0194
:101B3000082F10E0C801805B9F4F880F991F0E94FB
:101B40007A0DBC01990F880B990B0E948E2D20E015
:101B500030E04AE754E40E94CD2FA70196010E948D
:101B6000ED2D6B017C0182E191E00E94780C9AE0FE
:101B7000899FB0011124072E000C880B990B0E943D
:101B80008E2DA70196010E945C2F6B017C0120E045
:101B900030E04AEF53E40E94B430C4EFD1E01816AD
:101BA0008CF420E030E44CE155E4C701B6010E941A
:101BB000872DC4ECD9E087FF05C0C701B6010E949C
:101BC0003F30EB01C8010E94780CAE01682F8AE11A
:101BD00097E0DF91CF911F910F91FF90EF90DF90F1
:101BE000CF900C94800890E0C096880F991F860FC4
:101BF000911D880F991F0C947A0D7F928F929F925E
:101C0000AF92BF92CF92DF92EF92FF920F931F930A
:101C1000CF93DF93B82E6A01D62FC72F60E00E94C2
:101C2000F30DBC01990F880B990B0E948E2D7B013F
:101C30008C0161E08B2D0E94F30DBC01990F880B84
:101C4000990B0E948E2D762E872E982EA92E960106
:101C50004D2F5C2F0E94872D87FF71C0772D682D37
:101C6000992D8A2D272F362F492F582FB701C801BC
:101C70000E94B430181694F096014D2F5C2F672DFA
:101C8000782D892D9A2D0E94872D76010D2F1C2FDE
:101C900087FF04C0E72CF82C092D1A2DCB2DD0E09E
:101CA0006E0180E3C80ED11CCC0FDD1FC35FDE4F79
:101CB000B701C8010E943F3079836883C601880F4D
:101CC000991F0E947A0DEC01C6010E94780C682FC2
:101CD000880F770B880B990B0E948E2D9701A80116
:101CE0000E94ED2D6B017C01BE01DD0F880B990B6D
:101CF0000E948E2D9B01AC01C701B6010E945C2F92
:101D00000E943F30072E000C880B990B0E948E2DED
:101D100020E030E0A9010E945C2FAB01BC018B2DBB
:101D2000DF91CF911F910F91FF90EF90DF90CF90B7
:101D3000BF90AF909F908F907F900C948E0D7C2DD4
:101D40006D2DCE018FCF0F931F93CF938C01005E2B
:101D50001F4FCFE0F801729162918F01072E000CA6
:101D6000880B990B0E948E2DAB01BC018C2F0E9419
:101D7000FD0DC15078F7CF911F910F9108952F92CB
:101D80003F924F925F926F927F928F929F92AF920B
:101D9000BF92CF92DF92EF92FF920F931F93CF9358
:101DA000DF93CDB7DEB72E970FB6F894DEBF0FBE28
:101DB000CDBF182F092F6A017B0120E030E0A90177
:101DC000CB01B6010E94872D1816E4F0812F902FC9
:101DD0002E960FB6F894DEBF0FBECDBFDF91CF9128
:101DE0001F910F91FF90EF90DF90CF90BF90AF9039
:101DF0009F908F907F906F905F904F903F902F902B
:101E00000C94A30E80E290E00E94272B5C0170915D
:101E10002C0390902B032DE031E0DC01612E702E1D
:101E2000512C412C60E0772329F0643018F44BE604
:101E30009416A1F0F90180819181F30140815181D3
:101E4000841B950B11969C938E9397FF03C09195DD
:101E500081959109481659060CF42C016F5F2E5F8D
:101E60003F4FF2E06F0E711C12966031E1F620E0F8
:101E700030E0A901C701B6010E94B43018160CF079
:101E8000BCC0B201550C880B990B0E948E2DA70186
:101E900096010E94CD2F6B017C0120E030E0A9016A
:101EA0000E94B43020E030E040E05FE387FDA0C056
:101EB000C701B6010E945C2F0E943F307E876D876C
:101EC000D12CC12C2D853E85032E000C440B550BC7
:101ED00029873A874B875C874D855E854C155D0564
:101EE0000CF48EC01501812E902EF12CC6010D2C04
:101EF000000CAA0BBB0B8D839E83AF83B8878091A8
:101F00002C03882341F093E09F1528F080912B0348
:101F10008B3609F45FC0D4016D917C91072E000CC3
:101F2000880B990B0E948E2D2B013C01ED85FE85BF
:101F300020E030E0A901EF2B09F443C06D817E81E0
:101F40008F8198850E948E2D2BED3FE049E450E46F
:101F50000E94ED2D69837A838B839C8369857A85C2
:101F60008B859C850E948E2D9B01AC0169817A81B5
:101F70008B819C810E94CD2F0E94C82F20E030E0F1
:101F800040E85FE30E945C2F20E030E040E05FE348
:101F90000E94ED2D69837A838B839C83D1016D919F
:101FA0007C91072E000C880B990B0E948E2D9B01B3
:101FB000AC0169817A818B819C810E94ED2D9B010E
:101FC000AC01C301B2010E945C2FAB01BC018F2D9B
:101FD0000E94FD0DF394B2E08B0E911CE2E02E0EF8
:101FE000311CF0E1FF128BCF2FEFC21AD20A74CF4F
:101FF000C701B6010E945B2F5FCF1E861D8660CF92
:10200000A114B104D9F0C5012E960FB6F894DEBF25
:102010000FBECDBFDF91CF911F910F91FF90EF9039
:10202000DF90CF90BF90AF909F908F907F906F90F8
:102030005F904F903F902F900C94C32B2E960FB62D
:10204000F894DEBF0FBECDBFDF91CF911F910F91EE
:10205000FF90EF90DF90CF90BF90AF909F908F90C8
:102060007F906F905F904F903F902F9008952F92A8
:102070003F924F925F926F927F928F929F92AF9218
:10208000BF92CF92DF92EF92FF920F931F93CF9365
:10209000DF93CDB7DEB72F970FB6F894DEBF0FBE34
:1020A000CDBF4C016D8369017A01202F30E03A8366
:1020B000298320E030E0A901C701B6010E94872DE5
:1020C0001816ECF01FE0812F012E000C990B69818E
:1020D0007A81861797070CF453C1880D991DDC018E
:1020E0006C91062E000C770B880B990B0E948E2D9D
:1020F000AB01BC01812F0E94FD0D1150E4CF80E1A6
:1021000090E0E981FA818E1B9F0B8115F0E49F0717
:1021100008F047C0880F991F009709F445C00E9436
:10212000272B3C01B0902C03A0902B0329813A81EE
:10213000220F331F1301D401102F50E040E0512C27
:10214000412C1031A0F5BB2029F0143018F46BE6B7
:10215000A616F9F0CA01820F931F835F9E4F7C91F0
:102160006D817603F0011124FC83EB83FC018081F7
:1021700091816B817C81861B970BF1019183808318
:1021800097FF03C0919581959109481659060CF463
:102190002C011F5F1196F2E02F0E311C4E5F5F4F36
:1021A000D0CF8FEF9FEFBBCF81E090E0B8CF20E0A2
:1021B00030E0A901C701B6010E94B43018160CF036
:1021C000BAC0B201550C880B990B0E948E2DA70145
:1021D00096010E94CD2F6B017C0120E030E0A90127
:1021E0000E94B43020E030E040E05FE387FD9EC015
:1021F000C701B6010E945C2F0E943F307F876E8727
:10220000B12CA12C6E857F85072E000C880B990BB5
:102210006A877B878C879D878E859F858A159B051E
:102220000CF490C07C826B829A828982102FB50157
:102230000B2C000C880B990B6E837F838887998702
:10224000103108F07BC080912C03882339F01430C2
:1022500028F480912B038B3609F45BC0A981BA81E5
:102260006C912D816203B0011124072E000C880BA4
:10227000990B0E948E2D6B017C016E857F8520E07D
:1022800030E0A901672BE1F16E817F818885998516
:102290000E948E2D2BED3FE049E450E40E94ED2D8D
:1022A0001B012C016A857B858C859D850E948E2D66
:1022B0009B01AC01C201B1010E94CD2F0E94C82F29
:1022C00020E030E040E85FE30E945C2F20E030E057
:1022D00040E05FE30E94ED2D1B012C01AB81BC812E
:1022E0006D917C91072E000C880B990B0E948E2D0E
:1022F0009B01AC01C201B1010E94ED2D9B01AC011B
:10230000C701B6010E945C2FAB01BC01812F0E9466
:10231000FD0D1F5FE981FA813196FA83E9832B81F4
:102320003C812E5F3F4F3C832B838ACFC701B60190
:102330000E945B2F61CF1F861E8662CF3FEFA31ADC
:10234000B30A6ACF61147104D9F0C3012F960FB696
:10235000F894DEBF0FBECDBFDF91CF911F910F91DB
:10236000FF90EF90DF90CF90BF90AF909F908F90B5
:102370007F906F905F904F903F902F900C94C32B65
:102380002F960FB6F894DEBF0FBECDBFDF91CF9171
:102390001F910F91FF90EF90DF90CF90BF90AF9083
:1023A0009F908F907F906F905F904F903F902F9075
:1023B00008950F930E94A30110922E0310922D03F3
:1023C000E3E0F5E025813681478150850389678503
:1023D000848995890E9437100F9108958F929F925A
:1023E000AF92BF92CF92DF92EF92FF920F931F9323
:1023F000CF93DF93CDB7DEB72B970FB6F894DEBF40
:102400000FBECDBF6C01FC0101900020E9F73297AF
:10241000108189E11C3421F087EE123509F080E04B
:1024200080930605C6010E947A0C7C018FEFE816A6
:10243000F80609F43EC1C7010E94780C082FC701B5
:1024400002960E947A0D7C01B601CE0101960E948F
:102450006433093409F0EDC0C7010E94C7080E9427
:10246000A301BE016F5F7F4F8FE293E00E94643350
:102470006DE871E08FE293E00E945B33892B09F4F1
:10248000EEC080E090E0A0E0B0E480930805909377
:102490000905A0930A05B0930B0561E971E08FE28D
:1024A00093E00E945B33892B09F4DDC0809107051E
:1024B000813009F0D8C00E94982C24E630E040E03A
:1024C00050E00E94C12E0E948E2D20E030E040E2BC
:1024D00051E40E94CD2F20E030E040EA50E40E9419
:1024E0005B2F4B015C018092250390922603A09202
:1024F0002703B0922803F12CE12CC0901705D0904F
:102500001805CE0CDF1CF6016081062E000C770B3F
:10251000880B990B0E948E2DA50194010E945C2FBF
:102520000E943F30F6016083FFEFEF1AFF0A80E15F
:10253000E816F10411F7123509F099C080910E05E3
:1025400090910F0591958195910990930F05809336
:102550000E0590E080E040910705242F042E000C2A
:10256000330B37FF03C0319521953109821793074B
:102570000CF089C042301CF540910D05489F900138
:10258000499F300D1124E0911705F0911805E20FD5
:10259000F31F20812195208320910D05289FF001B4
:1025A000299FF00D11249F012E5F3F4FE0911705E9
:1025B000F0911805E20FF31F2081219520832091CF
:1025C000070560E022300CF462E0E62FF0E0209195
:1025D000070522300CF480C024E030E0409117055C
:1025E00050911805E217F3070CF079C09F01220FF4
:1025F000331F70910D05789FF001799FF00D112424
:10260000E20FF31FE40FF51F408151815083509179
:102610000D05589FD001599FB00D1124E091170569
:10262000F0911805E20FF31FEA0FFB1F41836F5F64
:10263000CCCF809107050E948301AFE2B3E0970100
:102640002F523340F901EA0FFB1FAD014F525340A7
:10265000481759070CF003CFE491ED93F3CF80E0D6
:1026600090E0DC0112CF812C912C54013CCF1C3422
:1026700051F00E94982C24E630E040E050E00E94A7
:10268000C12E60FD5BCF10922E0310922D0320917E
:1026900008053091090540910A0550910B050091FC
:1026A00016056091120580911705909118050E94FA
:1026B00037102B960FB6F894DEBF0FBECDBFDF915B
:1026C000CF911F910F91FF90EF90DF90CF90BF902F
:1026D000AF909F908F90089528E030E07FCF0196D3
:1026E0003ACF0F931F93CF93DF93EC0188819981A9
:1026F000009759F02A813B812617370730F081E097
:10270000DF91CF911F910F9108958B016F5F7F4FE4
:102710000E948D32009759F0998388831B830A8326
:102720002C813D81232B59F7FC011082E8CF80E0FA
:10273000E7CFEF92FF920F931F93CF93DF93611533
:10274000710541F480E0DF91CF911F910F91FF90CF
:10275000EF90089541155105B1F07B01EC010C811A
:102760001D81040F151FB8010E947113882351F3B6
:10277000288139818C819D81B701820F931F0E942E
:1027800064331D830C8381E0DECFEF92FF920F93C1
:102790001F93CF93DF93EC017B018A01BA010E9462
:1027A000711381110BC0CE010E94F40BCE01DF9199
:1027B000CF911F910F91FF90EF9008951D830C838F
:1027C000B701888199810E946433F0CFFB01DC015D
:1027D00011961C921E9213961C921E921297159699
:1027E0001C921E9214978617970759F06081718189
:1027F0006115710521F0448155810C94C5130C9429
:10280000F40B0895FB0101900020E9F73197AF0127
:10281000461B570B0C94C5130F931F93CF93DF9355
:10282000CDB7DEB762970FB6F894DEBF0FBECDBF4F
:102830008C01CB01F8011182108213821282158261
:1028400014824AE0BE016F5F7F4F0E944A2DBE0195
:102850006F5F7F4FC8010E94021462960FB6F89412
:10286000DEBF0FBECDBFDF91CF911F910F910895B5
:10287000FC01118210821382128215821482FB01E4
:1028800001900020E9F73197AF01461B570B0C94DC
:10289000C513EF92FF920F931F93CF93DF93EC0139
:1028A0008B01198218821B821A821D821C82CB0125
:1028B0000E94152D7C01BC01CE010E947113811173
:1028C00009C0CE01DF91CF911F910F91FF90EF9042
:1028D0000C94F40BFD82EC82B80188819981DF9120
:1028E000CF911F910F91FF90EF900C940E2D85EDDD
:1028F0008093BC008091650590916605A091670565
:10290000B09168050796A11DB11D23E0B695A79566
:10291000979587952A95D1F72091BC0024FD03C097
:102920001092630508954091650550916605609188
:10293000670570916805452B462B472B69F3009777
:10294000A105B10541F02AE22A95F1F700C00197EF
:10295000A109B109E1CF809164050C94F0052F9293
:102960003F924F925F926F927F928F929F92AF921F
:10297000BF92CF92DF92EF92FF920F931F93CF936C
:10298000DF93CDB7DEB766970FB6F894DEBF0FBE04
:10299000CDBF69877A878B879C872D873E874F8736
:1029A000588BC801EE8A10E088248A94982C540130
:1029B00068E4462E68EE562E66246394712C05E07A
:1029C0007BE8272E72E0372E9C01990F440B550BA4
:1029D000298B3A8B4B8B5C8B6D857E858F85988997
:1029E0000E9446306D837E838F83988720E030E09D
:1029F000A90169857A858B859C850E94872D88230E
:102A000009F499C129853A854B855C8563E67CE9A3
:102A100087E89FE30E94B93020E030ED42E854E4BB
:102A20000E94ED2D0E9446306B018091000185309F
:102A300009F06AC0ECE8F1E0F491FD8BF7FDD9C133
:102A400061E085E00E942604FD89FF2321F02D89A5
:102A5000223009F024C1F12CE12C60E072E18AE718
:102A600090E0A70196010E94C12E29833A834B83EF
:102A70005C83DA01C9010197A109B1098F3F910572
:102A8000A105B10509F00CF4F0C060E472E48FE038
:102A900090E0A70196010E94C12E21503109410901
:102AA00051098D89823009F0A2C082E02F3F3105A3
:102AB0004105510509F00CF48CC160E970ED83E02B
:102AC00090E0A70196010E94C12E215031094109D1
:102AD000510983E02F3F31054105510509F00CF400
:102AE00078C1C301B201A70196010E94C12E2150F5
:102AF0003109410951092F3F31054105510511F0B7
:102B00000CF092C084E065C18F3F09F072C1009360
:102B10000001ECE8F1E0F491FD8BFF3F09F469C19D
:102B2000F13029F158F0F23009F43FC03D8937FD0A
:102B300060C161E085E00E94260489CF14BC15BC09
:102B400084B5826084BD85B5816085BDF1018491C5
:102B5000E82FF0E0EE0FFF1FE458FD4F85919491B0
:102B6000EFE9F2E084918093D1011D8A69CF109240
:102B700080001092810080918100886080938100A4
:102B800080918100816080938100F1018491E82F20
:102B9000F0E0EE0FFF1FE458FD4F85919491EFE9AF
:102BA000F2E084918093D0014BCF1092B00010924C
:102BB000B1008091B00082608093B0008091B1003C
:102BC00081608093B100F1018491E82FF0E0EE0F75
:102BD000FF1FE458FD4F8591949190938802809354
:102BE0008702EFE9F2E084918093890229CF2F3F99
:102BF00031054105510509F00CF44FC0C301B20184
:102C0000A70196010E94C12E2150310941095109A5
:102C10009D89992309F4AFC02F3F31054105510526
:102C200011F00CF0B0C06ECF64E274EF80E090E081
:102C3000A70196010E94C12E215031094109510975
:102C400085E02F3F31054105510509F008F4C1C069
:102C500062E17AE780E090E0A70196010E94C12E30
:102C600021503109410951099DC09C0181E0FD8934
:102C7000F111AFC095B5987F892B85BD27BD809296
:102C8000D6019092D701A092D801B092D90180913B
:102C90006E00826080936E00ACC082E0E8CFF12CC1
:102CA000E12C60E072E18AE790E0A70196010E94C2
:102CB000C12E215031094109510991E021153105F9
:102CC00081E0480751055CF0C301B201A7019601FC
:102CD0000E94C12E215031094109510993E0ED892B
:102CE000E13009F07CC080918100887F892B80933E
:102CF000810030938900209388008092D2019092C5
:102D0000D301A092D401B092D50180916F0082606E
:102D100080936F006EC02093B30080928A029092DD
:102D20008B02A0928C02B0928D0280917000826022
:102D3000809370005EC06D817E818F8198850E9436
:102D40008E0457C084E02F3F31054105510509F03D
:102D500008F490CF29813A814B815C818AE05595B6
:102D60004795379527958A95D1F721503109410923
:102D7000510985E07FCF83E02F3F310541055105A3
:102D800009F00CF477CF62E17AE780E090E0A701E8
:102D900096010E94C12E2150310941095109ED8946
:102DA000EE2381F286E02F3F31054105510589F080
:102DB00080F029813A814B815C819AE05595479555
:102DC000379527959A95D1F7215031094109510935
:102DD00087E09091B100987F892B8093B100FD89A5
:102DE000F13009F486CFF23009F495CFFF2309F4CE
:102DF00045CF6D817E818F8198850E948E0485E00C
:102E00000E94FA0369897A898B899C890E948E04C1
:102E10001F5F2E892113E0CD66960FB6F894DEBFB2
:102E20000FBECDBFDF91CF911F910F91FF90EF901B
:102E3000DF90CF90BF90AF909F908F907F906F90DA
:102E40005F904F903F902F9008954F925F926F92B6
:102E50007F928F929F92AF92BF92CF92DF92EF922A
:102E60000F931F93CF93DF93D82E192F0E94780CC6
:102E70008695CD2DD12FB12CA12CC82ED12C88EE2A
:102E8000882E83E0982E2197AC14BD044CF5CE011A
:102E90008C199D090E94780C782ECE010E94780C26
:102EA000182F672D70E0C4010E945F32072E000CBE
:102EB000880B990B0E948E2D2B013C01612F70E035
:102EC00090E080E00E948C2DEE24E39410E000E07E
:102ED000A30192010E94AF148FEFA81AB80AD3CFB2
:102EE000DF91CF911F910F91EF90DF90CF90BF9026
:102EF000AF909F908F907F906F905F904F900895CC
:102F00001F920F920FB60F9211242F933F934F935E
:102F10005F936F937F938F939F93AF93BF93EF9341
:102F2000FF9380918A0290918B02A0918C02B091C4
:102F30008D02892B8A2B8B2BD1F190918902E09104
:102F40008702F091880280818927808380918A029C
:102F500090918B02A0918C02B0918D0218161906E7
:102F60001A061B069CF480918A0290918B02A09114
:102F70008C02B0918D020197A109B10980938A0258
:102F800090938B02A0938C02B0938D02FF91EF91EE
:102F9000BF91AF919F918F917F916F915F914F9171
:102FA0003F912F910F900FBE0F901F901895809119
:102FB00000010E94FA03EACF1F920F920FB60F9200
:102FC00011242F933F934F935F936F937F938F932E
:102FD0009F93AF93BF93EF93FF9389E695E00E9491
:102FE000F902FF91EF91BF91AF919F918F917F91E6
:102FF0006F915F914F913F912F910F900FBE0F9066
:103000001F9018951F920F920FB60F9211242F93B5
:103010008F939F93EF93FF93E0917905F0917A0559
:103020008081E0917F05F091800582FD1BC0908139
:10303000809182058F5F8F7320918305821741F005
:10304000E0918205F0E0E759FA4F958F8093820571
:10305000FF91EF919F918F912F910F900FBE0F9045
:103060001F9018958081F4CF1F920F920FB60F9288
:1030700011242F933F938F939F93AF93BF9380918E
:103080007F0290918002A0918102B09182023091E2
:103090007E0223E0230F2D3758F50196A11DB11DA7
:1030A00020937E0280937F0290938002A0938102FE
:1030B000B09382028091830290918402A091850254
:1030C000B09186020196A11DB11D80938302909359
:1030D0008402A0938502B0938602BF91AF919F9125
:1030E0008F913F912F910F900FBE0F901F901895C9
:1030F00026E8230F0296A11DB11DD2CF1F920F9279
:103100000FB60F9211242F933F934F935F936F93BA
:103110007F938F939F93AF93BF93EF93FF93E09130
:103120009902F0919A02309749F0A685B785858576
:10313000968D91FF14C09C918923A1F4FF91EF918A
:10314000BF91AF919F918F917F916F915F914F91BF
:103150003F912F910F900FBE0F901F9018959C914B
:10316000892361F7A389B4899C91858980958923F6
:103170008C93868997890197F1F7608D718DA6856B
:10318000B785558538E020E0CB010197F1F7822F14
:1031900090E095958795282F4C91452309F020685C
:1031A000315091F7868D81FD20958091980290E0B5
:1031B00001968F73992730919702381799F0A09153
:1031C0009802B0E0A25CBD4F2C9380939802828D50
:1031D000938D0197F1F7A389B4898C919589892BF7
:1031E0008C93ACCF868D8160868FF1CF1F920F922A
:1031F0000FB60F9211242F933F934F935F936F93CA
:103200007F938F939F93AF93BF93EF93FF9380919F
:10321000B900887F803609F44AC0F0F5883209F495
:10322000A7C018F5803109F49BC0B8F4882309F4CD
:10323000F9C0883009F494C0FF91EF91BF91AF912C
:103240009F918F917F916F915F914F913F912F91BE
:103250000F900FBE0F901F901895883109F488C009
:10326000803251F78093410514C0803409F49DC029
:1032700040F48033B9F38833F9F68093410585EC47
:10328000B0C0803509F485C0883509F496C088340B
:1032900099F60E947714D0CF883909F48CC038F59C
:1032A000883729F050F4883611F0803729F683E00A
:1032B0008093630510923D0257C0883809F47BC0A3
:1032C000803919F0803809F0B7CF80913D02803203
:1032D00008F071C0E0913D0281E08E0F80933D02C5
:1032E0008091BB00F0E0E35EFD4F80833DC0803BFA
:1032F00039F0E0F4803A09F479C0883A09F09CCFBB
:1033000084E08093630510921C0210921B02E091EE
:103310009102F0919202099580911B0281110FC0D8
:1033200081E080931B021092FB0109C0803C09F4EC
:10333000A6CF883C09F4A3CF883B09F07DCFE0916C
:103340001C0281E08E0F80931C02F0E0E550FE4FDE
:1033500080818093BB0090911C0280911B0229C048
:1033600080913E058093BB0085EC8093BC0064CFC8
:103370009091400580913F05981758F5E0914005E0
:1033800081E08E0F80934005F0E0E35EFA4F80818C
:10339000E9CFE091400581E08E0F80934005809158
:1033A000BB00F0E0E35EFA4F80839091400580918E
:1033B0003F059817C8F285E8D8CFE091400581E035
:1033C0008E0F809340058091BB00F0E0E35EFA4FE2
:1033D00080838091420581115CCF81E080933D051F
:1033E00084EA8093BC001092630526CF85EC80931D
:1033F000BC001092630580913D02803230F4E09170
:103400003D02F0E0E35EFD4F108260913D0270E00E
:10341000E0918F02F09190028DE192E00995109277
:103420003D020ACF1092410534CF1F920F920FB682
:103430000F9211242F933F934F935F936F937F933A
:103440008F939F93AF93BF93CF93DF93EF93FF93AC
:103450002091290630E0F901E858FE4F8491F901E6
:10346000E656FD4FD491F901EA57FD4FC491CC23A4
:1034700079F081110E94A303EC2FF0E0EE0FFF1F03
:10348000EE58FD4FA591B491EC91ED2381E009F444
:1034900080E020912E0630912F062F5F3F4F309312
:1034A0002F0620932E0620912C0630912D062536CE
:1034B000310518F094E09093280690912806911118
:1034C00030C0811169C020912E0630912F0624361C
:1034D000310528F410922F0610922E065DC010922E
:1034E000FA0610922D0610922C0620912C0630918F
:1034F0002D06A9014F5F5F4F50932D0640932C0678
:1035000040912E0650912F06220F331FF901E05DE6
:10351000F94F5183408310922F0610922E0691E0AE
:1035200021C090912806913001F58130A9F52091B4
:103530002C0630912D06A9014F5F5F4F50932D0649
:1035400040932C0640912E0650912F06220F331FD8
:10355000F901E05DF94F5183408310922F061092DC
:103560002E0692E09093280617C09091280692307C
:1035700061F4882309F4B9CF20912E0630912F06EB
:103580002536310548F093E0EDCF90912806933031
:1035900099F4882309F49ECF90912B069923A9F0E2
:1035A000811126C080912A06882371F080912A0615
:1035B00061E00E94CC0309C090912806943061F725
:1035C00091E09093FA06DFCF2D9AFF91EF91DF9172
:1035D000CF91BF91AF919F918F917F916F915F91AB
:1035E0004F913F912F910F900FBE0F901F90189504
:1035F00080912A06882321F080912A0660E0D9CFA5
:103600002D98E3CFCF92DF92EF92FF92CF93DF938B
:1036100010926C0510926B0598EEC92E93E0D92E8E
:10362000E12CF12CC0926D05D0926E05E0926F05F1
:10363000F09270058BE391E090936A0580936905A1
:1036400085EC90E0909376058093750584EC90E08E
:10365000909378058093770580EC90E090937A05BD
:103660008093790581EC90E090937C0580937B05B5
:1036700082EC90E090937E0580937D0586EC90E04F
:103680009093800580937F051092820510928305A8
:103690001092840510928505CCE1D6E010921F06A9
:1036A00010921E06C0922006D0922106E0922206B9
:1036B000F09223068DE491E090931D0680931C0602
:1036C0008FE591E09093070680930606D093090654
:1036D000C09308068FEF9FEF90930B0680930A0626
:1036E00010920C0610920D0610920E0610920F0604
:1036F00010921106109210061092130610921206E4
:1037000010921506109214061092170610921606C3
:1037100024E130E0309319062093180690931B069D
:1037200080931A0684E08093290610922B0667E99D
:1037300071E081E397E00E943814E0E2F7E081E174
:10374000DF011D928A95E9F780E480931A07D093F0
:103750001C07C0931B071092FE061092FD06C09234
:10376000FF06D0920007E0920107F092020787E679
:1037700091E09093FC068093FB0610921207109242
:103780001107109214071092130710921607109247
:1037900015071092180710921707609119076E7F8E
:1037A0006D7F609319076695617081E0682789E0F5
:1037B0000E94CC0361E089E00E942604E3EAF2E083
:1037C000E491E0930B07EFE8F2E0E491F0E0EE0F14
:1037D000FF1FE458FD4F8591949190930D078093BE
:1037E0000C0760E088E00E9426048091190781FDA3
:1037F00004C061E088E00E94CC0388E08093070762
:10380000E2EAF2E0E491E0930807EEE8F2E0E49106
:10381000F0E0EE0FFF1FEE58FD4F859194919093CD
:103820000A0780930907DF91CF91FF90EF90DF9017
:10383000CF900895CF93DF93CDB7DEB7AC970FB697
:10384000F894DEBF0FBECDBF789484B5826084BD8E
:1038500084B5816084BD85B5826085BD85B5816094
:1038600085BD80916E00816080936E001092810012
:1038700080918100826080938100809181008160CD
:10388000809381008091800081608093800080918E
:10389000B10084608093B1008091B000816080931A
:1038A000B00080917A00846080937A0080917A00E1
:1038B000826080937A0080917A00816080937A00A0
:1038C00080917A00806880937A001092C100E09124
:1038D0007905F0917A0582E08083E0917505F09199
:1038E00076051082E0917705F091780580E180837C
:1038F00010928105E0917D05F0917E0586E0808340
:10390000E0917B05F0917C05808180618083E0916E
:103910007B05F0917C05808188608083E0917B0548
:10392000F0917C05808180688083E0917B05F09137
:103930007C0580818F7D808385E090E0A0E0B0E011
:1039400080936D0590936E05A0936F05B0937005FD
:1039500010922A031092290310921A051092190549
:103960000E94D20580E692E09093920280939102A9
:1039700081E692E09093900280938F0288E080939A
:10398000B800EE24E39410E000E020E030E048E4EA
:1039900052E460E070E080EA91E40E94AF148BE6AC
:1039A0000E94350B84ED91E00E94F50A8DEC91E0C8
:1039B0000E94F50A84EC91E00E94F50A8AE191E008
:1039C0000E94780C882321F08FEF93E00E94251746
:1039D0008DE891E00E946803BEE0EB2EB3E0FB2E81
:1039E00000E110E0C8010E94780CD7018D937D01A1
:1039F0000F5F1F4F00321105A9F710922A03109292
:103A0000290310921A05109219050E94D20580E62A
:103A100092E0909392028093910281E692E09093DB
:103A2000900280938F0240E860E08AE197E00E9474
:103A300049086AE070E080E090E00E948E0440E077
:103A400050E06AE774E48AE197E00E94C00980E4EC
:103A500098E7ADE7B1E080931D0790931E07A09310
:103A60001F07B093200783E191E00E947A0D092E91
:103A7000000CAA0BBB0B8093930290939402A0932B
:103A80009502B0939602885D9945A109B1098539DF
:103A90009141A105B10560F088EA91E6A0E0B0E0AF
:103AA0008093930290939402A0939502B093960210
:103AB0006091930270919402809195029091960288
:103AC0000E948E2D20E030E04AE754E40E94CD2F82
:103AD0006B017C014B015C01AC019B010E94113127
:103AE0006AE971E081111BC026013701E89477F87B
:103AF0002FEF3FEF4FE75FE7C301B2010E941131A3
:103B0000811157C02FEF3FEF4FE75FE7C301B201CD
:103B10000E94872D18160CF04CC06EE971E089E602
:103B200095E00E94780A89E695E00E94CD0A2091EE
:103B30009302309194024091950250919602A8EE22
:103B4000B3E00E94E02E6B017C0140E050E060E7B2
:103B500073E48AE197E00E94C009C0922307D092E3
:103B60002407E0922507F0922607C0921D07D09205
:103B70001E07E0921F07F09220070E94B90884E90F
:103B800091E00E94F50A90E080E08C010F5F1F4FEA
:103B9000805C9E4F0E94780C080F111DC801805C4C
:103BA0009E4F0E94780C8E3409F47CC0C8010496A4
:103BB000ECCF2FEF3FEF4FE75FE4C701B6010E9464
:103BC000B43018161CF462EA71E0A9CF2FEF3FEF72
:103BD0004FE75FECC701B6010E94872D87FDF3CF49
:103BE00020E030E0A901C701B6010E94872D87FFC0
:103BF0000BC06DE289E695E00E9474024601570110
:103C0000B7FAB094B7F8B0942AE037ED43EA5BE333
:103C1000C501B4010E945C2F4B015C010E9446303B
:103C20006B017C010E948C2D9B01AC01C501B4018C
:103C30000E945B2F4B015C014AE0C701B6010E9464
:103C4000870A6EE289E695E00E94740220E030E087
:103C500040E251E4C501B4010E94ED2D4B015C012D
:103C60000E9446306B01F12CE12C4AE0C701B601FD
:103C70000E94870AC701B6010E948C2D9B01AC01EE
:103C8000C501B4010E945B2F20E030E040E251E426
:103C90000E94ED2D0E94463090E080E04AE00E94B4
:103CA000870A41CF68E071E0C8018E5B9E4F0E9499
:103CB000510CF8941092800089E08093810080E29A
:103CC00093E0909389008093880010928500109271
:103CD000840082E080936F007894109228061092FE
:103CE0002D0610922C068091290660E00E94260481
:103CF00064E070E081E397E00E94711361E083E08B
:103D00000E9426048CEA91E00E94F50A10921607A0
:103D100010921507109214071092130710921207B1
:103D2000109211078DE991E090931807809317077F
:103D300090910707963108F047C02DEB30E03093A3
:103D40001207209311072BE931E0309314072093D9
:103D500013072CE231E030931607209315072091CA
:103D6000680084E0983048F031E09E3008F430E09C
:103D700081E001C0880F3A95EAF7822B80936800B2
:103D80002DE630E0983050F02BE630E09E3030F0F9
:103D90002CE630E0963110F030E020E030930F0751
:103DA00020930E07292F30E0983008F093C181E06E
:103DB00001C0880F9A95EAF7809310078091170742
:103DC000909118070197F1F78091150790911607C8
:103DD000892B49F1E0919902F0919A0226E0EB3F9C
:103DE000F20709F1309739F0A389B4899C9185894C
:103DF000809589238C93809119078E7F8093190772
:103E000010929802109297028BEF96E090939A028C
:103E100080939902E0910E07F0910F0780819091B5
:103E20001007892B808385E090E0A0E0B0E08093CC
:103E3000FF0690930007A0930107B09302078AE062
:103E400090E09093B4028093B3028AE991E00E94DB
:103E5000F50A8091B3029091B4020E94030B80E1B5
:103E60000E945704BC01990F880B990B61157105CD
:103E70008105910511F00E94E72C86E090E00E94F8
:103E8000272B8C01DC0111961C921E9213961C921A
:103E90001E92129715961C921E92149787EB91E032
:103EA0000E94F50A10932403009323038DE091E010
:103EB0000E94A30E64EF71E080E090E00E948E0407
:103EC0001092BA028DEB91E00E94F50AA8EE2A2E1C
:103ED000A3E03A2E0E94C10428E833E140E050E01C
:103EE0000E942A2F8091010190910201092E000C5D
:103EF000AA0BBB0B82179307A407B5070CF04DC0A4
:103F00007901309302012093010185E10E94570459
:103F10008C018A389240ECF580919B0290919C0232
:103F20000817190721F0E2E0EE16F10494F58FED81
:103F300091E00E946803C80163E670E00E945F326E
:103F40006B01072E000CEE08FF0877FFD0C06DE272
:103F500089E695E00E94740266277727CB016C19E9
:103F60007D098E099F094AE00E94870A86E50E9422
:103F7000350B8AE191E00E94780C882321F081EDD5
:103F800093E00E94251760ED77E080E090E00E94CA
:103F90008E0410939C0200939B02009123031091C6
:103FA0002403D8018D919C91892B09F0A4C00E9413
:103FB000C104C0909D02D0909E02E0909F02F090BC
:103FC000A0026C197D098E099F09C0900301D09051
:103FD0000401E0900501F0900601C616D706E80638
:103FE000F9060CF088C08091B902811154C280E3B7
:103FF00096E09093AE028093AD0280912C06909152
:104000002D069093B0028093AF028091FA0690E063
:104010009093B2028093B10280912806833009F018
:104020003AC28091320690913306875891098E35B5
:10403000910508F02AC280912C0690912D060497D4
:1040400009F0F2C180913406909135068097479728
:1040500008F0EAC1809136069091370609970997D2
:1040600008F0E2C11092AC021092AB028FEF9FEF0A
:10407000DC018093A5029093A602A093A702B093BF
:10408000A80283E090E09093A2028093A102809125
:10409000A5029091A602A091A702B091A802892F33
:1040A0009A2FAB2FBB278A3509F47BC308F032C3A4
:1040B000823209F45EC308F017C3803109F46EC37D
:1040C00008F0C8C26DE172E0823009F4CBC266EC40
:1040D00071E072C39E3040F42850310981E001C084
:1040E000880F2A95EAF768CE2E503109F7CF4AE0BB
:1040F000C701B60139CFF8018081918118161906E0
:104100000CF08FC00E94C104C0909D02D0909E020E
:10411000E0909F02F090A0026C197D098E099F0922
:10412000C0900301D0900401E0900501F0900601D9
:10413000C616D706E806F9060CF073C0D801129629
:10414000ED91FC91F12CE12C309711F0E080F180A1
:10415000F701408140932B036381748170931F03A7
:1041600060931E0385819681092E000CAA0BBB0B60
:104170008093030190930401A0930501B09306017D
:1041800081819281AFE2B3E09D012F523340261727
:1041900037072CF4FC012191CF012D93F5CF415429
:1041A0008EE74A3108F080E0FB01E15DFC4F80833F
:1041B0000E94C10460939D0270939E0280939F02AF
:1041C0009093A00285E080932203E114F10459F05A
:1041D000D70111968D919C91009711F00E94C32BED
:1041E000C7010E94C32BF80182819381009711F4CB
:1041F0000C94FD2ADC011296ED91FC91D8011396E6
:10420000FC93EE931297309709F40CC11582148237
:104210000E94C32BD8018D919C91119701978D938A
:104220009C9310912203112309F48AC000912B035F
:10423000802F002E000C990B0E944A33F82E809399
:1042400021031530D8F4F2E68F17C1F00C34B1F029
:104250000934A1F0612F70E0615F7F4F072E000CE1
:10426000880B990B0E948E2DEE24E39410E000E061
:1042700020E030E040EA50E40E94AF1480910A014F
:10428000882351F08F2D8D7F893631F488EF9BE0A4
:104290000E94B00910920A01809120038356823057
:1042A00050F480912B03833631F081E08093090133
:1042B00087E40E94350B80912B03803751F0809169
:1042C0000801811106C081E08093080180E70E9407
:1042D000350B80912B03813609F452C60CF0D4C4FF
:1042E000893409F49DC60CF082C48B3309F4E7C508
:1042F0000CF03DC48A3309F4E7C580912B038B365B
:1043000021F4909107051916CCF40E94350B809189
:1043100020038B3699F480912B038A3661F0803725
:1043200051F080912103873631F0982F9B7F993689
:1043300011F0863719F48BE680932B030E940E0C44
:1043400080912B038B3611F00C940B2AE09007051B
:10435000E7FE87C780911505DD24DA94D80E8230F8
:1043600008F4D12C10E03EECC32E42E3B42E212FF2
:1043700030E080910705082E000C990B97FF03C0D1
:104380009195819591092817390714F00C94F0291B
:10439000E0901705F090180580910D05189FE00C2E
:1043A000F11C1124D70150966C91062E000C770B4E
:1043B000880B990B0E948E2D20E030E040E85EE3F0
:1043C0000E94ED2D9B01AC0100E060911205C70138
:1043D0000E94371080910D05E0911705F0911805A6
:1043E000189FE00DF11D1124618916160CF034C7D9
:1043F000BB2D6B02B0011124072E000C880B990B0A
:104400000E948E04DD2061F0112351F0809114058B
:10441000181306C01091130511501D140CF4DA94F2
:104420001F5FA5CFF801F2CE80912C0690912D064A
:104430008434910550F18091340690913506815471
:1044400091098F9710F590E080E040E050E0BA01CC
:10445000FC01EA5CF94F2081318129503109293072
:10446000310598F4FC01E85CF94F20813181275136
:1044700031092231310508F4CFC020813181265025
:1044800031092730310508F4E0C010922806109257
:104490002D0610922C0689E695E00E94D902181686
:1044A00019060CF06AC081E08093B90289E695E0B4
:1044B0000E94B702F82E80932B03082E000C990B54
:1044C0000E944A33182F8093210382E080932203B5
:1044D00061E070E080E090E00E948E046FEBC62EF9
:1044E000CF0CF9E15EE7D52EFC1510F44AE0D42E8E
:1044F0000E94C1042B013C01E12EE894E2F889E618
:1045000095E00E94D902892B09F42DC200911E0367
:1045100010911F032BE6F21619F089E6E81207C086
:1045200080910B0190910C01081719072CF4033DA1
:1045300091E019070CF4FDC188E292E00E94F50AAF
:1045400064EF71E080E090E00E948E0489E695E0DF
:104550000E94B70289E695E00E94D902892BB1F743
:1045600080912B030E94350B8BE680932B036DEB20
:1045700071E08FE293E00E94643380912B038835D1
:1045800051F580912F03813431F5E0E0AE2FB0E09A
:10459000A15DBC4F8C91EF5F8E37C1F7F0E0E25D1B
:1045A000FC4F108268E58BEF96E00E9474026FE288
:1045B00073E08BEF96E00E945B0B8BEF96E00E941E
:1045C0004205892B31F08BEF96E00E945805892B2C
:1045D000A1F70E940E0C8BEF96E00E944205892BFA
:1045E00009F47AC266EC71E0CE0101960E9438149B
:1045F0000E94790597FDE5C18A30910509F4E1C172
:1046000089A31AA241E050E0BE016F5D7F4FCE0149
:1046100001960E949913ECCF440F551F661F771F18
:10462000416004968038910509F012CF80E290E055
:104630009093AC028093AB024093A5025093A602E4
:104640006093A7027093A8021CCD440F551F661FEC
:10465000771FE7CF823109F4ADC065E072E08831A1
:1046600009F035CDCE0181960E94491469EA71E0C6
:10467000CE0181960E94630A882309F4A2C06AE8E9
:1046800071E081E397E00E94021461E377E0CE01DC
:1046900087960E94E613CE0181960E94060C66EC76
:1046A00071E0CE0187960E94630A811112C08BA52A
:1046B0009CA5019709F027C170E060E0CE018796C4
:1046C0000E946202FC01808180932B0381E0809331
:1046D00022031092280610922D0610922C06CE016D
:1046E00087960E94060CD7CE823409F45DC048F448
:1046F000803309F44DC06BEF71E0883309F4B2CF19
:10470000E6CC8A3409F453C06AEE71E0823509F4CC
:10471000A9CFDDCC823A39F198F48A37E1F140F43F
:10472000823621F162E172E0883609F49BCFCFCC6A
:10473000803959F16FE072E0883909F493CFC7CC22
:10474000823CD1F040F4883AE9F06CE072E0803BC2
:1047500009F488CFBCCC803E91F062E272E0823EE8
:1047600009F480CFB4CC66E272E07CCF64E272E000
:1047700079CF60E272E076CF6BE172E073CF69E1EE
:1047800072E070CF67E172E06DCF65E172E06ACFF1
:1047900069E072E067CF61E072E064CF6EEF71E0D4
:1047A00061CF67EF71E05ECF64EF71E05BCF6FEEDA
:1047B00071E058CF66EA71E0CE0181960E9438140C
:1047C00055CF6BEA71E0CE0181960E94630A811198
:1047D00010C06DEA71E0CE0181960E94630A8111DA
:1047E00008C06FEA71E0CE0181960E94630A8823B7
:1047F000E9F170E060E0CE0181960E946202DC0186
:104800001C9110930701163471F46AE871E081E39A
:1048100097E00E94630A882331F067E971E081E341
:1048200097E00E94021461E377E0CE0101960E94B6
:10483000E6131FA318A641E050E0BE01695D7F4F5B
:10484000CE0101960E949913811104C0CE010196F8
:104850000E94F40BBE016F5F7F4FCE0187960E94CE
:10486000E613CE0101960E94060C15CF61EB71E0B4
:10487000CE0181960E94630A09A11AA1811131C05B
:1048800064EB71E0CE0181960E94630A811129C018
:1048900067EB71E0CE0181960E94630A811121C00D
:1048A00067E971E0CE0181960E94630A811119C007
:1048B0006AEB71E0CE0181960E94630A811111C0FA
:1048C00018A70FA38BA19CA19AA789A78DA19EA130
:1048D0009CA78BA71AA219A21CA21BA21EA21DA2F2
:1048E000DACE0115110551F04DA15EA1B80181E3A9
:1048F00097E00E94C5131091070195CF81E397E0DF
:104900000E94F40BF8CF8BE680932B036FA178A560
:104910008FE293E00E9464336DEB71E08FE293E0ED
:104920000E945B33892B09F0D1CE86E48093070186
:10493000CDCE89E695E00E94B70298012F5F3F4FE8
:1049400030931F0320931E03F801E15DFC4F808329
:1049500089E695E00E94D902892B09F0D7CD0E9403
:10496000C1042B013C0100911E0310911F0358014B
:10497000A1E0AA1AB108F501E15DFC4F4F01808169
:104980008D1561F00E94C1046419750986099709A3
:10499000683C7105810591050CF4B1CDD4018C9171
:1049A000D81201C0850110931F0300931E03B9E1C3
:1049B0008EE7BC1508F480E0F801E15DFC4F8083D0
:1049C000DCCD62E070E0CE0101960E946202FC0143
:1049D00010811B3008F47CC0153108F09FC01B50BB
:1049E000612F70E090E080E04AE00E94870A69E071
:1049F00089E695E00E947402E12FF0E08091B30215
:104A00009091B402E817F9070CF081C0EE0FFF1F78
:104A1000E15DFD4F659174918FE293E00E940E2D50
:104A2000009709F46FC0BC01CE0101960E940214E8
:104A30006FE273E089E695E00E945B0B70E060E056
:104A4000CE0101960E946202DC018C9180932B03BF
:104A500081E090E009811A81080F191FC09023039B
:104A6000D0902403A8011816190614F046EC51E062
:104A700020ED37E060912B03C6010E946D0BF80119
:104A800001900020E9F731977F01E01AF10A6AE806
:104A900071E0C8010E945B33892B91F06BE771E0F4
:104AA000C8010E945B33892B59F00E0D1F1DF801C0
:104AB000319780819FEB980F9A3110F0883741F43D
:104AC00030E020E04DEB51E06BE6C6010E946D0B3B
:104AD000CE0101960E94060C0E94C104209122037F
:104AE0002150223050F50E94C1046854744F8F4FFA
:104AF0009F4F6093B5027093B6028093B702909374
:104B0000B8028FCBCE0101960E94F40B91CF8CE2BC
:104B100092E00E94F50A8FEF9FEF9CCF1D33D8F7EC
:104B200063E070E0CE0101960E946202FC01808188
:104B300080932B0384E090E08DCF20912B032336CC
:104B400009F46FCB0091B5021091B6022091B70223
:104B50003091B802601B710B820B930B161617066F
:104B6000180619060CF05DCB1092B9025ACB8F33A0
:104B700009F439C1823409F0C0CBC0901E03D09033
:104B80001F03E2E0CE16D1040CF4DFC2D594C79423
:104B9000F12C0F2D10E00C151D050CF035C5000F84
:104BA000111F015D1C4FD80111966C91062E000C4F
:104BB000770BC1010E945F32072E000C880B990B06
:104BC0000E948E2D4B015C01F8016081062E000CC5
:104BD000770B880B990B0E948E2DEE24E39410E046
:104BE00000E0A50194010E94AF14F394D2CF8C345D
:104BF00009F4A0C26CF58B3409F07FCB86E191E01B
:104C00000E947A0D7C0180912F03809307050E94FA
:104C1000830101966C018E0D9F1D10E000E08F3F17
:104C20009F4108F4A2C283E492E00E94F50A55E095
:104C3000E52E04E610E020E030E048EC52E460E0CD
:104C400070E080E291E40E94AF140E94D91112C07A
:104C50008D3409F4E5C1843509F04FCB86E191E04C
:104C60000E947A0D0E94C7080E94D91180912B03DF
:104C70000E94350B8BE680932B0367EC71E08FE28B
:104C800093E00E94643339CB8A3609F4C9C08CF4AE
:104C9000843609F4CDC20CF489C1893609F02DCBD4
:104CA00080911E0390911F03892B71F410922C03A5
:104CB00024CB803709F4A0C00CF08EC08B3609F4E9
:104CC0009DC28D3609F019CB10920D03B0900901E9
:104CD0000DE011E0FE0131966F017DECE72E72E0F0
:104CE000F72EEDE28E2EE1E09E2E3601D8016D9179
:104CF0007D918D01072E000C880B990B0E948E2D43
:104D000020E030E0A901BB2029F0F70120813181AA
:104D1000428153810E945B2F0E943F30D6016D93E8
:104D20007D936D01B4E0EB0EF11C80169106F1F657
:104D300060EC71E08FE293E00E941E2D6C0155241F
:104D40005394C114D10409F435C1C6010E94F02C5A
:104D50008C0163EC71E090E080E00E941E2D6C01FC
:104D6000F12CE12CAA24A394B12C009769F00E94A5
:104D7000F02C7C0163EC71E090E080E00E941E2D3D
:104D80006C0162E0A62EB12C80912B03982F9B7FA3
:104D9000993609F07AC30031110598F49801220F71
:104DA000331FF301E20FF31FF182E082043011059B
:104DB0000CF007C12B533D4FF901F182E082509274
:104DC0002C038D3609F00AC140E050E060E070E449
:104DD000C3010E94BF0EF1C3833709F478C087373F
:104DE00009F472CF8ACA8BE692E00E94F50A82E645
:104DF00092E00E94F50A81CA9091080121E0911188
:104E000020E020930801911180E580932B039111FC
:104E100004C08BE680932B0370CA0E94B9086DCA48
:104E20006DE389E695E00E94740280911E039091E3
:104E30001F03892B71F08FE293E00E94F02C880F02
:104E4000991FFC01E35FFE4F808191810E94030B5B
:104E500054CA0E94D10A66EC71E0CE0181960E948C
:104E600038140DE011E08DE2E82E81E0F82ED80133
:104E70006D917D918D01CE0101960E940C144D81A2
:104E80005E8169817A81CE0181960E949913CE015B
:104E900001960E94060C42E050E064EC71E0CE0105
:104EA00081960E949913E016F10609F7CE018196CA
:104EB0000E94460BCE0181960E94060C1ECA88EF06
:104EC0009BE00E94B00919CA88E79CE0FACF8CE504
:104ED00092E00E94F50AAEE08A2EA3E09A2EB0E49A
:104EE000EB2EF12C00E110E0F401D1904F01C8014C
:104EF0000E94AB2ED81621F06D2DC8010E94B32E52
:104F0000C7010E947A0D6C01C80180960E94780C3E
:104F1000B82EF40131976081062E000C770B880BB8
:104F2000990B0E948E2D2B013C016B2DBB0C770B36
:104F3000880B990B0E948E2D9B01AC01C301B2011D
:104F40000E94ED2D2B013C01B601DD0C880B990B65
:104F50000E948E2D9B01AC01C301B2010E945C2F07
:104F60000E943F30C70180960E94510C0F5F1F4F77
:104F7000F2E0EF0EF11C0032110509F0B5CFBDC90A
:104F800084E592E00E94F50AFEE0EF2EF3E0FF2EAA
:104F900000E110E0C8010E94780CD7018D937D01DB
:104FA0000F5F1F4F00321105A9F7A7C9893609F411
:104FB00077CE8ACEF12CE12C10E000E0B12CA12CB0
:104FC000E3CE50920D03FDCE873741F4C8019927F7
:104FD0000E94780CB7010E946409EFC2823609F082
:104FE000ECC2E114F10409F4E8C2C101B7010E9466
:104FF0005F32072E000C880B990B0E948E2D4B01FF
:105000005C01B801110F880B990B0E948E2DEE24C4
:10501000E39410E000E0A50194010E94AF14CDC21A
:1050200080911E0390911F0302970CF43FCE1092C3
:105030000D0390900901FDE0EF2EF1E0FF2ECE016F
:1050400001965C01ADECCA2EA2E0DA2EBDE26B2E19
:10505000B1E07B2E8C01D7016D917D917D01072EF2
:10506000000C880B990B0E948E2D20E030E0A901E6
:10507000992029F0F60120813181428153810E94DB
:105080005B2F0E943F30D5016D937D935D01B4E0AD
:10509000CB0ED11C6E147F04F1F6EFE2EE2EE3E0AE
:1050A000FE2EDD24D39420911E0330911F03C701EF
:1050B0008F529340821793075CF5F701408140318E
:1050C000A8F42181022E000C330B842F880F990B3A
:1050D000F801E80FF91F318320834430B4F48B5377
:1050E0009D4FDC012D933C93D0922C0380912B0398
:1050F0008D3439F440E050E060E070E4C8010E9473
:10510000BF0EB2E0EB0EF11CCECFD0920D03EECF6E
:1051100080910D03811105C0809120038B3609F425
:10512000ECC840E050E060E870E4C8010E94BF0EA7
:10513000C8015FC200E020E030E040E050E461E000
:105140008FE293E00E943710D8C88AE191E00E9474
:10515000780C2AE131E03A83298361E0811160E033
:10516000CE0101960E94380CC8C81C141D040CF016
:105170006CCD21E020931C0584E580931B051092E3
:105180001A05109219056F2D70E08CE196E00E94CF
:105190007908B70177278CE196E00E9479083801F9
:1051A000D801A15DBC4F4D012801B0E14B0E511C4F
:1051B0000F5F1F4FF40161914F018CE196E00E9457
:1051C0002F075801AE0CBF1CA618B708F1E0CF1A84
:1051D000D10841F0C5018F719927892B19F040162C
:1051E000510631F78CE196E00E945E0766E070E0C0
:1051F00080E090E00E948E047501B7CF6FE273E00B
:105200008BE791E00E945B33892B69F06FE273E0DA
:105210008AEB92E00E945B33892B29F48091070589
:1052200082300CF0EEC18FE293E00E94EE1165C86F
:105230006BEC71E08FE293E00E9464338FE293E0C5
:105240000E94EE110E94B9081092090110922C03DD
:1052500087E60E94350B51C8EC2D6E02B001112477
:10526000CBC82E2D0E2C000C330B80910305803102
:1052700008F44DC0109203058091080140912D0360
:1052800050912E03840F952F911D82179307DCF503
:1052900090932E0380932D0380910305843019F49D
:1052A00088E080930305F09003050F2D10E0F1E0F6
:1052B000FE15ACF580911605F816D8F140910D0554
:1052C00020912D0330912E03429FC001439F900DEA
:1052D000112420911605080F191F021B1109809136
:1052E000170590911805080F191F60911205D80134
:1052F0002C912603B0011124072E000C880B990B6A
:105300000E948E2D63C010922E0310922D03809167
:105310000305823009F688E080930305BDCF213074
:10532000310561F623E02F1548F280912C03882384
:1053300029F280912C0381117EC083E08F1508F43F
:105340007AC091E0812C912C5401F91659F06091AA
:105350000605062E000C770B880B990B0E948E2DEC
:105360004B015C010E5F1F4F80912D0390912E0326
:10537000089FB001099F700D189F700D1124072E12
:10538000000C880B990B0E948E2D2BED3FE049E419
:1053900050E40E94ED2D2B013C016E2DEE0C770B9D
:1053A000880B990B0E948E2D9B01AC01C301B201A9
:1053B0000E94CD2F0E94093120E030E040E251E40C
:1053C0000E94ED2DA50194010E945C2FAB01BC0150
:1053D0008F2D0E94FD0D809103058F5F8093030543
:1053E00083E49DE00197F1F78091070587FF13C0E3
:1053F0008DE091E00E940C02EDECF2E08DE093E094
:1054000011921192119211928E179F07C9F78091F4
:105410002B030E94350B80E090E0892B11F40C9453
:105420006A1F0E94E502882311F40C946A1F0E94EF
:1054300000000C94661FF801EE0FFF1FEB53FD4FA9
:1054400060817181072E000C880B990B0E948E2DB4
:105450004B015C016091090170E090E080E00E94E6
:105460008E2D000F111F000F111FF801E353FD4F88
:1054700020813181428153810E94ED2D9B01AC013D
:10548000C501B4010E945B2FA1CF833609F09CCDEA
:105490001092090180912003833681F088E79CE017
:1054A0000E94B00950920A0161E971E08FE293E035
:1054B0000E9464338FE293E00E94EE11C801825F84
:1054C0009C4F4C0192E0A916B10411F4D401EC9266
:1054D000C8018096880F991F0E947A0D7C01C8012F
:1054E0009927C0960E94780C182FF4016081062E2F
:1054F000000C770B880B990B0E948E2D4B015C01E1
:10550000612F110F770B880B990B0E948E2D9B0139
:10551000AC01C501B4010E94ED2D4B015C01B70146
:10552000FF0C880B990B0E948E2D9B01AC01C501CD
:10553000B4010E945C2F0E943F30072E000C880BA4
:10554000990B0E948E2DAB01BC01802F0E948E0D05
:105550000E94D10A66EC71E0CE0187960E94381451
:105560000EE013E0D8016D918D01062E000C770B33
:10557000CE0181960E940C144DA15EA169A17AA171
:10558000CE0187960E949913CE0181960E94060C47
:1055900042E050E064EC71E0CE0187960E949913DE
:1055A000EEE1F3E0E017F107E9F6CE0187960E94FD
:1055B000460BCE0187960E94060CC114D10409F057
:1055C000C0CB80912B03893611F00C947D21809102
:1055D0000D03811106C0809120038B3611F40C94C9
:1055E0007D2140E050E060E870E4C3010E94BF0EFE
:1055F000C3010E940C020C947D21109122030C9493
:1056000016218BE60C94812180912B030C9485212B
:1056100087E691E09093FC068093FB0680919902C7
:1056200090919A028B5F964071F4E0910E07F09191
:105630000F079081809110078095892380831092B5
:105640009A021092990281E397E00C94060C0F9352
:105650001F93CF93DF938230910510F482E090E0A6
:10566000E0913B07F0913C0730E020E0B0E0A0E0A3
:10567000309799F42115310509F44AC0281B390BDC
:1056800024303105D8F58A819B816115710589F136
:10569000FB0193838283FE0111C04081518102810D
:1056A000138148175907E0F04817590799F41097E4
:1056B00061F012960C93129713961C933296CF01B9
:1056C000DF91CF911F910F91089500933B071093A5
:1056D0003C07F4CF2115310551F04217530738F03C
:1056E000A901DB019A01BD01DF01F801C1CFEF0182
:1056F000F9CF90933C0780933B07CDCFFE01E20F9B
:10570000F31F819391932250310939832883D7CF96
:105710002091390730913A07232B41F420912F0132
:105720003091300130933A072093390720912D01B1
:1057300030912E012115310541F42DB73EB740912E
:10574000310150913201241B350BE0913907F09162
:105750003A07E217F307A0F42E1B3F0B281739076F
:1057600078F0AC014E5F5F4F2417350748F04E0FBD
:105770005F1F50933A0740933907819391939FCFCE
:10578000F0E0E0E09CCFCF93DF930097E9F0FC01DD
:10579000329713821282A0913B07B0913C07ED0132
:1057A00030E020E01097A1F420813181820F931F17
:1057B0002091390730913A072817390709F061C05D
:1057C000F0933A07E0933907DF91CF910895EA010A
:1057D000CE17DF07E8F54A815B819E01411551052F
:1057E000B1F7E901FB83EA8349915991C40FD51FB1
:1057F000EC17FD0761F4808191810296840F951F5B
:10580000E90199838883828193819B838A83F0E075
:10581000E0E012968D919C9113970097B9F52D9128
:105820003C911197CD010296820F931F2091390769
:1058300030913A072817390739F6309751F5109209
:105840003C0710923B07B0933A07A0933907BCCFAF
:10585000D383C28340815181840F951FC817D90714
:1058600061F44E5F5F4F88819981480F591F5183C2
:1058700040838A819B81938382832115310509F0BE
:10588000B0CFF0933C07E0933B079ECFFD01DC01D6
:10589000C0CF13821282D7CF8F929F92AF92BF92C6
:1058A000CF92DF92EF92FF92CF93DF93EC0168816A
:1058B00079818A819B81611571058105910521F4AA
:1058C00064E279ED8BE597E02DE133EF41E050E0C4
:1058D0000E94C12E49015A019B01AC01A7EAB1E423
:1058E0000E94E02E6B017C01ACEEB4EFA5019401A7
:1058F0000E94EE2EC60ED71EE81EF91EF7FE06C049
:1059000081E0C81AD108E10880E8F80AC882D98283
:10591000EA82FB82C701B6019F77DF91CF91FF90AA
:10592000EF90DF90CF90BF90AF909F908F900895B1
:105930008F929F92AF92BF92CF92DF92EF92FF929F
:10594000609133017091340180913501909136015D
:10595000611571058105910521F464E279ED8BE50E
:1059600097E02DE133EF41E050E00E94C12E490164
:105970005A019B01AC01A7EAB1E40E94E02E6B0141
:105980007C01ACEEB4EFA50194010E94EE2EC60E90
:10599000D71EE81EF91EF7FE06C081E0C81AD1081E
:1059A000E10880E8F80AC0923301D0923401E09215
:1059B0003501F0923601C701B6019F77FF90EF9055
:1059C000DF90CF90BF90AF909F908F90089560939D
:1059D000330170933401809335019093360108951B
:1059E000FC0188279927E89421912032E9F3293096
:1059F00010F02E30C8F32B3241F02D3239F4689478
:105A000004C00E94552D820F911D219120532A30F0
:105A1000C0F31EF4909581959F4F0895FB01DC0122
:105A200005900D920020E1F70895FC0105900020FB
:105A3000E9F7809590958E0F9F1F089547E357E0F3
:105A40000E94232D0895FA01A191B081009719F4C5
:105A50001097E1F0CD01DC01CD010D90002011F493
:105A6000C00113C0FB012191222319F02015D9F7A1
:105A7000F3CFFB012191201519F41E92119606C057
:105A80002223C1F70D900020A1F7D001FA01A193C4
:105A9000B0830895BB274A3031F4992322F4BDE244
:105AA000909581959F4F0C945E2D7AE0979F902D55
:105AB000879F802D910D11240895BB27FB01552749
:105AC000AA27880F991FAA1FA41710F0A41B83955B
:105AD0005051B9F7A05DAA3308F0A95DA1930097D2
