:100000000C9435070C945D070C945D070C945D0708
:100010000C945D070C945D070C945D070C945520BF
:100020000C945D070C945D070C945D070C94722290
:100030000C945D070C945D070C945D070C945D07B0
:100040000C9409210C945D070C94D7200C94B120DA
:100050000C945D070C945D070C945D070C945D0790
:100060000C9453210C945D07084AD73B3BCE016E9C
:1000700084BCBFFDC12F3D6C74319ABD56833DDAFF
:100080003D00C77F11BED9E4BB4C3E916BAAAABE0E
:10009000000000803F05A84CCDB2D44EB93836A937
:1000A000020C50B9918688083CA6AAAA2ABE000074
:1000B00000803F07634236B79BD8A71A39685618A5
:1000C000AEBAAB558C1D3CB7CC5763BD6DEDFD751D
:1000D0003EF6177231BF000000803F08000000BEEE
:1000E000922449123EABAAAA2ABECDCCCC4C3E00EB
:1000F000000080BEABAAAAAA3E00000000BF00001C
:1001000000803F0000000000084178D3BB4387D146
:10011000133D190E3CC3BD4282AD2B3E68EC827686
:10012000BED98FE1A93E4C80EFFFBE01C4FF7F3FE7
:1001300000000000000001000001000000000000BD
:10014000000000000000000000000000000023008C
:100150002600290000000000240027002A000000DB
:100160000000250028002B000404040404040404F7
:100170000202020202020303030303030102040852
:100180001020408001020408102001020408102001
:100190000000000800020100000304070000000046
:1001A000000000000200F8F62A3F68F57A0006FF1A
:1001B000FE0003000000650054FFEF0000FA80001D
:1001C0000B12820001030C30C30A74562D0D62DB42
:1001D000C716F4BA023883F8833000F883258EF806
:1001E000833000F883FFFFFFFF0CBDD8112400040B
:1001F000001A8279A10036003C00000000001000C7
:100200000038836FA2003E03304000000002CAE3C2
:10021000093E8000002000000000000000400000B7
:1002200000600000001FA4E8E4FFF5DCB9005B7982
:10023000CF1F3F787600867C5A00862347FAB9861E
:10024000310074878A0000000000004305FFFFE9C9
:10025000A800002182FAB84D46FFFADF3DFFFFB249
:10026000B3000000003FFFBA98005DAC08000A63CD
:100270007800014621FFFF0000000042B5000600A3
:1002800064006400061406029F0F479132D90E9F46
:10029000C91DCF4C343BB67AE80064000600C800A4
:1002A000000000FFFE100000000000000000000041
:1002B000000000000000070000FFF10000FA460007
:1002C00000A2B800001000000004D6000004CC001A
:1002D0000004CC000000000000000000000000004E
:1002E00000000000000006000200050007000000FA
:1002F0000000640000000000000000000C00050089
:100300006400200000000000000000000000004029
:10031000000000030000000032F8980000FF6500B4
:1003200000830F000000060000FFF10000FA460005
:1003300000A2B80000000000000000000000000063
:10034000000000000000000032000000000000007B
:100350000000001000000000010000000D0000B2CD
:100360006A000200000001FB83007C0000FB15FC1A
:10037000001FB4FF83000000010065000700640354
:10038000E8006400280000FFFD0000000016A00047
:10039000000000000000001000002F00000000011D
:1003A000F40000100000280000FFFF4581FFFFFA65
:1003B000720000000000000000004400010005BAC7
:1003C000C6004778A2000000000000000000000600
:1003D0000000000014000023BB002EA25B000005FB
:1003E00068000BCF490004FFFD0002000000000080
:1003F0000200000000001B000000000000000000E0
:10040000000000000000640007000800060006FF6E
:10041000FE000000000000000000000000000000DE
:1004200000000000000000000000000000000000CC
:1004300000000000000000000000000000000000BC
:100440000000000000002EA25B00000568000BCF3A
:10045000490000000000F8F62A3F68F57A0004FF22
:10046000FD00020000001B00000000000000000072
:1004700000000E000EFFFFFFCF0004000000000090
:1004800032FFFFFF9C000043050000000000000059
:100490000100000064FFE500000000000000000013
:1004A000000000000000000001000000000001004A
:1004B00000000000000001800000018000000180B9
:1004C00000002426D3000100010000000000060007
:1004D000100096003C00000000000000000000003A
:1004E000001F9E655D0C0A4E68CDCF7709501667D8
:1004F00059C619CE82000000000000000000000074
:10050000000047711C000000000000000017D784A5
:1005100000030000000011DC4703000000C7938FB8
:100520009D1E1B1C19FFFFFFFF000000000EDFA433
:10053000381F9E655D000000000047711C02031813
:1005400085000040000000000000000003000000E3
:1005500000000000003FFFFFFDFFFFF4C9FFFFBCEC
:10056000F000010C0F00000000000000000000007F
:10057000000000000000000000000000000000007B
:100580000000000000F5B7BAB3677DDF7E72902EE1
:10059000554CF6E688000000000000000000000056
:1005A0000000000000D8DCB4B8B0D8B9ABF3F8FA5A
:1005B000B3B7BB8E9EAEF132F51BF1B4B8B08097E5
:1005C000F1A9DFDFDFAADFDFDFF2AA4CCD6CA90CD7
:1005D000C92C97F1A989264666B28999A92D557D1E
:1005E000B0B08AA896365676F1BAA3B4B280C0B835
:1005F000A89711B28398BAA3F0240844106418B2E3
:10060000B9B49883F1A329557DBAB5B1A38393F00A
:10061000002850F5B2B6AA839328547CF1B9A3827E
:100620009361BAA2DADEDFDB819AB9AEF560687059
:10063000F1DABAA2DFD9BAA2FAB9A38292DB31BA4F
:10064000A2D9BAA2F8DF85A4D0C1BBAD83C2C5C709
:10065000B8A2DFDFDFBAA0DFDFDFD8D8F1B8AAB3F6
:100660008DB4980D355DB2B6BAAF8C96198F9FA731
:100670000E161EB49AB8AA872C547CBAA4B08AB6B7
:1006800091325676B28494A4C808CDD8B8B4B0F1EB
:100690009982A82D557D98A80E161EA22C547C92E6
:1006A000A4F02C5078F184A898C4CDFCD80DDBA818
:1006B000FC2DF3D9BAA6F8DABAA6DED8BAB2B68655
:1006C00096A6D0F3C841DAA6C8F8D8B0B4B882A8C4
:1006D00092F52C548898F135D9F418D8F1A2D0F8B5
:1006E000F9A884D9C7DFF8F883C5DADF69DF83C1E9
:1006F000D8F40114F1A8824EA884F311D182F5D95F
:1007000092289788F109F41C1CD884A8F3C0F9D169
:10071000D99782F129F40DD8F3F9F9D1D982F4C22D
:1007200003D8DEDF1AD8F1A2FAF9A88498D9C7DF76
:10073000F8F8F883C7DADF69DFF883C3D8F4011467
:10074000F198A8822EA884F311D182F5D9925097FE
:1007500088F109F41CD884A8F3C0F8F9D1D997829C
:10076000F149F40DD8F3F9F9D1D982F4C403D8DEF4
:10077000DFD8F1AD8898CCA809F9D98292A8F57C88
:10078000F1883ACF944A6E98DB6931DAADF2DEF93E
:10079000D88795A8F221D1DAA5F9F417D9F1AE8E50
:1007A000D0C0C3AE82C684C3A88595C8A588F2C050
:1007B000F1F4010EF18E9EA8C63E56F554F18872F2
:1007C000F40115F19845856EF58E9E0488F14298E6
:1007D0005A8E9E068869F4011CF1981E1108D0F506
:1007E00004F11E970202983625DBF9D985A5F3C1DD
:1007F000DA85A5F3DFD88595A8F309DAA5FAD882BA
:1008000092A8F578F1881A849F26889821DAF41D39
:10081000F3D8879F39D1AFD9DFDFFBF9F40CF3D8D8
:10082000FAD0F8DAF9F9D0DFD9F9D8F40BD8F38790
:100830009F39D1AFD9DFDFF41DF3D8FAFCA869F9ED
:10084000F9AFD0DADEFAD9F88F9FA8F1CCF398DBB4
:1008500045D9AFDFD0F8D8F18F9FA8CAF38809DA5D
:10086000AF8FCBF8D8F2AD978D0CD9A5DFF9BAA62A
:10087000F3FAF412F2D8950DD1D9BAA6F3FADAA5A3
:10088000F2C1BAA6F3DFD8F1BAB2B68696A6D0CA3C
:10089000F349DAA6CBF8D8B0B4B8D8AD84F2C0DF4B
:1008A000F18FCBC3A8B2B68696C8C1CBC3F3B0B4A0
:1008B0008898A821DB718D9D71859521D9ADF2FABB
:1008C000D88597A828D9F408D8F28D29DAF405D963
:1008D000F285A4C2F2D8A88D9401D1D9F411F2D82E
:1008E0008721D8F40AD8F28498A8C801D1D9F41184
:1008F000D8F3A4C8BBAFD0F2DEF8F8F8F8F8F8F8EF
:10090000F8D8F1B8F6B5B9B08A95A3DE3CA3D9F80A
:10091000D85CA3D9F8D87CA3D9F8D8F8F9D1A5D94F
:10092000DFDAFAD8B18530F7D9DED8F830ADDADEC3
:10093000D8F2B48C99A32D557DA083DFDFDFB5916C
:10094000A0F629D9FBD8A0FC29D9FAD8A0D051D932
:10095000F8D8FC51D9F9D879D9FBD8A0D0FC79D9ED
:10096000FAD8A1F9F9F9F9F9A0DADFDFDFD8A1F8AF
:10097000F8F8F8F8ACDEF8ADDE8393AC2C547CF1DB
:10098000A8DFDFDFF69D2CDAA0DFD9FADB2DF8D85F
:10099000A850DAA0D0DED9D0F8F8F8DB55F8D8A8FE
:1009A00078DAA0D0DFD9D0FAF8F8F8F8DB7DF8D8FB
:1009B0009CA88CF530DB38D9D0DEDFA0D0DEDFD8C4
:1009C000A848DB58D9DFD0DEA0DFD0DED8A868DBAE
:1009D00070D9DFDFA0DFDFD8F1A888902C547C9895
:1009E000A8D05C38D1DAF2AE8CDFF9D8B087A8C1D4
:1009F000C1B188A8C6F9F9DA36D8A8F9DA36D8A884
:100A0000F9DA36D8A8F9DA36D8A8F9DA36D8F78D6F
:100A10009DADF818DAF2AEDFD8F7ADFA30D9A4DE22
:100A2000F9D8F2AEDEFAF983A7D9C3C5C7F1889B1E
:100A3000A77AADF7DEDFA4F8849408A797F300AE99
:100A4000F29819A488C6A39488F632DFF28393DB68
:100A500009D9F2AADFD8D8AEF8F9D1DAF3A4DEA723
:100A6000F1889B7AD8F38494AE19F9DAAAF1DFD829
:100A7000A881C0C3C5C7A39283F628ADDED9F8D834
:100A8000A350ADD9F8D8A378ADD9F8D8F8F9D1A149
:100A9000DADEC3C5C7D8A18194F818F2B089ACC317
:100AA000C5C7F1D8B8B4B09786A8319B069907ABF3
:100AB0009728889BF00C201440B0B4B8F0A88A9A0C
:100AC000285078B79BA82951792470594469386413
:100AD0004831F1BBAB88002C547CF0B38BB8A80430
:100AE000285078F1B088B49726A85998BBABB38B3F
:100AF00002264666B0B8F08A9CA82951798B295104
:100B0000798A2470598B2058718A4469388B39400E
:100B1000688A6448318B30496088F1AC002C547C81
:100B2000F08CA804285078F1889726A85998AC8CA6
:100B300002264666F0899CA8295179247059446997
:100B400038644831A98809205970AB11384069A828
:100B5000193148608CA83C415C207C00F1879819D1
:100B600086A86E767EA999882D557DD8B1B5B9A392
:100B7000DFDFDFAED0DFAAD0DEF2ABF8F9D9B08785
:100B8000C4AAF1DFDFBBAFDFDFB9D8B1F1A3978E25
:100B900060DFB084F2C8F8F9D9DED89385F14AB1A4
:100BA00083A308B5839A0810B79F10D8F1B0BAAEE6
:100BB000B08AC2B2B68E9EF1FBD9F41DD8F9D90C19
:100BC000F1D8F8F8AD61D9AEFBD8F40CF1D8F8F84B
:100BD000AD19D9AEFBDFD8F416F1D8F8AD8D61D9D7
:100BE000F4F4ACF59C9C8DDF2BBAB6AEFAF8F40B9E
:100BF000D8F1AED0F8AD51DAAEFAF8F1D8B9B1B655
:100C0000A3839C08B9B1839AB5AAC0FD3083B79F6E
:100C100010B58B93F20202D1ABDADED8F1B080BA14
:100C2000ABC0C3B284C1C3D8B1B9F38BA391B60929
:100C3000B4D9ABDEB0879CB9A3DDF1B38B8B8B8BC2
:100C40008BB08720283038B28BB69BF2A3C0C8C2C5
:100C5000C4CCC6A3A3A3F1B087B59AD8F39BA3A332
:100C6000DCBAACDFB9A3FEF2ABC4AAF1DFDFBBAFE5
:100C7000DFDFA3A3A3D8D8D8BBB3B7F1AAF9DAFFB3
:100C8000D9809AAA28B48098A720B79787A86688A1
:100C9000F07951F1902C870CA781976293F07171D4
:100CA0006085940129517990A5F1284C6C870C95A9
:100CB000188578A38390284C6C886CD8F3A28200A6
:100CC000F210A8921980A2F2D926D8F188A84DD99D
:100CD00048D896A83980D93CD89580A839A6869856
:100CE000D92CDA87A72CD8A8899519A980D938D802
:100CF000A88939A980DA3CD8A82EA83990D90CD86F
:100D0000A8953198D90CD8A809D9FFD801DAFFD80D
:100D10009539A9DA26FFD890A80D8999A81080984E
:100D200021DA2ED88999A83180DA2ED8A886963172
:100D300080DA2ED8A8873180DA2ED8A88292F341A3
:100D400080F1D92ED8A882F31980F1D92ED882AC9F
:100D5000F3C0A28022F1A62EA72EA92298A829DAF4
:100D6000ACDEFFD8A2F22AF1A92E8292A8F231803D
:100D7000A696F1D900AC8C9C0C30ACDED0DEFFD84E
:100D80008C9CACD010ACDE8092A2F24C82A8F1CA4E
:100D9000F235F19688A6D900D8F1FF444D5020666F
:100DA00061696C65642028636F64652000496E6921
:100DB0007420494D55004C6F616420736B696C6CF5
:100DC0007300526561647921004E7962626C65003E
:100DD0000A2A205374617274202A004C6F772070A5
:100DE0006F7765723A007A0062757474557000739B
:100DF00074616E64007065650070750068690073E9
:100E000074720073697400747200776B006372000F
:100E1000767400630042007000520062616C616E83
:100E20006365004C0067004600640049324320457A
:100E30004550524F4D206F766572666C6F7721205A
:100E400044656C65746520736F6D6520736B696CA8
:100E50006C73210A0061626F72746564007361765D
:100E60006564003F00005F232D3311241FBECFEFC8
:100E7000D8E0DEBFCDBF11E0A0E0B1E0EEEDF8E7D5
:100E800002C005900D92A23AB107D9F725E0A2EA77
:100E9000B1E001C01D92AF33B207E1F717E0C4E340
:100EA000D7E004C02197FE010E94403BC333D10725
:100EB000C9F70E94F3230C94623C0C94000091E06B
:100EC00090936A03809369031092680310926703FA
:100ED000089580E090E0A0E0B0E480930B0390934D
:100EE0000C03A0930D03B0930E03E0913305F09132
:100EF00034058181082E000C990B90931103809387
:100F00001003109205038281082E000C990B909318
:100F100013038093120310920403838180931403BC
:100F200090910A0397FF0FC08481809315038581F8
:100F30008093160386818093170387E040E050E09A
:100F400060E07FE307C084E040E050E060E87FE3DA
:100F50009130A1F74093FF02509300036093010387
:100F600070930203923054F098E090931803E80FC6
:100F7000F11DF0931A03E0931903089590E0F5CF63
:100F80008091FB029091FC02891B990B08950895B2
:100F900008950895AF92BF92CF92DF92EF92FF92A1
:100FA0000F931F93CF93DF936C017B018B01040F91
:100FB000151FEB015E01AE18BF08C017D10759F02D
:100FC0006991D601ED91FC910190F081E02DC6016F
:100FD0000995892B79F7C501DF91CF911F910F9169
:100FE000FF90EF90DF90CF90BF90AF900895FC01FD
:100FF000538D448D252F30E0842F90E0821B930B7E
:10100000541710F0CF96089501970895FC01918D23
:10101000828D981761F0A28DAE0FBF2FB11D5D9626
:101020008C91928D9F5F9F73928F90E008958FEFC8
:101030009FEF0895FC01918D828D981731F0828D7C
:10104000E80FF11D858D90E008958FEF9FEF0895D3
:10105000FC01918D228D892F90E0805C9F4F821B37
:1010600091098F73992708958BE693E00E942808D1
:1010700021E0892B09F420E0822F089580E090E0A0
:10108000892B29F00E94340881110C9400000895E6
:10109000FC01A48DA80FB92FB11DA35ABF4F2C91ED
:1010A000848D90E001968F739927848FA689B789E4
:1010B0002C93A089B1898C91837080648C93938DDB
:1010C000848D981306C00288F389E02D80818F7D7E
:1010D00080830895EF92FF920F931F93CF93DF9336
:1010E000EC0181E0888F9B8D8C8D98131AC0E88964
:1010F000F989808185FF15C09FB7F894EE89FF8933
:101100006083E889F98980818370806480839FBFD0
:1011100081E090E0DF91CF911F910F91FF90EF90D0
:101120000895F62E0B8D10E00F5F1F4F0F731127E0
:10113000E02E8C8D8E110CC00FB607FCFACFE8891B
:10114000F989808185FFF5CFCE010E944808F1CF53
:10115000EB8DEC0FFD2FF11DE35AFF4FF0829FB78F
:10116000F8940B8FEA89FB8980818062CFCF682F4A
:101170008BE693E00C946A080F931F93CF93DF9351
:101180008C01D0E0C0E0F801EC0FFD1F64916623F4
:1011900041F08BE693E00E946A08892B11F02196BA
:1011A000F2CFCE01DF91CF911F910F910895CF9390
:1011B000DF93EC01888D8823B9F0AA89BB89E8897F
:1011C000F9898C9185FD03C0808186FD0DC00FB625
:1011D00007FCF7CF8C9185FFF2CF808185FFEDCFA3
:1011E000CE010E944808E9CFDF91CF910895833066
:1011F00081F028F4813099F08230A9F00895873089
:10120000A9F08830C9F08430B1F4809180008F7DDE
:1012100003C0809180008F7780938000089584B50B
:101220008F7784BD089584B58F7DFBCF8091B0000A
:101230008F778093B00008958091B0008F7DF9CFB3
:101240001F93CF93DF93282F30E0F901E057FE4F33
:101250008491F901E458FE4FD491F901E859FE4F09
:10126000C491CC23A9F0162F81110E94F708EC2F0E
:10127000F0E0EE0FFF1FE25AFE4FA591B4918FB739
:10128000F894EC91111108C0D095DE23DC938FBF48
:10129000DF91CF911F910895DE2BF8CF909100013F
:1012A00089130BC0E4EAF1E0E4919FEF9093000111
:1012B000E13049F028F0E23061F060E00C94200960
:1012C00010926E00FACF90916F009D7F90936F0007
:1012D000F4CF909170009D7F9093700091E0909377
:1012E000B0009091B100987F94609093B1001092FB
:1012F000B300E3CFCF93DF9390E0FC01E458FE4FBF
:10130000249188599E4FFC0184918823D1F090E06C
:10131000880F991FFC01EC5AFE4FA591B491FC0176
:10132000E25AFE4FC591D49161110EC09FB7F89457
:101330008C91E22FE0958E238C932881E223E88321
:101340009FBFDF91CF9108958FB7F894EC91E22B76
:10135000EC938FBFF6CF8E50806480937C00809199
:101360007A00806480937A0080917A0086FDFCCFB9
:10137000809178009091790008953FB7F89480911A
:10138000550290915602A0915702B091580226B58D
:10139000A89B05C02F3F19F00196A11DB11D3FBFAD
:1013A000BA2FA92F982F8827BC01CD01620F711D7C
:1013B000811D911D42E0660F771F881F991F4A9576
:1013C000D1F708958F929F92AF92BF92CF92DF9202
:1013D000EF92FF926B017C010E94BD094B015C0101
:1013E000C114D104E104F104B9F00E94BD096819E7
:1013F00079098A099B09683E73408105910580F34C
:1014000021E0C21AD108E108F10888EE880E83E0D5
:10141000981EA11CB11CE4CFFF90EF90DF90CF90FD
:10142000BF90AF909F908F9008952FB7F8946091E0
:1014300051027091520280915302909154022FBF39
:1014400008950F931F930E94150A6093730370937E
:10145000740380937503909376038BE693E00E9468
:10146000060897FF1DC00E94150A00917303109192
:1014700074032091750330917603601B710B820B0E
:10148000930B00916F0310917003209171033091C1
:1014900072036017710782079307F8F28FEF9FEFCF
:1014A0001F910F91089520912D02260F3327331F8E
:1014B00021323105ECF420916103FC0190E080E0E1
:1014C000243069F082E00895A0912D022191AC01B1
:1014D000435F5D4FA40FB52FB11D2C930196861766
:1014E00098F380912D02680F60932D0280E008959B
:1014F00081E008951092610381E08093400310928F
:101500003B0361E082E10E94200961E083E10E94E7
:101510002009E9EBF0E080818E7F808380818D7FE0
:10152000808388E48093B80085E48093BC000895AC
:10153000CF93DF9391E090930C028823B9F0C09190
:10154000B800D091BA008091BC008A7B8093BC0027
:1015500060E082E10E94200960E083E10E942009AE
:101560000E947A0AD093BA00C093B800DF91CF915D
:101570000895CF92DF92EF92FF920F931F93CF9334
:10158000DF93D82FC62F613208F098C00E94BD09A2
:101590006B017C018091610381116BC081E08093BC
:1015A0006103809340039FEF90933F0310923E03AB
:1015B0009C0F90933D0380933C0380913C03DD0F8F
:1015C000D82BD0933C0380913B03813009F078C045
:1015D00010923B030E94BD096B017C0180913C038A
:1015E0008093BB008091630390916403A091650395
:1015F000B0916603892B8A2B8B2BA1F00E94BD0929
:101600000091630310916403209165033091660398
:101610006C197D098E099F090617170728073907D6
:1016200008F448C08091BC0083FDD8CF85EC80933E
:10163000BC000E94BD096B017C0180916103813077
:1016400009F440C080913E038C1710F4C0913E0312
:10165000EBE1F3E0A1E4B3E080E08C1355C08C2F04
:10166000DF91CF911F910F91FF90EF90DF90CF907E
:1016700008958091630390916403A0916503B091F4
:101680006603892B8A2B8B2B09F484CF0E94BD091A
:101690000091630310916403209165033091660308
:1016A0006C197D098E099F09061717072807390746
:1016B00008F070CF809162030E94980AC0E0CFCFFB
:1016C00085EEB5CF8091630390916403A09165038B
:1016D000B0916603892B8A2B8B2B09F4AECF0E9425
:1016E000BD0900916303109164032091650330915B
:1016F00066036C197D098E099F09061717072807CD
:10170000390708F09ACFD6CF91919D938F5FA5CFDF
:101710000895E091FC028091FB02E81730F4F0E0BC
:10172000EF5BFC4F808190E008958FEF9FEF08956D
:101730009091FC028091FB022FEF3FEF981748F445
:10174000E92FF0E0EF5BFC4F208130E09F5F90934A
:10175000FC02C9010895CF92DF92EF92FF920F939E
:101760001F93CF93DF937C01CB018A0120916A0301
:10177000222389F0EB016B01C40ED51ECC15DD05CB
:1017800069F06991D701ED91FC910190F081E02D14
:10179000C7010995F3CF642F0E94530AC801DF9156
:1017A000CF911F910F91FF90EF90DF90CF90089510
:1017B000CF93DF931F92CDB7DEB7698320916A0381
:1017C0002223F9F020916703203258F021E030E025
:1017D000FC013383228390E080E00F90DF91CF9172
:1017E000089580916803E82FF0E0E451FE4F99815D
:1017F00090838F5F809368038093670381E090E01C
:10180000ECCF61E0CE0101960E94530AF7CFCF9250
:10181000DF92EF92FF920F931F93CF93DF93D091BC
:10182000670381E0D13208F09CC0C09169030E9437
:10183000BD096B017C018091610381116CC082E064
:101840008093610381E0809340038FEF80933F0397
:1018500010923E03D0933D03ACEEB1E0EBE1F3E038
:1018600080E0D8138DC010923C0380913C03CC0FD4
:10187000C82BC0933C0380913B03813009F084C0A6
:1018800010923B030E94BD096B017C0180913C03D7
:101890008093BB008091630390916403A0916503E2
:1018A000B0916603892B8A2B8B2BA1F00E94BD0976
:1018B00000916303109164032091650330916603E6
:1018C0006C197D098E099F09061717072807390724
:1018D00008F442C08091BC0083FDD8CF85EC809392
:1018E000BC000E94BD096B017C01809161038230C4
:1018F00009F44CC080913F038F3F09F469C0809187
:101900003F03803209F466C080913F03803309F4BD
:1019100063C084E026C08091630390916403A0912A
:101920006503B0916603892B8A2B8B2B09F483CF37
:101930000E94BD0900916303109164032091650327
:10194000309166036C197D098E099F0906171707E8
:101950002807390708F06FCF809162030E94980A28
:1019600085E0109268031092670310926A03DF917A
:10197000CF911F910F91FF90EF90DF90CF9008953E
:101980009D9191938F5F6DCF85EEA9CF8091630379
:1019900090916403A0916503B0916603892B8A2B13
:1019A0008B2B09F4A2CF0E94BD0900916303109113
:1019B000640320916503309166036C197D098E09DB
:1019C0009F09061717072807390708F08ECFC4CFDD
:1019D00080E0C7CF82E0C5CF83E0C3CF1F93CF9312
:1019E000DF93162FEA010E945F07612F88E094E0E1
:1019F0000E94D80B698188E094E00E94D80B68812E
:101A000088E094E00E94D80B88E094E00E94070CE4
:101A100091E0811190E0892FDF91CF911F9108957E
:101A200090E080E00895FF920F931F93CF93DF9390
:101A3000C62F042FF22E132F0E945F076C2F88E011
:101A400094E00E94D80BCF2DD12F0C0F1D2F111D0C
:101A5000C017D10731F0699188E094E00E94D80B5B
:101A6000F7CF88E094E00E94070C91E0811190E0AC
:101A7000892FDF91CF911F910F91FF900895CF9300
:101A8000DF9300D0CDB7DEB75A834983AE014F5FF5
:101A90005F4F0E94EE0C0F900F90DF91CF91089551
:101AA000CF93DF931F92CDB7DEB749839E012F5F9F
:101AB0003F4F41E00E94130D0F90DF91CF910895A9
:101AC0000F931F93CF93DF93EC01062F142F888180
:101AD0000E945F0789819A81DC01ED91FC91019060
:101AE000F081E02D602F099589819A81DC01ED91CB
:101AF000FC910190F081E02D612F099589819A81F7
:101B0000DF91CF911F910F910C94070CDC01ED91A7
:101B1000FC910190F081E02D0994FC0187E094E1B3
:101B2000161634F484E098E0613011F484E090E11A
:101B30009083062E000C770B77FF03C0719561959B
:101B40007109969FA001979F500D1124840F952F26
:101B5000911D0895DC01ED91FC910190F081E02D43
:101B60000994FF920F931F93CF93DF93EC01162FED
:101B7000F42E052F88810E945F0784E0189FB00132
:101B800011246A5F7F4F89819A810E94AA0D70E0BB
:101B900060E089819A810E94860D70E060E0898111
:101BA0009A810E94860D6F2D702F89819A810E94E3
:101BB000860D602F70E089819A810E94860D89814F
:101BC0009A81DF91CF911F910F91FF900C94070C98
:101BD000CF93C0E040E050E16C2F87EE94E00E948C
:101BE000B10DCF5FC031B1F7CF9108952F923F92E1
:101BF0004F925F926F927F928F929F92AF92BF921D
:101C0000CF92DF92EF92FF920F931F93CF93DF93C8
:101C100000D000D000D01F92CDB7DEB78C832D83CB
:101C2000262F30E0A8EEB3E00E9456374B015C014E
:101C30001982842F90E09B838A8399812C8192174B
:101C400009F447C08A819B819F838E8310E000E066
:101C50009D812E812917C8F58E819F81C297873675
:101C60009A4358F5CA80DB80C00ED11E1601220CA3
:101C7000331C220C331C85E0281A3108CC0CDD1CE7
:101C8000F12CE12C412C512C3201481459046A04E6
:101C90007B049CF461E085E00E942009C10101976A
:101CA000F1F760E085E00E942009C1010197F1F79A
:101CB0004C0C5D1C6E1C7F1CE8CF0F5F1F4F8E818C
:101CC0009F8101969F838E83C3CF99819F5F998364
:101CD000B4CF27960FB6F894DEBF0FBECDBFDF910D
:101CE000CF911F910F91FF90EF90DF90CF90BF9019
:101CF000AF909F908F907F906F905F904F903F90AC
:101D00002F9008959F92AF92BF92CF92DF92EF9261
:101D1000FF920F931F93CF93DF93EC0184E50E9412
:101D20005F076D2F70E088E094E00E94AA0DBE016D
:101D3000772788E094E00E94AA0D88E094E00E9452
:101D4000070C61E084E50E94B90A1092FC028093BE
:101D5000FB0288E094E00E94980BC0903305D0907D
:101D60003405F601808380930A03682F8FE093E0A7
:101D70000E948D0DEC01F12CE12C1C161D064CF57A
:101D80006C2FCF31D1050CF06EE184E50E94B90AC9
:101D9000982E1092FC028093FB025E01FEE1AF1AC6
:101DA000B1088E018091FC02981659F088E094E009
:101DB0000E94980B9FEFE91AF90AF601EE0DFF1D3C
:101DC00080830150110929F0E5010A151B0551F71F
:101DD000D4CFDF91CF911F910F91FF90EF90DF90C3
:101DE000CF90BF90AF909F9008952F923F924F92C7
:101DF0005F926F927F928F929F92AF92BF92CF929B
:101E0000DF92EF92FF920F931F93CF93DF9300D057
:101E100000D0CDB7DEB7782E662E4C833A83298367
:101E20000E94150A6B017C01512C1B822C81222EF1
:101E3000312C4801B12CA12C8C81581608F049C0D6
:101E4000872D0E945F07662D88E094E00E94D80BE2
:101E500088E094E00E94070C872D0E945F07B10183
:101E6000651971096132710514F060E270E0613248
:101E700008F060E2872D0E94B90A482E1092FC02F9
:101E80008093FB028091FC024816E9F001151105D0
:101E900079F488E094E00E94980BE981FA819B81B3
:101EA000E90FF11D97FDFA9580839F5F9B83EACF31
:101EB0000E94150A6C197D098E099F09681579051C
:101EC0008A059B0530F38C81813208F080E2580E40
:101ED000B3CF01151105C1F00E94150A6C197D09D7
:101EE0008E099F0930E020E0601771078207930791
:101EF00058F02B81822F220F990B2C81281719065D
:101F000019F014F08FEF8B838B810F900F900F904F
:101F10000F90DF91CF911F910F91FF90EF90DF9085
:101F2000CF90BF90AF909F908F907F906F905F9079
:101F30004F903F902F9008950F931F93CF93DF936F
:101F4000CAE1D5E008EE13E02BE135E042E062E7BC
:101F500088810E94F50E89819A8198278927982780
:101F6000DF91CF911F910F910895CF92DF92EF9261
:101F7000FF920F931F93CF93DF931F92CDB7DEB7DE
:101F8000F82EE62EC42ED22E08EE13E09E012F5F0F
:101F90003F4F41E00E94F50E81E090E001C0880FC4
:101FA000CA94EAF74981DD2081F0482B49836E2DE0
:101FB0008F2D0E94500D0F90DF91CF911F910F91A7
:101FC000FF90EF90DF90CF90089580954823EECF5B
:101FD0000F931F93CF93DF931F92CDB7DEB708EE19
:101FE00013E09E012F5F3F4F41E065E780911A05A6
:101FF0000E94F50E882339F089818E7790E09595BF
:10200000879580931B0580911B050F90DF91CF91E1
:102010001F910F910895BF92CF92DF92EF92FF929E
:102020000F931F93CF93DF931F92CDB7DEB7F82E98
:10203000E62EC42EB22ED02E08EE13E09E012F5FA6
:102040003F4F41E00E94F50E882371F18C2D8B19D2
:10205000990BAC014F5F5F4F81E090E002C0880FA9
:10206000991FBA94E2F70197042E01C0880F0A94D1
:10207000EAF70D2D01C0000F4A95EAF7482F409569
:10208000998149238023482B49836E2D8F2D0E94EF
:10209000500D0F90DF91CF911F910F91FF90EF9016
:1020A000DF90CF90BF90089580E0F3CF1F93CF9340
:1020B000DF93EC01162F88810E945F0789819A8146
:1020C000DC01ED91FC910190F081E02D612F0995EB
:1020D00089819A810E94070C61E088810E94B90A77
:1020E0001092FC028093FB0289819A81DC01ED91C0
:1020F000FC910284F385E02D0995DF91CF911F912A
:1021000008958F929F92AF92BF92CF92DF92EF92FB
:10211000FF92CF93C82F90E080E00E9496356B012C
:102120007C016EEF87EE94E00E945610682F70E0FD
:102130006F5F7F4F90E080E00E94963520E034E2B0
:1021400044E759E40E94F7354B015C016091EA04D1
:102150007091EB048091EC049091ED040E9496350F
:102160009B01AC01C501B4010E9449389B01AC013F
:10217000C701B6010E9449380E94C238AB016C2FDA
:1021800087EE94E0CF91FF90EF90DF90CF90BF90DB
:10219000AF909F908F900C94B10D0F931F93CF939E
:1021A0008C01C0E0B8018C2F0E948110CF5FC0313C
:1021B000C9F7CF911F910F9108958F929F92AF927F
:1021C000BF92CF92DF92EF92FF921F93CF93DF9354
:1021D000EC016A017B0120E030E040E85FE3CB01E5
:1021E000B6010E94913587FD7EC020E030EC4AE5C3
:1021F00055E4C701B6010E94573918163CF4C12CAA
:1022000030ECD32E3AE5E32E35E4F32E6B817C815E
:102210008D819E810E9496354B015C0120E030E06B
:1022200040E855E4C701B6010E94F7359B01AC01B7
:10223000C501B4010E94493820E030E040E05FE38E
:102240000E94663720E030E040E85FE30E94653797
:102250006B017C0120E030E040E450E40E949135C5
:1022600087FD48C020E030E04FE753E4C701B601E6
:102270000E945739181634F4C12CD12C9FE7E92E4F
:1022800093E4F92E60E0CE010E945610182F482FDB
:102290004F76406160E0CE010E94600DC701B6013B
:1022A0000E94C238462F6EEFCE010E94600D412F72
:1022B00060E0CE010E94600D65E070E080E090E09B
:1022C0000E94E209412F406A60E0CE01DF91CF9188
:1022D0001F91FF90EF90DF90CF90BF90AF909F90B5
:1022E0008F900C94600DC12CD12C20E8E22E2FE3AE
:1022F000F22E8CCFC12CD12C80E4E82EFE2CC2CF44
:10230000FC0101900020E9F73197AF01481B590B00
:10231000BC018BE693E00C94CA0784E591E00C9431
:102320008011CF93DF930E94BC08EC010E948D11B5
:102330008C0F9D1FDF91CF910895CF93DF930E9463
:10234000B708EC010E948D118C0F9D1FDF91CF917A
:102350000895CF93DF93FC014481558160817181A1
:102360008BE693E00E94CA07EC010E948D118C0F4E
:102370009D1FDF91CF9108958F929F92AF92BF9250
:102380000F931F93CF93DF93CDB7DEB7A1970FB60F
:10239000F894DEBF0FBECDBF19A2423008F44AE068
:1023A0008E010F5D1F4F842E912CB12CA12CA50105
:1023B00094010E943437E62FB901CA01EA30F4F4DF
:1023C000E05DD801EE938D01232B242B252B79F78B
:1023D00090E080E0109719F0CD010E948011A19645
:1023E0000FB6F894DEBF0FBECDBFDF91CF911F9126
:1023F0000F91BF90AF909F908F900895E95CE1CFCF
:10240000CF92DF92EF92FF92C12CD12C76014AE05D
:10241000C701B6010E94BC1189E00E94B7088FEF86
:10242000C81AD80AE80AF80A80E1C816D104E104FB
:10243000F10469F7FF90EF90DF90CF900C948D112D
:102440004F925F926F927F928F929F92AF92BF92C4
:10245000CF92DF92EF92FF920F931F93CF936B0176
:102460007C01742EAC019B010E94063A882399F0EE
:1024700087E591E0CF911F910F91FF90EF90DF9052
:10248000CF90BF90AF909F908F907F906F905F9014
:102490004F900C94801146015701E894B7F82FEF44
:1024A0003FEF4FE75FE7C501B4010E94063A811193
:1024B0000DC02FEF3FEF4FE75FE7C501B4010E946A
:1024C000913518161CF48BE591E0D4CF2FEF3FEF38
:1024D0004FE75FE4C701B6010E94573918161CF494
:1024E0008FE591E0C7CF2FEF3FEF4FE75FECC701DC
:1024F000B6010E94913587FDF3CF20E030E0A901BD
:10250000C701B6010E94913510E000E087FF08C0C6
:102510008DE20E94B7088C01F7FAF094F7F8F09476
:10252000C0E060E070E080E09FE37C1641F020E0D6
:1025300030E040E251E40E944938CF5FF6CFA70176
:1025400096010E9466372B013C010E94C2384B0164
:102550005C014AE00E94BC117C01E00EF11ECC231C
:10256000B1F1C501B4010E9496359B01AC01C301D4
:10257000B2010E9465374B015C018EE20E94B708F0
:10258000E80EF91EC15018F120E030E040E251E4BD
:10259000C501B4010E94F7352B013C010E94C238ED
:1025A0004B01B12CA12C4AE0C501B4010E94BC1121
:1025B000E80EF91EC501B4010E9496359B01AC01DD
:1025C000C301B2010E9465374B015C01DBCFC7013B
:1025D000CF911F910F91FF90EF90DF90CF90BF9020
:1025E000AF909F908F907F906F905F904F900895E5
:1025F000CF93DF930E948011EC010E948D118C0F0C
:102600009D1FDF91CF910895FC0124813581232BFB
:1026100039F421E0FB018081882349F020E007C0E4
:10262000808191810E94443C21E0892BB9F7822F5F
:102630000895CF93DF93EC0188819981009711F081
:102640000E94CD33198218821D821C821B821A823D
:10265000DF91CF910895FC0180819181009711F065
:102660000C94CD3308950F931F93CF93DF938C0178
:10267000EB01FC01808191810097E1F06881798113
:1026800061157105A9F0428153812C813D8142176A
:10269000530770F00E944D3C8C819D81F801958319
:1026A00084831D821C82DF91CF911F910F91089529
:1026B0000E94CD3388819981F801918380838A813A
:1026C0009B81938382838C819D81958384831982EE
:1026D00018821B821A82E5CF0C94B5366F927F92D6
:1026E0008F929F92AF92BF92CF92DF92EF92FF9222
:1026F0000F931F93CF93DF936C01712CD0E0C0E058
:1027000083E191E00E946C13082E000C990B78165F
:1027100019060CF06DC04E018FEF881A980ACE0191
:10272000805C9E4F0E946C13682EE82EF12CC7012E
:1027300001960E9431338C015C01CF5BDE4FC81BD8
:10274000D90B8A2D801B861548F4CE018A0D9B1D5E
:102750000E946C13F50181935F01F3CFE401CE0D6C
:10276000DF1D5801AE0CBF1CF5011082B601C80177
:102770000E94443C892B09F501151105A9F5CE01EC
:102780008F5B9E4F0E946C1380930A03682F8FE02B
:1027900093E00E948D0DCE01805C9E4FDF91CF9122
:1027A0001F910F91FF90EF90DF90CF90BF90AF906F
:1027B0009F908F907F906F900895F5013197808161
:1027C0008C3449F4A70141505109B601C8010E9457
:1027D000543C892B89F20115110519F0C8010E949A
:1027E000CD33249673948CCFC8010E94CD33C7CFCC
:1027F00083E69EE00E9491118FEF9FEFCFCF1F9352
:10280000CF93DF93EC010E946C13182FCE01019639
:102810000E946C1390E0982F8827810F911DDF9103
:10282000CF911F910895CF92DF92EF92FF920F9375
:102830001F93CF93DF936A017B01082F10E0C8013B
:10284000805B9F4F880F991F0E94FF13BC01990F57
:10285000880B990B0E94983520E030E04AE754E459
:102860000E944938A70196010E94F7356B017C014F
:1028700082E191E00E946C139AE0899FB0011124DB
:10288000072E000C880B990B0E949835A701960122
:102890000E9466376B017C0120E030E04AEF53E490
:1028A0000E945739C4EFD1E018168CF420E030E4D0
:1028B0004CE155E4C701B6010E949135C4ECD9E062
:1028C00087FF05C0C701B6010E94BB38EB01C801F4
:1028D0000E946C13AE01682F87EE94E0DF91CF91D8
:1028E0001F910F91FF90EF90DF90CF900C94B10D5E
:1028F00090E0C096880F991F860F911D880F991F31
:102900000C94FF137F928F929F92AF92BF92CF92BF
:10291000DF92EF92FF920F931F93CF93DF93B82E26
:102920006A01D62FC72F60E00E947814BC01990F6E
:10293000880B990B0E9498357B018C0161E08B2DEF
:102940000E947814BC01990F880B990B0E9498354E
:10295000762E872E982EA92E96014D2F5C2F0E9441
:10296000913587FF71C0772D682D992D8A2D272FDE
:10297000362F492F582FB701C8010E945739181612
:1029800094F096014D2F5C2F672D782D892D9A2D6F
:102990000E94913576010D2F1C2F87FF04C0E72C74
:1029A000F82C092D1A2DCB2DD0E06E0180E3C80E36
:1029B000D11CCC0FDD1FCA5FDE4FB701C8010E94DA
:1029C000BB3879836883C601880F991F0E94FF1363
:1029D000EC01C6010E946C13682F880F770B880BDF
:1029E000990B0E9498359701A8010E94F7356B0159
:1029F0007C01BE01DD0F880B990B0E9498359B016D
:102A0000AC01C701B6010E9466370E94BB38072E91
:102A1000000C880B990B0E94983520E030E0A9014A
:102A20000E946637AB01BC018B2DDF91CF911F91C6
:102A30000F91FF90EF90DF90CF90BF90AF909F905D
:102A40008F907F900C9413147C2D6D2DCE018FCF21
:102A50002F923F924F925F926F927F928F929F92AE
:102A6000AF92BF92CF92DF92EF92FF920F931F939C
:102A7000CF93DF93CDB7DEB72E970FB6F894DEBFB6
:102A80000FBECDBF5C016A017B0120E030E0A901EF
:102A9000CB01B6010E9491359501205E3F4F39016F
:102AA0001816A4F183E691E00E94F81283013FE03A
:102AB0003983D8017E916E918D01072E000C880B11
:102AC000990B0E949835AB01BC0189810E94821448
:102AD000B981B150B983BF3F61F72E960FB6F89414
:102AE000DEBF0FBECDBFDF91CF911F910F91FF9041
:102AF000EF90DF90CF90BF90AF909F908F907F909E
:102B00006F905F904F903F902F90089580E290E0FB
:102B10000E9431338C0186E0882E81E0982E980146
:102B2000F50170E060E0D4018D919D914D014191DE
:102B30005191841B950BD9018D939D939D0197FF16
:102B400003C0919581959109681779070CF4BC0130
:102B5000E615F70541F7072E000C880B990B0E942C
:102B60009835A70196010E9449386B017C0120E04D
:102B700030E0A9010E94573920E030E040E05FE3F7
:102B800087FD91C0C701B6010E9466370E94BB381D
:102B90007E876D87D12CC12C8D859E85092E000CDA
:102BA000AA0BBB0B89879A87AB87BC87AD85BE858F
:102BB000AC15BD050CF47CC048011501F12CC60113
:102BC0000D2C000CAA0BBB0B8D839E83AF83B887A3
:102BD000D1016D917D911D01072E000C880B990B81
:102BE0000E9498352B013C01ED85FE8520E030E008
:102BF000A901EF2B09F443C06D817E818F819885F7
:102C00000E9498352BED3FE049E450E40E94F735EF
:102C100069837A838B839C8369857A858B859C8580
:102C20000E9498359B01AC0169817A818B819C81DE
:102C30000E9449380E94443820E030E040E85FE3D9
:102C40000E94663720E030E040E05FE30E94F73505
:102C500069837A838B839C83D4016D917C91072E49
:102C6000000C880B990B0E9498359B01AC0169817F
:102C70007A818B819C810E94F7359B01AC01C30155
:102C8000B2010E946637AB01BC018F2D0E948214F5
:102C9000F394B2E08B0E911CE0E1FE1299CFFFEFAE
:102CA000CF1ADF0A83CFC701B6010E9465376ECF06
:102CB0000115110509F411CFC8012E960FB6F8942D
:102CC000DEBF0FBECDBFDF91CF911F910F91FF905F
:102CD000EF90DF90CF90BF90AF909F908F907F90BC
:102CE0006F905F904F903F902F900C94CD332F9228
:102CF0003F924F925F926F927F928F929F92AF928C
:102D0000BF92CF92DF92EF92FF920F931F93CF93D8
:102D1000DF93CDB7DEB72F970FB6F894DEBF0FBEA7
:102D2000CDBF4C016D8369017A01202F30E03A83D9
:102D3000298320E030E0A901C701B6010E94913546
:102D400018160CF183E691E00E94F8121FE0812F23
:102D5000012E000C990BA981BA818A179B070CF4EC
:102D60001EC1880D991DFC016081062E000C770B99
:102D7000880B990B0E949835AB01BC01812F0E94F2
:102D800082141150E4CF80E190E029813A81821BC6
:102D9000930B811530E4930780F5880F991F0097F6
:102DA00079F10E9431335C01E981FA81EE0FFF1F56
:102DB000CF018A5F9E4F3C012501D401402F70E076
:102DC00060E0403100F5F301819191913F012D9137
:102DD0005D81250390011124821B930BF2018193E5
:102DE00091932F0197FF03C09195819591096817E1
:102DF00079070CF4BC014F5FE4CF8FEF9FEFD1CF89
:102E000081E090E0CECF072E000C880B990B0E943A
:102E10009835A70196010E9449386B017C0120E09A
:102E200030E0A9010E94573920E030E040E05FE344
:102E300087FD8BC0C701B6010E9466370E94BB3870
:102E40001B011F861E86CB01770FAA0BBB0B8A873F
:102E50009B87AC87BD87AE85BF852A163B060CF4E1
:102E600080C0BA82A9829C828B82102FCD01092E4C
:102E7000000CAA0BBB0B8E839F83A887B9871031E8
:102E800008F068C0AB81BC816D91BC83AB832D81A0
:102E90006203B0011124072E000C880B990B0E94CD
:102EA00098356B017C0120E030E0A9012114310448
:102EB000E1F16E817F81888599850E9498352BED9F
:102EC0003FE049E450E40E94F7352B013C016A855C
:102ED0007B858C859D850E9498359B01AC01C30143
:102EE000B2010E9449380E94443820E030E040E8B6
:102EF0005FE30E94663720E030E040E05FE30E943D
:102F0000F7352B013C01A981BA816D917C91072E87
:102F1000000C880B990B0E9498359B01AC01C301F2
:102F2000B2010E94F7359B01AC01C701B6010E94B6
:102F30006637AB01BC01812F0E9482141F5FE981BB
:102F4000FA813296FA83E9839ACFC701B6010E94CB
:102F5000653774CF2E853F852F5F3F4F3F872E8784
:102F60007ACFA114B104D9F0C5012F960FB6F89409
:102F7000DEBF0FBECDBFDF91CF911F910F91FF90AC
:102F8000EF90DF90CF90BF90AF909F908F907F9009
:102F90006F905F904F903F902F900C94CD332F9671
:102FA0000FB6F894DEBF0FBECDBFDF91CF911F915A
:102FB0000F91FF90EF90DF90CF90BF90AF909F90D8
:102FC0008F907F906F905F904F903F902F900895DB
:102FD0000F930E9469071092FE021092FD02E6E034
:102FE000F3E0258136814781508502896685838992
:102FF00094890E9477160F910895CF92DF92EF92F5
:10300000FF920F931F93CF93DF938C01FC010190EC
:103010000020E9F7329780818C3409F4F2C08235C0
:1030200009F0F1C087EE80930903C8010E946E1376
:10303000EC01CF3FDC0709F430C1CE010E946C13D4
:10304000F82ECE0102960E94FF13EC01E9E4FE1275
:10305000DCC00E94820E0E9469076DE671E0C80123
:103060000E94443C892B09F4EAC080910A03813014
:1030700009F0E5C00E94A23424E630E040E050E0D0
:103080000E94CB360E94983520E030E040E251E4C7
:103090000E94493820E030E040EA50E40E94653761
:1030A0006093F7027093F8028093F9029093FA020A
:1030B000C090F702D090F802E090F902F090FA0286
:1030C000D0E0C0E00091190310911A030C0F1D1FEE
:1030D000F8016081062E000C770B880B990B0E947B
:1030E0009835A70196010E9466370E94BB38F80107
:1030F00060832196C031D10529F780910A0382307F
:103100000CF4A6C08091090387FFB1C08091100321
:10311000909111039195819591099093110380935A
:10312000100390E080E040910A03242F042E000C4D
:10313000330B37FF03C0319521953109821793076F
:103140000CF095C042301CF540910F03489F900150
:10315000499F300D1124E0911903F0911A03E20FF9
:10316000F31F20812195208320910F03289FF001D8
:10317000299FF00D11249F012E5F3F4FE09119030D
:10318000F0911A03E20FF31F2081219520832091F3
:103190000A0360E022300CF462E0E62FF0E02091B8
:1031A0000A0322300CF482C024E030E0409119037D
:1031B00050911A03E217F3070CF07BC09F01220F16
:1031C000331F70910F03789FF001799FF00D112448
:1031D000E20FF31FE40FF51F40815181508350919E
:1031E0000F03589FD001599FB00D1124E09119038E
:1031F000F0911A03E20FF31FEA0FFB1F41836F5F89
:10320000CCCF89E110CF80E00ECF60910A038FE030
:1032100093E00E948D0D2091330530913405D90142
:10322000C21BD30BFE01EA0FFB1FAD01421B530B68
:10323000481759070CF00FCFE491ED93F3CF10929C
:10324000F7021092F8021092F9021092FA0230CFAF
:103250000E94A23424E630E040E050E00E94CB36E9
:1032600060FF05C08091F602833609F04FCF1092BF
:10327000FE021092FD0220910B0330910C0340914D
:103280000D0350910E030091180360911403809177
:10329000190390911A030E947716DF91CF911F9125
:1032A0000F91FF90EF90DF90CF90089528E030E0ED
:1032B0007DCF019638CF0F931F93CF93DF93EC010F
:1032C0008B010E94B536081721F0602FCE010E94B5
:1032D000BD362196CE010E94B536181721F0612F18
:1032E000CE010E94BD366AE070E080E090E0DF91A0
:1032F000CF911F910F910C94E2090F931F93CF93DD
:10330000DF93EC0188819981009759F02A813B81F4
:103310002617370730F081E0DF91CF911F910F9191
:1033200008958B016F5F7F4F0E94693B009759F0B2
:10333000998388831B830A832C813D81232B59F732
:10334000FC011082E8CF80E0E7CFEF92FF920F936D
:103350001F93CF93DF936115710541F480E0DF91F6
:10336000CF911F910F91FF90EF9008954115510556
:10337000B1F07B01EC010C811D81040F151FB80118
:103380000E947D19882351F3288139818C819D8188
:10339000B701820F931F0E944D3C1D830C8381E077
:1033A000DECFEF92FF920F931F93CF93DF93EC0149
:1033B0007B018A01BA010E947D1981110BC0CE01E7
:1033C0000E941913CE01DF91CF911F910F91FF90B1
:1033D000EF9008951D830C83B701888199810E9425
:1033E0004D3CF0CFFB01DC0111961C921E9213960E
:1033F0001C921E92129715961C921E921497861775
:10340000970759F0608171816115710521F0448140
:1034100055810C94D1190C9419130895FB01019056
:103420000020E9F73197AF01461B570B0C94D119D7
:103430000F931F93CF93DF93CDB7DEB762970FB68D
:10344000F894DEBF0FBECDBF8C01CB01F801118215
:10345000108213821282158214824AE0BE016F5FCD
:103460007F4F0E945435BE016F5F7F4FC8010E949D
:103470000E1A62960FB6F894DEBF0FBECDBFDF9175
:10348000CF911F910F910895FC0111821082138238
:10349000128215821482FB0101900020E9F7319716
:1034A000AF01461B570B0C94D119EF92FF920F936B
:1034B0001F93CF93DF9300D0CDB7DEB78C01E62EFC
:1034C0006CE971E00E94441A0E94210A0E2C000C43
:1034D000FF0897FD10C08E159F0569F089831A8239
:1034E00041E050E0BE016F5F7F4FC8010E94A51907
:1034F0000E94210AEECFC8010F900F90DF91CF916B
:103500001F910F91FF90EF900895EF92FF920F930C
:103510001F93CF93DF93EC018B01198218821B82DA
:103520001A821D821C82CB010E941F357C01BC01C6
:10353000CE010E947D19811109C0CE01DF91CF918A
:103540001F910F91FF90EF900C941913FD82EC8264
:10355000B80188819981DF91CF911F910F91FF90E0
:10356000EF900C94183585ED8093BC008091630337
:1035700090916403A0916503B09166030796A11D25
:10358000B11D23E0B695A795979587952A95D1F714
:103590002091BC0024FD03C0109261030895409166
:1035A0006303509164036091650370916603452B3A
:1035B000462B472B69F30097A105B10541F02AE29C
:1035C0002A95F1F700C00197A109B109E1CF8091D7
:1035D00062030C94980A4F925F926F927F928F923F
:1035E0009F92AF92BF92CF92DF92EF92FF920F9392
:1035F0001F93CF93DF93CDB7DEB7E8970FB6F8945C
:10360000DEBF0FBECDBF80902B0590902C050E9491
:10361000BD092B013C015401BB240E949C0F6C018D
:10362000A816B9060CF057C0893C910584F121E039
:1036300042E06AE680911A050E94B50F0E949C0F35
:103640006C01892B09F04BC00E94BD0964197509F2
:1036500086099709693F7A428105910578F380E0F0
:10366000E8960FB6F894DEBF0FBECDBFDF91CF91C5
:103670001F910F91FF90EF90DF90CF90BF90AF9090
:103680009F908F907F906F905F904F9008950E94D1
:103690009C0F6C01A816B906F4F47C01EA18FB082B
:1036A000670181E2E816F1041CF080E2C82ED12CFB
:1036B000CC2079F008EE13E09E012F5F3F4F4C2D98
:1036C00064E780911A050E94F50EEC18FD0841F799
:1036D000DECF1982FACFC114D10409F4C0CF0E9401
:1036E000BD096419750986099709693F7A42810500
:1036F000910508F0B4CFAC14BD0409F08ECF88203A
:1037000009F4FAC108EE13E02CEA31E0482D64E731
:1037100080911A050E94F50E6090B0017090B10181
:103720007624672476248090B4019090B501982483
:1037300089249824A090B801B090B901BA24AB2490
:10374000BA246091AC017091AD0176276727762786
:10375000072E000C880B990B0E94983520E030E072
:1037600040E858E30E94F7356B017C01C0920A05DE
:10377000D0920B05E0920C05F0920D05B301770C89
:10378000880B990B0E94983520E030E040E858E320
:103790000E94F7352B013C0140920E0550920F0517
:1037A0006092100570921105B401990C880B990B69
:1037B0000E94983520E030E040E858E30E94F73559
:1037C00069A37AA38BA39CA360931205709313053E
:1037D0008093140590931505B501BB0C880B990BCC
:1037E0000E94983520E030E040E858E30E94F73529
:1037F0006DA37EA38FA398A76093160570931705FA
:1038000080931805909319059B01AC01C301B20187
:103810000E94F7354B015C0129A13AA14BA15CA1A3
:10382000C701B6010E94F7359B01AC01C501B40187
:103830000E9465379B01AC010E9466376DA77EA789
:103840008FA798AB6093FE047093FF0480930005EC
:1038500090930105A3019201C701B6010E94F735BB
:103860004B015C012DA13EA14FA158A569A17AA1F0
:103870008BA19CA10E94F7359B01AC01C501B4014D
:103880000E9466379B01AC010E94663769A77AA740
:103890008BA79CA760930205709303058093040592
:1038A00090930505A7019601C701B6010E94F7355F
:1038B0004B015C01A3019201C301B2010E94F735E3
:1038C0009B01AC01C501B4010E9465374B015C014D
:1038D00029A13AA14BA15CA1CA01B9010E94F73507
:1038E0009B01AC01C501B4010E9465374B015C012D
:1038F0002DA13EA14FA158A5CA01B9010E94F735DB
:103900009B01AC01C501B4010E9466374B015C010B
:103910008092060590920705A0920805B0920905CD
:10392000A7019601C701B6010E94663769AB7AAB61
:103930008BAB9CABA3019201C301B2010E9466371D
:103940006DAB7EAB8FAB98AFA701960169A97AA941
:103950008BA99CA90E94F7356B017C01A301920100
:103960006DA97EA98FA998AD0E94F7359B01AC0186
:10397000C701B6010E94663720E030E040E85FE30F
:103980000E9465376B017C0129A13AA14BA15CA182
:103990006DA97EA98FA998AD0E94F7352B013C0136
:1039A0002DA13EA14FA158A569A97AA98BA99CA9CF
:1039B0000E94F7359B01AC01C301B2010E9465373B
:1039C000A70196010E94E5376093940270939502D7
:1039D000809396029093970229A53AA54BA55CA5E2
:1039E000CA01B9010E94F7356B017C01A501940160
:1039F000C501B4010E94F7359B01AC01C701B601B6
:103A00000E9466370E94C2399B01AC016DA57EA55C
:103A10008FA598A90E94E5376B017C01C09298029E
:103A2000D0929902E0929A02F0929B02A501940131
:103A300069A57AA58BA59CA50E94E53760939C0299
:103A400070939D0280939E0290939F0220E030E04D
:103A5000A901C501B4010E94913587FF1AC020E079
:103A600030E0A901C701B6010E945739A7019601AC
:103A700018160CF044C06BED7FE089E490E40E94DE
:103A80006537609398027093990280939A0290939D
:103A90009B0204E912E0F801619171918191919189
:103AA0008F017F01F4E0EF1AF10820EE3EE245E6D7
:103AB00052E40E94F735D7016D937D938D939C93CB
:103AC0001397B2E0003A1B0731F760919C027091A6
:103AD0009D0280919E0290919F029F7711E020E0CD
:103AE00030E044EB52E40E94573918160CF010E015
:103AF0001093E00281E0B4CD1092AC010DCE6BEDDD
:103B00007FE089E490ECBBCF2F923F924F925F927F
:103B10006F927F928F929F92AF92BF92CF92DF92DD
:103B2000EF92FF920F931F93CF93DF93CDB7DEB742
:103B300066970FB6F894DEBF0FBECDBF69877A8750
:103B40008B879C872D873E874F87588BC801EE8ACD
:103B500010E088248A94982C540168E4462E68EE7C
:103B6000562E66246394712C05E07DE6272E71E0C5
:103B7000372E9C01990F440B550B298B3A8B4B8B9D
:103B80005C8B6D857E858F8598890E94C2386D8398
:103B90007E838F83988720E030E0A90169857A854C
:103BA0008B859C850E949135882309F499C12985CC
:103BB0003A854B855C8563E67CE987E89FE30E9454
:103BC000643920E030ED42E854E40E94F7350E9469
:103BD000C2386B0180910001853009F06AC0E4EAC7
:103BE000F1E0F491FD8BF7FDD9C161E085E00E9421
:103BF0007A09FD89FF2321F02D89223009F024C1A3
:103C0000F12CE12C60E072E18AE790E0A7019601D7
:103C10000E94CB3629833A834B835C83DA01C90146
:103C20000197A109B1098F3F9105A105B10509F0DF
:103C30000CF4F0C060E472E48FE090E0A70196011C
:103C40000E94CB3621503109410951098D898230BA
:103C500009F0A2C082E02F3F31054105510509F06E
:103C60000CF48CC160E970ED83E090E0A70196014F
:103C70000E94CB36215031094109510983E02F3F81
:103C800031054105510509F00CF478C1C301B201B9
:103C9000A70196010E94CB362150310941095109F3
:103CA0002F3F31054105510511F00CF092C084E021
:103CB00065C18F3F09F072C100930001E4EAF1E0B1
:103CC000F491FD8BFF3F09F469C1F13029F158F0FF
:103CD000F23009F43FC03D8937FD60C161E085E005
:103CE0000E947A0989CF14BC15BC84B5826084BD5A
:103CF00085B5816085BDF1018491E82FF0E0EE0F7C
:103D0000FF1FE25AFE4F85919491E1E8F1E0849122
:103D10008093A3011D8A69CF1092800010928100C8
:103D20008091810088608093810080918100816012
:103D300080938100F1018491E82FF0E0EE0FFF1FE6
:103D4000E25AFE4F85919491E1E8F1E084918093ED
:103D5000A2014BCF1092B0001092B1008091B00040
:103D600082608093B0008091B10081608093B10047
:103D7000F1018491E82FF0E0EE0FFF1FE25AFE4FB1
:103D80008591949190935A0280935902E1E8F1E071
:103D9000849180935B0229CF2F3F31054105510566
:103DA00009F00CF44FC0C301B201A70196010E94B3
:103DB000CB3621503109410951099D89992309F4D4
:103DC000AFC02F3F31054105510511F00CF0B0C0D7
:103DD0006ECF64E274EF80E090E0A70196010E944C
:103DE000CB36215031094109510985E02F3F31057A
:103DF0004105510509F008F4C1C062E17AE780E0AD
:103E000090E0A70196010E94CB362150310941096B
:103E100051099DC09C0181E0FD89F111AFC095B5AC
:103E2000987F892B85BD27BD8092A8019092A9011A
:103E3000A092AA01B092AB0180916E008260809343
:103E40006E00ACC082E0E8CFF12CE12C60E072E1C2
:103E50008AE790E0A70196010E94CB3621503109F4
:103E60004109510991E02115310581E048075105CB
:103E70005CF0C301B201A70196010E94CB3621502C
:103E800031094109510993E0ED89E13009F07CC025
:103E900080918100887F892B8093810030938900F5
:103EA000209388008092A4019092A501A092A6017F
:103EB000B092A70180916F00826080936F006EC006
:103EC0002093B30080925C0290925D02A0925E0209
:103ED000B0925F02809170008260809370005EC03B
:103EE0006D817E818F8198850E94E20957C084E0B0
:103EF0002F3F31054105510509F008F490CF298184
:103F00003A814B815C818AE0559547953795279595
:103F10008A95D1F7215031094109510985E07FCFB8
:103F200083E02F3F31054105510509F00CF477CFAF
:103F300062E17AE780E090E0A70196010E94CB362B
:103F40002150310941095109ED89EE2381F286E0C2
:103F50002F3F31054105510589F080F029813A81D3
:103F60004B815C819AE055954795379527959A95B1
:103F7000D1F7215031094109510987E09091B100F1
:103F8000987F892B8093B100FD89F13009F486CFA9
:103F9000F23009F495CFFF2309F445CF6D817E817E
:103FA0008F8198850E94E20985E00E944E09698907
:103FB0007A898B899C890E94E2091F5F2E892113CF
:103FC000E0CD66960FB6F894DEBF0FBECDBFDF9191
:103FD000CF911F910F91FF90EF90DF90CF90BF9006
:103FE000AF909F908F907F906F905F904F903F9099
:103FF0002F9008954F925F926F927F928F929F922F
:10400000AF92BF92CF92DF92EF920F931F93CF9315
:10401000DF93D82E192F0E946C138695CD2DD12FAA
:10402000B12CA12CC82ED12C88EE882E83E0982E9E
:104030002197AC14BD044CF5CE018C199D090E944A
:104040006C13782ECE010E946C13182F672D70E030
:10405000C4010E942C3B072E000C880B990B0E9478
:1040600098352B013C01612F70E090E080E00E94C8
:104070009635EE24E39410E000E0A30192010E9443
:10408000841D8FEFA81AB80AD3CFDF91CF911F916B
:104090000F91EF90DF90CF90BF90AF909F908F9057
:1040A0007F906F905F904F9008951F920F920FB680
:1040B0000F9211242F933F934F935F936F937F93AE
:1040C0008F939F93AF93BF93EF93FF9380915C0285
:1040D00090915D02A0915E02B0915F02892B8A2BC4
:1040E0008B2BD1F190915B02E0915902F0915A0231
:1040F00080818927808380915C0290915D02A091EC
:104100005E02B0915F02181619061A061B069CF48F
:1041100080915C0290915D02A0915E02B0915F027D
:104120000197A109B10980935C0290935D02A0936D
:104130005E02B0935F02FF91EF91BF91AF919F91AB
:104140008F917F916F915F914F913F912F910F9040
:104150000FBE0F901F901895809100010E944E098C
:10416000EACF1F920F920FB60F9211242F933F9315
:104170004F935F936F937F938F939F93AF93BF936F
:10418000EF93FF938BE693E00E944808FF91EF9135
:10419000BF91AF919F918F917F916F915F914F915F
:1041A0003F912F910F900FBE0F901F9018951F9267
:1041B0000F920FB60F9211242F938F939F93EF932B
:1041C000FF93E0917B03F0917C038081E091810378
:1041D000F091820382FD1BC09081809184038F5FE8
:1041E0008F7320918503821741F0E0918403F0E002
:1041F000E559FC4F958F80938403FF91EF919F9138
:104200008F912F910F900FBE0F901F901895808166
:10421000F4CF1F920F920FB60F9211242F933F935A
:104220008F939F93AF93BF938091510290915202CD
:10423000A0915302B09154023091500223E0230F19
:104240002D3758F50196A11DB11D20935002809382
:10425000510290935202A0935302B0935402809162
:10426000550290915602A0915702B09158020196C2
:10427000A11DB11D8093550290935602A093570241
:10428000B0935802BF91AF919F918F913F912F9121
:104290000F900FBE0F901F90189526E8230F0296DF
:1042A000A11DB11DD2CF1F920F920FB60F921124F4
:1042B0002F933F934F935F936F937F938F939F932E
:1042C000AF93BF93EF93FF938091B900887F8036BF
:1042D00009F44AC0F0F5883209F4A7C018F5803116
:1042E00009F49BC0B8F4882309F4F9C0883009F4B4
:1042F00094C0FF91EF91BF91AF919F918F917F916A
:104300006F915F914F913F912F910F900FBE0F9042
:104310001F901895883109F488C0803251F7809336
:104320003F0314C0803409F49DC040F48033B9F3D6
:104330008833F9F680933F0385ECB0C0803509F4EB
:1043400085C0883509F496C0883499F60E94B31A5E
:10435000D0CF883909F48CC038F5883729F050F46B
:10436000883611F0803729F683E08093610310923C
:104370004F0257C0883809F47BC0803919F0803863
:1043800009F0B7CF80914F02803208F071C0E09100
:104390004F0281E08E0F80934F028091BB00F0E0CE
:1043A000E15DFD4F80833DC0803B39F0E0F4803A11
:1043B00009F479C0883A09F09CCF84E080936103C6
:1043C00010922E0210922D02E0917302F09174026D
:1043D000099580912D0281110FC081E080932D02FB
:1043E00010920D0209C0803C09F4A6CF883C09F464
:1043F000A3CF883B09F07DCFE0912E0281E08E0FA4
:1044000080932E02F0E0E35FFD4F80818093BB003C
:1044100090912E0280912D0229C080913C038093BF
:10442000BB0085EC8093BC0064CF90913E038091EB
:104430003D03981758F5E0913E0381E08E0F80937D
:104440003E03F0E0E55EFC4F8081E9CFE0913E0362
:1044500081E08E0F80933E038091BB00F0E0E55E2B
:10446000FC4F808390913E0380913D039817C8F2E2
:1044700085E8D8CFE0913E0381E08E0F80933E0324
:104480008091BB00F0E0E55EFC4F808380914003AB
:1044900081115CCF81E080933B0384EA8093BC0070
:1044A0001092610326CF85EC8093BC0010926103CB
:1044B00080914F02803230F4E0914F02F0E0E15DF4
:1044C000FD4F108260914F0270E0E0917502F09113
:1044D00076028FE292E0099510924F020ACF109275
:1044E0003F0334CF1F920F920FB60F9211242F93D8
:1044F0003F934F935F936F937F938F939F93AF936C
:10450000BF93CF93DF93EF93FF932091150430E097
:10451000F901E057FE4F8491F901E458FE4FD49120
:10452000F901E859FE4FC491CC2379F081110E9422
:10453000F708EC2FF0E0EE0FFF1FE65BFE4FA591B2
:10454000B491EC91ED2381E009F480E020911A040C
:1045500030911B042F5F3F4F30931B0420931A04AC
:1045600020911804309119042536310518F094E093
:104570009093140490911404911130C0811169C07A
:1045800020911A0430911B042436310528F410922E
:104590001B0410921A045DC01092E60410921904D4
:1045A000109218042091180430911904A9014F5F4A
:1045B0005F4F509319044093180440911A0450918E
:1045C0001B04220F331FF901E45EFB4F518340832C
:1045D00010921B0410921A0491E021C090911404CF
:1045E000913001F58130A9F520911804309119041A
:1045F000A9014F5F5F4F50931904409318044091F5
:104600001A0450911B04220F331FF901E45EFB4F83
:104610005183408310921B0410921A0492E09093ED
:10462000140417C090911404923061F4882309F4A3
:10463000B9CF20911A0430911B042536310548F07A
:1046400093E0EDCF90911404933099F4882309F40A
:104650009ECF909117049923A9F0811126C08091D3
:104660001604882371F08091160461E00E942009ED
:1046700009C090911404943061F791E09093E6049E
:10468000DFCF2D9AFF91EF91DF91CF91BF91AF9145
:104690009F918F917F916F915F914F913F912F915A
:1046A0000F900FBE0F901F901895809116048823CD
:1046B00021F08091160460E0D9CF2D98E3CFCF93FD
:1046C000DF93EBE6F3E01382128288EE93E0A0E042
:1046D000B0E084839583A683B78324E331E03183FC
:1046E000208325EC30E03587248724EC30E03787C1
:1046F000268720EC30E0318B208B21EC30E0338BAF
:10470000228B22EC30E0358B248B26EC30E0378B8B
:10471000268B118E128E138E148EC8E0D4E01B826D
:104720001A828C839D83AE83BF8386E491E0998354
:1047300088838AE090E00E9431339093380580931B
:10474000370582E090E00E943133909336058093E4
:10475000350582EC91E00E943133909334058093CB
:104760003305E4E1F4E084E08183138263E771E0E0
:104770008DE295E00E94441A88E680931A05EAE0EB
:10478000F5E080E090E0A0E8BFE380839183A2831E
:10479000B3831482158216821782108611861286C0
:1047A00013861486158616861786EEEFF4E01082BF
:1047B0001182128213821482158216821782108649
:1047C000118612861386EDEEF4E081E1DF011D9281
:1047D0008A95E9F7E7EEF4E080E48083D283C18331
:1047E000DF91CF910895CF93DF93CDB7DEB7EE97EA
:1047F0000FB6F894DEBF0FBECDBF789484B582604B
:1048000084BD84B5816084BD85B5826085BD85B574
:10481000816085BD80916E00816080936E001092F2
:10482000810080918100826080938100809181006D
:1048300081608093810080918000816080938000FE
:104840008091B10084608093B1008091B00081605C
:104850008093B00080917A00846080937A00809188
:104860007A00826080937A0080917A0081608093E0
:104870007A0080917A00806880937A001092C1005B
:10488000E0917B03F0917C0382E08083E0917703E9
:10489000F09178031082E0917903F0917A0380E13E
:1048A000808310928303E0917F03F091800386E080
:1048B0008083E0917D03F0917E038081806180831D
:1048C000E0917D03F0917E03808188608083E09198
:1048D0007D03F0917E03808180688083E0917D0379
:1048E000F0917E0380818F7D808385E090E0A0E061
:1048F000B0E080936F0390937003A0937103B09323
:1049000072031092FC021092FB0210926803109244
:1049100067030E947A0A87EC97E090937402809371
:10492000730288EC97E0909376028093750288E199
:104930008093B8008BE60E949D1164E670E080E0F1
:1049400090E00E94E2098DEA9DE00E94911101E051
:1049500023E042E06BE680911A050E940B1000E014
:1049600022E044E06BE180911A050E940B1022E0E6
:1049700044E06CE180911A050E940B1020E046E0B3
:104980006BE680911A050E94B50F0E94E80F8433F0
:1049900011F08C3091F611E019A321E047E06BE6AD
:1049A00080911A050E94B50F64E670E080E090E007
:1049B0000E94E20987E089A307E023E042E06AE67B
:1049C00080911A050E940B1064E670E080E090E090
:1049D0000E94E20919A39E012F5D3F4F41E06BE663
:1049E00080911A050E94130D19A29E012F5D3F4F61
:1049F00041E068E380911A050E94130D19A29E01FF
:104A00002F5D3F4F41E063E280911A050E94130D34
:104A100019A29E012F5D3F4F41E06CE180911A0584
:104A20000E94130D80E889A39E012F5D3F4F41E056
:104A300067E380911A050E94130D19A39E012F5D53
:104A40003F4F41E06BE680911A050E94130D84E010
:104A500089A39E012F5D3F4F41E069E180911A05D6
:104A60000E94130D19A39E012F5D3F4F41E06AE1A3
:104A700080911A050E94130D40E06DE680911A05A1
:104A80000E94500D40E06EE680911A050E94500D84
:104A900080E190E00E9431335C0180E190E00E946F
:104AA00031332C01312CE12CD12CC12C86EF282E56
:104AB000612C77247394C6014096F22CFC18873F32
:104AC0009B4010F400E1F02EC3018E199109F816F5
:104AD000190619F014F0FE2CF194D20190E080E058
:104AE00096012B553E4F8F1538F4F901E80FF91F49
:104AF000E491ED930196F7CF92014F2D6FE68091EF
:104B00001A050E94130D8F2C912CA114B10409F4E5
:104B100037C1432D4F716DE680911A050E94500DEB
:104B20004E2D6EE680911A050E94500D08EE13E09E
:104B300095014F2D6FE680911A050E94F50EA40194
:104B4000B501C2010E942E3C892B09F419C1C5018F
:104B50000E94CD33C2010E94CD33FF24F394F09222
:104B6000720210E6C12E12E0D12E00E011E0C80161
:104B70000E94FF13D6018D939D936D010E5F1F4F11
:104B80000C30B1E01B0799F70091600210916102AF
:104B90000E94E80F66E0883308F067E7A80180917B
:104BA0001A050E943F0D00916202109163020E945B
:104BB000E80F68E0883308F06AE7A80180911A05D9
:104BC0000E943F0D00916402109165020E94E80F5F
:104BD0006AE0883308F06DE7A80180911A050E9409
:104BE0003F0D409166025091670263E180911A0582
:104BF0000E943F0D409168025091690265E18091E9
:104C00001A050E943F0D40916A0250916B0267E1C4
:104C100080911A050E943F0DF110CCC021E047E0C1
:104C20006AE680911A050E94B50FF89410928000F0
:104C300089E08093810080E293E0909389008093E3
:104C40008800109285001092840082E080936F00AB
:104C50007894109214041092190410921804809100
:104C6000150460E00E947A0964E070E08DE295E04E
:104C70000E947D1961E08AE00E947A0986E791E04E
:104C80000E94F812B3EEEB2EB2E0FB2E00E110E032
:104C9000C8010E946C13F70181937F010F5F1F4FC2
:104CA00000321105A9F71092FC021092FB0210923B
:104CB0006803109267030E947A0A87EC97E090934A
:104CC00074028093730288EC97E09093760280934D
:104CD000750240E860E087EE94E00E94600D6AE0B3
:104CE00070E080E090E00E94E20940E050E06AE776
:104CF00074E487EE94E00E94DD10A0E4CA2EA8E7D9
:104D0000DA2EADE7EA2EFF24F394C092EA04D092A3
:104D1000EB04E092EC04F092ED0440E050E060E738
:104D200073E487EE94E00E94DD10C092F004D0920C
:104D3000F104E092F204F092F304C092EA04D092FB
:104D4000EB04E092EC04F092ED040E94E80D86EB97
:104D50009DE00E94911190E080E08C010F5F1F4F59
:104D6000805C9E4F0E946C13080F111DC801805C6F
:104D70009E4F0E946C138E3461F1C8010496EDCFF2
:104D8000C80CD91C46EFC4164BE0D40610F00C94A6
:104D9000DC32EF0C09F43394432D4F716DE68091B2
:104DA0001A050E94500D4E2D6EE680911A050E9444
:104DB000500D81CE8BE99DE00E94BC084AE061E085
:104DC00070E080E090E00E94BC1189E20E949D1199
:104DD0002CCF66E371E0C8018E5B9E4F0E945B1989
:104DE00080E10E94AB09BC01990F880B990B6115FA
:104DF00071058105910511F00E94F1348FEF93E068
:104E00000E94FA1F60ED77E080E090E00E94E209E6
:104E10000E94EB1A609198027091990280919A0217
:104E200090919B029F7720E030E040EF51E40E9498
:104E30005739181694F060919C0270919D028091F0
:104E40009E0290919F029F7720E030E040EF51E476
:104E50000E94573918160CF028C183E68093F60299
:104E600082E08093F50280ED9DE00E94911189EC33
:104E70009DE00E94911182EC9DE00E9491110E94A0
:104E8000150A20E137E240E050E00E94343780917B
:104E9000010190910201092E000CAA0BBB0B821795
:104EA0009307A407B5070CF045C0790130930201C0
:104EB0002093010185E10E94AB098C018A38924060
:104EC000ACF580917702909178020817190721F0CC
:104ED00022E0E216F10454F58BED9DE00E94BC083F
:104EE000C80163E670E00E942C3B6B01072E000CAA
:104EF000EE08FF0877FFDBC08DE20E94B708662747
:104F00007727CB016C197D098E099F094AE00E9421
:104F1000BC1186E50E949D1181ED93E00E94FA1F6D
:104F200060ED77E080E090E00E94E2091093780263
:104F30000093770280910501882329F08091FD027A
:104F400080FF0E94EB1A809105018823B9F18091BE
:104F5000F602833699F18091E002882379F10E946C
:104F6000A2346B017C010E94A2344B015C01C70199
:104F7000B6012AE030E040E050E00E94CB361CED64
:104F8000160FC501B4012AE030E040E050E00E9475
:104F9000CB3642ED460F212F6AE082E00E94F60DEB
:104FA0008BE68093F60262E871E08091370590917C
:104FB00038050E944D3C8FEF8093F5028CE194E020
:104FC000909387028093860280911804909119042F
:104FD00090938902809388028091E60490E09093F8
:104FE0008B0280938A0280911404833009F09AC066
:104FF00080911E0490911F04875891098E35910568
:1050000008F08AC08091180490911904049709F05F
:1050100052C080912004909121048097479708F016
:105020004AC080912204909123040997099708F0BF
:1050300042C010928502109284024FEF5FEFBA01D6
:1050400040937E0250937F026093800270938102AE
:1050500083E090E090937B0280937A0280917E02BD
:1050600090917F02A0918002B0918102892F9A2FA6
:10507000AB2FBB27823609F4D2C108F0A6C180331A
:1050800009F4DCC108F08BC1803109F4E0C108F0FB
:1050900034C16BE17EE0823009F437C16CE971E024
:1050A000CE0181960E94441A34C184E6D7CE4AE0EC
:1050B000C701B6012CCF8091180490911904843453
:1050C000910550F18091200490912104815491091F
:1050D0008F9710F590E080E040E050E0BA01FC01CD
:1050E000EE5DFB4F20813181295031092930310596
:1050F00098F4FC01EC5DFB4F20813181275131098F
:105100002231310508F4E3C0208131812650310974
:105110002730310508F4ECC01092140410921904E1
:10512000109218048BE693E00E94280818161906BE
:105130008CF582E08093F5028BE693E00E940608EE
:10514000182F8093F60261E070E080E090E00E940A
:10515000E2091B3409F014C2E0903305F0903405E5
:1051600010E000E08BE693E00E942808892B51F0C4
:105170008BE693E00E940608F701E00FF11F8083A1
:105180000F5F1F4FF8013197EE0DFF1D80818E37A5
:1051900049F710820E94150A1091F502112309F4B3
:1051A000A7C2F090F6020E94150A153030F5B2E65B
:1051B000FB1619F18CE88F0D8230F8F0ECE4FE1646
:1051C000E1F0F9E4FF16C9F023E4F216B1F0612F23
:1051D00070E06B5F7F4F660F771F072E000C880B08
:1051E000990B0E949835EE24E39410E000E020E053
:1051F00030E048E452E40E94841D8091F40283561A
:10520000823068F443E6F41651F088EB9BE00E948C
:10521000CD1081E08093050187E40E949D1180916B
:10522000F602803751F08091F302811106C081E0CF
:105230008093F30280E70E949D111091F602E6EC44
:10524000E10FEC3308F0FAC10E2E000CFF0BE55D08
:10525000F64D0C94403B5E2F592F1E2B1E2B1E2B00
:105260001E2B1E2B1E2B6C2E1E2B1E2B1E2B1E2BA5
:105270001E2B1E2B1F2E1E2BB82E5F2E1F2E1E2BFD
:105280001E2B1E2B1E2B1E2BA52CA82E1E2B1E2BC1
:105290001E2B1E2B1E2B1E2B1E2B1E2B1E2B1E2BC6
:1052A0001E2B1E2B8F2CA52CA52C612F1E2B1E2BED
:1052B000112B1E2BA52CFB2B432F1E2BA52C1E2B9D
:1052C000312CEA2B1E2B112B362CA52CA52C440F90
:1052D000551F661F771F416004968038910509F0BD
:1052E000FECE80E290E09093850280938402A8CE67
:1052F000440F551F661F771FEFCF883109F4A1C0F7
:1053000063E27EE0823209F0C9CECE0181960E942E
:10531000851A65E871E0CE0181960E940413882306
:1053200009F4A1C067E871E08DE295E00E940E1AD1
:105330006DE275E0CE0187960E94F219CE0181964A
:105340000E942B136CE971E0CE0187960E94041332
:1053500081111AC000913705109138056FA178A509
:10536000C8010E944D3CD8010D900020E9F7CD0105
:1053700002978017910709F001C1F801808180939D
:10538000F60281E08093F502109214041092190441
:1053900010921804CE0187960E942B13C3CE8A3434
:1053A00009F45BC048F4883309F454C06FEE7DE023
:1053B000823409F4AACF72CE823509F451C065EF68
:1053C0007DE08A3509F4A1CF69CE823A29F188F4CB
:1053D0008A37D1F130F460E17EE0883609F495CF68
:1053E0005DCE803941F16DE07EE0883909F48DCFE2
:1053F00055CE823CB9F040F4883AD1F06AE07EE0C4
:10540000803B09F482CF4ACE803E79F065E27EE0AF
:10541000823E09F47ACF42CE69E27EE076CF67E23F
:105420007EE073CF69E17EE070CF67E17EE06DCF13
:1054300065E17EE06ACF63E17EE067CF67E07EE012
:1054400064CF63E07EE061CF6FEF7DE05ECF6CEF15
:105450007DE05BCF69EF7DE058CF68EE7DE055CF12
:1054600066EE7DE052CF6AE871E0CE0181960E943F
:105470000413811110C06CE871E0CE0181960E9486
:105480000413811108C06EE871E0CE0181960E947C
:1054900004138823D1F18DA19EA1892B21F0E9A1CC
:1054A000FAA1309721F410927902E9E7F2E0108135
:1054B00010930301163431F463E771E08DE295E057
:1054C0000E940E1A6DE275E0CE0101960E94F2195B
:1054D0001FA318A641E050E0BE01695D7F4FCE01D9
:1054E00001960E94A519811104C0CE0101960E9467
:1054F0001913BE016F5F7F4FCE0187960E94F2198C
:10550000CE0101960E942B1319CF60E971E0CE0104
:1055100081960E94041381111EC063E971E0CE01DF
:1055200081960E940413811116C063E771E0CE01D9
:1055300081960E94041381110EC018A61FA21AA6FC
:1055400019A61CA61BA6BE016F5D7F4FCE018796D4
:105550000E943313F3CE69A17AA16115710549F058
:105560004DA15EA18DE295E00E94D1191091030139
:10557000A9CF8DE295E00E941913F8CF8BE6FFCEFC
:105580008BE693E00E942808181619060CF002CE4C
:105590006CE971E0CE0181960E94441A193449F0F9
:1055A00084EB810F823028F08EEB810F6AE082302D
:1055B00008F46EE7CE0101960E94551ABE016F5F96
:1055C0007F4FCE0181960E943313CE0101960E9437
:1055D0002B132DA13EA13093E2022093E1021B3652
:1055E00031F08091330590913405143721F4809186
:1055F00037059091380549A15AA1DC01FA01BF0194
:10560000641B750B621773071CF461916D93F7CFE0
:10561000820F931FDC011C92CE0181960E942B13F6
:10562000B9CD173609F0C9C08091050191E08927ED
:1056300080930501811117E41093F6028091F60220
:105640008B3621F490910A031916D4F40E949D110F
:105650001091F602812F012E000C990B0E94263C1E
:10566000873621F0823611F01A3621F48091F40247
:105670008B3619F01B7F103719F48BE68093F602F6
:10568000009137051091380562E871E0C8010E9469
:10569000443CF090F602892B09F1E9E4FE16F1F0A2
:1056A00085EB8F0D8330D0F08091350590913605D4
:1056B000009711F00E94CD3381E090E00E943133D9
:1056C000F80101900020E9F7E01BDC01EC939093D6
:1056D000360580933505B8010E944D3C1092F502C5
:1056E000F092F4028F2D877F833611F01092F6022C
:1056F0008091F6028B3609F0CBC600910A0307FFB2
:1057000088C48091170333243A94380E823008F409
:10571000312C10E0212F30E080910A03082E000C7C
:10572000990B97FF03C09195819591092817390727
:105730000CF0AEC6E0901903F0901A0380910F03AD
:10574000189FE00CF11C1124F7016089062E000C53
:10575000770B880B990B0E94983520E030E040E8E9
:105760005EE30E94F7359B01AC0100E060911403F9
:10577000C7010E947716A0911903B0911A03809176
:105780000F03189FA00DB11D112452962C91529712
:105790002111ABC380910F03E0911903F0911A031B
:1057A000189FE00DF11D1124618916160CF417C421
:1057B000EEEC6E02B001112416C4123709F03ECF90
:1057C0008091040181958093040118160CF034CF68
:1057D00012E532CF8091F30291E0811190E0909335
:1057E000F302811110E51093F602882309F426CF05
:1057F0000E94E80D23CF0E9400126CE971E0CE01F7
:1058000081960E94441A06E011E096E2E92E91E0AA
:10581000F92ED8016D917D918D01CE0101960E94E6
:10582000181A4D815E8169817A81CE0181960E942C
:10583000A519CE0101960E942B1342E050E06AE9BF
:1058400071E0CE0181960E94A519E016F10609F7D4
:10585000CE0181960E94A911CE0181960E942B1340
:10586000EDCE86EC93E00E94FA1FE8CE8DE59EE037
:105870000E94911103EE802E02E0902E80E4E82E2B
:10588000F12C00E110E0F401D1904F01C8010E9419
:10589000B536D81621F06D2DC8010E94BD36C7015E
:1058A0000E94FF136C01C80180960E946C13B82EF1
:1058B000F40131976081062E000C770B880B990B51
:1058C0000E9498352B013C016B2DBB0C770B880B8C
:1058D000990B0E9498359B01AC01C301B2010E9453
:1058E000F7352B013C01B601DD0C880B990B0E94AA
:1058F00098359B01AC01C301B2010E9466370E943A
:10590000BB38C70180960E945B190F5F1F4FF2E002
:10591000EF0EF11C0032110509F0B5CF8FCE85E5F1
:105920009EE00E94911113EEE12E12E0F12E00E1B3
:1059300010E0C8010E946C13D7018D937D010F5FA9
:105940001F4F00321105A9F779CEE6E0F1E0DE0144
:10595000119686E291E0219131912D933D938E171E
:105960009F07C9F78091370590913805143721F0CA
:10597000809133059091340566E971E00E942835E5
:105980001C012114310409F4D3C0C1010E94FA346E
:105990008C0169E971E090E080E00E9428351C01EB
:1059A000F12CE12CBB24B394009761F00E94FA34EF
:1059B0007C0169E971E090E080E00E9428351C01DB
:1059C000B2E0BB2EF801EE0FFF1F41E050E04C0F9C
:1059D0005D1FE40FF51FF182E0828091F6028336AD
:1059E00009F0ACC088EB9CE00E94CD10109205013C
:1059F0008091F402833661F0C0903705D09038056D
:105A00006DE671E0C6010E944D3CC6010E94FD1783
:105A1000B8016D517D4F6B0172E0B71202C0D60123
:105A2000EC92C8018096880F991F0E94FF137C0199
:105A3000C8019927C0960E946C13182FF601608147
:105A4000062E000C770B880B990B0E9498354B01A2
:105A50005C01612F110F770B880B990B0E94983511
:105A60009B01AC01C501B4010E94F7354B015C01FB
:105A7000B701FF0C880B990B0E9498359B01AC0174
:105A8000C501B4010E9466370E94BB38072E000C86
:105A9000880B990B0E949835AB01BC01802F0E94A6
:105AA00013140E9400126CE971E0CE0187960E94E7
:105AB000441A03EE12E0D8016D918D01062E000C00
:105AC000770BCE0181960E94181A4DA15EA169A1A3
:105AD0007AA1CE0187960E94A519CE0181960E94D7
