:100000000C9442070C946A070C946A070C946A07D4
:100010000C946A070C946A070C946A070C945A2093
:100020000C946A070C946A070C946A070C94772264
:100030000C946A070C946A070C946A070C946A077C
:100040000C940E210C946A070C94DC200C94B620BE
:100050000C946A070C946A070C946A070C946A075C
:100060000C9458210C946A07084AD73B3BCE016E8A
:1000700084BCBFFDC12F3D6C74319ABD56833DDAFF
:100080003D00C77F11BED9E4BB4C3E916BAAAABE0E
:10009000000000803F05A84CCDB2D44EB93836A937
:1000A000020C50B9918688083CA6AAAA2ABE000074
:1000B00000803F07634236B79BD8A71A39685618A5
:1000C000AEBAAB558C1D3CB7CC5763BD6DEDFD751D
:1000D0003EF6177231BF000000803F08000000BEEE
:1000E000922449123EABAAAA2ABECDCCCC4C3E00EB
:1000F000000080BEABAAAAAA3E00000000BF00001C
:1001000000803F0000000000084178D3BB4387D146
:10011000133D190E3CC3BD4282AD2B3E68EC827686
:10012000BED98FE1A93E4C80EFFFBE01C4FF7F3FE7
:1001300000000000000001000001000000000000BD
:10014000000000000000000000000000000023008C
:100150002600290000000000240027002A000000DB
:100160000000250028002B000404040404040404F7
:100170000202020202020303030303030102040852
:100180001020408001020408102001020408102001
:100190000000000800020100000304070000000046
:1001A000000000000200F8F62A3F68F57A0006FF1A
:1001B000FE0003000000650054FFEF0000FA80001D
:1001C0000B12820001030C30C30A74562D0D62DB42
:1001D000C716F4BA023883F8833000F883258EF806
:1001E000833000F883FFFFFFFF0CBDD8112400040B
:1001F000001A8279A10036003C00000000001000C7
:100200000038836FA2003E03304000000002CAE3C2
:10021000093E8000002000000000000000400000B7
:1002200000600000001FA4E8E4FFF5DCB9005B7982
:10023000CF1F3F787600867C5A00862347FAB9861E
:10024000310074878A0000000000004305FFFFE9C9
:10025000A800002182FAB84D46FFFADF3DFFFFB249
:10026000B3000000003FFFBA98005DAC08000A63CD
:100270007800014621FFFF0000000042B5000600A3
:1002800064006400061406029F0F479132D90E9F46
:10029000C91DCF4C343BB67AE80064000600C800A4
:1002A000000000FFFE100000000000000000000041
:1002B000000000000000070000FFF10000FA460007
:1002C00000A2B800001000000004D6000004CC001A
:1002D0000004CC000000000000000000000000004E
:1002E00000000000000006000200050007000000FA
:1002F0000000640000000000000000000C00050089
:100300006400200000000000000000000000004029
:10031000000000030000000032F8980000FF6500B4
:1003200000830F000000060000FFF10000FA460005
:1003300000A2B80000000000000000000000000063
:10034000000000000000000032000000000000007B
:100350000000001000000000010000000D0000B2CD
:100360006A000200000001FB83007C0000FB15FC1A
:10037000001FB4FF83000000010065000700640354
:10038000E8006400280000FFFD0000000016A00047
:10039000000000000000001000002F00000000011D
:1003A000F40000100000280000FFFF4581FFFFFA65
:1003B000720000000000000000004400010005BAC7
:1003C000C6004778A2000000000000000000000600
:1003D0000000000014000023BB002EA25B000005FB
:1003E00068000BCF490004FFFD0002000000000080
:1003F0000200000000001B000000000000000000E0
:10040000000000000000640007000800060006FF6E
:10041000FE000000000000000000000000000000DE
:1004200000000000000000000000000000000000CC
:1004300000000000000000000000000000000000BC
:100440000000000000002EA25B00000568000BCF3A
:10045000490000000000F8F62A3F68F57A0004FF22
:10046000FD00020000001B00000000000000000072
:1004700000000E000EFFFFFFCF0004000000000090
:1004800032FFFFFF9C000043050000000000000059
:100490000100000064FFE500000000000000000013
:1004A000000000000000000001000000000001004A
:1004B00000000000000001800000018000000180B9
:1004C00000002426D3000100010000000000060007
:1004D000100096003C00000000000000000000003A
:1004E000001F9E655D0C0A4E68CDCF7709501667D8
:1004F00059C619CE82000000000000000000000074
:10050000000047711C000000000000000017D784A5
:1005100000030000000011DC4703000000C7938FB8
:100520009D1E1B1C19FFFFFFFF000000000EDFA433
:10053000381F9E655D000000000047711C02031813
:1005400085000040000000000000000003000000E3
:1005500000000000003FFFFFFDFFFFF4C9FFFFBCEC
:10056000F000010C0F00000000000000000000007F
:10057000000000000000000000000000000000007B
:100580000000000000F5B7BAB3677DDF7E72902EE1
:10059000554CF6E688000000000000000000000056
:1005A0000000000000D8DCB4B8B0D8B9ABF3F8FA5A
:1005B000B3B7BB8E9EAEF132F51BF1B4B8B08097E5
:1005C000F1A9DFDFDFAADFDFDFF2AA4CCD6CA90CD7
:1005D000C92C97F1A989264666B28999A92D557D1E
:1005E000B0B08AA896365676F1BAA3B4B280C0B835
:1005F000A89711B28398BAA3F0240844106418B2E3
:10060000B9B49883F1A329557DBAB5B1A38393F00A
:10061000002850F5B2B6AA839328547CF1B9A3827E
:100620009361BAA2DADEDFDB819AB9AEF560687059
:10063000F1DABAA2DFD9BAA2FAB9A38292DB31BA4F
:10064000A2D9BAA2F8DF85A4D0C1BBAD83C2C5C709
:10065000B8A2DFDFDFBAA0DFDFDFD8D8F1B8AAB3F6
:100660008DB4980D355DB2B6BAAF8C96198F9FA731
:100670000E161EB49AB8AA872C547CBAA4B08AB6B7
:1006800091325676B28494A4C808CDD8B8B4B0F1EB
:100690009982A82D557D98A80E161EA22C547C92E6
:1006A000A4F02C5078F184A898C4CDFCD80DDBA818
:1006B000FC2DF3D9BAA6F8DABAA6DED8BAB2B68655
:1006C00096A6D0F3C841DAA6C8F8D8B0B4B882A8C4
:1006D00092F52C548898F135D9F418D8F1A2D0F8B5
:1006E000F9A884D9C7DFF8F883C5DADF69DF83C1E9
:1006F000D8F40114F1A8824EA884F311D182F5D95F
:1007000092289788F109F41C1CD884A8F3C0F9D169
:10071000D99782F129F40DD8F3F9F9D1D982F4C22D
:1007200003D8DEDF1AD8F1A2FAF9A88498D9C7DF76
:10073000F8F8F883C7DADF69DFF883C3D8F4011467
:10074000F198A8822EA884F311D182F5D9925097FE
:1007500088F109F41CD884A8F3C0F8F9D1D997829C
:10076000F149F40DD8F3F9F9D1D982F4C403D8DEF4
:10077000DFD8F1AD8898CCA809F9D98292A8F57C88
:10078000F1883ACF944A6E98DB6931DAADF2DEF93E
:10079000D88795A8F221D1DAA5F9F417D9F1AE8E50
:1007A000D0C0C3AE82C684C3A88595C8A588F2C050
:1007B000F1F4010EF18E9EA8C63E56F554F18872F2
:1007C000F40115F19845856EF58E9E0488F14298E6
:1007D0005A8E9E068869F4011CF1981E1108D0F506
:1007E00004F11E970202983625DBF9D985A5F3C1DD
:1007F000DA85A5F3DFD88595A8F309DAA5FAD882BA
:1008000092A8F578F1881A849F26889821DAF41D39
:10081000F3D8879F39D1AFD9DFDFFBF9F40CF3D8D8
:10082000FAD0F8DAF9F9D0DFD9F9D8F40BD8F38790
:100830009F39D1AFD9DFDFF41DF3D8FAFCA869F9ED
:10084000F9AFD0DADEFAD9F88F9FA8F1CCF398DBB4
:1008500045D9AFDFD0F8D8F18F9FA8CAF38809DA5D
:10086000AF8FCBF8D8F2AD978D0CD9A5DFF9BAA62A
:10087000F3FAF412F2D8950DD1D9BAA6F3FADAA5A3
:10088000F2C1BAA6F3DFD8F1BAB2B68696A6D0CA3C
:10089000F349DAA6CBF8D8B0B4B8D8AD84F2C0DF4B
:1008A000F18FCBC3A8B2B68696C8C1CBC3F3B0B4A0
:1008B0008898A821DB718D9D71859521D9ADF2FABB
:1008C000D88597A828D9F408D8F28D29DAF405D963
:1008D000F285A4C2F2D8A88D9401D1D9F411F2D82E
:1008E0008721D8F40AD8F28498A8C801D1D9F41184
:1008F000D8F3A4C8BBAFD0F2DEF8F8F8F8F8F8F8EF
:10090000F8D8F1B8F6B5B9B08A95A3DE3CA3D9F80A
:10091000D85CA3D9F8D87CA3D9F8D8F8F9D1A5D94F
:10092000DFDAFAD8B18530F7D9DED8F830ADDADEC3
:10093000D8F2B48C99A32D557DA083DFDFDFB5916C
:10094000A0F629D9FBD8A0FC29D9FAD8A0D051D932
:10095000F8D8FC51D9F9D879D9FBD8A0D0FC79D9ED
:10096000FAD8A1F9F9F9F9F9A0DADFDFDFD8A1F8AF
:10097000F8F8F8F8ACDEF8ADDE8393AC2C547CF1DB
:10098000A8DFDFDFF69D2CDAA0DFD9FADB2DF8D85F
:10099000A850DAA0D0DED9D0F8F8F8DB55F8D8A8FE
:1009A00078DAA0D0DFD9D0FAF8F8F8F8DB7DF8D8FB
:1009B0009CA88CF530DB38D9D0DEDFA0D0DEDFD8C4
:1009C000A848DB58D9DFD0DEA0DFD0DED8A868DBAE
:1009D00070D9DFDFA0DFDFD8F1A888902C547C9895
:1009E000A8D05C38D1DAF2AE8CDFF9D8B087A8C1D4
:1009F000C1B188A8C6F9F9DA36D8A8F9DA36D8A884
:100A0000F9DA36D8A8F9DA36D8A8F9DA36D8F78D6F
:100A10009DADF818DAF2AEDFD8F7ADFA30D9A4DE22
:100A2000F9D8F2AEDEFAF983A7D9C3C5C7F1889B1E
:100A3000A77AADF7DEDFA4F8849408A797F300AE99
:100A4000F29819A488C6A39488F632DFF28393DB68
:100A500009D9F2AADFD8D8AEF8F9D1DAF3A4DEA723
:100A6000F1889B7AD8F38494AE19F9DAAAF1DFD829
:100A7000A881C0C3C5C7A39283F628ADDED9F8D834
:100A8000A350ADD9F8D8A378ADD9F8D8F8F9D1A149
:100A9000DADEC3C5C7D8A18194F818F2B089ACC317
:100AA000C5C7F1D8B8B4B09786A8319B069907ABF3
:100AB0009728889BF00C201440B0B4B8F0A88A9A0C
:100AC000285078B79BA82951792470594469386413
:100AD0004831F1BBAB88002C547CF0B38BB8A80430
:100AE000285078F1B088B49726A85998BBABB38B3F
:100AF00002264666B0B8F08A9CA82951798B295104
:100B0000798A2470598B2058718A4469388B39400E
:100B1000688A6448318B30496088F1AC002C547C81
:100B2000F08CA804285078F1889726A85998AC8CA6
:100B300002264666F0899CA8295179247059446997
:100B400038644831A98809205970AB11384069A828
:100B5000193148608CA83C415C207C00F1879819D1
:100B600086A86E767EA999882D557DD8B1B5B9A392
:100B7000DFDFDFAED0DFAAD0DEF2ABF8F9D9B08785
:100B8000C4AAF1DFDFBBAFDFDFB9D8B1F1A3978E25
:100B900060DFB084F2C8F8F9D9DED89385F14AB1A4
:100BA00083A308B5839A0810B79F10D8F1B0BAAEE6
:100BB000B08AC2B2B68E9EF1FBD9F41DD8F9D90C19
:100BC000F1D8F8F8AD61D9AEFBD8F40CF1D8F8F84B
:100BD000AD19D9AEFBDFD8F416F1D8F8AD8D61D9D7
:100BE000F4F4ACF59C9C8DDF2BBAB6AEFAF8F40B9E
:100BF000D8F1AED0F8AD51DAAEFAF8F1D8B9B1B655
:100C0000A3839C08B9B1839AB5AAC0FD3083B79F6E
:100C100010B58B93F20202D1ABDADED8F1B080BA14
:100C2000ABC0C3B284C1C3D8B1B9F38BA391B60929
:100C3000B4D9ABDEB0879CB9A3DDF1B38B8B8B8BC2
:100C40008BB08720283038B28BB69BF2A3C0C8C2C5
:100C5000C4CCC6A3A3A3F1B087B59AD8F39BA3A332
:100C6000DCBAACDFB9A3FEF2ABC4AAF1DFDFBBAFE5
:100C7000DFDFA3A3A3D8D8D8BBB3B7F1AAF9DAFFB3
:100C8000D9809AAA28B48098A720B79787A86688A1
:100C9000F07951F1902C870CA781976293F07171D4
:100CA0006085940129517990A5F1284C6C870C95A9
:100CB000188578A38390284C6C886CD8F3A28200A6
:100CC000F210A8921980A2F2D926D8F188A84DD99D
:100CD00048D896A83980D93CD89580A839A6869856
:100CE000D92CDA87A72CD8A8899519A980D938D802
:100CF000A88939A980DA3CD8A82EA83990D90CD86F
:100D0000A8953198D90CD8A809D9FFD801DAFFD80D
:100D10009539A9DA26FFD890A80D8999A81080984E
:100D200021DA2ED88999A83180DA2ED8A886963172
:100D300080DA2ED8A8873180DA2ED8A88292F341A3
:100D400080F1D92ED8A882F31980F1D92ED882AC9F
:100D5000F3C0A28022F1A62EA72EA92298A829DAF4
:100D6000ACDEFFD8A2F22AF1A92E8292A8F231803D
:100D7000A696F1D900AC8C9C0C30ACDED0DEFFD84E
:100D80008C9CACD010ACDE8092A2F24C82A8F1CA4E
:100D9000F235F19688A6D900D8F1FF444D5020666F
:100DA00061696C65642028636F64652000496E6921
:100DB0007420494D55006B487A0032354D487A0011
:100DC000496E697420736572766F733A20004C6FB8
:100DD000616420736B696C6C730052656164792186
:100DE000004E7962626C65000A2A20537461727445
:100DF000202A004C6F7720706F7765723A007A6511
:100E0000726F00627574745570007374616E640063
:100E100070656500707500686900737472007369AD
:100E20007400747200776B00637200767400630064
:100E300042007000520062616C616E6365004C009C
:100E400067004600640049324320454550524F4DEB
:100E5000206F766572666C6F77212044656C6574CF
:100E60006520736F6D6520736B696C6C73210A006C
:100E700061626F72746564007361766564003F003F
:100E80006423D93311241FBECFEFD8E0DEBFCDBF1E
:100E900011E0A0E0B1E0E6E3FAE702C005900D92B0
:100EA000A03AB107D9F725E0A0EAB1E001C01D9250
:100EB000A634B207E1F717E0C1E4D7E004C02197F8
:100EC000FE010E94EC3BC034D107C9F70E94F82311
:100ED0000C940E3D0C94000091E09093710380936C
:100EE000700310926F0310926E03089580E090E0FB
:100EF000A0E0B0E48093120390931303A093140333
:100F0000B0931503E0913A05F0913B058181082EDD
:100F1000000C990B909318038093170310920C0305
:100F20008281082E000C990B90931A038093190369
:100F300010920B03838180931B039091110397FF01
:100F40000FC0848180931C03858180931D0386815B
:100F500080931E0387E040E050E060E07FE307C03D
:100F600084E040E050E060E87FE39130A1F74093F7
:100F700006035093070360930803709309039230AC
:100F800054F098E090931F03E80FF11DF0932103B4
:100F9000E0932003089590E0F5CF809102039091B3
:100FA0000303891B990B0895089508950895AF923E
:100FB000BF92CF92DF92EF92FF920F931F93CF9346
:100FC000DF936C017B018B01040F151FEB015E01A8
:100FD000AE18BF08C017D10759F06991D601ED913D
:100FE000FC910190F081E02DC6010995892B79F7DC
:100FF000C501DF91CF911F910F91FF90EF90DF908E
:10100000CF90BF90AF900895FC01538D448D252F54
:1010100030E0842F90E0821B930B541710F0CF9692
:10102000089501970895FC01918D828D981761F0C4
:10103000A28DAE0FBF2FB11D5D968C91928D9F5FDB
:101040009F73928F90E008958FEF9FEF0895FC01BA
:10105000918D828D981731F0828DE80FF11D858D6D
:1010600090E008958FEF9FEF0895FC01918D228D00
:10107000892F90E0805C9F4F821B91098F73992785
:10108000089582E793E00E94350821E0892B09F456
:1010900020E0822F089580E090E0892B29F00E94C3
:1010A000410881110C9400000895FC01A48DA80F43
:1010B000B92FB11DA35ABF4F2C91848D90E001969A
:1010C0008F739927848FA689B7892C93A089B189BA
:1010D0008C91837080648C93938D848D981306C05B
:1010E0000288F389E02D80818F7D80830895EF92BF
:1010F000FF920F931F93CF93DF93EC0181E0888FD2
:101100009B8D8C8D98131AC0E889F989808185FFA1
:1011100015C09FB7F894EE89FF896083E889F98943
:1011200080818370806480839FBF81E090E0DF9145
:10113000CF911F910F91FF90EF900895F62E0B8D98
:1011400010E00F5F1F4F0F731127E02E8C8D8E1153
:101150000CC00FB607FCFACFE889F989808185FFBA
:10116000F5CFCE010E945508F1CFEB8DEC0FFD2F8E
:10117000F11DE35AFF4FF0829FB7F8940B8FEA8975
:10118000FB8980818062CFCF682F82E793E00C9447
:1011900077080F931F93CF93DF938C01D0E0C0E0CB
:1011A000F801EC0FFD1F6491662341F082E793E0A4
:1011B0000E947708892B11F02196F2CFCE01DF91A2
:1011C000CF911F910F910895CF93DF93EC01888DFC
:1011D0008823B9F0AA89BB89E889F9898C9185FDB2
:1011E00003C0808186FD0DC00FB607FCF7CF8C9140
:1011F00085FFF2CF808185FFEDCFCE010E9455089B
:10120000E9CFDF91CF910895833081F028F48130C8
:1012100099F08230A9F008958730A9F08830C9F09C
:101220008430B1F4809180008F7D03C08091800074
:101230008F7780938000089584B58F7784BD08955B
:1012400084B58F7DFBCF8091B0008F778093B00005
:1012500008958091B0008F7DF9CF1F93CF93DF93D6
:10126000282F30E0F901E057FE4F8491F901E4584E
:10127000FE4FD491F901E859FE4FC491CC23A9F057
:10128000162F81110E940409EC2FF0E0EE0FFF1FD2
:10129000E25AFE4FA591B4918FB7F894EC911111D9
:1012A00008C0D095DE23DC938FBFDF91CF911F91D3
:1012B0000895DE2BF8CF9091000189130BC0E4EA6A
:1012C000F1E0E4919FEF90930001E13049F028F0C4
:1012D000E23061F060E00C942D0910926E00FACFBC
:1012E00090916F009D7F90936F00F4CF909170006C
:1012F0009D7F9093700091E09093B0009091B10029
:10130000987F94609093B1001092B300E3CFCF9395
:10131000DF9390E0FC01E458FE4F249188599E4FE2
:10132000FC0184918823D1F090E0880F991FFC0183
:10133000EC5AFE4FA591B491FC01E25AFE4FC591C3
:10134000D49161110EC09FB7F8948C91E22FE09573
:101350008E238C932881E223E8839FBFDF91CF9176
:1013600008958FB7F894EC91E22BEC938FBFF6CFF2
:101370008E50806480937C0080917A00806480939A
:101380007A0080917A0086FDFCCF80917800909160
:10139000790008953FB7F8948091530290915402D8
:1013A000A0915502B091560226B5A89B05C02F3FCB
:1013B00019F00196A11DB11D3FBFBA2FA92F982F7B
:1013C0008827BC01CD01620F711D811D911D42E076
:1013D000660F771F881F991F4A95D1F708958F923E
:1013E0009F92AF92BF92CF92DF92EF92FF926B01EA
:1013F0007C010E94CA094B015C01C114D104E104C3
:10140000F104B9F00E94CA09681979098A099B098F
:10141000683E73408105910580F321E0C21AD1082E
:10142000E108F10888EE880E83E0981EA11CB11C2B
:10143000E4CFFF90EF90DF90CF90BF90AF909F9060
:101440008F9008952FB7F89460914F0270915002D9
:1014500080915102909152022FBF08950F931F93D4
:101460000E94220A60937A0370937B0380937C032B
:1014700090937D0382E793E00E94130897FF1DC0BD
:101480000E94220A00917A0310917B0320917C0331
:1014900030917D03601B710B820B930B00917603DF
:1014A00010917703209178033091790360177107C9
:1014B00082079307F8F28FEF9FEF1F910F91089526
:1014C00020912B02260F3327331F21323105ECF4F4
:1014D00020916803FC0190E080E0243069F082E014
:1014E0000895A0912B022191AC01455F5D4FA40F9F
:1014F000B52FB11D2C930196861798F380912B027E
:10150000680F60932B0280E0089581E008951092A7
:10151000680381E0809347031092420361E082E117
:101520000E942D0961E083E10E942D09E9EBF0E0C2
:1015300080818E7F808380818D7F808388E480930B
:10154000B80085E48093BC000895CF93DF9391E0C9
:1015500090930A028823B9F0C091B800D091BA00E4
:101560008091BC008A7B8093BC0060E082E10E9495
:101570002D0960E083E10E942D090E94870AD09323
:10158000BA00C093B800DF91CF910895CF92DF9257
:10159000EF92FF920F931F93CF93DF93D82FC62F15
:1015A000613208F098C00E94CA096B017C018091E9
:1015B000680381116BC081E08093680380934703C7
:1015C0009FEF90934603109245039C0F9093440322
:1015D0008093430380914303DD0FD82BD0934303C3
:1015E00080914203813009F078C0109242030E943A
:1015F000CA096B017C01809143038093BB008091F9
:101600006A0390916B03A0916C03B0916D03892BD9
:101610008A2B8B2BA1F00E94CA0900916A031091BA
:101620006B0320916C0330916D036C197D098E0959
:101630009F09061717072807390708F448C0809143
:10164000BC0083FDD8CF85EC8093BC000E94CA0902
:101650006B017C0180916803813009F440C0809166
:1016600045038C1710F4C0914503E2E2F3E0A8E4CF
:10167000B3E080E08C1355C08C2FDF91CF911F9188
:101680000F91FF90EF90DF90CF90089580916A03C3
:1016900090916B03A0916C03B0916D03892B8A2B01
:1016A0008B2B09F484CF0E94CA0900916A03109120
:1016B0006B0320916C0330916D036C197D098E09C9
:1016C0009F09061717072807390708F070CF809180
:1016D00069030E94A50AC0E0CFCF85EEB5CF809107
:1016E0006A0390916B03A0916C03B0916D03892BF9
:1016F0008A2B8B2B09F4AECF0E94CA0900916A0392
:1017000010916B0320916C0330916D036C197D096E
:101710008E099F09061717072807390708F09ACF7F
:10172000D6CF91919D938F5FA5CF0895E09103034C
:1017300080910203E81730F4F0E0E85BFC4F808111
:1017400090E008958FEF9FEF0895909103038091AB
:1017500002032FEF3FEF981748F4E92FF0E0E85B22
:10176000FC4F208130E09F5F90930303C9010895EF
:10177000CF92DF92EF92FF920F931F93CF93DF935D
:101780007C01CB018A0120917103222389F0EB01B6
:101790006B01C40ED51ECC15DD0569F06991D7012A
:1017A000ED91FC910190F081E02DC7010995F3CFF7
:1017B000642F0E94600AC801DF91CF911F910F91A1
:1017C000FF90EF90DF90CF900895CF93DF931F921B
:1017D000CDB7DEB76983209171032223F9F0209100
:1017E0006E03203258F021E030E0FC013383228385
:1017F00090E080E00F90DF91CF91089580916F038A
:10180000E82FF0E0E651FE4F998190838F5F80933F
:101810006F0380936E0381E090E0ECCF61E0CE0136
:1018200001960E94600AF7CFCF92DF92EF92FF926B
:101830000F931F93CF93DF93D0916E0381E0D1324A
:1018400008F09CC0C09170030E94CA096B017C0122
:101850008091680381116CC082E08093680381E00D
:10186000809347038FEF8093460310924503D093F4
:101870004403AAEEB1E0E2E2F3E080E0D8138DC0C9
:101880001092430380914303CC0FC82BC0934303B2
:1018900080914203813009F084C0109242030E947B
:1018A000CA096B017C01809143038093BB00809146
:1018B0006A0390916B03A0916C03B0916D03892B27
:1018C0008A2B8B2BA1F00E94CA0900916A03109108
:1018D0006B0320916C0330916D036C197D098E09A7
:1018E0009F09061717072807390708F442C0809197
:1018F000BC0083FDD8CF85EC8093BC000E94CA0950
:101900006B017C0180916803823009F44CC08091A6
:1019100046038F3F09F469C080914603803209F481
:1019200066C080914603803309F463C084E026C01A
:1019300080916A0390916B03A0916C03B0916D0349
:10194000892B8A2B8B2B09F483CF0E94CA09009123
:101950006A0310916B0320916C0330916D036C1935
:101960007D098E099F09061717072807390708F010
:101970006FCF809169030E94A50A85E010926F03E2
:1019800010926E0310927103DF91CF911F910F910E
:10199000FF90EF90DF90CF9008959D9191938F5F8E
:1019A0006DCF85EEA9CF80916A0390916B03A091D2
:1019B0006C03B0916D03892B8A2B8B2B09F4A2CF7A
:1019C0000E94CA0900916A0310916B0320916C0375
:1019D00030916D036C197D098E099F090617170751
:1019E0002807390708F08ECFC4CF80E0C7CF82E048
:1019F000C5CF83E0C3CF1F93CF93DF93162FEA01A8
:101A00000E946C07612F8FE094E00E94E50B6981D2
:101A10008FE094E00E94E50B68818FE094E00E94E3
:101A2000E50B8FE094E00E94140C91E0811190E0AE
:101A3000892FDF91CF911F91089590E080E0089564
:101A4000FF920F931F93CF93DF93C62F042FF22E95
:101A5000132F0E946C076C2F8FE094E00E94E50B1F
:101A6000CF2DD12F0C0F1D2F111DC017D10731F015
:101A700069918FE094E00E94E50BF7CF8FE094E04E
:101A80000E94140C91E0811190E0892FDF91CF9199
:101A90001F910F91FF900895CF93DF9300D0CDB7A2
:101AA000DEB75A834983AE014F5F5F4F0E94FB0C44
:101AB0000F900F90DF91CF910895CF93DF931F92F6
:101AC000CDB7DEB749839E012F5F3F4F41E00E94B3
:101AD000200D0F90DF91CF9108950F931F93CF9317
:101AE000DF93EC01062F142F88810E946C078981F7
:101AF0009A81DC01ED91FC910190F081E02D602F45
:101B0000099589819A81DC01ED91FC910190F08128
:101B1000E02D612F099589819A81DF91CF911F91E5
:101B20000F910C94140CDC01ED91FC910190F0816B
:101B3000E02D0994FC0187E094E1161634F484E06A
:101B400098E0613011F484E090E19083062E000C5F
:101B5000770B77FF03C0719561957109969FA0017E
:101B6000979F500D1124840F952F911D0895DC012E
:101B7000ED91FC910190F081E02D0994FF920F937B
:101B80001F93CF93DF93EC01162FF42E052F88813E
:101B90000E946C0784E0189FB00111246A5F7F4F98
:101BA00089819A810E94B70D70E060E089819A81F5
:101BB0000E94930D70E060E089819A810E94930DEC
:101BC0006F2D702F89819A810E94930D602F70E094
:101BD00089819A810E94930D89819A81DF91CF91A9
:101BE0001F910F91FF900C94140CCF93C0E040E034
:101BF00050E16C2F8EEE94E00E94BE0DCF5FC0319D
:101C0000B1F7CF9108952F923F924F925F926F92CA
:101C10007F928F929F92AF92BF92CF92DF92EF927C
:101C2000FF920F931F93CF93DF9300D000D000D08B
:101C30001F92CDB7DEB78C832D83262F30E0A8EE20
:101C4000B3E00E9402384B015C011982842F90E0BE
:101C50009B838A8399812C81921709F447C08A81DA
:101C60009B819F838E8310E000E09D812E81291748
:101C7000C8F58E819F81C29787369A4358F5CA80EE
:101C8000DB80C00ED11E1601220C331C220C331C2B
:101C900085E0281A3108CC0CDD1CF12CE12C412CFC
:101CA000512C3201481459046A047B049CF461E00D
:101CB00085E00E942D09C1010197F1F760E085E000
:101CC0000E942D09C1010197F1F74C0C5D1C6E1C9F
:101CD0007F1CE8CF0F5F1F4F8E819F8101969F83EE
:101CE0008E83C3CF99819F5F9983B4CF27960FB618
:101CF000F894DEBF0FBECDBFDF91CF911F910F9142
:101D0000FF90EF90DF90CF90BF90AF909F908F901B
:101D10007F906F905F904F903F902F9008959F928B
:101D2000AF92BF92CF92DF92EF92FF920F931F93E9
:101D3000CF93DF93EC0184E50E946C076D2F70E078
:101D40008FE094E00E94B70DBE0177278FE094E00A
:101D50000E94B70D8FE094E00E94140C61E084E5CE
:101D60000E94C60A10920303809302038FE094E05E
:101D70000E94A50BC0903A05D0903B05F6018083E8
:101D800080931103682F86E193E00E949A0DEC0185
:101D9000F12CE12C1C161D064CF56C2FCF31D10512
:101DA0000CF06EE184E50E94C60A982E109203039F
:101DB000809302035E01FEE1AF1AB1088E018091AB
:101DC0000303981659F08FE094E00E94A50B9FEF53
:101DD000E91AF90AF601EE0DFF1D80830150110981
:101DE00029F0E5010A151B0551F7D4CFDF91CF91FA
:101DF0001F910F91FF90EF90DF90CF90BF90AF9029
:101E00009F9008952F923F924F925F926F927F9290
:101E10008F929F92AF92BF92CF92DF92EF92FF92FA
:101E20000F931F93CF93DF9300D000D0CDB7DEB7D1
:101E3000782E662E4C833A8329830E94220A6B01F6
:101E40007C01512C1B822C81222E312C4801B12C7B
:101E5000A12C8C81581608F049C0872D0E946C0770
:101E6000662D8FE094E00E94E50B8FE094E00E94E5
:101E7000140C872D0E946C07B1016519710961323C
:101E8000710514F060E270E0613208F060E2872DC5
:101E90000E94C60A482E1092030380930203809189
:101EA00003034816E9F00115110579F48FE094E079
:101EB0000E94A50BE981FA819B81E90FF11D97FD35
:101EC000FA9580839F5F9B83EACF0E94220A6C1958
:101ED0007D098E099F09681579058A059B0530F3F0
:101EE0008C81813208F080E2580EB3CF01151105C4
:101EF000C1F00E94220A6C197D098E099F0930E009
:101F000020E0601771078207930758F02B81822F1A
:101F1000220F990B2C812817190619F014F08FEF56
:101F20008B838B810F900F900F900F90DF91CF914B
:101F30001F910F91FF90EF90DF90CF90BF90AF90E7
:101F40009F908F907F906F905F904F903F902F90D9
:101F500008950F931F93CF93DF93C1E2D5E008EE6E
:101F600013E022E235E042E062E788810E94020F3E
:101F700089819A81982789279827DF91CF911F918E
:101F80000F910895CF92DF92EF92FF920F931F93DC
:101F9000CF93DF931F92CDB7DEB7F82EE62EC42E77
:101FA000D22E08EE13E09E012F5F3F4F41E00E94CA
:101FB000020F81E090E001C0880FCA94EAF74981DE
:101FC000DD2081F0482B49836E2D8F2D0E945D0D01
:101FD0000F90DF91CF911F910F91FF90EF90DF90C5
:101FE000CF90089580954823EECF0F931F93CF9302
:101FF000DF931F92CDB7DEB708EE13E09E012F5F8F
:102000003F4F41E065E7809121050E94020F882340
:1020100039F089818E7790E0959587958093220598
:10202000809122050F90DF91CF911F910F9108951C
:10203000BF92CF92DF92EF92FF920F931F93CF93B5
:10204000DF931F92CDB7DEB7F82EE62EC42EB22E48
:10205000D02E08EE13E09E012F5F3F4F41E00E941B
:10206000020F882371F18C2D8B19990BAC014F5FF6
:102070005F4F81E090E002C0880F991FBA94E2F7A9
:102080000197042E01C0880F0A94EAF70D2D01C0B4
:10209000000F4A95EAF7482F4095998149238023FC
:1020A000482B49836E2D8F2D0E945D0D0F90DF917F
:1020B000CF911F910F91FF90EF90DF90CF90BF9045
:1020C000089580E0F3CF1F93CF93DF93EC01162F99
:1020D00088810E946C0789819A81DC01ED91FC91D5
:1020E0000190F081E02D612F099589819A810E94EC
:1020F000140C61E088810E94C60A10920303809349
:10210000020389819A81DC01ED91FC910284F385BF
:10211000E02D0995DF91CF911F9108958F929F92A5
:10212000AF92BF92CF92DF92EF92FF92CF93C82FE0
:1021300090E080E00E9442366B017C016EEF8EEEF3
:1021400094E00E946310682F70E06F5F7F4F90E013
:1021500080E00E94423620E034E244E759E40E94E5
:10216000A3364B015C016091F1047091F2048091FF
:10217000F3049091F4040E9442369B01AC01C50126
:10218000B4010E94F5389B01AC01C701B6010E9461
:10219000F5380E946E39AB016C2F8EEE94E0CF9132
:1021A000FF90EF90DF90CF90BF90AF909F908F9077
:1021B0000C94BE0D0F931F93CF938C01C0E0B80118
:1021C0008C2F0E948E10CF5FC031C9F7CF911F9125
:1021D0000F9108958F929F92AF92BF92CF92DF920C
:1021E000EF92FF921F93CF93DF93EC016A017B0183
:1021F00020E030E040E85FE3CB01B6010E943D36CD
:1022000087FD7EC020E030EC4AE555E4C701B60109
:102210000E94033A18163CF4C12C30ECD32E3AE558
:10222000E32E35E4F32E6B817C818D819E810E94AB
:1022300042364B015C0120E030E040E855E4C70144
:10224000B6010E94A3369B01AC01C501B4010E94F6
:10225000F53820E030E040E05FE30E94123820E0F3
:1022600030E040E85FE30E9411386B017C0120E020
:1022700030E040E450E40E943D3687FD48C020E055
:1022800030E04FE753E4C701B6010E94033A181645
:1022900034F4C12CD12C9FE7E92E93E4F92E60E0B1
:1022A000CE010E946310182F482F4F76406160E0E6
:1022B000CE010E946D0DC701B6010E946E39462FF6
:1022C0006EEFCE010E946D0D412F60E0CE010E94A5
:1022D0006D0D65E070E080E090E00E94EF09412F15
:1022E000406A60E0CE01DF91CF911F91FF90EF90A7
:1022F000DF90CF90BF90AF909F908F900C946D0D1A
:10230000C12CD12C20E8E22E2FE3F22E8CCFC12C51
:10231000D12C80E4E82EFE2CC2CFFC0101900020DD
:10232000E9F73197AF01481B590BBC0182E793E0F5
:102330000C94D70784E591E00C948D11CF93DF9333
:102340000E94C908EC010E949A118C0F9D1FDF9119
:10235000CF910895CF93DF930E94C408EC010E94AF
:102360009A118C0F9D1FDF91CF910895CF93DF932A
:10237000FC01448155816081718182E793E00E9474
:10238000D707EC010E949A118C0F9D1FDF91CF910E
:1023900008958F929F92AF92BF920F931F93CF9306
:1023A000DF93CDB7DEB7A1970FB6F894DEBF0FBEAF
:1023B000CDBF19A2423008F44AE08E010F5D1F4FD5
:1023C000842E912CB12CA12CA50194010E94E03700
:1023D000E62FB901CA01EA30F4F4E05DD801EE93CA
:1023E0008D01232B242B252B79F790E080E010978B
:1023F00019F0CD010E948D11A1960FB6F894DEBFA1
:102400000FBECDBFDF91CF911F910F91BF90AF90C5
:102410009F908F900895E95CE1CFCF92DF92EF9289
:10242000FF92C12CD12C76014AE0C701B6010E946F
:10243000C91189E00E94C4088FEFC81AD80AE80AB7
:10244000F80A80E1C816D104E104F10469F7FF90AD
:10245000EF90DF90CF900C949A114F925F926F9211
:102460007F928F929F92AF92BF92CF92DF92EF9224
:10247000FF920F931F93CF936B017C01742EAC01DD
:102480009B010E94B23A882399F087E591E0CF91B1
:102490001F910F91FF90EF90DF90CF90BF90AF9082
:1024A0009F908F907F906F905F904F900C948D11C4
:1024B00046015701E894B7F82FEF3FEF4FE75FE78A
:1024C000C501B4010E94B23A81110DC02FEF3FEF58
:1024D0004FE75FE7C501B4010E943D3618161CF4B2
:1024E0008BE591E0D4CF2FEF3FEF4FE75FE4C701DB
:1024F000B6010E94033A18161CF48FE591E0C7CF8D
:102500002FEF3FEF4FE75FECC701B6010E943D366A
:1025100087FDF3CF20E030E0A901C701B6010E949A
:102520003D3610E000E087FF08C08DE20E94C4083D
:102530008C01F7FAF094F7F8F094C0E060E070E0F6
:1025400080E09FE37C1641F020E030E040E251E47F
:102550000E94F538CF5FF6CFA70196010E9412388E
:102560002B013C010E946E394B015C014AE00E9444
:10257000C9117C01E00EF11ECC23B1F1C501B401FB
:102580000E9442369B01AC01C301B2010E94113886
:102590004B015C018EE20E94C408E80EF91EC15096
:1025A00018F120E030E040E251E4C501B4010E949E
:1025B000A3362B013C010E946E394B01B12CA12C9A
:1025C0004AE0C501B4010E94C911E80EF91EC50117
:1025D000B4010E9442369B01AC01C301B2010E94CA
:1025E00011384B015C01DBCFC701CF911F910F91D7
:1025F000FF90EF90DF90CF90BF90AF909F908F9023
:102600007F906F905F904F900895FC0124813581F9
:10261000232B39F421E0FB018081882349F020E05D
:1026200007C0808191810E94F03C21E0892BB9F79D
:10263000822F0895CF93DF93EC01888199810097D1
:1026400011F00E947934198218821D821C821B822B
:102650001A82DF91CF910895FC01808191810097CA
:1026600011F00C94793408950F931F93CF93DF9357
:102670008C01EB01FC01808191810097E1F0688180
:10268000798161157105A9F0428153812C813D81C9
:102690004217530770F00E94F93C8C819D81F8012C
:1026A000958384831D821C82DF91CF911F910F91AE
:1026B00008950E94793488819981F80191838083FB
:1026C0008A819B81938382838C819D81958384837E
:1026D000198218821B821A82E5CF0C9461376F929F
:1026E0007F928F929F92AF92BF92CF92DF92EF92A2
:1026F000FF920F931F93CF93DF936C01712CD0E067
:10270000C0E085E191E00E946D13082E000C990B4A
:10271000781619060CF06DC04E018FEF881A980AD2
:10272000CE01805C9E4F0E946D13682EE82EF12C26
:10273000C70101960E94DD338C015C01CF5BDE4F47
:10274000C81BD90B8A2D801B861548F4CE018A0D33
:102750009B1D0E946D13F50181935F01F3CFE4018E
:10276000CE0DDF1D5801AE0CBF1CF5011082B60165
:10277000C8010E94F03C892B09F501151105A9F546
:10278000CE018F5B9E4F0E946D1380931103682FC3
:1027900086E193E00E949A0DCE01805C9E4FDF910E
:1027A000CF911F910F91FF90EF90DF90CF90BF904E
:1027B000AF909F908F907F906F900895F501319723
:1027C00080818C3449F4A70141505109B601C801F8
:1027D0000E94003D892B89F20115110519F0C801ED
:1027E0000E947934249673948CCFC8010E94793466
:1027F000C7CF8EE79EE00E949E118FEF9FEFCFCF55
:102800001F93CF93DF93EC010E946D13182FCE011D
:1028100001960E946D1390E0982F8827810F911DDB
:10282000DF91CF911F910895CF92DF92EF92FF92A7
:102830000F931F93CF93DF936A017B01082F10E062
:10284000C801805B9F4F880F991F0E940014BC0134
:10285000990F880B990B0E94443620E030E04AE73C
:1028600054E40E94F538A70196010E94A3366B013B
:102870007C0182E191E00E946D139AE0899FB00192
:102880001124072E000C880B990B0E944436A701D7
:1028900096010E9412386B017C0120E030E04AEF83
:1028A00053E40E94033AC4EFD1E018168CF420E000
:1028B00030E44CE155E4C701B6010E943D36C4EC5A
:1028C000D9E087FF05C0C701B6010E946739EB0157
:1028D000C8010E946D13AE01682F8EEE94E0DF9167
:1028E000CF911F910F91FF90EF90DF90CF900C94BC
:1028F000BE0D90E0C096880F991F860F911D880F1E
:10290000991F0C9400147F928F929F92AF92BF9266
:10291000CF92DF92EF92FF920F931F93CF93DF93AB
:10292000B82E6A01D62FC72F60E00E947914BC012F
:10293000990F880B990B0E9444367B018C0161E052
:102940008B2D0E947914BC01990F880B990B0E9462
:102950004436762E872E982EA92E96014D2F5C2F69
:102960000E943D3687FF71C0772D682D992D8A2DE5
:10297000272F362F492F582FB701C8010E94033A3D
:10298000181694F096014D2F5C2F672D782D892D08
:102990009A2D0E943D3676010D2F1C2F87FF04C013
:1029A000E72CF82C092D1A2DCB2DD0E06E0180E3F9
:1029B000C80ED11CCC0FDD1FCA5FDE4FB701C801A6
:1029C0000E94673979836883C601880F991F0E9426
:1029D0000014EC01C6010E946D13682F880F770B5D
:1029E000880B990B0E9444369701A8010E94A336D8
:1029F0006B017C01BE01DD0F880B990B0E944436F0
:102A00009B01AC01C701B6010E9412380E946739D0
:102A1000072E000C880B990B0E94443620E030E012
:102A2000A9010E941238AB01BC018B2DDF91CF911F
:102A30001F910F91FF90EF90DF90CF90BF90AF90DC
:102A40009F908F907F900C9414147C2D6D2DCE014F
:102A50008FCF2F923F924F925F926F927F928F9281
:102A60009F92AF92BF92CF92DF92EF92FF920F931D
:102A70001F93CF93DF93CDB7DEB72E970FB6F894A1
:102A8000DEBF0FBECDBF5C016A017B0120E030E0FC
:102A9000A901CB01B6010E943D369501205E3F4F52
:102AA00039011816B4F183E691E00E948D110E945D
:102AB0009A1183013FE03983D8017E916E918D0197
:102AC000072E000C880B990B0E944436AB01BC0109
:102AD00089810E948314B981B150B983BF3F61F7E6
:102AE0002E960FB6F894DEBF0FBECDBFDF91CF910B
:102AF0001F910F91FF90EF90DF90CF90BF90AF901C
:102B00009F908F907F906F905F904F903F902F900D
:102B1000089580E290E00E94DD338C0186E0882EEB
:102B200081E0982E9801F50170E060E0D4018D916C
:102B30009D914D0141915191841B950BD9018D932C
:102B40009D939D0197FF03C0919581959109681709
:102B500079070CF4BC01E615F70541F7072E000CC8
:102B6000880B990B0E944436A70196010E94F53804
:102B70006B017C0120E030E0A9010E94033A20E0D3
:102B800030E040E05FE387FD91C0C701B6010E94DD
:102B900012380E9467397E876D87D12CC12C8D85B4
:102BA0009E85092E000CAA0BBB0B89879A87AB87E1
:102BB000BC87AD85BE85AC15BD050CF47CC0480155
:102BC0001501F12CC6010D2C000CAA0BBB0B8D833B
:102BD0009E83AF83B887D1016D917D911D01072E32
:102BE000000C880B990B0E9444362B013C01ED85AB
:102BF000FE8520E030E0A901EF2B09F443C06D8190
:102C00007E818F8198850E9444362BED3FE049E418
:102C100050E40E94A33669837A838B839C83698501
:102C20007A858B859C850E9444369B01AC01698125
:102C30007A818B819C810E94F5380E94F03820E0D7
:102C400030E040E85FE30E94123820E030E040E0EE
:102C50005FE30E94A33669837A838B839C83D401CC
:102C60006D917C91072E000C880B990B0E944436C5
:102C70009B01AC0169817A818B819C810E94A33682
:102C80009B01AC01C301B2010E941238AB01BC012F
:102C90008F2D0E948314F394B2E08B0E911CE0E11F
:102CA000FE1299CFFFEFCF1ADF0A83CFC701B6011B
:102CB0000E9411386ECF0115110509F411CFC8011A
:102CC0002E960FB6F894DEBF0FBECDBFDF91CF9129
:102CD0001F910F91FF90EF90DF90CF90BF90AF903A
:102CE0009F908F907F906F905F904F903F902F902C
:102CF0000C9479342F923F924F925F926F927F9211
:102D00008F929F92AF92BF92CF92DF92EF92FF92FB
:102D10000F931F93CF93DF93CDB7DEB72F970FB6E7
:102D2000F894DEBF0FBECDBF4C016D8369017A01FF
:102D3000202F30E03A83298320E030E0A901C70149
:102D4000B6010E943D3618161CF183E691E00E9400
:102D50008D110E949A111FE0812F012E000C990BFA
:102D6000A981BA818A179B070CF41EC1880D991D91
:102D7000FC016081062E000C770B880B990B0E94DA
:102D80004436AB01BC01812F0E9483141150E4CF63
:102D900080E190E029813A81821B930B811530E418
:102DA000930780F5880F991F009779F10E94DD3312
:102DB0005C01E981FA81EE0FFF1FCF018A5F9E4F10
:102DC0003C012501D401402F70E060E0403100F566
:102DD000F301819191913F012D915D812503900136
:102DE0001124821B930BF201819391932F0197FF82
:102DF00003C0919581959109681779070CF4BC017E
:102E00004F5FE4CF8FEF9FEFD1CF81E090E0CECF47
:102E1000072E000C880B990B0E944436A7019601DF
:102E20000E94F5386B017C0120E030E0A9010E948E
:102E3000033A20E030E040E05FE387FD8BC0C7014C
:102E4000B6010E9412380E9467391B011F861E8638
:102E5000CB01770FAA0BBB0B8A879B87AC87BD87FB
:102E6000AE85BF852A163B060CF480C0BA82A982C3
:102E70009C828B82102FCD01092E000CAA0BBB0B5C
:102E80008E839F83A887B987103108F068C0AB8113
:102E9000BC816D91BC83AB832D816203B001112491
:102EA000072E000C880B990B0E9444366B017C01A5
:102EB00020E030E0A90121143104E1F16E817F812D
:102EC000888599850E9444362BED3FE049E450E423
:102ED0000E94A3362B013C016A857B858C859D85EC
:102EE0000E9444369B01AC01C301B2010E94F53837
:102EF0000E94F03820E030E040E85FE30E941238A2
:102F000020E030E040E05FE30E94A3362B013C016B
:102F1000A981BA816D917C91072E000C880B990BC9
:102F20000E9444369B01AC01C301B2010E94A3364A
:102F30009B01AC01C701B6010E941238AB01BC0174
:102F4000812F0E9483141F5FE981FA813296FA83F0
:102F5000E9839ACFC701B6010E94113874CF2E853C
:102F60003F852F5F3F4F3F872E877ACFA114B10453
:102F7000D9F0C5012F960FB6F894DEBF0FBECDBFB6
:102F8000DF91CF911F910F91FF90EF90DF90CF9045
:102F9000BF90AF909F908F907F906F905F904F9079
:102FA0003F902F900C9479342F960FB6F894DEBF93
:102FB0000FBECDBFDF91CF911F910F91FF90EF908A
:102FC000DF90CF90BF90AF909F908F907F906F9049
:102FD0005F904F903F902F9008950F930E94760737
:102FE0001092050310920403EDE0F3E02581368191
:102FF0004781508502896685838994890E947A1663
:103000000F910895CF92DF92EF92FF920F931F934B
:10301000CF93DF938C01FC0101900020E9F73297F8
:1030200080818C3409F4F2C0823509F0F1C087EE5A
:1030300080931003C8010E946F13EC01CF3FDC079F
:1030400009F430C1CE010E946D13F82ECE01029614
:103050000E940014EC01E9E4FE12DCC00E948F0E15
:103060000E9476076DE671E0C8010E94F03C892B52
:1030700009F4EAC080911103813009F0E5C00E9493
:103080004E3524E630E040E050E00E9477370E9461
:10309000443620E030E040E251E40E94F53820E080
:1030A00030E040EA50E40E9411386093FE027093D1
:1030B000FF028093000390930103C090FE02D09022
:1030C000FF02E0900003F0900103D0E0C0E0009127
:1030D0002003109121030C0F1D1FF8016081062EA3
:1030E000000C770B880B990B0E944436A7019601C0
:1030F0000E9412380E946739F80160832196C0311E
:10310000D10529F78091110382300CF4A6C080917B
:10311000100387FFB1C08091170390911803919518
:1031200081959109909318038093170390E080E0B4
:1031300040911103242F042E000C330B37FF03C0E2
:10314000319521953109821793070CF095C04230D3
:103150001CF540911603489F9001499F300D1124A2
:10316000E0912003F0912103E20FF31F20812195CC
:10317000208320911603289FF001299FF00D112430
:103180009F012E5F3F4FE0912003F0912103E20F5A
:10319000F31F2081219520832091110360E02230CC
:1031A0000CF462E0E62FF0E02091110322300CF4E1
:1031B00082C024E030E04091200350912103E217C7
:1031C000F3070CF07BC09F01220F331F7091160391
:1031D000789FF001799FF00D1124E20FF31FE40FA7
:1031E000F51F40815181508350911603589FD001A3
:1031F000599FB00D1124E0912003F0912103E20FBB
:10320000F31FEA0FFB1F41836F5FCCCF89E110CF23
:1032100080E00ECF6091110386E193E00E949A0D49
:1032200020913A0530913B05D901C21BD30BFE0119
:10323000EA0FFB1FAD01421B530B481759070CF057
:103240000FCFE491ED93F3CF1092FE021092FF02A4
:10325000109200031092010330CF0E944E3524E6F5
:1032600030E040E050E00E94773760FF05C0809179
:10327000FD02833609F04FCF10920503109204032C
:1032800020911203309113034091140350911503C0
:1032900000911F0360911B038091200390912103F3
:1032A0000E947A16DF91CF911F910F91FF90EF90BE
:1032B000DF90CF90089528E030E07DCF019638CFA1
:1032C0000F931F93CF93DF93EC018B010E94613723
:1032D000081721F0602FCE010E9469372196CE0198
:1032E0000E946137181721F0612FCE010E946937C3
:1032F0006AE070E080E090E0DF91CF911F910F9144
:103300000C94EF090F931F93CF93DF93EC01888107
:103310009981009759F02A813B812617370730F0B1
:1033200081E0DF91CF911F910F9108958B016F5F25
:103330007F4F0E94153C009759F0998388831B8327
:103340000A832C813D81232B59F7FC011082E8CFA1
:1033500080E0E7CFEF92FF920F931F93CF93DF931D
:103360006115710541F480E0DF91CF911F910F91BC
:10337000FF90EF90089541155105B1F07B01EC01EC
:103380000C811D81040F151FB8010E94821988232A
:1033900051F3288139818C819D81B701820F931F60
:1033A0000E94F93C1D830C8381E0DECFEF92FF92F7
:1033B0000F931F93CF93DF93EC017B018A01BA0136
:1033C0000E94821981110BC0CE010E941A13CE01F6
:1033D000DF91CF911F910F91FF90EF9008951D8382
:1033E0000C83B701888199810E94F93CF0CFFB01E1
:1033F000DC0111961C921E9213961C921E9212973B
:1034000015961C921E9214978617970759F06081A3
:1034100071816115710521F0448155810C94D61993
:103420000C941A130895FB0101900020E9F73197DD
:10343000AF01461B570B0C94D6190F931F93CF93D4
:10344000DF93CDB7DEB762970FB6F894DEBF0FBE3D
:10345000CDBF8C01CB01F801118210821382128240
:10346000158214824AE0BE016F5F7F4F0E940036D2
:10347000BE016F5F7F4FC8010E94131A62960FB69C
:10348000F894DEBF0FBECDBFDF91CF911F910F919A
:103490000895FC0111821082138212821582148217
:1034A000FB0101900020E9F73197AF01461B570B54
:1034B0000C94D619EF92FF920F931F93CF93DF9343
:1034C00000D0CDB7DEB78C01E62E66E971E00E9430
:1034D000491A0E942E0A0E2C000CFF0897FD10C0FE
:1034E0008E159F0569F089831A8241E050E0BE0184
:1034F0006F5F7F4FC8010E94AA190E942E0AEECF6B
:10350000C8010F900F90DF91CF911F910F91FF9005
:10351000EF900895EF92FF920F931F93CF93DF9355
:10352000EC018B01198218821B821A821D821C8277
:10353000CB010E94CB357C01BC01CE010E948219D7
:10354000811109C0CE01DF91CF911F910F91FF90A2
:10355000EF900C941A13FD82EC82B8018881998156
:10356000DF91CF911F910F91FF90EF900C94C43594
:1035700085ED8093BC0080916A0390916B03A091CC
:103580006C03B0916D030796A11DB11D23E0B695A4
:10359000A795979587952A95D1F72091BC0024FD92
:1035A00003C010926803089540916A0350916B0321
:1035B00060916C0370916D03452B462B472B69F38B
:1035C0000097A105B10541F02AE22A95F1F700C064
:1035D0000197A109B109E1CF809169030C94A50A73
:1035E0004F925F926F927F928F929F92AF92BF9213
:1035F000CF92DF92EF92FF920F931F93CF93DF93BF
:10360000CDB7DEB7E8970FB6F894DEBF0FBECDBFDB
:1036100080903205909033050E94CA092B013C012D
:103620005401BB240E94A90F6C01A816B9060CF026
:1036300057C0893C910584F121E042E06AE680911F
:1036400021050E94C20F0E94A90F6C01892B09F06D
:103650004BC00E94CA096419750986099709693F18
:103660007A428105910578F380E0E8960FB6F894E8
:10367000DEBF0FBECDBFDF91CF911F910F91FF90A5
:10368000EF90DF90CF90BF90AF909F908F907F9002
:103690006F905F904F9008950E94A90F6C01A8163B
:1036A000B906F4F47C01EA18FB08670181E2E81628
:1036B000F1041CF080E2C82ED12CCC2079F008EE69
:1036C00013E09E012F5F3F4F4C2D64E78091210551
:1036D0000E94020FEC18FD0841F7DECF1982FACFE5
:1036E000C114D10409F4C0CF0E94CA096419750934
:1036F00086099709693F7A428105910508F0B4CFA0
:10370000AC14BD0409F08ECF882009F4FAC108EE8C
:1037100013E02AEA31E0482D64E7809121050E94F8
:10372000020F6090AE017090AF017624672476247A
:103730008090B2019090B301982489249824A0909D
:10374000B601B090B701BA24AB24BA246091AA01A3
:103750007091AB01762767277627072E000C880B20
:10376000990B0E94443620E030E040E858E30E9484
:10377000A3366B017C01C0921105D0921205E09234
:103780001305F0921405B301770C880B990B0E9476
:10379000443620E030E040E858E30E94A3362B0195
:1037A0003C014092150550921605609217057092E3
:1037B0001805B401990C880B990B0E94443620E03F
:1037C00030E040E858E30E94A33669A37AA38BA3B4
:1037D0009CA36093190570931A0580931B05909321
:1037E0001C05B501BB0C880B990B0E94443620E0E8
:1037F00030E040E858E30E94A3366DA37EA38FA378
:1038000098A760931D0570931E0580931F059093E4
:1038100020059B01AC01C301B2010E94A3364B01FC
:103820005C0129A13AA14BA15CA1C701B6010E948C
:10383000A3369B01AC01C501B4010E9411389B0164
:10384000AC010E9412386DA77EA78FA798AB60933A
:103850000505709306058093070590930805A3015D
:103860009201C701B6010E94A3364B015C012DA154
:103870003EA14FA158A569A17AA18BA19CA10E944C
:10388000A3369B01AC01C501B4010E9412389B0113
:10389000AC010E94123869A77AA78BA79CA76093F6
:1038A000090570930A0580930B0590930C05A701F9
:1038B0009601C701B6010E94A3364B015C01A3012A
:1038C0009201C301B2010E94A3369B01AC01C50164
:1038D000B4010E9411384B015C0129A13AA14BA10E
:1038E0005CA1CA01B9010E94A3369B01AC01C501CC
:1038F000B4010E9411384B015C012DA13EA14FA1E2
:1039000058A5CA01B9010E94A3369B01AC01C501AB
:10391000B4010E9412384B015C0180920D05909217
:103920000E05A0920F05B0921005A7019601C701E0
:10393000B6010E94123869AB7AAB8BAB9CABA3018A
:103940009201C301B2010E9412386DAB7EAB8FAB06
:1039500098AFA701960169A97AA98BA99CA90E9491
:10396000A3366B017C01A30192016DA97EA98FA9E9
:1039700098AD0E94A3369B01AC01C701B6010E941D
:10398000123820E030E040E85FE30E9411386B011C
:103990007C0129A13AA14BA15CA16DA97EA98FA9A7
:1039A00098AD0E94A3362B013C012DA13EA14FA151
:1039B00058A569A97AA98BA99CA90E94A3369B0145
:1039C000AC01C301B2010E941138A70196010E9407
:1039D000913860939B0270939C0280939D02909318
:1039E0009E0229A53AA54BA55CA5CA01B9010E9472
:1039F000A3366B017C01A5019401C501B4010E94AD
:103A0000A3369B01AC01C701B6010E9412380E9487
:103A10006E3A9B01AC016DA57EA58FA598A90E9469
:103A200091386B017C01C0929F02D092A002E0927B
:103A3000A102F092A202A501940169A57AA58BA525
:103A40009CA50E9491386093A3027093A402809376
:103A5000A5029093A60220E030E0A901C501B401BF
:103A60000E943D3687FF1AC020E030E0A901C7015F
:103A7000B6010E94033AA701960118160CF044C043
:103A80006BED7FE089E490E40E94113860939F021F
:103A90007093A0028093A1029093A2020BE912E01E
:103AA000F80161917191819191918F017F01F4E011
:103AB000EF1AF10820EE3EE245E652E40E94A336FA
:103AC000D7016D937D938D939C931397B2E0073A42
:103AD0001B0731F76091A3027091A4028091A502A7
:103AE0009091A6029F7711E020E030E044EB52E491
:103AF0000E94033A18160CF010E01093E70281E0E0
:103B0000B4CD1092AA010DCE6BED7FE089E490EC6C
:103B1000BBCF2F923F924F925F926F927F928F9284
:103B20009F92AF92BF92CF92DF92EF92FF920F934C
:103B30001F93CF93DF93CDB7DEB766970FB6F89498
:103B4000DEBF0FBECDBF69877A878B879C872D87A5
:103B50003E874F87588BC801EE8A10E088248A94EC
:103B6000982C540168E4462E68EE562E6624639421
:103B7000712C05E07DE6272E71E0372E9C01990F10
:103B8000440B550B298B3A8B4B8B5C8B6D857E855B
:103B90008F8598890E946E396D837E838F83988785
:103BA00020E030E0A90169857A858B859C850E949B
:103BB0003D36882309F499C129853A854B855C8572
:103BC00063E67CE987E89FE30E94103A20E030ED4D
:103BD00042E854E40E94A3360E946E396B01809142
:103BE0000001853009F06AC0E4EAF1E0F491FD8B50
:103BF000F7FDD9C161E085E00E948709FD89FF23B7
:103C000021F02D89223009F024C1F12CE12C60E053
:103C100072E18AE790E0A70196010E947737298335
:103C20003A834B835C83DA01C9010197A109B10989
:103C30008F3F9105A105B10509F00CF4F0C060E4D7
:103C400072E48FE090E0A70196010E94773721503F
:103C50003109410951098D89823009F0A2C082E001
:103C60002F3F31054105510509F00CF48CC160E985
:103C700070ED83E090E0A70196010E947737215014
:103C800031094109510983E02F3F310541055105B3
:103C900009F00CF478C1C301B201A70196010E949A
:103CA000773721503109410951092F3F310541052D
:103CB000510511F00CF092C084E065C18F3F09F00E
:103CC00072C100930001E4EAF1E0F491FD8BFF3F43
:103CD00009F469C1F13029F158F0F23009F43FC01C
:103CE0003D8937FD60C161E085E00E94870989CF89
:103CF00014BC15BC84B5826084BD85B5816085BD6A
:103D0000F1018491E82FF0E0EE0FFF1FE25AFE4F21
:103D100085919491E1E8F1E084918093A1011D8A5D
:103D200069CF10928000109281008091810088609C
:103D30008093810080918100816080938100F101F6
:103D40008491E82FF0E0EE0FFF1FE25AFE4F8591BD
:103D50009491E1E8F1E084918093A0014BCF10921F
:103D6000B0001092B1008091B00082608093B000EA
:103D70008091B10081608093B100F1018491E82FBE
:103D8000F0E0EE0FFF1FE25AFE4F85919491909361
:103D9000580280935702E1E8F1E084918093590240
:103DA00029CF2F3F31054105510509F00CF44FC0D3
:103DB000C301B201A70196010E9477372150310952
:103DC000410951099D89992309F4AFC02F3F31055D
:103DD0004105510511F00CF0B0C06ECF64E274EFF4
:103DE00080E090E0A70196010E94773721503109C9
:103DF0004109510985E02F3F31054105510509F081
:103E000008F4C1C062E17AE780E090E0A701960182
:103E10000E94773721503109410951099DC09C0109
:103E200081E0FD89F111AFC095B5987F892B85BDE3
:103E300027BD8092A6019092A701A092A801B092FE
:103E4000A90180916E00826080936E00ACC082E018
:103E5000E8CFF12CE12C60E072E18AE790E0A70165
:103E600096010E947737215031094109510991E0AB
:103E70002115310581E0480751055CF0C301B2010D
:103E8000A70196010E947737215031094109510954
:103E900093E0ED89E13009F07CC080918100887F5A
:103EA000892B809381003093890020938800809231
:103EB000A2019092A301A092A401B092A5018091C9
:103EC0006F00826080936F006EC02093B300809279
:103ED0005A0290925B02A0925C02B0925D028091C5
:103EE00070008260809370005EC06D817E818F81E2
:103EF00098850E94EF0957C084E02F3F31054105A6
:103F0000510509F008F490CF29813A814B815C81F9
:103F10008AE055954795379527958A95D1F7215091
:103F200031094109510985E07FCF83E02F3F3105F9
:103F30004105510509F00CF477CF62E17AE780E0A2
:103F400090E0A70196010E9477372150310941097D
:103F50005109ED89EE2381F286E02F3F31054105BD
:103F6000510589F080F029813A814B815C819AE08A
:103F700055954795379527959A95D1F72150310951
:103F80004109510987E09091B100987F892B809376
:103F9000B100FD89F13009F486CFF23009F495CFF4
:103FA000FF2309F445CF6D817E818F8198850E9422
:103FB000EF0985E00E945B0969897A898B899C8970
:103FC0000E94EF091F5F2E892113E0CD66960FB680
:103FD000F894DEBF0FBECDBFDF91CF911F910F913F
:103FE000FF90EF90DF90CF90BF90AF909F908F9019
:103FF0007F906F905F904F903F902F9008954F92D9
:104000005F926F927F928F929F92AF92BF92CF9268
:10401000DF92EF920F931F93CF93DF93D82E192F38
:104020000E946D138695CD2DD12FB12CA12CC82EB9
:10403000D12C88EE882E83E0982E2197AC14BD04F5
:104040004CF5CE018C199D090E946D13782ECE017E
:104050000E946D13182F672D70E0C4010E94D83B99
:10406000072E000C880B990B0E9444362B013C0153
:10407000612F70E090E080E00E944236EE24E394ED
:1040800010E000E0A30192010E94891D8FEFA81AA1
:10409000B80AD3CFDF91CF911F910F91EF90DF90AE
:1040A000CF90BF90AF909F908F907F906F905F90D8
:1040B0004F9008951F920F920FB60F9211242F93D5
:1040C0003F934F935F936F937F938F939F93AF93A0
:1040D000BF93EF93FF9380915A0290915B02A0915E
:1040E0005C02B0915D02892B8A2B8B2BD1F19091D0
:1040F0005902E0915702F09158028081892780830C
:1041000080915A0290915B02A0915C02B0915D0295
:10411000181619061A061B069CF480915A029091F3
:104120005B02A0915C02B0915D020197A109B10907
:1041300080935A0290935B02A0935C02B0935D025D
:10414000FF91EF91BF91AF919F918F917F916F916F
:104150005F914F913F912F910F900FBE0F901F9045
:104160001895809100010E945B09EACF1F920F927F
:104170000FB60F9211242F933F934F935F936F933A
:104180007F938F939F93AF93BF93EF93FF9382E7B8
:1041900093E00E945508FF91EF91BF91AF919F91DD
:1041A0008F917F916F915F914F913F912F910F90E0
:1041B0000FBE0F901F9018951F920F920FB60F927F
:1041C00011242F938F939F93EF93FF93E09182039A
:1041D000F09183038081E0918803F091890382FD4F
:1041E0001BC0908180918B038F5F8F7320918C0314
:1041F000821741F0E0918B03F0E0EE58FC4F958F71
:1042000080938B03FF91EF919F918F912F910F904E
:104210000FBE0F901F9018958081F4CF1F920F92C0
:104220000FB60F9211242F933F938F939F93AF93C9
:10423000BF9380914F0290915002A0915102B09192
:10424000520230914E0223E0230F2D3758F501968C
:10425000A11DB11D20934E0280934F0290935002F6
:10426000A0935102B0935202809153029091540254
:10427000A0915502B09156020196A11DB11D8093E7
:10428000530290935402A0935502B0935602BF91EB
:10429000AF919F918F913F912F910F900FBE0F90F3
:1042A0001F90189526E8230F0296A11DB11DD2CFAD
:1042B0001F920F920FB60F9211242F933F934F939B
:1042C0005F936F937F938F939F93AF93BF93EF937E
:1042D000FF938091B900887F803609F44AC0F0F5D9
:1042E000883209F4A7C018F5803109F49BC0B8F4EE
:1042F000882309F4F9C0883009F494C0FF91EF9144
:10430000BF91AF919F918F917F916F915F914F91ED
:104310003F912F910F900FBE0F901F9018958831ED
:1043200009F488C0803251F78093460314C080346A
:1043300009F49DC040F48033B9F38833F9F68093D3
:10434000460385ECB0C0803509F485C0883509F492
:1043500096C0883499F60E94B81AD0CF883909F4EB
:104360008CC038F5883729F050F4883611F0803742
:1043700029F683E08093680310924D0257C0883875
:1043800009F47BC0803919F0803809F0B7CF8091EB
:104390004D02803208F071C0E0914D0281E08E0F35
:1043A00080934D028091BB00F0E0E35DFD4F808380
:1043B0003DC0803B39F0E0F4803A09F479C0883A96
:1043C00009F09CCF84E08093680310922C02109235
:1043D0002B02E0917102F0917202099580912B02FB
:1043E00081110FC081E080932B0210920B0209C053
:1043F000803C09F4A6CF883C09F4A3CF883B09F0A0
:104400007DCFE0912C0281E08E0F80932C02F0E0B2
:10441000E55FFD4F80818093BB0090912C028091DD
:104420002B0229C0809143038093BB0085EC8093CD
:10443000BC0064CF9091450380914403981758F5D0
:10444000E091450381E08E0F80934503F0E0EE5D3F
:10445000FC4F8081E9CFE091450381E08E0F80938E
:1044600045038091BB00F0E0EE5DFC4F80839091AE
:104470004503809144039817C8F285E8D8CFE091AE
:10448000450381E08E0F809345038091BB00F0E0EF
:10449000EE5DFC4F80838091470381115CCF81E00A
:1044A0008093420384EA8093BC001092680326CF75
:1044B00085EC8093BC001092680380914D0280329D
:1044C00030F4E0914D02F0E0E35DFD4F1082609129
:1044D0004D0270E0E0917302F09174028DE292E07F
:1044E000099510924D020ACF1092460334CF1F92C5
:1044F0000F920FB60F9211242F933F934F935F9318
:104500006F937F938F939F93AF93BF93CF93DF93DB
:10451000EF93FF9320911C0430E0F901E057FE4F28
:104520008491F901E458FE4FD491F901E859FE4F06
:10453000C491CC2379F081110E940409EC2FF0E0A2
:10454000EE0FFF1FE65BFE4FA591B491EC91ED23BA
:1045500081E009F480E020912104309122042F5F52
:104560003F4F309322042093210420911F04309167
:1045700020042536310518F094E090931B049091A7
:104580001B04911130C0811169C020912104309128
:1045900022042436310528F41092220410922104BA
:1045A0005DC01092ED041092200410921F0420911F
:1045B0001F0430912004A9014F5F5F4F50932004E6
:1045C00040931F044091210450912204220F331F75
:1045D000F901ED5DFB4F518340831092220410924C
:1045E000210491E021C090911B04913001F58130AC
:1045F000A9F520911F0430912004A9014F5F5F4F5E
:104600005093200440931F044091210450912204B0
:10461000220F331FF901ED5DFB4F51834083109250
:1046200022041092210492E090931B0417C09091F1
:104630001B04923061F4882309F4B9CF209121043E
:10464000309122042536310548F093E0EDCF90916A
:104650001B04933099F4882309F49ECF90911E0493
:104660009923A9F0811126C080911D04882371F03F
:1046700080911D0461E00E942D0909C090911B04E6
:10468000943061F791E09093ED04DFCF2D9AFF9184
:10469000EF91DF91CF91BF91AF919F918F917F91DA
:1046A0006F915F914F913F912F910F900FBE0F909F
:1046B0001F90189580911D04882321F080911D047E
:1046C00060E0D9CF2D98E3CFCF93DF93E2E7F3E01B
:1046D0001382128288EE93E0A0E0B0E08483958399
:1046E000A683B78324E331E03183208325EC30E0D7
:1046F0003587248724EC30E03787268720EC30E0AC
:10470000318B208B21EC30E0338B228B22EC30E09C
:10471000358B248B26EC30E0378B268B118E128E56
:10472000138E148ECFE0D4E01B821A828C839D837B
:10473000AE83BF8386E491E0998388838AE090E02A
:104740000E94DD3390933F0580933E0582E090E028
:104750000E94DD3390933D0580933C0582EC91E00F
:104760000E94DD3390933B0580933A05EBE1F4E042
:1047700084E08183138263E771E084E395E00E9423
:10478000491A88E680932105E1E1F5E080E090E0B8
:10479000A0E8BFE380839183A283B3831482158250
:1047A0001682178210861186128613861486158645
:1047B00016861786E5E0F5E01082118212821382D8
:1047C000148215821682178210861186128613862D
:1047D000E4EFF4E081E1DF011D928A95E9F7EEEE66
:1047E000F4E080E48083D283C183DF91CF91089588
:1047F000CF93DF93CDB7DEB7EC970FB6F894DEBF5B
:104800000FBECDBF789484B5826084BD84B58160CD
:1048100084BD85B5826085BD85B5816085BD80918B
:104820006E00816080936E00109281008091810003
:1048300082608093810080918100816080938100FB
:10484000809180008160809380008091B1008460BD
:104850008093B1008091B00081608093B00080911E
:104860007A00846080937A0080917A0082608093DD
:104870007A0080917A00816080937A0080917A003A
:10488000806880937A001092C100E0918203F091D9
:10489000830382E08083E0917E03F0917F031082A6
:1048A000E0918003F091810380E1808310928A037C
:1048B000E0918603F091870386E08083E091840392
:1048C000F0918503808180618083E0918403F09181
:1048D0008503808188608083E0918403F091850363
:1048E000808180688083E0918403F09185038081DA
:1048F0008F7D808382E090E0A0E0B0E0809376033B
:1049000090937703A0937803B093790310920303F5
:104910001092020310926F0310926E030E94870A96
:1049200084ED97E0909372028093710285ED97E099
:10493000909374028093730288E08093B8008BE6B2
:104940000E94AA1164E670E080E090E00E94EF0906
:104950008DEA9DE00E949E1101E023E042E06BE6BB
:10496000809121050E94181000E022E044E06BE1F4
:10497000809121050E94181022E044E06CE18091B2
:1049800021050E94181020E046E06BE68091210589
:104990000E94C20F0E94F50F843311F08C3091F603
:1049A00011E019A321E047E06BE6809121050E9408
:1049B000C20F64E670E080E090E00E94EF0987E0BB
:1049C00089A307E023E042E06AE6809121050E9486
:1049D000181064E670E080E090E00E94EF0919A3EF
:1049E0009E012F5D3F4F41E06BE6809121050E94C3
:1049F000200D19A29E012F5D3F4F41E068E3809199
:104A000021050E94200D19A29E012F5D3F4F41E01C
:104A100063E2809121050E94200D19A29E012F5D65
:104A20003F4F41E06CE1809121050E94200D80E81C
:104A300089A39E012F5D3F4F41E067E380912105EF
:104A40000E94200D19A39E012F5D3F4F41E06BE6B0
:104A5000809121050E94200D84E089A39E012F5D95
:104A60003F4F41E069E1809121050E94200D19A38B
:104A70009E012F5D3F4F41E06AE1809121050E9438
:104A8000200D40E06DE6809121050E945D0D40E023
:104A90006EE6809121050E945D0D80E190E00E940C
:104AA000DD335C0180E190E00E94DD332C01312C8C
:104AB000E12CD12CC12C06EF202E612C772473948D
:104AC000C6014096F22CFC18873F9B4010F410E181
:104AD000F12EC3018E199109F816190619F014F078
:104AE000FE2CF194D20190E080E096012B553E4FD0
:104AF0008F1538F4F901E80FF91FE491ED93019651
:104B0000F7CF92014F2D6FE6809121050E94200D75
:104B10008F2C912CA114B10409F46EC1432D4F7157
:104B20006DE6809121050E945D0D4E2D6EE680910F
:104B300021050E945D0D08EE13E095014F2D6FE6F3
:104B4000809121050E94020FA401B501C2010E94BB
:104B5000DA3C892B09F450C1C5010E947934C201A5
:104B60000E947934FF24F394F0927002BEE5CB2EBC
:104B7000B2E0DB2E00E011E0C8010E940014D60173
:104B80008D939D936D010E5F1F4F0C30B1E01B079D
:104B900099F700915E0210915F020E94F50F66E0A6
:104BA000883308F067E7A801809121050E944C0D29
:104BB00000916002109161020E94F50F68E0883355
:104BC00008F06AE7A801809121050E944C0D009130
:104BD0006202109163020E94F50F6AE0883308F0C8
:104BE0006DE7A801809121050E944C0D409164025F
:104BF0005091650263E1809121050E944C0D409126
:104C000066025091670265E1809121050E944C0D7A
:104C1000409168025091690267E1809121050E94EC
:104C20004C0DF11004C121E047E06AE680912105B6
:104C30000E94C20FF8941092800089E08093810056
:104C400080E293E090938900809388001092850021
:104C50001092840082E080936F00789410921B047D
:104C60001092200410921F0480911C0460E00E94A6
:104C7000870964E070E084E395E00E94821961E0B6
:104C80008AE00E94870980EC9DE00E94C908AAEE94
:104C9000EA2EA2E0FA2E00E110E0C8010E946D1396
:104CA000F70181937F010F5F1F4F00321105A9F7B4
:104CB000109203031092020310926F0310926E037E
:104CC0000E94870A84ED97E09093720280937102AC
:104CD00085ED97E0909374028093730240E860E062
:104CE0008EEE94E00E946D0D6AE070E080E090E04E
:104CF0000E94EF0940E050E06AE774E48EEE94E031
:104D00000E94EA1080E498E7ADE7B1E08093F104F7
:104D10009093F204A093F304B093F40483E191E040
:104D20000E9400146C01990FEE08FF08C0927502F2
:104D3000D0927602E0927702F0927802D701C60113
:104D4000885D9945A109B109813A9F40A105B10546
:104D500008F47CC088EA91E6A0E0B0E08093750298
:104D600090937602A0937702B09378028AEB9DE04D
:104D70000E949E1120917502309176024091770237
:104D800050917802A8EEB3E00E9496376B017C0147
:104D900040E050E060E773E48EEE94E00E94EA1099
:104DA000C092F704D092F804E092F904F092FA0469
:104DB000C092F104D092F204E092F304F092F40471
:104DC0000E94F50D8EEC9DE00E949E1190E080E027
:104DD0008C010F5F1F4F805C9E4F0E946D13080F68
:104DE000111DC801805C9E4F0E946D138E3409F422
:104DF00042C0C8010496ECCFC80CD91CEF0C46EF9A
:104E0000C4164BE0D40610F00C948A33E11001C0B4
:104E10003394432D4F716DE6809121050E945D0D05
:104E20004E2D6EE6809121050E945D0D49CE8BE9E5
:104E30009DE00E94C9084AE061E070E080E090E0F7
:104E40000E94C91189E20E94AA11F4CE4AE0C7016A
:104E5000B601F7FE0BC08DE20E94C40866277727D3
:104E6000CB016C197D098E099F094AE00E94C91186
:104E700086EB9DE07DCF66E371E0C8018E5B9E4FBF
:104E80000E94601980E10E94B809BC01990F880B4B
:104E9000990B611571058105910511F00E949D35F1
:104EA0008FEF93E00E94FF1F60ED77E080E090E0DD
:104EB0000E94EF090E94F01A0E94F01A0E94F01A54
:104EC00060919F027091A0028091A1029091A20234
:104ED0009F7720E030E040EF51E40E94033A18163B
:104EE00094F06091A3027091A4028091A502909128
:104EF000A6029F7720E030E040EF51E40E94033AA1
:104F000018160CF02CC183E68093FD0282E080939A
:104F1000FC0288EE9DE00E949E1181EE9DE00E94C1
:104F20009E118AED9DE00E949E110E94220A20E1BE
:104F300037E240E050E00E94E0378091010190911B
:104F40000201092E000CAA0BBB0B82179307A407C2
:104F5000B5070CF045C0790130930201209301019F
:104F600085E10E94B8098C018A389240ACF58091A5
:104F7000790290917A020817190721F042E0E416AD
:104F8000F10454F583EF9DE00E94C908C80163E66F
:104F900070E00E94D83B6B01072E000CEE08FF0862
:104FA00077FFDFC08DE20E94C40866277727CB0118
:104FB0006C197D098E099F094AE00E94C91186E596
:104FC0000E94AA1181ED93E00E94FF1F60ED77E03F
:104FD00080E090E00E94EF0910937A02009379023A
:104FE00080910501882329F08091040380FF0E94AD
:104FF000F01A809105018823B9F18091FD02833672
:1050000099F18091E702882379F10E944E356B0176
:105010007C010E944E354B015C01C701B6012AE0BC
:1050200030E040E050E00E9477371CED160FC501DC
:10503000B4012AE030E040E050E00E94773742EDD2
:10504000460F212F6AE082E00E94030E8BE68093D8
:10505000FD0266E771E080913E0590913F050E9458
:10506000F93C8FEF8093FC02809192028111B4C0D1
:1050700083E294E0909389028093880280911F04D8
:105080009091200490938B0280938A028091ED048A
:1050900090E090938D0280938C0280911B0483306A
:1050A00009F09AC0809125049091260487589109AF
:1050B0008E35910508F08AC080911F0490912004DC
:1050C000049709F052C0809127049091280480979A
:1050D000479708F04AC08091290490912A040997C3
:1050E000099708F042C010928702109286026FEF73
:1050F0007FEFCB01609380027093810280938202E4
:105100009093830283E090E090937D0280937C02F1
:105110008091800290918102A0918202B0918302DD
:10512000892F9A2FAB2FBB27823609F4C4C108F010
:1051300098C1803309F4CEC108F07DC1803109F4F3
:10514000D2C108F026C166E37EE0823009F429C1AD
:1051500066E971E0CE0181960E94491A26C184E673
:10516000D3CE4AE0C701B60128CF80911F049091A9
:1051700020048434910550F18091270490912804F3
:10518000815491098F9710F590E080E040E050E065
:10519000BA01FC01E75DFB4F2081318129503109C3
:1051A0002930310598F4FC01E55DFB4F2081318108
:1051B000275131092231310508F4CDC020813181D8
:1051C000265031092730310508F4DEC010921B0447
:1051D0001092200410921F0482E793E00E94350889
:1051E00018161906A4F581E08093920282E080935C
:1051F000FC0282E793E00E941308182F8093FD02BF
:1052000061E070E080E090E00E94EF091B3409F05B
:105210001CC2E0903A05F0903B0510E000E082E708
:1052200093E00E943508892B51F082E793E00E94B9
:105230001308F701E00FF11F80830F5F1F4FF80184
:105240003197EE0DFF1D80818E3749F710820E9445
:10525000220A1091FC02F090FD02112309F446C2CB
:105260000E94220A6856754C8F4F9F4F60938E02A2
:1052700070938F028093900290939102153008F4FE
:10528000B1C28091FB028356823068F453E6F51672
:1052900051F088EF9BE00E94DA1081E080930501D5
:1052A00087E40E94AA118091FD02803751F080911D
:1052B000FA02811106C081E08093FA0280E70E9421
:1052C000AA111091FD02E6ECE10FEC3308F0C3C225
:1052D0000E2E000CFF0BE159F64D0C94EC3B0930FF
:1052E00004302B2C2B2C2B2C2B2C2B2C2B2C172F3A
:1052F0002B2C2B2C2B2C2B2C2B2C2B2CCA2E2B2C55
:10530000632F0A2FCA2E2B2C2B2C2B2C2B2C2B2C27
:105310004F2D532F2B2C2B2C2B2C2B2C2B2C2B2C85
:105320002B2C2B2C2B2C2B2C2B2C2B2C392D4F2D91
:105330004F2D0C302B2C2B2C1E2C2B2C4F2DA52C19
:10534000EE2F2B2C4F2D2B2CDB2C942C2B2C1E2CAE
:10535000E02C4F2D4F2D440F551F661F771F4160C6
:1053600004968038910509F014CF80E290E0909384
:10537000870280938602409380025093810260935B
:10538000820270938302BECE440F551F661F771FA3
:10539000E7CF883109F4A1C06EE37EE0823209F0E4
:1053A000D7CECE0181960E948A1A69E771E0CE01BC
:1053B00081960E940513882309F4A1C06BE771E070
:1053C00084E395E00E94131A64E375E0CE018796AA
:1053D0000E94F719CE0181960E942C1366E971E0B4
:1053E000CE0187960E94051381111AC000913E05D7
:1053F00010913F056FA178A5C8010E94F93CD80122
:105400000D900020E9F7CD0102978017910709F070
:105410001AC1F80180818093FD0281E08093FC0233
:1054200010921B041092200410921F04CE01879644
:105430000E942C13D1CE8A3409F45BC048F488331F
:1054400009F454C06AE07EE0823409F4AACF80CE29
:10545000823509F451C060E17EE08A3509F4A1CFBC
:1054600077CE823A29F188F48A37D1F130F46BE2B1
:105470007EE0883609F495CF6BCE803941F168E241
:105480007EE0883909F48DCF63CE823CB9F040F4D8
:10549000883AD1F065E27EE0803B09F482CF58CEB5
:1054A000803E79F060E47EE0823E09F47ACF50CE0F
:1054B00064E47EE076CF62E47EE073CF64E37EE076
:1054C00070CF62E37EE06DCF60E37EE06ACF6EE294
:1054D0007EE067CF62E27EE064CF6EE17EE061CF86
:1054E0006AE17EE05ECF67E17EE05BCF64E17EE073
:1054F00058CF63E07EE055CF6EEF7DE052CF6EE790
:1055000071E0CE0181960E940513811111C060E8FF
:1055100071E0CE0181960E940513811109C062E8F5
:1055200071E0CE0181960E940513882309F442C0E0
:105530008DA19EA1892B21F0E9A1FAA1309721F438
:1055400010927B02EBE7F2E0108110930301163416
:1055500071F46BE771E084E395E00E940513882302
:1055600031F063E771E084E395E00E94131A64E38D
:1055700075E0CE0101960E94F7191FA318A641E01D
:1055800050E0BE01695D7F4FCE0101960E94AA19CD
:10559000811104C0CE0101960E941A13BE016F5FF3
:1055A0007F4FCE0187960E94F719CE0101960E9487
:1055B0002C1310CF64E871E0CE0181960E94051390
:1055C00081112EC067E871E0CE0181960E9405131B
:1055D000811126C06AE871E0CE0181960E94051310
:1055E00081111EC063E771E0CE0181960E94051310
:1055F000811116C06DE871E0CE0181960E940513FD
:1056000081110EC018A61FA21AA619A61CA61BA6B9
:10561000BE016F5D7F4FCE0187960E943413DACEB4
:1056200069A17AA16115710549F04DA15EA184E3DC
:1056300095E00E94D6191091030199CF84E395E07B
:105640000E941A13F8CF8BE6E6CE82E793E00E9421
:105650003508181619060CF0FACD66E971E0CE018E
:1056600081960E94491A193449F084EB810F8230E7
:1056700028F08EEB810F6AE0823008F46EE7CE01ED
:1056800001960E945A1ABE016F5F7F4FCE0181962C
:105690000E943413CE0101960E942C132DA13EA12D
:1056A0003093E9022093E8021B3631F080913A05ED
:1056B00090913B05143721F480913E0590913F0570
:1056C00049A15AA1DC01FA01BF01641B750B6217E5
:1056D00073071CF461916D93F7CF820F931FDC0168
:1056E0001C92CE0181960E942C13B1CDB3E6FB161D
:1056F00009F476C700918E0210918F0220919002DA
:1057000030919102601B710B820B930B16161706DA
:105710001806190614F4109292028091FD028B363D
:1057200009F05EC71091110317FF1EC580911E037B
:1057300033243A94380E823008F4312C10E0212FB3
:1057400030E080911103082E000C990B97FF03C0E5
:10575000919581959109281739070CF041C7E09080
:105760002003F090210380911603189FE00CF11C98
:105770001124F7016089062E000C770B880B990B1A
:105780000E94443620E030E040E85EE30E94A33609
:105790009B01AC0100E060911B03C7010E947A16D7
:1057A000A0912003B091210380911603189FA00DB2
:1057B000B11D112452962C915297211141C4809110
:1057C0001603E0912003F0912103189FE00DF11DD5
:1057D0001124618916160CF4ADC4EEEC6E02B00112
:1057E0001124ACC4E2E6FE1609F44BCD8CE88F0D13
:1057F000823008F446CDFCE4FF1609F442CD29E4DA
:10580000F21609F43ECD43E4F41609F43ACD612FC3
:1058100070E06B5F7F4F660F771F072E000C880BC1
:10582000990B0E944436EE24E39410E000E020E05F
:1058300030E048E452E40E94891D23CD173609F078
:1058400066C08091050191E089278093050181114F
:1058500017E41093FD028091FD028B3621F49091A4
:1058600011031916D4F40E94AA111091FD02812F80
:10587000012E000C990B0E94D23C873621F0823613
:1058800011F01A3621F48091FB028B3619F01B7F40
:10589000103719F48BE68093FD0200913E051091BC
:1058A0003F0566E771E0C8010E94F03CF090FD0200
:1058B000892B09F1E9E4FE16F1F085EB8F0D8330B9
:1058C000D0F080913C0590913D05009711F00E9429
:1058D000793481E090E00E94DD33F80101900020EE
:1058E000E9F7E01BDC01EC9390933D0580933C05C8
:1058F000B8010E94F93C1092FC02F092FB028F2D3D
:10590000877F833609F409CF1092FD0206CF123744
:1059100009F0A1CF809104018195809304011816AC
:105920000CF097CF12E595CF8091FA0291E08111AA
:1059300090E09093FA02811110E51093FD02882304
:1059400009F489CF0E94F50D86CF0E940D1266E9F9
:1059500071E0CE0181960E94491A06E011E096E2BC
:10596000E92E91E0F92ED8016D917D918D01CE0146
:1059700001960E941D1A4D815E8169817A81CE0156
:1059800081960E94AA19CE0101960E942C1342E032
:1059900050E064E971E0CE0181960E94AA19E016F8
:1059A000F10609F7CE0181960E94B611CE018196CB
:1059B0000E942C1350CF86EC93E00E94FF1F4BCF28
:1059C00088E79EE00E949E110AEE802E02E0902E53
:1059D00080E4E82EF12C00E110E0F401D1904F01B9
:1059E000C8010E946137D81621F06D2DC8010E94B0
:1059F0006937C7010E9400146C01C80180960E949B
:105A00006D13B82EF40131976081062E000C770BD0
:105A1000880B990B0E9444362B013C016B2DBB0C6B
:105A2000770B880B990B0E9444369B01AC01C30194
:105A3000B2010E94A3362B013C01B601DD0C880B9C
:105A4000990B0E9444369B01AC01C301B2010E9434
:105A500012380E946739C70180960E9460190F5F53
:105A60001F4FF2E0EF0EF11C0032110509F0B5CF27
:105A7000F2CE80E79EE00E949E111AEEE12E12E027
:105A8000F12E00E110E0C8010E946D13D7018D9343
:105A90007D010F5F1F4F00321105A9F7DCCEE6E054
:105AA000F1E0DE01119686E291E0219131912D9392
:105AB0003D938E179F07C9F780913E0590913F0552
:105AC000143721F080913A0590913B0560E971E02F
:105AD0000E94D4351C012114310409F4D3C0C10142
