:100000000C942E070C9456070C9456070C94560724
:100010000C9456070C9456070C9456070C946320C6
:100020000C9456070C9456070C9456070C94802297
:100030000C9456070C9456070C9456070C945607CC
:100040000C9417210C9456070C94E5200C94BF20B7
:100050000C9456070C9456070C9456070C945607AC
:100060000C9461210C945607084AD73B3BCE016E95
:1000700084BCBFFDC12F3D6C74319ABD56833DDAFF
:100080003D00C77F11BED9E4BB4C3E916BAAAABE0E
:10009000000000803F05A84CCDB2D44EB93836A937
:1000A000020C50B9918688083CA6AAAA2ABE000074
:1000B00000803F07634236B79BD8A71A39685618A5
:1000C000AEBAAB558C1D3CB7CC5763BD6DEDFD751D
:1000D0003EF6177231BF000000803F08000000BEEE
:1000E000922449123EABAAAA2ABECDCCCC4C3E00EB
:1000F000000080BEABAAAAAA3E00000000BF00001C
:1001000000803F0000000000084178D3BB4387D146
:10011000133D190E3CC3BD4282AD2B3E68EC827686
:10012000BED98FE1A93E4C80EFFFBE01C4FF7F3FE7
:1001300000000000000001000001000000000000BD
:10014000000000000000000000000000000023008C
:100150002600290000000000240027002A000000DB
:100160000000250028002B000404040404040404F7
:100170000202020202020303030303030102040852
:100180001020408001020408102001020408102001
:100190000000000800020100000304070000000046
:1001A000000000000200F8F62A3F68F57A0006FF1A
:1001B000FE0003000000650054FFEF0000FA80001D
:1001C0000B12820001030C30C30A74562D0D62DB42
:1001D000C716F4BA023883F8833000F883258EF806
:1001E000833000F883FFFFFFFF0CBDD8112400040B
:1001F000001A8279A10036003C00000000001000C7
:100200000038836FA2003E03304000000002CAE3C2
:10021000093E8000002000000000000000400000B7
:1002200000600000001FA4E8E4FFF5DCB9005B7982
:10023000CF1F3F787600867C5A00862347FAB9861E
:10024000310074878A0000000000004305FFFFE9C9
:10025000A800002182FAB84D46FFFADF3DFFFFB249
:10026000B3000000003FFFBA98005DAC08000A63CD
:100270007800014621FFFF0000000042B5000600A3
:1002800064006400061406029F0F479132D90E9F46
:10029000C91DCF4C343BB67AE80064000600C800A4
:1002A000000000FFFE100000000000000000000041
:1002B000000000000000070000FFF10000FA460007
:1002C00000A2B800001000000004D6000004CC001A
:1002D0000004CC000000000000000000000000004E
:1002E00000000000000006000200050007000000FA
:1002F0000000640000000000000000000C00050089
:100300006400200000000000000000000000004029
:10031000000000030000000032F8980000FF6500B4
:1003200000830F000000060000FFF10000FA460005
:1003300000A2B80000000000000000000000000063
:10034000000000000000000032000000000000007B
:100350000000001000000000010000000D0000B2CD
:100360006A000200000001FB83007C0000FB15FC1A
:10037000001FB4FF83000000010065000700640354
:10038000E8006400280000FFFD0000000016A00047
:10039000000000000000001000002F00000000011D
:1003A000F40000100000280000FFFF4581FFFFFA65
:1003B000720000000000000000004400010005BAC7
:1003C000C6004778A2000000000000000000000600
:1003D0000000000014000023BB002EA25B000005FB
:1003E00068000BCF490004FFFD0002000000000080
:1003F0000200000000001B000000000000000000E0
:10040000000000000000640007000800060006FF6E
:10041000FE000000000000000000000000000000DE
:1004200000000000000000000000000000000000CC
:1004300000000000000000000000000000000000BC
:100440000000000000002EA25B00000568000BCF3A
:10045000490000000000F8F62A3F68F57A0004FF22
:10046000FD00020000001B00000000000000000072
:1004700000000E000EFFFFFFCF0004000000000090
:1004800032FFFFFF9C000043050000000000000059
:100490000100000064FFE500000000000000000013
:1004A000000000000000000001000000000001004A
:1004B00000000000000001800000018000000180B9
:1004C00000002426D3000100010000000000060007
:1004D000100096003C00000000000000000000003A
:1004E000001F9E655D0C0A4E68CDCF7709501667D8
:1004F00059C619CE82000000000000000000000074
:10050000000047711C000000000000000017D784A5
:1005100000030000000011DC4703000000C7938FB8
:100520009D1E1B1C19FFFFFFFF000000000EDFA433
:10053000381F9E655D000000000047711C02031813
:1005400085000040000000000000000003000000E3
:1005500000000000003FFFFFFDFFFFF4C9FFFFBCEC
:10056000F000010C0F00000000000000000000007F
:10057000000000000000000000000000000000007B
:100580000000000000F5B7BAB3677DDF7E72902EE1
:10059000554CF6E688000000000000000000000056
:1005A0000000000000D8DCB4B8B0D8B9ABF3F8FA5A
:1005B000B3B7BB8E9EAEF132F51BF1B4B8B08097E5
:1005C000F1A9DFDFDFAADFDFDFF2AA4CCD6CA90CD7
:1005D000C92C97F1A989264666B28999A92D557D1E
:1005E000B0B08AA896365676F1BAA3B4B280C0B835
:1005F000A89711B28398BAA3F0240844106418B2E3
:10060000B9B49883F1A329557DBAB5B1A38393F00A
:10061000002850F5B2B6AA839328547CF1B9A3827E
:100620009361BAA2DADEDFDB819AB9AEF560687059
:10063000F1DABAA2DFD9BAA2FAB9A38292DB31BA4F
:10064000A2D9BAA2F8DF85A4D0C1BBAD83C2C5C709
:10065000B8A2DFDFDFBAA0DFDFDFD8D8F1B8AAB3F6
:100660008DB4980D355DB2B6BAAF8C96198F9FA731
:100670000E161EB49AB8AA872C547CBAA4B08AB6B7
:1006800091325676B28494A4C808CDD8B8B4B0F1EB
:100690009982A82D557D98A80E161EA22C547C92E6
:1006A000A4F02C5078F184A898C4CDFCD80DDBA818
:1006B000FC2DF3D9BAA6F8DABAA6DED8BAB2B68655
:1006C00096A6D0F3C841DAA6C8F8D8B0B4B882A8C4
:1006D00092F52C548898F135D9F418D8F1A2D0F8B5
:1006E000F9A884D9C7DFF8F883C5DADF69DF83C1E9
:1006F000D8F40114F1A8824EA884F311D182F5D95F
:1007000092289788F109F41C1CD884A8F3C0F9D169
:10071000D99782F129F40DD8F3F9F9D1D982F4C22D
:1007200003D8DEDF1AD8F1A2FAF9A88498D9C7DF76
:10073000F8F8F883C7DADF69DFF883C3D8F4011467
:10074000F198A8822EA884F311D182F5D9925097FE
:1007500088F109F41CD884A8F3C0F8F9D1D997829C
:10076000F149F40DD8F3F9F9D1D982F4C403D8DEF4
:10077000DFD8F1AD8898CCA809F9D98292A8F57C88
:10078000F1883ACF944A6E98DB6931DAADF2DEF93E
:10079000D88795A8F221D1DAA5F9F417D9F1AE8E50
:1007A000D0C0C3AE82C684C3A88595C8A588F2C050
:1007B000F1F4010EF18E9EA8C63E56F554F18872F2
:1007C000F40115F19845856EF58E9E0488F14298E6
:1007D0005A8E9E068869F4011CF1981E1108D0F506
:1007E00004F11E970202983625DBF9D985A5F3C1DD
:1007F000DA85A5F3DFD88595A8F309DAA5FAD882BA
:1008000092A8F578F1881A849F26889821DAF41D39
:10081000F3D8879F39D1AFD9DFDFFBF9F40CF3D8D8
:10082000FAD0F8DAF9F9D0DFD9F9D8F40BD8F38790
:100830009F39D1AFD9DFDFF41DF3D8FAFCA869F9ED
:10084000F9AFD0DADEFAD9F88F9FA8F1CCF398DBB4
:1008500045D9AFDFD0F8D8F18F9FA8CAF38809DA5D
:10086000AF8FCBF8D8F2AD978D0CD9A5DFF9BAA62A
:10087000F3FAF412F2D8950DD1D9BAA6F3FADAA5A3
:10088000F2C1BAA6F3DFD8F1BAB2B68696A6D0CA3C
:10089000F349DAA6CBF8D8B0B4B8D8AD84F2C0DF4B
:1008A000F18FCBC3A8B2B68696C8C1CBC3F3B0B4A0
:1008B0008898A821DB718D9D71859521D9ADF2FABB
:1008C000D88597A828D9F408D8F28D29DAF405D963
:1008D000F285A4C2F2D8A88D9401D1D9F411F2D82E
:1008E0008721D8F40AD8F28498A8C801D1D9F41184
:1008F000D8F3A4C8BBAFD0F2DEF8F8F8F8F8F8F8EF
:10090000F8D8F1B8F6B5B9B08A95A3DE3CA3D9F80A
:10091000D85CA3D9F8D87CA3D9F8D8F8F9D1A5D94F
:10092000DFDAFAD8B18530F7D9DED8F830ADDADEC3
:10093000D8F2B48C99A32D557DA083DFDFDFB5916C
:10094000A0F629D9FBD8A0FC29D9FAD8A0D051D932
:10095000F8D8FC51D9F9D879D9FBD8A0D0FC79D9ED
:10096000FAD8A1F9F9F9F9F9A0DADFDFDFD8A1F8AF
:10097000F8F8F8F8ACDEF8ADDE8393AC2C547CF1DB
:10098000A8DFDFDFF69D2CDAA0DFD9FADB2DF8D85F
:10099000A850DAA0D0DED9D0F8F8F8DB55F8D8A8FE
:1009A00078DAA0D0DFD9D0FAF8F8F8F8DB7DF8D8FB
:1009B0009CA88CF530DB38D9D0DEDFA0D0DEDFD8C4
:1009C000A848DB58D9DFD0DEA0DFD0DED8A868DBAE
:1009D00070D9DFDFA0DFDFD8F1A888902C547C9895
:1009E000A8D05C38D1DAF2AE8CDFF9D8B087A8C1D4
:1009F000C1B188A8C6F9F9DA36D8A8F9DA36D8A884
:100A0000F9DA36D8A8F9DA36D8A8F9DA36D8F78D6F
:100A10009DADF818DAF2AEDFD8F7ADFA30D9A4DE22
:100A2000F9D8F2AEDEFAF983A7D9C3C5C7F1889B1E
:100A3000A77AADF7DEDFA4F8849408A797F300AE99
:100A4000F29819A488C6A39488F632DFF28393DB68
:100A500009D9F2AADFD8D8AEF8F9D1DAF3A4DEA723
:100A6000F1889B7AD8F38494AE19F9DAAAF1DFD829
:100A7000A881C0C3C5C7A39283F628ADDED9F8D834
:100A8000A350ADD9F8D8A378ADD9F8D8F8F9D1A149
:100A9000DADEC3C5C7D8A18194F818F2B089ACC317
:100AA000C5C7F1D8B8B4B09786A8319B069907ABF3
:100AB0009728889BF00C201440B0B4B8F0A88A9A0C
:100AC000285078B79BA82951792470594469386413
:100AD0004831F1BBAB88002C547CF0B38BB8A80430
:100AE000285078F1B088B49726A85998BBABB38B3F
:100AF00002264666B0B8F08A9CA82951798B295104
:100B0000798A2470598B2058718A4469388B39400E
:100B1000688A6448318B30496088F1AC002C547C81
:100B2000F08CA804285078F1889726A85998AC8CA6
:100B300002264666F0899CA8295179247059446997
:100B400038644831A98809205970AB11384069A828
:100B5000193148608CA83C415C207C00F1879819D1
:100B600086A86E767EA999882D557DD8B1B5B9A392
:100B7000DFDFDFAED0DFAAD0DEF2ABF8F9D9B08785
:100B8000C4AAF1DFDFBBAFDFDFB9D8B1F1A3978E25
:100B900060DFB084F2C8F8F9D9DED89385F14AB1A4
:100BA00083A308B5839A0810B79F10D8F1B0BAAEE6
:100BB000B08AC2B2B68E9EF1FBD9F41DD8F9D90C19
:100BC000F1D8F8F8AD61D9AEFBD8F40CF1D8F8F84B
:100BD000AD19D9AEFBDFD8F416F1D8F8AD8D61D9D7
:100BE000F4F4ACF59C9C8DDF2BBAB6AEFAF8F40B9E
:100BF000D8F1AED0F8AD51DAAEFAF8F1D8B9B1B655
:100C0000A3839C08B9B1839AB5AAC0FD3083B79F6E
:100C100010B58B93F20202D1ABDADED8F1B080BA14
:100C2000ABC0C3B284C1C3D8B1B9F38BA391B60929
:100C3000B4D9ABDEB0879CB9A3DDF1B38B8B8B8BC2
:100C40008BB08720283038B28BB69BF2A3C0C8C2C5
:100C5000C4CCC6A3A3A3F1B087B59AD8F39BA3A332
:100C6000DCBAACDFB9A3FEF2ABC4AAF1DFDFBBAFE5
:100C7000DFDFA3A3A3D8D8D8BBB3B7F1AAF9DAFFB3
:100C8000D9809AAA28B48098A720B79787A86688A1
:100C9000F07951F1902C870CA781976293F07171D4
:100CA0006085940129517990A5F1284C6C870C95A9
:100CB000188578A38390284C6C886CD8F3A28200A6
:100CC000F210A8921980A2F2D926D8F188A84DD99D
:100CD00048D896A83980D93CD89580A839A6869856
:100CE000D92CDA87A72CD8A8899519A980D938D802
:100CF000A88939A980DA3CD8A82EA83990D90CD86F
:100D0000A8953198D90CD8A809D9FFD801DAFFD80D
:100D10009539A9DA26FFD890A80D8999A81080984E
:100D200021DA2ED88999A83180DA2ED8A886963172
:100D300080DA2ED8A8873180DA2ED8A88292F341A3
:100D400080F1D92ED8A882F31980F1D92ED882AC9F
:100D5000F3C0A28022F1A62EA72EA92298A829DAF4
:100D6000ACDEFFD8A2F22AF1A92E8292A8F231803D
:100D7000A696F1D900AC8C9C0C30ACDED0DEFFD84E
:100D80008C9CACD010ACDE8092A2F24C82A8F1CA4E
:100D9000F235F19688A6D900D8F1FF444D5020666F
:100DA00061696C6564202800494D55005365727671
:100DB0006F3A00536B696C6C005265616479210075
:100DC0004E5F323430313233004E7962626C6500EE
:100DD0000A2A205374617274202A005400627574C8
:100DE00074557000777366007065650070750068F3
:100DF00069007374720073697400747200776B0019
:100E000063720076740063004200700052007570D7
:100E1000004C006700460064004F5646004F56469F
:100E20002120576F6E2774207361766521006162FF
:100E30006F72746564007361766564004E5F32346E
:100E400030313233004E7962626C65004C6F77202E
:100E5000706F7765723A00006D23493511241FBE0B
:100E6000CFEFD8E0DEBFCDBF11E0A0E0B1E0E6E11A
:100E7000FDE702C005900D92A03BB107D9F727E02E
:100E8000A0EBB1E001C01D92A034B207E1F717E07A
:100E9000CDE2D7E004C02197FE010E945C3DCC3238
:100EA000D107C9F70E9407240C947E3E0C940000E1
:100EB00091E090935B0580935A051092590510922A
:100EC0005805089547E018160CF444E04093FF04D9
:100ED00098E0823024F494E1813009F490E1909319
:100EE0000005282F880F330B37FF03C0319521955C
:100EF0003109929FB001939F700D1124CB01840F93
:100F0000911D089580912303082E000C990B909356
:100F10000205809301051092210380912403082E7D
:100F2000000C990B90930405809303051092200305
:100F300080912503809305058091FA0487FF11C0F5
:100F400090912603909306059091270390930705AF
:100F5000909128039093080540E050E060E07FE323
:100F600006C040E050E060E87FE38130A9F740939D
:100F70001B0350931C0360931D0370931E0398E0A2
:100F800082300CF490E090930905082E000C990B28
:100F900097FF03C091958195910940910005489F65
:100FA0009001499F300D112482ED91E0821B930B3B
:100FB00090930A01809309016091FF04620F732FDF
:100FC000711D82E293E050E040E0FC01E60FF71F64
:100FD000A081FC01ED52FE4FA0834F5F5F4F019750
:100FE0002417350794F78EE78093F50485EF94E096
:100FF000821B930B90930B0580930A050895CF9362
:10100000DF93DC019096FC0141E85FEF60E870E05F
:1010100021913191261737070CF4B9014217530774
:101020000CF4A901EA17FB0799F763387F4F1CF00E
:101030004E3751056CF122E020930505DC012D911E
:101040003D91ED01229737FF02C02F5F3F4F35954D
:10105000279539832883AE17BF0789F7A0910A0522
:10106000B0910B05EC01288102962D938E179F07F6
:10107000C9F781E08093FA041092090580E180931A
:10108000000510921A0310921903DF91CF91089571
:1010900021E020930505E2CF80911503909116037E
:1010A000891B990B089508950895AF92BF92CF922E
:1010B000DF92EF92FF920F931F93CF93DF936C0118
:1010C0007B018B01040F151FEB015E01AE18BF08F9
:1010D000C017D10759F06991D601ED91FC910190AB
:1010E000F081E02DC6010995892B79F7C501DF91C3
:1010F000CF911F910F91FF90EF90DF90CF90BF9015
:10110000AF900895FC01538D448D252F30E0842F3E
:1011100090E0821B930B541710F0CF96089501971F
:101120000895FC01918D828D981761F0A28DAE0F0C
:10113000BF2FB11D5D968C91928D9F5F9F73928F93
:1011400090E008958FEF9FEF0895FC01918D828DBF
:10115000981731F0828DE80FF11D858D90E008958C
:101160008FEF9FEF0895FC01918D228D892F90E0E4
:10117000805C9F4F821B91098F73992708958CE59E
:1011800095E00E94B30821E0892B09F420E0822F2A
:10119000089580E090E0892B29F00E94BF0881111A
:1011A0000C9400000895FC01A48DA80FB92FB11D67
:1011B000A35ABF4F2C91848D90E001968F7399278D
:1011C000848FA689B7892C93A089B1898C9183706B
:1011D00080648C93938D848D981306C00288F38964
:1011E000E02D80818F7D80830895EF92FF920F9391
:1011F0001F93CF93DF93EC0181E0888F9B8D8C8DC3
:1012000098131AC0E889F989808185FF15C09FB7B6
:10121000F894EE89FF896083E889F9898081837079
:10122000806480839FBF81E090E0DF91CF911F9128
:101230000F91FF90EF900895F62E0B8D10E00F5F49
:101240001F4F0F731127E02E8C8D8E110CC00FB61F
:1012500007FCFACFE889F989808185FFF5CFCE01B7
:101260000E94D308F1CFEB8DEC0FFD2FF11DE35A57
:10127000FF4FF0829FB7F8940B8FEA89FB8980813A
:101280008062CFCF682F8CE595E00C94F5080F9322
:101290001F93CF93DF938C01D0E0C0E0F801EC0FF7
:1012A000FD1F6491662341F08CE595E00E94F508EE
:1012B000892B11F02196F2CFCE01DF91CF911F91B2
:1012C0000F910895CF93DF93EC01888D8823B9F0B7
:1012D000AA89BB89E889F9898C9185FD03C0808141
:1012E00086FD0DC00FB607FCF7CF8C9185FFF2CFBE
:1012F000808185FFEDCFCE010E94D308E9CFDF9139
:10130000CF910895833081F028F4813099F08230B4
:10131000A9F008958730A9F08830C9F08430B1F47D
:10132000809180008F7D03C0809180008F778093B3
:101330008000089584B58F7784BD089584B58F7D2E
:10134000FBCF8091B0008F778093B000089580919B
:10135000B0008F7DF9CF1F93CF93DF93282F30E01C
:10136000F901E057FE4F8491F901E458FE4FD49102
:10137000F901E859FE4FC491CC23A9F0162F811131
:101380000E948209EC2FF0E0EE0FFF1FE25AFE4FA1
:10139000A591B4918FB7F894EC91111108C0D09534
:1013A000DE23DC938FBFDF91CF911F910895DE2B59
:1013B000F8CF9091000189130BC0E4EAF1E0E491C9
:1013C0009FEF90930001E13049F028F0E23061F0A6
:1013D00060E00C94AB0910926E00FACF90916F0010
:1013E0009D7F90936F00F4CF909170009D7F9093BC
:1013F000700091E09093B0009091B100987F94605C
:101400009093B1001092B300E3CFCF93DF9390E0BD
:10141000FC01E458FE4F249188599E4FFC018491B1
:101420008823D1F090E0880F991FFC01EC5AFE4F01
:10143000A591B491FC01E25AFE4FC591D49161117E
:101440000EC09FB7F8948C91E22FE0958E238C9379
:101450002881E223E8839FBFDF91CF9108958FB762
:10146000F894EC91E22BEC938FBFF6CF3FB7F89452
:101470008091630290916402A0916502B09166022E
:1014800026B5A89B05C02F3F19F00196A11DB11DDF
:101490003FBFBA2FA92F982F8827BC01CD01620F1B
:1014A000711D811D911D42E0660F771F881F991FD6
:1014B0004A95D1F708958F929F92AF92BF92CF92A3
:1014C000DF92EF92FF926B017C010E94360A4B0182
:1014D0005C01C114D104E104F104B9F00E94360AA0
:1014E000681979098A099B09683E7340810591054D
:1014F00080F321E0C21AD108E108F10888EE880ED5
:1015000083E0981EA11CB11CE4CFFF90EF90DF9008
:10151000CF90BF90AF909F908F9008952FB7F89481
:1015200060915F027091600280916102909162020D
:101530002FBF089520913B02260F3327331F2132FE
:101540003105ECF420915205FC0190E080E024305C
:1015500069F082E00895A0913B022191AC01455EC3
:101560005D4FA40FB52FB11D2C930196861798F3EC
:1015700080913B02680F60933B0280E0089581E018
:1015800008951092520581E08093310510922C0548
:1015900061E082E10E94AB0961E083E10E94AB0956
:1015A000E9EBF0E080818E7F808380818D7F808376
:1015B00088E48093B80085E48093BC000895CF93BD
:1015C000DF9391E090931A028823B9F0C091B8009C
:1015D000D091BA008091BC008A7B8093BC0060E00F
:1015E00082E10E94AB0960E083E10E94AB090E94A6
:1015F000C10AD093BA00C093B800DF91CF9108958B
:10160000CF92DF92EF92FF920F931F93CF93DF93CE
:10161000D82FC62F613208F098C00E94360A6B019D
:101620007C018091520581116BC081E0809352054D
:10163000809331059FEF9093300510922F059C0FFA
:1016400090932E0580932D0580912D05DD0FD82BCD
:10165000D0932D0580912C05813009F078C010922F
:101660002C050E94360A6B017C0180912D05809328
:10167000BB008091540590915505A0915605B091FD
:101680005705892B8A2B8B2BA1F00E94360A0091DB
:1016900054051091550520915605309157056C1948
:1016A0007D098E099F09061717072807390708F4CF
:1016B00048C08091BC0083FDD8CF85EC8093BC00EE
:1016C0000E94360A6B017C0180915205813009F439
:1016D00040C080912F058C1710F4C0912F05ECE0CD
:1016E000F5E0A2E3B5E080E08C1355C08C2FDF91CC
:1016F000CF911F910F91FF90EF90DF90CF900895C1
:101700008091540590915505A0915605B0915705CB
:10171000892B8A2B8B2B09F484CF0E94360A0091E7
:1017200054051091550520915605309157056C19B7
:101730007D098E099F09061717072807390708F042
:1017400070CF809153050E94DF0AC0E0CFCF85EEB5
:10175000B5CF8091540590915505A0915605B09153
:101760005705892B8A2B8B2B09F4AECF0E94360AA2
:10177000009154051091550520915605309157055B
:101780006C197D098E099F09061717072807390765
:1017900008F09ACFD6CF91919D938F5FA5CF0895F2
:1017A000E091160380911503E81730F4F0E0EE5C49
:1017B000FA4F808190E008958FEF9FEF0895909108
:1017C0001603809115032FEF3FEF981748F4E92F88
:1017D000F0E0EE5CFA4F208130E09F5F90931603BB
:1017E000C9010895CF92DF92EF92FF920F931F935A
:1017F000CF93DF937C01CB018A0120915B052223EB
:1018000089F0EB016B01C40ED51ECC15DD0569F026
:101810006991D701ED91FC910190F081E02DC70114
:101820000995F3CF642F0E949A0AC801DF91CF91E6
:101830001F910F91FF90EF90DF90CF900895CF937D
:10184000DF931F92CDB7DEB7698320915B0522231A
:10185000F9F020915805203258F021E030E0FC01E9
:101860003383228390E080E00F90DF91CF91089541
:1018700080915905E82FF0E0E650FE4F9981908362
:101880008F5F809359058093580581E090E0ECCFFD
:1018900061E0CE0101960E949A0AF7CFCF92DF92C3
:1018A000EF92FF920F931F93CF93DF93D091580540
:1018B00081E0D13208F09CC0C0915A050E94360ADE
:1018C0006B017C018091520581116CC082E0809394
:1018D000520581E0809331058FEF8093300510929F
:1018E0002F05D0932E05AAEFB1E0ECE0F5E080E003
:1018F000D8138DC010922D0580912D05CC0FC82BCB
:10190000C0932D0580912C05813009F084C0109280
:101910002C050E94360A6B017C0180912D05809375
:10192000BB008091540590915505A0915605B0914A
:101930005705892B8A2B8B2BA1F00E94360A009128
:1019400054051091550520915605309157056C1995
:101950007D098E099F09061717072807390708F41C
:1019600042C08091BC0083FDD8CF85EC8093BC0041
:101970000E94360A6B017C0180915205823009F485
:101980004CC0809130058F3F09F469C080913005CB
:10199000803209F466C080913005803309F463C059
:1019A00084E026C08091540590915505A09156057C
:1019B000B0915705892B8A2B8B2B09F483CF0E947A
:1019C000360A009154051091550520915605309125
:1019D00057056C197D098E099F09061717072807F7
:1019E000390708F06FCF809153050E94DF0A85E028
:1019F000109259051092580510925B05DF91CF9116
:101A00001F910F91FF90EF90DF90CF9008959D91DF
:101A100091938F5F6DCF85EEA9CF80915405909102
:101A20005505A0915605B0915705892B8A2B8B2B14
:101A300009F4A2CF0E94360A009154051091550571
:101A400020915605309157056C197D098E099F0923
:101A5000061717072807390708F08ECFC4CF80E094
:101A6000C7CF82E0C5CF83E0C3CF1F93CF93DF936F
:101A7000162FEA010E945807612F8FE096E00E941E
:101A80001F0C69818FE096E00E941F0C68818FE037
:101A900096E00E941F0C8FE096E00E944E0C91E0B1
:101AA000811190E0892FDF91CF911F91089590E0EF
:101AB00080E00895FF920F931F93CF93DF93C62F7B
:101AC000042FF22E132F0E9458076C2F8FE096E000
:101AD0000E941F0CCF2DD12F0C0F1D2F111DC017D1
:101AE000D10731F069918FE096E00E941F0CF7CF8B
:101AF0008FE096E00E944E0C91E0811190E0892FDA
:101B0000DF91CF911F910F91FF900895CF93DF93B5
:101B10001F92CDB7DEB749839E012F5F3F4F41E053
:101B20000E945A0D0F90DF91CF91089508950F9361
:101B30001F93CF93DF93EC01062F142F88810E940F
:101B4000580789819A81DC01ED91FC910190F08127
:101B5000E02D602F099589819A81DC01ED91FC913E
:101B60000190F081E02D612F099589819A81DF91A3
:101B7000CF911F910F910C944E0CDC01ED91FC91D3
:101B80000190F081E02D0994DC01ED91FC91019030
:101B9000F081E02D0994FF920F931F93CF93DF9371
:101BA000EC01162FF42E052F88810E94580784E03F
:101BB000189FB00111246A5F7F4F89819A810E942A
:101BC000C40D70E060E089819A810E94BD0D70E0D3
:101BD00060E089819A810E94BD0D6F2D702F8981EF
:101BE0009A810E94BD0D602F70E089819A810E94C8
:101BF000BD0D89819A81DF91CF911F910F91FF9047
:101C00000C944E0CCF93C0E040E050E16C2F8DE17E
:101C100097E00E94CB0DCF5FC031B1F7CF9108950F
:101C2000BF92CF92DF92EF92FF920F931F93CF93C9
:101C3000DF93EC0184E50E9458076D2F70E08FE080
:101C400096E00E94C40DBE0177278FE096E00E94C7
:101C5000C40D8FE096E00E944E0C61E084E50E9486
:101C6000000B10921603809315038FE096E00E94FC
:101C7000DF0B809322038093FA040E946207EC0139
:101C8000F12CE12C1C161D064CF56C2FCF31D10523
:101C90000CF06EE184E50E94000BB82E1092160342
:101CA000809315036E018EE1C81AD1088E018091D0
:101CB0001603B81659F08FE096E00E94DF0B9FEFF5
:101CC000E91AF90AF701EE5DFC4F80830150110912
:101CD00029F0E6010C151D0551F7D4CFDF91CF9106
:101CE0001F910F91FF90EF90DF90CF90BF900895DC
:101CF0002F923F924F925F926F927F928F929F921C
:101D0000AF92BF92CF92DF92EF92FF920F931F9309
:101D1000CF93DF9300D000D0CDB7DEB7782E662EFC
:101D20004C833A8329830E948E0A6B017C01512CDB
:101D30001B822C81222E312C4801B12CA12C8C81AC
:101D4000581608F049C0872D0E945807662D8FE06D
:101D500096E00E941F0C8FE096E00E944E0C872DAB
:101D60000E945807B101651971096132710514F0BB
:101D700060E270E0613208F060E2872D0E94000BA3
:101D8000482E10921603809315038091160348166F
:101D9000E9F00115110579F48FE096E00E94DF0B60
:101DA000E981FA819B81E90FF11D97FDFA95808306
:101DB0009F5F9B83EACF0E948E0A6C197D098E0972
:101DC0009F09681579058A059B0530F38C8181325E
:101DD00008F080E2580EB3CF01151105C1F00E9442
:101DE0008E0A6C197D098E099F0930E020E060178A
:101DF00071078207930758F02B81822F220F990BCE
:101E00002C812817190619F014F08FEF8B838B8122
:101E10000F900F900F900F90DF91CF911F910F9126
:101E2000FF90EF90DF90CF90BF90AF909F908F90FA
:101E30007F906F905F904F903F902F9008950F93F9
:101E40001F93CF93DF93CAE0D7E008EE13E02BE0B7
:101E500037E042E062E788810E94780E89819A81AA
:101E6000982789279827DF91CF911F910F91089587
:101E7000CF92DF92EF92FF920F931F93CF93DF9356
:101E80001F92CDB7DEB7F82EE62EC42ED22E08EE66
:101E900013E09E012F5F3F4F41E00E94780E81E0EA
:101EA00090E001C0880FCA94EAF74981DD2081F0F3
:101EB000482B49836E2D8F2D0E94860D0F90DF9148
:101EC000CF911F910F91FF90EF90DF90CF900895E9
:101ED00080954823EECFBF92CF92DF92EF92FF9290
:101EE0000F931F93CF93DF931F92CDB7DEB7F82EDA
:101EF000E62EC42EB22ED02E08EE13E09E012F5FE8
:101F00003F4F41E00E94780E882371F18C2D8B1990
:101F1000990BAC014F5F5F4F81E090E002C0880FEA
:101F2000991FBA94E2F70197042E01C0880F0A9412
:101F3000EAF70D2D01C0000F4A95EAF7482F4095AA
:101F4000998149238023482B49836E2D8F2D0E9430
:101F5000860D0F90DF91CF911F910F91FF90EF9021
:101F6000DF90CF90BF90089580E0F3CF1F93CF9381
:101F7000DF93EC01162F88810E94580789819A818E
:101F8000DC01ED91FC910190F081E02D612F09952C
:101F900089819A810E944E0C61E088810E94000B29
:101FA000109216038093150389819A81DC01ED91CB
:101FB000FC910284F385E02D0995DF91CF911F916B
:101FC00008958F929F92AF92BF92CF92DF92EF923D
:101FD000FF921F93CF93DF93EC016A017B0120E016
:101FE00030E040E85FE3CB01B6010E94AD3787FDEA
:101FF0007EC020E030EC4AE555E4C701B6010E94FE
:10200000733B18163CF4C12C30ECD32E3AE5E32E8A
:1020100035E4F32E6B817C818D819E810E94B237E5
:102020004B015C0120E030E040E855E4C701B60117
:102030000E9413389B01AC01C501B4010E94653AAE
:1020400020E030E040E05FE30E94823920E030E0B1
:1020500040E85FE30E9481396B017C0120E030E0C1
:1020600040E450E40E94AD3787FD48C020E030E0F6
:102070004FE753E4C701B6010E94733B181634F4CE
:10208000C12CD12C9FE7E92E93E4F92E60E0CE011C
:102090000E94B60F182F482F4F76406160E0CE01A6
:1020A0000E94970DC701B6010E94DE3A462F6EEFDF
:1020B000CE010E94970D412F60E0CE010E94970D46
:1020C00065E070E080E090E00E945B0A412F406A8A
:1020D00060E0CE01DF91CF911F91FF90EF90DF90F4
:1020E000CF90BF90AF909F908F900C94970DC12C84
:1020F000D12C20E8E22E2FE3F22E8CCFC12CD12C54
:1021000080E4E82EFE2CC2CF4F925F926F927F92B6
:102110008F929F92AF92BF92CF92DF92EF92FF92F7
:10212000CF93C0E06C01F12CE12CC701B6010E94F5
:10213000B2374B015C016EEF8DE197E00E94B60F64
:10214000682F70E06F5F7F4F90E080E00E94B237B1
:1021500020E034E244E759E40E9413382B013C01AB
:1021600060912007709121078091220790912307A9
:102170000E94B2379B01AC01C301B2010E94653AD3
:102180009B01AC01C501B4010E94653A0E94DE3A90
:10219000AB016C2F8DE197E00E94CB0DCF5FC0317A
:1021A00021F6CF91FF90EF90DF90CF90BF90AF904E
:1021B0009F908F907F906F905F904F900895FC015B
:1021C00001900020E9F73197AF01481B590BBC0182
:1021D0008CE595E00C94550881E691E00C94DF10B5
:1021E000CF93DF930E944709EC010E94EC108C0F03
:1021F0009D1FDF91CF910895CF93DF930E944209F5
:10220000EC010E94EC108C0F9D1FDF91CF9108957F
:10221000CF93DF93FC0144815581608171818CE50E
:1022200095E00E945508EC010E94EC108C0F9D1F58
:10223000DF91CF9108958F929F92AF92BF920F93AB
:102240001F93CF93DF93CDB7DEB7A1970FB6F89466
:10225000DEBF0FBECDBF19A2423008F44AE08E01A6
:102260000F5D1F4F842E912CB12CA12CA501940140
:102270000E945039E62FB901CA01EA30F4F4E05D5A
:10228000D801EE938D01232B242B252B79F790E099
:1022900080E0109719F0CD010E94DF10A1960FB6D3
:1022A000F894DEBF0FBECDBFDF91CF911F910F918C
:1022B000BF90AF909F908F900895E95CE1CFCF924F
:1022C000DF92EF92FF92C12CD12C76014AE0C70138
:1022D000B6010E941B1189E00E9442098FEFC81AC3
:1022E000D80AE80AF80A80E1C816D104E104F1042A
:1022F00069F7FF90EF90DF90CF900C94EC104F9225
:102300005F926F927F928F929F92AF92BF92CF9285
:10231000DF92EF92FF920F931F93CF936B017C019B
:10232000742EAC019B010E94223C882399F084E624
:1023300091E0CF911F910F91FF90EF90DF90CF90A0
:10234000BF90AF909F908F907F906F905F904F90D5
:102350000C94DF1046015701E894B7F82FEF3FEFD8
:102360004FE75FE7C501B4010E94223C81110DC017
:102370002FEF3FEF4FE75FE7C501B4010E94AD3794
:1023800018161CF488E691E0D4CF2FEF3FEF4FE70B
:102390005FE4C701B6010E94733B18161CF48CE67B
:1023A00091E0C7CF2FEF3FEF4FE75FECC701B601DA
:1023B0000E94AD3787FDF3CF20E030E0A901C701CF
:1023C000B6010E94AD3710E000E087FF08C08DE243
:1023D0000E9442098C01F7FAF094F7F8F094C0E0FB
:1023E00060E070E080E09FE37C1641F020E030E0A8
:1023F00040E251E40E94653ACF5FF6CFA701960113
:102400000E9482392B013C010E94DE3A4B015C01A3
:102410004AE00E941B117C01E00EF11ECC23B1F1B9
:10242000C501B4010E94B2379B01AC01C301B201E6
:102430000E9481394B015C018EE20E944209E80E44
:10244000F91EC15018F120E030E040E251E4C5012E
:10245000B4010E9413382B013C010E94DE3A4B016B
:10246000B12CA12C4AE0C501B4010E941B11E80E59
:10247000F91EC501B4010E94B2379B01AC01C30132
:10248000B2010E9481394B015C01DBCFC701CF91C2
:102490001F910F91FF90EF90DF90CF90BF90AF9082
:1024A0009F908F907F906F905F904F900895CF9303
:1024B000DF93C7E9D2E06C817D818E819F8145E009
:1024C0000E947F1189E00E944209688579858A858A
:1024D0009B8545E00E947F11DF91CF910C94EC1019
:1024E000FC0124813581232B39F421E0FB0180811B
:1024F000882349F020E007C0808191810E94603EDE
:1025000021E0892BB9F7822F08950C94E935CF93F8
:10251000DF93EC0188819981009711F00E94E935E1
:10252000198218821D821C821B821A82DF91CF9130
:102530000895FC0180819181009711F00C94E93598
:102540000895FF920F931F93CF93DF93EC01F62E24
:1025500008811981C8010E94D138F81621F06F2D29
:10256000C8010E94D938CE01DF91CF911F910F9100
:10257000FF900895FF920F931F93CF93DF9300D0A6
:10258000CDB7DEB78C01F72E9A838983CE010196F1
:102590000E94A1120F5F1F4F1A8309836F2DCE0176
:1025A00001960E94A11266E070E080E090E00E9437
:1025B0005B0A0F900F90DF91CF911F910F91FF90C9
:1025C00008950C94D1382F923F924F925F926F9260
:1025D0007F928F929F92AF92BF92CF92DF92EF92B3
:1025E000FF920F931F93CF93DF93CDB7DEB72E9754
:1025F0000FB6F894DEBF0FBECDBF6C0185E191E050
:102600000E94E112782E60E771E0C6010E94603EF0
:10261000472C892B89F4872C912CB12CA12C811467
:102620009104A104B10439F00E94BE36A5019401C1
:102630000E94E7384B01482CF60101900020E9F791
:102640003197EC19FD092E2F2150330B7901F6013A
:10265000E20FF31F30813C87612C10E000E0CE01D7
:1026600001965C0181E491E0FC01EA19FB09FE8717
:10267000ED87761409F474C01801FFEF2F1A3F0A92
:10268000C801805C9E4F0E94E112582E45012D85A5
:102690003E85020F131F882D8A19851548F4C8013D
:1026A000880D991D0E94E112F40181934F01F3CF2F
:1026B000852C912C8101080D191DF501E80DF91DDE
:1026C0001082641025C0C8018F5B9E4F0E94E112EA
:1026D0008093FA040E946207C801805C9E4F2E9688
:1026E0000FB6F894DEBF0FBECDBFDF91CF911F9123
:1026F0000F91FF90EF90DF90CF90BF90AF909F90A1
:102700008F907F906F905F904F903F902F900895A3
:10271000B601C5010E94603E892BA9F2FE01E80DB9
:10272000F91D80818634C1F062E771E0C5010E9425
:10273000603E892B89F0A701B601C5010E94703E59
:10274000892B51F4FC85FC3409F4BDCFF23509F432
:10275000BACFF83509F4B7CF0C5F1F4F639489CF18
:102760008FE30E944209C6010E94DF100E94EC1014
:102770008FEF9FEFB4CF1F93CF93DF93EC010E94B5
:10278000E112182FCE0101960E94E11290E0982FDD
:102790008827810F911DDF91CF911F910895CF92CE
:1027A000DF92EF92FF920F931F93CF93DF936A0113
:1027B0007B01082F10E0C801805B9F4F880F991F95
:1027C0000E94BB13BC01990F880B990B0E94B43770
:1027D00020E030E04AE754E40E94653AA701960100
:1027E0000E9413386B017C0182E191E00E94E112AA
:1027F0009AE0899FB0011124072E000C880B990BD9
:102800000E94B437A70196010E9482396B017C01B6
:1028100020E030E04AEF53E40E94733BC4EFD1E084
:1028200018168CF420E030E44CE155E4C701B60101
:102830000E94AD37C4ECD9E087FF05C0C701B601DF
:102840000E94D73AEB01C8010E94E112AE01682F45
:102850008DE197E0DF91CF911F910F91FF90EF9065
:10286000DF90CF900C94CB0D90E0C096880F991F0D
:10287000860F911D880F991F0C94BB137F928F9226
:102880009F92AF92BF92CF92DF92EF92FF920F93FF
:102890001F93CF93DF93B82E6A01D62FC72F60E026
:1028A0000E943414BC01990F880B990B0E94B43715
:1028B0007B018C0161E08B2D0E943414BC01990FC7
:1028C000880B990B0E94B437762E872E982EA92E4E
:1028D00096014D2F5C2F0E94AD3787FF71C0772D79
:1028E000682D992D8A2D272F362F492F582FB70164
:1028F000C8010E94733B181694F096014D2F5C2F6F
:10290000672D782D892D9A2D0E94AD3776010D2FD8
:102910001C2F87FF04C0E72CF82C092D1A2DCB2D76
:10292000D0E06E0180E3C80ED11CCC0FDD1FC55F67
:10293000DE4FB701C8010E94D73A79836883C60188
:10294000880F991F0E94BB13EC01C6010E94E1127F
:10295000682F880F770B880B990B0E94B43797016B
:10296000A8010E9413386B017C01BE01DD0F880BAA
:10297000990B0E94B4379B01AC01C701B6010E94BC
:1029800082390E94D73A072E000C880B990B0E94BF
:10299000B43720E030E0A9010E948239AB01BC01CC
:1029A0008B2DDF91CF911F910F91FF90EF90DF90D2
:1029B000CF90BF90AF909F908F907F900C94CF134B
:1029C0007C2D6D2DCE018FCF0F931F93CF938C0154
:1029D000005E1F4FCFE0F801729162918F01072EC8
:1029E000000C880B990B0E94B437AB01BC018C2FF3
:1029F0000E943E14C15078F7CF911F910F91089516
:102A00002F923F924F925F926F927F928F929F92FE
:102A1000AF92BF92CF92DF92EF92FF920F931F93EC
:102A2000CF93DF93CDB7DEB72E970FB6F894DEBF06
:102A30000FBECDBF182F092F6A017B0120E030E0C7
:102A4000A901CB01B6010E94AD371816E4F0812F21
:102A5000902F2E960FB6F894DEBF0FBECDBFDF913C
:102A6000CF911F910F91FF90EF90DF90CF90BF908B
:102A7000AF909F908F907F906F905F904F903F901E
:102A80002F900C94E41480E290E00E944D355C019C
:102A900070911803909017032BE031E0DC01612E58
:102AA000702E512C412C60E0772329F0643018F40B
:102AB0004BE69416A1F0F90180819181F3014081E8
:102AC0005181841B950B11969C938E9397FF03C0A5
:102AD000919581959109481659060CF42C016F5F68
:102AE0002E5F3F4FF2E06F0E711C12966031E1F6DF
:102AF00020E030E0A901C701B6010E94733B18161F
:102B00000CF0BCC0B201550C880B990B0E94B43775
:102B1000A70196010E94653A6B017C0120E030E03C
:102B2000A9010E94733B20E030E040E05FE387FDB5
:102B3000A0C0C701B6010E9482390E94D73A7E87A1
:102B40006D87D12CC12C2D853E85032E000C440BA6
:102B5000550B29873A874B875C874D855E854C15D9
:102B60005D050CF48EC01501812E902EF12CC6014E
:102B70000D2C000CAA0BBB0B8D839E83AF83B887F3
:102B800080911803882341F093E09F1528F08091ED
:102B900017038B3609F45FC0D4016D917C91072E29
:102BA000000C880B990B0E94B4372B013C01ED857A
:102BB000FE8520E030E0A901EF2B09F443C06D81D0
:102BC0007E818F8198850E94B4372BED3FE049E4E8
:102BD00050E40E94133869837A838B839C836985D0
:102BE0007A858B859C850E94B4379B01AC016981F5
:102BF0007A818B819C810E94653A0E94603A20E034
:102C000030E040E85FE30E94823920E030E040E0BD
:102C10005FE30E94133869837A838B839C83D1019D
:102C20006D917C91072E000C880B990B0E94B43794
:102C30009B01AC0169817A818B819C810E94133850
:102C40009B01AC01C301B2010E948239AB01BC01FE
:102C50008F2D0E943E14F394B2E08B0E911CE2E0A3
:102C60002E0E311CF0E1FF128BCF2FEFC21AD20AC9
:102C700074CFC701B6010E9481395FCF1E861D86C1
:102C800060CFA114B104D9F0C5012E960FB6F89407
:102C9000DEBF0FBECDBFDF91CF911F910F91FF908F
:102CA000EF90DF90CF90BF90AF909F908F907F90EC
:102CB0006F905F904F903F902F900C94E9352E9637
:102CC0000FB6F894DEBF0FBECDBFDF91CF911F913D
:102CD0000F91FF90EF90DF90CF90BF90AF909F90BB
:102CE0008F907F906F905F904F903F902F900895BE
:102CF0002F923F924F925F926F927F928F929F920C
:102D0000AF92BF92CF92DF92EF92FF920F931F93F9
:102D1000CF93DF93CDB7DEB72F970FB6F894DEBF12
:102D20000FBECDBF4C016D8369017A01202F30E0C9
:102D30003A83298320E030E0A901C701B6010E944F
:102D4000AD371816ECF01FE0812F012E000C990B07
:102D500069817A81861797070CF453C1880D991DF4
:102D6000DC016C91062E000C770B880B990B0E94EE
:102D7000B437AB01BC01812F0E943E141150E4CF47
:102D800080E190E0E981FA818E1B9F0B8115F0E4D0
:102D90009F0708F047C0880F991F009709F445C0A6
:102DA0000E944D353C01B0901803A0901703298173
:102DB0003A81220F331F1301D401102F50E040E05D
:102DC000512C412C1031A0F5BB2029F0143018F4FF
:102DD0006BE6A616F9F0CA01820F931F855F9E4F1E
:102DE0007C916D817603F0011124FC83EB83FC015F
:102DF000808191816B817C81861B970BF10191838E
:102E0000808397FF03C091958195910948165906D3
:102E10000CF42C011F5F1196F2E02F0E311C4E5F57
:102E20005F4FD0CF8FEF9FEFBBCF81E090E0B8CF67
:102E300020E030E0A901C701B6010E94733B1816DB
:102E40000CF0BAC0B201550C880B990B0E94B43734
:102E5000A70196010E94653A6B017C0120E030E0F9
:102E6000A9010E94733B20E030E040E05FE387FD72
:102E70009EC0C701B6010E9482390E94D73A7F875F
:102E80006E87B12CA12C6E857F85072E000C880BD8
:102E9000990B6A877B878C879D878E859F858A158E
:102EA0009B050CF490C07C826B829A828982102FE1
:102EB000B5010B2C000C880B990B6E837F838887E0
:102EC0009987103108F07BC080911803882339F06E
:102ED000143028F4809117038B3609F45BC0A98164
:102EE000BA816C912D816203B0011124072E000C70
:102EF000880B990B0E94B4376B017C016E857F852E
:102F000020E030E0A901672BE1F16E817F818885A7
:102F100099850E94B4372BED3FE049E450E40E94CC
:102F200013381B012C016A857B858C859D850E9449
:102F3000B4379B01AC01C201B1010E94653A0E9405
:102F4000603A20E030E040E85FE30E94823920E010
:102F500030E040E05FE30E9413381B012C01AB819D
:102F6000BC816D917C91072E000C880B990B0E94FF
:102F7000B4379B01AC01C201B1010E9413389B011F
:102F8000AC01C701B6010E948239AB01BC01812F9F
:102F90000E943E141F5FE981FA813196FA83E9832A
:102FA0002B813C812E5F3F4F3C832B838ACFC7010F
:102FB000B6010E94813961CF1F861E8662CF3FEF26
:102FC000A31AB30A6ACF61147104D9F0C3012F9612
:102FD0000FB6F894DEBF0FBECDBFDF91CF911F912A
:102FE0000F91FF90EF90DF90CF90BF90AF909F90A8
:102FF0008F907F906F905F904F903F902F900C94A8
:10300000E9352F960FB6F894DEBF0FBECDBFDF9126
:10301000CF911F910F91FF90EF90DF90CF90BF90D5
:10302000AF909F908F907F906F905F904F903F9068
:103030002F9008950F930E94820710921A03109206
:103040001903E6EFF4E02581368147815085038935
:103050006785848995890E9478160F9108958F92CB
:103060009F92AF92BF92CF92DF92EF92FF920F9317
:103070001F93CF93DF93CDB7DEB72B970FB6F8949E
:10308000DEBF0FBECDBF6C01FC0101900020E9F74F
:103090003297108189E11C3421F087EE123509F056
:1030A00080E08093F904C6010E94E3127C018FEF57
:1030B000E816F80609F43EC1C7010E94E112082F84
:1030C000C70102960E94BB137C01B601CE01019696
:1030D0000E94693E093409F0EDC0C7010E94100E3C
:1030E0000E948207BE016F5F7F4F82E293E00E94E1
:1030F000693E65E771E082E293E00E94603E892BC1
:1031000009F4EEC080E090E0A0E0B0E48093FB041E
:103110009093FC04A093FD04B093FE0469E771E072
:1031200082E293E00E94603E892B09F4DDC0809129
:10313000FA04813009F0D8C00E94BE3624E630E09F
:1031400040E050E00E94E7380E94B43720E030E0D1
:1031500040E251E40E94653A20E030E040EA50E469
:103160000E9481394B015C018092110390921203FD
:10317000A0921303B0921403F12CE12CC0900A0525
:10318000D0900B05CE0CDF1CF6016081062E000CE2
:10319000770B880B990B0E94B437A50194010E940C
:1031A00082390E94D73AF6016083FFEFEF1AFF0AD7
:1031B00080E1E816F10411F7123509F099C0809109
:1031C00001059091020591958195910990930205D1
:1031D0008093010590E080E04091FA04242F042EB2
:1031E000000C330B37FF03C031952195310982174D
:1031F00093070CF089C042301CF540910005489FB0
:103200009001499F300D1124E0910A05F0910B05C2
:10321000E20FF31F20812195208320910005289F34
:10322000F001299FF00D11249F012E5F3F4FE09187
:103230000A05F0910B05E20FF31F208121952083F1
:103240002091FA0460E022300CF462E0E62FF0E016
:103250002091FA0422300CF480C024E030E0409148
:103260000A0550910B05E217F3070CF079C09F0196
:10327000220F331F70910005789FF001799FF00DA8
:103280001124E20FF31FE40FF51F40815181508399
:1032900050910005589FD001599FB00D1124E09125
:1032A0000A05F0910B05E20FF31FEA0FFB1F4183A4
:1032B0006F5FCCCF8091FA040E946207A2E2B3E074
:1032C000970122523340F901EA0FFB1FAD01425230
:1032D0005340481759070CF003CFE491ED93F3CF17
:1032E00080E090E0DC0112CF812C912C54013CCF86
:1032F0001C3451F00E94BE3624E630E040E050E03D
:103300000E94E73860FD5BCF10921A0310921903F8
:103310002091FB043091FC044091FD045091FE0487
:10332000009109056091050580910A0590910B05B2
:103330000E9478162B960FB6F894DEBF0FBECDBF55
:10334000DF91CF911F910F91FF90EF90DF90CF9081
:10335000BF90AF909F908F90089528E030E07FCF8E
:1033600001963ACF0F931F93CF93DF93EC0188819F
:103370009981009759F02A813B812617370730F051
:1033800081E0DF91CF911F910F9108958B016F5FC5
:103390007F4F0E94853D009759F0998388831B8356
:1033A0000A832C813D81232B59F7FC011082E8CF41
:1033B00080E0E7CFEF92FF920F931F93CF93DF93BD
:1033C0006115710541F480E0DF91CF911F910F915C
:1033D000FF90EF90089541155105B1F07B01EC018C
:1033E0000C811D81040F151FB8010E94B21988239A
:1033F00051F3288139818C819D81B701820F931F00
:103400000E94693E1D830C8381E0DECFEF92FF9224
:103410000F931F93CF93DF93EC017B018A01BA01D5
:103420000E94B21981110BC0CE010E948712CE01F9
:10343000DF91CF911F910F91FF90EF9008951D8321
:103440000C83B701888199810E94693EF0CFFB010E
:10345000DC0111961C921E9213961C921E921297DA
:1034600015961C921E9214978617970759F0608143
:1034700071816115710521F0448155810C94061A02
:103480000C9487120895FB0101900020E9F7319711
:10349000AF01461B570B0C94061A0F931F93CF9343
:1034A000DF93CDB7DEB762970FB6F894DEBF0FBEDD
:1034B000CDBF8C01CB01F8011182108213821282E0
:1034C000158214824AE0BE016F5F7F4F0E94703701
:1034D000BE016F5F7F4FC8010E94431A62960FB60C
:1034E000F894DEBF0FBECDBFDF91CF911F910F913A
:1034F0000895FC01118210821382128215821482B7
:10350000FB0101900020E9F73197AF01461B570BF3
:103510000C94061AEF92FF920F931F93CF93DF93B1
:10352000EC018B01198218821B821A821D821C8277
:10353000CB010E943B377C01BC01CE010E94B21935
:10354000811109C0CE01DF91CF911F910F91FF90A2
:10355000EF900C948712FD82EC82B80188819981EA
:10356000DF91CF911F910F91FF90EF900C94343722
:1035700085ED8093BC008091540590915505A091F4
:103580005605B09157050796A11DB11D23E0B695CC
:10359000A795979587952A95D1F72091BC0024FD92
:1035A00003C010925205089540915405509155055D
:1035B0006091560570915705452B462B472B69F3B3
:1035C0000097A105B10541F02AE22A95F1F700C064
:1035D0000197A109B109E1CF809153050C94DF0A4D
:1035E0004F925F926F927F928F929F92AF92BF9213
:1035F000CF92DF92EF92FF920F931F93CF93DF93BF
:10360000CDB7DEB7E8970FB6F894DEBF0FBECDBFDB
:1036100080901B0790901C070E94360A2B013C01EA
:103620005401BB240E941F0F6C01A816B9060CF0B0
:1036300057C0893C910584F121E042E06AE680911F
:103640000A070E94380F0E941F0F6C01892B09F096
:103650004BC00E94360A6419750986099709693FAB
:103660007A428105910578F380E0E8960FB6F894E8
:10367000DEBF0FBECDBFDF91CF911F910F91FF90A5
:10368000EF90DF90CF90BF90AF909F908F907F9002
:103690006F905F904F9008950E941F0F6C01A816C5
:1036A000B906F4F47C01EA18FB08670181E2E81628
:1036B000F1041CF080E2C82ED12CCC2079F008EE69
:1036C00013E09E012F5F3F4F4C2D64E780910A0766
:1036D0000E94780EEC18FD0841F7DECF1982FACF70
:1036E000C114D10409F4C0CF0E94360A64197509C7
:1036F00086099709693F7A428105910508F0B4CFA0
:10370000AC14BD0409F08ECF882009F403C208EE82
:1037100013E02AEB31E0482D64E780910A070E940C
:10372000780E6090BE017090BF01762467247624E5
:103730008090C2019090C301982489249824A0907D
:10374000C601B090C701BA24AB24BA246091BA0173
:103750007091BB01762767277627072E000C880B10
:10376000990B0E94B43720E030E040E858E30E9413
:1037700013386B017C01C092FA06D092FB06E092EE
:10378000FC06F092FD06B301770C880B990B0E94A2
:10379000B43720E030E040E858E30E9413382B01B2
:1037A0003C014092FE065092FF0660920007709224
:1037B0000107B401990C880B990B0E94B43720E0E3
:1037C00030E040E858E30E94133869A37AA38BA342
:1037D0009CA3609302077093030780930407909360
:1037E0000507B501BB0C880B990B0E94B43720E08C
:1037F00030E040E858E30E9413386DA37EA38FA306
:1038000098A7609306077093070780930807909323
:1038100009079B01AC01C301B2010E9413384B019F
:103820005C0129A13AA14BA15CA1C701B6010E948C
:1038300013389B01AC01C501B4010E9481399B0181
:10384000AC010E9482396DA77EA78FA798AB6093C9
:10385000EE067093EF068093F0069093F106A301B5
:103860009201C701B6010E9413384B015C012DA1E2
:103870003EA14FA158A569A17AA18BA19CA10E944C
:1038800013389B01AC01C501B4010E9482399B0130
:10389000AC010E94823969A77AA78BA79CA7609385
:1038A000F2067093F3068093F4069093F506A70151
:1038B0009601C701B6010E9413384B015C01A301B8
:1038C0009201C301B2010E9413389B01AC01C501F2
:1038D000B4010E9481394B015C0129A13AA14BA19D
:1038E0005CA1CA01B9010E9413389B01AC01C5015A
:1038F000B4010E9481394B015C012DA13EA14FA171
:1039000058A5CA01B9010E9413389B01AC01C50139
:10391000B4010E9482394B015C018092F6069092BC
:10392000F706A092F806B092F906A7019601C70122
:10393000B6010E94823969AB7AAB8BAB9CABA30119
:103940009201C301B2010E9482396DAB7EAB8FAB95
:1039500098AFA701960169A97AA98BA99CA90E9491
:1039600013386B017C01A30192016DA97EA98FA977
:1039700098AD0E9413389B01AC01C701B6010E94AB
:10398000823920E030E040E85FE30E9481396B013A
:103990007C0129A13AA14BA15CA16DA97EA98FA9A7
:1039A00098AD0E9413382B013C012DA13EA14FA1DF
:1039B00058A569A97AA98BA99CA90E9413389B01D3
:1039C000AC01C301B2010E948139A70196010E9496
:1039D000013A6093970270939802809399029093B2
:1039E0009A0229A53AA54BA55CA5CA01B9010E9476
:1039F00013386B017C01A5019401C501B4010E943B
:103A000013389B01AC01C701B6010E9482390E94A4
:103A1000DE3B9B01AC016DA57EA58FA598A90E94F8
:103A2000013A6B017C01C0929B02D0929C02E09211
:103A30009D02F0929E02A501940169A57AA58BA52D
:103A40009CA50E94013A60939F027093A00280930C
:103A5000A1029093A20220E030E0A901C501B401C7
:103A60000E94AD3787FF1AC020E030E0A901C701EE
:103A7000B6010E94733BA701960118160CF04DC0C9
:103A80006BED7FE089E490E40E94813960939B02B2
:103A900070939C0280939D0290939E0207E912E02E
:103AA000F80161917191819191918F017F01F4E011
:103AB000EF1AF10820EE3EE245E652E40E94133888
:103AC000D7016D937D938D939C931397B2E0033A46
:103AD0001B0731F780910B0381110E9457126091EF
:103AE0009F027091A0028091A1029091A2029F7703
:103AF00001E010E020E030E044EB52E40E94733B30
:103B0000181614F010E000E01093A4020093A30232
:103B100081E0ABCD1092BA0104CE6BED7FE089E479
:103B200090ECB2CF2F923F924F925F926F927F9222
:103B30008F929F92AF92BF92CF92DF92EF92FF92BD
:103B40000F931F93CF93DF93CDB7DEB766970FB672
:103B5000F894DEBF0FBECDBF69877A878B879C87BD
:103B60002D873E874F87588BC801EE8A10E0882446
:103B70008A94982C540168E4462E68EE562E6624EA
:103B80006394712C05E07DE6272E71E0372E9C01B1
:103B9000990F440B550B298B3A8B4B8B5C8B6D85A6
:103BA0007E858F8598890E94DE3A6D837E838F8320
:103BB000988720E030E0A90169857A858B859C850E
:103BC0000E94AD37882309F499C129853A854B8530
:103BD0005C8563E67CE987E89FE30E94803B20E008
:103BE00030ED42E854E40E9413380E94DE3A6B0143
:103BF00080910001853009F06AC0E4EAF1E0F491B7
:103C0000FD8BF7FDD9C161E085E00E94050AFD89C1
:103C1000FF2321F02D89223009F024C1F12CE12C61
:103C200060E072E18AE790E0A70196010E94E73820
:103C300029833A834B835C83DA01C9010197A10987
:103C4000B1098F3F9105A105B10509F00CF4F0C051
:103C500060E472E48FE090E0A70196010E94E738EB
:103C600021503109410951098D89823009F0A2C0E2
:103C700082E02F3F31054105510509F00CF48CC15C
:103C800060E970ED83E090E0A70196010E94E738BB
:103C9000215031094109510983E02F3F3105410588
:103CA000510509F00CF478C1C301B201A7019601D6
:103CB0000E94E73821503109410951092F3F310550
:103CC0004105510511F00CF092C084E065C18F3FB1
:103CD00009F072C100930001E4EAF1E0F491FD8B78
:103CE000FF3F09F469C1F13029F158F0F23009F4CD
:103CF0003FC03D8937FD60C161E085E00E94050A53
:103D000089CF14BC15BC84B5826084BD85B5816043
:103D100085BDF1018491E82FF0E0EE0FFF1FE25A1C
:103D2000FE4F85919491E1E8F1E084918093B10197
:103D30001D8A69CF109280001092810080918100CD
:103D400088608093810080918100816080938100F0
:103D5000F1018491E82FF0E0EE0FFF1FE25AFE4FD1
:103D600085919491E1E8F1E084918093B0014BCF8B
:103D70001092B0001092B1008091B00082608093E8
:103D8000B0008091B10081608093B100F101849115
:103D9000E82FF0E0EE0FFF1FE25AFE4F859194915D
:103DA0009093680280936702E1E8F1E08491809348
:103DB000690229CF2F3F31054105510509F00CF467
:103DC0004FC0C301B201A70196010E94E7382150FC
:103DD0003109410951099D89992309F4AFC02F3F49
:103DE00031054105510511F00CF0B0C06ECF64E211
:103DF00074EF80E090E0A70196010E94E73821501F
:103E000031094109510985E02F3F3105410551052F
:103E100009F008F4C1C062E17AE780E090E0A70110
:103E200096010E94E73821503109410951099DC08E
:103E30009C0181E0FD89F111AFC095B5987F892B78
:103E400085BD27BD8092B6019092B701A092B801BE
:103E5000B092B90180916E00826080936E00ACC018
:103E600082E0E8CFF12CE12C60E072E18AE790E09B
:103E7000A70196010E94E7382150310941095109F3
:103E800091E02115310581E0480751055CF0C3013F
:103E9000B201A70196010E94E7382150310941097A
:103EA000510993E0ED89E13009F07CC080918100F7
:103EB000887F892B8093810030938900209388002C
:103EC0008092B2019092B301A092B401B092B50178
:103ED00080916F00826080936F006EC02093B3006A
:103EE00080926A0290926B02A0926C02B0926D0274
:103EF000809170008260809370005EC06D817E81D1
:103F00008F8198850E945B0A57C084E02F3F31055E
:103F10004105510509F008F490CF29813A814B8180
:103F20005C818AE055954795379527958A95D1F715
:103F3000215031094109510985E07FCF83E02F3FAE
:103F400031054105510509F00CF477CF62E17AE7BC
:103F500080E090E0A70196010E94E73821503109E6
:103F600041095109ED89EE2381F286E02F3F3105A9
:103F70004105510589F080F029813A814B815C81AE
:103F80009AE055954795379527959A95D1F7215001
:103F900031094109510987E09091B100987F892B3F
:103FA0008093B100FD89F13009F486CFF23009F435
:103FB00095CFFF2309F445CF6D817E818F81988550
:103FC0000E945B0A85E00E94D90969897A898B89F8
:103FD0009C890E945B0A1F5F2E892113E0CD6696A3
:103FE0000FB6F894DEBF0FBECDBFDF91CF911F910A
:103FF0000F91FF90EF90DF90CF90BF90AF909F9088
:104000008F907F906F905F904F903F902F9008958A
:104010004F925F926F927F928F929F92AF92BF92D8
:10402000CF92DF92EF920F931F93CF93DF93D82E0F
:10403000192F0E94E1128695CD2DD12FB12CA12CE4
:10404000C82ED12C88EE882E83E0982E2197AC14B0
:10405000BD044CF5CE018C199D090E94E112782E09
:10406000CE010E94E112182F672D70E0C4010E945A
:10407000483D072E000C880B990B0E94B4372B018A
:104080003C01612F70E090E080E00E94B237EE24A6
:10409000E39410E000E0A30192010E94921D8FEFD3
:1040A000A81AB80AD3CFDF91CF911F910F91EF904B
:1040B000DF90CF90BF90AF909F908F907F906F9048
:1040C0005F904F9008951F920F920FB60F92112498
:1040D0002F933F934F935F936F937F938F939F9310
:1040E000AF93BF93EF93FF9380916A0290916B021D
:1040F000A0916C02B0916D02892B8A2B8B2BD1F190
:1041000090916902E0916702F091680280818927AD
:10411000808380916A0290916B02A0916C02B091B1
:104120006D02181619061A061B069CF480916A0285
:1041300090916B02A0916C02B0916D020197A10960
:10414000B10980936A0290936B02A0936C02B093C2
:104150006D02FF91EF91BF91AF919F918F917F91F0
:104160006F915F914F913F912F910F900FBE0F90E4
:104170001F901895809100010E94D909EACF1F92E3
:104180000F920FB60F9211242F933F934F935F938B
:104190006F937F938F939F93AF93BF93EF93FF930F
:1041A0008CE595E00E94D308FF91EF91BF91AF910C
:1041B0009F918F917F916F915F914F913F912F913F
:1041C0000F900FBE0F901F9018951F920F920FB671
:1041D0000F9211242F938F939F93EF93FF93E0916E
:1041E0006C05F0916D058081E0917205F091730589
:1041F00082FD1BC09081809175058F5F8F73209128
:104200007605821741F0E0917505F0E0E45AFA4F27
:10421000958F80937505FF91EF919F918F912F91CD
:104220000F900FBE0F901F9018958081F4CF1F92B2
:104230000F920FB60F9211242F933F938F939F935A
:10424000AF93BF9380915F0290916002A091610251
:10425000B091620230915E0223E0230F2D3758F5B2
:104260000196A11DB11D20935E0280935F02909381
:104270006002A0936102B093620280916302909108
:104280006402A0916502B09166020196A11DB11D64
:104290008093630290936402A0936502B0936602D8
:1042A000BF91AF919F918F913F912F910F900FBE32
:1042B0000F901F90189526E8230F0296A11DB11D9F
:1042C000D2CF1F920F920FB60F9211242F933F93CC
:1042D0004F935F936F937F938F939F93AF93BF930E
:1042E000EF93FF938091B900887F803609F44AC02C
:1042F000F0F5883209F4A7C018F5803109F49BC0A5
:10430000B8F4882309F4F9C0883009F494C0FF9107
:10431000EF91BF91AF919F918F917F916F915F913D
:104320004F913F912F910F900FBE0F901F901895B6
:10433000883109F488C0803251F78093300514C069
:10434000803409F49DC040F48033B9F38833F9F622
:104350008093300585ECB0C0803509F485C0883580
:1043600009F496C0883499F60E94B81AD0CF8839DB
:1043700009F48CC038F5883729F050F4883611F0EC
:10438000803729F683E08093520510925D0257C072
:10439000883809F47BC0803919F0803809F0B7CF2C
:1043A00080915D02803208F071C0E0915D0281E091
:1043B0008E0F80935D028091BB00F0E0E35CFD4FC7
:1043C00080833DC0803B39F0E0F4803A09F479C045
:1043D000883A09F09CCF84E08093520510923C0209
:1043E00010923B02E0917102F09172020995809166
:1043F0003B0281110FC081E080933B0210921B02AF
:1044000009C0803C09F4A6CF883C09F4A3CF883BBF
:1044100009F07DCFE0913C0281E08E0F80933C0259
:10442000F0E0E55EFD4F80818093BB0090913C02FF
:1044300080913B0229C080912D058093BB0085ECC3
:104440008093BC0064CF90912F0580912E05981722
:1044500058F5E0912F0581E08E0F80932F05F0E055
:10446000E45FFA4F8081E9CFE0912F0581E08E0F64
:1044700080932F058091BB00F0E0E45FFA4F8083CA
:1044800090912F0580912E059817C8F285E8D8CF16
:10449000E0912F0581E08E0F80932F058091BB0066
:1044A000F0E0E45FFA4F80838091310581115CCFA9
:1044B00081E080932C0584EA8093BC001092520521
:1044C00026CF85EC8093BC001092520580915D024E
:1044D000803230F4E0915D02F0E0E35CFD4F108249
:1044E00060915D0270E0E0916F02F09170028DE3E7
:1044F00092E0099510925D020ACF1092300534CFF8
:104500001F920F920FB60F9211242F933F934F9348
:104510005F936F937F938F939F93AF93BF93CF934B
:10452000DF93EF93FF9320911C0630E0F901E057F1
:10453000FE4F8491F901E458FE4FD491F901E859F6
:10454000FE4FC491CC2379F081110E948209EC2F97
:10455000F0E0EE0FFF1FE65BFE4FA591B491EC91EA
:10456000ED2381E009F480E02091210630912206BC
:104570002F5F3F4F309322062093210620911F0684
:10458000309120062536310518F094E090931B06F3
:1045900090911B06911130C0811169C020912106B4
:1045A000309122062436310528F41092220610920A
:1045B00021065DC01092ED061092200610921F0693
:1045C00020911F0630912006A9014F5F5F4F509345
:1045D000200640931F064091210650912206220F8B
:1045E000331FF901ED5DF94F51834083109222068C
:1045F0001092210691E021C090911B06913001F5A7
:104600008130A9F520911F0630912006A9014F5F46
:104610005F4F5093200640931F0640912106509112
:104620002206220F331FF901ED5DF94F51834083BC
:10463000109222061092210692E090931B0617C05A
:1046400090911B06923061F4882309F4B9CF209130
:104650002106309122062536310548F093E0EDCF52
:1046600090911B06933099F4882309F49ECF909182
:104670001E069923A9F0811126C080911D0688236A
:1046800071F080911D0661E00E94AB0909C0909114
:104690001B06943061F791E09093ED06DFCF2D9AE1
:1046A000FF91EF91DF91CF91BF91AF919F918F914A
:1046B0007F916F915F914F913F912F910F900FBE1E
:1046C0000F901F90189580911D06882321F08091EE
:1046D0001D0660E0D9CF2D98E3CFCF93DF93ECE5B3
:1046E000F5E01382128288EE93E0A0E0B0E08483CC
:1046F0009583A683B78329E331E03183208325ECBA
:1047000030E03587248724EC30E03787268720EC9B
:1047100030E0318B208B21EC30E0338B228B22EC8C
:1047200030E0358B248B26EC30E0378B268B118ED6
:10473000128E138E148ECFE0D6E01B821A828C83E9
:104740009D83AE83BF838BE491E099838883E9EFF7
:10475000F5E08DE591E091838083D383C2838FEF71
:104760009FEF9583848316821782108611861386A5
:1047700012861586148617861686118A108A24E1F9
:1047800030E0338B228B958B848BEBE1F6E084E079
:10479000818313826FE771E084E397E00E94791AC6
:1047A000E3E2F7E081E1DF011D928A95E9F7EDE1AF
:1047B000F7E080E48083D283C18388E680930A0790
:1047C000EAEFF6E080E090E0A0E8BFE38083918329
:1047D000A283B383148215821682178210861186F3
:1047E000128613861486158616861786EEEEF6E078
:1047F000108211821282138214821582168217820D
:104800001086118612861386DF91CF910895CF937B
:10481000DF93CDB7DEB7C454D1090FB6F894DEBF2D
:104820000FBECDBF789484B5826084BD84B58160AD
:1048300084BD85B5826085BD85B5816085BD80916B
:104840006E00816080936E001092810080918100E3
:1048500082608093810080918100816080938100DB
:10486000809180008160809380008091B10084609D
:104870008093B1008091B00081608093B0008091FE
:104880007A00846080937A0080917A0082608093BD
:104890007A0080917A00816080937A0080917A001A
:1048A000806880937A001092C100E0916C05F091CD
:1048B0006D0582E08083E0916805F09169051082C2
:1048C000E0916A05F0916B0580E180831092740598
:1048D000E0917005F091710586E08083E0916E05AE
:1048E000F0916F05808180618083E0916E05F09189
:1048F0006F05808188608083E0916E05F0916F057F
:10490000808180688083E0916E05F0916F058081E1
:104910008F7D808385E090E0A0E0B0E0809360052B
:1049200090936105A0936205B093630510921603FE
:104930001092150310925905109258050E94C10A51
:1049400083E598E0909372028093710284E598E089
:104950009093700280936F0288E08093B800EE24F9
:10496000E39410E000E020E030E048E452E460E04E
:1049700070E080EA91E40E94921D8BE60E94FC1098
:1049800080ED9DE00E94F01089EC9DE00E94F01007
:1049900080EC9DE00E94F0108AE191E00E94E1121B
:1049A000882321F08FEF93E00E94082088E198E2AD
:1049B0000FB6F894A895809360000FBE90936000A6
:1049C00064E670E080E090E00E945B0A88EA9DE087
:1049D0000E94F01001E023E042E06BE680910A07BC
:1049E0000E946B0F00E022E044E06BE180910A0737
:1049F0000E946B0F22E044E06CE180910A070E9464
:104A00006B0F20E046E06BE680910A070E94380FAA
:104A100008EE13E09E012F5F3F4F41E065E7809174
:104A20000A070E94780E882339F089818E7790E0FA
:104A30009595879580930B0780910B07843319F028
:104A40008C3009F0BDCF33243394612C77247394D8
:104A500039A221E047E06BE680910A070E94380FF7
:104A600064E670E080E090E00E945B0A87E089A342
:104A700007E023E042E06AE680910A070E946B0F9C
:104A800064E670E080E090E00E945B0A39A29E013B
:104A90002F5D3F4F41E06BE680910A070E945A0D5F
:104AA00019A29E012F5D3F4F41E068E380910A0704
:104AB0000E945A0D19A29E012F5D3F4F41E063E213
:104AC00080910A070E945A0D19A29E012F5D3F4F47
:104AD00041E06CE180910A070E945A0D20E829A369
:104AE0009E012F5D3F4F41E067E380910A070E94DE
:104AF0005A0D39A29E012F5D3F4F41E06BE6809138
:104B00000A070E945A0D34E039A39E012F5D3F4FE2
:104B100041E069E180910A070E945A0D39A29E0185
:104B20002F5D3F4F41E06AE180910A070E945A0DD4
:104B300040E06DE680910A070E94860D40E06EE637
:104B400080910A070E94860D80E190E00E944D3519
:104B50005C0180E190E00E944D352C01212CE12C7C
:104B6000D12CC12CC6014096873F9B40D8F096EFD0
:104B7000F92EFC18C3018E199109F816190619F0BF
:104B800014F0FE2CF194D20190E080E096012B55B8
:104B90003E4F8F1550F4F901E80FF91FE491ED93A2
:104BA0000196F7CF80E1F82EE5CF92014F2D6FE609
:104BB00080910A070E945A0D8F2C912CA114B104E8
:104BC00009F445C1422D4F716DE680910A070E949C
:104BD000860D4E2D6EE680910A070E94860D08EE26
:104BE00013E095014F2D6FE680910A070E94780E21
:104BF000A401B501C2010E944A3E892B09F427C1D4
:104C0000C5010E94E935C2010E94E93511E0109307
:104C10006E0264E670E080E090E00E945B0A111191
:104C200017CF0FB6F894A8958091600088618093A3
:104C30006000109260000FBEE12CFF24F394B12CB1
:104C4000C7010E94BB136C0180910A0762E06B15DB
:104C500008F417C108EE13E09E012F5F3F4F41E0BB
:104C600065E70E94780E882339F089818E7790E07D
:104C70009595879580930B0780910B0766E06E0DE5
:104C8000883320F06B2D660F6B0D695880910A07F1
:104C9000D8AACFA6AE01415D5F4F0E94350DB394F7
:104CA00072E0E70EF11C86E0B812CACF10916E02D6
:104CB0001111EFC021E047E06AE680910A070E94E7
:104CC000380F8CEA9DE00E944709B9EFEB2EB2E065
:104CD000FB2E00E110E0C8010E94E112D7018D9384
:104CE0007D010F5F1F4F00321105A9F710921603C7
:104CF0001092150310925905109258050E94C10A8E
:104D000083E598E0909372028093710284E598E0C5
:104D10009093700280936F0240E860E08DE197E02D
:104D20000E94970D6AE070E080E090E00E945B0ACC
:104D300040E050E06AE774E48DE197E00E94E10F03
:104D400080E498E7ADE7B1E08093200790932107D6
:104D5000A0932207B093230783E191E00E94BB1345
:104D6000092E000CAA0BBB0B809373029093740264
:104D7000A0937502B0937602885D9945A109B109A7
:104D800085399141A105B10560F088EA91E6A0E07E
:104D9000B0E08093730290937402A0937502B09375
:104DA0007602609173027091740280917502909105
:104DB00076020E94B43720E030E04AE754E40E94D3
:104DC000653A42E00E947F110E94EC10209173022C
:104DD000309174024091750250917602A8EEB3E0D2
:104DE0000E9406396B017C0140E050E060E773E40B
:104DF0008DE197E00E94E10FC0922607D09227072D
:104E0000E0922807F0922907C0922007D09221074C
:104E1000E0922207F09223070E94020E83EB9DE0AE
:104E20000E94F01090E080E08C010F5F1F4F805CCB
:104E30009E4F0E94E112080F111DC801805C9E4F19
:104E40000E94E1128E34A1F1C8010496EDCFC80C86
:104E5000D91C56EFC5165BE0D50610F00C94F33460
:104E6000EF0C09F42394422D4F716DE680910A07EF
:104E70000E94860D4E2D6EE680910A070E94860DD7
:104E800071CEDEA6CDA6AE01435D5F4F6DE06E0D27
:104E900004CF8BE99DE00E944709612F70E090E00C
:104EA00080E04AE00E941B1189E20E94FC1009CFB9
:104EB00066E371E0C8018E5B9E4F0E94BA12F894BF
:104EC0001092800089E08093810080E293E09093CB
:104ED000890080938800109285001092840082E0FF
:104EE00080936F00789410921B0610922006109207
:104EF0001F0680911C0660E00E94050A64E070E0D5
:104F000084E397E00E94B21961E083E00E94050A01
:104F100012E30E94F01A6AE070E080E090E00E94E4
:104F20005B0A1150B1F7C0909F02D090A002E090B0
:104F3000A102F090A20260919B0270919C0280916C
:104F40009D0290919E029F7720E030E040EF51E477
:104F50000E94733B181664F020E030E040EF51E40B
:104F6000C701B6019F770E94733B18160CF0D6C09C
:104F700083E68093170382E080930E0320E030E401
:104F80004CE156E4C701B6010E9413380E94D73A9B
:104F9000072E000C880B990B611571058105910591
:104FA00011F00E940D378BE091E00E94E41464EF51
:104FB00071E080E090E00E945B0A1092A50289EB0C
:104FC0009DE00E94F01080910501882369F06091B6
:104FD000020170E08091190390911A030E94483DEC
:104FE000892B11F40E94F01A80910501882301F1A8
:104FF0008091A3029091A402892BD1F0A5E0EA2E22
:1050000009E110E020E030E048E452E460E070E0C4
:1050100080EA91E40E94921D8BE68093170362E878
:1050200071E082E293E00E94693E8FEF80930E036D
:1050300080918E028111ABC083E296E0909385024D
:105040008093840280911F0690912006909387029E
:10505000809386028091ED0690E090938902809380
:10506000880280911B06833009F091C0809125064B
:1050700090912606875891098E35910508F081C0D8
:1050800080911F0690912006049709F049C08091F5
:105090002706909128068097479708F041C0809195
:1050A000290690912A0609970997D0F51092830254
:1050B000109282022FEF3FEFA90120937C023093E0
:1050C0007D0240937E0250937F0283E090E09093B4
:1050D00079028093780280917C0290917D02A09168
:1050E0007E02B0917F02892F9A2FAB2FBB278A3582
:1050F00009F441C208F0F8C1823209F424C208F070
:10510000DDC1803109F434C208F08BC16EE07EE06D
:10511000823009F48EC165EA71E038C284E629CF95
:1051200080911F06909120068434910550F1809162
:10513000270690912806815491098F9710F590E0E9
:1051400080E040E050E0BA01FC01E75DF94F2081CA
:105150003181295031092930310598F4FC01E55D90
:10516000F94F20813181275131092231310508F46D
:105170003AC120813181265031092730310508F4A8
:105180004BC110921B061092200610921F068CE550
:1051900095E00E94B308181619060CF075C081E05E
:1051A00080938E028CE595E00E949108B82E809342
:1051B0001703082E000C990B0E94423E182F809373
:1051C0000D0382E080930E0361E070E080E090E0E8
:1051D0000E945B0ABFEBBB0DBDABBA3108F097C2B2
:1051E000EEE7E9AB0E948E0A2B013C012BE4B216DC
:1051F00021F085E090E0123611F488EC90E0A12EC9
:10520000E894A2F86C01990FEE08FF088CE595E090
:105210000E94B308892B09F497C2009109031091E9
:105220000A033BE6B31619F049E6A41207C08091C1
:10523000090190910A01081719072CF4033D51E068
:1052400015070CF467C289E19EE00E94F01064EF3C
:1052500071E080E090E00E945B0A8CE595E00E949E
:1052600091088CE595E00E94B308892BB1F78091F5
:1052700017030E94FC108BE6809317036CE971E022
:1052800082E293E00E94693E0E948E0A10910E0312
:10529000009117032FEF210F223008F086C20E94E1
:1052A0008E0A6854744F8F4F9F4F60938A02709399
:1052B0008B0280938C0290938D02802F002E000C25
:1052C000990B0E94423EF82E80930D031530D8F4BE
:1052D00032E68317C1F00C34B1F00934A1F0612F2C
:1052E00070E0615F7F4F072E000C880B990B0E94C6
:1052F000B437EE24E39410E000E020E030E040EA30
:1053000050E40E94921D80910601882349F04BE6EB
:10531000F41206C088EF9BE00E94841010920601F0
:1053200080910C038356823050F4809117038336AA
:1053300031F081E08093050187E40E94FC108091A8
:105340001703803751F080910401811106C081E07C
:105350008093040180E70E94FC1010911703E1EC98
:10536000E10FE83308F0A7C20E2E000CFF0BE55446
:10537000F64D0C945C3D532C5B2C5B2C222F5B2C4C
:105380005B2C5B2C5B2CA42C5B2C8C2E5B2C6F2F52
:10539000172F8C2E5B2C5B2C5B2C5B2C5B2C5B2CE3
:1053A000592F5B2CA42C5B2C5B2C5B2C5B2C5B2C7B
:1053B0005B2C5B2C5B2C5B2C5B2CA52DBB2DBB2DA8
:1053C000F32F5B2C5B2CA42C5B2CBB2DE92CD92F51
:1053D0005B2CBB2D5B2C5B2CD52C5B2C5B2C4C2DC8
:1053E0005B2C5B2CA42C440F551F661F771F41605C
:1053F00004968038910509F0A7CE80E290E0909362
:1054000083028093820240937C0250937D026093DA
:105410007E0270937F0259CE440F551F661F771F7F
:10542000E7CF823109F4B0C066EF7DE0883109F042
:1054300072CECE0181960E948A1A68E871E0CE0190
:1054400081960E947012882309F4A5C062E771E07A
:1054500084E397E00E94431A64E377E0CE018796E5
:105460000E94271ACE0181960E94991265EA71E086
:10547000CE0187960E947012811115C06FA178A588
:105480008BA59CA5019709F02EC16115710521F42A
:105490001092770267E772E0DB018C91809317032B
:1054A00081E080930E0310921B061092200610924A
:1054B0001F06CE0187960E94991269CE823409F4A4
:1054C0005DC048F4803309F44DC06CEE7DE0883354
:1054D00009F4AFCF20CE8A3409F453C06BED7DE0E0
:1054E000823509F4A6CF17CE823A39F198F48A377B
:1054F000E1F140F4823621F163E07EE0883609F480
:1055000098CF09CE803959F160E07EE0883909F4FE
:1055100090CF01CE823CD1F040F4883AE9F06DEFB3
:105520007DE0803B09F485CFF6CD803E91F063E1CC
:105530007EE0823E09F47DCFEECD67E17EE079CF5B
:1055400065E17EE076CF61E17EE073CF6CE07EE0E6
:1055500070CF6AE07EE06DCF68E07EE06ACF66E003
:105560007EE067CF6AEF7DE064CF62EF7DE061CFE0
:105570006FEE7DE05ECF68EE7DE05BCF64EE7DE0B8
:1055800058CF6DED7DE055CF65E871E0CE01819695
:105590000E94791A52CF6AE871E0CE0181960E948A
:1055A0007012811111C06CE871E0CE0181960E94E9
:1055B0007012811109C06EE871E0CE0181960E94DF
:1055C0007012882309F442C08DA19EA1892B21F07D
:1055D000E9A1FAA1309721F410927702E7E7F2E00F
:1055E000108110930101163471F462E771E084E3D5
:1055F00097E00E947012882331F06FE771E084E336
:1056000097E00E94431A64E377E0CE0101960E947E
:10561000271A1FA318A641E050E0BE01695D7F4F25
:10562000CE0101960E94DA19811104C0CE010196C3
:105630000E948712BE016F5F7F4FCE0187960E9446
:10564000271ACE0101960E9499120CCF60E971E0F1
:10565000CE0181960E94701209A11AA1811131C058
:1056600063E971E0CE0181960E947012811129C018
:1056700066E971E0CE0181960E947012811121C00D
:105680006FE771E0CE0181960E947012811119C0FE
:1056900069E971E0CE0181960E947012811111C0FA
:1056A00018A70FA38BA19CA19AA789A78DA19EA142
:1056B0009CA78BA71AA219A21CA21BA21EA21DA204
:1056C000D1CE0115110551F04DA15EA1B80184E3C1
:1056D00097E00E94061A1091010195CF84E397E0AC
:1056E0000E948712F8CF8BE68093170382E293E043
:1056F0000E94693E6CE971E082E293E00E94603EA4
:10570000892B09F0CDCE86E480930101C9CEFAE061
:10571000F9AB68CD8CE595E00E94910898012F5F68
:105720003F4F30930A0320930903F801EE5DFC4FCD
:1057300080838CE595E00E94B308892B09F06DCD3C
:105740000E948E0A2B013C010091090310910A036B
:10575000180161E0261A3108C1018E5D9C4F4C0191
:10576000DC018C91B9A98B1761F00E948E0A641933
:105770007509860997096C157D058E059F050CF442
:1057800045CDF4018081F9A9F81301C0810110937E
:105790000A03009309032DA98EE72A3108F080E05F
:1057A000F801EE5DFC4F80836FCD033611F40C944D
:1057B0003D35C0908A02D0908B02E0908C02F09030
:1057C0008D026C197D098E099F0916161706180699
:1057D000190614F410928E0211116FCD80911703E7
:1057E0008B3609F06CC72090FA0427FEA6C480917E
:1057F0000805FF24FA94F80E823008F4F12C10E02A
:10580000212F30E08091FA04082E000C990B97FFAD
:1058100003C0919581959109281739070CF01AC793
:10582000C0900A05D0900B0580910005189FC00C10
:10583000D11C1124F6016089062E000C770B880B11
:10584000990B0E94B43720E030E040E85EE30E940C
:1058500013389B01AC0100E060910505C6010E9470
:105860007816A0910A05B0910B0580910005189F4C
:10587000A00DB11D112452962C9152972111C7C32E
:1058800080910005E0910A05F0910B05189FE00D4D
:10589000F11D1124618916160CF435C4EEEC6E026C
:1058A000B001112434C485E49EE00E94F0108CE322
:1058B0009EE00E94F010809117038B3621F49091A6
:1058C000FA041916CCF40E94FC1080910C038B365C
:1058D00099F4809117038A3661F0803751F08091F6
:1058E0000D03873631F0982F9B7F993611F086375C
:1058F00019F48BE680931703109117031B3691F46C
:1059000080912203882371F062E871E082E293E0E3
:105910000E94603E892B31F062E273E085EA92E0FA
:105920000E94693E10920E0310930C031B3629F05F
:105930001356123010F01092170310922203109297
:105940000A03109209034ACF173689F480910301A4
:1059500091E089278093030193E0811101C097E1D1
:1059600090930201811117E410931703A4CF173409
:1059700051F48091050191E08927809305018111FF
:10598000F3CF17E6F1CF163719F40E94571293CFD1
:10599000163509F090CF80910B0391E08927809311
:1059A0000B038111E1CF16E7DFCF8091040191E075
:1059B000811190E090930401811110E51093170379
:1059C000811104C08BE68093170375CF0E94020EED
:1059D00072CF8DE30E9442098091090390910A03DE
:1059E000892B21F182E293E00E941637880F991FDC
:1059F000FC01E55FFE4FC080D1800D2C000CEE084D
:105A0000FF084AE0C701B601F7FE0BC08DE20E9415
:105A1000420966277727CB016C197D098E099F09FA
:105A20004AE00E941B110E94EC1045CF0E945F11BA
:105A300065EA71E0CE0181960E94791A0BE011E0CF
:105A40004BE2E42E41E0F42ED8016D917D918D0161
:105A5000CE0101960E944D1A4D815E8169817A8145
:105A6000CE0181960E94DA19CE0101960E94991208
:105A700042E050E063EA71E0CE0181960E94DA19BB
:105A8000E016F10609F7CE0181960E940811CE01B9
:105A900081960E9499120FCF86E39EE00E94F0103B
:105AA00029EF822E22E0922E30E4E32EF12C00E149
:105AB00010E0F401D1904F01C8010E94D138D816EE
:105AC00021F06D2DC8010E94D938C7010E94BB1377
:105AD0006C01C80180960E94E112B82EF401319742
