:100000000C9416010C943E010C943E010C943E019C
:100010000C943E010C943E010C943E010C945A1732
:100020000C943E010C943E010C943E010C94771903
:100030000C943E010C943E010C943E010C943E0144
:100040000C940E180C943E010C94DC170C94B6170B
:100050000C943E010C943E010C943E010C943E0124
:100060000C9458180C943E0105A84CCDB2D44EB94E
:100070003836A9020C50B9918688083CA6AAAA2A4B
:10008000BE000000803F07634236B79BD8A71A39ED
:10009000685618AEBAAB558C1D3CB7CC5763BD6DD6
:1000A000EDFD753EF6177231BF000000803F08007D
:1000B0000000BE922449123EABAAAA2ABECDCCCCE7
:1000C0004C3E00000080BEABAAAAAA3E0000000081
:1000D000BF000000803F0000000000084178D3BB53
:1000E0004387D1133D190E3CC3BD4282AD2B3E6800
:1000F000EC8276BED98FE1A93E4C80EFFFBE01C4F1
:10010000FF7F3F0000000000010000010000000030
:1001100000000000000000000000000000000000DF
:10012000240027002A00536572766F3A00536B69EA
:100130006C6C005461736B510052656164792100ED
:100140004E5F323430323237004E7962626C650075
:100150000A2A205374617274202A00540062757454
:10016000745570007773660070656500707500687F
:1001700069007374720073697400747200776B00A5
:100180006372007674006300420070005200757064
:10019000004C006700460064004F56460000000017
:1001A0000800020100000304070000000000000036
:1001B00000000000002300260029004F56462120A1
:1001C000576F6E27742073617665210061626F72CC
:1001D000746564007361766564004E5F323430325A
:1001E0003237004E7962626C65004C6F7720706F19
:1001F0007765723A000200000000250028002B00FD
:1002000004040404040404040202020202020303BC
:1002100003030303010204081020408001020408C4
:100220001020010204081020881A0A2B11241FBE76
:10023000CFEFD8E0DEBFCDBF11E0A0E0B1E0EAE44F
:10024000F7E602C005900D92AA3DB107D9F726E066
:10025000AAEDB1E001C01D92A03FB207E1F711E0A5
:10026000C5E1D1E004C02197FE010E945A32C43199
:10027000D107C9F70E94921B0C9498330C9400008C
:1002800047E018160CF444E04093BF0498E0823035
:1002900024F494E1813009F490E19093C004282F74
:1002A000880F330B37FF03C0319521953109929F99
:1002B000B001939F700D1124CB01840F911D0895FF
:1002C0008091E302082E000C990B9093C204809356
:1002D000C1048091E402082E000C990B9093C40491
:1002E0008093C3048091E5028093C5048091BA0491
:1002F00087FF0EC09091E6029093C6049091E702AA
:100300009093C7049091E8029093C80490E005C0D0
:100310008130E1F398E08230CCF39093C904082E49
:10032000000C990B97FF03C091958195910940911D
:10033000C004489F9001499F300D112482ED91E047
:10034000821B930B90930B0180930A016091BF0471
:10035000620F732F711D82EE92E050E040E0FC01CD
:10036000E60FF71FA081FC01ED52FE4FA0834F5F07
:100370005F4F01972417350794F78EE78093B504F4
:1003800085EB94E0821B930B9093CB048093CA047B
:100390000895CF93DF93DC019096FC0141E85FEF75
:1003A00060E870E021913191261737070CF4B9010C
:1003B000421753070CF4A901EA17FB0799F76338B2
:1003C0007F4F1CF04E3751056CF122E02093C5049D
:1003D000DC012D913D91ED01229737FF02C02F5F87
:1003E0003F4F3595279539832883AE17BF0789F787
:1003F000A091CA04B091CB04EC01288102962D9300
:100400008E179F07C9F781E08093BA041092C90440
:1004100080E18093C0041092E1021092E002DF912B
:10042000CF91089521E02093C504E2CF8091DC02B2
:100430009091DD02891B990B089508950895AF925C
:10044000BF92CF92DF92EF92FF920F931F93CF93C1
:10045000DF936C017B018B01040F151FEB015E0123
:10046000AE18BF08C017D10759F06991D601ED91B8
:10047000FC910190F081E02DC6010995892B79F757
:10048000C501DF91CF911F910F91FF90EF90DF9009
:10049000CF90BF90AF900895FC01538D448D252FD0
:1004A00030E0842F90E0821B930B541710F0CF960E
:1004B000089501970895FC01918D828D981761F040
:1004C000A28DAE0FBF2FB11D5D968C91928D9F5F57
:1004D0009F73928F90E008958FEF9FEF0895FC0136
:1004E000918D828D981731F0828DE80FF11D858DE9
:1004F00090E008958FEF9FEF0895FC01918D228D7C
:10050000892F90E0805C9F4F821B91098F73992700
:1005100008958DE295E00E947D0221E0892B09F487
:1005200020E0822F089580E090E0892B29F00E943E
:10053000890281110C9400000895FC01A48DA80F7C
:10054000B92FB11DA35ABF4F2C91848D90E0019615
:100550008F739927848FA689B7892C93A089B18935
:100560008C91837080648C93938D848D981306C0D6
:100570000288F389E02D80818F7D80830895EF923A
:10058000FF920F931F93CF93DF93EC0181E0888F4D
:100590009B8D8C8D98131AC0E889F989808185FF1D
:1005A00015C09FB7F894EE89FF896083E889F989BF
:1005B00080818370806480839FBF81E090E0DF91C1
:1005C000CF911F910F91FF90EF900895F62E0B8D14
:1005D00010E00F5F1F4F0F731127E02E8C8D8E11CF
:1005E0000CC00FB607FCFACFE889F989808185FF36
:1005F000F5CFCE010E949D02F1CFEB8DEC0FFD2FC8
:10060000F11DE35AFF4FF0829FB7F8940B8FEA89F0
:10061000FB8980818062CFCF682F8DE295E00C94BA
:10062000BF020F931F93CF93DF938C01D0E0C0E004
:10063000F801EC0FFD1F6491662341F08DE295E017
:100640000E94BF02892B11F02196F2CFCE01DF91DB
:10065000CF911F910F910895CF93DF93EC01888D77
:100660008823B9F0AA89BB89E889F9898C9185FD2D
:1006700003C0808186FD0DC00FB607FCF7CF8C91BB
:1006800085FFF2CF808185FFEDCFCE010E949D02D4
:10069000E9CFDF91CF910895833081F028F4813044
:1006A00099F08230A9F008958730A9F08830C9F018
:1006B0008430B1F4809180008F7D03C080918000F0
:1006C0008F7780938000089584B58F7784BD0895D7
:1006D00084B58F7DFBCF8091B0008F778093B00081
:1006E00008958091B0008F7DF9CFCF93DF93282FAD
:1006F00030E0F901E356FE4F8491F901EC5EFD4FC5
:10070000D491F901E050FE4FC491CC23A1F08111A6
:100710000E944C03EC2FF0E0EE0FFF1FEF54FE4F52
:10072000A591B491EC91ED2381E090E009F480E093
:10073000DF91CF91089580E090E0FACF1F93CF939F
:10074000DF93282F30E0F901E356FE4F8491F90141
:10075000EC5EFD4FD491F901E050FE4FC491CC23E3
:10076000A9F0162F81110E944C03EC2FF0E0EE0F40
:10077000FF1FEA50FE4FA591B4918FB7F894EC910A
:10078000111108C0D095DE23DC938FBFDF91CF918C
:100790001F910895DE2BF8CF90912C0189130BC087
:1007A000E5EFF1E0E4919FEF90932C01E13049F007
:1007B00028F0E23061F060E00C949E0310926E002D
:1007C000FACF90916F009D7F90936F00F4CF90913E
:1007D00070009D7F9093700091E09093B000909195
:1007E000B100987F94609093B1001092B300E3CF72
:1007F000CF93DF9390E0FC01EC5EFD4F249180509D
:100800009E4FFC0184918823D1F090E0880F991FBE
:10081000FC01E45EFE4FA591B491FC01EA50FE4F4D
:10082000C591D49161110EC09FB7F8948C91E22FBD
:10083000E0958E238C932881E223E8839FBFDF918C
:10084000CF9108958FB7F894EC91E22BEC938FBF82
:10085000F6CF8E3008F08E508770806480937C00D5
:1008600080917A00806480937A0080917A0086FD7E
:10087000FCCF809178009091790008953FB7F8946B
:100880008091430290914402A0914502B0914602AA
:1008900026B5A89B05C02F3F19F00196A11DB11DDB
:1008A0003FBFBA2FA92F982F8827BC01CD01620F17
:1008B000711D811D911D42E0660F771F881F991FD2
:1008C0004A95D1F708958F929F92AF92BF92CF929F
:1008D000DF92EF92FF926B017C010E943E044B017C
:1008E0005C01C114D104E104F104B9F00E943E049A
:1008F000681979098A099B09683E73408105910549
:1009000080F321E0C21AD108E108F10888EE880ED0
:1009100083E0981EA11CB11CE4CFFF90EF90DF9004
:10092000CF90BF90AF909F908F9008952FB7F8947D
:1009300060913F0270914002809141029091420289
:100940002FBF089520911B02260F3327331F21321A
:100950003105ECF420912705FC0190E080E0243083
:1009600069F082E00895A0911B022191AC014550ED
:100970005E4FA40FB52FB11D2C930196861798F3E7
:1009800080911B02680F60931B0280E0089581E054
:1009900008951092270581E08093060510920105C5
:1009A00061E082E10E949E0361E083E10E949E0378
:1009B000E9EBF0E080818E7F808380818D7F808372
:1009C00088E48093B80085E48093BC000895CF93B9
:1009D000DF9391E09093FA018823B9F0C091B800B9
:1009E000D091BA008091BC008A7B8093BC0060E00B
:1009F00082E10E949E0360E083E10E949E030E94C8
:100A0000C904D093BA00C093B800DF91CF91089584
:100A1000CF92DF92EF92FF920F931F93CF93DF93CA
:100A2000D82FC62F613208F098C00E943E046B0197
:100A30007C018091270581116BC081E0809327059F
:100A4000809306059FEF90930505109204059C0F77
:100A5000909303058093020580910205DD0FD82B4A
:100A6000D093020580910105813009F078C0109281
:100A700001050E943E046B017C0180910205809378
:100A8000BB008091290590912A05A0912B05B0917A
:100A90002C05892B8A2B8B2BA1F00E943E04009100
:100AA000290510912A0520912B0530912C056C19F0
:100AB0007D098E099F09061717072807390708F4CB
:100AC00048C08091BC0083FDD8CF85EC8093BC00EA
:100AD0000E943E046B017C0180912705813009F45E
:100AE00040C0809104058C1710F4C0910405E1EE1C
:100AF000F4E0A7E0B5E080E08C1355C08C2FDF91C7
:100B0000CF911F910F91FF90EF90DF90CF900895BC
:100B10008091290590912A05A0912B05B0912C0573
:100B2000892B8A2B8B2B09F484CF0E943E040091E1
:100B3000290510912A0520912B0530912C056C195F
:100B40007D098E099F09061717072807390708F03E
:100B500070CF809128050E94E704C0E0CFCF85EEDA
:100B6000B5CF8091290590912A05A0912B05B091D0
:100B70002C05892B8A2B8B2B09F4AECF0E943E04C7
:100B80000091290510912A0520912B0530912C0503
:100B90006C197D098E099F09061717072807390761
:100BA00008F09ACFD6CF91919D938F5FA5CF0895EE
:100BB000E091DD028091DC02E81730F4F0E0E95FBB
:100BC000FA4F808190E008958FEF9FEF0895909104
:100BD000DD028091DC022FEF3FEF981748F4E92FF8
:100BE000F0E0E95FFA4F208130E09F5F9093DD02F3
:100BF000C9010895CF92DF92EF92FF920F931F9356
:100C0000CF93DF937C01CB018A012091CF04222373
:100C100089F0EB016B01C40ED51ECC15DD0569F022
:100C20006991D701ED91FC910190F081E02DC70110
:100C30000995F3CF642F0E94A204C801DF91CF91E0
:100C40001F910F91FF90EF90DF90CF900895CF9379
:100C5000DF931F92CDB7DEB769832091CF042223A3
:100C6000F9F02091CC04203258F021E030E0FC0172
:100C70003383228390E080E00F90DF91CF9108953D
:100C80008091CD04E82FF0E0E652FE4F99819083E9
:100C90008F5F8093CD048093CC0481E090E0ECCF13
:100CA00061E0CE0101960E94A204F7CFCF92DF92BD
:100CB000EF92FF920F931F93CF93DF93D091CC04C9
:100CC00081E0D13208F09CC0C091CE040E943E0465
:100CD0006B017C018091270581116CC082E08093BB
:100CE000270581E0809306058FEF8093050510921C
:100CF0000405D0930305AAEDB1E0E1EEF4E080E055
:100D0000D8138DC01092020580910205CC0FC82B1C
:100D1000C093020580910105813009F084C01092D2
:100D200001050E943E046B017C01809102058093C5
:100D3000BB008091290590912A05A0912B05B091C7
:100D40002C05892B8A2B8B2BA1F00E943E0400914D
:100D5000290510912A0520912B0530912C056C193D
:100D60007D098E099F09061717072807390708F418
:100D700042C08091BC0083FDD8CF85EC8093BC003D
:100D80000E943E046B017C0180912705823009F4AA
:100D90004CC0809105058F3F09F469C0809105051D
:100DA000803209F466C080910505803309F463C080
:100DB00084E026C08091290590912A05A0912B05F9
:100DC000B0912C05892B8A2B8B2B09F483CF0E94A1
:100DD0003E040091290510912A0520912B053091A0
:100DE0002C056C197D098E099F090617170728071E
:100DF000390708F06FCF809128050E94E70485E04D
:100E00001092CD041092CC041092CF04DF91CF91B8
:100E10001F910F91FF90EF90DF90CF9008959D91DB
:100E200091938F5F6DCF85EEA9CF80912905909129
:100E30002A05A0912B05B0912C05892B8A2B8B2B91
:100E400009F4A2CF0E943E040091290510912A05C1
:100E500020912B0530912C056C197D098E099F0975
:100E6000061717072807390708F08ECFC4CF80E090
:100E7000C7CF82E0C5CF83E0C3CF90E080E0089584
:100E8000EF92FF920F931F93CF93DF93EC0180E0DB
:100E9000B0E0A0E0E881F981AE17BF07D8F4AE1743
:100EA0001F06A8F4E82FF0E00A811B817F010E0DD8
:100EB0001F1DF80140830A811B810E0D1F1DF801C3
:100EC00061830A811B81F701E00FF11F22831196D4
:100ED0008D5FE0CF81E0DF91CF911F910F91FF9067
:100EE000EF9008958F929F92AF92BF92CF92DF9230
:100EF000EF92FF92CF93DF93E62F6A01FF24D7FC96
:100F0000F094EF2C832E942EA52EBB24A7FCBA942C
:100F1000E1110EC0482D6C2DDF91CF91FF90EF9025
:100F2000DF90CF90BF90AF909F908F900C94400730
:100F3000DC016D917C911197E617170609F0D8F442
:100F4000E150E6171706B8F46E2F660FE60FF0E0D3
:100F500012960D90BC91A02DAE0FBF1F8C92EC018C
:100F6000AA81BB81AE0FBF1F1196CC926A817B8193
:100F7000E60FF71F228380E0DF91CF91FF90EF9083
:100F8000DF90CF90BF90AF909F908F90089508957D
:100F90001F93CF93DF93EC01142F89819A812881CD
:100FA00031E03093CF042093CE041092CD04109200
:100FB000CC04DC01ED91FC910190F081E02D0995CC
:100FC00089819A81DC01ED91FC910190F081E02D05
:100FD000612F099589819A81DF91CF911F910C949E
:100FE0005606DC01ED91FC910190F081E02D099411
:100FF000DC01ED91FC910190F081E02D09940F93BB
:101000001F93CF93DF93EC018A0189819A81288114
:1010100031E03093CF042093CE041092CD0410928F
:10102000CC0424E0629FB00111246A5F7F4F0E94CC
:10103000F80770E060E089819A810E94F10770E012
:1010400060E089819A810E94F107B80189819A81C3
:101050000E94F107612F70E089819A810E94F10757
:1010600089819A81DF91CF911F910F910C9456063F
:10107000CF93C0E040E050E16C2F87EC96E00E94F7
:10108000FF07CF5FC031B1F7CF910895BF92CF92E4
:10109000DF92EF92FF920F931F93CF93DF93EC01B8
:1010A00081E08093CF0484E58093CE041092CD0438
:1010B0001092CC046D2F70E080EE95E00E94F8074E
:1010C000BE01772780EE95E00E94F80780EE95E05C
:1010D0000E94560661E084E50E9408051092DD0238
:1010E0008093DC0280EE95E00E94E7058093E202A7
:1010F0008093BA040E944001EC01F12CE12C1C16F3
:101100001D064CF56C2FCF31D1050CF06EE184E556
:101110000E940805B82E1092DD028093DC026E0159
:101120008EE1C81AD1088E018091DD02B81659F0FF
:1011300080EE95E00E94E7059FEFE91AF90AF701B2
:10114000EE51FD4F80830150110929F0E6010C1585
:101150001D0551F7D4CFDF91CF911F910F91FF90D3
:10116000EF90DF90CF90BF900895CF93DF93EC0185
:1011700089819A81288131E03093CF042093CE0475
:101180001092CD041092CC04DC01ED91FC91019001
:10119000F081E02D099589819A810E94560661E0CF
:1011A00088810E9408051092DD028093DC0289810B
:1011B0009A81DC01ED91FC910284F385E02D099583
:1011C000DF91CF9108958F929F92AF92BF92CF926D
:1011D000DF92EF92FF921F93CF93DF93EC016A01AE
:1011E0007B0120E030E040E85FE3CB01B6010E94E4
:1011F0006E2D87FD7EC020E030EC4AE555E4C70146
:10120000B6010E949B3018163CF4C12C30ECD32E52
:101210003AE5E32E35E4F32E6B817C818D819E814E
:101220000E94732D4B015C0120E030E040E855E462
:10123000C701B6010E94D42D9B01AC01C501B401C8
:101240000E94B42F20E030E040E05FE30E94432F93
:1012500020E030E040E85FE30E94422F6B017C0118
:1012600020E030E040E450E40E946E2D87FD48C04D
:1012700020E030E04FE753E4C701B6010E949B3005
:10128000181634F4C12CD12C9FE7E92E93E4F92EE3
:1012900060E0CE010E94B508182F482F4F764061BC
:1012A00060E0CE010E94C807C701B6010E942D3040
:1012B000462F6EEFCE010E94C807412F60E0CE019D
:1012C0000E94C80765E070E080E090E00E9463043F
:1012D000412F406A60E0CE01DF91CF911F91FF90D6
:1012E000EF90DF90CF90BF90AF909F908F900C9435
:1012F000C807C12CD12C20E8E22E2FE3F22E8CCF90
:10130000C12CD12C80E4E82EFE2CC2CF4F925F92EC
:101310006F927F928F929F92AF92BF92CF92DF9205
:10132000EF92FF92CF93C0E06C01F12CE12CC7014A
:10133000B6010E94732D4B015C016EEF87EC96E0C5
:101340000E94B508682F70E06F5F7F4F90E080E0EB
:101350000E94732D20E034E244E759E40E94D42D2A
:101360002B013C016091CA067091CB068091CC069E
:101370009091CD060E94732D9B01AC01C301B20177
:101380000E94B42F9B01AC01C501B4010E94B42F8F
:101390000E942D30AB016C2F87EC96E00E94FF0776
:1013A000CF5FC03121F6CF91FF90EF90DF90CF90CB
:1013B000BF90AF909F908F907F906F905F904F9075
:1013C0000895FC0101900020E9F73197AF01481B17
:1013D000590BBC018DE295E00C941F0283E691E06D
:1013E0000C94E109CF93DF930E941103EC010E945A
:1013F000EE098C0F9D1FDF91CF910895CF93DF935E
:101400000E940C03EC010E94EE098C0F9D1FDF91DE
:10141000CF910895CF93DF93FC0144815581608182
:1014200071818DE295E00E941F02EC010E94EE099D
:101430008C0F9D1FDF91CF9108958F929F92AF9255
:10144000BF920F931F93CF93DF93CDB7DEB7A197D2
:101450000FB6F894DEBF0FBECDBF19A2423008F41C
:101460004AE08E010F5D1F4F842E912CB12CA12CD0
:10147000A50194010E94112FE62FB901CA01EA309B
:10148000F4F4E05DD801EE938D01232B242B252B62
:1014900079F790E080E0109719F0CD010E94E10902
:1014A000A1960FB6F894DEBF0FBECDBFDF91CF91EE
:1014B0001F910F91BF90AF909F908F900895E95C1E
:1014C000E1CFCF92DF92EF92FF92C12CD12C760127
:1014D0004AE0C701B6010E941D0A89E00E940C0380
:1014E0008FEFC81AD80AE80AF80A80E1C816D104B2
:1014F000E104F10469F7FF90EF90DF90CF900C9436
:10150000EE09CF92DF92EF92FF92CF93DF936C01BF
:10151000990FEE08FF08F7FE1BC08DE20E940C0336
:10152000EC0166277727CB016C197D098E099F098D
:101530004AE00E941D0AC80FD91F0E94EE098C0FB5
:101540009D1FDF91CF91FF90EF90DF90CF90089596
:101550004AE0C701B6010E941D0AEC01EECF4F928E
:101560005F926F927F928F929F92AF92BF92CF9233
:10157000DF92EF92FF920F931F93CF936B017C0149
:10158000742EAC019B010E94F830882399F086E606
:1015900091E0CF911F910F91FF90EF90DF90CF904E
:1015A000BF90AF909F908F907F906F905F904F9083
:1015B0000C94E10946015701E894B7F82FEF3FEF8B
:1015C0004FE75FE7C501B4010E94F83081110DC0FB
:1015D0002FEF3FEF4FE75FE7C501B4010E946E2D8B
:1015E00018161CF48AE691E0D4CF2FEF3FEF4FE7B7
:1015F0005FE4C701B6010E949B3018161CF48EE60A
:1016000091E0C7CF2FEF3FEF4FE75FECC701B60187
:101610000E946E2D87FDF3CF20E030E0A901C701C5
:10162000B6010E946E2D10E000E087FF08C08DE239
:101630000E940C038C01F7FAF094F7F8F094C0E0E4
:1016400060E070E080E09FE37C1641F020E030E055
:1016500040E251E40E94B42FCF5FF6CFA70196017C
:101660000E94432F2B013C010E942D304B015C0155
:101670004AE00E941D0A7C01E00EF11ECC23B1F16C
:10168000C501B4010E94732D9B01AC01C301B201DD
:101690000E94422F4B015C018EE20E940C03E80E77
:1016A000F91EC15018F120E030E040E251E4C501DC
:1016B000B4010E94D42D2B013C010E942D304B011E
:1016C000B12CA12C4AE0C501B4010E941D0AE80E0C
:1016D000F91EC501B4010E94732D9B01AC01C30129
:1016E000B2010E94422F4B015C01DBCFC701CF91B9
:1016F0001F910F91FF90EF90DF90CF90BF90AF9030
:101700009F908F907F906F905F904F9008954F9231
:101710005F926F927F928F929F92AF92BF92CF9281
:10172000DF92EF92FF92CF936B017C01CA01B90166
:101730000E942D304B015C0120E030E0A901C7017F
:10174000B6010E946E2D882309F49CC1A701960161
:1017500063E67CE987E89FE30E94A03020E030ED5B
:1017600042E854E40E94D42D0E942D306B018091F8
:101770002C01853009F066C0E5EFF1E0C491C7FDAA
:10178000D7C161E085E00E94F803CC2319F0C23094
:1017900009F025C1F12CE12C60E072E18AE790E0CC
:1017A000A70196010E94A82E29013A01DA01C90178
:1017B0000197A109B1098F3F9105A105B10509F074
:1017C0000CF4F1C060E472E48FE090E0A7019601B0
:1017D0000E94A82E2150310941095109C23009F057
:1017E000A3C082E02F3F31054105510509F00CF4FB
:1017F00090C160E970ED83E090E0A70196010E943E
:10180000A82E215031094109510983E02F3F3105AC
:101810004105510509F00CF47CC168E478EE81E0E3
:1018200090E0A70196010E94A82E2150310941099C
:1018300051092F3F31054105510511F00CF092C0BF
:1018400084E067C18F3F09F073C185E080932C016C
:10185000E5EFF1E0C491CF3F09F46AC1C13021F155
:1018600050F0C23009F43EC0C7FD62C161E085E0BE
:101870000E94F8038CCF14BC15BC84B5826084BD73
:1018800085B5816085BDE5E0F2E0E491F0E0EE0F22
:10189000FF1FEA50FE4F85919491E9E1F2E0E49157
:1018A000E093D404C0E06DCF1092800010928100CC
:1018B00080918100886080938100809181008160A7
:1018C00080938100E5E0F2E0E491F0E0EE0FFF1F8D
:1018D000EA50FE4F85919491E9E1F2E0E491E093C2
:1018E000D3044FCF1092B0001092B1008091B0009D
:1018F00082608093B0008091B10081608093B100DC
:10190000E5E0F2E0E491F0E0EE0FFF1FEA50FE4F59
:10191000859194919093D2048093D104E9E1F2E00F
:10192000E491E093D0042DCF2F3F310541055105BF
:1019300009F00CF452C068E478EE81E090E0A70171
:1019400096010E94A82E2150310941095109CC234A
:1019500009F4B4C02F3F31054105510511F00CF0D9
:10196000B5C06ECF64E274EF80E090E0A70196010D
:101970000E94A82E215031094109510985E02F3FCD
:1019800031054105510509F008F4C3C062E17AE769
:1019900080E090E0A70196010E94A82E2150310915
:1019A00041095109A1C09C0181E0C111B2C095B5A6
:1019B000987F892B85BD27BD8FEF9FEFDC0180933A
:1019C000DD049093DE04A093DF04B093E0048091E3
:1019D0006E00826080936E00ABC082E0E6CFF12C97
:1019E000E12C60E072E18AE790E0A70196010E9495
:1019F000A82E215031094109510991E021153105E5
:101A000081E0480751056CF068E478EE81E090E0F1
:101A1000A70196010E94A82E2150310941095109C0
:101A200093E0C13009F07BC080918100887F892BD1
:101A30008093810030938900209388008FEF9FEF7F
:101A4000DC018093D9049093DA04A093DB04B09373
:101A5000DC0480916F00826080936F0069C02093E6
:101A6000B3008FEF9FEFDC018093D5049093D604F1
:101A7000A093D704B093D8048091700082608093C3
:101A8000700056C0C501B4010E94630451C084E0D7
:101A90002F3F31054105510509F008F488CF8AE050
:101AA00075946794579447948A95D1F7A30192014E
:101AB000215031094109510985E079CF83E02F3F59
:101AC00031054105510509F00CF471CF62E17AE767
:101AD00080E090E0A70196010E94A82E21503109D4
:101AE00041095109CC2399F286E02F3F3105410588
:101AF000510579F070F09AE0759467945794479483
:101B00009A95D1F7A3019201215031094109510958
:101B100087E09091B100987F892B8093B100C1300C
:101B200009F488CFC23009F49ACFCC2309F443CF0B
:101B3000C501B4010E94630485E00E94CC0360E00B
:101B400070E0CB01CF91FF90EF90DF90CF90BF90EE
:101B5000AF909F908F907F906F905F904F900C947C
:101B60006304FC0124813581232B39F421E0FB013E
:101B70008081882349F020E007C0808191810E9404
:101B80004F3321E0892BB9F7822F0895CF93DF934C
:101B9000EC0188819981009711F00E94AA2B19828B
:101BA00018821D821C821B821A82DF91CF910895B8
:101BB000FC0180819181009711F00C94AA2B08956B
:101BC0000C94AA2BFF920F931F93CF93DF93EC01FA
:101BD000F62E08811981C8010E94922EF81621F074
:101BE0006F2DC8010E949A2ECE01DF91CF911F91D7
:101BF0000F91FF900895FF920F931F93CF93DF9360
:101C000000D0CDB7DEB78C01F72E9A838983CE0141
:101C100001960E94E20D0F5F1F4F1A8309836F2DFB
:101C2000CE0101960E94E20D66E070E080E090E057
:101C30000E9463040F900F90DF91CF911F910F913D
:101C4000FF9008950C94922E2F923F924F925F92A4
:101C50006F927F928F929F92AF92BF92CF92DF92BC
:101C6000EF92FF920F931F93CF93DF93CDB7DEB721
:101C70002E970FB6F894DEBF0FBECDBF5C0185E195
:101C800091E00E94220E682E62E771E0C5010E9479
:101C90004F33762C892B89F4C62CD12CF12CE12CD6
:101CA000C114D104E104F10439F00E947F2CA70192
:101CB00096010E94A82E6B017C2CF501019000205A
:101CC000E9F73197EA19FB092E2F2150330B6901EF
:101CD000F501E20FF31F30813C87512C10E000E04A
:101CE000CE0101967C0181E491E0FC01EE19FF092F
:101CF000FE87ED87651409F49AC01801FFEF2F1ACB
:101D00003F0AC801805C9E4F0E94220E482E470168
:101D10002D853E85020F131F882D8E19841548F4DA
:101D2000C801880D991D0E94220EF40181934F0174
:101D3000F3CF842C912C8101080D191DF701E80DBA
:101D4000F91D108257104CC064E771E0C7010E9472
:101D50004F33892B09F441C067E771E0C7010E9446
:101D60004F33892BD1F16AE771E0C7010E944F33ED
:101D7000892B99F16DE771E0C7010E944F33892BE0
:101D800061F160E871E0C7010E944F33892B29F1AE
:101D9000C8018F5B9E4F0E94220E8093BA040E945E
:101DA0004001C801805C9E4F2E960FB6F894DEBFAE
:101DB0000FBECDBFDF91CF911F910F91FF90EF909C
:101DC000DF90CF90BF90AF909F908F907F906F905B
:101DD0005F904F903F902F900895739453948ACFC3
:101DE000B501C7010E944F33892B91F2FE01E80D26
:101DF000F91D80818634C1F064E871E0C7010E945A
:101E00004F33892B89F0A601B501C7010E945F33CA
:101E1000892B51F4FC85FC3409F4BACFF23509F46E
:101E2000B7CFF83509F4B4CF0C5F1F4FD7CF8FE38E
:101E30000E940C03C5010E94E1090E94EE098FEF88
:101E40009FEFB2CF7F928F929F92AF92BF92CF922D
:101E5000DF92EF92FF920F931F93CF93DF93F82EB1
:101E6000192F0E94220E8695CF2DD12FF12CE12C17
:101E7000082F10E088EEC82E83E0D82E2197E016B8
:101E8000F1062CF5CE01801B910B0E94220EB82E7C
:101E9000CE010E94220E782E6B2D70E0C6010E94AA
:101EA0004632072E000C880B990B0E94752D4B01B2
:101EB0005C01672D70E090E080E00E94732DA50129
:101EC00094010E94870B8FEFE81AF80AD7CFDF91B1
:101ED000CF911F910F91FF90EF90DF90CF90BF9027
:101EE000AF909F908F907F9008951F93CF93DF9333
:101EF000EC010E94220E182FCE0101960E94220EA4
:101F000090E0982F8827810F911DDF91CF911F912D
:101F10000895CF92DF92EF92FF920F931F93CF938A
:101F2000DF936A017B01082F10E0C801805B9F4F9F
:101F3000880F991F0E94750FBC01990F880B990B90
:101F40000E94752D20E030E04AE754E40E94B42F4F
:101F5000A70196010E94D42D6B017C0182E191E0E2
:101F60000E94220E9AE0899FB0011124072E000CD6
:101F7000880B990B0E94752DA70196010E94432F93
:101F80006B017C0120E030E04AEF53E40E949B307B
:101F9000C4EFD1E018168CF420E030E44CE155E4B5
:101FA000C701B6010E946E2DC4ECD9E087FF05C0C1
:101FB000C701B6010E942630EB01C8010E94220E23
:101FC000AE01682F87EC96E0DF91CF911F910F91C2
:101FD000FF90EF90DF90CF900C94FF0790E0C096B9
:101FE000880F991F860F911D880F991F0C94750FEC
:101FF0007F928F929F92AF92BF92CF92DF92EF9299
:10200000FF920F931F93CF93DF93B82E6A01D62FC1
:10201000C72F60E00E94EE0FBC01990F880B990B4F
:102020000E94752D7B018C0161E08B2D0E94EE0FCB
:10203000BC01990F880B990B0E94752D762E872E67
:10204000982EA92E96014D2F5C2F0E946E2D87FF92
:1020500071C0772D682D992D8A2D272F362F492F66
:10206000582FB701C8010E949B30181694F09601B2
:102070004D2F5C2F672D782D892D9A2D0E946E2D66
:1020800076010D2F1C2F87FF04C0E72CF82C092D9B
:102090001A2DCB2DD0E06E0180E3C80ED11CCC0FE1
:1020A000DD1FC45FDE4FB701C8010E94263079836F
:1020B0006883C601880F991F0E94750FEC01C60145
:1020C0000E94220E682F880F770B880B990B0E94B5
:1020D000752D9701A8010E94D42D6B017C01BE01D2
:1020E000DD0F880B990B0E94752D9B01AC01C70178
:1020F000B6010E94432F0E942630072E000C880B49
:10210000990B0E94752D20E030E0A9010E94432F19
:10211000AB01BC018B2DDF91CF911F910F91FF90EF
:10212000EF90DF90CF90BF90AF909F908F907F9077
:102130000C94890F7C2D6D2DCE018FCF0F931F93A3
:10214000CF938C01005E1F4FCFE0F8017291629136
:102150008F01072E000C880B990B0E94752DAB0187
:10216000BC018C2F0E94F80FC15078F7CF911F91BE
:102170000F9108952F923F924F925F926F927F92AC
:102180008F929F92AF92BF92CF92DF92EF92FF9287
:102190000F931F93CF93DF93CDB7DEB72E970FB674
:1021A000F894DEBF0FBECDBF182F092F6A017B0147
:1021B00020E030E0A901CB01B6010E946E2D181677
:1021C000E4F0812F902F2E960FB6F894DEBF0FBE4D
:1021D000CDBFDF91CF911F910F91FF90EF90DF90D6
:1021E000CF90BF90AF909F908F907F906F905F90B7
:1021F0004F903F902F900C949E1080E290E00E94B0
:102200000E2B5C017091DF029090DE022CE031E039
:10221000DC01612E702E512C412C60E0772329F0D7
:10222000643018F44BE69416A1F0F9018081918195
:10223000F30140815181841B950B11969C938E93E1
:1022400097FF03C0919581959109481659060CF4A2
:102250002C016F5F2E5F3F4FF2E06F0E711C1296E4
:102260006031E1F620E030E0A901C701B6010E942B
:102270009B3018160CF0BCC0B201550C880B990BA2
:102280000E94752DA70196010E94B42F6B017C015D
:1022900020E030E0A9010E949B3020E030E040E0E7
:1022A0005FE387FDA0C0C701B6010E94432F0E94D3
:1022B00026307E876D87D12CC12C2D853E85032E3F
:1022C000000C440B550B29873A874B875C874D855B
:1022D0005E854C155D050CF48EC01501812E902E87
:1022E000F12CC6010D2C000CAA0BBB0B8D839E8319
:1022F000AF83B8878091DF02882341F093E09F1578
:1023000028F08091DE028B3609F45FC0D4016D9114
:102310007C91072E000C880B990B0E94752D2B01C8
:102320003C01ED85FE8520E030E0A901EF2B09F4AA
:1023300043C06D817E818F8198850E94752D2BED24
:102340003FE049E450E40E94D42D69837A838B8373
:102350009C8369857A858B859C850E94752D9B0160
:10236000AC0169817A818B819C810E94B42F0E948B
:10237000AF2F20E030E040E85FE30E94432F20E0F1
:1023800030E040E05FE30E94D42D69837A838B8341
:102390009C83D1016D917C91072E000C880B990BC9
:1023A0000E94752D9B01AC0169817A818B819C8192
:1023B0000E94D42D9B01AC01C301B2010E94432FA6
:1023C000AB01BC018F2D0E94F80FF394B2E08B0E8D
:1023D000911CE2E02E0E311CF0E1FF128BCF2FEFAB
:1023E000C21AD20A74CFC701B6010E94422F5FCF32
:1023F0001E861D8660CFA114B104D9F0C5012E96AA
:102400000FB6F894DEBF0FBECDBFDF91CF911F9105
:102410000F91FF90EF90DF90CF90BF90AF909F9083
:102420008F907F906F905F904F903F902F900C9483
:10243000AA2B2E960FB6F894DEBF0FBECDBFDF914C
:10244000CF911F910F91FF90EF90DF90CF90BF90B1
:10245000AF909F908F907F906F905F904F903F9044
:102460002F9008952F923F924F925F926F927F929A
:102470008F929F92AF92BF92CF92DF92EF92FF9294
:102480000F931F93CF93DF93CDB7DEB72F970FB680
:10249000F894DEBF0FBECDBF4C016D8369017A0198
:1024A000202F30E03A83298320E030E0A901C701E2
:1024B000B6010E946E2D1816ECF01FE0812F012E40
:1024C000000C990B69817A81861797070CF453C128
:1024D000880D991DDC016C91062E000C770B880B82
:1024E000990B0E94752DAB01BC01812F0E94F80F42
:1024F0001150E4CF80E190E0E981FA818E1B9F0BBF
:102500008115F0E49F0708F047C0880F991F0097D6
:1025100009F445C00E940E2B3C01B090DF02A09050
:10252000DE0229813A81220F331F1301D401102FBB
:1025300050E040E0512C412C1031A0F5BB2029F097
:10254000143018F46BE6A616F9F0CA01820F931F37
:10255000845F9E4F7C916D817603F0011124FC8392
:10256000EB83FC01808191816B817C81861B970BC1
:10257000F1019183808397FF03C091958195910923
:10258000481659060CF42C011F5F1196F2E02F0E2D
:10259000311C4E5F5F4FD0CF8FEF9FEFBBCF81E0FD
:1025A00090E0B8CF20E030E0A901C701B6010E9459
:1025B0009B3018160CF0BAC0B201550C880B990B61
:1025C0000E94752DA70196010E94B42F6B017C011A
:1025D00020E030E0A9010E949B3020E030E040E0A4
:1025E0005FE387FD9EC0C701B6010E94432F0E9492
:1025F00026307F876E87B12CA12C6E857F85072EB4
:10260000000C880B990B6A877B878C879D878E854A
:102610009F858A159B050CF490C07C826B829A8200
:102620008982102FB5010B2C000C880B990B6E833F
:102630007F8388879987103108F07BC08091DF0203
:10264000882339F0143028F48091DE028B3609F4A7
:102650005BC0A981BA816C912D816203B001112404
:10266000072E000C880B990B0E94752D6B017C01C5
:102670006E857F8520E030E0A901672BE1F16E8156
:102680007F81888599850E94752D2BED3FE049E477
:1026900050E40E94D42D1B012C016A857B858C851A
:1026A0009D850E94752D9B01AC01C201B1010E9464
:1026B000B42F0E94AF2F20E030E040E85FE30E949B
:1026C000432F20E030E040E05FE30E94D42D1B0167
:1026D0002C01AB81BC816D917C91072E000C880B85
:1026E000990B0E94752D9B01AC01C201B1010E94A2
:1026F000D42D9B01AC01C701B6010E94432FAB0151
:10270000BC01812F0E94F80F1F5FE981FA81319689
:10271000FA83E9832B813C812E5F3F4F3C832B83DF
:102720008ACFC701B6010E94422F61CF1F861E8645
:1027300062CF3FEFA31AB30A6ACF61147104D9F0D4
:10274000C3012F960FB6F894DEBF0FBECDBFDF9149
:10275000CF911F910F91FF90EF90DF90CF90BF909E
:10276000AF909F908F907F906F905F904F903F9031
:102770002F900C94AA2B2F960FB6F894DEBF0FBEA5
:10278000CDBFDF91CF911F910F91FF90EF90DF9020
:10279000CF90BF90AF909F908F907F906F905F9001
:1027A0004F903F902F9008950F930E9460011092D8
:1027B000E1021092E002E6EBF4E0258136814781E8
:1027C000508503896785848995890E9432120F910B
:1027D00008958F929F92AF92BF92CF92DF92EF9225
:1027E000FF920F931F93CF93DF93CDB7DEB72B9755
:1027F0000FB6F894DEBF0FBECDBF6C01FC01019097
:102800000020E9F73297108189E11C3421F087EE2E
:10281000123509F080E08093B904C6010E94240EAD
:102820007C018FEFE816F80609F43EC1C7010E944B
:10283000220E082FC70102960E94750F7C01B60177
:10284000CE0101960E945833093409F0EDC0C7014A
:102850000E9446080E946001BE016F5F7F4F82EEBA
:1028600092E00E94583367E871E082EE92E00E94A5
:102870004F33892B09F4EEC080E090E0A0E0B0E493
:102880008093BB049093BC04A093BD04B093BE049A
:102890006BE871E082EE92E00E944F33892B09F4DD
:1028A000DDC08091BA04813009F0D8C00E947F2C2D
:1028B00024E630E040E050E00E94A82E0E94752DF2
:1028C00020E030E040E251E40E94B42F20E030E00C
:1028D00040EA50E40E94422F4B015C018092D802F2
:1028E0009092D902A092DA02B092DB02F12CE12C94
:1028F000C090CA04D090CB04CE0CDF1CF6016081DE
:10290000062E000C770B880B990B0E94752DA501E4
:1029100094010E94432F0E942630F6016083FFEF4E
:10292000EF1AFF0A80E1E816F10411F7123509F0F9
:1029300099C08091C1049091C204919581959109AB
:102940009093C2048093C10490E080E04091BA0467
:10295000242F042E000C330B37FF03C03195219533
:102960003109821793070CF089C042301CF5409161
:10297000C004489F9001499F300D1124E091CA0482
:10298000F091CB04E20FF31F208121952083209149
:10299000C004289FF001299FF00D11249F012E5F94
:1029A0003F4FE091CA04F091CB04E20FF31F208166
:1029B000219520832091BA0460E022300CF462E07B
:1029C000E62FF0E02091BA0422300CF480C024E01D
:1029D00030E04091CA045091CB04E217F3070CF0A9
:1029E00079C09F01220F331F7091C004789FF001BE
:1029F000799FF00D1124E20FF31FE40FF51F4081C2
:102A0000518150835091C004589FD001599FB00DFF
:102A10001124E091CA04F091CB04E20FF31FEA0FF6
:102A2000FB1F41836F5FCCCF8091BA040E944001AD
:102A3000A2EEB2E09701225E3240F901EA0FFB1FDD
:102A4000AD01425E5240481759070CF003CFE491A4
:102A5000ED93F3CF80E090E0DC0112CF812C912C3C
:102A600054013CCF1C3451F00E947F2C24E630E00E
:102A700040E050E00E94A82E60FD5BCF1092E10282
:102A80001092E0022091BB043091BC044091BD043F
:102A90005091BE040091C9046091C5048091CA049C
:102AA0009091CB040E9432122B960FB6F894DEBFA1
:102AB0000FBECDBFDF91CF911F910F91FF90EF908F
:102AC000DF90CF90BF90AF909F908F90089528E0B7
:102AD00030E07FCF01963ACF0F931F93CF93DF93D0
:102AE000EC0188819981009759F02A813B81261752
:102AF000370730F081E0DF91CF911F910F9108955A
:102B00008B016F5F7F4F0E947432009759F0998359
:102B100088831B830A832C813D81232B59F7FC0179
:102B20001082E8CF80E0E7CFEF92FF920F931F93E0
:102B3000CF93DF936115710541F480E0DF91CF9170
:102B40001F910F91FF90EF90089541155105B1F03D
:102B50007B01EC010C811D81040F151FB8010E943F
:102B60006C15882351F3288139818C819D81B701AF
:102B7000820F931F0E9458331D830C8381E0DECFA8
:102B8000EF92FF920F931F93CF93DF93EC017B01A2
:102B90008A01BA010E946C1581110BC0CE010E94FE
:102BA000C60DCE01DF91CF911F910F91FF90EF9055
:102BB00008951D830C83B701888199810E94583341
:102BC000F0CFFB01DC0111961C921E9213961C9211
:102BD0001E92129715961C921E92149786179707AD
:102BE00059F0608171816115710521F04481558131
:102BF0000C94C0150C94C60D0895FB0101900020A3
:102C0000E9F73197AF01461B570B0C94C0150F9392
:102C10001F93CF93DF93CDB7DEB762970FB6F894CB
:102C2000DEBF0FBECDBF8C01CB01F8011182108237
:102C300013821282158214824AE0BE016F5F7F4FB9
:102C40000E94312DBE016F5F7F4FC8010E94FD15AC
:102C500062960FB6F894DEBF0FBECDBFDF91CF9165
:102C60001F910F910895FC0111821082138212822C
:102C700015821482FB0101900020E9F73197AF0122
:102C8000461B570B0C94C015EF92FF920F931F93A6
:102C9000CF93DF93EC018B01198218821B821A8279
:102CA0001D821C82CB010E94FC2C7C01BC01CE0148
:102CB0000E946C15811109C0CE01DF91CF911F9147
:102CC0000F91FF90EF900C94C60DFD82EC82B8013D
:102CD00088819981DF91CF911F910F91FF90EF90A3
:102CE0000C94F52C85ED8093BC0080912905909182
:102CF0002A05A0912B05B0912C050796A11DB11DA9
:102D000023E0B695A795979587952A95D1F72091B9
:102D1000BC0024FD03C010922705089540912905A9
:102D200050912A0560912B0570912C05452B462B5F
:102D3000472B69F30097A105B10541F02AE22A95D6
:102D4000F1F700C00197A109B109E1CF80912805F1
:102D50000C94E704EF92FF920F931F93CF93DF93AE
:102D6000EC01888199818C01000F111F080F191F38
:102D7000EA80FB80A801B7018C819D810E943933D4
:102D8000892B09F432C0AE81BF818A853FB7F894A0
:102D90002C91982F90959223822BF7010E0F1F1FD5
:102DA000E017F10781F0219148E08C9300C027FFE4
:102DB0009C93220F00C000C000C008F49C9300C088
:102DC0004A9599F7EDCF3FBF88819981AC01440FB7
:102DD000551F480F591F6A817B818C819D810E94FC
:102DE00046338BEC97E00197F1F7DF91CF911F917C
:102DF0000F91FF90EF900895CF92DF92EF92FF92A4
:102E0000CF936A017B010097A1F4AB01960160E0CA
:102E10008091C1069091C2060E9472078091C106FE
:102E20009091C206CF91FF90EF90DF90CF900C94DD
:102E3000AA1681309105F1F4C0E0CF5F20E030E0C8
:102E4000A9016C2F8091C1069091C2060E94720761
:102E50008091C1069091C2060E94AA16A701960110
:102E60006C2F8091C1069091C2060E947207C330F8
:102E700021F7D4CF029791F6C3E0CF5F20E030E096
:102E8000A9016C2F8091C1069091C2060E94720721
:102E90008091C1069091C2060E94AA16A7019601D0
:102EA0006C2F8091C1069091C2060E947207C630B5
:102EB00021F7B4CF1F920F920FB60F9211242F93C8
:102EC0003F934F935F936F937F938F939F93AF93B2
:102ED000BF93EF93FF938091D5049091D604A09176
:102EE000D704B091D804892B8A2B8B2BD1F19091E8
:102EF000D004E091D104F091D204808189278083AD
:102F00008091D5049091D604A091D704B091D804B3
:102F1000181619061A061B069CF48091D504909188
:102F2000D604A091D704B091D8040197A109B109A2
:102F30008093D5049093D604A093D704B093D8047B
:102F4000FF91EF91BF91AF919F918F917F916F9181
:102F50005F914F913F912F910F900FBE0F901F9057
:102F6000189580912C010E94CC03EACF1F920F92FA
:102F70000FB60F9211242F933F934F935F936F934C
:102F80007F938F939F93AF93BF93EF93FF938DE2C4
:102F900095E00E949D02FF91EF91BF91AF919F91AB
:102FA0008F917F916F915F914F913F912F910F90F2
:102FB0000FBE0F901F9018951F920F920FB60F9291
:102FC00011242F938F939F93EF93FF93E0913D05EF
:102FD000F0913E058081E0914305F091440582FD2A
:102FE0001BC09081809146058F5F8F7320914705AC
:102FF000821741F0E0914605F0E0E35DFA4F958FCE
:1030000080934605FF91EF919F918F912F910F90A3
:103010000FBE0F901F9018958081F4CF1F920F92D2
:103020000FB60F9211242F933F938F939F93AF93DB
:10303000BF9380913F0290914002A0914102B091D4
:10304000420230913E0223E0230F2D3758F50196BE
:10305000A11DB11D20933E0280933F029093400238
:10306000A0934102B09342028091430290914402A6
:10307000A0914502B09146020196A11DB11D809319
:10308000430290934402A0934502B0934602BF913D
:10309000AF919F918F913F912F910F900FBE0F9005
:1030A0001F90189526E8230F0296A11DB11DD2CFBF
:1030B0001F920F920FB60F9211242F933F934F93AD
:1030C0005F936F937F938F939F93AF93BF93EF9390
:1030D000FF938091B900887F803609F44AC0F0F5EB
:1030E000883209F4A7C018F5803109F49BC0B8F400
:1030F000882309F4F9C0883009F494C0FF91EF9156
:10310000BF91AF919F918F917F916F915F914F91FF
:103110003F912F910F900FBE0F901F9018958831FF
:1031200009F488C0803251F78093050514C08034BB
:1031300009F49DC040F48033B9F38833F9F68093E5
:10314000050585ECB0C0803509F485C0883509F4E3
:1031500096C0883499F60E947216D0CF883909F447
:103160008CC038F5883729F050F4883611F0803754
:1031700029F683E08093270510923D0257C08838D6
:1031800009F47BC0803919F0803809F0B7CF8091FD
:103190003D02803208F071C0E0913D0281E08E0F67
:1031A00080933D028091BB00F0E0E35EFD4F8083A1
:1031B0003DC0803B39F0E0F4803A09F479C0883AA8
:1031C00009F09CCF84E08093270510921C02109296
:1031D0001B02E0914902F0914A02099580911B027D
:1031E00081110FC081E080931B021092FB0109C086
:1031F000803C09F4A6CF883C09F4A3CF883B09F0B2
:103200007DCFE0911C0281E08E0F80931C02F0E0E4
:10321000E550FE4F80818093BB0090911C0280910D
:103220001B0229C0809102058093BB0085EC80932E
:10323000BC0064CF9091040580910305981758F560
:10324000E091040581E08E0F80930405F0E0EF51DA
:10325000FB4F8081E9CFE091040581E08E0F8093E0
:1032600004058091BB00F0E0EF51FB4F808390910B
:103270000405809103059817C8F285E8D8CFE0913E
:10328000040581E08E0F809304058091BB00F0E07F
:10329000EF51FB4F80838091060581115CCF81E067
:1032A0008093010584EA8093BC001092270526CF05
:1032B00085EC8093BC001092270580913D028032FE
:1032C00030F4E0913D02F0E0E35EFD4F108260914A
:1032D0003D0270E0E0914702F09148028DE192E0FA
:1032E000099510923D020ACF1092050534CF1F9226
:1032F0000F920FB60F9211242F933F934F935F932A
:103300006F937F938F939F93AF93BF93EF93FF93AD
:103310008091ED050E9475032091F2053091F3052F
:103320002F5F3F4F3093F3052093F2052091F00576
:103330003091F1052536310518F094E09093EC05B5
:103340009091EC05911130C0811169C02091F20576
:103350003091F3052436310528F41092F3051092CC
:10336000F2055DC01092BE061092F1051092F005B4
:103370002091F0053091F105A9014F5F5F4F509307
:10338000F1054093F0054091F2055091F305220FAD
:10339000331FF901EC50FA4F518340831092F3052B
:1033A0001092F20591E021C09091EC05913001F569
:1033B0008130A9F52091F0053091F105A9014F5F09
:1033C0005F4F5093F1054093F0054091F205509105
:1033D000F305220F331FF901EC50FA4F518340835C
:1033E0001092F3051092F20592E09093EC0517C04D
:1033F0009091EC05923061F4882309F4B9CF2091C3
:10340000F2053091F3052536310548F093E0EDCF14
:103410009091EC05933099F4882309F49ECF909114
:10342000EF059923A9F0811124C08091EE0588232E
:1034300071F08091EE0561E00E949E0309C09091B9
:10344000EC05943061F791E09093BE06DFCF2D9AA2
:10345000FF91EF91BF91AF919F918F917F916F916C
:103460005F914F913F912F910F900FBE0F901F9042
:1034700018958091EE05882321F08091EE0560E09B
:10348000DBCF2D98E5CFCF92DF92EF92FF920F9393
:103490001F93E82FF92F05C00150110921093109A7
:1034A00061F1908196239417B9F305C00150110979
:1034B0002109310911F1908196239413F7CFC12C82
:1034C000D12CE12CF12C0AC08FEFC81AD80AE80AD7
:1034D000F80A0C151D052E053F0579F0808186231D
:1034E000841791F36C2D7D2D8E2D9F2D1F910F91A3
:1034F000FF90EF90DF90CF90089560E070E080E063
:1035000090E01F910F91FF90EF90DF90CF90089582
:10351000CF93DF931092300510922F0588EE93E041
:10352000A0E0B0E08093310590933205A09333057D
:10353000B09334052BE331E030932E0520932D0515
:1035400025EC30E030933A052093390524EC30E047
:1035500030933C0520933B0520EC30E030933E0552
:1035600020933D0521EC30E03093400520933F054A
:1035700022EC30E0309342052093410526EC30E008
:103580003093440520934305109246051092470559
:103590001092480510924905C0EED5E01092E3055F
:1035A0001092E2058093E4059093E505A093E6056B
:1035B000B093E7058DE491E09093E1058093E005F9
:1035C0008FE591E09093CB058093CA05D093CD050C
:1035D000C093CC058FEF9FEF9093CF058093CE05DE
:1035E0001092D0051092D1051092D2051092D305F9
:1035F0001092D5051092D4051092D7051092D605D9
:103600001092D9051092D8051092DB051092DA05B8
:1036100024E130E03093DD052093DC059093DF0555
:103620008093DE0584E08093ED051092EF0561E95B
:1036300071E08EED96E00E943316EDECF6E081E14C
:10364000DF011D928A95E9F780E48093C706D09345
:10365000C906C093C80686E08093BF0687E08093C2
:10366000C0068BE090E00E940E2BEC01EBE1F2E053
:10367000E491EA87E7E0F2E0E491F0E0EE0FFF1F6B
:10368000EA50FE4F859194919F838E8361E087E09D
:103690000E94F80386E090E09983888382E190E0BD
:1036A0000E940E2B9B838A83892B21F484E991E06D
:1036B0000E946D3330E020E048815981CA01880FB3
:1036C000991F840F951F2817390740F4EA81FB8161
:1036D000E20FF31F10822F5F3F4FEECF0E940E2BA1
:1036E0009D838C83892B21F484E991E00E946D33C2
:1036F00090E080E0488159819A01220F331F240F06
:10370000351F8217930738F4EC81FD81E80FF91F0C
:1037100010820196EFCFD093C206C093C106DF910D
:10372000CF910895CF93DF93CDB7DEB7E4970FB66F
:10373000F894DEBF0FBECDBF789484B5826084BD9F
:1037400084B5816084BD85B5826085BD85B58160A5
:1037500085BD80916E00816080936E001092810023
:1037600080918100826080938100809181008160DE
:10377000809381008091800081608093800080919F
:10378000B10084608093B1008091B000816080932B
:10379000B00080917A00846080937A0080917A00F2
:1037A000826080937A0080917A00816080937A00B1
:1037B00080917A00806880937A001092C100E09135
:1037C0003D05F0913E0582E08083E0913905F0915E
:1037D0003A051082E0913B05F0913C0580E1808341
:1037E00010924505E0914105F091420586E0808305
:1037F000E0913F05F0914005808180618083E091F8
:103800003F05F0914005808188608083E0913F050D
:10381000F0914005808180688083E0913F05F091C0
:10382000400580818F7D808385E090E0A0E0B0E05E
:103830008093310590933205A0933305B0933405FE
:103840001092DD021092DC021092CD041092CC0492
:103850000E94C9048DE192E090934A02809349024C
:103860008EE192E0909348028093470288E0809333
:10387000B80020E030E048E452E460E070E080EA24
:1038800091E40E94870B8BE60E94FE0980E591E09F
:103890000E94F20989E491E00E94F20980E491E03B
:1038A0000E94F2098AE191E00E94220E882321F011
:1038B0008FEF93E00E94220F86E291E00E941103B5
:1038C0005FEBE52E52E0F52E00E110E0C8010E940A
:1038D000220ED7018D937D010F5F1F4F003211051E
:1038E000A9F71092DD021092DC021092CD04109222
:1038F000CC040E94C9048DE192E090934A02809327
:1039000049028EE192E0909348028093470240E89A
:1039100060E087EC96E00E94C8076AE070E080E013
:1039200090E00E94630440E050E06AE774E487ECB2
:1039300096E00E94E30880E498E7ADE7B1E0809369
:10394000CA069093CB06A093CC06B093CD0683E134
:1039500091E00E94750F092E000CAA0BBB0BAC0165
:10396000BD01485D594561097109453951416105FC
:10397000710508F05EC080934B0290934C02A093B7
:103980004D02B0934E0260914B0270914C028091B7
:103990004D0290914E020E94752D20E030E04AE7E2
:1039A00054E40E94B42F42E00E94AF0A0E94EE0944
:1039B00020914B0230914C0240914D0250914E02A9
:1039C000A8EEB3E00E94C72E6B017C0140E050E0FE
:1039D00060E773E487EC96E00E94E308C092D006AB
:1039E000D092D106E092D206F092D306C092CA06D7
:1039F000D092CB06E092CC06F092CD060E94380819
:103A00008DE291E00E94F20990E080E08C010F5F6E
:103A10001F4F805C9E4F0E94220E080F111DC8018F
:103A2000805C9E4F0E94220E8E3441F0C8010496A5
:103A3000EDCF88EA91E6A0E0B0E09DCF68E071E0CC
:103A4000C8018E5B9E4F0E94FB0D61E083E00E94E7
:103A5000F80386E090E00E940E2B8C01DC011196A9
:103A60001C921E9213961C921E92129715961C92EF
:103A70001E92149783E391E00E94F2091093D702FB
:103A80000093D60280E10E942904BC01990F880BA3
:103A9000990B611571058105910511F00E94CE2CDD
:103AA0008CE091E00E949E1064EF71E080E090E075
:103AB0000E94630410926B0289E391E00E94F20974
:103AC0000091D6021091D702F80180819181892B53
:103AD00009F093C00E949604C0904F02D09050020B
:103AE000E0905102F09052026C197D098E099F09F5
:103AF000C0900001D0900101E0900201F09003011C
:103B0000C616D706E806F9060CF077C080916A025F
:103B10008111DEC184EF95E0909361028093600291
:103B20008091F0059091F105909363028093620279
:103B30008091BE0690E0909365028093640280912C
:103B4000EC05833009F0C4C18091F6059091F7052A
:103B5000875891098E35910508F0B4C18091F00520
:103B60009091F105049709F07CC18091F80590913E
:103B7000F9058097479708F074C18091FA059091F4
:103B8000FB050997099708F06CC110925F0210922B
:103B90005E022FEF3FEFA9012093580230935902A4
:103BA00040935A0250935B0283E090E09093550259
:103BB000809354028091580290915902A0915A0228
:103BC000B0915B02892F9A2FAB2FBB278A3509F45E
:103BD000DCC208F093C2823209F4BFC208F078C296
:103BE000803109F4CFC208F026C26EE871E082305D
:103BF00009F429C260ED71E0D3C2D8018D919C9186
:103C0000181619060CF08FC00E949604C0904F023F
:103C1000D0905002E0905102F09052026C197D0950
:103C20008E099F09C0900001D0900101E09002012F
:103C3000F0900301C616D706E806F9060CF073C02B
:103C4000D8011296ED91FC91F12CE12C309711F0F6
:103C5000E080F180F70140814093DE02638174814E
:103C60007093D0026093CF0285819681092E000C5B
:103C7000AA0BBB0B8093000190930101A09302015A
:103C8000B093030181819281A2EEB2E09D01225E98
:103C90003240261737072CF4FC012191CF012D93D8
:103CA000F5CF41548EE74A3108F080E0FB01EE5138
:103CB000FD4F80830E94960460934F0270935002E0
:103CC000809351029093520285E08093D302E114D5
:103CD000F10459F0D70111968D919C91009711F044
:103CE0000E94AA2BC7010E94AA2BF801828193810E
:103CF000009711F40C94FF2ADC011296ED91FC91CF
:103D0000D8011396FC93EE931297309709F4A7C04D
:103D1000158214820E94AA2BD8018D919C91119733
:103D200001978D939C931091D302112309F4ACC396
:103D3000F090DE028F2D0F2C000C990B0E94313376
:103D4000082F8093D2021530F0F48236E1F02CE493
:103D5000F216C9F039E4F316B1F042E5F41699F021
:103D600057E5F51681F0612F70E0615F7F4F072EF8
:103D7000000C880B990B0E94752D20E030E040EA82
:103D800050E40E94870B80910701882341F00B3695
:103D900031F488EF9BE00E94860910920701809120
:103DA000D1028356823050F48091DE02833631F0A6
:103DB00081E08093060187E40E94FE098091DE0283
:103DC000803751F080910501811106C081E0809318
:103DD000050180E70E94FE097090DE02E1ECE70D2C
:103DE000E53308F009C30E2E000CFF0BE650F14E30
:103DF0000C945A32F421FC21FC21F4271B23FC21D2
:103E0000FC21FC21B322FC216926FC213E28E92764
:103E10006926FC21FC21FC21FC216926FC212828A3
:103E2000FC21FC2169268227FC21FC21FC21FC21AC
:103E3000FC21FC21FC21FC217F2596259625BD280F
:103E4000FC21FC21B322FC219625CE22A328FC21B3
:103E50009625FC21FC21BA22FC21FC212625F80113
:103E600057CF8091F0059091F1058434910550F180
:103E70008091F8059091F905815491098F9710F57B
:103E800030E020E080E090E0DC01F901E650FA4FFC
:103E900040815181495051094930510598F4F90147
:103EA000E450FA4F40815181475151094231510547
:103EB00008F4A2C040815181465051094730510554
:103EC00008F4B4C01092EC051092F1051092F005C0
:103ED0008DE295E00E947D02181619060CF075C05F
:103EE00081E080936A028DE295E00E945B02382EA9
:103EF0008093DE02082E000C990B0E943133182F9C
:103F00008093D20282E08093D30261E070E080E08F
:103F100090E00E946304BFEBB30DBDA7AEE72A2E6D
:103F2000BA3110F0FAE02F2E0E9496042B013C01CA
:103F3000EBE43E1621F085E090E0123611F488ECB7
:103F400090E01B7F19AB6C01990FEE08FF088DE222
:103F500095E00E947D02892B09F4FDC10091CF02FA
:103F60001091D002FBE63F1619F029A9293639F441
:103F700080910A0190910B01081719072CF4033D59
:103F800031E013070CF4CDC189E991E00E94F209F8
:103F900064EF71E080E090E00E9463048DE295E0C0
:103FA0000E945B028DE295E00E947D02892BB1F7B1
:103FB0008091DE020E94FE098BE68093DE0267ECB0
:103FC00071E082EE92E00E9458330E9496042091A4
:103FD000D3022150223008F0EDC10E9496046854AB
:103FE000744F8F4F9F4F6093660270936702809368
:103FF00068029093690297CE880F991FAA1FBB1F72
:1040000081602C5F3F4F2038310509F03ECF20E220
:1040100030E030935F0220935E02809358029093C9
:104020005902A0935A02B0935B02BECD880F991F2C
:10403000AA1FBB1FE6CF823109F4B0C066E771E06A
:10404000883109F0D7CDCE0181960E94441663EBEA
:1040500071E0CE0181960E94B10D882309F4A5C0BC
:1040600064E871E08EED96E00E94FD156EED76E05D
:10407000CE0187960E94E115CE0181960E94D80D4F
:1040800060ED71E0CE0187960E94B10D811115C0DF
:104090006FA178A58BA59CA5019709F02EC161158C
:1040A000710521F41092530263E572E0DB018C91FB
:1040B0008093DE0281E08093D3021092EC0510928F
:1040C000F1051092F005CE0187960E94D80D00CF21
:1040D000823409F45DC048F4803309F44DC06CE6C5
:1040E00071E0883309F4AFCF85CD8A3409F453C029
:1040F0006BE571E0823509F4A6CF7CCD823A39F1C7
:1041000098F48A37E1F140F4823621F163E871E0F6
:10411000883609F498CF6ECD803959F160E871E0A6
:10412000883909F490CF66CD823CD1F040F4883ACA
:10413000E9F06DE771E0803B09F485CF5BCD803E0F
:1041400091F063E971E0823E09F47DCF53CD67E9D8
:1041500071E079CF65E971E076CF61E971E073CF05
:104160006CE871E070CF6AE871E06DCF68E871E0EB
:104170006ACF66E871E067CF6AE771E064CF62E713
:1041800071E061CF6FE671E05ECF68E671E05BCF12
:1041900064E671E058CF6DE571E055CF60EB71E0FA
:1041A000CE0181960E94331652CF65EB71E0CE01AD
:1041B00081960E94B10D811111C067EB71E0CE01B3
:1041C00081960E94B10D811109C069EB71E0CE01A9
:1041D00081960E94B10D882309F442C08DA19EA151
:1041E000892B21F0E9A1FAA1309721F41092530212
:1041F000E3E5F2E0108110930401163471F464E8F1
:1042000071E08EED96E00E94B10D882331F061E9F6
:1042100071E08EED96E00E94FD156EED76E0CE0128
:1042200001960E94E1151FA318A641E050E0BE01CF
:10423000695D7F4FCE0101960E949415811104C0E3
:10424000CE0101960E94C60DBE016F5F7F4FCE0169
:1042500087960E94E115CE0101960E94D80D0CCFE1
:104260006BEB71E0CE0181960E94B10D09A11AA1FC
:10427000811131C06EEB71E0CE0181960E94B10DCB
:10428000811129C061EC71E0CE0181960E94B10DCF
:10429000811121C061E971E0CE0181960E94B10DCA
:1042A000811119C064EC71E0CE0181960E94B10DBC
:1042B000811111C018A70FA38BA19CA19AA789A750
:1042C0008DA19EA19CA78BA71AA219A21CA21BA21A
:1042D0001EA21DA2D1CE0115110551F04DA15EA166
:1042E000B8018EED96E00E94C0151091040195CFA3
:1042F0008EED96E00E94C60DF8CF8BE68093DE022D
:1043000082EE92E00E94583367EC71E082EE92E018
:104310000E944F33892B09F0CDCE86E480930401AF
:10432000C9CE8DE295E00E945B0298012F5F3F4F5E
:104330003093D0022093CF02F801EE51FD4F8083DD
:104340008DE295E00E947D02892B09F007CE0E9444
:1043500096042B013C010091CF021091D00258012C
:1043600041E0A41AB108C5018E519D4F4C01DC01FA
:104370008C91821561F00E94960464197509860972
:1043800097096C157D058E059F050CF4E0CDF401B1
:104390008081281201C085011093D0020093CF02C2
:1043A000FDA58EE7FA3108F080E0F801EE51FD4FEF
:1043B00080830BCE2091DE02233609F4B4CC009129
:1043C0006602109167022091680230916902601BB9
:1043D000710B820B930B16161706180619060CF0B4
:1043E000A2CC10926A029FCC83EE91E00E94F20967
:1043F0008AED91E00E94F2098091DE028B3621F471
:104400009091BA041916CCF40E94FE098091D10251
:104410008B3699F48091DE028A3661F0803751F054
:104420008091D202873631F0982F9B7F993611F018
:10443000863719F48BE68093DE021091DE021B367C
:1044400091F48091E202882371F06AE771E082EED4
:1044500092E00E944F33892B31F062EE72E08BE6DE
:1044600092E00E9458331092D3021093D1021B366F
:1044700029F01356123010F01092DE021092E20270
:104480001092D0021092CF028091DE028B3609F09A
:1044900060C7E090BA04E7FE89C68091C804DD24B5
:1044A000DA94D80E823008F4D12C10E03EECC32E02
:1044B00042E3B42E212F30E08091BA04082E000C84
:1044C000990B97FF03C0919581959109281739079A
:1044D0000CF024C7E090CA04F090CB048091C00493
:1044E000189FE00CF11C1124F7016089062E000CC6
:1044F000770B880B990B0E94752D20E030E040E887
:104500005EE30E94D42D9B01AC0100E06091C504E4
:10451000C7010E9432128091C004E091CA04F09158
:10452000CB04189FE00DF11D1124618916160CF0C3
:1045300038C6FB2D6F02B0011124072E000C880B2A
:10454000990B0E946304DD2061F0112351F08091EA
:10455000C704181306C01091C60411501D140CF4A2
:10456000DA941F5FA7CF87E4781246CF87E680935F
:10457000DE0242CF8091050191E0811190E090939D
:104580000501882311F0E0E57E2E7092DE02811194
:1045900002C08BE6ECCF0E9438082ECF8DE30E943C
:1045A0000C038091CF029091D002892B71F082EEA2
:1045B00092E00E94D72C880F991FFC01E45FFE4F08
:1045C000808191810E94810A17CF0E94610A60ED6B
:1045D00071E0CE0181960E9433166CE0E62E61E018
:1045E000F62E0CE211E0D7016D917D917D01CE0197
:1045F00001960E9407164D815E8169817A81CE0104
:1046000081960E949415CE0101960E94D80D42E039
:1046100050E06EEC71E0CE0181960E9494150E156B
:104620001F0509F7CE0181960E940A0ACE018196E4
:104630000E94D80DE1CE8091CF029091D0020297D6
:1046400014F40C94062B8090E202912CB12CA12C36
:104650005401992488248091E30290E0B0E0A0E026
:10466000BA2FA92F982F8827880D991DAA1DBB1D29
:104670002091E4024C015D01820E911CA11CB11C31
:104680000091E50210E08091E602813009F405C155
:10469000823009F4B8C18111D3C16501FF24D7FC70
:1046A000F094EF2C292D30E050E040E02DA73EA7FC
:1046B0004FA758ABD501C4019927AA27BB272601CC
:1046C000370135E0431A51086108710825E0A22E30
:1046D000B12C2DA53EA54FA558A92C193D094E0971
:1046E0005F0929AB3AAB4BAB5CAB9C01AD012C191C
:1046F0003D094E095F092DA73EA74FA758AB812C56
:104700009924939449A95AA96BA97CA9440D551DD4
:10471000661D771D453051056105710524F445E09E
:1047200050E060E070E0762F652F542F4427D301CE
:10473000C20135E0431651046104710424F485E09C
:1047400090E0A0E0B0E0DC0199278827480F591FCE
:104750006A1F7B1F8DA59EA5AFA5B8A9840D951DC9
:10476000A61DB71D85309105A105B10524F485E08E
:1047700090E0A0E0B0E0480F591F6A1F7B1FC801FE
:104780000E94FC1643E16AE070E080E090E04A1588
:1047900040F4C401B5010E944632072E000C880B7C
:1047A000990B0E94630455E0451A5108610871088D
:1047B00085E0A80EB11C9FEFA916B10409F0A2CFA5
:1047C00026013701AFEF4A1A510861087108DD244C
:1047D000DA947201BFEFEB0EF11CA12CBB24B39451
:1047E00049A95AA96BA97CA9440D551D661D771DC1
:1047F000453051056105710524F445E050E060E065
:1048000070E0762F652F542F4427D301C201E5E0D5
:104810004E1651046104710424F485E090E0A0E098
:10482000B0E0DC0199278827480F591F6A1F7B1FBA
:104830008DA59EA5AFA5B8A9840D951DA61DB71D74
:1048400085309105A105B10524F485E090E0A0E054
:10485000B0E0480F591F6A1F7B1FC8010E94FC1659
:10486000F3E16AE070E080E090E0FD1550F4C501EE
:10487000B701641975090E944632072E000C880B97
:10488000990B0E9463042BEFD20E35E0430E511CAE
:10489000611C711CD110A4CFAFCD40E050E0BA0133
:1048A00090E080E00E94FC16A501940161E08091F7
:1048B000C1069091C2060E947207A501940164E0AE
:1048C0008091C1069091C2060E9472078091C10634
:1048D0009091C2060E94AA1664E670E080E090E023
:1048E0000E94630420E030E0A90161E08091C106EC
:1048F0009091C2060E94720720E030E0A90164E0B6
:104900008091C1069091C2060E947207A501940190
:1049100062E08091C1069091C2060E947207A501D3
:10492000940165E08091C1069091C2060E947207D1
:104930008091C1069091C2060E94AA1664E670E0BA
:1049400080E090E00E94630420E030E0A90162E092
:104950008091C1069091C2060E94720720E030E06B
:10496000A90165E08091C1069091C2060E9472077C
:10497000A501940163E08091C1069091C2060E9456
:104980007207A501940166E08091C1069091C2066C
:104990000E9472078091C1069091C2060E94AA16D9
:1049A00064E670E080E090E00E94630420E030E084
:1049B000A90163E08091C1069091C2060E9472072E
:1049C00020E030E0A90166E08091C1069091C20626
:1049D0000E9472078091C1069091C2060E94AA1699
:1049E00064E670E080E090E00E946304B501A401F9
:1049F00090E080E00E94FC168091C1069091C20672
:104A00000E94AA16F9CC83E0F82E40E050E0BA01EB
:104A1000C8010E94FC1664E170E080E090E00E9412
:104A20006304B501A401C8010E94FC1664E170E0B2
:104A300080E090E00E946304FA94F110E6CFDCCCB1
:104A4000B501A401C8010E94FC16D6CC84ED91E00A
:104A50000E94F209BFEB8B2EB2E09B2E10E4E12EF8
:104A6000F12C00E110E0D401DD904D01C8010E945D
:104A7000922ED81621F06D2DC8010E949A2EC701E2
:104A80000E94750F6C01C80180960E94220EB82EFC
:104A9000F40131976081062E000C770B880B990B7F
:104AA0000E94752D2B013C016B2DBB0C770B880BE5
:104AB000990B0E94752D9B01AC01C301B2010E94AC
:104AC000D42D2B013C01B601DD0C880B990B0E9403
:104AD000752D9B01AC01C301B2010E94432F0E94BE
:104AE0002630C70180960E94FB0D0F5F1F4FB2E07A
:104AF000EB0EF11C0032110509F0B5CF7DCC8CEC2A
:104B000091E00E94F2090FEB12E0A0E1EA2EF12CF5
:104B1000C7010E94220EF80181938F01FFEFEF1A67
:104B2000FF0A20E2E216F10499F766CC39E6731227
:104B300009C08091CF029091D002892B19F4109274
:104B4000DF025ACC1092BE02709006010CE011E018
:104B5000AE014F5F5F4F6A01EEE7EE2EE2E0FE2E00
:104B6000FCE28F2EF1E09F2E5A01D8016D917D91CC
:104B70008D01072E000C880B990B0E94752D20E0EB
:104B800030E0A901772029F0F701208131814281AD
:104B900053810E94422F0E942630D6016D937D934F
:104BA0006D01B4E0EB0EF11C80169106F1F66AEC93
:104BB00071E082EE92E00E94052D7C013324339453
:104BC0007FEC472E72E0572EE114F10409F446C041
:104BD000C7010E94D72C8C016DEC71E090E080E061
:104BE0000E94052D7C01D12CC12C88248394912C0A
:104BF000009769F00E94D72C6C016DEC71E090E099
:104C000080E00E94052D7C0162E0862E912C80912F
:104C1000DE02982F9B7F993609F03AC400311105C6
:104C200090F49801220F331FF501E20FF31FD18298
:104C3000C08204301105CCF42A583D4FF901D182CD
:104C4000C0823092DF028D3609F0B8C440E050E0F7
:104C500060E070E4C5010E94BA10B0C4D12CC12C30
:104C600010E000E0912C812CD2CF3092BE02EBCF2D
:104C7000823609F0A3C4892881F48AE191E00E9478
:104C8000220E2AE131E03AA329A361E0811160E01C
:104C9000CE0181960E94E20D91C4C114D10409F4A1
:104CA0008DC488EE93E0B6010E944632072E000CB8
:104CB000880B990B0E94752D3B014C01B801110F17
:104CC000880B990B0E94752DA40193010E94870BFC
:104CD00075C48091CF029091D00202970CF42FCF2F
:104CE0001092BE02609006010CE011E0FE013196C8
:104CF0005F01BEE7EB2EB2E0FB2E8CE2882E81E056
:104D0000982E6F01D8016D917D918D01072E000CB9
:104D1000880B990B0E94752D20E030E0A9016620D8
:104D200029F0F70120813181428153810E94422F75
:104D30000E942630D5016D937D935D01B4E0EB0EAA
:104D4000F11C80169106F1F6E7E583E07E1282E021
:104D5000E82EF12C02EE12E0B12CA12C77247394F2
:104D60008091CF029091D002A816B9060CF0B8C07D
:104D7000D8014C914031B0F411962C91022E000CC8
:104D8000330B842F880F990BF601E80FF91F31833D
:104D900020834430BCF48A589D4FFC01318320832A
:104DA0007092DF028091DE028D3479F440E050E0B1
:104DB00060E070E4C6010E94BA10AE0CBF1C0E0D7C
:104DC0001F1DCECF7092BE02EDCF873509F06AC0AD
:104DD00061E0D80111968C910E94F803F80180815E
:104DE000813609F059C09280818061E0882D0E944F
:104DF000F803911005C060E0882D0E949E03DDCF6E
:104E0000FFEF9F1202C061E0F7CFE82DF0E0E3561C
:104E1000FE4FE491E33021F138F4E130B9F0E230B3
:104E2000D1F097FCF0CFE7CFE73031F1E83061F116
:104E3000E430B9F780918000806280938000892DF2
:104E400090E090938B0080938A00B7CF84B5806800
:104E500084BD97BCB2CF84B5806284BD98BCADCF11
:104E600080918000806880938000892D90E09093ED
:104E7000890080938800A1CF8091B00080688093E2
:104E8000B0009092B30099CF8091B000806280937F
:104E9000B0009092B40091CF843609F08ECF628139
:104EA0008181ABCF823509F088CF8DE30E940C035E
:104EB00060E0F80181810E94F803D8018C9181366D
:104EC00039F411968C910E9429040E94810A75CFB1
:104ED000843609F072CFF80181810E947503F5CF05
:104EE0008091BE02811105C08091D1028B3609F4F8
:104EF00083CA40E050E060E870E4C6010E94BA1046
:104F0000C60179C38091E202853509F075CA8DE347
:104F10000E940C030091E402002E000C110BF09093
:104F2000E3020F3F100721F40F2D0F2C000C110B83
:104F300061E08F2D0E94F80360E08F2D0E949E0398
:104F400083E090E00197F1F761E08F2D0E949E03CE
:104F500083E290E00197F1F760E08F2D0E949E03BD
:104F600060E0802F0E94F8031127F801EC5EFD4FEE
:104F70006491F801E050FE4FE491F0E0EE0FFF1F66
:104F8000EF54FE4F8591949104EF1DE220E030E054
:104F9000462F0E94431A611571058105910529F07C
:104FA0006F5F7F4F8F4F9F4F9F700E94752D26E937
:104FB00033E44BE05DE30E94D42D20E030E040E09C
:104FC0005FE30E94D42D42E00E94AF0A0E94EE09E6
:104FD00013CA00E020E030E040E050E461E082EEFF
:104FE00092E00E94321208CAF12C0F2D10E080913D
:104FF000CF029091D00297FD01969595879508175D
:1050000019070CF003C3000F111F0E511D4FD801DB
:1050100011966C91062E000C770B88EE93E00E949F
:105020004632072E000C880B990B0E94752D4B0100
:105030005C01F8016081062E000C770B880B990B40
:105040000E94752DA50194010E94870BF394CDCF8A
:1050500086E191E00E94750F0E9446080E94D413D9
:105060008091DE020E94FE098BE68093DE0261EDF4
:1050700071E082EE92E00E945833BEC986E191E071
:105080000E94750F7C018091E2028093BA040E9415
:10509000400101966C018E0D9F1D8F3F9F4138F09E
:1050A0008BEB91E00E94F2090E94D413DDCF10E057
:1050B00000E03324339454E5252E1C141D04A4F77A
:1050C0003092CF042092CE041092CD041092CC04E2
:1050D0006F2D70E080EE95E00E94F807B70177270A
:1050E00080EE95E00E94F807380198012E513D4F5F
:1050F0004901280130E1430E511C0F5F1F4FD401BD
:105100006D914D0180EE95E00E9427065801AE0C8E
:10511000BF1CA618B708B1E0CB1AD10841F0C501F1
:105120008F719927892B19F04016510631F780EEBF
:1051300095E00E94560666E070E080E090E00E94F4
:1051400063047501BACF62EE72E082E791E00E94DB
:105150004F33892B69F062EE72E08BE692E00E9499
:105160004F33892B29F48091BA0482300CF04BC262
:1051700082EE92E00E94E9133FC965ED71E082EE94
:1051800092E00E94583382EE92E00E94E9130E945E
:105190003808109206011092DF0287E60E94FE098D
:1051A0002BC92C2D6202B0011124C7C92E2D0E2C43
:1051B000000C330B8091B604803108F446C0109285
:1051C000B604809105014091E0025091E102840F04
:1051D000952F911D82179307A4F59093E102809378
:1051E000E002F090B6040F2D10E041E04E15ACF552
:1051F0008091C904F816D8F14091C0042091E002D2
:105200003091E102429FC001439F900D11242091F3
:10521000C904080F191F021B11098091CA0490913B
:10522000CB04080F191F6091C504D8012C912603E7
:10523000B0011124072E000C880B990B0E94752DCC
:1052400063C01092E1021092E0028091B6048430B3
:1052500041F688E08093B604C4CF2130310561F671
:1052600053E05F1548F28091DF02882329F2809194
:10527000DF028111DFC083E08F1508F4DBC091E00D
:10528000812C912C5401F91659F06091B904062E25
:10529000000C770B880B990B0E94752D4B015C015C
:1052A0000E5F1F4F8091E0029091E102089FB001D4
:1052B000099F700D189F700D1124072E000C880B8C
:1052C000990B0E94752D2BED3FE049E450E40E94BC
:1052D000D42D2B013C016E2DEE0C770B880B990B16
:1052E0000E94752D9B01AC01C301B2010E94B42F35
:1052F0000E94F03020E030E040E251E40E94D42DE2
:10530000A50194010E94432FAB01BC018F2D0E9487
:10531000F80F8091B6048F5F8093B60483E49DE01C
:105320000197F1F78091BA0487FF13C08CE091E0F8
:105330000E94C901EEE7F2E08EEB92E01192119229
:10534000119211928E179F07C9F78091DE020E9479
:10535000FE090E94960428E833E140E050E00E94F4
:10536000112F8091080190910901092E000CAA0BC0
:10537000BB0B82179307A407B5070CF04BC079014C
:10538000309309012093080185E10E9429048C01D2
:105390008A389240DCF58091D4029091D5020817AA
:1053A000190721F0E2E0EE16F10484F58AEE91E0AF
:1053B0000E941103C80163E670E00E9446326B014F
:1053C000072E000CEE08FF0877FF5EC08DE20E94FA
:1053D0000C0366277727CB016C197D098E099F097D
:1053E0004AE00E941D0A86E50E94FE098AE191E0DA
:1053F0000E94220E882321F081ED93E00E94220F6B
:1054000060ED77E080E090E00E9463041093D502A5
:105410000093D40280E090E0892B11F40C94601D7D
:105420000E948902882311F40C94601D0E940000E0
:105430000C94601DF801EE0FFF1FEA58FD4F6081CC
:105440007181072E000C880B990B0E94752D4B0162
:105450005C016091060170E090E080E00E94752D93
:10546000000F111F000F111FF801E258FD4F20819E
:105470003181428153810E94D42D9B01AC01C50131
:10548000B4010E94422F40CF4AE0C701B601A9CF24
:10549000833609F0EDCB109206018091D10283365C
:1054A00081F088E79CE00E948609309207016BE852
:1054B00071E082EE92E00E94583382EE92E00E9408
:1054C000E913980121543D4F390132E083169104CC
:1054D00011F4D301CC92C8018096880F991F0E94C5
:1054E000750F6C01C8019927C0960E94220E182FD3
:1054F000F3016081062E000C770B880B990B0E943C
:10550000752D3B014C01612F110F770B880B990B07
:105510000E94752D9B01AC01C401B3010E94D42DE2
:105520003B014C01B601DD0C880B990B0E94752DD7
:105530009B01AC01C401B3010E94432F0E9426309D
:10554000072E000C880B990B0E94752DAB01BC0136
:10555000802F0E94890F0E94610A60ED71E0CE01E8
:1055600087960E9433160FEB12E0D8016D918D01E2
:10557000062E000C770BCE0181960E9407164DA1D6
:105580005EA169A17AA1CE0187960E949415CE01F1
:1055900081960E94D80D42E050E06EEC71E0CE01A1
:1055A00087960E94941540165106F9F6CE0187960B
:1055B0000E940A0ACE0187960E94D80DE114F104D8
:1055C00009F002CB8091DE028B7F893611F00C94BA
:1055D000FC218091BE02811106C08091D1028B36E0
:1055E00011F40C94FC2140E050E060E870E4C50147
:1055F0000E94BA10C5010E94C9010C94FC211091AF
:10560000D3020C94981E872D0C9400228091DE0208
:105610000C9404228EED96E00C94D80D0F931F93FA
:10562000CF93DF938230910510F482E090E0E09117
:10563000E806F091E90630E020E0B0E0A0E0309725
:1056400099F42115310509F44AC0281B390B24307F
:105650003105D8F58A819B816115710589F1FB01BE
:1056600093838283FE0111C04081518102811381A5
:1056700048175907E0F04817590799F4109761F057
:1056800012960C93129713961C933296CF01DF91CA
:10569000CF911F910F9108950093E8061093E906AA
:1056A000F4CF2115310551F04217530738F0A90105
:1056B000DB019A01BD01DF01F801C1CFEF01F9CF94
:1056C0009093E9068093E806CDCFFE01E20FF31F29
:1056D000819391932250310939832883D7CF209128
:1056E000E6063091E706232B41F420912F013091FB
:1056F00030013093E7062093E60620912D0130918A
:105700002E012115310541F42DB73EB740913101ED
:1057100050913201241B350BE091E606F091E7062B
:10572000E217F307A0F42E1B3F0B2817390778F078
:10573000AC014E5F5F4F2417350748F04E0F5F1FD7
:105740005093E7064093E606819391939FCFF0E054
:10575000E0E09CCFCF93DF930097E9F0FC01329714
:1057600013821282A091E806B091E906ED0130E0C3
:1057700020E01097A1F420813181820F931F2091A6
:10578000E6063091E7062817390709F061C0F09363
:10579000E706E093E606DF91CF910895EA01CE1780
:1057A000DF07E8F54A815B819E0141155105B1F79C
:1057B000E901FB83EA8349915991C40FD51FEC1786
:1057C000FD0761F4808191810296840F951FE901A4
:1057D00099838883828193819B838A83F0E0E0E0D0
:1057E00012968D919C9113970097B9F52D913C914C
:1057F0001197CD010296820F931F2091E6063091FA
:10580000E7062817390739F6309751F51092E9065F
:105810001092E806B093E706A093E606BCCFD383C8
:10582000C28340815181840F951FC817D90761F445
:105830004E5F5F4F88819981480F591F5183408384
:105840008A819B81938382832115310509F0B0CF32
:10585000F093E906E093E8069ECFFD01DC01C0CF9E
:1058600013821282D7CF8F929F92AF92BF92CF9224
:10587000DF92EF92FF92CF93DF93EC016881798101
:105880008A819B81611571058105910521F464E28E
:1058900079ED8BE597E02DE133EF41E050E00E9498
:1058A000A82E49015A019B01AC01A7EAB1E40E946C
:1058B000C72E6B017C01ACEEB4EFA50194010E94F0
:1058C000D52EC60ED71EE81EF91EF7FE06C081E0D3
:1058D000C81AD108E10880E8F80AC882D982EA82A9
:1058E000FB82C701B6019F77DF91CF91FF90EF90C8
:1058F000DF90CF90BF90AF909F908F9008958F9240
:105900009F92AF92BF92CF92DF92EF92FF926091FF
:105910003301709134018091350190913601611508
:1059200071058105910521F464E279ED8BE597E03D
:105930002DE133EF41E050E00E94A82E49015A01C9
:105940009B01AC01A7EAB1E40E94C72E6B017C0168
:10595000ACEEB4EFA50194010E94D52EC60ED71E61
:10596000E81EF91EF7FE06C081E0C81AD108E1085A
:1059700080E8F80AC0923301D0923401E0923501F8
:10598000F0923601C701B6019F77FF90EF90DF904C
:10599000CF90BF90AF909F908F9008956093330108
:1059A0007093340180933501909336010895FC0182
:1059B00088279927E89421912032E9F3293010F0C3
:1059C0002E30C8F32B3241F02D3239F4689404C0E4
:1059D0000E943C2D820F911D219120532A30C0F34B
:1059E0001EF4909581959F4F0895FB01DC01059071
:1059F0000D920020E1F70895FC0105900020E9F7E1
:105A0000809590958E0F9F1F089544EE56E00E945A
:105A10000A2D0895FA01A191B081009719F4109709
:105A2000E1F0CD01DC01CD010D90002011F4C001A9
:105A300013C0FB012191222319F02015D9F7F3CFD0
:105A4000FB012191201519F41E92119606C0222304
:105A5000C1F70D900020A1F7D001FA01A193B08306
:105A60000895BB274A3031F4992322F4BDE2909582
:105A700081959F4F0C94452D7AE0979F902D879F9D
:105A8000802D910D11240895BB27FB015527AA27CE
:105A9000880F991FAA1FA41710F0A41B83955051BB
:105AA000B9F7A05DAA3308F0A95DA193009779F733
:105AB000B111B1931192CB010C945E2DDC01FC016C
:105AC000672F71917723E1F7329704C07C916D9332
:105AD00070836291AE17BF07C8F308950E94B02D7E
