:100000000C9423010C944B010C944B010C944B0168
:100010000C944B010C944B010C944B010C94671401
:100020000C944B010C944B010C944B010C948416D2
:100030000C944B010C944B010C944B010C944B0110
:100040000C941B150C944B010C94E9140C94C314E0
:100050000C944B010C944B010C944B010C944B01F0
:100060000C9465150C944B0105A84CCDB2D44EB937
:100070003836A9020C50B9918688083CA6AAAA2A4B
:10008000BE000000803F07634236B79BD8A71A39ED
:10009000685618AEBAAB558C1D3CB7CC5763BD6DD6
:1000A000EDFD753EF6177231BF000000803F08007D
:1000B0000000BE922449123EABAAAA2ABECDCCCCE7
:1000C0004C3E00000080BEABAAAAAA3E0000000081
:1000D000BF000000803F0000000000084178D3BB53
:1000E0004387D1133D190E3CC3BD4282AD2B3E6800
:1000F000EC8276BED98FE1A93E4C80EFFFBE01C4F1
:10010000FF7F3F0000000000010000010000000030
:100110000000000000000000000000006B636B00A6
:100120007520006B736974006952616E6400000091
:100130000000230026002900000000002400270002
:100140002A0000000000250028002B0004040404FD
:100150000404040402020202020203030303030371
:10016000010204081020408001020408102001024E
:10017000040810200000000800020100000304072A
:100180000000000000000000024C6F616420736BEF
:10019000696C6C7300526561647921006B0042697F
:1001A00074746C65000A2A205374617274202A00EA
:1001B0003E004C6F7720706F7765723A00280128F7
:1001C000012801230120011C017A006A7900636B78
:1001D0000070656500707500686900737472007363
:1001E000697400747200776B006372007674006348
:1001F0000042007000520062616C616E6365004CE9
:100200000067004600640049324320454550524F84
:100210004D206F766572666C6F77212044656C6542
:10022000746520736F6D6520736B696C6C73210A44
:100230000061626F72746564007361766564003F8B
:1002400000007117F62311241FBECFEFD8E0DEBFE8
:10025000CDBF11E0A0E0B1E0E8EAF8E502C005900A
:100260000D92A83AB107D9F724E0A8EAB1E001C09D
:100270001D92AB36B207E1F711E0C2E2D1E004C053
:100280002197FE010E94412BC132D107C9F70E947C
:10029000DE170C94472C0C94000080E090E0A0E066
:1002A000B0E48093660290936702A0936802B093D3
:1002B0006902E0915F04F09160048181082E000CD6
:1002C000990B90936C0280936B028281082E000C34
:1002D000990B90936E0280936D02838180936F02DD
:1002E0008091650287FF0CC08481809370028581B4
:1002F0008093710286818093720287E090E005C04E
:10030000813061F05CF084E098E090937302E80F34
:10031000F11DF0937502E0937402089584E0EECF2E
:1003200080915D0290915E02891B990B089508955A
:1003300008950895AF92BF92CF92DF92EF92FF920D
:100340000F931F93CF93DF936C017B018B01040FFD
:10035000151FEB015E01AE18BF08C017D10759F099
:100360006991D601ED91FC910190F081E02DC601DB
:100370000995892B79F7C501DF91CF911F910F91D5
:10038000FF90EF90DF90CF90BF90AF900895FC0169
:10039000538D448D252F30E0842F90E0821B930BEA
:1003A000541710F0CF96089501970895FC01918D90
:1003B000828D981761F0A28DAE0FBF2FB11D5D9693
:1003C0008C91928D9F5F9F73928F90E008958FEF35
:1003D0009FEF0895FC01918D828D981731F0828DE9
:1003E000E80FF11D858D90E008958FEF9FEF089540
:1003F000FC01918D228D892F90E0805C9F4F821BA4
:1004000091098F739927089586EC92E00E94F80174
:1004100021E0892B09F420E0822F089580E090E00C
:10042000892B29F00E94040281110C940000089588
:10043000FC01A48DA80FB92FB11DA35ABF4F2C9159
:10044000848D90E001968F739927848FA689B78950
:100450002C93A089B1898C91837080648C93938D47
:10046000848D981306C00288F389E02D80818F7DEA
:1004700080830895EF92FF920F931F93CF93DF93A2
:10048000EC0181E0888F9B8D8C8D98131AC0E889D0
:10049000F989808185FF15C09FB7F894EE89FF899F
:1004A0006083E889F98980818370806480839FBF3D
:1004B00081E090E0DF91CF911F910F91FF90EF903D
:1004C0000895F62E0B8D10E00F5F1F4F0F7311274D
:1004D000E02E8C8D8E110CC00FB607FCFACFE88988
:1004E000F989808185FFF5CFCE010E941802F1CFF6
:1004F000EB8DEC0FFD2FF11DE35AFF4FF0829FB7FC
:10050000F8940B8FEA89FB8980818062CFCF0F93AB
:100510001F93CF93DF938C01D0E0C0E0F801EC0F84
:10052000FD1F6491662341F086EC92E00E943A023E
:10053000892B11F02196F2CFCE01DF91CF911F913F
:100540000F910895CF93DF93EC01888D8823B9F044
:10055000AA89BB89E889F9898C9185FD03C08081CE
:1005600086FD0DC00FB607FCF7CF8C9185FFF2CF4B
:10057000808185FFEDCFCE010E941802E9CFDF9187
:10058000CF910895833081F028F4813099F0823042
:10059000A9F008958730A9F08830C9F08430B1F40B
:1005A000809180008F7D03C0809180008F77809341
:1005B0008000089584B58F7784BD089584B58F7DBC
:1005C000FBCF8091B0008F778093B0000895809129
:1005D000B0008F7DF9CF1F93CF93DF93282F30E0AA
:1005E000F901EC58FE4F8491F901E05AFE4FD49185
:1005F000F901E45BFE4FC491CC23A9F0162F8111C1
:100600000E94C202EC2FF0E0EE0FFF1FEE5BFE4FE8
:10061000A591B4918FB7F894EC91111108C0D095C1
:10062000DE23DC938FBFDF91CF911F910895DE2BE6
:10063000F8CF9091000189130BC0E8E8F1E0E49154
:100640009FEF90930001E13049F028F0E23061F033
:1006500060E00C94EB0210926E00FACF90916F0064
:100660009D7F90936F00F4CF909170009D7F909349
:10067000700091E09093B0009091B100987F9460E9
:100680009093B1001092B300E3CFCF93DF9390E04B
:10069000FC01E05AFE4F2491845B9E4FFC01849143
:1006A0008823D1F090E0880F991FFC01E85CFE4F91
:1006B000A591B491FC01EE5BFE4FC591D4916111FF
:1006C0000EC09FB7F8948C91E22FE0958E238C9307
:1006D0002881E223E8839FBFDF91CF9108958FB7F0
:1006E000F894EC91E22BEC938FBFF6CF8E508064A0
:1006F00080937C0080917A00806480937A0080915E
:100700007A0086FDFCCF8091780090917900089561
:100710003FB7F89480911B0290911C02A0911D029A
:10072000B0911E0226B5A89B05C02F3F19F0019677
:10073000A11DB11D3FBFBA2FA92F982F8827BC013B
:10074000CD01620F711D811D911D42E0660F771F63
:10075000881F991F4A95D1F708958F929F92AF9263
:10076000BF92CF92DF92EF92FF926B017C010E94C9
:1007700088034B015C01C114D104E104F104B9F018
:100780000E948803681979098A099B09683E7340A9
:100790008105910580F321E0C21AD108E108F10832
:1007A00088EE880E83E0981EA11CB11CE4CFFF9058
:1007B000EF90DF90CF90BF90AF909F908F90089573
:1007C0002FB7F89460911702709118028091190266
:1007D00090911A022FBF08950F931F930E94E00378
:1007E0006093CE027093CF028093D0029093D10297
:1007F00086EC92E00E94D60197FF1DC00E94E003A4
:100800000091CE021091CF022091D0023091D102FE
:10081000601B710B820B930B0091CA021091CB02EB
:100820002091CC023091CD026017710782079307A7
:10083000F8F28FEF9FEF1F910F9108952091F30130
:10084000260F3327331F21323105ECF42091C002EB
:10085000FC0190E080E0243069F082E00895A091EE
:10086000F3012191AC014D525E4FA40FB52FB11D84
:100870002C930196861798F38091F301680F60938B
:10088000F30180E0089581E008951092C00281E0B4
:1008900080939F0210929A0261E082E10E94EB0233
:1008A00061E083E10E94EB02E9EBF0E080818E7F62
:1008B000808380818D7F808388E48093B80085E485
:1008C0008093BC000895CF93DF9391E09093D20181
:1008D0008823B9F0C091B800D091BA008091BC00D3
:1008E0008A7B8093BC0060E082E10E94EB0260E0C2
:1008F00083E10E94EB020E944504D093BA00C093AA
:10090000B800DF91CF910895CF92DF92EF92FF92DE
:100910000F931F93CF93DF93D82FC62F613208F028
:1009200098C00E9488036B017C018091C0028111F4
:100930006BC081E08093C00280939F029FEF9093F1
:100940009E0210929D029C0F90939C0280939B02AA
:1009500080919B02DD0FD82BD0939B0280919A024D
:10096000813009F078C010929A020E9488036B01CE
:100970007C0180919B028093BB008091C202909188
:10098000C302A091C402B091C502892B8A2B8B2B84
:10099000A1F00E9488030091C2021091C30220912D
:1009A000C4023091C5026C197D098E099F09061792
:1009B00017072807390708F448C08091BC0083FD59
:1009C000D8CF85EC8093BC000E9488036B017C012A
:1009D0008091C002813009F440C080919D028C1743
:1009E00010F4C0919D02EAE7F2E0A0EAB2E080E0F4
:1009F0008C1355C08C2FDF91CF911F910F91FF90D9
:100A0000EF90DF90CF9008958091C2029091C30241
:100A1000A091C402B091C502892B8A2B8B2B09F4BB
:100A200084CF0E9488030091C2021091C3022091DA
:100A3000C4023091C5026C197D098E099F09061701
:100A400017072807390708F070CF8091C1020E946C
:100A50006304C0E0CFCF85EEB5CF8091C202909104
:100A6000C302A091C402B091C502892B8A2B8B2BA3
:100A700009F4AECF0E9488030091C2021091C30214
:100A80002091C4023091C5026C197D098E099F091D
:100A9000061717072807390708F09ACFD6CF919184
:100AA0009D938F5FA5CF0895E0915E0280915D02D6
:100AB000E81730F4F0E0E056FD4F808190E00895B3
:100AC0008FEF9FEF089590915E0280915D022FEF6E
:100AD0003FEF981748F4E92FF0E0E056FD4F2081F2
:100AE00030E09F5F90935E02C9010895CF92DF923C
:100AF000EF92FF920F931F93CF93DF937C01CB0173
:100B00008A0120917902222389F0EB016B01C40E46
:100B1000D51ECC15DD0569F06991D701ED91FC91E9
:100B20000190F081E02DC7010995F3CF642F0E9459
:100B30001E04C801DF91CF911F910F91FF90EF909C
:100B4000DF90CF900895CF93DF931F92CDB7DEB79C
:100B50006983209179022223F9F0209176022032D4
:100B600058F021E030E0FC013383228390E080E004
:100B70000F90DF91CF91089580917702E82FF0E0F8
:100B8000EE54FE4F998190838F5F8093770280931C
:100B9000760281E090E0ECCF61E0CE0101960E9408
:100BA0001E04F7CFCF92DF92EF92FF920F931F9325
:100BB000CF93DF93D091760281E0D13208F09CC0D0
:100BC000C09178020E9488036B017C018091C00271
:100BD00081116CC082E08093C00281E080939F020B
:100BE0008FEF80939E0210929D02D0939C02A2EB05
:100BF000B1E0EAE7F2E080E0D8138DC010929B02EA
:100C000080919B02CC0FC82BC0939B0280919A02CB
:100C1000813009F084C010929A020E9488036B010F
:100C20007C0180919B028093BB008091C2029091D5
:100C3000C302A091C402B091C502892B8A2B8B2BD1
:100C4000A1F00E9488030091C2021091C30220917A
:100C5000C4023091C5026C197D098E099F090617DF
:100C600017072807390708F442C08091BC0083FDAC
:100C7000D8CF85EC8093BC000E9488036B017C0177
:100C80008091C002823009F44CC080919E028F3F57
:100C900009F469C080919E02803209F466C0809197
:100CA0009E02803309F463C084E026C08091C202B2
:100CB0009091C302A091C402B091C502892B8A2BE6
:100CC0008B2B09F483CF0E9488030091C2021091FC
:100CD000C3022091C4023091C5026C197D098E09AE
:100CE0009F09061717072807390708F06FCF80916B
:100CF000C1020E94630485E010927702109276028E
:100D000010927902DF91CF911F910F91FF90EF9098
:100D1000DF90CF9008959D9191938F5F6DCF85EE79
:100D2000A9CF8091C2029091C302A091C402B09158
:100D3000C502892B8A2B8B2B09F4A2CF0E94880332
:100D40000091C2021091C3022091C4023091C502E9
:100D50006C197D098E099F0906171707280739079F
:100D600008F08ECFC4CF80E0C7CF82E0C5CF83E04C
:100D7000C3CF90E080E008951F93CF93DF93EC0101
:100D8000142F89819A81288131E030937902209350
:100D900078021092770210927602DC01ED91FC91BC
:100DA0000190F081E02D099589819A81DC01ED9116
:100DB000FC910190F081E02D612F099589819A8144
:100DC000DF91CF911F910C94D205DC01ED91FC9144
:100DD0000190F081E02D0994FC0187E094E1161662
:100DE00034F484E098E0613011F484E090E1908381
:100DF000062E000C770B77FF03C071956195710982
:100E0000969FA001979F500D1124840F952F911D3F
:100E10000895DC01ED91FC910190F081E02D0994A1
:100E20000F931F93CF93DF93EC018A0189819A81FD
:100E3000288131E030937902209378021092770272
:100E40001092760224E0629FB00111246A5F7F4F06
:100E50000E94090770E060E089819A810E94E5069E
:100E600070E060E089819A810E94E506B80189817D
:100E70009A810E94E506612F70E089819A810E9423
:100E8000E50689819A81DF91CF911F910F910C9492
:100E9000D205CF93C0E040E050E16C2F82E494E0B3
:100EA0000E941007CF5FC031B1F7CF9108959F9294
:100EB000AF92BF92CF92DF92EF92FF920F931F9368
:100EC000CF93DF93EC0181E08093790284E58093F6
:100ED000780210927702109276026D2F70E083E60E
:100EE00093E00E940907BE01772783E693E00E9402
:100EF000090783E693E00E94D20561E084E50E9441
:100F0000840410925E0280935D0283E693E00E9467
:100F10006305C0905F04D0906004F60180838093E5
:100F20006502682F8AE692E00E94EC06EC01F12C43
:100F3000E12C1C161D064CF56C2FCF31D1050CF0A1
:100F40006EE184E50E948404982E10925E028093E4
:100F50005D025E01FEE1AF1AB1088E0180915E0272
:100F6000981659F083E693E00E9463059FEFE91A13
:100F7000F90AF601EE0DFF1D80830150110929F0D9
:100F8000E5010A151B0551F7D4CFDF91CF911F91D1
:100F90000F91FF90EF90DF90CF90BF90AF909F9018
:100FA0000895CF93DF93EC0189819A81288131E004
:100FB0003093790220937802109277021092760291
:100FC000DC01ED91FC910190F081E02D0995898182
:100FD0009A810E94D20561E088810E948404109267
:100FE0005E0280935D0289819A81DC01ED91FC9122
:100FF0000284F385E02D0995DF91CF9108958F92BA
:101000009F92AF92BF92CF92DF92EF92FF92CF93D7
:10101000C82F90E080E00E945F266B017C016EEF9C
:1010200082E494E00E94D107682F70E06F5F7F4FE9
:1010300090E080E00E945F2620E034E244E759E43B
:101040000E94C0264B015C016091450470914604EA
:1010500080914704909148040E945F269B01AC0157
:10106000C501B4010E94A0289B01AC01C701B601D3
:101070000E94A0280E941929AB016C2F82E494E001
:10108000CF91FF90EF90DF90CF90BF90AF909F9067
:101090008F900C9410070F931F93CF938C01C0E097
:1010A000B8018C2F0E94FF07CF5FC031C9F7CF91E5
:1010B0001F910F9108958F929F92AF92BF92CF92FE
:1010C000DF92EF92FF921F93CF93DF93EC016A01BF
:1010D0007B0120E030E040E85FE3CB01B6010E94F5
:1010E0005A2687FD7EC020E030EC4AE555E4C70172
:1010F000B6010E94872918163CF4C12C30ECD32E7F
:101100003AE5E32E35E4F32E6B817C818D819E815F
:101110000E945F264B015C0120E030E040E855E48E
:10112000C701B6010E94C0269B01AC01C501B401F4
:101130000E94A02820E030E040E05FE30E942F28DA
:1011400020E030E040E85FE30E942E286B017C0144
:1011500020E030E040E450E40E945A2687FD48C079
:1011600020E030E04FE753E4C701B6010E94872931
:10117000181634F4C12CD12C9FE7E92E93E4F92EF4
:1011800060E0CE010E94D107182F482F4F764061B2
:1011900060E0CE010E94BC06C701B6010E94192979
:1011A000462F6EEFCE010E94BC06412F60E0CE01BB
:1011B0000E94BC0665E070E080E090E00E94AD0314
:1011C000412F406A60E0CE01DF91CF911F91FF90E7
:1011D000EF90DF90CF90BF90AF909F908F900C9446
:1011E000BC06C12CD12C20E8E22E2FE3F22E8CCFAE
:1011F000C12CD12C80E4E82EFE2CC2CFFC01019042
:101200000020E9F73197AF01481B590BBC0186EC70
:1012100092E00C949A0186E691E00C94FE08CF933C
:10122000DF930E948702EC010E940B098C0F9D1F27
:10123000DF91CF910895CF93DF93682F86EC92E0F2
:101240000E943A02EC010E940B098C0F9D1FDF9156
:10125000CF910895CF93DF93FC0144815581608144
:10126000718186EC92E00E949A01EC010E940B09C8
:101270008C0F9D1FDF91CF9108958F929F92AF9217
:10128000BF920F931F93CF93DF93CDB7DEB7A19794
:101290000FB6F894DEBF0FBECDBF19A2423008F4DE
:1012A0004AE08E010F5D1F4F842E912CB12CA12C92
:1012B000A50194010E94FD27E62FB901CA01EA3079
:1012C000F4F4E05DD801EE938D01232B242B252B24
:1012D00079F790E080E0109719F0CD010E94FE08A8
:1012E000A1960FB6F894DEBF0FBECDBFDF91CF91B0
:1012F0001F910F91BF90AF909F908F900895E95CE0
:10130000E1CFCF92DF92EF92FF92C12CD12C7601E8
:101310004AE0C701B6010E943D0969E086EC92E00F
:101320000E943A028FEFC81AD80AE80AF80A80E148
:10133000C816D104E104F10459F7FF90EF90DF9053
:10134000CF900C940B09CF93DF930E94FE08EC0121
:101350000E940B098C0F9D1FDF91CF910895FC0116
:1013600024813581232B39F421E0FB0180818823FE
:1013700049F020E007C0808191810E94292C21E062
:10138000892BB9F7822F0895CF93DF93EC018881E1
:101390009981009711F00E949624198218821D826B
:1013A0001C821B821A82DF91CF910895FC018081FB
:1013B0009181009711F00C94962408950F931F9338
:1013C000CF93DF938C01EB01FC0180819181009729
:1013D000E1F06881798161157105A9F0428153813D
:1013E0002C813D814217530770F00E94322C8C8172
:1013F0009D81F801958384831D821C82DF91CF91AA
:101400001F910F9108950E94962488819981F80177
:10141000918380838A819B81938382838C819D8148
:1014200095838483198218821B821A82E5CF0C94DB
:101430007E276F927F928F929F92AF92BF92CF92B0
:10144000DF92EF92FF920F931F93CF93DF936C0184
:10145000712CD0E0C0E083E191E00E94170A082ED1
:10146000000C990B781619060CF06DC04E018FEF29
:10147000881A980ACE01805C9E4F0E94170A682E37
:10148000E82EF12CC70101960E94FA238C015C0121
:10149000CF5BDE4FC81BD90B8A2D801B861548F405
:1014A000CE018A0D9B1D0E94170AF50181935F01F1
:1014B000F3CFE401CE0DDF1D5801AE0CBF1CF501CA
:1014C0001082B601C8010E94292C892B09F501154B
:1014D0001105A9F5CE018F5B9E4F0E94170A8093DC
:1014E0006502682F8AE692E00E94EC06CE01805CDD
:1014F0009E4FDF91CF911F910F91FF90EF90DF9062
:10150000CF90BF90AF909F908F907F906F900895F5
:10151000F501319780818C3449F4A701415051097C
:10152000B601C8010E94392C892B89F201151105D9
:1015300019F0C8010E949624249673948CCFC80198
:101540000E949624C7CF8FE392E00E940F098FEF8D
:101550009FEFCFCF1F93CF93DF93EC010E94170A29
:10156000182FCE0101960E94170A90E0982F882725
:10157000810F911DDF91CF911F910895CF92DF923E
:10158000EF92FF920F931F93CF93DF936A017B013A
:10159000082F10E0C801805B9F4F880F991F0E94A1
:1015A000AA0ABC01990F880B990B0E94612620E0C2
:1015B00030E04AE754E40E94A028A70196010E9467
:1015C000C0266B017C0182E191E00E94170A9AE03B
:1015D000899FB0011124072E000C880B990B0E94E3
:1015E0006126A70196010E942F286B017C0120E053
:1015F00030E04AEF53E40E948729C4EFD1E0181687
:101600008CF420E030E44CE155E4C701B6010E94BF
:101610005A26C4ECD9E087FF05C0C701B6010E9475
:101620001229EB01C8010E94170AAE01682F82E45B
:1016300094E0DF91CF911F910F91FF90EF90DF9099
:10164000CF900C94100790E0C096880F991F860FDA
:10165000911D880F991F0C94AA0A7F928F929F92D6
:10166000AF92BF92CF92DF92EF92FF920F931F93B0
:10167000CF93DF93B82E6A01D62FC72F60E00E9468
:10168000230BBC01990F880B990B0E9461267B01EB
:101690008C0161E08B2D0E94230BBC01990F880BFC
:1016A000990B0E946126762E872E982EA92E9601E0
:1016B0004D2F5C2F0E945A2687FF71C0772D682D11
:1016C000992D8A2D272F362F492F582FB701C80162
:1016D0000E948729181694F096014D2F5C2F672DD4
:1016E000782D892D9A2D0E945A2676010D2F1C2FB8
:1016F00087FF04C0E72CF82C092D1A2DCB2DD0E044
:101700006E0180E3C80ED11CCC0FDD1FCA5FDE4F17
:10171000B701C8010E94122979836883C601880F26
:10172000991F0E94AA0AEC01C6010E94170A682F9D
:10173000880F770B880B990B0E9461269701A801EF
:101740000E94C0266B017C01BE01DD0F880B990B46
:101750000E9461269B01AC01C701B6010E942F289F
:101760000E941229072E000C880B990B0E946126FB
:1017700020E030E0A9010E942F28AB01BC018B2D95
:10178000DF91CF911F910F91FF90EF90DF90CF905D
:10179000BF90AF909F908F907F900C94BE0A7C2D4D
:1017A0006D2DCE018FCF2F923F924F925F926F920D
:1017B0007F928F929F92AF92BF92CF92DF92EF92E1
:1017C000FF920F931F93CF93DF93CDB7DEB72E9782
:1017D0000FB6F894DEBF0FBECDBF5C016A017B017E
:1017E00020E030E0A901CB01B6010E945A26950104
:1017F000205E3F4F39011816A4F189E691E00E945E
:10180000A30983013FE03983D8017E916E918D0158
:10181000072E000C880B990B0E946126AB01BC01BE
:1018200089810E942D0BB981B150B983BF3F61F707
:101830002E960FB6F894DEBF0FBECDBFDF91CF91CD
:101840001F910F91FF90EF90DF90CF90BF90AF90DE
:101850009F908F907F906F905F904F903F902F90D0
:10186000089580E290E00E94FA238C0186E0882EA1
:1018700081E0982E9801F50170E060E0D4018D912F
:101880009D914D0141915191841B950BD9018D93EF
:101890009D939D0197FF03C09195819591096817CC
:1018A00079070CF4BC01E615F70541F7072E000C8B
:1018B000880B990B0E946126A70196010E94A0281F
:1018C0006B017C0120E030E0A9010E94872920E023
:1018D00030E040E05FE387FD91C0C701B6010E94A0
:1018E0002F280E9412297E876D87D12CC12C8D85CF
:1018F0009E85092E000CAA0BBB0B89879A87AB87A4
:10190000BC87AD85BE85AC15BD050CF47CC0480117
:101910001501F12CC6010D2C000CAA0BBB0B8D83FD
:101920009E83AF83B887D1016D917D911D01072EF4
:10193000000C880B990B0E9461262B013C01ED8560
:10194000FE8520E030E0A901EF2B09F443C06D8152
:101950007E818F8198850E9461262BED3FE049E4CE
:1019600050E40E94C02669837A838B839C836985B7
:101970007A858B859C850E9461269B01AC016981DB
:101980007A818B819C810E94A0280E949B2820E064
:1019900030E040E85FE30E942F2820E030E040E0A4
:1019A0005FE30E94C02669837A838B839C83D40182
:1019B0006D917C91072E000C880B990B0E9461267B
:1019C0009B01AC0169817A818B819C810E94C02638
:1019D0009B01AC01C301B2010E942F28AB01BC01E5
:1019E0008F2D0E942D0BF394B2E08B0E911CE0E141
:1019F000FE1299CFFFEFCF1ADF0A83CFC701B601DE
:101A00000E942E286ECF0115110509F411CFC801CF
:101A10002E960FB6F894DEBF0FBECDBFDF91CF91EB
:101A20001F910F91FF90EF90DF90CF90BF90AF90FC
:101A30009F908F907F906F905F904F903F902F90EE
:101A40000C9496242F923F924F925F926F927F92C6
:101A50008F929F92AF92BF92CF92DF92EF92FF92BE
:101A60000F931F93CF93DF93CDB7DEB72F970FB6AA
:101A7000F894DEBF0FBECDBF4C016D8369017A01C2
:101A8000202F30E03A83298320E030E0A901C7010C
:101A9000B6010E945A2618160CF189E691E00E94C0
:101AA000A3091FE0812F012E000C990BA981BA8197
:101AB0008A179B070CF41EC1880D991DFC016081DB
:101AC000062E000C770B880B990B0E946126AB0148
:101AD000BC01812F0E942D0B1150E4CF80E190E0DA
:101AE00029813A81821B930B811530E4930780F59D
:101AF000880F991F009779F10E94FA235C01E98110
:101B0000FA81EE0FFF1FCF018A5F9E4F3C01250136
:101B1000D401402F70E060E0403100F5F301819185
:101B200091913F012D915D81250390011124821B2C
:101B3000930BF201819391932F0197FF03C091952D
:101B400081959109681779070CF4BC014F5FE4CFC8
:101B50008FEF9FEFD1CF81E090E0CECF072E000C2A
:101B6000880B990B0E946126A70196010E94A0286C
:101B70006B017C0120E030E0A9010E94872920E070
:101B800030E040E05FE387FD8BC0C701B6010E94F3
:101B90002F280E9412291B011F861E86CB01770F5A
:101BA000AA0BBB0B8A879B87AC87BD87AE85BF8599
:101BB0002A163B060CF480C0BA82A9829C828B82D2
:101BC000102FCD01092E000CAA0BBB0B8E839F8317
:101BD000A887B987103108F068C0AB81BC816D91CE
:101BE000BC83AB832D816203B0011124072E000C4E
:101BF000880B990B0E9461266B017C0120E030E08C
:101C0000A90121143104E1F16E817F8188859985D4
:101C10000E9461262BED3FE049E450E40E94C0267B
:101C20002B013C016A857B858C859D850E94612600
:101C30009B01AC01C301B2010E94A0280E949B2815
:101C400020E030E040E85FE30E942F2820E030E011
:101C500040E05FE30E94C0262B013C01A981BA81CC
:101C60006D917C91072E000C880B990B0E946126C8
:101C70009B01AC01C301B2010E94C0269B01AC01D3
:101C8000C701B6010E942F28AB01BC01812F0E9421
:101C90002D0B1F5FE981FA813296FA83E9839ACF8F
:101CA000C701B6010E942E2874CF2E853F852F5F75
:101CB0003F4F3F872E877ACFA114B104D9F0C501D9
:101CC0002F960FB6F894DEBF0FBECDBFDF91CF9138
:101CD0001F910F91FF90EF90DF90CF90BF90AF904A
:101CE0009F908F907F906F905F904F903F902F903C
:101CF0000C9496242F960FB6F894DEBF0FBECDBF7E
:101D0000DF91CF911F910F91FF90EF90DF90CF90D7
:101D1000BF90AF909F908F907F906F905F904F900B
:101D20003F902F9008950F930E944D0110926002F2
:101D300010925F02E1E6F2E025813681478150850D
:101D400002896685838994890E94220D0F910895E6
:101D5000CF92DF92EF92FF920F931F93CF93DF9377
:101D60008C01FC0101900020E9F7329780818C34CE
:101D700009F4F2C0823509F0F1C087EE8093640265
:101D8000C8010E94190AEC01CF3FDC0709F430C1F9
:101D9000CE010E94170AF82ECE0102960E94AA0ACE
:101DA000EC01E9E4FE12DCC00E9457070E944D01DD
:101DB00063E771E0C8010E94292C892B09F4EAC06D
:101DC00080916502813009F0E5C00E946B2524E610
:101DD00030E040E050E00E9494270E94612620E01D
:101DE00030E040E251E40E94A02820E030E040EAE8
:101DF00050E40E942E286093590270935A028093F7
:101E00005B0290935C02C0905902D0905A02E0901D
:101E10005B02F0905C02D0E0C0E00091740210918F
:101E200075020C0F1D1FF8016081062E000C770B48
:101E3000880B990B0E946126A70196010E942F280A
:101E40000E941229F80160832196C031D10529F73B
:101E50008091650282300CF4A6C08091640287FFF5
:101E6000B1C080916B0290916C029195819591091E
:101E700090936C0280936B0290E080E04091650249
:101E8000242F042E000C330B37FF03C0319521950E
:101E90003109821793070CF095C042301CF5409130
:101EA0006A02489F9001499F300D1124E09174020D
:101EB000F0917502E20FF31F20812195208320917C
:101EC0006A02289FF001299FF00D11249F012E5FC7
:101ED0003F4FE0917402F0917502E20FF31F2081F1
:101EE000219520832091650260E022300CF462E0AD
:101EF000E62FF0E02091650222300CF482C024E04D
:101F000030E04091740250917502E217F3070CF033
:101F10007BC09F01220F331F70916A02789FF001EE
:101F2000799FF00D1124E20FF31FE40FF51F40819C
:101F30005181508350916A02589FD001599FB00D32
:101F40001124E0917402F0917502E20FF31FEA0F81
:101F5000FB1F41836F5FCCCF89E110CF80E00ECFB4
:101F6000609165028AE692E00E94EC0620915F048F
:101F700030916004D901C21BD30BFE01EA0FFB1F95
:101F8000AD01421B530B481759070CF00FCFE491DA
:101F9000ED93F3CF1092590210925A0210925B0205
:101FA00010925C0230CF0E946B2524E630E040E0C6
:101FB00050E00E94942760FF05C08091580283364C
:101FC00009F04FCF1092600210925F0220916602DA
:101FD000309167024091680250916902009173024A
:101FE00060916F0280917402909175020E94220D9F
:101FF000DF91CF911F910F91FF90EF90DF90CF90E5
:10200000089528E030E07DCF019638CF0F931F93DD
:10201000CF93DF93EC018B010E947E27081721F0FC
:10202000602FCE010E9486272196CE010E947E2736
:10203000181721F0612FCE010E94862765E070E01D
:1020400080E090E0DF91CF911F910F910C94AD0350
:102050000F931F93CF93DF93EC01888199810097B1
:1020600059F02A813B812617370730F081E0DF9154
:10207000CF911F910F9108958B016F5F7F4F0E9449
:102080005B2B009759F0998388831B830A832C81EB
:102090003D81232B59F7FC011082E8CF80E0E7CF88
:1020A000EF92FF920F931F93CF93DF93611571050A
:1020B00041F480E0DF91CF911F910F91FF90EF905D
:1020C000089541155105B1F07B01EC010C811D8192
:1020D000040F151FB8010E942810882351F328818E
:1020E00039818C819D81B701820F931F0E94322C10
:1020F0001D830C8381E0DECFEF92FF920F931F933D
:10210000CF93DF93EC017B018A01BA010E94281072
:1021100081110BC0CE010E94C409CE01DF91CF9185
:102120001F910F91FF90EF9008951D830C83B701CD
:10213000888199810E94322CF0CFFB01DC0111963D
:102140001C921E9213961C921E92129715961C9228
:102150001E9214978617970759F060817181611557
:10216000710521F0448155810C947C100C94C409B4
:102170000895FB0101900020E9F73197AF01461B5C
:10218000570B0C947C100F931F93CF93DF93CDB715
:10219000DEB762970FB6F894DEBF0FBECDBF8C01DD
:1021A000CB01F801118210821382128215821482EF
:1021B0004AE0BE016F5F7F4F0E941D26BE016F5F28
:1021C0007F4FC8010E94B91062960FB6F894DEBF27
:1021D0000FBECDBFDF91CF911F910F910895FC01EC
:1021E000118210821382128215821482FB010190E7
:1021F0000020E9F73197AF01461B570B0C947C1078
:10220000EF92FF920F931F93CF93DF9300D0CDB740
:10221000DEB78C01E62E6FE971E00E94EF100E949C
:10222000EC030E2C000CFF0897FD10C08E159F05C7
:1022300069F089831A8241E050E0BE016F5F7F4FF1
:10224000C8010E9450100E94EC03EECFC8010F900D
:102250000F90DF91CF911F910F91FF90EF90089514
:10226000EF92FF920F931F93CF93DF93EC018B01BB
:10227000198218821B821A821D821C82CB010E9445
:10228000E8257C01BC01CE010E942810811109C003
:10229000CE01DF91CF911F910F91FF90EF900C94A1
:1022A000C409FD82EC82B80188819981DF91CF91C8
:1022B0001F910F91FF90EF900C94E12585ED809395
:1022C000BC008091C2029091C302A091C402B0915F
:1022D000C5020796A11DB11D23E0B695A795979558
:1022E00087952A95D1F72091BC0024FD03C0109258
:1022F000C00208954091C2025091C3026091C4028D
:102300007091C502452B462B472B69F30097A10519
:10231000B10541F02AE22A95F1F700C00197A10921
:10232000B109E1CF8091C1020C9463042F923F92D6
:102330004F925F926F927F928F929F92AF92BF92D5
:10234000CF92DF92EF92FF920F931F93CF93DF9381
:10235000CDB7DEB766970FB6F894DEBF0FBECDBF20
:1023600069877A878B879C872D873E874F87588B15
:10237000C801EE8A10E088248A94982C540168E4FD
:10238000462E68EE562E66246394712C05E071E5A6
:10239000272E71E0372E9C01990F440B550B298B8A
:1023A0003A8B4B8B5C8B6D857E858F8598890E94DF
:1023B00019296D837E838F83988720E030E0A901FF
:1023C00069857A858B859C850E945A26882309F425
:1023D00099C129853A854B855C8563E67CE987E868
:1023E0009FE30E948C2920E030ED42E854E40E94F3
:1023F000C0260E9419296B0180910001853009F0E7
:102400006AC0E8E8F1E0F491FD8BF7FDD9C161E025
:1024100085E00E944503FD89FF2321F02D892230AC
:1024200009F024C1F12CE12C60E072E18AE790E030
:10243000A70196010E94942729833A834B835C83EA
:10244000DA01C9010197A109B1098F3F9105A105E1
:10245000B10509F00CF4F0C060E472E48FE090E0A4
:10246000A70196010E949427215031094109510981
:102470008D89823009F0A2C082E02F3F31054105ED
:10248000510509F00CF48CC160E970ED83E090E037
:10249000A70196010E949427215031094109510951
:1024A00083E02F3F31054105510509F00CF478C157
:1024B000C301B201A70196010E949427215031095E
:1024C000410951092F3F31054105510511F00CF02B
:1024D00092C084E065C18F3F09F072C10093000192
:1024E000E8E8F1E0F491FD8BFF3F09F469C1F130B8
:1024F00029F158F0F23009F43FC03D8937FD60C141
:1025000061E085E00E94450389CF14BC15BC84B509
:10251000826084BD85B5816085BDF1018491E82F1D
:10252000F0E0EE0FFF1FEE5BFE4F85919491E5E624
:10253000F1E084918093A9011D8A69CF10928000F7
:102540001092810080918100886080938100809149
:102550008100816080938100F1018491E82FF0E097
:10256000EE0FFF1FEE5BFE4F85919491E5E6F1E0E3
:1025700084918093A8014BCF1092B0001092B100CB
:102580008091B00082608093B0008091B100816042
:102590008093B100F1018491E82FF0E0EE0FFF1F6E
:1025A000EE5BFE4F859194919093200280931F02E1
:1025B000E5E6F1E084918093210229CF2F3F310598
:1025C0004105510509F00CF44FC0C301B201A70148
:1025D00096010E94942721503109410951099D8992
:1025E000992309F4AFC02F3F31054105510511F082
:1025F0000CF0B0C06ECF64E274EF80E090E0A70111
:1026000096010E949427215031094109510985E022
:102610002F3F31054105510509F008F4C1C062E1C1
:102620007AE780E090E0A70196010E94942721506C
:102630003109410951099DC09C0181E0FD89F111D9
:10264000AFC095B5987F892B85BD27BD8092AE011F
:102650009092AF01A092B001B092B10180916E0052
:10266000826080936E00ACC082E0E8CFF12CE12C58
:1026700060E072E18AE790E0A70196010E9494274A
:10268000215031094109510991E02115310581E0BD
:10269000480751055CF0C301B201A70196010E94F1
:1026A0009427215031094109510993E0ED89E13026
:1026B00009F07CC080918100887F892B8093810004
:1026C00030938900209388008092AA019092AB01F8
:1026D000A092AC01B092AD0180916F0082608093B6
:1026E0006F006EC02093B30080922202909223026A
:1026F000A0922402B09225028091700082608093A3
:1027000070005EC06D817E818F8198850E94AD03CF
:1027100057C084E02F3F31054105510509F008F409
:1027200090CF29813A814B815C818AE0559547950C
:10273000379527958A95D1F72150310941095109DB
:1027400085E07FCF83E02F3F31054105510509F03A
:102750000CF477CF62E17AE780E090E0A701960180
:102760000E9494272150310941095109ED89EE2336
:1027700081F286E02F3F31054105510589F080F057
:1027800029813A814B815C819AE05595479537952F
:1027900027959A95D1F7215031094109510987E0D0
:1027A0009091B100987F892B8093B100FD89F13021
:1027B00009F486CFF23009F495CFFF2309F445CF11
:1027C0006D817E818F8198850E94AD0385E00E9496
:1027D000190369897A898B899C890E94AD031F5FDF
:1027E0002E892113E0CD66960FB6F894DEBF0FBE9A
:1027F000CDBFDF91CF911F910F91FF90EF90DF90B0
:10280000CF90BF90AF909F908F907F906F905F9090
:102810004F903F902F9008954F925F926F927F92CA
:102820008F929F92AF92BF92CF92DF92EF920F93CF
:102830001F93CF93DF93D82E192F0E94170A8695E6
:10284000CD2DD12FB12CA12CC82ED12C88EE882EC5
:1028500083E0982E2197AC14BD044CF5CE018C1961
:102860009D090E94170A782ECE010E94170A182F80
:10287000672D70E0C4010E942D2B072E000C880BE1
:10288000990B0E9461262B013C01612F70E090E0C2
:1028900080E00E945F26EE24E39410E000E0A301B4
:1028A00092010E9496118FEFA81AB80AD3CFDF9138
:1028B000CF911F910F91EF90DF90CF90BF90AF908D
:1028C0009F908F907F906F905F904F9008951F9290
:1028D0000F920FB60F9211242F933F934F935F9354
:1028E0006F937F938F939F93AF93BF93EF93FF93D8
:1028F0008091220290912302A0912402B09125029E
:10290000892B8A2B8B2BD1F190912102E0911F0210
:10291000F09120028081892780838091220290910A
:102920002302A0912402B0912502181619061A0656
:102930001B069CF48091220290912302A091240214
:10294000B09125020197A109B109809322029093C9
:102950002302A0932402B0932502FF91EF91BF912F
:10296000AF919F918F917F916F915F914F913F9127
:102970002F910F900FBE0F901F901895809100011E
:102980000E941903EACF1F920F920FB60F921124E3
:102990002F933F934F935F936F937F938F939F9367
:1029A000AF93BF93EF93FF9386EC92E00E941802DF
:1029B000FF91EF91BF91AF919F918F917F916F9117
:1029C0005F914F913F912F910F900FBE0F901F90ED
:1029D00018951F920F920FB60F9211242F938F9379
:1029E0009F93EF93FF93E091D602F091D7028081FD
:1029F000E091DC02F091DD0282FD1BC090818091AC
:102A0000DF028F5F8F732091E002821741F0E09127
:102A1000DF02F0E0EA53FD4F958F8093DF02FF91D4
:102A2000EF919F918F912F910F900FBE0F901F905C
:102A300018958081F4CF1F920F920FB60F92112438
:102A40002F933F938F939F93AF93BF9380911702E0
:102A500090911802A0911902B0911A0230911602B9
:102A600023E0230F2D3758F50196A11DB11D2093AA
:102A700016028093170290931802A0931902B09344
:102A80001A0280911B0290911C02A0911D02B0912C
:102A90001E020196A11DB11D80931B0290931C0282
:102AA000A0931D02B0931E02BF91AF919F918F9191
:102AB0003F912F910F900FBE0F901F90189526E811
:102AC000230F0296A11DB11DD2CF1F920F920FB6F8
:102AD0000F9211242F933F934F935F936F937F93A4
:102AE0008F939F93AF93BF93EF93FF938091B90020
:102AF000887F803609F44AC0F0F5883209F4A7C00F
:102B000018F5803109F49BC0B8F4882309F4F9C0A2
:102B1000883009F494C0FF91EF91BF91AF919F91DC
:102B20008F917F916F915F914F913F912F910F9076
:102B30000FBE0F901F901895883109F488C080321D
:102B400051F780939E0214C0803409F49DC040F474
:102B50008033B9F38833F9F680939E0285ECB0C0D8
:102B6000803509F485C0883509F496C0883499F613
:102B70000E945E11D0CF883909F48CC038F58837AF
:102B800029F050F4883611F0803729F683E08093DD
:102B9000C0021092150257C0883809F47BC08039F2
:102BA00019F0803809F0B7CF80911502803208F013
:102BB00071C0E091150281E08E0F80931502809123
:102BC000BB00F0E0EB50FE4F80833DC0803B39F00E
:102BD000E0F4803A09F479C0883A09F09CCF84E0A7
:102BE0008093C0021092F4011092F301E09126024A
:102BF000F091270209958091F30181110FC081E0C6
:102C00008093F3011092D30109C0803C09F4A6CF50
:102C1000883C09F4A3CF883B09F07DCFE091F40113
:102C200081E08E0F8093F401F0E0ED52FE4F808141
:102C30008093BB009091F4018091F30129C08091B1
:102C40009B028093BB0085EC8093BC0064CF909185
:102C50009D0280919C02981758F5E0919D0281E0B9
:102C60008E0F80939D02F0E0E658FD4F8081E9CF02
:102C7000E0919D0281E08E0F80939D028091BB00C8
:102C8000F0E0E658FD4F808390919D0280919C0278
:102C90009817C8F285E8D8CFE0919D0281E08E0FA9
:102CA00080939D028091BB00F0E0E658FD4F808349
:102CB00080919F0281115CCF81E080939A0284EA27
:102CC0008093BC001092C00226CF85EC8093BC009C
:102CD0001092C00280911502803230F4E09115020A
:102CE000F0E0EB50FE4F10826091150270E0E09131
:102CF0002802F091290285EF91E0099510921502C2
:102D00000ACF10929E0234CF1F920F920FB60F92ED
:102D100011242F933F934F935F936F937F938F93E0
:102D20009F93AF93BF93CF93DF93EF93FF93209144
:102D3000700330E0F901EC58FE4F8491F901E05A3C
:102D4000FE4FD491F901E45BFE4FC491CC2379F09E
:102D500081110E94C202EC2FF0E0EE0FFF1FE25D36
:102D6000FE4FA591B491EC91ED2381E009F480E050
:102D700020917503309176032F5F3F4F3093760398
:102D80002093750320917303309174032536310528
:102D900018F094E090936F0390916F03911130C0FD
:102DA000811169C020917503309176032436310575
:102DB00028F410927603109275035DC010924104BE
:102DC0001092740310927303209173033091740373
:102DD000A9014F5F5F4F5093740340937303409179
:102DE000750350917603220F331FF901E958FC4F08
:102DF00051834083109276031092750391E021C0B5
:102E000090916F03913001F58130A9F52091730302
:102E100030917403A9014F5F5F4F50937403409347
:102E200073034091750350917603220F331FF9010C
:102E3000E958FC4F5183408310927603109275033A
:102E400092E090936F0317C090916F03923061F4FA
:102E5000882309F4B9CF2091750330917603253684
:102E6000310548F093E0EDCF90916F03933099F4E2
:102E7000882309F49ECF909172039923A9F08111C0
:102E800026C080917103882371F08091710361E005
:102E90000E94EB0209C090916F03943061F791E0BA
:102EA00090934104DFCF2D9AFF91EF91DF91CF9165
:102EB000BF91AF919F918F917F916F915F914F9152
:102EC0003F912F910F900FBE0F901F9018958091FA
:102ED0007103882321F08091710360E0D9CF2D9890
:102EE000E3CFCF93DF93E6ECF2E01382128288EE19
:102EF00093E0A0E0B0E084839583A683B78326E4C3
:102F000031E03183208325EC30E03587248724ECC1
:102F100030E03787268720EC30E0318B208B21ECA6
:102F200030E0338B228B22EC30E0358B248B26EC87
:102F300030E0378B268B118E128E138E148EC3E6E3
:102F4000D3E01B821A828C839D83AE83BF8388E586
:102F500091E0998388838AE090E00E94FA2390931D
:102F600064048093630482E090E00E94FA239093CB
:102F700062048093610482EC91E00E94FA239093B2
:102F8000600480935F04EFE6F3E084E081831382C2
:102F900069E771E089E594E00E94EF10E8E4F4E06D
:102FA00081E1DF011D928A95E9F7E2E4F4E080E433
:102FB0008083D283C183DF91CF910895CF93DF9334
:102FC000CDB7DEB7ED970FB6F894DEBF0FBECDBF1D
:102FD000789484B5826084BD84B5816084BD85B5F4
:102FE000826085BD85B5816085BD80916E00816000
:102FF00080936E00109281008091810082608093A6
:1030000081008091810081608093810080918000A7
:103010008160809380008091B10084608093B100D2
:103020008091B00081608093B00080917A008460CC
:1030300080937A0080917A00826080937A008091F8
:103040007A00816080937A0080917A008068809312
:103050007A001092C100E091D602F091D70212E0FE
:103060001083E091D202F091D3021082E091D40259
:10307000F091D50280E180831092DE02E091DA02C5
:10308000F091DB0286E08083E091D802F091D902D2
:10309000808180618083E091D802F091D9028081A3
:1030A00088608083E091D802F091D90280818068A5
:1030B0008083E091D802F091D90280818F7D808356
:1030C00085E090E0A0E0B0E08093CA029093CB024C
:1030D000A093CC02B093CD0280EB91E00E940F0947
:1030E00010925E0210925D021092770210927602A8
:1030F0000E94450487E991E090932702809326027D
:1031000088E991E0909329028093280288E18093D6
:10311000B800F8941092800089E08093810080E2EA
:1031200093E090938900809388001092850010921C
:10313000840010936F00789410926F0310927403C0
:10314000109273038091700360E00E94450364E075
:1031500070E089E594E00E94281061E08AE00E9416
:1031600045038CE791E00E94A30925E4E22E22E0CA
:10317000F22E00E110E0C8010E94170AD7018D93DA
:103180007D010F5F1F4F00321105A9F710925E02FB
:1031900010925D0210927702109276020E9445040E
:1031A00087E991E0909327028093260288E991E0D5
:1031B000909329028093280240E860E082E494E042
:1031C0000E94BC066AE070E080E090E00E94AD03DF
:1031D00040E050E06AE774E482E494E00E945B0817
:1031E00090E4C92E98E7D92E9DE7E92EFF24F394A9
:1031F000C0924504D0924604E0924704F0924804FD
:1032000040E050E060E773E482E494E00E945B08F1
:10321000C0924B04D0924C04E0924D04F0924E04C4
:10322000C0924504D0924604E0924704F0924804CC
:103230000E94490780E10E947603BC01990F880B28
:10324000990B611571058105910511F00E94BA2550
:1032500089E891E00E940F0990E080E08C010F5F07
:103260001F4F805C9E4F0E94170A080F111DC80156
:10327000805C9E4F0E94170A8E3419F0C801049694
:10328000EDCF68E071E0C8018E5B9E4F0E94061092
:103290008FEF93E00E940C1460ED77E080E090E007
:1032A0000E94AD0385EA91E00E940F098EE991E04A
:1032B0000E940F098CE991E00E940F0985E991E0D5
:1032C0000E940F090E94E00320E137E240E050E055
:1032D0000E94FD278091010190910201092E000CAE
:1032E000AA0BBB0B82179307A407B5070CF047C0C6
:1032F0007901309302012093010185E10E94760358
:103300008C018A389240BCF580912A0290912B0260
:103310000817190721F0E2E0EE16F10464F582EBDC
:1033200091E00E948702C80163E670E00E942D2BA5
:103330006B01072E000CEE08FF0877FF1CC16DE241
:1033400086EC92E00E943A0266277727CB016C193F
:103350007D098E099F094AE00E943D0986E50E9489
:103360001B0981ED93E00E940C1460ED77E080E092
:1033700090E00E94AD0310932B0200932A028091EB
:103380000501882309F436C10E946B256B017C017D
:103390000E94E00300912C0210912D0220912E0238
:1033A00030912F02601B710B820B930B693E7340AF
:1033B0008105910508F41EC1C701B6012CE030E07B
:1033C00040E050E00E9494276B018B010E94E003D3
:1033D00060932C0270932D0280932E0290932F0203
:1033E000063011050CF006C1033011050CF079C14F
:1033F00089E48AA78DE48BA789E0E0E3F1E0DE01B0
:10340000919601900D928A95E1F74AE069E070E0AB
:1034100080E090E00E943D090E940B0989E0E9E309
:10342000F1E0DE01119601900D928A95E1F70E947C
:103430006B2522E030E040E050E00E9494276C0FC2
:103440007D1FDB019A968C91809358020E946B2518
:1034500024E030E040E050E00E9494276C5F7F4F12
:103460007093440260934302312C80914302909107
:103470004402E32CF12CE816F9060CF0AAC00E94D5
:103480006B2529E030E040E050E00E949427062FB1
:1034900010E0F701EE0FFF1FFBABEAABE1E2F0E05B
:1034A000EC0FFD1FE00FF11FA080E0915F04F09191
:1034B00060048AA99BA9E80FF91FA082AA2DAA0F70
:1034C000BB0BB9ABA8ABAA5FBE4FBDABACAB8D908D
:1034D0009C90092C000CAA08BB080E946B25E1E017
:1034E000F0E0EC0FFD1FE00FF11F1081C12ED12C79
:1034F000F12CE12C1695412E512C712C612CA70139
:1035000096010E949427680D791D8A1D9B1D6419E0
:1035100075098609970961387F4F8F4F9F4F7CF55A
:10352000E8A9F9A9EA5FFE4FF9ABE8AB808091808A
:10353000092C000CAA08BB080E946B25A701960164
:103540000E949427680D791D8A1D9B1D64197509B9
:103550008609970961387F4F8F4F9F4F74F560E858
:10356000E0915F04F09160048AA99BA9E80FF91F1C
:10357000618333947ACF4AE0C701B601EDCEACA99E
:10358000BDA98D909C90092C000CAA08BB080E9434
:103590006B25A70196010E949427680D791D8A1D4D
:1035A0009B1D64197509860997096F377105810597
:1035B00091050CF4B5CF6FE7D3CFE8A9F9A9008145
:1035C0000E946B25A70196010E949427011B600FA2
:1035D000C7CF880F991F9093440280934302209194
:1035E0005F0430916004820F931FDC011C9285E020
:1035F0008093570287E793E090933E0280933D02C9
:1036000080917303909174039093400280933F02E2
:103610008091410490E09093420280934102809116
:103620006F03833009F0B4C08091790390917A03DD
:10363000875891098E35910508F0A4C080917303D5
:1036400090917403049709F06CC080917B03909172
:103650007C038097479708F064C080917D03909128
:103660007E030997099708F05CC010923C02109203
:103670003B028FEF9FEFDC0180933502909336027F
:10368000A0933702B093380283E090E09093320227
:10369000809331028091350290913602A0913702D9
:1036A000B0913802892F9A2FAB2FBB27823609F4AD
:1036B000EEC108F0C2C1803309F4F8C108F0A7C117
:1036C000803109F4FCC108F050C167EF71E082302D
:1036D00009F453C16FE971E0CE0181960E94EF10A9
:1036E00050C1F601EE0FFF1FE354FE4F6591749138
:1036F00080915F04909160040E94E12580915F04B5
:1037000090916004BC01FB012191BF0120935802FC
:103710002B3621F480916304909164040E94322C32
:1037200066CF80917303909174038434910550F1B6
:1037300080917B0390917C03815491098F9710F5C0
:1037400090E080E040E050E0BA01FC01E358FC4F1B
:1037500020813181295031092930310598F4FC014B
:10376000E158FC4F20813181275131092231310547
:1037700008F4DDC020813181265031092730310520
:1037800008F4EEC010926F0310927403109273034A
:1037900086EC92E00E94F801181619068CF582E07A
:1037A0008093570286EC92E00E94D601182F8093F6
:1037B000580261E070E080E090E00E94AD031B34AD
:1037C00009F016C2E0905F04F090600410E000E0A1
:1037D00086EC92E00E94F801892B51F086EC92E091
:1037E0000E94D601F701E00FF11F80830F5F1F4F8A
:1037F000F8013197EE0DFF1D80818E3749F7108259
:1038000060915702662309F4ABC2F090580265300C
:1038100010F5B2E6FB16F9F0ECE4FE16E1F0F9E47F
:10382000FF16C9F08CE88F0D8230A8F070E06B5F56
:103830007F4F660F771F072E000C880B990B0E9495
:103840006126EE24E39410E000E020E030E048E45C
:1038500052E40E949611809156028356823050F4B1
:1038600023E6F21639F088EB9BE00E944B0887E4D0
:103870000E941B0980915802803751F080915502B7
:10388000811106C081E08093550280E70E941B09E8
:1038900010915802E6ECE10FE13408F007C20E2E59
:1038A000000CFF0BEA5AF34E0C94412BDF22DA2274
:1038B000561E561E561E561E561E561EE121561EDA
:1038C000561E561E561E561E561E9421561E302239
:1038D000D4219421561E561E561E561E561EE41FF7
:1038E0002022561E561E561E561E561E561E561E6A
:1038F000561E561E561E561E561ECE1FE41FE41F91
:10390000E222561E561E561E561EE41F3D1FC4229E
:10391000561EE41F561E701F2C1F561E491E751F73
:10392000E41FE41F561E561E561E561E491E440F07
:10393000551F661F771F416004968038910509F076
:1039400004CF80E290E090933C0280933B0240934E
:10395000350250933602609337027093380294CE4A
:10396000440F551F661F771FE7CF883109F4A1C0A8
:103970006FEF71E0823209F0ADCECE0181960E94E8
:10398000301168E871E0CE0181960E94AF0988236A
:1039900009F4A1C06AE871E089E594E00E94B910D9
:1039A00069E574E0CE018A960E949D10CE01819651
:1039B0000E94D6096FE971E0CE018A960E94AF0994
:1039C00081111AC000916304109164046AA57BA55B
:1039D000C8010E94322CD8010D900020E9F7CD01DA
:1039E00002978017910709F001C1F8018081809347
:1039F000580281E08093570210926F031092740373
:103A000010927303CE018A960E94D609C1CE8A34E1
:103A100009F45BC048F4883309F454C06EEC71E0DB
:103A2000823409F4AACF56CE823509F451C061ED33
:103A300071E08A3509F4A1CF4DCE823A29F188F49C
:103A40008A37D1F130F46CEE71E0883609F495CF05
:103A500041CE803941F169EE71E0883909F48DCFAA
:103A600039CE823CB9F040F4883AD1F066EE71E08C
:103A7000803B09F482CF2ECE803E79F061E072E087
:103A8000823E09F47ACF26CE65E072E076CF63E01D
:103A900072E073CF65EF71E070CF63EF71E06DCFCF
:103AA00061EF71E06ACF6FEE71E067CF63EE71E0B6
:103AB00064CF6FED71E061CF6BED71E05ECF68EDCB
:103AC00071E05BCF65ED71E058CF6BEC71E055CFE5
:103AD00069EC71E052CF6DE871E0CE0181960E94F1
:103AE000AF09811110C06FE871E0CE0181960E948C
:103AF000AF09811108C061E971E0CE0181960E9491
:103B0000AF098823D1F18DA19EA1892B21F0E9A1D4
:103B1000FAA1309721F410923002E0E3F2E0108134
:103B200010930301163431F469E771E089E594E0FC
:103B30000E94B91069E574E0CE0101960E949D10C3
:103B40001AA71BA641E050E0BE01665D7F4FCE0183
:103B500001960E945010811104C0CE0101960E946E
:103B6000C409BE016F5F7F4FCE018A960E949D10EF
:103B7000CE0101960E94D60919CF63E971E0CE010A
:103B800081960E94AF0981111EC066E971E0CE01E5
:103B900081960E94AF09811116C069E771E0CE01DC
:103BA00081960E94AF0981110EC01BA61AA61DA600
:103BB0001CA61FA61EA6BE016F5D7F4FCE018A9672
:103BC0000E94DE09F3CE69A17AA16115710549F061
:103BD0004DA15EA189E594E00E947C101091030143
:103BE000A9CF89E594E00E94C409F8CF8BE6FFCE07
:103BF00086EC92E00E94F8016091570218161906AF
:103C00000CF003CE6FE971E0CE0181960E94EF10B7
:103C1000193439F084EB810F823018F06AE01234E5
:103C200009F46EE7CE0101960E940011BE016F5F9C
:103C30007F4FCE0181960E94DE09CE0101960E943F
:103C4000D6092DA13EA130934402209343021B3696
:103C500031F080915F0490916004143721F48091D9
:103C600063049091640449A15AA1DC01FA01BF01E7
:103C7000641B750B621773071CF461916D93F7CF8A
:103C8000820F931FDC011C92CE0181960E94D609FF
:103C9000B7CD1A3709F0D3C08091050191E089278B
:103CA0008093050181111AE5109358028091580202
:103CB0008B3621F4909165021916D4F40E941B09E9
:103CC00010915802812F012E000C990B0E94182C84
:103CD000873621F0823611F01A3621F4809156028F
:103CE0008B3619F01B7F103719F48BE6809358023E
:103CF000009163041091640465EA71E0C8010E94B8
:103D0000292CF0905802892B09F1E9E4FE16F1F014
:103D100085EB8F0D8330D0F0809161049091620427
:103D2000009711F00E94962481E090E00E94FA230F
:103D3000F80101900020E9F7E01BDC01EC9390937F
:103D4000620480936104B8010E94322C10925702E1
:103D5000F09256028F2D877F833611F01092580211
:103D6000809158028B3609F0C2C41091650217FF8A
:103D700040C480917202DD24DA94D80E823008F4B7
:103D8000D12C10E08EECC82E92E3B92E212F30E01A
:103D900080916502082E000C990B97FF03C0919546
:103DA00081959109281739070CF0A1C4E09074029D
:103DB000F090750280916A02189FE00CF11C1124AA
:103DC000F7016089062E000C770B880B990B0E9477
:103DD000612620E030E040E85EE30E94C0269B01BF
:103DE000AC0100E060916F02C7010E94220D80913A
:103DF0006A02E0917402F0917502189FE00DF11DC6
:103E00001124618916160CF0EFC3FB2D6F02B0016F
:103E10001124072E000C880B990B0E94AD03DD20A6
:103E200061F0112351F080917102181306C01091B6
:103E3000700211501D140CF4DA941F5FA7CF1237D3
:103E400009F034CF80910401819580930401181604
:103E50000CF02ACF12E528CF8091550291E0811114
:103E600090E090935502811110E510935802882339
:103E700009F41CCF0E94490719CF0E9481096FE9FC
:103E800071E0CE0181960E94EF1006E011E0D801AA
:103E90006D917D918D01CE0101960E94C3104D81DF
:103EA0005E8169817A81CE0181960E945010CE0197
:103EB00001960E94D60942E050E06DE971E0CE0122
:103EC00081960E945010B1E006321B0701F7CE0127
:103ED00081960E942A09CE0181960E94D609E6CEDB
:103EE00086EC93E00E940C14E1CE89E392E00E94FC
:103EF0000F0905E4802E02E0902E80E4E82EF12CDC
:103F000000E110E0F401D1904F01C8010E947E272A
:103F1000D81621F06D2DC8010E948627C7010E9486
:103F2000AA0A6C01C80180960E94170AB82EF401F3
:103F300031976081062E000C770B880B990B0E943D
:103F400061262B013C016B2DBB0C770B880B990B69
:103F50000E9461269B01AC01C301B2010E94C026F0
:103F60002B013C01B601DD0C880B990B0E946126E8
:103F70009B01AC01C301B2010E942F280E941229AB
:103F8000C70180960E9406100F5F1F4FF2E0EF0EF0
:103F9000F11C0032110509F0B5CF88CE81E392E023
:103FA0000E940F0915E4E12E12E0F12E00E110E06D
:103FB000C8010E94170AD7018D937D010F5F1F4F23
:103FC00000321105A9F772CEE6E0F1E0DE011196AC
:103FD00086E291E01D01219131912D933D938E1741
:103FE0009F07C9F78091630490916404143721F00E
:103FF00080915F049091600469E971E00E94F1256D
:104000003C016114710409F4CEC0C3010E94C325B0
:104010008C016CE971E090E080E00E94F1253C01A8
:10402000F12CE12CBB24B394009761F00E94C325CE
:104030007C016CE971E090E080E00E94F1253C0198
:10404000B2E0BB2EF801EE0FFF1FE20DF31DF1826F
:10405000E08280915802833609F0ABC088EB9CE087
:104060000E944B081092050180915602833661F040
:10407000C0906304D090640463E771E0C6010E94BD
:10408000322CC6010E94A80EF801EB5BFD4F6F01B8
:10409000F2E0BF1202C0D601EC92C8018096880FF0
:1040A000991F0E94AA0A7C01C8019927C0960E9404
:1040B000170A182FF6016081062E000C770B880B6B
:1040C000990B0E9461264B015C01612F110F770B48
:1040D000880B990B0E9461269B01AC01C501B401BC
:1040E0000E94C0264B015C01B701FF0C880B990BA5
:1040F0000E9461269B01AC01C501B4010E942F28DA
:104100000E941229072E000C880B990B0E94612631
:10411000AB01BC01802F0E94BE0A0E9481096FE999
:1041200071E0CE018A960E94EF1005E412E0D801FA
:104130006D918D01062E000C770BCE0181960E94A9
:10414000C3104DA15EA169A17AA1CE018A960E94F9
:104150005010CE0181960E94D60942E050E06DE9F0
:1041600071E0CE018A960E945010E5E5F2E0E0177A
:10417000F107E9F6CE018A960E942A09CE018A96B5
:104180000E94D6096114710409F03BCF8091580256
:10419000893609F08BCD40E050E060E070E4C10169
:1041A0000E94D30B83CDF12CE12C10E000E0B12C68
:1041B00049CF8D3641F440E050E060E070E4C10149
:1041C0000E94D30BDFCF833541F4C80199270E94A9
:1041D000170AB7010E94FF07D5CF843799F28537B8
:1041E00009F088C00E946B252AE030E040E050E0F2
:1041F0000E94942764526AAB0E946B252AE030E04B
:1042000040E050E00E9494276E5268AB0E946B25FC
:104210006B017C010E946B2522E030E040E050E021
:104220000E9494276F5F6CABC701B60124E030E0B9
:1042300040E050E00E9494276E5F7F4F8F4F9F4F6A
:10424000262F220F220F620F262F30E0A8EEB3E0B8
:104250000E941F286EAB7FAB88AF99AFB12CF8A935
:104260004F2E512C2CA9B21608F08CCFA8A8912C57
:10427000812C8AA9A81608F03BC06201C80CD91C81
:104280008601000F111F000F111F05501109CC0CE2
:10429000DD1CC601B0E0A0E08AAF9BAFACAFBDAF04
:1042A000C12CD12C76018EA99FA9A8ADB9ADC81695
:1042B000D906EA06FB06BCF461E085E00E94EB0249
:1042C000C8010197F1F760E085E00E94EB02C801A8
:1042D0000197F1F78AAD9BADACADBDADC80ED91E4F
:1042E000EA1EFB1EE0CFA3949FEF891A990AC1CF63
:1042F000B394B8CF823609F045CFB701FF0C880BD5
:10430000990B0E9461264B015C01B801110F880BCB
:10431000990B0E946126EE24E39402E310E0A501CC
:1043200094010E9496112ECFE6E0F1E0DE01119695
:1043300086E291E07D01219131912D933D938E177D
:104340009F07C9F710E000E02091580280914302D6
:104350009091440208171907F4F4A0915F04B091FA
:104360006004A00FB11FEC91EE0FFF0BEE0DFF1DCF
:1043700011968C91082E000C990B918380832D341B
:1043800039F440E050E060E070E4C7010E94D30BD4
:104390000E5F1F4FD9CF293409F088CC40E050E0A0
:1043A00060E070E4C701FCCE00E020E030E040E0D7
:1043B00050E461E080915F04909160040E94220DBE
:1043C00075CCF12C68EEC62E63E0D62E2F2D30E092
:1043D000809143029091440297FD019695958795AF
:1043E000281739070CF0FFC100915F041091600499
:1043F000220F331F020F131FD80111966C91062E46
:10440000000C770BC6010E942D2B072E000C880B89
:10441000990B0E9461264B015C01F8016081062E18
:10442000000C770B880B990B0E946126EE24E39415
:1044300010E000E0A50194010E949611F394C6CF0C
:1044400086E191E00E94AA0A0E9457070E94930EFB
:10445000809158020E941B098BE68093580226CC5B
:1044600084E191E00E94AA0A8C010E946B256B01F5
:104470007C0184E191E00E94AA0A092E000CAA0B9B
:10448000BB0B2CE03EE140E050E0281B390B4A0B0F
:104490005B0BC701B6010E949427060F171FB801D6
:1044A00086E191E00E94061060905F0470906004C5
:1044B000D3016C91609365028AE692E00E94EC065B
:1044C00001967C01D12CC12C5524539434E5432E04
:1044D0001E141F049CF550927902409278021092AB
:1044E000770210927602612F70E083E693E00E94DB
:1044F0000907B801772783E693E00E940907530173
:10450000AC0CBD1C4801B0E18B0E911C0115E0E222
:104510001E07B9F40E940B0987E092E00E940F0980
:1045200022E0E22E02E310E020E030E048EC52E42A
:1045300060E070E080E291E40E9496110E94930E88
:104540008BCFFFEFCF1ADF0AD5016D915D0183E6B6
:1045500093E00E94A3050F5F1F4FB1E0EB1AF10833
:1045600041F0C8018F719927892B19F080169106A7
:1045700069F683E693E00E94D20566E070E080E091
:1045800090E00E94AD03A4CFE0906304F090640437
:10459000B70180916104909162040E94292C892BBB
:1045A00029F48091650282300CF01BC1C7010E9482
:1045B000A80E7CCB88EB9BE00E944B0877CB88EB66
:1045C0009CE0FACF009163041091640460EA71E00A
:1045D000C8010E94322CC8010E94A80E0E944907FF
:1045E00087E60E941B0962CB2C2D6202B0011124C8
:1045F00010CC80916102803108F4CBC020915F0221
:10460000309160021092610280915502820F932FC7
:10461000911D212F012E000C330B821793070CF0F4
:10462000B4C09093600280935F02809161028430F5
:1046300019F488E080936102009161022091730275
:10464000C0905F02D0906002E02EF12C021708F0BB
:10465000A9C012300CF4A6C0812C912C5401013059
:1046600059F060916402062E000C770B880B990BB1
:104670000E9461264B015C0182E0E80EF11CEC9C7B
:10468000B001ED9C700DFC9C700D1124072E000CE8
:10469000880B990B0E9461262BED3FE049E450E422
:1046A0000E94C0266B017C01612F110F770B880BD4
:1046B000990B0E9461269B01AC01C701B6010E94C3
:1046C000A0280E94DC2920E030E040E251E40E9472
:1046D000C026A50194010E942F28AB01BC01802FA8
:1046E0000E942D0B809161028F5F80936102809107
:1046F000650287FF3AC000916304109164046FE97A
:1047000071E0C8010E94322CE0917402F0917502B0
:1047100080916502082E000C990B97FF03C09195BC
:1047200081959109019720916A02289FD001299FC4
:10473000B00D1124AE0FBF1FCF0140962D912193D4
:104740008E179F07D9F781E080936502109260026F
:1047500010925F02F8018081882319F0C8010E943D
:10476000A80E809158020E941B0980E090E0892BDE
:1047700011F40C9462190E940402882311F40C9421
:1047800062190E9400000C9462191092600210924B
:104790005F0280916102823009F047CF88E0809308
:1047A000610243CF30916A023C9DC0013D9D900D56
:1047B0001124E80EF91EE21AF1088091740290911A
:1047C0007502E80EF91E60916F02D7012C91260345
:1047D000B0011124072E000C880B990B0E94612652
:1047E0007CCF812F67CA8091580268CA89E594E01E
:1047F0000C94D6090F931F93CF93DF9382309105CA
:1048000010F482E090E0E0916904F0916A0430E0F5
:1048100020E0B0E0A0E0309799F42115310509F4CB
:104820004AC0281B390B24303105D8F58A819B8179
:104830006115710589F1FB0193838283FE0111C02B
:10484000408151810281138148175907E0F04817D0
:10485000590799F4109761F012960C9312971396DA
:104860001C933296CF01DF91CF911F910F91089544
:104870000093690410936A04F4CF2115310551F0B7
:104880004217530738F0A901DB019A01BD01DF018E
:10489000F801C1CFEF01F9CF90936A0480936904C6
:1048A000CDCFFE01E20FF31F819391932250310986
:1048B00039832883D7CF2091670430916804232B54
:1048C00041F420912801309129013093680420930C
:1048D000670420912601309127012115310541F40B
:1048E0002DB73EB740912A0150912B01241B350B67
:1048F000E0916704F0916804E217F307A0F42E1B1F
:104900003F0B2817390778F0AC014E5F5F4F241733
:10491000350748F04E0F5F1F5093680440936704BB
:10492000819391939FCFF0E0E0E09CCFCF93DF9312
:104930000097E9F0FC01329713821282A09169047A
:10494000B0916A04ED0130E020E01097A1F42081DD
:104950003181820F931F20916704309168042817DA
:10496000390709F061C0F0936804E0936704DF91B0
:10497000CF910895EA01CE17DF07E8F54A815B8100
:104980009E0141155105B1F7E901FB83EA83499185
:104990005991C40FD51FEC17FD0761F480819181F7
:1049A0000296840F951FE901998388838281938100
:1049B0009B838A83F0E0E0E012968D919C9113979F
:1049C0000097B9F52D913C911197CD010296820F78
:1049D000931F20916704309168042817390739F62E
:1049E000309751F510926A0410926904B0936804EC
:1049F000A0936704BCCFD383C28340815181840FCD
:104A0000951FC817D90761F44E5F5F4F8881998160
:104A1000480F591F518340838A819B8193838283EE
:104A20002115310509F0B0CFF0936A04E0936904D1
:104A30009ECFFD01DC01C0CF13821282D7CF8F92AF
:104A40009F92AF92BF92CF92DF92EF92FF92CF935D
:104A5000DF93EC01688179818A819B816115710501
:104A60008105910521F464E279ED8BE597E02DE174
:104A700033EF41E050E00E94942749015A019B0125
:104A8000AC01A7EAB1E40E94B3276B017C01ACEE54
:104A9000B4EFA50194010E94C127C60ED71EE81EDF
:104AA000F91EF7FE06C081E0C81AD108E10880E8C7
:104AB000F80AC882D982EA82FB82C701B6019F77D1
:104AC000DF91CF91FF90EF90DF90CF90BF90AF90AC
:104AD0009F908F9008958F929F92AF92BF92CF92A6
:104AE000DF92EF92FF9260912C0170912D018091E5
:104AF0002E0190912F01611571058105910521F419
:104B000064E279ED8BE597E02DE133EF41E050E091
:104B10000E94942749015A019B01AC01A7EAB1E424
:104B20000E94B3276B017C01ACEEB4EFA5019401A8
:104B30000E94C127C60ED71EE81EF91EF7FE06C04A
:104B400081E0C81AD108E10880E8F80AC0922C0177
:104B5000D0922D01E0922E01F0922F01C701B601F3
:104B60009F77FF90EF90DF90CF90BF90AF909F9096
:104B70008F90089560932C0170932D0180932E01E6
:104B800090932F010895FC0188279927E89421919B
:104B90002032E9F3293010F02E30C8F32B3241F0E7
:104BA0002D3239F4689404C00E942826820F911D8A
:104BB000219120532A30C0F31EF4909581959F4F88
:104BC0000895FB01DC0105900D920020E1F70895A6
:104BD000FC0105900020E9F7809590958E0F9F1FAE
:104BE000089545E654E00E94F6250895FA01A19142
:104BF000B081009719F41097E1F0CD01DC01CD01EF
:104C00000D90002011F4C00113C0FB01219122235B
:104C100019F02015D9F7F3CFFB012191201519F4D4
:104C20001E92119606C02223C1F70D900020A1F715
:104C3000D001FA01A193B0830895BB274A3031F423
:104C4000992322F4BDE2909581959F4F0C943126D3
:104C50007AE0979F902D879F802D910D11240895C4
:104C6000BB27FB015527AA27880F991FAA1FA41746
:104C700010F0A41B83955051B9F7A05DAA3308F03A
:104C8000A95DA193009779F7B111B1931192CB016E
:104C90000C944A26DC01FC01672F71917723E1F720
:104CA000329704C07C916D9370836291AE17BF07F9
:104CB000C8F308950E949C2608F481E00895E894C2
:104CC00009C097FB3EF490958095709561957F4F54
:104CD0008F4F9F4F9923A9F0F92F96E9BB27939502
:104CE000F695879577956795B795F111F8CFFAF412
:104CF000BB0F11F460FF1BC06F5F7F4F8F4F9F4F43
:104D000016C0882311F096E911C0772321F09EE8A0
:104D1000872F762F05C0662371F096E8862F70E006
:104D200060E02AF09A95660F771F881FDAF7880FE0
:104D30009695879597F90895990F0008550FAA0B36
:104D4000E0E8FEEF16161706E807F907C0F012169E
:104D50001306E407F50798F0621B730B840B950BA1
:104D600039F40A2661F0232B242B252B21F40895F6
:104D70000A2609F4A140A6958FEF811D811D089593
:104D80000E94D3260C9444270E94362738F00E94B4
:104D90003D2720F0952311F00C942D270C943327F8
:104DA00011240C9478270E94552770F3959FC1F326
:104DB000950F50E0551F629FF001729FBB27F00DC9
:104DC000B11D639FAA27F00DB11DAA1F649F66271E
:104DD000B00DA11D661F829F2227B00DA11D621F6D
:104DE000739FB00DA11D621F839FA00D611D221F27
:104DF000749F3327A00D611D231F849F600D211D0B
:104E0000822F762F6A2F11249F5750409AF0F1F08D
:104E100088234AF0EE0FFF1FBB1F661F771F881FF6
:104E200091505040A9F79E3F510580F00C942D27DA
:104E30000C9478275F3FE4F3983ED4F386957795FA
:104E40006795B795F795E7959F5FC1F7FE2B880F9C
:104E5000911D9695879597F9089597F99F6780E832
:104E600070E060E008959FEF80EC089500240A94BC
:104E70001616170618060906089500240A94121635
:104E80001306140605060895092E0394000C11F468
:104E9000882352F0BB0F40F4BF2B11F460FF04C015
:104EA0006F5F7F4F8F4F9F4F089557FD9058440F6E
:104EB000551F59F05F3F71F04795880F97FB991F79
:104EC00061F09F3F79F08795089512161306140636
:104ED000551FF2CF4695F1DF08C0161617061806C3
:104EE000991FF1CF86957105610508940895E8949E
:104EF000BB2766277727CB0197F90895F999FECF4D
:104F000092BD81BDF89A992780B50895262FF99909
:104F1000FECF1FBA92BD81BD20BD0FB6F894FA9A9C
:104F2000F99A0FBE01960895052E97FB1EF4009482
:104F30000E94AB2757FD07D00E94FD2707FC03D036
:104F40004EF40C94AB2750954095309521953F4FEA
:104F50004F4F5F4F089590958095709561957F4F65
:104F60008F4F9F4F08950E941F28A59F900DB49FBB
:104F7000900DA49F800D911D11240895B7FF0C94EE
:104F8000B3270E94B327821B930B08952F923F9261
:104F90004F925F926F927F928F929F92AF92BF9249
:104FA000CF92DF92EF92FF920F931F93CF93DF93F5
:104FB000CDB7DEB7CA1BDB0B0FB6F894DEBF0FBE52
:104FC000CDBF09942A88398848885F846E847D849F
:104FD0008C849B84AA84B984C884DF80EE80FD80A1
:104FE0000C811B81AA81B981CE0FD11D0FB6F89417
:104FF000DEBF0FBECDBFED010895A1E21A2EAA1BA0
:10500000BB1BFD010DC0AA1FBB1FEE1FFF1FA21778
:10501000B307E407F50720F0A21BB30BE40BF50B75
:10502000661F771F881F991F1A9469F760957095FE
:10503000809590959B01AC01BD01CF010895A29F81
:10504000B001B39FC001A39F700D811D1124911D5C
:10505000B29F700D811D1124911D08955058BB27DA
:10506000AA270E9446280C9444270E94362738F02D
:105070000E943D2720F039F49F3F19F426F40C9448
:1050800033270EF4E095E7FB0C942D27E92F0E94BF
:10509000552758F3BA17620773078407950720F05E
:1050A00079F4A6F50C9477270EF4E0950B2EBA2F21
:1050B000A02D0B01B90190010C01CA01A00111241E
:1050C000FF27591B99F0593F50F4503E68F11A16CA
:1050D000F040A22F232F342F4427585FF3CF46955B
:1050E00037952795A795F0405395C9F77EF41F167D
:1050F000BA0B620B730B840BBAF09150A1F0FF0F47
:10510000BB1F661F771F881FC2F70EC0BA0F621F32
:10511000731F841F48F4879577956795B795F79522
:105120009E3F08F0B0CF9395880F08F09927EE0FB7
:105130009795879508950E944A29E3950C947329C1
:105140000E94B4280C9444270E943D2758F00E94E6
:10515000362740F029F45F3F29F00C942D27511198
:105160000C9478270C9433270E94552768F39923D1
:10517000B1F3552391F3951B550BBB27AA27621753
:105180007307840738F09F5F5F4F220F331F441F60
:10519000AA1FA9F335D00E2E3AF0E0E832D0915094
:1051A0005040E695001CCAF72BD0FE2F29D0660F81
:1051B000771F881FBB1F261737074807AB07B0E8C4
:1051C00009F0BB0B802DBF01FF2793585F4F3AF0CA
:1051D0009E3F510578F00C942D270C9478275F3F63
:1051E000E4F3983ED4F3869577956795B795F79550
:1051F0009F5FC9F7880F911D9695879597F9089538
:10520000E1E0660F771F881FBB1F621773078407D3
:10521000BA0720F0621B730B840BBA0BEE1F88F7E2
:10522000E09508950E9419296894B1110C9478278B
:1052300008950E945D2788F09F5798F0B92F99270D
:10524000B751B0F0E1F0660F771F881F991F1AF071
:10525000BA95C9F714C0B13091F00E947727B1E038
:1052600008950C947727672F782F8827B85F39F037
:10527000B93FCCF3869577956795B395D9F73EF40A
:1052800090958095709561957F4F8F4F9F4F0895B2
:105290000C9433270E945D27D8F3E894E0E0BB2705
:1052A0009F57F0F02AED3FE049EC06C0EE0FBB0F30
:1052B000661F771F881F28F0B23A620773078407BA
:1052C00028F0B25A620B730B840BE3959A9572F730
:1052D000803830F49A95BB0F661F771F881FD2F76E
:1052E00090480C94202AEF93E0FF07C0A2EA2AED31
:1052F0003FE049EC5FEB0E9446280E9444270F9054
:10530000039401FC9058E8E6F0E00C94532A0E94C4
:105310009C2608F48FEF0895FA01EE0FFF1F3096D8
:1053200021053105A1F16115710561F48038BFE3F4
:105330009B0749F168949038810561F08038BFEF90
:105340009B0741F099234AF5FF3FE105310521050F
:1053500019F1E8940894E795D901AA2329F4AB2F11
:10536000BE2FF85FD0F310C0FF5F70F4A695E0F792
:10537000F73950F019F0FF3A38F49F779F930DD02A
:105380000F9007FC9058089546F00C94332760E086
:1053900070E080E89FE308954FE79F775F934F9316
:1053A0003F932F930E94B12A2F913F914F915F918C
:1053B0000E94C0260C94EC299F930E944A290F90CA
:1053C00007FCEE5F0C94732929F416F00C942D273A
:1053D0000C9477270C9433270E945D27A8F3963806
:1053E000A0F707F80F92E8942BE33AEA48EB5FE75F
:1053F0000E94D6260F920F920F924DB75EB70F9272
:105400000E94F92AE6E8F0E00E942C2A4F915F9171
:10541000EF91FF91E595EE1FFF1F49F0FE57E06801
:105420004427EE0F441FFA95E1F74195550B0E9472
:10543000732A0F9007FE0C94672A08959F3F31F05E
:10544000915020F4879577956795B795880F911DB2
:105450009695879597F90895DF93CF931F930F93B0
:10546000FF92EF92DF927B018C01689406C0DA2EE6
:10547000EF010E94D326FE01E894A5912591359174
:1054800045915591A6F3EF010E944628FE01970130
:10549000A801DA9469F7DF90EF90FF900F911F91C8
:1054A000CF91DF9108959F938F937F936F93FF9395
:1054B000EF939B01AC010E94C026EF91FF910E94E7
:1054C0002C2A2F913F914F915F910C94C0269B0104
:1054D000AC0160E070E080E89FE30C94A0280C949D
:1054E0002D270C941E2A0E945D27D8F39923C9F317
:1054F000940F511DA3F39150504094F059F088231C
:1055000032F0660F771F881F91505040C1F79E3FC1
:1055100051052CF7880F911D9695879597F9089559
:105520005F3FACF0983E9CF0BB27869577956795DA
:10553000B79508F4B1609395C1F7BB0F58F711F414
:1055400060FFE8CF6F5F7F4F8F4F9F4FE3CF0C948B
:10555000782716F00C941E2A0C94332768940C9428
:105560002D270E945D27A8F39923C1F3AEF3DF93A3
:10557000CF931F930F93FF92C92FDD2788232AF023
:105580002197660F771F881FDAF720E030E040E8A8
:105590005FEB9FE3883920F0803E38F021968F77CB
:1055A0000E942F28EEEAF0E004C00E942F28EBEDC5
:1055B000F0E00E942C2A8B01BE01EC01FB2E6F57FC
:1055C00071097595771F880B990B0E94612628E158
:1055D00032E741E35FE30E94D326AF2D9801AE018D
:1055E000FF900F911F91CF91DF910E9446280C945C
:1055F0004427FA01DC01AA0FBB1F9B01AC01BF5776
:1056000028F4222733274427507820C0B75190F43C
:10561000AB2F0024469537952795011CA395D2F30F
:10562000002071F0220F331F441FB395DAF30ED020
:105630000C942E2861307105A0E88A07B94630F431
:105640009B01AC016627772788279078309621F058
:105650002083318342835383089597FB072E16F4EA
:10566000009407D077FD09D00E94472B07FC05D096
:105670003EF4909581959F4F0895709561957F4F69
:105680000895EE0FFF1F0590F491E02D0994AA1BD9
:10569000BB1B51E107C0AA1FBB1FA617B70710F01D
:1056A000A61BB70B881F991F5A95A9F7809590954F
:1056B000BC01CD010895B0E0A0E0E1E6FBE20C946E
:1056C000C8278C01009751F4CB010E94FA238C016A
:1056D000C801CDB7DEB7E0E10C94E427FC01E60F8A
:1056E000F71F9C0122503109E217F30708F49DC00F
:1056F000D901CD91DC911197C617D70798F0C53025
:10570000D10530F3CE0104978617970708F3C61B1F
:10571000D70B2297C193D1936D937C93CF010E94B5
:105720009624D6CF5B01AC1ABD0A4C018C0E9D1E8F
:10573000A0916904B0916A04512C412CF12CE12C08
:10574000109731F580916704909168048815990548
:1057500009F05CC04616570608F058C08091260133
:1057600090912701009741F48DB79EB740912A018F
:1057700050912B01841B950BE817F90708F055C0D1
:10578000F0936804E0936704F90171836083A0CF0C
:105790008D919C91119712966C90129713967C9014
:1057A0001397A815B90559F56C0142E0C40ED11C38
:1057B000CA14DB0420F1AC014A195B09DA01129624
:1057C000159780F06282738251834083D9016D9373
:1057D0007C93E114F10471F0D7011396FC93EE93DE
:1057E000129776CF22968C0F9D1FF90191838083AB
:1057F000F301EFCFF0936A04E093690469CF481690
:10580000590608F42C017D01D3019ACFCB010E94E7
:10581000FA237C01009749F0AE01B8010E94202CC8
:10582000C8010E949624870153CF10E000E050CFBA
:105830009111089581548A5108F4805E855A089523
:10584000FB01DC0102C001900D9241505040D8F79D
:105850000895FB01DC018D91019080190110D9F3AD
:10586000990B0895FB01DC0101900D920020E1F7F6
:105870000895FB01DC014150504030F08D910190C2
:10588000801919F40020B9F7881B990B089511E0CD
:10589000C2E2D1E004C0FE010E94412B2196C33236
:0858A000D107C9F7F894FFCF0E
:1058A800FFFFFF460101E2FFB0FFD3FF0000000049
:1058B8000000000000004B004B004B004B00C9FFEC
:1058C800C9FFC9FFC9FF00006B0480000100000088
:1058D80000010208090C0D0E0F5A5AB405050A0AF0
:1058E8000505000000003A029A01C701A202F8016A
:1058F800D601EA0100000000A3057605B9065305A4
:105908009001630554050D0A00736C6F7720626F70
:105918006F740063616C696200747200496E697427
:1059280020736572766F73004200626B0046004C0C
:10593800005200637200776B00202C00202C0900B5
:085948007265737400726300C4
:00000001FF
