:100000000C9415010C943D010C943D010C943D01A0
:100010000C943D010C943D010C943D010C941C1872
:100020000C943D010C943D010C943D010C94391A43
:100030000C943D010C943D010C943D010C943D0148
:100040000C94D0180C943D010C949E180C947818C4
:100050000C943D010C943D010C943D010C943D0128
:100060000C941A190C943D0105A84CCDB2D44EB98C
:100070003836A9020C50B9918688083CA6AAAA2A4B
:10008000BE000000803F07634236B79BD8A71A39ED
:10009000685618AEBAAB558C1D3CB7CC5763BD6DD6
:1000A000EDFD753EF6177231BF000000803F08007D
:1000B0000000BE922449123EABAAAA2ABECDCCCCE7
:1000C0004C3E00000080BEABAAAAAA3E0000000081
:1000D000BF000000803F0000000000084178D3BB53
:1000E0004387D1133D190E3CC3BD4282AD2B3E6800
:1000F000EC8276BED98FE1A93E4C80EFFFBE01C4F1
:10010000FF7F3F0000000000010000010000000030
:1001100000000000000000000000000000000000DF
:1001200023002600290000000000240027002A00E8
:1001300000000000250028002B000404040404042F
:100140000404020202020202030303030303010286
:100150000408102040800102040810200102040855
:100160001020000000080002010000030407000046
:10017000000000000000024C6F616420736B696C2A
:100180006C7300526561647921006B00426974747C
:100190006C65000A2A205374617274202A003E00A4
:1001A0004C6F7720706F7765723A007A65726F00D6
:1001B0006A7900636B00706565007075006869009E
:1001C0007374720073697400747200776B006372E9
:1001D00000767400630042007000520062616C613E
:1001E0006E6365004C00670046006400493243209E
:1001F000454550524F4D206F766572666C6F772182
:100200002044656C65746520736F6D6520736B6940
:100210006C6C73210A0061626F72746564007361B3
:10022000766564003F00261B112A11241FBECFEF04
:10023000D8E0DEBFCDBF11E0A0E0B1E0E8E0F5E638
:1002400002C005900D92A03EB107D9F724E0A0EEC0
:10025000B1E001C01D92AD3EB207E1F711E0C4E18B
:10026000D1E004C02197FE010E946C31C331D10757
:10027000C9F70E94C91B0C9477320C94000080E0EF
:1002800090E0A0E0B0E48093AA029093AB02A09328
:10029000AC02B093AD02E091E104F091E2048181FF
:1002A000082E000C990B9093B0028093AF028281CC
:1002B000082E000C990B9093B2028093B1028381B7
:1002C0008093B3028091A90287FF0CC08481809340
:1002D000B40285818093B50286818093B60287E05F
:1002E00090E005C0813061F05CF084E098E090938C
:1002F000B702E80FF11DF093B902E093B802089538
:1003000084E0EECF8091A1029091A202891B990B0B
:100310000895089508950895AF92BF92CF92DF9205
:10032000EF92FF920F931F93CF93DF936C017B01AA
:100330008B01040F151FEB015E01AE18BF08C0173B
:10034000D10759F06991D601ED91FC910190F081AE
:10035000E02DC6010995892B79F7C501DF91CF9171
:100360001F910F91FF90EF90DF90CF90BF90AF90D3
:100370000895FC01538D448D252F30E0842F90E0AB
:10038000821B930B541710F0CF9608950197089590
:10039000FC01918D828D981761F0A28DAE0FBF2F59
:1003A000B11D5D968C91928D9F5F9F73928F90E0AF
:1003B00008958FEF9FEF0895FC01918D828D98171E
:1003C00031F0828DE80FF11D858D90E008958FEF5B
:1003D0009FEF0895FC01918D228D892F90E0805C24
:1003E0009F4F821B91098F73992708958AE093E0AC
:1003F0000E94EA0121E0892B09F420E0822F089570
:1004000080E090E0892B29F00E94F60181110C9484
:1004100000000895FC01A48DA80FB92FB11DA35AA7
:10042000BF4F2C91848D90E001968F739927848F14
:10043000A689B7892C93A089B1898C918370806437
:100440008C93938D848D981306C00288F389E02DD8
:1004500080818F7D80830895EF92FF920F931F9389
:10046000CF93DF93EC0181E0888F9B8D8C8D981367
:100470001AC0E889F989808185FF15C09FB7F89473
:10048000EE89FF896083E889F989808183708064BF
:1004900080839FBF81E090E0DF91CF911F910F910A
:1004A000FF90EF900895F62E0B8D10E00F5F1F4F19
:1004B0000F731127E02E8C8D8E110CC00FB607FC28
:1004C000FACFE889F989808185FFF5CFCE010E94B6
:1004D0000A02F1CFEB8DEC0FFD2FF11DE35AFF4F18
:1004E000F0829FB7F8940B8FEA89FB898081806244
:1004F000CFCF0F931F93CF93DF938C01D0E0C0E059
:10050000F801EC0FFD1F6491662341F08AE093E04F
:100510000E942C02892B11F02196F2CFCE01DF919F
:10052000CF911F910F910895CF93DF93EC01888DA8
:100530008823B9F0AA89BB89E889F9898C9185FD5E
:1005400003C0808186FD0DC00FB607FCF7CF8C91EC
:1005500085FFF2CF808185FFEDCFCE010E940A0298
:10056000E9CFDF91CF910895833081F028F4813075
:1005700099F08230A9F008958730A9F08830C9F049
:100580008430B1F4809180008F7D03C08091800021
:100590008F7780938000089584B58F7784BD089508
:1005A00084B58F7DFBCF8091B0008F778093B000B2
:1005B00008958091B0008F7DF9CF1F93CF93DF9383
:1005C000282F30E0F901EE59FE4F8491F901E25BEA
:1005D000FE4FD491F901E65CFE4FC491CC23A9F003
:1005E000162F81110E94B402EC2FF0E0EE0FFF1FD6
:1005F000E05DFE4FA591B4918FB7F894EC91111185
:1006000008C0D095DE23DC938FBFDF91CF911F917F
:100610000895DE2BF8CF9091000189130BC0E6E717
:10062000F1E0E4919FEF90930001E13049F028F070
:10063000E23061F060E00C94DD0210926E00FACFBF
:1006400090916F009D7F90936F00F4CF9091700018
:100650009D7F9093700091E09093B0009091B100D5
:10066000987F94609093B1001092B300E3CFCF9342
:10067000DF9390E0FC01E25BFE4F2491865C9E4F8D
:10068000FC0184918823D1F090E0880F991FFC0130
:10069000EA5DFE4FA591B491FC01E05DFE4FC5916E
:1006A000D49161110EC09FB7F8948C91E22FE09520
:1006B0008E238C932881E223E8839FBFDF91CF9123
:1006C00008958FB7F894EC91E22BEC938FBFF6CF9F
:1006D0008E50806480937C0080917A008064809347
:1006E0007A0080917A0086FDFCCF8091780090910D
:1006F000790008953FB7F894809153029091540285
:10070000A0915502B091560226B5A89B05C02F3F77
:1007100019F00196A11DB11D3FBFBA2FA92F982F27
:100720008827BC01CD01620F711D811D911D42E022
:10073000660F771F881F991F4A95D1F708958F92EA
:100740009F92AF92BF92CF92DF92EF92FF926B0196
:100750007C010E947A034B015C01C114D104E104C5
:10076000F104B9F00E947A03681979098A099B0992
:10077000683E73408105910580F321E0C21AD108DB
:10078000E108F10888EE880E83E0981EA11CB11CD8
:10079000E4CFFF90EF90DF90CF90BF90AF909F900D
:1007A0008F9008952FB7F89460914F027091500286
:1007B00080915102909152022FBF08950F931F9381
:1007C000CF93DF93EC010E94D203688779878A87F1
:1007D0009B87E881F9810284F385E02DCE0109959C
:1007E00097FF15C00E94D203088519852A853B858D
:1007F000601B710B820B930B0C811D812E813F813D
:10080000601771078207930720F38FEF9FEFDF9147
:10081000CF911F910F91089520912B02260F33271E
:10082000331F21323105ECF420910403FC0190E0E8
:1008300080E0243069F082E00895A0912B0221919C
:10084000AC01455F5D4FA40FB52FB11D2C930196F0
:10085000861798F380912B02680F60932B0280E03B
:10086000089581E008951092040381E08093E302EB
:100870001092DE0261E082E10E94DD0261E083E12C
:100880000E94DD02E9EBF0E080818E7F8083808131
:100890008D7F808388E48093B80085E48093BC00DA
:1008A0000895CF93DF9391E090930A028823B9F0E3
:1008B000C091B800D091BA008091BC008A7B80932F
:1008C000BC0060E082E10E94DD0260E083E10E9402
:1008D000DD020E943304D093BA00C093B800DF91C8
:1008E000CF910895CF92DF92EF92FF920F931F93D3
:1008F000CF93DF93D82FC62F613208F098C00E94A3
:100900007A036B017C018091040381116BC081E04B
:10091000809304038093E3029FEF9093E20210928E
:10092000E1029C0F9093E0028093DF028091DF024E
:10093000DD0FD82BD093DF028091DE02813009F0E9
:1009400078C01092DE020E947A036B017C018091D4
:10095000DF028093BB008091060390910703A09172
:100960000803B0910903892B8A2B8B2BA1F00E94DD
:100970007A03009106031091070320910803309138
:1009800009036C197D098E099F09061717072807A7
:10099000390708F448C08091BC0083FDD8CF85ECAE
:1009A0008093BC000E947A036B017C018091040358
:1009B000813009F440C08091E1028C1710F4C0919D
:1009C000E102EEEBF2E0A4EEB2E080E08C1355C061
:1009D0008C2FDF91CF911F910F91FF90EF90DF90BF
:1009E000CF9008958091060390910703A09108038A
:1009F000B0910903892B8A2B8B2B09F484CF0E9499
:100A00007A030091060310910703209108033091A7
:100A100009036C197D098E099F0906171707280716
:100A2000390708F070CF809105030E945104C0E09F
:100A3000CFCF85EEB5CF8091060390910703A091AB
:100A40000803B0910903892B8A2B8B2B09F4AECFB5
:100A50000E947A0300910603109107032091080376
:100A6000309109036C197D098E099F090617170734
:100A70002807390708F09ACFD6CF91919D938F5FC1
:100A8000A5CF0895E091A2028091A102E81730F469
:100A9000F0E0EC51FD4F808190E008958FEF9FEFE3
:100AA00008959091A2028091A1022FEF3FEF981735
:100AB00048F4E92FF0E0EC51FD4F208130E09F5FDA
:100AC0009093A202C9010895CF92DF92EF92FF9214
:100AD0000F931F93CF93DF937C01CB018A01209169
:100AE000BD02222389F0EB016B01C40ED51ECC158B
:100AF000DD0569F06991D701ED91FC910190F081DC
:100B0000E02DC7010995F3CF642F0E940C04C801A2
:100B1000DF91CF911F910F91FF90EF90DF90CF90D9
:100B20000895CF93DF931F92CDB7DEB769832091ED
:100B3000BD022223F9F02091BA02203258F021E0C0
:100B400030E0FC013383228390E080E00F90DF915E
:100B5000CF9108958091BB02E82FF0E0E651FE4F5F
:100B6000998190838F5F8093BB028093BA0281E06A
:100B700090E0ECCF61E0CE0101960E940C04F7CF2B
:100B8000CF92DF92EF92FF920F931F93CF93DF9359
:100B9000D091BA0281E0D13208F09CC0C091BC0271
:100BA0000E947A036B017C018091040381116CC067
:100BB00082E08093040381E08093E3028FEF8093CF
:100BC000E2021092E102D093E002AAEEB1E0EEEB75
:100BD000F2E080E0D8138DC01092DF028091DF0236
:100BE000CC0FC82BC093DF028091DE02813009F068
:100BF00084C01092DE020E947A036B017C01809116
:100C0000DF028093BB008091060390910703A091BF
:100C10000803B0910903892B8A2B8B2BA1F00E942A
:100C20007A03009106031091070320910803309185
:100C300009036C197D098E099F09061717072807F4
:100C4000390708F442C08091BC0083FDD8CF85EC01
:100C50008093BC000E947A036B017C0180910403A5
:100C6000823009F44CC08091E2028F3F09F469C0E0
:100C70008091E202803209F466C08091E202803302
:100C800009F463C084E026C08091060390910703B5
:100C9000A0910803B0910903892B8A2B8B2B09F4AF
:100CA00083CF0E947A0300910603109107032091DD
:100CB0000803309109036C197D098E099F090617F5
:100CC00017072807390708F06FCF809105030E94A6
:100CD000510485E01092BB021092BA021092BD023C
:100CE000DF91CF911F910F91FF90EF90DF90CF9008
:100CF00008959D9191938F5F6DCF85EEA9CF8091DF
:100D0000060390910703A0910803B0910903892B72
:100D10008A2B8B2B09F4A2CF0E947A030091060341
:100D20001091070320910803309109036C197D0984
:100D30008E099F09061717072807390708F08ECF75
:100D4000C4CF80E0C7CF82E0C5CF83E0C3CF90E0BF
:100D500080E00895BF92CF92DF92EF92FF920F93BF
:100D60001F93CF93DF93EC017B018A0184E0B82EBF
:100D70006E0186E0C80ED11CEE81FF810480F581F2
:100D8000E02DC601099581115BC02D853E85211599
:100D9000310509F451C0EB85FC85309751F02150A5
:100DA00031093E872D8722A533A53C872B871CAEB2
:100DB0001BAE9281913109F04DC09381D8019C9373
:100DC000248130E0D7012D933C939581911191E0DE
:100DD000D80111969C939581992391F190E065E05B
:100DE0002581921768F5492F50E0969FD001112474
:100DF000EF01CA0FDB1F2E817D01E00EF11ED7012E
:100E000012962C9312972F8113962C931397288563
:100E100014962C9379854F5F5F4F649F9001659F77
:100E2000300D1124200F311FD9017C932A85D70161
:100E300016962C939F5FD4CFBA94B1109DCF83E0C8
:100E4000DF91CF911F910F91FF90EF90DF90CF90A6
:100E5000BF90089580E1F4CF2F923F924F925F921E
:100E60006F927F928F929F92AF92BF92CF92DF92BA
:100E7000EF92FF920F931F93CF93DF93CDB7DEB71F
:100E8000E3970FB6F894DEBF0FBECDBF6C018B01A8
:100E9000DC0117968D919C91009709F454C0F12CB8
:100EA000E12C039708F0D7C0F12CE12CAA24A394DD
:100EB000B12C0115110509F4CEC0AE01455D5F4F9F
:100EC000BE016E5C7F4FD60115968D919C910E945C
:100ED000AA068111C0C04AA95BA9CA010197950160
:100EE000082E02C0220F331F0A94E2F7B8016223D2
:100EF0007323672BF1F241155105D9F249305105A1
:100F0000C4F6880F991FF601E80FF91FA185B28575
:100F1000109779F28CA511968C9311978BA58C93D1
:100F20008CA5882341F085E0FE01BD9612960190C4
:100F30000D928A95E1F7C9018095909508231923B0
:100F4000E22AF32AB6CF4601F12CE12CAA24A3947D
:100F5000B12C66246394712C1E01B5E02B0E311C5C
:100F6000F2E04F2E512CC5010197F30102C0EE0FA4
:100F7000FF1F8A95E2F7CF0180239123892B09F483
:100F80005FC0D40119968D919C91892B09F458C0AA
:100F9000F60185819681D101E6E21D92EA95E9F795
:100FA0005A824982F2E1FB83AC82DC011696ED9114
:100FB000FC910680F781E02DBE016F5F7F4F0696A2
:100FC0000995AE01455D5F4FBE016E5C7F4FF60136
:100FD000858196810E94AA0681113DC02AA93BA95C
:100FE000C9010197A301082E02C0440F551F0A949E
:100FF000E2F7BA0160237123672BF9F0880F991F7C
:10100000F601E80FF91FA185B2859C918BA5981771
:10101000A1F021153105A9F22930310574F487E0DA
:10102000FE01BB9601900D928A95E1F7CA01809569
:10103000909508231923E42AF52A2A153B0509F679
:10104000FFEFAF1ABF0A22E0820E911C39E0A3160F
:10105000B10409F088CFC701E3960FB6F894DEBF5C
:101060000FBECDBFDF91CF911F910F91FF90EF90F9
:10107000DF90CF90BF90AF909F908F907F906F90B8
:101080005F904F903F902F900895DC01ED91FC917F
:101090000284F385E02D0995862F0895DC01ED91FA
:1010A000FC910084F185E02D0995862F08951F930A
:1010B000CF93DF93EC01142F8E819F812A8131E041
:1010C0003093BD022093BC021092BB021092BA0270
:1010D000DC01ED91FC910190F081E02D09958111E9
:1010E00008C063E070E080E090E0DF91CF911F9155
:1010F00008958E819F81DC01ED91FC910190F0813A
:10110000E02D612F0995882361F38E819F810E94D4
:10111000C00560E070E0CB01E8CF0895462FDC0108
:1011200015968D919C91DC01ED91FC910680F781E3
:10113000E02D65E009941F93CF93DF93EC01142F0A
:1011400089819A81288131E03093BD022093BC02CD
:101150001092BB021092BA02DC01ED91FC91019059
:10116000F081E02D099589819A81DC01ED91FC9156
:101170000190F081E02D612F099589819A81DF919D
:10118000CF911F910C94C005DC01ED91FC91019071
:10119000F081E02D0994FC0187E094E1161634F407
:1011A00084E098E0613011F484E090E19083062EB1
:1011B000000C770B77FF03C0719561957109969FBD
:1011C000A001979F500D1124840F952F911D089514
:1011D000DC01ED91FC910190F081E02D09940F93D9
:1011E0001F93CF93DF93EC018A0189819A81288133
:1011F00031E03093BD022093BC021092BB021092EA
:10120000BA0224E0629FB00111246A5F7F4F0E94FE
:10121000E80870E060E089819A810E94C40870E06B
:1012200060E089819A810E94C408B80189819A810D
:101230000E94C408612F70E089819A810E94C408CD
:1012400089819A81DF91CF911F910F910C94C005F4
:10125000CF93C0E040E050E16C2F86E894E00E941C
:10126000EF08CF5FC031B1F7CF9108950F931F936F
:10127000CF93DF93EC018A018E819F812A8131E037
:101280003093BD022093BC021092BB021092BA02AE
:10129000DC01ED91FC910190F081E02D0995811127
:1012A00009C063E070E080E090E0DF91CF911F9192
:1012B0000F9108958E819F810E94C00561E08A810F
:1012C0000E9472041092A2028093A102813049F719
:1012D0008E819F81DC01ED91FC910284F385E02DEC
:1012E0000995F801808360E070E0CB01DECF9F922A
:1012F000AF92BF92CF92DF92EF92FF920F931F9324
:10130000CF93DF93EC0181E08093BD0284E580936D
:10131000BC021092BB021092BA026D2F70E087EAF5
:1013200093E00E94E808BE01772787EA93E00E94D5
:10133000E80887EA93E00E94C00561E084E50E9426
:1013400072041092A2028093A10287EA93E00E94A5
:101350005105C090E104D090E204F60180838093AF
:10136000A902682F8EEA92E00E94CB08EC01F12CD2
:10137000E12C1C161D064CF56C2FCF31D1050CF05D
:101380006EE184E50E947204982E1092A20280936E
:10139000A1025E01FEE1AF1AB1088E018091A202A6
:1013A000981659F087EA93E00E9451059FEFE91AD9
:1013B000F90AF601EE0DFF1D80830150110929F095
:1013C000E5010A151B0551F7D4CFDF91CF911F918D
:1013D0000F91FF90EF90DF90CF90BF90AF909F90D4
:1013E0000895CF93DF93EC0189819A81288131E0C0
:1013F0003093BD022093BC021092BB021092BA023D
:10140000DC01ED91FC910190F081E02D099589813D
:101410009A810E94C00561E088810E947204109246
:10142000A2028093A10289819A81DC01ED91FC9155
:101430000284F385E02D0995DF91CF9108958F9275
:101440009F92AF92BF92CF92DF92EF92FF92CF9393
:10145000C82F90E080E00E948A2C6B017C016EEF27
:1014600086E894E00E94F109682F70E06F5F7F4F7B
:1014700090E080E00E948A2C20E034E244E759E4C6
:101480000E94EB2C4B015C016091890470918A04ED
:1014900080918B0490918C040E948A2C9B01AC015A
:1014A000C501B4010E94CB2E9B01AC01C701B6015E
:1014B0000E94CB2E0E94442FAB016C2F86E894E053
:1014C000CF91FF90EF90DF90CF90BF90AF909F9023
:1014D0008F900C94EF080F931F93CF938C01C0E073
:1014E000B8018C2F0E941F0ACF5FC031C9F7CF917E
:1014F0001F910F9108958F929F92AF92BF92CF92BA
:10150000DF92EF92FF921F93CF93DF93EC016A017A
:101510007B0120E030E040E85FE3CB01B6010E94B0
:10152000852C87FD7EC020E030EC4AE555E4C701FC
:10153000B6010E94B22F18163CF4C12C30ECD32E09
:101540003AE5E32E35E4F32E6B817C818D819E811B
:101550000E948A2C4B015C0120E030E040E855E419
:10156000C701B6010E94EB2C9B01AC01C501B4017F
:101570000E94CB2E20E030E040E05FE30E945A2E34
:1015800020E030E040E85FE30E94592E6B017C01CF
:1015900020E030E040E450E40E94852C87FD48C004
:1015A00020E030E04FE753E4C701B6010E94B22FBC
:1015B000181634F4C12CD12C9FE7E92E93E4F92EB0
:1015C00060E0CE010E94F109182F482F4F7640614C
:1015D00060E0CE010E949B08C701B6010E94442F23
:1015E000462F6EEFCE010E949B08412F60E0CE0196
:1015F0000E949B0865E070E080E090E00E949F03FD
:10160000412F406A60E0CE01DF91CF911F91FF90A2
:10161000EF90DF90CF90BF90AF909F908F900C9401
:101620009B08C12CD12C20E8E22E2FE3F22E8CCF88
:10163000C12CD12C80E4E82EFE2CC2CFEF92FF9279
:101640000F931F93CF93DF9300D0CDB7DEB78C01FC
:10165000DC0115968D919C91009739F0DC01ED919C
:10166000FC910280F381E02D099581E090E0F80182
:101670009483838388E090E00E94252AFC01D801AE
:1016800012968C9190E0B0E0A0E082839383A483D3
:10169000B58389E391E09183808387EA93E0978320
:1016A0008683D8011696FC93EE9315971A8284E0F0
:1016B000E82EF12CF80185819681DC01ED91FC91F9
:1016C0000480F581E02DAE014E5F5F4F61E009952A
:1016D000811103C08A81833031F0B1E0EB1AF10847
:1016E00049F781E121C084E08983F80185819681F1
:1016F000DC01ED91FC910680F781E02D44E064E08F
:101700000995998192FF10C0F80185819681DC01CD
:10171000ED91FC910480F581E02DAE014F5F5F4FAC
:1017200064E00995882369F30F900F90DF91CF91C2
:101730001F910F91FF90EF9008958F929F92AF921B
:10174000BF92CF92DF92EF92FF920F931F93CF93AE
:10175000DF931F92CDB7DEB78C016B01F12CE12C2A
:10176000AA24A394B12CC5010E2C02C0880F991F86
:101770000A94E2F78C219D21892B09F43EC0D801FF
:1017800015968D919C91DC01ED91FC910680F7817D
:10179000E02D41E04E0D60E20995811162C0F80133
:1017A00085819681DC01ED91FC910480F581E02D2D
:1017B000AE014F5F5F4F61E20995811152C04981CF
:1017C00040FF3EC04701880C991C800E911EF40119
:1017D00081859285892B39F487E090E00E94252A43
:1017E000F40192878187898186958695837090E040
:1017F000D80118969C938E931797BFEFEB1AFB0AAC
:10180000E8E0EE16F10409F0AECF64E170E080E0AC
:1018100090E00E949F03F801108617826801F9E0AA
:10182000CF0ED11CFF24F394D6018D919D916D01B3
:10183000892B29F5F394B9E0FB12F6CF80E011C0B3
:1018400041604983D80115968D919C91DC01ED9101
:10185000FC910680F781E02D61E20995882309F467
:10186000B1CF0F90DF91CF911F910F91FF90EF902B
:10187000DF90CF90BF90AF909F908F900895F80128
:1018800085819681DC01ED91FC910680F781E02D48
:101890004F2D60E209958111E4CFF8018581968191
:1018A000DC01ED91FC910480F581E02DAE014F5FEC
:1018B0005F4F61E209958111D4CF4981842F8695CC
:1018C0008695837009F4B6CF437F4983F8018581FB
:1018D0009681DC01ED91FC910680F781E02D61E2BB
:1018E0000995882309F4A6CFBCCFFC010190002004
:1018F000E9F73197AF01481B590BBC018AE093E02F
:101900000C948C0181E791E00C94750CCF93DF93DC
:10191000FC0144815581608171818AE093E00E94DD
:101920008C01EC010E94820C8C0F9D1FDF91CF91E6
:101930000895CF93DF930E947902EC010E94820CFC
:101940008C0F9D1FDF91CF910895CF93DF93682F68
:101950008AE093E00E942C02EC010E94820C8C0F22
:101960009D1FDF91CF9108958F929F92AF92BF926A
:101970000F931F93CF93DF93CDB7DEB7A1970FB629
:10198000F894DEBF0FBECDBF19A2423008F44AE082
:101990008E010F5D1F4F842E912CB12CA12CA5011F
:1019A00094010E94282EE62FB901CA01EA30F4F40E
:1019B000E05DD801EE938D01232B242B252B79F7A5
:1019C00090E080E0109719F0CD010E94750CA1966F
:1019D0000FB6F894DEBF0FBECDBFDF91CF911F9140
:1019E0000F91BF90AF909F908F900895E95CE1CFE9
:1019F000CF92DF92EF92FF92C12CD12C76014AE078
:101A0000C701B6010E94B40C69E08AE093E00E942D
:101A10002C028FEFC81AD80AE80AF80A80E1C81623
:101A2000D104E104F10459F7FF90EF90DF90CF90DB
:101A30000C94820CCF93DF930E94750CEC010E94F2
:101A4000820C8C0F9D1FDF91CF910895FC012481A2
:101A50003581232B39F421E0FB018081882349F073
:101A600020E007C0808191810E94593221E0892BBA
:101A7000B9F7822F08950C94C12ACF93DF93EC011C
:101A800088819981009711F00E94C12A19821882D9
:101A90001D821C821B821A82DF91CF910895FC0166
:101AA00080819181009711F00C94C12A08950F93C1
:101AB0001F93CF93DF93EC018DE691E099838883A8
:101AC0008D819E81009739F0DC01ED91FC910280BF
:101AD000F381E02D09958E01075F1F4F6996F8018C
:101AE000819191918F01009731F00E94C12AF801F4
:101AF0003297118210820C171D0789F7DF91CF9161
:101B00001F910F910895CF93DF93EC010E94570D21
:101B1000CE01DF91CF910C94C12A0F931F93CF93E5
:101B2000DF938C01EB01FC01808191810097E1F052
:101B30006881798161157105A9F0428153812C81F9
:101B40003D814217530770F00E9462328C819D8163
:101B5000F801958384831D821C82DF91CF911F91B0
:101B60000F9108950E94C12A88819981F80191837B
:101B700080838A819B81938382838C819D819583DD
:101B80008483198218821B821A82E5CF0C94A92DB6
:101B90006F927F928F929F92AF92BF92CF92DF927D
:101BA000EF92FF920F931F93CF93DF936C01712CF1
:101BB000D0E0C0E083E191E00E94C60D082E000C49
:101BC000990B781619060CF06DC04E018FEF881A2C
:101BD000980ACE01805C9E4F0E94C60D682EE82EAA
:101BE000F12CC70101960E94252A8C015C01CF5B74
:101BF000DE4FC81BD90B8A2D801B861548F4CE01F9
:101C00008A0D9B1D0E94C60DF50181935F01F3CFE4
:101C1000E401CE0DDF1D5801AE0CBF1CF501108292
:101C2000B601C8010E945932892B09F50115110529
:101C3000A9F5CE018F5B9E4F0E94C60D8093A9022D
:101C4000682F8EEA92E00E94CB08CE01805C9E4F06
:101C5000DF91CF911F910F91FF90EF90DF90CF9088
:101C6000BF90AF909F908F907F906F900895F501F7
:101C7000319780818C3449F4A70141505109B60154
:101C8000C8010E946932892B89F20115110519F0EA
:101C9000C8010E94C12A249673948CCFC8010E9467
:101CA000C12AC7CF84E292E00E94990C8FEF9FEF88
:101CB000CFCF1F93CF93DF93EC010E94C60D182F57
:101CC000CE0101960E94C60D90E0982F8827810FC3
:101CD000911DDF91CF911F910895CF92DF92EF92E6
:101CE000FF920F931F93CF93DF936A017B01082F1D
:101CF00010E0C801805B9F4F880F991F0E94590E0A
:101D0000BC01990F880B990B0E948C2C20E030E0CD
:101D10004AE754E40E94CB2EA70196010E94EB2CC7
:101D20006B017C0182E191E00E94C60D9AE0899FDF
:101D3000B0011124072E000C880B990B0E948C2CEB
:101D4000A70196010E945A2E6B017C0120E030E031
:101D50004AEF53E40E94B22FC4EFD1E018168CF47E
:101D600020E030E44CE155E4C701B6010E94852C27
:101D7000C4ECD9E087FF05C0C701B6010E943D2F22
:101D8000EB01C8010E94C60DAE01682F86E894E001
:101D9000DF91CF911F910F91FF90EF90DF90CF9047
:101DA0000C94EF0890E0C096880F991F860F911D44
:101DB000880F991F0C94590E7F928F929F92AF9229
:101DC000BF92CF92DF92EF92FF920F931F93CF9328
:101DD000DF93B82E6A01D62FC72F60E00E94D20E83
:101DE000BC01990F880B990B0E948C2C7B018C01F4
:101DF00061E08B2D0E94D20EBC01990F880B990BCC
:101E00000E948C2C762E872E982EA92E96014D2F6F
:101E10005C2F0E94852C87FF71C0772D682D992D2E
:101E20008A2D272F362F492F582FB701C8010E941E
:101E3000B22F181694F096014D2F5C2F672D782D38
:101E4000892D9A2D0E94852C76010D2F1C2F87FF3E
:101E500004C0E72CF82C092D1A2DCB2DD0E06E01F3
:101E600080E3C80ED11CCC0FDD1FC95FDE4FB70168
:101E7000C8010E943D2F79836883C601880F991F8E
:101E80000E94590EEC01C6010E94C60D682F880FF2
:101E9000770B880B990B0E948C2C9701A8010E944C
:101EA000EB2C6B017C01BE01DD0F880B990B0E94AE
:101EB0008C2C9B01AC01C701B6010E945A2E0E94D6
:101EC0003D2F072E000C880B990B0E948C2C20E0D4
:101ED00030E0A9010E945A2EAB01BC018B2DDF918D
:101EE000CF911F910F91FF90EF90DF90CF90BF9017
:101EF000AF909F908F907F900C946D0E7C2D6D2DE8
:101F0000CE018FCF2F923F924F925F926F927F922E
:101F10008F929F92AF92BF92CF92DF92EF92FF92F9
:101F20000F931F93CF93DF93CDB7DEB72E970FB6E6
:101F3000F894DEBF0FBECDBF5C016A017B0120E0DB
:101F400030E0A901CB01B6010E94852C9501205EED
:101F50003F4F39011816A4F184E791E00E941A0D51
:101F600083013FE03983D8017E916E918D01072E68
:101F7000000C880B990B0E948C2CAB01BC01898151
:101F80000E94DC0EB981B150B983BF3F61F72E9634
:101F90000FB6F894DEBF0FBECDBFDF91CF911F917A
:101FA0000F91FF90EF90DF90CF90BF90AF909F90F8
:101FB0008F907F906F905F904F903F902F900895FB
:101FC00080E290E00E94252A8C0187E0882E81E043
:101FD000982E9801F50170E060E0D4018D919D91FB
:101FE0004D0141915191841B950BD9018D939D9386
:101FF0009D0197FF03C09195819591096817790715
:102000000CF4BC01E615F70541F7072E000C880B10
:10201000990B0E948C2CA70196010E94CB2E6B017C
:102020007C0120E030E0A9010E94B22F20E030E0E6
:1020300040E05FE387FD91C0C701B6010E945A2EC0
:102040000E943D2F7E876D87D12CC12C8D859E856A
:10205000092E000CAA0BBB0B89879A87AB87BC871C
:10206000AD85BE85AC15BD050CF47CC048011501DD
:10207000F12CC6010D2C000CAA0BBB0B8D839E838B
:10208000AF83B887D1016D917D911D01072E000CA2
:10209000880B990B0E948C2C2B013C01ED85FE8551
:1020A00020E030E0A901EF2B09F443C06D817E816F
:1020B0008F8198850E948C2C2BED3FE049E450E401
:1020C0000E94EB2C69837A838B839C8369857A8554
:1020D0008B859C850E948C2C9B01AC0169817A8147
:1020E0008B819C810E94CB2E0E94C62E20E030E086
:1020F00040E85FE30E945A2E20E030E040E05FE3DA
:102100000E94EB2C69837A838B839C83D4016D912D
:102110007C91072E000C880B990B0E948C2C9B0144
:10212000AC0169817A818B819C810E94EB2C9B019F
:10213000AC01C301B2010E945A2EAB01BC018F2D2C
:102140000E94DC0EF394B2E08B0E911CE0E1FE12D3
:1021500099CFFFEFCF1ADF0A83CFC701B6010E94E4
:10216000592E6ECF0115110509F411CFC8012E9615
:102170000FB6F894DEBF0FBECDBFDF91CF911F9198
:102180000F91FF90EF90DF90CF90BF90AF909F9016
:102190008F907F906F905F904F903F902F900C9416
:1021A000C12A2F923F924F925F926F927F928F92AD
:1021B0009F92AF92BF92CF92DF92EF92FF920F93D6
:1021C0001F93CF93DF93CDB7DEB72F970FB6F89459
:1021D000DEBF0FBECDBF4C016D8369017A01202F98
:1021E00030E03A83298320E030E0A901C701B6013D
:1021F0000E94852C18160CF184E791E00E941A0DBC
:102200001FE0812F012E000C990BA981BA818A173A
:102210009B070CF41EC1880D991DFC016081062EE0
:10222000000C770B880B990B0E948C2CAB01BC0126
:10223000812F0E94DC0E1150E4CF80E190E02981D3
:102240003A81821B930B811530E4930780F5880F48
:10225000991F009779F10E94252A5C01E981FA8192
:10226000EE0FFF1FCF01895F9E4F3C012501D40176
:10227000402F70E060E0403100F5F30181919191D1
:102280003F012D915D81250390011124821B930B49
:10229000F201819391932F0197FF03C0919581954E
:1022A0009109681779070CF4BC014F5FE4CF8FEFF9
:1022B0009FEFD1CF81E090E0CECF072E000C880BAE
:1022C000990B0E948C2CA70196010E94CB2E6B01CA
:1022D0007C0120E030E0A9010E94B22F20E030E034
:1022E00040E05FE387FD8BC0C701B6010E945A2E14
:1022F0000E943D2F1B011F861E86CB01770FAA0B64
:10230000BB0B8A879B87AC87BD87AE85BF852A16A6
:102310003B060CF480C0BA82A9829C828B82102F6B
:10232000CD01092E000CAA0BBB0B8E839F83A887BF
:10233000B987103108F068C0AB81BC816D91BC8356
:10234000AB832D816203B0011124072E000C880B92
:10235000990B0E948C2C6B017C0120E030E0A901DC
:1023600021143104E1F16E817F81888599850E9475
:102370008C2C2BED3FE049E450E40E94EB2C2B0128
:102380003C016A857B858C859D850E948C2C9B01F8
:10239000AC01C301B2010E94CB2E0E94C62E20E0E8
:1023A00030E040E85FE30E945A2E20E030E040E059
:1023B0005FE30E94EB2C2B013C01A981BA816D9156
:1023C0007C91072E000C880B990B0E948C2C9B0192
:1023D000AC01C301B2010E94EB2C9B01AC01C7010F
:1023E000B6010E945A2EAB01BC01812F0E94DC0E67
:1023F0001F5FE981FA813296FA83E9839ACFC70198
:10240000B6010E94592E74CF2E853F852F5F3F4F16
:102410003F872E877ACFA114B104D9F0C5012F963A
:102420000FB6F894DEBF0FBECDBFDF91CF911F91E5
:102430000F91FF90EF90DF90CF90BF90AF909F9063
:102440008F907F906F905F904F903F902F900C9463
:10245000C12A2F960FB6F894DEBF0FBECDBFDF9115
:10246000CF911F910F91FF90EF90DF90CF90BF9091
:10247000AF909F908F907F906F905F904F903F9024
:102480002F9008950F930E943F011092A402109282
:10249000A302E5EAF2E02581368147815085028971
:1024A0006685838994890E94D1100F910895CF92F7
:1024B000DF92EF92FF920F931F93CF93DF938C01E4
:1024C000FC0101900020E9F7329780818C3409F4F7
:1024D000F2C0823509F0F1C087EE8093A802C801EE
:1024E0000E94C80DEC01CF3FDC0709F430C1CE01DA
:1024F0000E94C60DF82ECE0102960E94590EEC01E4
:10250000E9E4FE12DCC00E9477090E943F016EE7F9
:1025100071E0C8010E945932892B09F4EAC0809108
:10252000A902813009F0E5C00E94962B24E630E034
:1025300040E050E00E94BF2D0E948C2C20E030E053
:1025400040E251E40E94CB2E20E030E040EA50E42B
:102550000E94592E60939D0270939E0280939F0269
:102560009093A002C0909D02D0909E02E0909F02A6
:10257000F090A002D0E0C0E00091B8021091B90242
:102580000C0F1D1FF8016081062E000C770B880BC5
:10259000990B0E948C2CA70196010E945A2E0E9432
:1025A0003D2FF80160832196C031D10529F7809134
:1025B000A90282300CF4A6C08091A80287FFB1C0A6
:1025C0008091AF029091B00291958195910990937D
:1025D000B0028093AF0290E080E04091A902242FE6
:1025E000042E000C330B37FF03C0319521953109C0
:1025F000821793070CF095C042301CF54091AE0253
:10260000489F9001499F300D1124E091B802F0914C
:10261000B902E20FF31F2081219520832091AE02A1
:10262000289FF001299FF00D11249F012E5F3F4F3D
:10263000E091B802F091B902E20FF31F20812195D9
:1026400020832091A90260E022300CF462E0E62FA2
:10265000F0E02091A90222300CF482C024E030E0A6
:102660004091B8025091B902E217F3070CF07BC019
:102670009F01220F331F7091AE02789FF001799F66
:10268000F00D1124E20FF31FE40FF51F408151817B
:1026900050835091AE02589FD001599FB00D112424
:1026A000E091B802F091B902E20FF31FEA0FFB1FAD
:1026B00041836F5FCCCF89E110CF80E00ECF609176
:1026C000A9028EEA92E00E94CB082091E1043091A9
:1026D000E204D901C21BD30BFE01EA0FFB1FAD01BF
:1026E000421B530B481759070CF00FCFE491ED93A1
:1026F000F3CF10929D0210929E0210929F021092B0
:10270000A00230CF0E94962B24E630E040E050E05B
:102710000E94BF2D60FF05C080919C02833609F0A6
:102720004FCF1092A4021092A3022091AA023091DE
:10273000AB024091AC025091AD020091B7026091A2
:10274000B3028091B8029091B9020E94D110DF913A
:10275000CF911F910F91FF90EF90DF90CF90089550
:1027600028E030E07DCF019638CF0F931F93CF93B1
:10277000DF93EC018B010E94A92D081721F0602F37
:10278000CE010E94B12D2196CE010E94A92D1817CD
:1027900021F0612FCE010E94B12D65E070E080E054
:1027A00090E0DF91CF911F910F910C949F030E94B5
:1027B00043320F931F93CF93DF93EC01888199816C
:1027C000009759F02A813B812617370730F081E0C6
:1027D000DF91CF911F910F9108958B016F5F7F4F14
:1027E0000E948631009759F0998388831B830A835E
:1027F0002C813D81232B59F7FC011082E8CF80E02A
:10280000E7CFEF92FF920F931F93CF93DF93611562
:10281000710541F480E0DF91CF911F910F91FF90FE
:10282000EF90089541155105B1F07B01EC010C8149
:102830001D81040F151FB8010E94D913882351F37D
:10284000288139818C819D81B701820F931F0E945D
:1028500062321D830C8381E0DECFEF92FF920F93F3
:102860001F93CF93DF93EC017B018A01BA010E9491
:10287000D91381110BC0CE010E943D0DCE01DF9115
:10288000CF911F910F91FF90EF9008951D830C83BE
:10289000B701888199810E946232F0CFFB01DC018F
:1028A00011961C921E9213961C921E9212971596C8
:1028B0001C921E9214978617970759F060817181B8
:1028C0006115710521F0448155810C942D140C94EF
:1028D0003D0D0895FB0101900020E9F73197AF010C
:1028E000461B570B0C942D140F931F93CF93DF931C
:1028F000CDB7DEB762970FB6F894DEBF0FBECDBF7F
:102900008C01CB01F8011182108213821282158290
:1029100014824AE0BE016F5F7F4F0E94482CBE01C7
:102920006F5F7F4FC8010E946A1462960FB6F894D9
:10293000DEBF0FBECDBFDF91CF911F910F910895E4
:10294000FC01118210821382128215821482FB0113
:1029500001900020E9F73197AF01461B570B0C940B
:102960002D14EF92FF920F931F93CF93DF9300D01C
:10297000CDB7DEB78C01E62E66ED71E00E94A014A3
:102980008AE093E00E94DE030E2C000CFF0897FD06
:1029900012C08E159F0579F089831A8241E050E0BC
:1029A000BE016F5F7F4FC8010E9401148AE093E06F
:1029B0000E94DE03ECCFC8010F900F90DF91CF9102
:1029C0001F910F91FF90EF900895EF92FF920F9358
:1029D0001F93CF93DF93EC018B01198218821B8226
:1029E0001A821D821C82CB010E94132C7C01BC0127
:1029F000CE010E94D913811109C0CE01DF91CF9180
:102A00001F910F91FF90EF900C943D0DFD82EC8291
:102A1000B80188819981DF91CF911F910F91FF902B
:102A2000EF900C940C2C85ED8093BC0080910603F4
:102A300090910703A0910803B09109030796A11D87
:102A4000B11D23E0B695A795979587952A95D1F75F
:102A50002091BC0024FD03C010920403089540910E
:102A60000603509107036091080370910903452BF9
:102A7000462B472B69F30097A105B10541F02AE2E7
:102A80002A95F1F700C00197A109B109E1CF809122
:102A900005030C9451042F923F924F925F926F92D4
:102AA0007F928F929F92AF92BF92CF92DF92EF92DE
:102AB000FF920F931F93CF93DF93CDB7DEB7669747
:102AC0000FB6F894DEBF0FBECDBF69877A878B87BC
:102AD0009C872D873E874F87588BC801EE8A10E070
:102AE00088248A94982C540168E4462E68EE562E69
:102AF00066246394712C05E07FE3272E71E0372E66
:102B00009C01990F440B550B298B3A8B4B8B5C8B9B
:102B10006D857E858F8598890E94442F6D837E8385
:102B20008F83988720E030E0A90169857A858B85BD
:102B30009C850E94852C882309F499C129853A85B2
:102B40004B855C8563E67CE987E89FE30E94B72FAD
:102B500020E030ED42E854E40E94EB2C0E94442F28
:102B60006B0180910001853009F06AC0E6E7F1E071
:102B7000F491FD8BF7FDD9C161E085E00E94370338
:102B8000FD89FF2321F02D89223009F024C1F12C89
:102B9000E12C60E072E18AE790E0A70196010E94D3
:102BA000BF2D29833A834B835C83DA01C9010197E6
:102BB000A109B1098F3F9105A105B10509F00CF4F8
:102BC000F0C060E472E48FE090E0A70196010E94FB
:102BD000BF2D21503109410951098D89823009F0F9
:102BE000A2C082E02F3F31054105510509F00CF4E8
:102BF0008CC160E970ED83E090E0A70196010E942E
:102C0000BF2D215031094109510983E02F3F310582
:102C10004105510509F00CF478C1C301B201A701C7
:102C200096010E94BF2D21503109410951092F3FC2
:102C300031054105510511F00CF092C084E065C1E9
:102C40008F3F09F072C100930001E6E7F1E0F491D3
:102C5000FD8BFF3F09F469C1F13029F158F0F230E2
:102C600009F43FC03D8937FD60C161E085E00E9405
:102C7000370389CF14BC15BC84B5826084BD85B58B
:102C8000816085BDF1018491E82FF0E0EE0FFF1F18
:102C9000E05DFE4F85919491E3E5F1E084918093AE
:102CA000E1011D8A69CF109280001092810080910D
:102CB0008100886080938100809181008160809391
:102CC0008100F1018491E82FF0E0EE0FFF1FE05D3D
:102CD000FE4F85919491E3E5F1E084918093E001CA
:102CE0004BCF1092B0001092B1008091B000826082
:102CF0008093B0008091B10081608093B100F101B8
:102D00008491E82FF0E0EE0FFF1FE05DFE4F85910C
:102D100094919093580280935702E3E5F1E08491F7
:102D20008093590229CF2F3F31054105510509F004
:102D30000CF44FC0C301B201A70196010E94BF2D40
:102D400021503109410951099D89992309F4AFC0E6
:102D50002F3F31054105510511F00CF0B0C06ECF89
:102D600064E274EF80E090E0A70196010E94BF2D1D
:102D7000215031094109510985E02F3F31054105B5
:102D8000510509F008F4C1C062E17AE780E090E003
:102D9000A70196010E94BF2D215031094109510917
:102DA0009DC09C0181E0FD89F111AFC095B5987F70
:102DB000892B85BD27BD8092E6019092E701A09204
:102DC000E801B092E90180916E00826080936E000C
:102DD000ACC082E0E8CFF12CE12C60E072E18AE740
:102DE00090E0A70196010E94BF2D215031094109B1
:102DF000510991E02115310581E0480751055CF04A
:102E0000C301B201A70196010E94BF2D21503109D3
:102E10004109510993E0ED89E13009F07CC08091CE
:102E20008100887F892B80938100309389002093D3
:102E300088008092E2019092E301A092E401B092B6
:102E4000E50180916F00826080936F006EC02093D7
:102E5000B30080925A0290925B02A0925C02B09200
:102E60005D02809170008260809370005EC06D8111
:102E70007E818F8198850E949F0357C084E02F3FF9
:102E800031054105510509F008F490CF29813A81B7
:102E90004B815C818AE055954795379527958A95B2
:102EA000D1F7215031094109510985E07FCF83E0F5
:102EB0002F3F31054105510509F00CF477CF62E150
:102EC0007AE780E090E0A70196010E94BF2D215093
:102ED000310941095109ED89EE2381F286E02F3F46
:102EE00031054105510589F080F029813A814B81F6
:102EF0005C819AE055954795379527959A95D1F736
:102F0000215031094109510987E09091B100987F22
:102F1000892B8093B100FD89F13009F486CFF2301E
:102F200009F495CFFF2309F445CF6D817E818F8110
:102F300098850E949F0385E00E940B0369897A8926
:102F40008B899C890E949F031F5F2E892113E0CDEE
:102F500066960FB6F894DEBF0FBECDBFDF91CF915E
:102F60001F910F91FF90EF90DF90CF90BF90AF90A7
:102F70009F908F907F906F905F904F903F902F9099
:102F800008954F925F926F927F928F929F92AF922D
:102F9000BF92CF92DF92EF920F931F93CF93DF9365
:102FA000D82E192F0E94C60D8695CD2DD12FB12C6C
:102FB000A12CC82ED12C88EE882E83E0982E219744
:102FC000AC14BD044CF5CE018C199D090E94C60DB0
:102FD000782ECE010E94C60D182F672D70E0C40117
:102FE0000E945831072E000C880B990B0E948C2CE4
:102FF0002B013C01612F70E090E080E00E948A2C60
:10300000EE24E39410E000E0A30192010E944B152E
:103010008FEFA81AB80AD3CFDF91CF911F910F91EC
:10302000EF90DF90CF90BF90AF909F908F907F9068
:103030006F905F904F9008951F920F920FB60F926E
:1030400011242F933F934F935F936F937F938F93AD
:103050009F93AF93BF93EF93FF9380915A02909108
:103060005B02A0915C02B0915D02892B8A2B8B2BB5
:10307000D1F190915902E0915702F091580280816C
:103080008927808380915A0290915B02A0915C0213
:10309000B0915D02181619061A061B069CF4809161
:1030A0005A0290915B02A0915C02B0915D0201977F
:1030B000A109B10980935A0290935B02A0935C022C
:1030C000B0935D02FF91EF91BF91AF919F918F916E
:1030D0007F916F915F914F913F912F910F900FBE14
:1030E0000F901F901895809100010E940B03EACF6A
:1030F0001F920F920FB60F9211242F933F934F936D
:103100005F936F937F938F939F93AF93BF93EF934F
:10311000FF938AE093E00E940A02FF91EF91BF9132
:10312000AF919F918F917F916F915F914F913F915F
:103130002F910F900FBE0F901F9018951F920F9216
:103140000FB60F9211242F938F939F93EF93FF93BA
:10315000E0911A03F0911B038081E0912003F0912C
:10316000210382FD1BC09081809123038F5F8F73A9
:1031700020912403821741F0E0912303F0E0E65F01
:10318000FC4F958F80932303FF91EF919F918F9137
:103190002F910F900FBE0F901F9018958081F4CF44
:1031A0001F920F920FB60F9211242F933F938F937C
:1031B0009F93AF93BF9380914F0290915002A09143
:1031C0005102B091520230914E0223E0230F2D376D
:1031D00058F50196A11DB11D20934E0280934F0218
:1031E00090935002A0935102B093520280915302E7
:1031F00090915402A0915502B09156020196A11DE2
:10320000B11D8093530290935402A0935502B09342
:103210005602BF91AF919F918F913F912F910F9047
:103220000FBE0F901F90189526E8230F0296A11D40
:10323000B11DD2CF1F920F920FB60F9211242F9370
:103240003F934F935F936F937F938F939F93AF932E
:10325000BF93EF93FF938091B900887F803609F484
:103260004AC0F0F5883209F4A7C018F5803109F496
:103270009BC0B8F4882309F4F9C0883009F494C0DD
:10328000FF91EF91BF91AF919F918F917F916F913E
:103290005F914F913F912F910F900FBE0F901F9014
:1032A0001895883109F488C0803251F78093E20282
:1032B00014C0803409F49DC040F48033B9F38833DE
:1032C000F9F68093E20285ECB0C0803509F485C040
:1032D000883509F496C0883499F60E941315D0CF2A
:1032E000883909F48CC038F5883729F050F48836CD
:1032F00011F0803729F683E08093040310924D0289
:1033000057C0883809F47BC0803919F0803809F03B
:10331000B7CF80914D02803208F071C0E0914D022C
:1033200081E08E0F80934D028091BB00F0E0E35D61
:10333000FD4F80833DC0803B39F0E0F4803A09F4D2
:1033400079C0883A09F09CCF84E0809304031092FE
:103350002C0210922B02E0915E02F0915F0209951F
:1033600080912B0281110FC081E080932B0210927B
:103370000B0209C0803C09F4A6CF883C09F4A3CF16
:10338000883B09F07DCFE0912C0281E08E0F809385
:103390002C02F0E0E55FFD4F80818093BB009091AF
:1033A0002C0280912B0229C08091DF028093BB0008
:1033B00085EC8093BC0064CF9091E1028091E002A3
:1033C000981758F5E091E10281E08E0F8093E102B9
:1033D000F0E0E254FD4F8081E9CFE091E10281E02D
:1033E0008E0F8093E1028091BB00F0E0E254FD4F2C
:1033F00080839091E1028091E0029817C8F285E8FD
:10340000D8CFE091E10281E08E0F8093E1028091BC
:10341000BB00F0E0E254FD4F80838091E302811114
:103420005CCF81E08093DE0284EA8093BC0010923E
:10343000040326CF85EC8093BC0010920403809196
:103440004D02803230F4E0914D02F0E0E35DFD4F3B
:10345000108260914D0270E0E0916002F091610293
:103460008DE292E0099510924D020ACF1092E2028D
:1034700034CF1F920F920FB60F9211242F933F93C8
:103480004F935F936F937F938F939F93AF93BF936C
:10349000CF93DF93EF93FF932091B40330E0F901D2
:1034A000EE59FE4F8491F901E25BFE4FD491F90190
:1034B000E65CFE4FC491CC2379F081110E94B402E6
:1034C000EC2FF0E0EE0FFF1FE45EFE4FA591B491EC
:1034D000EC91ED2381E009F480E02091B903309173
:1034E000BA032F5F3F4F3093BA032093B903209163
:1034F000B7033091B8032536310518F094E0909366
:10350000B3039091B303911130C0811169C0209130
:10351000B9033091BA032436310528F41092BA0366
:103520001092B9035DC0109285041092B8031092F6
:10353000B7032091B7033091B803A9014F5F5F4FE4
:103540005093B8034093B7034091B9035091BA0325
:10355000220F331FF901E554FC4F51834083109231
:10356000BA031092B90391E021C09091B303913056
:1035700001F58130A9F52091B7033091B803A90175
:103580004F5F5F4F5093B8034093B7034091B90327
:103590005091BA03220F331FF901E554FC4F5183B8
:1035A00040831092BA031092B90392E09093B30350
:1035B00017C09091B303923061F4882309F4B9CF16
:1035C0002091B9033091BA032536310548F093E0D4
:1035D000EDCF9091B303933099F4882309F49ECFF3
:1035E0009091B6039923A9F0811126C08091B5036B
:1035F000882371F08091B50361E00E94DD0209C06B
:103600009091B303943061F791E090938504DFCFFC
:103610002D9AFF91EF91DF91CF91BF91AF919F9143
:103620008F917F916F915F914F913F912F910F906B
:103630000FBE0F901F9018958091B503882321F03D
:103640008091B50360E0D9CF2D98E3CFCF93DF937E
:10365000EAE0F3E01382128288EE93E0A0E0B0E0AB
:1036600084839583A683B78329E431E03183208363
:1036700025EC30E03587248724EC30E03787268737
:1036800020EC30E0318B208B21EC30E0338B228B2F
:1036900022EC30E0358B248B26EC30E0378B268B08
:1036A000118E128E138E148EC7EAD3E01B821A82FB
:1036B0008C839D83AE83BF838BE591E09983888360
:1036C0008AE090E00E94252A9093E6048093E50426
:1036D00082E090E00E94252A9093E4048093E30422
:1036E00082EC91E00E94252A9093E2048093E10409
:1036F000E3EBF3E084E08183138264E871E08BED17
:1037000094E00E94A014E2ECF4E04DE651E0518315
:10371000408380E582832FEF30E034832383168259
:1037200015821086178280E1EBECF4E0DF01982F20
:103730001D929A95E9F7E9EAF4E05183408390E617
:103740009283348323831682158210861782E2EBDC
:10375000F4E0DF011D928A95E9F767E871E08DE9F1
:1037600094E00E94A0146CE871E083EA94E00E9467
:10377000A014ECE8F4E081E1DF011D928A95E9F7FD
:10378000E6E8F4E080E48083D283C183DF91CF91C7
:103790000895CF93DF93CDB7DEB7EA970FB6F894CD
:1037A000DEBF0FBECDBF789484B5826084BD84B582
:1037B000816084BD85B5826085BD85B5816085BD2C
:1037C00080916E00816080936E00109281008091E4
:1037D000810082608093810080918100816080936C
:1037E0008100809180008160809380008091B10091
:1037F00084608093B1008091B00081608093B000BC
:1038000080917A00846080937A0080917A0082604F
:1038100080937A0080917A00816080937A00809111
:103820007A00806880937A001092C100E0911A03B8
:10383000F0911B0312E01083E0911603F09117033F
:103840001082E0911803F091190380E180831092B7
:103850002203E0911E03F0911F0386E08083E09134
:103860001C03F0911D03808180618083E0911C0323
:10387000F0911D03808188608083E0911C03F091AA
:103880001D03808180688083E0911C03F0911D03FB
:1038900080818F7D808385E090E0A0E0B0E0809320
:1038A0000E0390930F03A0931003B09311038EE9BE
:1038B00091E00E94990C1092A2021092A102109223
:1038C000BB021092BA020E94330489E891E09093FF
:1038D0005F0280935E028AE891E090936102809398
:1038E000600288E18093B800F8941092800089E02B
:1038F0008093810080E293E0909389008093880018
:10390000109285001092840010936F0078941092AA
:10391000B3031092B8031092B7038091B40360E030
:103920000E94370364E070E08BED94E00E94D913AD
:1039300061E08AE00E94370381E991E00E941A0D5C
:1039400069E8E62E62E0F62E00E110E0C8010E9470
:10395000C60DD7018D937D010F5F1F4F00321105FA
:10396000A9F71092A2021092A1021092BB0210922B
:10397000BA020E94330489E891E090935F02809339
:103980005E028AE891E0909361028093600240E8D1
:1039900060E086E894E00E949B086AE070E080E0C6
:1039A00090E00E949F0340E050E06AE774E486E8FC
:1039B00094E00E947B0A50E4C52E58E7D52E5DE7BF
:1039C000E52EFF24F394C0928904D0928A04E092F9
:1039D0008B04F0928C0440E050E060E773E486E8EA
:1039E00094E00E947B0AC0928F04D0929004E092EF
:1039F0009104F0929204C0928904D0928A04E092D9
:103A00008B04F0928C040E94280980E10E946803D4
:103A1000BC01990F880B990B611571058105910502
:103A200011F00E94E52B87E791E00E94990C90E04D
:103A300080E08C010F5F1F4F805C9E4F0E94C60D7F
:103A4000080F111DC801805C9E4F0E94C60D8E3468
:103A500019F0C8010496EDCF68E071E0C8018E5BF3
:103A60009E4F0E94B5138091C5049091C6040197A2
:103A700009F012C18DE991E00E941A0D82EC94E0E8
:103A80009093840280938302E0918502F0918602F4
:103A9000EE0FFF1FEF5CFE4F60817181809183020A
:103AA000909184020E949D0B0E94D20360937F023A
:103AB0007093800280938102909382028FEF93E053
:103AC0000E94C11760ED77E080E090E00E949F03C4
:103AD00083E991E00E94990C8CE891E00E94990C96
:103AE0008AE891E00E94990C83E891E00E94990C89
:103AF0000E94D20320E137E240E050E00E94282EED
:103B00008091010190910201092E000CAA0BBB0BC0
:103B100082179307A407B5070CF047C079013093CB
:103B200002012093010185E10E9468038C018A381B
:103B30009240BCF5809162029091630208171907C8
:103B400021F0E2E0EE16F10464F580EA91E00E94D3
:103B50007902C80163E670E00E9458316B01072EBC
:103B6000000CEE08FF0877FFC0C06DE28AE093E02A
:103B70000E942C0266277727CB016C197D098E09DC
:103B80009F094AE00E94B40C86E50E94A50C81EDD5
:103B900093E00E94C11760ED77E080E090E00E9422
:103BA0009F0310936302009362028BEB93E0909368
:103BB0007202809371028091B7039091B803909341
:103BC0007402809373028091850490E09093760252
:103BD000809375028091B303833009F0C1C0809156
:103BE000BD039091BE03875891098E35910508F069
:103BF000B1C08091B7039091B803049709F079C0E0
:103C00008091BF039091C0038097479708F071C0DF
:103C10008091C1039091C2030997099708F069C088
:103C20001092700210926F028FEF9FEFDC01809371
:103C3000690290936A02A0936B02B0936C0283E0D6
:103C400090E0909366028093650280916902909162
:103C50006A02A0916B02B0916C02892F9A2FAB2F50
:103C6000BB27823609F48FC108F063C1803309F4A1
:103C700099C108F048C1803109F49DC108F0F1C034
:103C80006CED71E0823009F4F4C066ED71E0CE01B4
:103C900081960E94A014F1C082EC94E00E941E0B59
:103CA000882309F4E7CE8CEA91E00E941A0D8091F6
:103CB000AC049091AD04019789F48DE991E00E94E4
:103CC0001A0D89EA94E0909384028093830268EE4F
:103CD00073E080E090E00E949F03D6CE89EA94E0F2
:103CE0000E941E0B8111F3CFE8CF4AE0C701B60155
:103CF00049CF8091B7039091B8038434910550F176
:103D00008091BF039091C003815491098F9710F562
:103D100090E080E040E050E0BA01FC01EF53FC4F3E
:103D200020813181295031092930310598F4FC0175
:103D3000ED53FC4F2081318127513109223131056A
:103D400008F471C0208131812650310927303105B6
:103D500008F482C01092B3031092B8031092B70314
:103D60008AE093E00E94EA01181619068CF582E0B9
:103D700080939B028AE093E00E94C801182F8093F1
:103D80009C0261E070E080E090E00E949F031B34A1
:103D900009F0AAC1E090E104F090E20410E000E034
:103DA0008AE093E00E94EA01892B51F08AE093E0D7
:103DB0000E94C801F701E00FF11F80830F5F1F4FC2
:103DC000F8013197EE0DFF1D80818E3749F7108283
:103DD00019A21AA282E08093040118AA1FA680915A
:103DE0008502909186022FA538A98217930709F0C2
:103DF00044C3E0908302F0908402F901EE0FFF1FAC
:103E0000EF5CFE4F80809180D70113968D919C913D
:103E1000009719F0019709F4BEC1B401C7010E94CF
:103E20002C076C01ACC2440F551F661F771F416001
:103E300004968038910509F070CF80E290E090936D
:103E4000700280936F024093690250936A026093FC
:103E50006B0270936C02F3CE440F551F661F771FE1
:103E6000E7CF883109F4A1C064EE71E0823209F035
:103E70000CCFCE0181960E94E5146FEB71E0CE016C
:103E800081960E94260D882309F4A1C061EC71E09F
:103E90008BED94E00E946A146BED74E0CE0187967E
:103EA0000E944E14CE0181960E944F0D66ED71E086
:103EB000CE0187960E94260D81111AC00091E5045B
:103EC0001091E6046FA178A5C8010E946232D80162
:103ED0000D900020E9F7CD0102978017910709F0B6
:103EE00001C1F801808180939C0281E080939B0254
:103EF0001092B3031092B8031092B703CE018796C5
:103F00000E944F0D2DCF8A3409F45BC048F48833EA
:103F100009F454C063EB71E0823409F4AACFB5CE42
:103F2000823509F451C066EB71E08A3509F4A1CFFE
:103F3000ACCE823A29F188F48A37D1F130F461EDC0
:103F400071E0883609F495CFA0CE803941F16EEC4E
:103F500071E0883909F48DCF98CE823CB9F040F4F5
:103F6000883AD1F06BEC71E0803B09F482CF8DCEC2
:103F7000803E79F066EE71E0823E09F47ACF85CE1C
:103F80006AEE71E076CF68EE71E073CF6AED71E0B2
:103F900070CF68ED71E06DCF66ED71E06ACF64EDD2
:103FA00071E067CF68EC71E064CF64EC71E061CFE1
:103FB00060EC71E05ECF6DEB71E05BCF6AEB71E0BE
:103FC00058CF60EB71E055CF6BEA71E052CF64ECF3
:103FD00071E0CE0181960E94260D811110C066EC21
:103FE00071E0CE0181960E94260D811108C068EC17
:103FF00071E0CE0181960E94260D8823D1F18DA11A
:104000009EA1892B21F0E9A1FAA1309721F4109209
:104010006402E4E6F2E0108110930301163431F4F7
:1040200064E871E08BED94E00E946A146BED74E03B
:10403000CE0101960E944E141FA318A641E050E045
:10404000BE01695D7F4FCE0101960E94011481116E
:1040500004C0CE0101960E943D0DBE016F5F7F4FEF
:10406000CE0187960E944E14CE0101960E944F0DFC
:1040700019CF6AEC71E0CE0181960E94260D811164
:104080001EC06DEC71E0CE0181960E94260D81115B
:1040900016C064E871E0CE0181960E94260D811160
:1040A0000EC018A61FA21AA619A61CA61BA6BE0102
:1040B0006F5D7F4FCE0187960E948D0DF3CE69A173
:1040C0007AA16115710549F04DA15EA18BED94E0D7
:1040D0000E942D1410910301A9CF8BED94E00E9452
:1040E0003D0DF8CF8BE6FFCE8AE093E00E94EA0117
:1040F000181619060CF06CCE66ED71E0CE018196B3
:104100000E94A014193439F084EB810F823018F02A
:104110006AE0123409F46EE7CE0101960E94B114F0
:10412000BE016F5F7F4FCE0181960E948D0DCE0143
:1041300001960E944F0D2DA13EA13093880220933D
:10414000870280919C028B3611F0843789F480912C
:10415000E5049091E60449A15AA1DC01FA01BF01EE
:10416000641B750B6217730744F461916D93F7CF6D
:104170008091E1049091E204EECF820F931FDC0165
:104180001C92CE0181960E944F0D22CEE1E0F0E01C
:10419000F8ABEFA724CEF70185819681DC01ED9184
:1041A000FC910480F581E02DAE014F5F5F4F6FE120
:1041B0000995D12CC12C8111E2C0FEA6EDA6312CAF
:1041C000212CD12CC12CBB24B394B20CE1E0F0E043
:1041D000022C02C0EE0FFF1F0A94E2F7FCABEBAB20
:1041E000CF0188219921892B09F4BBC0ADA5BEA5BB
:1041F0001996ED91FC91309709F4B3C099818081B3
:10420000981709F4AEC061E0C7010E948E08F7015B
:1042100005811681D801ED91FC910284F385E02D92
:104220004B2D60E2C80109956111A9C0D801ED913B
:10423000FC910084F185E02DAE014E5F5F4F64E399
:10424000C801099561119BC08A81882309F476C051
:10425000D801ED91FC910084F185E02DAE014F5F16
:104260005F4F6FE1C8010995611189C08A81811191
:1042700081E08A83FE0131965F01412C512C32018D
:104280008A8190E0B0E0A0E0481659066A067B06F5
:1042900008F054C0D801ED91FC910284F385E02D23
:1042A00041E0440D65E3C8010995F5013596FAAB87
:1042B000E9AB611164C0A5014E5F5F4FD801ED917C
:1042C000FC910084F185E02D60E4C8010995A50109
:1042D0004D5F5F4FD801ED91FC910084F185E02D99
:1042E00061E4C8010995A5014C5F5F4FD801ED91CC
:1042F000FC910084F185E02D62E4C8010995D801A4
:10430000ED91FC910084F185E02D49A95AA963E45F
:10431000C8010995A5014A5F5F4FD801ED91FC9155
:104320000084F185E02D64E4C8010995BFEF4B1AC4
:104330005B0A6B0A7B0AA9A8BAA8A2CF60E0C701F2
:104340000E948E08EDA5FEA5A185B28587E0FE013D
:10435000319601900D928A95E1F72BA93CA9C22ACA
:10436000D32A3FEF231A330A4DA55EA54E5F5F4F58
:104370005EA74DA758E02516310409F024CFC820C8
:10438000D920CD2809F440CD80E080FC04C096946B
:1043900087948F5FFACF282F30E0220F331FE20E71
:1043A000F31ED7011996ED91FC91309791F1893068
:1043B00080F581810091850210918602E1E2F0E0B2
:1043C000EC0FFD1FE00FF11F91E0811101C090E0A3
:1043D0009083882309F451C00E94D20360937F0226
:1043E00070938002809381029093820220918302D5
:1043F00030918402000F111FF801EF5CFE4F4081E5
:104400005181BA0180E060FD06C0769567958F5FA7
:10441000FACF80E0CFCFE82FF0E0EE0FFF1FE20FE2
:10442000F31F0184F285E02D309779F0893068F42C
:10443000828190E090937E0280937D0280E040FD37
:1044400006C0569547958F5FFACF80E0F2CF482F90
:1044500050E0440F551F240F351FD9011996ED91D7
:10446000FC91309709F4E1C1893008F0DEC1838105
:1044700090E090937C0280937B02EFA5F8A931979E
:1044800009F084CE89A1811104C08AA1882309F48E
:10449000D0C180917D0290917E02C29720EE3FEFC5
:1044A000813AFFEF9F0754F020E230E0803691051B
:1044B0002CF463E070E00E9458319B0180917B02F4
:1044C00090917C02C29768EE7FEF893B4FEF940793
:1044D0004CF068E170E08834910524F463E070E00A
:1044E0000E945831C90137FF04C088279927821BD1
:1044F000930B039754F4CB0177FF04C088279927C7
:10450000861B970B03970CF4F9C000917902109168
:104510007A02021B130B0B35110514F00AE510E0AB
:10452000063A5FEF150714F406EA1FEF10937A02BC
:1045300000937902E0907702F0907802E61AF70A89
:104540008CE4E816F1041CF08BE4E82EF12C95EBDA
:10455000E9169FEFF90624F4B5EBEB2EFF24FA944D
:10456000F0927802E0927702FE0133968EE0DF014E
:104570001D928A95E9F71A830983B701F7FE02C0F5
:104580006F5F7F4F759567957195619571099B0177
:10459000245C3F4FC80166E070E00E945831620F12
:1045A000731F7A8B698BC8016AEF7FEF0E945831C5
:1045B000620F731F7C8B6B8BC70163E070E00E94FE
:1045C0005831665A7F4FC80117FD0796F3E095955D
:1045D0008795FA95E1F7FB01E81BF90BFE8BED8B54
:1045E000C80117FD0796E3E095958795EA95E1F7F1
:1045F000860F971F988F8F8BB7010F2C000C880B9D
:10460000990B0E948C2C2AE939E949E95FE30E9461
:10461000CB2E20E030E040E251E40E945A2E4B01C4
:104620005C01B80117FF02C06F5F7F4F75956795FA
:10463000072E000C880B990B0E948C2C2B013C013F
:10464000AC019B01C501B4010E94592E0E943D2F6F
:104650007A8F698FA3019201C501B4010E945A2E7D
:104660000E943D2F7C8F6B8FC7016DEF7FEF0E9403
:1046700058316E517109C80117FD039695958795BC
:1046800095958795860F971F9E8F8D8F17FF02C078
:104690000D5F1F4F1595079515950795601B710BBD
:1046A00078A36F8F80E190E09093880280938702D7
:1046B0008CE480939C026091E1047091E204DB0140
:1046C0009E012F5F3F4F40E0F901819191919F0141
:1046D0008F3791050CF0ABC08038FFEF9F0714F4C3
:1046E00080E89FEF8D934F5F403171F7DB0150966B
:1046F0001C924093040186E080939B0260919B0290
:10470000662309F442C1F0909C02653010F5E2E6A0
:10471000FE16F9F0FCE4FF16E1F029E4F216C9F008
:104720008CE88F0D8230A8F070E06B5F7F4F660FD2
:10473000771F072E000C880B990B0E948C2CEE24FF
:10474000E39410E000E020E030E048E452E40E940E
:104750004B1580919A028356823050F433E6F3165B
:1047600039F088EB9BE00E946B0A87E40E94A50C5D
:1047700080919C02803751F080919902811106C08E
:1047800081E08093990280E70E94A50C10919C0221
:10479000E6ECE10FE13408F09EC00E2E000CFF0B9A
:1047A000EC52FC4D0C946C31FA28F5286B246B24E8
:1047B0006B246B246B246B24FC276B246B246B24ED
:1047C0006B246B246B24A5276B244B28EA27A52791
:1047D0006B246B246B246B246B24F9253B286B24FE
:1047E0006B246B246B246B246B246B246B246B2451
:1047F0006B246B246B24E325F925F925FD286B2414
:104800006B246B246B24F9255225DF286B24F925B2
:104810006B24852541256B245E248A25F925F925FD
:104820006B246B246B246B245E2480E021CE8FE705
:1048300059CF0E94D20300917F02109180022091F3
:10484000810230918202601B710B820B930B613DE0
:1048500077408105910508F451CF809185029091B0
:104860008602019681709927909386028093850233
:10487000880F991FFC01EF5CFE4F60817181809170
:104880008302909184020E949D0B209185023091B9
:10489000860246E0429FC001439F900D112483563B
:1048A0009B4F0E94860C0E94D20360937F027093FC
:1048B0008002809381029093820220CF1A3709F000
:1048C000D3C08091060191E0892780930601811170
:1048D0001AE510939C0280919C028B3621F49091F2
:1048E000A9021916D4F40E94A50C10919C02812FE4
:1048F000012E000C990B0E944832873621F0823637
:1049000011F01A3621F480919A028B3619F01B7F30
:10491000103719F48BE680939C020091E504109106
:10492000E6046CED71E0C8010E945932F0909C02DF
:10493000892B09F1E9E4FE16F1F085EB8F0D833048
:10494000D0F08091E3049091E404009711F00E946C
:10495000C12A81E090E00E94252AF8010190002000
:10496000E9F7E01BDC01EC939093E4048093E3040B
:10497000B8010E94623210929B02F0929A028F2D2F
:10498000877F833611F010929C0280919C028B36B7
:1049900009F0C8C41091A90217FF46C48091B6025D
:1049A000DD24DA94D80E823008F4D12C10E08EEC9D
:1049B000C82E92E3B92E212F30E08091A902082E53
:1049C000000C990B97FF03C09195819591092817C9
:1049D00039070CF0A7C4E090B802F090B9028091BA
:1049E000AE02189FE00CF11C1124F7016089062E1D
:1049F000000C770B880B990B0E948C2C20E030E088
:104A000040E85EE30E94EB2C9B01AC0100E060916A
:104A1000B302C7010E94D1108091AE02E091B802AA
:104A2000F091B902189FE00DF11D1124618916164D
:104A30000CF0F5C3FB2D6F02B0011124072E000C02
:104A4000880B990B0E949F03DD2061F0112351F028
:104A50008091B502181306C01091B40211501D14B4
:104A60000CF4DA941F5FA7CF123709F034CF80918E
:104A7000050181958093050118160CF02ACF12E5E7
:104A800028CF8091990291E0811190E09093990252
:104A9000811110E510939C02882309F41CCF0E9419
:104AA000280919CF0E94F80C66ED71E0CE018196BD
:104AB0000E94A01407E011E0D8016D917D918D0155
:104AC000CE0101960E9474144D815E8169817A81C4
:104AD000CE0181960E940114CE0101960E944F0DD5
:104AE00042E050E064ED71E0CE0181960E94011435
:104AF000B1E007321B0701F7CE0181960E94860CB8
:104B0000CE0181960E944F0DE6CE86EC93E00E9486
:104B1000C117E1CE8EE192E00E94990C09E8802E47
:104B200002E0902E80E4E82EF12C00E110E0F40188
:104B3000D1904F01C8010E94A92DD81621F06D2DEA
:104B4000C8010E94B12DC7010E94590E6C01C80115
:104B500080960E94C60DB82EF40131976081062E12
:104B6000000C770B880B990B0E948C2C2B013C01BD
:104B70006B2DBB0C770B880B990B0E948C2C9B0127
:104B8000AC01C301B2010E94EB2C2B013C01B60128
:104B9000DD0C880B990B0E948C2C9B01AC01C3018E
:104BA000B2010E945A2E0E943D2FC70180960E949A
:104BB000B5130F5F1F4FF2E0EF0EF11C003211052D
:104BC00009F0B5CF88CE86E192E00E94990C19E8F1
:104BD000E12E12E0F12E00E110E0C8010E94C60DA6
:104BE000D7018D937D010F5F1F4F00321105A9F78B
:104BF00072CEE7E0F1E0DE0111961D018191919105
:104C00008D939D9321E0E732F207C1F78091E5048F
:104C10009091E604143721F08091E1049091E20430
:104C200060ED71E00E941C2C6C01C114D10409F4E8
:104C3000CEC0C6010E94EE2B8C0163ED71E090E0C6
:104C400080E00E941C2C6C01F12CE12C992493949F
:104C5000009761F00E94EE2B7C0163ED71E090E023
:104C600080E00E941C2C6C01B2E09B2EF801EE0F3C
:104C7000FF1FE20DF31DF182E08280919C028336DA
:104C800009F0ABC088EB9CE00E946B0A1092060111
:104C900080919A02833661F0A090E504B090E6041A
:104CA0006EE771E0C5010E946232C5010E94571291
:104CB000A80147575D4F5A0152E0951202C0D50135
:104CC000EC92C8018096880F991F0E94590E7C01B2
:104CD000C8019927C0960E94C60D182FF501608162
:104CE000062E000C770B880B990B0E948C2C4B0125
:104CF0005C01612F110F770B880B990B0E948C2C94
:104D00009B01AC01C501B4010E94EB2C4B015C017D
:104D1000B701FF0C880B990B0E948C2C9B01AC01F6
:104D2000C501B4010E945A2E0E943D2F072E000C8F
:104D3000880B990B0E948C2CAB01BC01802F0E9428
:104D40006D0E0E94F80C66ED71E0CE0187960E9410
:104D5000A01409E812E0D8016D918D01062E000C17
:104D6000770BCE0181960E9474144DA15EA169A1BA
:104D70007AA1CE0187960E940114CE0181960E94ED
:104D80004F0D42E050E064ED71E0CE0187960E9445
:104D90000114E9E9F2E0E017F107E9F6CE018796A0
:104DA0000E94860CCE0187960E944F0DC114D1043B
:104DB00009F03BCF80919C02893609F08CCD40E010
:104DC00050E060E070E4C1010E94820F84CDF12CBC
:104DD000E12C10E000E0912C49CF8D3641F440E009
:104DE00050E060E070E4C1010E94820FDFCF8335A4
:104DF00041F4C80199270E94C60DB7010E941F0AFD
:104E0000D5CF843799F2853709F085C00E94962B5B
:104E10002AE030E040E050E00E94BF2D645269ABD0
:104E20000E94962B2AE030E040E050E00E94BF2D27
:104E30006E526FA70E94962B4B015C010E94962B2D
:104E400022E030E040E050E00E94BF2D6F5F6BAB8E
:104E5000C501B40124E030E040E050E00E94BF2DE5
:104E60006E5F7F4F8F4F9F4F262F220F220F620FB3
:104E7000262F30E0A8EEB3E00E944A2E6DAB7EAB49
:104E80008FAB98AF10E03FA5232F30E03AAF29AFAA
:104E90004BA9141708F08ACF0FA5F12CE12C59A9C2
:104EA0000517B8F589AC9AAC8E0C9F1CC401880F0D
:104EB000991F880F991FDC011597BEA7ADA7880C15
:104EC000991CB12CA12C412C512C32012DA93EA9A9
:104ED0004FA958AD4216530664067506ACF461E05E
:104EE00085E00E94DD028DA59EA50197F1F760E0A7
:104EF00085E00E94DD028DA59EA50197F1F7480C83
:104F0000591C6A1C7B1CE2CF0F5F3FEFE31AF30AC8
:104F1000C6CF1F5FBDCF823609F048CFB701FF0C67
:104F2000880B990B0E948C2C4B015C01B801110F6E
:104F3000880B990B0E948C2CEE24E39402E310E082
:104F4000A50194010E944B1531CFE7E0F1E0DE01AD
:104F5000119687E291E07D01219131912D933D934E
:104F60008E179F07C9F710E000E020919C02809106
:104F700087029091880208171907F4F4A091E104C0
:104F8000B091E204A00FB11FEC91EE0FFF0BEE0DFC
:104F9000FF1D11968C91082E000C990B9183808334
:104FA0002D3439F440E050E060E070E4C7010E9425
:104FB000820F0E5F1F4FD9CF293409F08CCC60913E
:104FC000040170E090E080E00E948A2CAB01BC01FB
:104FD000C701FACE6091040170E090E080E00E9489
:104FE0008A2C9B01AC0100E061E08091E10490918A
:104FF000E2040E94D1106FCCF12C68EEC62E63E063
:10500000D62E2F2D30E0809187029091880297FD57
:10501000019695958795281739070CF0FFC10091E7
:10502000E1041091E204220F331F020F131FD80175
:1050300011966C91062E000C770BC6010E94583118
:10504000072E000C880B990B0E948C2C4B015C01E5
:10505000F8016081062E000C770B880B990B0E94DB
:105060008C2CEE24E39410E000E0A50194010E9452
:105070004B15F394C6CF86E191E00E94590E0E9431
:1050800077090E94421280919C020E94A50C8BE637
:1050900080939C0220CC84E191E00E94590E8C0107
:1050A0000E94962B6B017C0184E191E00E94590ED5
:1050B000092E000CAA0BBB0B2CE03EE140E050E0B7
:1050C000281B390B4A0B5B0BC701B6010E94BF2D91
:1050D000060F171FB80186E191E00E94B513A0905A
:1050E000E104B090E204D5016C916093A9028EEACC
:1050F00092E00E94CB0801967C01D12CC12C552452
:10510000539434E5432E1E141F049CF55092BD02A7
:105110004092BC021092BB021092BA02612F70E062
:1051200087EA93E00E94E808B801772787EA93E0CE
:105130000E94E80845018C0C9D1C3801B0E16B0E03
:10514000711C0115E0E21E07B9F40E94820C8CEE7E
:1051500091E00E94990C22E0E22E02E310E020E0B0
:1051600030E048EC52E460E070E080E291E40E94BC
:105170004B150E9442128BCFFFEFCF1ADF0AD401EA
:105180006D914D0187EA93E00E9491050F5F1F4FDB
:10519000B1E0EB1AF10841F0C8018F719927892B12
:1051A00019F06016710669F687EA93E00E94C0055F
:1051B00066E070E080E090E00E949F03A4CFE09062
:1051C000E504F090E604B7018091E3049091E404D3
:1051D0000E945932892B29F48091A90282300CF067
:1051E0001BC1C7010E94571276CB88EB9BE00E943F
:1051F0006B0A71CB88EB9CE0FACF0091E50410912B
:10520000E60467ED71E0C8010E946232C8010E94A5
:1052100057120E94280987E60E94A50C5CCB2C2D12
:105220006202B00111240ACC8091A502803108F4F9
:10523000CBC02091A3023091A4021092A5028091CC
:105240009902820F932F911D212F012E000C330BF9
:10525000821793070CF0B4C09093A4028093A3022A
:105260008091A502843019F488E08093A502009112
:10527000A5022091B702C090A302D090A402E02E14
:10528000F12C021708F0A9C012300CF4A6C0812C32
:10529000912C5401013059F06091A802062E000CA7
:1052A000770B880B990B0E948C2C4B015C0132E030
:1052B000E30EF11CEC9CB001ED9C700DFC9C700D9C
:1052C0001124072E000C880B990B0E948C2C2BEDBF
:1052D0003FE049E450E40E94EB2C6B017C01612F1C
:1052E000110F770B880B990B0E948C2C9B01AC0142
:1052F000C701B6010E94CB2E0E94073020E030E0AB
:1053000040E251E40E94EB2CA50194010E945A2E28
:10531000AB01BC01802F0E94DC0E8091A5028F5F43
:105320008093A5028091A90287FF3AC00091E5040D
:105330001091E60466ED71E0C8010E946232E091CE
:10534000B802F091B9028091A902082E000C990BC5
:1053500097FF03C091958195910901972091AE0225
:10536000289FD001299FB00D1124AE0FBF1FCF0180
:1053700040962D9121938E179F07D9F781E0809356
:10538000A9021092A4021092A302F801808188233E
:1053900019F0C8010E94571280919C020E94A50C2E
:1053A00080E090E0892B11F40C94781D0E94F601A6
:1053B000882311F40C94781D0E9400000C94781D31
:1053C0001092A4021092A3028091A502823009F0EB
:1053D00047CF88E08093A50243CF3091AE023C9D39
:1053E000C0013D9D900D1124E80EF91EE21AF1084E
:1053F0008091B8029091B902E80EF91E6091B30253
:10540000D7012C912603B0011124072E000C880B24
:10541000990B0E948C2C7CCF812F61CA80919C02B9
:1054200062CA83EA94E00E944F0D8DE994E00E94E5
:105430004F0D89EA94E00E94570D82EC94E00E949F
:10544000570D8BED94E00C944F0D0F931F93CF935A
:10545000DF938230910510F482E090E0E091EB045C
:10546000F091EC0430E020E0B0E0A0E0309799F457
:105470002115310509F44AC0281B390B24303105A8
:10548000D8F58A819B816115710589F1FB019383B0
:105490008283FE0111C0408151810281138148172E
:1054A0005907E0F04817590799F4109761F01296E0
:1054B0000C93129713961C933296CF01DF91CF91E4
:1054C0001F910F9108950093EB041093EC04F4CF17
:1054D0002115310551F04217530738F0A901DB01BE
:1054E0009A01BD01DF01F801C1CFEF01F9CF90931F
:1054F000EC048093EB04CDCFFE01E20FF31F819308
:1055000091932250310939832883D7CF2091E90420
:105510003091EA04232B41F42091290130912A0192
:105520003093EA042093E904209127013091280167
:105530002115310541F42DB73EB740912B01509113
:105540002C01241B350BE091E904F091EA04E217E9
:10555000F307A0F42E1B3F0B2817390778F0AC0196
:105560004E5F5F4F2417350748F04E0F5F1F509373
:10557000EA044093E904819391939FCFF0E0E0E047
:105580009CCFCF93DF930097E9F0FC013297138211
:105590001282A091EB04B091EC04ED0130E020E028
:1055A0001097A1F420813181820F931F2091E9048B
:1055B0003091EA042817390709F061C0F093EA0432
:1055C000E093E904DF91CF910895EA01CE17DF0758
:1055D000E8F54A815B819E0141155105B1F7E9016A
:1055E000FB83EA8349915991C40FD51FEC17FD073E
:1055F00061F4808191810296840F951FE90199835E
:105600008883828193819B838A83F0E0E0E0129615
:105610008D919C9113970097B9F52D913C9111971D
:10562000CD010296820F931F2091E9043091EA0484
:105630002817390739F6309751F51092EC0410927B
:10564000EB04B093EA04A093E904BCCFD383C283F4
:1056500040815181840F951FC817D90761F44E5FAF
:105660005F4F88819981480F591F518340838A81F8
:105670009B81938382832115310509F0B0CFF0938C
:10568000EC04E093EB049ECFFD01DC01C0CF13825C
:105690001282D7CF8F929F92AF92BF92CF92DF921A
:1056A000EF92FF92CF93DF93EC01688179818A8139
:1056B0009B81611571058105910521F464E279ED05
:1056C0008BE597E02DE133EF41E050E00E94BF2DE4
:1056D00049015A019B01AC01A7EAB1E40E94DE2D09
:1056E0006B017C01ACEEB4EFA50194010E94EC2D9E
:1056F000C60ED71EE81EF91EF7FE06C081E0C81AC6
:10570000D108E10880E8F80AC882D982EA82FB82DF
:10571000C701B6019F77DF91CF91FF90EF90DF90A7
:10572000CF90BF90AF909F908F9008958F929F924F
:10573000AF92BF92CF92DF92EF92FF9260912D01D4
:1057400070912E0180912F019091300161157105AA
:105750008105910521F464E279ED8BE597E02DE177
:1057600033EF41E050E00E94BF2D49015A019B01F7
:10577000AC01A7EAB1E40E94DE2D6B017C01ACEE26
:10578000B4EFA50194010E94EC2DC60ED71EE81EB1
:10579000F91EF7FE06C081E0C81AD108E10880E8CA
:1057A000F80AC0922D01D0922E01E0922F01F092C2
:1057B0003001C701B6019F77FF90EF90DF90CF9047
:1057C000BF90AF909F908F90089560932D0170933C
:1057D0002E0180932F01909330010895FC018827BA
:1057E0009927E89421912032E9F3293010F02E30E6
:1057F000C8F32B3241F02D3239F4689404C00E9472
:10580000532C820F911D219120532A30C0F31EF496
:10581000909581959F4F0895FB01DC0105900D92B5
:105820000020E1F70895FC0105900020E9F780953C
:1058300090958E0F9F1F089547EE54E00E94212CF3
:105840000895FA01A191B081009719F41097E1F041
:10585000CD01DC01CD010D90002011F4C00113C079
:10586000FB012191222319F02015D9F7F3CFFB0179
:105870002191201519F41E92119606C02223C1F71A
:105880000D900020A1F7D001FA01A193B0830895F3
:10589000BB274A3031F4992322F4BDE290958195DB
:1058A0009F4F0C945C2C7AE0979F902D879F802DC2
:1058B000910D11240895BB27FB015527AA27880FB6
:1058C000991FAA1FA41710F0A41B83955051B9F774
:1058D000A05DAA3308F0A95DA193009779F7B111F3
:1058E000B1931192CB010C94752CDC01FC01672F54
:1058F00071917723E1F7329704C07C916D937083A7
:105900006291AE17BF07C8F308950E94C72C08F430
:1059100081E00895E89409C097FB3EF49095809546
:10592000709561957F4F8F4F9F4F9923A9F0F92F65
:1059300096E9BB279395F695879577956795B795E3
:10594000F111F8CFFAF4BB0F11F460FF1BC06F5FC9
:105950007F4F8F4F9F4F16C0882311F096E911C0DB
:10596000772321F09EE8872F762F05C0662371F0FC
:1059700096E8862F70E060E02AF09A95660F771F10
:10598000881FDAF7880F9695879597F90895990FEC
:105990000008550FAA0BE0E8FEEF16161706E807F9
:1059A000F907C0F012161306E407F50798F0621B1A
:1059B000730B840B950B39F40A2661F0232B242BEF
:1059C000252B21F408950A2609F4A140A6958FEF0E
:1059D000811D811D08950E94FE2C0C946F2D0E9444
:1059E000612D38F00E94682D20F0952311F00C9461
:1059F000582D0C945E2D11240C94A32D0E94802D03
:105A000070F3959FC1F3950F50E0551F629FF00111
:105A1000729FBB27F00DB11D639FAA27F00DB11D2A
:105A2000AA1F649F6627B00DA11D661F829F2227B3
:105A3000B00DA11D621F739FB00DA11D621F839F3A
:105A4000A00D611D221F749F3327A00D611D231F10
:105A5000849F600D211D822F762F6A2F11249F575E
:105A600050409AF0F1F088234AF0EE0FFF1FBB1F61
:105A7000661F771F881F91505040A9F79E3F510520
:105A800080F00C94582D0C94A32D5F3FE4F3983EC6
:105A9000D4F3869577956795B795F795E7959F5FCA
:105AA000C1F7FE2B880F911D9695879597F908955C
:105AB00097F99F6780E870E060E008959FEF80ECC1
:105AC000089500240A941616170618060906089564
:105AD00000240A9412161306140605060895092ECA
