:100000000C9422010C944A010C944A010C944A016C
:100010000C944A010C944A010C944A010C946E14FD
:100020000C944A010C944A010C944A010C948B16CE
:100030000C944A010C944A010C944A010C944A0114
:100040000C9422150C944A010C94F0140C94CA14CC
:100050000C944A010C944A010C944A010C944A01F4
:100060000C946C150C944A0105A84CCDB2D44EB931
:100070003836A9020C50B9918688083CA6AAAA2A4B
:10008000BE000000803F07634236B79BD8A71A39ED
:10009000685618AEBAAB558C1D3CB7CC5763BD6DD6
:1000A000EDFD753EF6177231BF000000803F08007D
:1000B0000000BE922449123EABAAAA2ABECDCCCCE7
:1000C0004C3E00000080BEABAAAAAA3E0000000081
:1000D000BF000000803F0000000000084178D3BB53
:1000E0004387D1133D190E3CC3BD4282AD2B3E6800
:1000F000EC8276BED98FE1A93E4C80EFFFBE01C4F1
:10010000FF7F3F0000000000010000010000000030
:100110000000000000000000000000007520006BDF
:10012000736974006952616E64000000000023006E
:100130002600290000000000240027002A000000FB
:100140000008000201000003040700000000000096
:100150000000024C6F616420736B696C6C73005219
:100160006561647921004E7962626C65000A2A201B
:100170005374617274202A003E004C6F7720706FB8
:100180007765723A002401240124011F011C017AC1
:1001900000627574745570007374616E64007065EC
:1001A000650070750068690073747200736974008B
:1001B000747200776B006372007674006300420013
:1001C0007000520062616C616E6365004C006700F4
:1001D0004600640049324320454550524F4D206F40
:1001E000766572666C6F77212044656C6574652056
:1001F000736F6D6520736B696C6C73210A006162AB
:100200006F72746564007361766564003F0001027B
:100210000408102040800102040810200102040894
:10022000102000000000250028002B000404040416
:100230000404040402020202020203030303030390
:100240007817592411241FBECFEFD8E0DEBFCDBFF1
:1002500011E0A0E0B1E0EAEAF9E502C005900D92F4
:10026000A43AB107D9F724E0A4EAB1E001C01D9295
:10027000AD37B207E1F711E0C1E2D1E004C0219748
:10028000FE010E94C72BC032D107C9F70E94601837
:100290000C94C82C0C94000080E090E0A0E0B0E446
:1002A0008093620290936302A0936402B09365020C
:1002B000E0917104F09172048181082E000C990B79
:1002C00090936802809367028281082E000C990B3C
:1002D00090936A0280936902838180936B0280917C
:1002E000610287FF0CC0848180936C0285818093BA
:1002F0006D02868180936E0287E090E005C08130B8
:1003000061F05CF084E098E090936F02E80FF11DDB
:10031000F0937102E0937002089584E0EECF809133
:10032000550290915602891B990B089508950895DE
:100330000895AF92BF92CF92DF92EF92FF920F9308
:100340001F93CF93DF936C017B018B01040F151F6B
:10035000EB015E01AE18BF08C017D10759F06991D3
:10036000D601ED91FC910190F081E02DC601099537
:10037000892B79F7C501DF91CF911F910F91FF90E4
:10038000EF90DF90CF90BF90AF900895FC01538D18
:10039000448D252F30E0842F90E0821B930B54175F
:1003A00010F0CF96089501970895FC01918D828DEC
:1003B000981761F0A28DAE0FBF2FB11D5D968C9185
:1003C000928D9F5F9F73928F90E008958FEF9FEFC4
:1003D00008952FB7F8948091590290915A02A091F4
:1003E0005B02B0915C022FBF8093CA029093CB0254
:1003F000A093CC02B093CD0282EC92E00E94D50192
:1004000097FF26C02FB7F8948091590290915A0215
:10041000A0915B02B0915C022FBF4091CA02509143
:10042000CB026091CC027091CD02841B950BA60B80
:10043000B70B4091C6025091C7026091C8027091FB
:10044000C90284179507A607B707B0F28FEF9FEF91
:100450000895FC01918D828D981731F0828DE80FFF
:10046000F11D858D90E008958FEF9FEF0895FC01B9
:10047000918D228D892F90E0805C9F4F821B910986
:100480008F739927089582EC92E00E94370221E051
:10049000892B09F420E0822F089580E090E0892BD9
:1004A00029F00E94430281110C9400000895FC0180
:1004B000A48DA80FB92FB11DA35ABF4F2C91848DC5
:1004C00090E001968F739927848FA689B7892C9322
:1004D000A089B1898C91837080648C93938D848D75
:1004E000981306C00288F389E02D80818F7D808378
:1004F0000895EF92FF920F931F93CF93DF93EC0138
:1005000081E0888F9B8D8C8D98131AC0E889F989BA
:10051000808185FF15C09FB7F894EE89FF896083BD
:10052000E889F98980818370806480839FBF81E03E
:1005300090E0DF91CF911F910F91FF90EF90089580
:10054000F62E0B8D10E00F5F1F4F0F731127E02E5B
:100550008C8D8E110CC00FB607FCFACFE889F98993
:10056000808185FFF5CFCE010E945702F1CFEB8D40
:10057000EC0FFD2FF11DE35AFF4FF0829FB7F89467
:100580000B8FEA89FB8980818062CFCF0F931F9305
:10059000CF93DF938C01D0E0C0E0F801EC0FFD1F9A
:1005A0006491662341F082EC92E00E947902892BEB
:1005B00011F02196F2CFCE01DF91CF911F910F91D3
:1005C0000895CF93DF93EC01888D8823B9F0AA8931
:1005D000BB89E889F9898C9185FD03C0808186FDFE
:1005E0000DC00FB607FCF7CF8C9185FFF2CF80814D
:1005F00085FFEDCFCE010E945702E9CFDF91CF9169
:100600000895833081F028F4813099F08230A9F088
:1006100008958730A9F08830C9F08430B1F4809112
:1006200080008F7D03C0809180008F778093800051
:10063000089584B58F7784BD089584B58F7DFBCFF1
:100640008091B0008F778093B00008958091B000C2
:100650008F7DF9CF1F93CF93DF93282F30E0F901DF
:10066000E25CFE4F8491F901E25FFD4FD491F90104
:10067000E45DFD4FC491CC23A9F0162F81110E9497
:100680000103EC2FF0E0EE0FFF1FEE5DFD4FA59193
:10069000B4918FB7F894EC91111108C0D095DE2376
:1006A000DC938FBFDF91CF911F910895DE2BF8CFA0
:1006B0009091000189130BC0E2E5F1E0E4919FEF16
:1006C00090930001E13049F028F0E23061F060E001
:1006D0000C942A0310926E00FACF90916F009D7FC8
:1006E00090936F00F4CF909170009D7F9093700075
:1006F00091E09093B0009091B100987F94609093B6
:10070000B1001092B300E3CFCF93DF9390E0FC01F0
:10071000E25FFD4F2491845D9D4FFC01849188230D
:10072000D1F090E0880F991FFC01EC5CFE4FA59181
:10073000B491FC01EE5DFD4FC591D49161110EC0E5
:100740009FB7F8948C91E22FE0958E238C932881AB
:10075000E223E8839FBFDF91CF9108958FB7F8948C
:10076000EC91E22BEC938FBFF6CF8E508064809398
:100770007C0080917A00806480937A0080917A0076
:1007800086FDFCCF809178009091790008953FB765
:10079000F8948091130290911402A0911502B091E7
:1007A000160226B5A89B05C02F3F19F00196A11D82
:1007B000B11D3FBFBA2FA92F982F8827BC01CD01AB
:1007C000620F711D811D911D42E0660F771F881F0A
:1007D000991F4A95D1F708958F929F92AF92BF9239
:1007E000CF92DF92EF92FF926B017C010E94C703D0
:1007F0004B015C01C114D104E104F104B9F00E9481
:10080000C703681979098A099B09683E7340810505
:10081000910580F321E0C21AD108E108F10888EEC1
:10082000880E83E0981EA11CB11CE4CFFF90EF90CE
:10083000DF90CF90BF90AF909F908F9008952091C0
:10084000EF01260F3327331F21323105ECF42091BD
:10085000BC02FC0190E080E0243069F082E0089561
:10086000A091EF012191AC0141535E4FA40FB52F30
:10087000B11D2C930196861798F38091EF01680FB4
:100880006093EF0180E0089581E008951092BC022A
:1008900081E080939B021092960261E082E10E94C7
:1008A0002A0361E083E10E942A03E9EBF0E0808102
:1008B0008E7F808380818D7F808388E48093B800E1
:1008C00085E48093BC000895CF93DF9391E09093EB
:1008D000CE018823B9F0C091B800D091BA008091C0
:1008E000BC008A7B8093BC0060E082E10E942A0306
:1008F00060E083E10E942A030E944604D093BA007C
:10090000C093B800DF91CF910895CF92DF92EF921C
:10091000FF920F931F93CF93DF93D82FC62F61328F
:1009200008F098C00E94C7036B017C018091BC0253
:1009300081116BC081E08093BC0280939B029FEF8A
:1009400090939A02109299029C0F90939802809330
:10095000970280919702DD0FD82BD0939702809158
:100960009602813009F078C0109296020E94C70367
:100970006B017C01809197028093BB008091BE0245
:100980009091BF02A091C002B091C102892B8A2B25
:100990008B2BA1F00E94C7030091BE021091BF02F1
:1009A0002091C0023091C1026C197D098E099F0906
:1009B000061717072807390708F448C08091BC00BC
:1009C00083FDD8CF85EC8093BC000E94C7036B01E8
:1009D0007C018091BC02813009F440C08091990271
:1009E0008C1710F4C0919902E6E7F2E0ACE9B2E0AE
:1009F00080E08C1355C08C2FDF91CF911F910F9108
:100A0000FF90EF90DF90CF9008958091BE0290917B
:100A1000BF02A091C002B091C102892B8A2B8B2BFF
:100A200009F484CF0E94C7030091BE021091BF0257
:100A30002091C0023091C1026C197D098E099F0975
:100A4000061717072807390708F070CF8091BD02F5
:100A50000E946404C0E0CFCF85EEB5CF8091BE0286
:100A60009091BF02A091C002B091C102892B8A2B44
:100A70008B2B09F4AECF0E94C7030091BE021091E8
:100A8000BF022091C0023091C1026C197D098E090C
:100A90009F09061717072807390708F09ACFD6CFFE
:100AA00091919D938F5FA5CF0895E091560280911B
:100AB0005502E81730F4F0E0E456FD4F808190E0F5
:100AC00008958FEF9FEF08959091560280915502FF
:100AD0002FEF3FEF981748F4E92FF0E0E456FD4F71
:100AE000208130E09F5F90935602C9010895CF9214
:100AF000DF92EF92FF920F931F93CF93DF937C01CE
:100B0000CB018A0120917502222389F0EB016B0150
:100B1000C40ED51ECC15DD0569F06991D701ED91A4
:100B2000FC910190F081E02DC7010995F3CF642F6E
:100B30000E941F04C801DF91CF911F910F91FF9078
:100B4000EF90DF90CF900895CF93DF931F92CDB7B2
:100B5000DEB76983209175022223F9F02091720299
:100B6000203258F021E030E0FC013383228390E012
:100B700080E00F90DF91CF91089580917302E82F6C
:100B8000F0E0E255FE4F998190838F5F809373026E
:100B90008093720281E090E0ECCF61E0CE0101969B
:100BA0000E941F04F7CFCF92DF92EF92FF920F9334
:100BB0001F93CF93DF93D091720281E0D13208F07E
:100BC0009CC0C09174020E94C7036B017C0180919C
:100BD000BC0281116CC082E08093BC0281E08093F2
:100BE0009B028FEF80939A0210929902D093980201
:100BF000AEEAB1E0E6E7F2E080E0D8138DC01092F3
:100C0000970280919702CC0FC82BC09397028091D6
:100C10009602813009F084C0109296020E94C703A8
:100C20006B017C01809197028093BB008091BE0292
:100C30009091BF02A091C002B091C102892B8A2B72
:100C40008B2BA1F00E94C7030091BE021091BF023E
:100C50002091C0023091C1026C197D098E099F0953
:100C6000061717072807390708F442C08091BC000F
:100C700083FDD8CF85EC8093BC000E94C7036B0135
:100C80007C018091BC02823009F44CC080919A02B0
:100C90008F3F09F469C080919A02803209F466C0DE
:100CA00080919A02803309F463C084E026C0809169
:100CB000BE029091BF02A091C002B091C102892BE7
:100CC0008A2B8B2B09F483CF0E94C7030091BE02AD
:100CD0001091BF022091C0023091C1026C197D09B0
:100CE0008E099F09061717072807390708F06FCFE5
:100CF0008091BD020E94640485E0109273021092FC
:100D0000720210927502DF91CF911F910F91FF90A7
:100D1000EF90DF90CF9008959D9191938F5F6DCF6D
:100D200085EEA9CF8091BE029091BF02A091C00232
:100D3000B091C102892B8A2B8B2B09F4A2CF0E9480
:100D4000C7030091BE021091BF022091C0023091F2
:100D5000C1026C197D098E099F090617170728071C
:100D6000390708F08ECFC4CF80E0C7CF82E0C5CF6F
:100D700083E0C3CF90E080E008951F93CF93DF938B
:100D8000EC01142F89819A81288131E0309375021A
:100D9000209374021092730210927202DC01ED91A2
:100DA000FC910190F081E02D099589819A81DC0107
:100DB000ED91FC910190F081E02D612F09958981E1
:100DC0009A81DF91CF911F910C94D305DC01ED91B5
:100DD000FC910190F081E02D0994FC0187E094E101
:100DE000161634F484E098E0613011F484E090E168
:100DF0009083062E000C770B77FF03C071956195E9
:100E00007109969FA001979F500D1124840F952F73
:100E1000911D0895DC01ED91FC910190F081E02D90
:100E200009940F931F93CF93DF93EC018A0189817B
:100E30009A81288131E030937502209374021092D8
:100E400073021092720224E0629FB00111246A5F63
:100E50007F4F0E940A0770E060E089819A810E94BA
:100E6000E60670E060E089819A810E94E606B8019A
:100E700089819A810E94E606612F70E089819A81BA
:100E80000E94E60689819A81DF91CF911F910F918F
:100E90000C94D305CF93C0E040E050E16C2F8EE37B
:100EA00094E00E941107CF5FC031B1F7CF91089550
:100EB0009F92AF92BF92CF92DF92EF92FF920F93E9
:100EC0001F93CF93DF93EC0181E08093750284E55B
:100ED0008093740210927302109272026D2F70E070
:100EE0008FE593E00E940A07BE0177278FE593E024
:100EF0000E940A078FE593E00E94D30561E084E534
:100F00000E94850410925602809355028FE593E06B
:100F10000E946405C0907104D0907204F601808331
:100F200080936102682F86E692E00E94ED06EC0154
:100F3000F12CE12C1C161D064CF56C2FCF31D10580
:100F40000CF06EE184E50E948504982E1092560202
:100F5000809355025E01FEE1AF1AB1088E018091C7
:100F60005602981659F08FE593E00E9464059FEFB2
:100F7000E91AF90AF601EE0DFF1D808301501109EF
:100F800029F0E5010A151B0551F7D4CFDF91CF9168
:100F90001F910F91FF90EF90DF90CF90BF90AF9097
:100FA0009F900895CF93DF93EC0189819A812881E6
:100FB00031E0309375022093740210927302109204
:100FC0007202DC01ED91FC910190F081E02D099518
:100FD00089819A810E94D30561E088810E948504FD
:100FE000109256028093550289819A81DC01ED911D
:100FF000FC910284F385E02D0995DF91CF9108954E
:101000008F929F92AF92BF92CF92DF92EF92FF9218
:10101000CF93C82F90E080E00E94D1266B017C0125
:101020006EEF8EE394E00E94D207682F70E06F5F4E
:101030007F4F90E080E00E94D12620E034E244E738
:1010400059E40E9432274B015C0160914104709188
:10105000420480914304909144040E94D1269B0154
:10106000AC01C501B4010E9412299B01AC01C7016A
:10107000B6010E9412290E948B29AB016C2F8EE3CE
:1010800094E0CF91FF90EF90DF90CF90BF90AF9022
:101090009F908F900C9411070F931F93CF938C0107
:1010A000C0E0B8018C2F0E940008CF5FC031C9F7A3
:1010B000CF911F910F9108958F929F92AF92BF92FF
:1010C000CF92DF92EF92FF921F93CF93DF93EC01C9
:1010D0006A017B0120E030E040E85FE3CB01B6012C
:1010E0000E94CC2687FD7EC020E030EC4AE555E426
:1010F000C701B6010E94F92918163CF4C12C30EC46
:10110000D32E3AE5E32E35E4F32E6B817C818D817D
:101110009E810E94D1264B015C0120E030E040E836
:1011200055E4C701B6010E9432279B01AC01C501FD
:10113000B4010E94122920E030E040E05FE30E9409
:10114000A12820E030E040E85FE30E94A0286B0186
:101150007C0120E030E040E450E40E94CC2687FD92
:1011600048C020E030E04FE753E4C701B6010E94D9
:10117000F929181634F4C12CD12C9FE7E92E93E4F9
:10118000F92E60E0CE010E94D207182F482F4F762B
:10119000406160E0CE010E94BD06C701B6010E9419
:1011A0008B29462F6EEFCE010E94BD06412F60E0D5
:1011B000CE010E94BD0665E070E080E090E00E94F4
:1011C000EC03412F406A60E0CE01DF91CF911F9187
:1011D000FF90EF90DF90CF90BF90AF909F908F9057
:1011E0000C94BD06C12CD12C20E8E22E2FE3F22E68
:1011F0008CCFC12CD12C80E4E82EFE2CC2CFCF9313
:10120000DF93EC0188819981009711F00E940825F5
:10121000198218821D821C821B821A82DF91CF9153
:101220000895FC0180819181009711F00C940825AC
:101230000895FC0101900020E9F73197AF01481BA8
:10124000590BBC0182EC92E00C94990184E691E088
:101250000C941909CF93DF930E94C602EC010E94FF
:1012600026098C0F9D1FDF91CF910895CF93DF93B7
:10127000682F82EC92E00E947902EC010E9426091C
:101280008C0F9D1FDF91CF910895CF93DF93FC01C9
:10129000448155816081718182EC92E00E949901C4
:1012A000EC010E9426098C0F9D1FDF91CF910895BC
:1012B0008F929F92AF92BF920F931F93CF93DF9322
:1012C000CDB7DEB7A1970FB6F894DEBF0FBECDBF86
:1012D00019A2423008F44AE08E010F5D1F4F842EA0
:1012E000912CB12CA12CA50194010E946F28E62F0E
:1012F000B901CA01EA30F4F4E05DD801EE938D0142
:10130000232B242B252B79F790E080E0109719F000
:10131000CD010E941909A1960FB6F894DEBF0FBE49
:10132000CDBFDF91CF911F910F91BF90AF909F9054
:101330008F900895E95CE1CFCF92DF92EF92FF9218
:10134000C12CD12C76014AE0C701B6010E94580990
:1013500069E082EC92E00E9479028FEFC81AD80A05
:10136000E80AF80A80E1C816D104E104F10459F74B
:10137000FF90EF90DF90CF900C942609FC01248120
:101380003581232B39F421E0FB018081882349F04A
:1013900020E007C0808191810E94AA2C21E0892B46
:1013A000B9F7822F08950F931F93CF93DF938C018A
:1013B000EB01FC01808191810097E1F068817981E6
:1013C00061157105A9F0428153812C813D8142173D
:1013D000530770F00E94B32C8C819D81F801958396
:1013E00084831D821C82DF91CF911F910F910895FC
:1013F0000E94082588819981F801918380838A81E0
:101400009B81938382838C819D81958384831982C0
:1014100018821B821A82E5CF0C94F0276F927F927C
:101420008F929F92AF92BF92CF92DF92EF92FF92F4
:101430000F931F93CF93DF936C01712CD0E0C0E02A
:1014400083E191E00E940C0A082E000C990B78169B
:1014500019060CF06DC04E018FEF881A980ACE0164
:10146000885E9E4F0E940C0A682EE82EF12CC70160
:1014700001960E946C248C015C01C75EDE4FC81B84
:10148000D90B8A2D801B861548F4CE018A0D9B1D31
:101490000E940C0AF50181935F01F3CFE401CE0DA8
:1014A000DF1D5801AE0CBF1CF5011082B601C8014A
:1014B0000E94AA2C892B09F501151105A9F5CE0169
:1014C000875E9E4F0E940C0A80936102682F86E619
:1014D00092E00E94ED06CE01885E9E4FDF91CF9193
:1014E0001F910F91FF90EF90DF90CF90BF90AF9042
:1014F0009F908F907F906F900895F5013197808134
:101500008C3449F4A70141505109B601C8010E9429
:10151000BA2C892B89F20115110519F0C8010E9416
:101520000825249673948CCFC8010E940825C7CF44
:101530008CE092E00E942A098FEF9FEFCFCF1F939C
:10154000CF93DF93EC010E940C0A182FCE01019675
:101550000E940C0A90E0982F8827810F911DDF913F
:10156000CF911F910895CF92DF92EF92FF920F9348
:101570001F93CF93DF936A017B01082F10E0C8010E
:10158000805B9F4F880F991F0E949F0ABC01990F93
:10159000880B990B0E94D32620E030E04AE754E400
:1015A0000E941229A70196010E9432276B017C013B
:1015B00082E191E00E940C0A9AE0899FB001112417
:1015C000072E000C880B990B0E94D326A7019601C9
:1015D0000E94A1286B017C0120E030E04AEF53E437
:1015E0000E94F929C4EFD1E018168CF420E030E411
:1015F0004CE155E4C701B6010E94CC26C4ECD9E009
:1016000087FF05C0C701B6010E948429EB01C8010C
:101610000E940C0AAE01682F8EE394E0DF91CF9117
:101620001F910F91FF90EF90DF90CF900C941107D6
:1016300090E0C096880F991F860F911D880F991F03
:101640000C949F0A7F928F929F92AF92BF92CF92FB
:10165000DF92EF92FF920F931F93CF93DF93B82EF9
:101660006A01D62FC72F60E00E94180BBC01990FAA
:10167000880B990B0E94D3267B018C0161E08B2D96
:101680000E94180BBC01990F880B990B0E94D3265E
:10169000762E872E982EA92E96014D2F5C2F0E9414
:1016A000CC2687FF71C0772D682D992D8A2D272F85
:1016B000362F492F582FB701C8010E94F929181653
:1016C00094F096014D2F5C2F672D782D892D9A2D42
:1016D0000E94CC2676010D2F1C2F87FF04C0E72C1B
:1016E000F82C092D1A2DCB2DD0E06E0180E3C80E09
:1016F000D11CCC0FDD1FCC5FDE4FB701C8010E94AB
:10170000842979836883C601880F991F0E949F0AE4
:10171000EC01C6010E940C0A682F880F770B880B1A
:10172000990B0E94D3269701A8010E9432276B01D2
:101730007C01BE01DD0F880B990B0E94D3269B0113
:10174000AC01C701B6010E94A1280E948429072E7E
:10175000000C880B990B0E94D32620E030E0A901F1
:101760000E94A128AB01BC018B2DDF91CF911F916D
:101770000F91FF90EF90DF90CF90BF90AF909F9030
:101780008F907F900C94B30A7C2D6D2DCE018FCF5E
:101790002F923F924F925F926F927F928F929F9281
:1017A000AF92BF92CF92DF92EF92FF920F931F936F
:1017B000CF93DF93CDB7DEB72E970FB6F894DEBF89
:1017C0000FBECDBF5C016A017B0120E030E0A901C2
:1017D000CB01B6010E94CC269501205E3F4F390116
:1017E000882321F0809103018823E1F183013FE008
:1017F0003983D8017E916E918D01072E000C880BE4
:10180000990B0E94D326AB01BC0189810E94220B57
:10181000B981B150B983BF3F61F78091030188233B
:1018200041F068EE73E080E090E00E94EC031092DB
:1018300003012E960FB6F894DEBF0FBECDBFDF9129
:10184000CF911F910F91FF90EF90DF90CF90BF90BD
:10185000AF909F908F907F906F905F904F903F9050
:101860002F90089580E290E00E946C248C0124E087
:1018700031E04C01F50170E060E0D9018D919D915E
:101880009D0141915191841B950BD4018D939D93A2
:101890004D0197FF03C091958195910968177907CC
:1018A0000CF4BC01E615F70541F7072E000C880B78
:1018B000990B0E94D326A70196010E9412296B0161
:1018C0007C0120E030E0A9010E94F92920E030E00D
:1018D00040E05FE387FD91C0C701B6010E94A128E7
:1018E0000E9484297E876D87D12CC12C8D859E8591
:1018F000092E000CAA0BBB0B89879A87AB87BC8784
:10190000AD85BE85AC15BD050CF47CC04801150144
:10191000F12CC6010D2C000CAA0BBB0B8D839E83F2
:10192000AF83B887D1016D917D911D01072E000C09
:10193000880B990B0E94D3262B013C01ED85FE8577
:1019400020E030E0A901EF2B09F443C06D817E81D6
:101950008F8198850E94D3262BED3FE049E450E427
:101960000E94322769837A838B839C8369857A8579
:101970008B859C850E94D3269B01AC0169817A816D
:101980008B819C810E9412290E940D2920E030E069
:1019900040E85FE30E94A12820E030E040E05FE300
:1019A0000E94322769837A838B839C83D4016D9153
:1019B0007C91072E000C880B990B0E94D3269B016B
:1019C000AC0169817A818B819C810E9432279B01C5
:1019D000AC01C301B2010E94A128AB01BC018F2D53
:1019E0000E94220BF394B2E08B0E911CE0E1FE12F8
:1019F00099CFFFEFCF1ADF0A83CFC701B6010E944C
:101A0000A0286ECF0115110509F413CFC8012E9639
:101A10000FB6F894DEBF0FBECDBFDF91CF911F91FF
:101A20000F91FF90EF90DF90CF90BF90AF909F907D
:101A30008F907F906F905F904F903F902F900C947D
:101A400008252F923F924F925F926F927F928F92D2
:101A50009F92AF92BF92CF92DF92EF92FF920F933D
:101A60001F93CF93DF93CDB7DEB72F970FB6F894C0
:101A7000DEBF0FBECDBF4C016D8369017A01202FFF
:101A800030E03A83298320E030E0A901C701B601A4
:101A90000E94CC26882329F080910301882309F431
:101AA00041C01FE0812F012E000C990BA981BA8142
:101AB0008A179B0794F0880D991DFC016081062E02
:101AC000000C770B880B990B0E94D326AB01BC014D
:101AD000812F0E94220B1150E5CF809103018823B2
:101AE00041F068EE73E080E090E00E94EC03109219
:101AF00003012F960FB6F894DEBF0FBECDBFDF9166
:101B0000CF911F910F91FF90EF90DF90CF90BF90FA
:101B1000AF909F908F907F906F905F904F903F908D
:101B20002F90089580E190E029813A81821B930BE8
:101B3000811530E4930770F5880F991F0E946C247B
:101B40005C01E981FA81EE0FFF1FCF018C5F9E4F90
:101B50003C012501D401402F70E060E04031E8F401
:101B6000F301819191913F012D915D8125039001B8
:101B70001124821B930BF201819391932F0197FF04
:101B800003C0919581959109681779070CF4BC0100
:101B90004F5FE4CF8FEF9FEFD1CF072E000C880B64
:101BA000990B0E94D326A70196010E9412296B016E
:101BB0007C0120E030E0A9010E94F92920E030E01A
:101BC00040E05FE387FD8BC0C701B6010E94A128FA
:101BD0000E9484291B011F861E86CB01770FAA0B4A
:101BE000BB0B8A879B87AC87BD87AE85BF852A16CE
:101BF0003B060CF480C0BA82A9829C828B82102F93
:101C0000CD01092E000CAA0BBB0B8E839F83A887E6
:101C1000B987103108F068C0AB81BC816D91BC837D
:101C2000AB832D816203B0011124072E000C880BB9
:101C3000990B0E94D3266B017C0120E030E0A901C2
:101C400021143104E1F16E817F81888599850E949C
:101C5000D3262BED3FE049E450E40E9432272B01CC
:101C60003C016A857B858C859D850E94D3269B01DE
:101C7000AC01C301B2010E9412290E940D2920E08B
:101C800030E040E85FE30E94A12820E030E040E03F
:101C90005FE30E9432272B013C01A981BA816D913B
:101CA0007C91072E000C880B990B0E94D3269B0178
:101CB000AC01C301B2010E9432279B01AC01C701F4
:101CC000B6010E94A128AB01BC01812F0E94220B0A
:101CD0001F5FE981FA813296FA83E9839ACFC701BF
:101CE000B6010E94A02874CF2E853F852F5F3F4FFD
:101CF0003F872E877ACFA114B10409F4FACEC5012B
:101D00002F960FB6F894DEBF0FBECDBFDF91CF91F7
:101D10001F910F91FF90EF90DF90CF90BF90AF9009
:101D20009F908F907F906F905F904F903F902F90FB
:101D30000C9408250F930E944C01109258021092A7
:101D40005702EDE5F2E02581368147815085028911
:101D50006685838994890E94210D0F910895CF9201
:101D6000DF92EF92FF920F931F93CF93DF938C013B
:101D7000FC0101900020E9F7329780818C3409F44E
:101D8000F2C0823509F0F1C087EE80936002C8018D
:101D90000E940E0AEC01CF3FDC0709F430C1CE01EE
:101DA0000E940C0AF82ECE0102960E949F0AEC01B6
:101DB000E9E4FE12DCC00E9458070E944C0167E66D
:101DC00071E0C8010E94AA2C892B09F4EAC0809115
:101DD0006102813009F0E5C00E94DD2524E630E093
:101DE00040E050E00E9406280E94D32620E030E028
:101DF00040E251E40E94122920E030E040EA50E441
:101E00000E94A02860935102709352028093530263
:101E100090935402C0905102D0905202E09053022D
:101E2000F0905402D0E0C0E0009170021091710275
:101E30000C0F1D1FF8016081062E000C770B880B1C
:101E4000990B0E94D326A70196010E94A1280E9407
:101E50008429F80160832196C031D10529F780914A
:101E6000610282300CF4A6C08091600287FFB1C08D
:101E70008091670290916802919581959109909364
:101E800068028093670290E080E040916102242F15
:101E9000042E000C330B37FF03C031952195310917
:101EA000821793070CF095C042301CF540916602F2
:101EB000489F9001499F300D1124E0917002F091EC
:101EC0007102E20FF31F2081219520832091660289
:101ED000289FF001299FF00D11249F012E5F3F4F95
:101EE000E0917002F0917102E20FF31F20812195C1
:101EF00020832091610260E022300CF462E0E62F42
:101F0000F0E02091610222300CF482C024E030E045
:101F10004091700250917102E217F3070CF07BC000
:101F20009F01220F331F70916602789FF001799F05
:101F3000F00D1124E20FF31FE40FF51F40815181D2
:101F4000508350916602589FD001599FB00D1124C3
:101F5000E0917002F0917102E20FF31FEA0FFB1F94
:101F600041836F5FCCCF89E110CF80E00ECF6091CD
:101F7000610286E692E00E94ED06209171043091A4
:101F80007204D901C21BD30BFE01EA0FFB1FAD0186
:101F9000421B530B481759070CF00FCFE491ED93F8
:101FA000F3CF1092510210925202109253021092EB
:101FB000540230CF0E94DD2524E630E040E050E0BE
:101FC0000E94062860FF05C080915002833609F008
:101FD0004FCF109258021092570220916202309116
:101FE0006302409164025091650200916F0260911A
:101FF0006B0280917002909171020E94210DDF911D
:10200000CF911F910F91FF90EF90DF90CF900895A7
:1020100028E030E07DCF019638CF0F931F93CF9308
:10202000DF93EC018B010E94F027081721F0602F4D
:10203000CE010E94F8272196CE010E94F0271817A2
:1020400021F0612FCE010E94F82765E070E080E06A
:1020500090E0DF91CF911F910F910C94EC030F93BF
:102060001F93CF93DF93EC0188819981009759F0FA
:102070002A813B812617370730F081E0DF91CF912D
:102080001F910F9108958B016F5F7F4F0E94DC2B92
:10209000009759F0998388831B830A832C813D81A3
:1020A000232B59F7FC011082E8CF80E0E7CFEF92B5
:1020B000FF920F931F93CF93DF936115710541F446
:1020C00080E0DF91CF911F910F91FF90EF900895E5
:1020D00041155105B1F07B01EC010C811D81040F0C
:1020E000151FB8010E942F10882351F328813981D0
:1020F0008C819D81B701820F931F0E94B32C1D8399
:102100000C8381E0DECFEF92FF920F931F93CF936A
:10211000DF93EC017B018A01BA010E942F1081112B
:102120000BC0CE010E94FF08CE01DF91CF911F911D
:102130000F91FF90EF9008951D830C83B701888164
:1021400099810E94B32CF0CFFB01DC0111961C9207
:102150001E9213961C921E92129715961C921E9216
:1021600014978617970759F0608171816115710581
:1021700021F0448155810C9483100C94FF0808953C
:10218000FB0101900020E9F73197AF01461B570B87
:102190000C9483100F931F93CF93DF93CDB7DEB7CB
:1021A00062970FB6F894DEBF0FBECDBF8C01CB0196
:1021B000F8011182108213821282158214824AE081
:1021C000BE016F5F7F4F0E948F26BE016F5F7F4F02
:1021D000C8010E94C01062960FB6F894DEBF0FBE11
:1021E000CDBFDF91CF911F910F910895FC01118216
:1021F00010821382128215821482FB01019000204A
:10220000E9F73197AF01461B570B0C948310EF92FF
:10221000FF920F931F93CF93DF9300D0CDB7DEB71C
:102220008C01E62E63E971E00E94F6100E94E9013C
:102230000E2C000CFF0897FD10C08E159F0569F04D
:1022400089831A8241E050E0BE016F5F7F4FC80171
:102250000E9457100E94E901EECFC8010F900F9025
:10226000DF91CF911F910F91FF90EF900895EF9222
:10227000FF920F931F93CF93DF93EC018B01198291
:1022800018821B821A821D821C82CB010E945A2650
:102290007C01BC01CE010E942F10811109C0CE012A
:1022A000DF91CF911F910F91FF90EF900C94FF0859
:1022B000FD82EC82B80188819981DF91CF911F91D5
:1022C0000F91FF90EF900C94532685ED8093BC0006
:1022D0008091BE029091BF02A091C002B091C10254
:1022E0000796A11DB11D23E0B695A79597958795F3
:1022F0002A95D1F72091BC0024FD03C01092BC02A6
:1023000008954091BE025091BF026091C002709149
:10231000C102452B462B472B69F30097A105B10558
:1023200041F025E32A95F1F700000197A109B109D1
:10233000E1CF8091BD020C9464042F923F924F92A2
:102340005F926F927F928F929F92AF92BF92CF9245
:10235000DF92EF92FF920F931F93CF93DF93CDB74E
:10236000DEB766970FB6F894DEBF0FBECDBF6987A4
:102370007A878B879C872D873E874F87588BC8012C
:10238000EE8A10E088248A94982C540168E4462E42
:1023900068EE562E66246394712C05E071E3272EB7
:1023A00072E0372E9C01990F440B550B298B3A8B09
:1023B0004B8B5C8B6D857E858F8598890E948B29E0
:1023C0006D837E838F83988720E030E0A901698543
:1023D0007A858B859C850E94CC26882309F499C137
:1023E00029853A854B855C8563E67CE987E89FE330
:1023F0000E94FE2920E030ED42E854E40E9432279A
:102400000E948B296B0180910001853009F06AC020
:10241000E2E5F1E0F491FD8BF7FDD9C161E085E0E3
:102420000E948403FD89FF2321F02D89223009F0C9
:1024300024C1F12CE12C60E072E18AE790E0A70171
:1024400096010E94062829833A834B835C83DA0134
:10245000C9010197A109B1098F3F9105A105B105F6
:1024600009F00CF4F0C060E472E48FE090E0A701A2
:1024700096010E94062821503109410951098D8990
:10248000823009F0A2C082E02F3F3105410551059D
:1024900009F00CF48CC160E970ED83E090E0A701D5
:1024A00096010E940628215031094109510983E013
:1024B0002F3F31054105510509F00CF478C1C301E6
:1024C000B201A70196010E94062821503109410955
:1024D00051092F3F31054105510511F00CF092C013
:1024E00084E065C18F3F09F072C100930001E2E50D
:1024F000F1E0F491FD8BFF3F09F469C1F13029F15E
:1025000058F0F23009F43FC03D8937FD60C161E009
:1025100085E00E94840389CF14BC15BC84B5826019
:1025200084BD85B5816085BDF1018491E82FF0E01F
:10253000EE0FFF1FEE5DFD4F85919491E3E1F2E018
:1025400084918093A5011D8A69CF1092800010921A
:10255000810080918100886080938100809181005A
:10256000816080938100F1018491E82FF0E0EE0F0B
:10257000FF1FEE5DFD4F85919491E3E1F2E08491C0
:102580008093A4014BCF1092B0001092B1008091C3
:10259000B00082608093B0008091B1008160809330
:1025A000B100F1018491E82FF0E0EE0FFF1FEE5D26
:1025B000FD4F859194919093180280931702E3E167
:1025C000F2E084918093190229CF2F3F3105410514
:1025D000510509F00CF44FC0C301B201A7019601E7
:1025E0000E94062821503109410951099D899923EA
:1025F00009F4AFC02F3F31054105510511F00CF032
:10260000B0C06ECF64E274EF80E090E0A701960165
:102610000E940628215031094109510985E02F3FC8
:1026200031054105510509F008F4C1C062E17AE7BE
:1026300080E090E0A70196010E9406282150310910
:10264000410951099DC09C0181E0FD89F111AFC094
:1026500095B5987F892B85BD27BD8092AA01909260
:10266000AB01A092AC01B092AD0180916E0082608E
:1026700080936E00ACC082E0E8CFF12CE12C60E0EA
:1026800072E18AE790E0A70196010E940628215096
:1026900031094109510991E02115310581E04807CF
:1026A00051055CF0C301B201A70196010E94062802
:1026B000215031094109510993E0ED89E13009F0D8
:1026C0007CC080918100887F892B8093810030932A
:1026D0008900209388008092A6019092A701A09281
:1026E000A801B092A90180916F00826080936F0071
:1026F0006EC02093B30080921A0290921B02A092A7
:102700001C02B0921D028091700082608093700064
:102710005EC06D817E818F8198850E94EC0357C0D9
:1027200084E02F3F31054105510509F008F490CFB1
:1027300029813A814B815C818AE05595479537958F
:1027400027958A95D1F7215031094109510985E032
:102750007FCF83E02F3F31054105510509F00CF48F
:1027600077CF62E17AE780E090E0A70196010E94CE
:1027700006282150310941095109ED89EE2381F2E2
:1027800086E02F3F31054105510589F080F0298110
:102790003A814B815C819AE055954795379527950D
:1027A0009A95D1F7215031094109510987E090915B
:1027B000B100987F892B8093B100FD89F13009F435
:1027C00086CFF23009F495CFFF2309F445CF6D8110
:1027D0007E818F8198850E94EC0385E00E945803DA
:1027E00069897A898B899C890E94EC031F5F2E89F5
:1027F0002113E0CD66960FB6F894DEBF0FBECDBFB5
:10280000DF91CF911F910F91FF90EF90DF90CF90CC
:10281000BF90AF909F908F907F906F905F904F9000
:102820003F902F9008954F925F926F927F928F9278
:102830009F92AF92BF92CF92DF92EF920F931F932E
:10284000CF93DF93D82E192F0E940C0A8695CD2D99
:10285000D12FB12CA12CC82ED12C88EE882E83E04C
:10286000982E2197AC14BD044CF5CE018C199D090E
:102870000E940C0A782ECE010E940C0A182F672D98
:1028800070E0C4010E94B32B072E000C880B990B3B
:102890000E94D3262B013C01612F70E090E080E084
:1028A0000E94D126EE24E39410E000E0A3019201FF
:1028B0000E949D118FEFA81AB80AD3CFDF91CF9154
:1028C0001F910F91EF90DF90CF90BF90AF909F90AE
:1028D0008F907F906F905F904F9008951F920F920E
:1028E0000FB60F9211242F933F934F935F936F93E3
:1028F0007F938F939F93AF93BF93EF93FF938091B9
:102900001A0290911B02A0911C02B0911D02892B0A
:102910008A2B8B2BD1F190911902E0911702F09143
:10292000180280818927808380911A0290911B026E
:10293000A0911C02B0911D02181619061A061B065A
:102940009CF480911A0290911B02A0911C02B091FC
:102950001D020197A109B10980931A0290931B02ED
:10296000A0931C02B0931D02FF91EF91BF91AF9114
:102970009F918F917F916F915F914F913F912F9197
:102980000F900FBE0F901F901895809100010E942C
:102990005803EACF1F920F920FB60F9211242F9374
:1029A0003F934F935F936F937F938F939F93AF93D7
:1029B000BF93EF93FF9382EC92E00E945702FF9146
:1029C000EF91BF91AF919F918F917F916F915F91A7
:1029D0004F913F912F910F900FBE0F901F90189520
:1029E0001F920F920FB60F9211242F938F939F93E4
:1029F000EF93FF93E091D202F091D3028081E091B6
:102A0000D802F091D90282FD1BC090818091DB0237
:102A10008F5F8F732091DC02821741F0E091DB021F
:102A2000F0E0EE53FD4F958F8093DB02FF91EF9125
:102A30009F918F912F910F900FBE0F901F9018951F
:102A40008081F4CF1F920F920FB60F9211242F9313
:102A50003F938F939F93AF93BF938091590290912F
:102A60005A02A0915B02B0915C023091120223E005
:102A7000230F2D3758F50196A11DB11D2093120289
:102A80008093590290935A02A0935B02B0935C0228
:102A90008091130290911402A0911502B091160238
:102AA0000196A11DB11D8093130290931402A0936F
:102AB0001502B0931602BF91AF919F918F913F91F4
:102AC0002F910F900FBE0F901F90189526E8230F9F
:102AD0000296A11DB11DD2CF1F920F920FB60F9279
:102AE00011242F933F934F935F936F937F938F9313
:102AF0009F93AF93BF93EF93FF938091B900887F2B
:102B0000803609F44AC0F0F5883209F4A7C018F5F8
:102B1000803109F49BC0B8F4882309F4F9C08830E7
:102B200009F494C0FF91EF91BF91AF919F918F9164
:102B30007F916F915F914F913F912F910F900FBEB9
:102B40000F901F901895883109F488C0803251F792
:102B500080939A0214C0803409F49DC040F48033FD
:102B6000B9F38833F9F680939A0285ECB0C08035CA
:102B700009F485C0883509F496C0883499F60E9416
:102B80006511D0CF883909F48CC038F5883729F021
:102B900050F4883611F0803729F683E08093BC0228
:102BA0001092110257C0883809F47BC0803919F09F
:102BB000803809F0B7CF80911102803208F071C0DF
:102BC000E091110281E08E0F809311028091BB0091
:102BD000F0E0EF50FE4F80833DC0803B39F0E0F4E1
:102BE000803A09F479C0883A09F09CCF84E0809358
:102BF000BC021092F0011092EF01E0912002F091DE
:102C0000210209958091EF0181110FC081E080932D
:102C1000EF011092CF0109C0803C09F4A6CF883C97
:102C200009F4A3CF883B09F07DCFE091F00181E06A
:102C30008E0F8093F001F0E0E153FE4F808180938E
:102C4000BB009091F0018091EF0129C08091970223
:102C50008093BB0085EC8093BC0064CF9091990277
:102C600080919802981758F5E091990281E08E0FB3
:102C700080939902F0E0EA58FD4F8081E9CFE0911E
:102C8000990281E08E0F809399028091BB00F0E061
:102C9000EA58FD4F8083909199028091980298178D
:102CA000C8F285E8D8CFE091990281E08E0F809339
:102CB00099028091BB00F0E0EA58FD4F808380913B
:102CC0009B0281115CCF81E08093960284EA80931D
:102CD000BC001092BC0226CF85EC8093BC00109201
:102CE000BC0280911102803230F4E0911102F0E0D8
:102CF000EF50FE4F10826091110270E0E0911E02D1
:102D0000F0911F0281EF91E00995109211020ACF14
:102D100010929A0234CF1F920F920FB60F92112485
:102D20002F933F934F935F936F937F938F939F93D3
:102D3000AF93BF93CF93DF93EF93FF9320916C03F7
:102D400030E0F901E25CFE4F8491F901E25FFD4F52
:102D5000D491F901E45DFD4FC491CC2379F0811148
:102D60000E940103EC2FF0E0EE0FFF1FE65DFE4F27
:102D7000A591B491EC91ED2381E009F480E02091DC
:102D80007103309172032F5F3F4F30937203209392
:102D9000710320916F03309170032536310518F0CF
:102DA00094E090936B0390916B03911130C081116B
:102DB00069C020917103309172032436310528F4E3
:102DC00010927203109271035DC010923D04109234
:102DD000700310926F0320916F0330917003A9016B
:102DE0004F5F5F4F5093700340936F0340917103A7
:102DF00050917203220F331FF901ED58FC4F51839C
:102E00004083109272031092710391E021C090915F
:102E10006B03913001F58130A9F520916F0330915A
:102E20007003A9014F5F5F4F5093700340936F038E
:102E30004091710350917203220F331FF901ED5835
:102E4000FC4F51834083109272031092710392E001
:102E500090936B0317C090916B03923061F48823B9
:102E600009F4B9CF209171033091720325363105F1
:102E700048F093E0EDCF90916B03933099F4882361
:102E800009F49ECF90916E039923A9F0811126C079
:102E900080916D03882371F080916D0361E00E9441
:102EA0002A0309C090916B03943061F791E09093ED
:102EB0003D04DFCF2D9AFF91EF91DF91CF91BF912C
:102EC000AF919F918F917F916F915F914F913F91C2
:102ED0002F910F900FBE0F901F90189580916D034A
:102EE000882321F080916D0360E0D9CF2D98E3CF46
:102EF0001092C5021092C40288EE93E0A0E0B0E008
:102F00008093C6029093C702A093C802B093C902EF
:102F100024E431E03093C3022093C20225EC30E078
:102F20003093CF022093CE0224EC30E03093D102D4
:102F30002093D00220EC30E03093D3022093D202D1
:102F400021EC30E03093D5022093D40222EC30E023
:102F50003093D7022093D60226EC30E03093D9028A
:102F60002093D8021092DB021092DC021092DD0254
:102F70001092DE0210926203109261038093630349
:102F800090936403A0936503B093660386E591E094
:102F90009093600380935F038AE090E00E946C242A
:102FA000909376048093750482E090E00E946C24F4
:102FB000909374048093730482EC91E00E946C24DB
:102FC000909372048093710484E080936C03109258
:102FD0006E036DE671E08BE694E00E94F6101092AD
:102FE000560410925D0410926404109265041092CD
:102FF00066041092670481E0809363048093600408
:103000001092610492E0909362048093550485E1EC
:1030100090E090935A04809359040E946C249093FA
:103020005F0480935E04009709F441C025E1DC0150
:103030001D922A95E9F787E090E0909358048093D9
:1030400057048AE090E090935C0480935B04809145
:103050005604882341F061E08AE00E94840360E026
:103060008AE00E942A03E6E3F2E0E491F0E0EE0F4A
:10307000FF1FEE5DFD4F85919491909369048093BD
:103080006804E8E1F2E0E491E0936A04E4E4F4E047
:1030900081E1DF011D928A95E9F780E480933E0487
:1030A0008FE593E09093400480933F04089510923D
:1030B0005A04109259041092580410925704C1CF28
:1030C000CF93DF93CDB7DEB7EC970FB6F894DEBFA2
:1030D0000FBECDBF789484B5826084BD84B5816015
:1030E00084BD85B5826085BD85B5816085BD8091D3
:1030F0006E00816080936E0010928100809181004B
:103100008260809381008091810081608093810042
:10311000809180008160809380008091B100846004
:103120008093B1008091B00081608093B000809165
:103130007A00846080937A0080917A008260809324
:103140007A0080917A00816080937A0080917A0081
:10315000806880937A001092C100E091D202F091D1
:10316000D30212E01083E091CE02F091CF021082E0
:10317000E091D002F091D10280E180831092DA02D6
:10318000E091D602F091D70286E08083E091D402EC
:10319000F091D502808180618083E091D402F0912A
:1031A000D502808188608083E091D402F091D502BD
:1031B000808180688083E091D402F091D502808183
:1031C0008F7D808385E090E0A0E0B0E08093C60230
:1031D0009093C702A093C802B093C90288E791E018
:1031E0000E942A0910925602109255021092730200
:1031F000109272020E94460486E991E090932102A7
:103200008093200287E991E090931F0280931E0231
:1032100088E18093B800F8941092800089E0809350
:10322000810080E293E0909389008093880010925F
:1032300085001092840010936F00789410926B03B5
:103240001092700310926F0380916C0360E00E94F3
:10325000840364E070E08BE694E00E942F1080917C
:103260005B0490915C0497FD08C061E00E948403B8
:1032700060E080915B040E942A0381E08093560401
:1032800060915D04633329F120915E0430915F0405
:103290006150C9F070E08FEF92E30E949F2BF9011B
:1032A0004091590450915A04CF01821B930B84170B
:1032B000950760F44081469FC001479F900D1124FF
:1032C00090833196EDCF70E060E0E9CF83E38093A7
:1032D0005D0480E791E00E9419090E9426092DE310
:1032E000E22E22E0F22E00E110E0C8010E940C0A5A
:1032F000D7018D937D010F5F1F4F00321105A9F794
:10330000109256021092550210927302109272029D
:103310000E94460486E991E0909321028093200266
:1033200087E991E090931F0280931E0240E860E0DD
:103330008EE394E00E94BD066AE070E080E090E0D9
:103340000E94EC0340E050E06AE774E48EE394E00E
:103350000E945C0890E4C92E98E7D92E9DE7E92EDB
:10336000FF24F394C0924104D0924204E0924304BB
:10337000F092440440E050E060E773E48EE394E0B0
:103380000E945C08C0924704D0924804E09249042D
:10339000F0924A04C0924104D0924204E092430465
:1033A000F09244040E944A0780E10E94B503BC01E8
:1033B000990F880B990B611571058105910511F025
:1033C0000E942C2683E591E00E942A0990E080E08B
:1033D0008C010F5F1F4F885E9E4F0E940C0A080FE2
:1033E000111DC801885E9E4F0E940C0A8E3419F090
:1033F000C8010496EDCF68E071E0C801865E9E4F7B
:103400000E940D108FEF93E00E94131460ED77E09F
:1034100080E090E00E94EC038DE691E00E942A0992
:1034200086E691E00E942A098FE591E00E942A0930
:1034300085E10E94B5038C018A389240E4F58091C1
:1034400022029091230208171907A9F58AE791E053
:103450000E94C602C80163E670E00E94B32B6B01B4
:10346000072E000CEE08FF0877FF21C06DE282EC0A
:1034700092E00E94790266277727CB016C197D09BB
:103480008E099F094AE00E94580986E50E94360984
:1034900081ED93E00E94131460ED77E080E090E00E
:1034A0000E94EC031093230200932202C1CF4AE052
:1034B000C701B601E8CF1093230200932202809146
:1034C0000201882309F43FC10E94DD252FB7F8943B
:1034D000C0905902D0905A02E0905B02F0905C02DA
:1034E0002FBF0091240210912502209126023091D5
:1034F000270246015701801A910AA20AB30A9501D0
:103500008401093E13402105310508F41CC12AE05D
:1035100030E040E050E00E9406284FB7F894C09099
:103520005902D0905A02E0905B02F0905C024FBFCB
:10353000C0922402D0922502E0922602F092270245
:10354000653071050CF0FFC0633071050CF073C17C
:1035500089E48AA78DE48BA789E0EEE2F1E0DE0141
:10356000919601900D928A95E1F74AE069E070E04A
:1035700080E090E00E9458090E94260989E0E7E374
:10358000F1E0DE01119601900D928A95E1F70E941B
:10359000DD2522E030E040E050E00E9406286C0F7C
:1035A0007D1FDB019A968C91809350020E94DD254D
:1035B00024E030E040E050E00E9406286C5F7F4F3E
:1035C00070933C0260933B0200E080913B0290913B
:1035D0003C02202E312C281639060CF0A3C00E9484
:1035E000DD2529E030E040E050E00E940628E62E8C
:1035F000F12C220C331CE1E2F0E0EC0FFD1FEE0D8C
:10360000FF1DA080E0917104F0917204E20DF31DA2
:10361000A0828A2C880C990899AA88AAC4018C5F78
:103620009E4F9BAB8AABDC018D909C90092C000CCB
:10363000AA08BB080E94DD25E1E0F0E0EC0FFD1FC9
:10364000EE0DFF1D1081C12ED12CF12CE12C169511
:10365000412E512C712C612CA70196010E94062845
:10366000860E971EA81EB91E84189508A608B708CE
:10367000B1E88B16BFEF9B06AB06BB064CF5E8A97D
:10368000F9A9EC5FFE4FF9ABE8AB80809180092C83
:10369000000CAA08BB080E94DD25A70196010E9424
:1036A0000628680D791D8A1D9B1D641975098609F8
:1036B000970961387F4F8F4F9F4F44F560E8E09145
:1036C0007104F0917204E20DF31D61830F5F7DCFF1
:1036D000AAA9BBA98D909C90092C000CAA08BB0834
:1036E0000E94DD25A70196010E940628860E971EDE
:1036F000A81EB91E84189508A608B7086FE7BFE78B
:103700008B169104A104B104D4F6B9CFE8A9F9A9A4
:10371000B0800E94DD25A70196010E940628B11AFB
:103720006B0DCDCF880F991F90933C0280933B0285
:103730002091710430917204820F931FDC011C925E
:1037400085E080934F0283E793E090933602809365
:10375000350280916F0390917003909338028093AB
:10376000370280913D0490E090933A0280933902B1
:1037700080916B03833009F0B5C0809175039091FF
:103780007603875891098E35910508F0A5C0809180
:103790006F0390917003049709F06DC080917703D7
:1037A000909178038097479708F065C080917903DE
:1037B00090917A030997099708F05DC0109234023E
:1037C0001092330288248A94982C540180922D02FE
:1037D00090922E02A0922F02B092300283E090E0ED
:1037E00090932A028093290280912D0290912E02BB
:1037F000A0912F02B0913002892F9A2FAB2FBB27B7
:10380000823609F4EFC108F0C3C1803309F4F9C16D
:1038100008F0A8C1803109F4FDC108F051C164EC81
:1038200071E0823009F454C163E971E0CE01819600
:103830000E94F61051C1FB01EE0FFF1FEB57FE4F28
:103840006591749180917104909172040E94532645
:103850008091710490917204BC01FB012191BF0120
:10386000209350022B3621F48091750490917604B8
:103870000E94B32C65CF80916F03909170038434C4
:10388000910550F1809177039091780381549109CB
:103890008F9710F590E080E040E050E0BA01FC0125
:1038A000E758FC4F208131812950310929303105F9
:1038B00098F4FC01E558FC4F2081318127513109F2
:1038C0002231310508F4DEC02081318126503109D2
:1038D0002730310508F4EFC010926B03109270038B
:1038E00010926F0382EC92E00E94370218161906BC
:1038F0008CF582E080934F0282EC92E00E94D50129
:10390000182F8093500261E070E080E090E00E9408
:10391000EC031B3409F017C2E0907104F0907204BC
:1039200010E000E082EC92E00E943702892B51F017
:1039300082EC92E00E94D501F701E00FF11F808335
:103940000F5F1F4FF8013197EE0DFF1D80818E37FD
:1039500049F7108260914F02662309F4ABC2F090E0
:103960005002653010F5B2E6FB16F9F0ECE4FE16F5
:10397000E1F0F9E4FF16C9F08CE88F0D8230A8F071
:1039800070E06B5F7F4F660F771F072E000C880B70
:10399000990B0E94D326EE24E39410E000E020E08F
:1039A00030E048E452E40E949D1180914E0283561B
:1039B000823058F443E6842EF81439F088EB9BE00B
:1039C0000E944C0887E40E9436098091500280379B
:1039D00051F080914D02811106C081E080934D022B
:1039E00080E70E943609F0905002E6ECEF0DE134DA
:1039F00008F004C20E2E000CFF0BEF5FF24E0C9489
:103A0000C72B75237023FE1EFE1EFE1EFE1EFE1E0D
:103A1000FE1E7722FE1EFE1EFE1EFE1EFE1EFE1E49
:103A20002A22FE1EC6226A222A22FE1EFE1EFE1E1A
:103A3000FE1EFE1E7920B622FE1EFE1EFE1EFE1E6D
:103A4000FE1EFE1EFE1EFE1EFE1EFE1EFE1EFE1E96
:103A50006320792079207823FE1EFE1EFE1EFE1EA6
:103A60007920CF1F5A23FE1E7920FE1E0520BC1F81
:103A7000FE1EFE1E0A2079207920FE1EFE1EFE1E5E
:103A8000FE1EF21E440F551F661F771F41600496ED
:103A90008038910509F003CF80E290E090933402E2
:103AA0008093330240932D0250932E0260932F0295
:103AB0007093300293CE440F551F661F771FE7CFD8
:103AC000883109F4A1C06CEC71E0823209F0ACCE0F
:103AD000CE0181960E9437116CE771E0CE0181968C
:103AE0000E94BE09882309F4A1C06EE771E08BE64D
:103AF00094E00E94C0106BE674E0CE018A960E94AA
:103B0000A410CE0181960E94110963E971E0CE01F3
:103B10008A960E94BE0981111AC000917504109105
:103B200076046AA57BA5C8010E94B32CD8010D902C
:103B30000020E9F7CD0102978017910709F001C134
:103B4000F80180818093500281E080934F021092AF
:103B50006B031092700310926F03CE018A960E943D
:103B60001109C0CE8A3409F45BC048F4883309F4E3
:103B700054C068E971E0823409F4AACF55CE823589
:103B800009F451C06EE971E08A3509F4A1CF4CCE39
:103B9000823A29F188F48A37D1F130F469EB71E087
:103BA000883609F495CF40CE803941F166EB71E05B
:103BB000883909F48DCF38CE823CB9F040F4883A88
:103BC000D1F063EB71E0803B09F482CF2DCE803ED3
:103BD00079F06EEC71E0823E09F47ACF25CE62ED89
:103BE00071E076CF60ED71E073CF62EC71E070CF81
:103BF00060EC71E06DCF6EEB71E06ACF6CEB71E061
:103C000067CF60EB71E064CF6CEA71E061CF68EA86
:103C100071E05ECF65EA71E05BCF62EA71E058CF98
:103C200061E971E055CF6FE871E052CF61E871E072
:103C3000CE0181960E94BE09811110C063E871E037
:103C4000CE0181960E94BE09811108C065E871E02D
:103C5000CE0181960E94BE098823D1F18DA19EA13B
:103C6000892B21F0E9A1FAA1309721F410922802C2
:103C7000E8E2F2E0108110930101163431F46DE6B0
:103C800071E08BE694E00E94C0106BE674E0CE0118
:103C900001960E94A4101AA71BA641E050E0BE01A5
:103CA000665D7F4FCE0101960E945710811104C0BE
:103CB000CE0101960E94FF08BE016F5F7F4FCE01CB
:103CC0008A960E94A410CE0101960E94110919CF74
:103CD00067E871E0CE0181960E94BE0981111EC085
:103CE0006AE871E0CE0181960E94BE09811116C07A
:103CF0006DE671E0CE0181960E94BE0981110EC071
:103D00001BA61AA61DA61CA61FA61EA6BE016F5D99
:103D10007F4FCE018A960E94D309F3CE69A17AA182
:103D20006115710549F04DA15EA18BE694E00E94FA
:103D3000831010910101A9CF8BE694E00E94FF0847
:103D4000F8CF8BE6FFCE82EC92E00E943702181685
:103D500019060CF0A6C563E971E0CE0181960E94B8
:103D6000F610193439F084EB810F823018F06AE0D4
:103D7000123409F46EE7CE0101960E940711BE01CC
:103D80006F5F7F4FCE0181960E94D309CE010196CD
:103D90000E9411092DA13EA130933C0220933B02C9
:103DA0001B3631F08091710490917204143721F424
:103DB000809175049091760449A15AA1DC01FA0121
:103DC000BF01641B750B621773071CF461916D933F
:103DD000F7CF820F931FDC011C92CE0181960E94C7
:103DE0001109B8CD8091020191E0892780930201E9
:103DF000882311F03AE5F32EF092500280915002A0
:103E00008B3621F4909161021916E4F40E94360970
:103E100010915002812F012E000C990B0E94992CB9
:103E2000873631F0863721F0823611F01A3621F4C8
:103E300080914E028B3619F01B7F103719F48BE6F8
:103E400080935002009175041091760469E971E045
:103E5000C8010E94AA2CF0905002892B09F1E9E4D4
:103E6000FE16F1F085EB8F0D8330D0F08091730456
:103E700090917404009711F00E94082581E090E071
:103E80000E946C24F80101900020E9F7E01BDC019E
:103E9000EC939093740480937304B8010E94B32C44
:103EA00010924F02F0924E028F2D877F833611F0D1
:103EB00010925002809150028B3609F0A2C41091EA
:103EC000610217FF27C4D0906E02DA9410E082E3FB
:103ED000C82E212F30E080916102082E000C990B32
:103EE00097FF03C0919581959109281739070CF028
:103EF00088C4E0907002F090710280916602189F71
:103F0000E00CF11C1124F7016089062E000C770BE0
:103F1000880B990B0E94D32620E030E040E85EE356
:103F20000E9432279B01AC0100E060916B02C70147
:103F30000E94210D80916602E0917002F091710261
:103F4000189FE00DF11D11242189022E000C330B66
:103F5000AC2D0C2C000CBB0B0E94CD2B0E94EC0353
:103F600080916D02181306C01D1424F410916C0288
:103F70001150DA941F5FADCF80914D0291E0811115
:103F800090E090934D02882311F020E5F22EF092FC
:103F90005002882309F432CF0E944A072FCF0E9493
:103FA0009C0963E971E0CE0181960E94F61004E05D
:103FB00011E094E2E92E91E0F92ED8016D917D9106
:103FC0008D01CE0101960E94CA104D815E816981EA
:103FD0007A81CE0181960E945710CE0101960E94EF
:103FE000110942E050E061E971E0CE0181960E9442
:103FF0005710E016F10609F7CE0181960E94450997
:10400000CE0181960E941109F9CE86EC93E00E94C0
:104010001314F4CE86E092E00E942A090DE3802E6C
:1040200002E0902E80E4E82EF12C00E110E0F40193
:10403000D1904F01C8010E94F027D81621F06D2DB4
:10404000C8010E94F827C7010E949F0A6C01C8019D
:1040500080960E940C0AB82EF40131976081062EDA
:10406000000C770B880B990B0E94D3262B013C0187
:104070006B2DBB0C770B880B990B0E94D3269B01F1
:10408000AC01C301B2010E9432272B013C01B601F1
:10409000DD0C880B990B0E94D3269B01AC01C30158
:1040A000B2010E94A1280E948429C70180960E9423
:1040B0000D100F5F1F4FF2E0EF0EF11C00321105E3
:1040C00009F0B5CF9BCE8EEF91E00E942A091DE347
:1040D000E12E12E0F12E00E110E0C8010E940C0A6E
:1040E000D7018D937D010F5F1F4F00321105A9F796
:1040F00085CEE4E0F1E0DE01119684E291E01D015D
:10410000219131912D933D938E179F07C9F7B4E705
:104110008091750490917604FB1621F080917104D2
:10412000909172046DE871E00E9463263C01611475
:10413000710409F4CEC0C3010E9435268C0160E9E8
:1041400071E090E080E00E9463263C01F12CE12CBC
:10415000BB24B394009761F00E9435267C0160E98E
:1041600071E090E080E00E9463263C01B2E0BB2E4B
:10417000F801EE0FFF1FE20DF31DF182E082809146
:104180005002833609F0ABC088EB9CE00E944C08DB
:104190001092020180914E02833661F0C090750446
:1041A000D090760467E671E0C6010E94B32CC60188
:1041B0000E94AF0EF801E35CFD4F6F01F2E0BF1209
:1041C00002C0D601EC92C8018096880F991F0E9408
:1041D0009F0A7C01C8019927C0960E940C0A182FDB
:1041E000F6016081062E000C770B880B990B0E945C
:1041F000D3264B015C01612F110F770B880B990BB4
:104200000E94D3269B01AC01C501B4010E94322754
:104210004B015C01B701FF0C880B990B0E94D32660
:104220009B01AC01C501B4010E94A1280E94842910
:10423000072E000C880B990B0E94D326AB01BC0102
:10424000802F0E94B30A0E949C0963E971E0CE01AD
:104250008A960E94F6100DE312E0D8016D918D014F
:10426000062E000C770BCE0181960E94CA104DA13C
:104270005EA169A17AA1CE018A960E945710CE0153
:1042800081960E94110942E050E061E971E0CE019F
:104290008A960E945710EDE4F2E0E017F107E9F684
:1042A000CE018A960E944509CE018A960E94110984
:1042B0006114710409F03BCF80915002893609F0F6
:1042C0009DCD40E050E060E070E4C1010E94C80B69
:1042D00095CDF12CE12C10E000E0B12C49CF8D36CA
:1042E00041F440E050E060E070E4C1010E94C80B7E
:1042F000DFCF833541F4C80199270E940C0AB7012A
:104300000E940008D5CF843799F2853709F088C01C
:104310000E94DD252AE030E040E050E00E940628BF
:1043200064526AAB0E94DD252AE030E040E050E0B4
:104330000E9406286E5268AB0E94DD256B017C014D
:104340000E94DD2522E030E040E050E00E94062897
:104350006F5F6CABC701B60124E030E040E050E095
:104360000E9406286E5F7F4F8F4F9F4F262F220F90
:10437000220F620F262F30E0A8EEB3E00E949128B2
:104380006DAB7EAB8FAB98AFB12C88A8482C512C6D
:104390009CA8B91408F08CCFA8A8912C812C2AA92C
:1043A000A21608F03BC06201C80CD91C8601000FA0
:1043B000111F000F111F05501109CC0CDD1CC60187
:1043C000B0E0A0E089AF9AAFABAFBCAFC12CD12CAD
:1043D00076018DA99EA9AFA9B8ADC816D906EA067F
:1043E000FB06BCF461E085E00E942A03C801019746
:1043F000F1F760E085E00E942A03C8010197F1F718
:1044000089AD9AADABADBCADC80ED91EEA1EFB1E80
:10441000E0CFA3949FEF891A990AC1CFB394B8CF84
:10442000823609F045CFB701FF0C880B990B0E942B
:10443000D3264B015C01B801110F880B990B0E9428
:10444000D326EE24E39402E310E0A50194010E9438
:104450009D112ECFE4E0F1E0DE01119684E291E0BF
:104460007D01219131912D933D938E179F07C9F7BF
:1044700010E000E02091500280913B0290913C02BC
:1044800008171907F4F4A0917104B0917204A00FF9
:10449000B11FEC91EE0FFF0BEE0DFF1D11968C91ED
:1044A000082E000C990B918380832D3439F440E061
:1044B00050E060E070E4C7010E94C80B0E5F1F4F20
:1044C000D9CF293409F09ACC40E050E060E070E4A4
:1044D000C701FCCE00E020E030E040E050E461E0C5
:1044E00080917104909172040E94210D87CCF12C6F
:1044F00068EEC62E63E0D62E2F2D30E080913B0271
:1045000090913C0297FD019695958795281739075C
:104510000CF0CAC10091710410917204220F331F74
:10452000020F131FD80111966C91062E000C770B09
:10453000C6010E94B32B072E000C880B990B0E941A
:10454000D3264B015C01F8016081062E000C770B2D
:10455000880B990B0E94D326EE24E39410E000E030
:10456000A50194010E949D11F394C6CF86E191E0CC
:104570000E949F0A0E9458070E949A0E8091500242
:104580000E9436098BE68093500238CC84E191E09A
:104590000E949F0A8C010E94DD256B017C0184E151
:1045A00091E00E949F0A092E000CAA0BBB0B2CE085
:1045B0003EE140E050E0281B390B4A0B5B0BC70182
:1045C000B6010E940628060F171FB80186E191E088
:1045D0000E940D106090710470907204D3016C9170
:1045E0006093610286E692E00E94ED0601967C01EE
:1045F000D12CC12C5524539424E5422E1E141F04A3
:104600009CF55092750240927402109273021092BF
:104610007202612F70E08FE593E00E940A07B801F3
:1046200077278FE593E00E940A075301AC0CBD1C6D
:104630004801B0E18B0E911C0115E0E21E07B9F4B0
:104640000E94260984ED91E00E942A0992E0E92E59
:1046500002E310E020E030E048EC52E460E070E07B
:1046600080E291E40E949D110E949A0E8BCFFFEF91
:10467000CF1ADF0AD5016D915D018FE593E00E94AD
:10468000A4050F5F1F4FB1E0EB1AF10841F0C8011C
:104690008F719927892B19F08016910669F68FE59D
:1046A00093E00E94D30566E070E080E090E00E9415
:1046B000EC03A4CF0091750410917604B8018091A9
:1046C0007304909174040E94AA2C892B29F4809180
:1046D000610282300CF0EBC0C8010E94AF0E8ECB9D
:1046E00088EB9BE00E944C0889CB88EB9CE0FACFDA
:1046F000009175041091760464E971E0C8010E948C
:10470000B32CC8010E94AF0E0E944A0787E60E94A0
:10471000360974CB80915D02803108F49EC02091EF
:1047200057023091580210925D0280914D02820F23
:10473000932F911D212F012E000C330B821793070D
:104740000CF087C0909358028093570200915D024D
:1047500020916F02C0905702D0905802E02EF12CA9
:10476000021708F083C012300CF480C0812C912C09
:104770005401013059F060916002062E000C770B55
:10478000880B990B0E94D3264B015C01F2E0EF0EDF
:10479000F11CEC9CB001ED9C700DFC9C700D112483
:1047A000072E000C880B990B0E94D3262BED3FE0BF
:1047B00049E450E40E9432276B017C01612F110F04
:1047C000770B880B990B0E94D3269B01AC01C70184
:1047D000B6010E9412290E944E2A20E030E040E2F9
:1047E00051E40E943227A50194010E94A128AB0147
:1047F000BC01802F0E94220B80915D028F5F80930D
:104800005D028091610287FF14C0009175041091D0
:1048100076046CE971E0C8010E94B32CF801808134
:10482000882319F0C8010E94AF0E809150020E94A7
:10483000360980E090E0892B11F40C94181A0E943C
:104840004302882311F40C94181A0E9400000C945F
:10485000181A109258021092570280915D0284300B
:1048600009F074CF88E080935D0270CF30916602CA
:104870003C9DC0013D9D900D1124E80EF91EE21AE9
:10488000F1088091700290917102E80EF91ED70133
:104890006C91062E000C770B880B990B0E94D32687
:1048A000A6CF60914F025BC880915002AFCA8F2D96
:1048B000A9CA80915E0490915F040E9408258091AE
:1048C0005B0490915C0497FD03C060E00E94840348
:1048D0008BE694E00C9411090F931F93CF93DF9311
:1048E0008230910510F482E090E0E0917B04F09139
:1048F0007C0430E020E0B0E0A0E0309799F421158E
:10490000310509F44AC0281B390B24303105D8F58C
:104910008A819B816115710589F1FB0193838283F3
:10492000FE0111C04081518102811381481759074E
:10493000E0F04817590799F4109761F012960C931C
:10494000129713961C933296CF01DF91CF911F914E
:104950000F91089500937B0410937C04F4CF2115EC
:10496000310551F04217530738F0A901DB019A01D4
:10497000BD01DF01F801C1CFEF01F9CF90937C04B5
:1049800080937B04CDCFFE01E20FF31F81939193BF
:104990002250310939832883D7CF2091790430916F
:1049A0007A04232B41F42091260130912701309382
:1049B0007A04209379042091240130912501211556
:1049C000310541F42DB73EB740912801509129019E
:1049D000241B350BE0917904F0917A04E217F30778
:1049E000A0F42E1B3F0B2817390778F0AC014E5F5F
:1049F0005F4F2417350748F04E0F5F1F50937A041E
:104A000040937904819391939FCFF0E0E0E09CCFB5
:104A1000CF93DF930097E9F0FC0132971382128263
:104A2000A0917B04B0917C04ED0130E020E0109770
:104A3000A1F420813181820F931F2091790430915C
:104A40007A042817390709F061C0F0937A04E093DB
:104A50007904DF91CF910895EA01CE17DF07E8F5D9
:104A60004A815B819E0141155105B1F7E901FB8344
:104A7000EA8349915991C40FD51FEC17FD0761F4E2
:104A8000808191810296840F951FE9019983888323
:104A9000828193819B838A83F0E0E0E012968D917E
:104AA0009C9113970097B9F52D913C911197CD01E9
:104AB0000296820F931F2091790430917A0428176F
:104AC000390739F6309751F510927C0410927B0427
:104AD000B0937A04A0937904BCCFD383C28340817E
:104AE0005181840F951FC817D90761F44E5F5F4F3E
:104AF00088819981480F591F518340838A819B8106
:104B0000938382832115310509F0B0CFF0937C04A3
:104B1000E0937B049ECFFD01DC01C0CF13821282A3
:104B2000D7CF8F929F92AF92BF92CF92DF92EF92A8
:104B3000FF92CF93DF93EC01688179818A819B8119
:104B4000611571058105910521F464E279ED8BE52C
:104B500097E02DE133EF41E050E00E940628490143
:104B60005A019B01AC01A7EAB1E40E9425286B0120
:104B70007C01ACEEB4EFA50194010E943328C60E6F
:104B8000D71EE81EF91EF7FE06C081E0C81AD1083C
:104B9000E10880E8F80AC882D982EA82FB82C7016C
:104BA000B6019F77DF91CF91FF90EF90DF90CF908C
:104BB000BF90AF909F908F9008958F929F92AF92E9
:104BC000BF92CF92DF92EF92FF9260912A01709193
:104BD0002B0180912C0190912D01611571058105AA
:104BE000910521F464E279ED8BE597E02DE133EF57
:104BF00041E050E00E94062849015A019B01AC01A6
:104C0000A7EAB1E40E9425286B017C01ACEEB4EF69
:104C1000A50194010E943328C60ED71EE81EF91E76
:104C2000F7FE06C081E0C81AD108E10880E8F80A5A
:104C3000C0922A01D0922B01E0922C01F0922D011A
:104C4000C701B6019F77FF90EF90DF90CF90BF90A4
:104C5000AF909F908F90089560932A0170932B01DD
:104C600080932C0190932D010895FC0188279927AA
:104C7000E89421912032E9F3293010F02E30C8F366
:104C80002B3241F02D3239F4689404C00E949A26E8
:104C9000820F911D219120532A30C0F31EF490956C
:104CA00081959F4F0895FB01DC0105900D92002036
:104CB000E1F70895FC0105900020E9F780959095B3
:104CC0008E0F9F1F089547E754E00E9468260895BD
:104CD000FA01A191B081009719F41097E1F0CD018C
:104CE000DC01CD010D90002011F4C00113C0FB01C7
:104CF0002191222319F02015D9F7F3CFFB0121913F
:104D0000201519F41E92119606C02223C1F70D90AA
:104D10000020A1F7D001FA01A193B0830895BB2729
:104D20004A3031F4992322F4BDE2909581959F4F4A
:104D30000C94A3267AE0979F902D879F802D910D4C
:104D400011240895BB27FB015527AA27880F991F17
:104D5000AA1FA41710F0A41B83955051B9F7A05DAA
:104D6000AA3308F0A95DA193009779F7B111B19327
:104D70001192CB010C94BC26DC01FC01672F7191D0
:104D80007723E1F7329704C07C916D937083629131
:104D9000AE17BF07C8F308950E940E2708F481E0FC
:104DA0000895E89409C097FB3EF49095809570951E
:104DB00061957F4F8F4F9F4F9923A9F0F92F96E967
:104DC000BB279395F695879577956795B795F111DC
:104DD000F8CFFAF4BB0F11F460FF1BC06F5F7F4F79
:104DE0008F4F9F4F16C0882311F096E911C077238B
:104DF00021F09EE8872F762F05C0662371F096E894
:104E0000862F70E060E02AF09A95660F771F881F62
:104E1000DAF7880F9695879597F90895990F000806
:104E2000550FAA0BE0E8FEEF16161706E807F9077C
:104E3000C0F012161306E407F50798F0621B730B17
:104E4000840B950B39F40A2661F0232B242B252B98
:104E500021F408950A2609F4A140A6958FEF811D3B
:104E6000811D08950E9445270C94B6270E94A8270B
:104E700038F00E94AF2720F0952311F00C949F2763
:104E80000C94A52711240C94EA270E94C72770F3DD
:104E9000959FC1F3950F50E0551F629FF001729FDF
:104EA000BB27F00DB11D639FAA27F00DB11DAA1FEE
:104EB000649F6627B00DA11D661F829F2227B00D3B
:104EC000A11D621F739FB00DA11D621F839FA00DC6
:104ED000611D221F749F3327A00D611D231F849F16
:104EE000600D211D822F762F6A2F11249F5750406D
:104EF0009AF0F1F088234AF0EE0FFF1FBB1F661FE8
:104F0000771F881F91505040A9F79E3F510580F0B0
:104F10000C949F270C94EA275F3FE4F3983ED4F368
:104F2000869577956795B795F795E7959F5FC1F754
:104F3000FE2B880F911D9695879597F9089597F9FF
:104F40009F6780E870E060E008959FEF80EC08952F
:104F500000240A9416161706180609060895002458
:104F60000A9412161306140605060895092E0394D2
:104F7000000C11F4882352F0BB0F40F4BF2B11F446
:104F800060FF04C06F5F7F4F8F4F9F4F089557FDA5
:104F90009058440F551F59F05F3F71F04795880FA7
:104FA00097FB991F61F09F3F79F08795089512163E
:104FB00013061406551FF2CF4695F1DF08C01616EA
:104FC00017061806991FF1CF86957105610508949B
:104FD0000895E894BB2766277727CB0197F90895B2
:104FE000F999FECF92BD81BDF89A992780B50895B1
:104FF000262FF999FECF1FBA92BD81BD20BD0FB6F5
:10500000F894FA9AF99A0FBE01960895052E97FB27
:105010001EF400940E941D2857FD07D00E946F289F
:1050200007FC03D04EF40C941D2850954095309504
:1050300021953F4F4F4F5F4F089590958095709504
:1050400061957F4F8F4F9F4F08950E949128A59F94
:10505000900DB49F900DA49F800D911D1124089573
:10506000B7FF0C9425280E942528821B930B0895D6
:105070002F923F924F925F926F927F928F929F9268
:10508000AF92BF92CF92DF92EF92FF920F931F9356
:10509000CF93DF93CDB7DEB7CA1BDB0B0FB6F89407
:1050A000DEBF0FBECDBF09942A88398848885F8447
:1050B0006E847D848C849B84AA84B984C884DF80B8
:1050C000EE80FD800C811B81AA81B981CE0FD11D9C
:1050D0000FB6F894DEBF0FBECDBFED010895A1E27B
:1050E0001A2EAA1BBB1BFD010DC0AA1FBB1FEE1F62
:1050F000FF1FA217B307E407F50720F0A21BB30BAD
:10510000E40BF50B661F771F881F991F1A9469F728
:1051100060957095809590959B01AC01BD01CF0184
:105120000895A29FB001B39FC001A39F700D811D80
:105130001124911DB29F700D811D1124911D0895A0
:105140005058BB27AA270E94B8280C94B6270E9463
:10515000A82738F00E94AF2720F039F49F3F19F4B8
:1051600026F40C94A5270EF4E095E7FB0C949F27FA
:10517000E92F0E94C72758F3BA17620773078407FD
:10518000950720F079F4A6F50C94E9270EF4E09544
:105190000B2EBA2FA02D0B01B90190010C01CA01F1
:1051A000A0011124FF27591B99F0593F50F4503E9C
:1051B00068F11A16F040A22F232F342F4427585F8E
:1051C000F3CF469537952795A795F0405395C9F7A6
:1051D0007EF41F16BA0B620B730B840BBAF091505E
:1051E000A1F0FF0FBB1F661F771F881FC2F70EC0FD
:1051F000BA0F621F731F841F48F4879577956795D0
:10520000B795F7959E3F08F0B0CF9395880F08F0BB
:105210009927EE0F9795879508950E94BC29E395ED
:105220000C94E5290E9426290C94B6270E94AF27EA
:1052300058F00E94A82740F029F45F3F29F00C9411
:105240009F2751110C94EA270C94A5270E94C72789
:1052500068F39923B1F3552391F3951B550BBB27A5
:10526000AA2762177307840738F09F5F5F4F220FEA
:10527000331F441FAA1FA9F335D00E2E3AF0E0E8E1
:1052800032D091505040E695001CCAF72BD0FE2F2B
:1052900029D0660F771F881FBB1F261737074807BF
:1052A000AB07B0E809F0BB0B802DBF01FF27935877
:1052B0005F4F3AF09E3F510578F00C949F270C9475
:1052C000EA275F3FE4F3983ED4F386957795679598
:1052D000B795F7959F5FC9F7880F911D96958795AC
:1052E00097F90895E1E0660F771F881FBB1F6217CB
:1052F00073078407BA0720F0621B730B840BBA0B89
:10530000EE1F88F7E09508950E948B296894B111EB
:105310000C94EA2708950E94CF2788F09F5798F0B1
:10532000B92F9927B751B0F0E1F0660F771F881FAA
:10533000991F1AF0BA95C9F714C0B13091F00E94C4
:10534000E927B1E008950C94E927672F782F882783
:10535000B85F39F0B93FCCF3869577956795B395EB
:10536000D9F73EF490958095709561957F4F8F4F5A
:105370009F4F08950C94A5270E94CF27D8F3E89457
:10538000E0E0BB279F57F0F02AED3FE049EC06C074
:10539000EE0FBB0F661F771F881F28F0B23A620717
:1053A0007307840728F0B25A620B730B840BE395E2
:1053B0009A9572F7803830F49A95BB0F661F771F65
:1053C000881FD2F790480C94922AEF93E0FF07C011
:1053D000A2EA2AED3FE049EC5FEB0E94B8280E9468
:1053E000B6270F90039401FC9058E8E6F0E00C9487
:1053F000C52A0E940E2708F48FEF0895FA01EE0FD8
:10540000FF1F309621053105A1F16115710561F489
:105410008038BFE39B0749F168949038810561F0BB
:105420008038BFEF9B0741F099234AF5FF3FE10524
:105430003105210519F1E8940894E795D901AA23CB
:1054400029F4AB2FBE2FF85FD0F310C0FF5F70F4CC
:10545000A695E0F7F73950F019F0FF3A38F49F7746
:105460009F930DD00F9007FC9058089546F00C9430
:10547000A52760E070E080E89FE308954FE79F77FD
:105480005F934F933F932F930E94232B2F913F9134
:105490004F915F910E9432270C945E2A9F930E9445
:1054A000BC290F9007FCEE5F0C94E52929F416F057
:1054B0000C949F270C94E9270C94A5270E94CF27D2
:1054C000A8F39638A0F707F80F92E8942BE33AEA8E
:1054D00048EB5FE70E9448270F920F920F924DB75B
:1054E0005EB70F920E946B2BE6E8F0E00E949E2AC6
:1054F0004F915F91EF91FF91E595EE1FFF1F49F0EE
:10550000FE57E0684427EE0F441FFA95E1F74195F6
:10551000550B0E94E52A0F9007FE0C94D92A089596
:105520009F3F31F0915020F4879577956795B79517
:10553000880F911D9695879597F90895DF93CF93DE
:105540001F930F93FF92EF92DF927B018C0168947F
:1055500006C0DA2EEF010E944527FE01E894A591CE
:105560002591359145915591A6F3EF010E94B828F8
:10557000FE019701A801DA9469F7DF90EF90FF90A0
:105580000F911F91CF91DF9108959F938F937F93F8
:105590006F93FF93EF939B01AC010E943227EF9131
:1055A000FF910E949E2A2F913F914F915F910C9401
:1055B00032279B01AC0160E070E080E89FE30C942F
:1055C00012290C949F270C94902A0E94CF27D8F37D
:1055D0009923C9F3940F511DA3F39150504094F0B7
:1055E00059F0882332F0660F771F881F9150504082
:1055F000C1F79E3F51052CF7880F911D9695879511
:1056000097F908955F3FACF0983E9CF0BB278695D4
:1056100077956795B79508F4B1609395C1F7BB0F7F
:1056200058F711F460FFE8CF6F5F7F4F8F4F9F4FA8
:10563000E3CF0C94EA2716F00C94902A0C94A5273B
:1056400068940C949F270E94CF27A8F39923C1F355
:10565000AEF3DF93CF931F930F93FF92C92FDD27F4
:1056600088232AF02197660F771F881FDAF720E03A
:1056700030E040E85FEB9FE3883920F0803E38F06F
:1056800021968F770E94A128EEEAF0E004C00E94E4
:10569000A128EBEDF0E00E949E2A8B01BE01EC01F7
:1056A000FB2E6F5771097595771F880B990B0E9418
:1056B000D32628E132E741E35FE30E944527AF2D7F
:1056C0009801AE01FF900F911F91CF91DF910E9441
:1056D000B8280C94B627FA01DC01AA0FBB1F9B0166
:1056E000AC01BF5728F4222733274427507820C025
:1056F000B75190F4AB2F0024469537952795011CA0
:10570000A395D2F3002071F0220F331F441FB395ED
:10571000DAF30ED00C94A02861307105A0E88A0756
:10572000B94630F49B01AC0166277727882790782B
:10573000309621F020833183428353830895AA1B3E
:10574000BB1B51E107C0AA1FBB1FA617B70710F06C
:10575000A61BB70B881F991F5A95A9F7809590959E
:10576000BC01CD01089597FB072E16F4009407D0D5
:1057700077FD09D00E949F2B07FC05D03EF4909541
:1057800081959F4F0895709561957F4F0895EE0F15
:10579000FF1F0590F491E02D09940E949128332376
:1057A00012F48A1B9B0B0C94D72B0E949128B7FFF5
:1057B0000895821B930B0895B0E0A0E0E2EEFBE2B7
:1057C0000C943A288C01009751F4CB010E946C2470
:1057D0008C01C801CDB7DEB7E0E10C945628FC017E
:1057E000E60FF71F9C0122503109E217F30708F476
:1057F0009DC0D901CD91DC911197C617D70798F0BC
:10580000C530D10530F3CE0104978617970708F30A
:10581000C61BD70B2297C193D1936D937C93CF0175
:105820000E940825D6CF5B01AC1ABD0A4C018C0E34
:105830009D1EA0917B04B0917C04512C412CF12C35
:10584000E12C109731F58091790490917A048815B4
:10585000990509F05CC04616570608F058C08091BB
:10586000240190912501009741F48DB79EB7409196
:10587000280150912901841B950BE817F90708F0BE
:1058800055C0F0937A04E0937904F9017183608341
:10589000A0CF8D919C91119712966C9012971396B0
:1058A0007C901397A815B90559F56C0142E0C40E18
:1058B000D11CCA14DB0420F1AC014A195B09DA01DE
:1058C0001296159780F06282738251834083D901CA
:1058D0006D937C93E114F10471F0D7011396FC935E
:1058E000EE93129776CF22968C0F9D1FF90191832C
:1058F0008083F301EFCFF0937C04E0937B0469CFC6
:105900004816590608F42C017D01D3019ACFCB012A
:105910000E946C247C01009749F0AE01B8010E94FE
:10592000A12CC8010E940825870153CF10E000E098
:1059300050CF9111089581548A5108F4805E855AA0
:105940000895FB01DC0102C001900D9241505040CE
:10595000D8F70895FB01DC018D91019080190110A9
:10596000D9F3990B0895FB01DC0101900D92002001
:10597000E1F70895FB01DC014150504030F08D917A
:105980000190801919F40020B9F7881B990B08952C
:1059900011E0C1E2D1E004C0FE010E94C72B2196B4
:0A59A000C232D107C9F7F894FFCF17
:1059AA00FF460101E2FFB0FFD3FF00000000000044
:1059BA00000000004B004B00B5FFB5FFC9FFC9FF4F
:1059CA003700370000007D0480000100000000015C
:1059DA000208090C0D0E0F5A5AB405050A0A0505E4
:1059EA000000000079029901C601E1023702D501DF
:1059FA00290200000000A4057705BA0654058F01A4
:105A0A00640555050D0A0063616C696200747200D1
:105A1A00496E697420736572766F73004200626B17
:105A2A000046004C005200637200776B00202C0085
:105A3A00202C0900726573740072630062616C61E4
:045A4A006E63650022
:00000001FF
