:100000000C9418010C9440010C9440010C94400194
:100010000C9440010C9440010C9440010C94DA15AE
:100020000C9440010C9440010C9440010C94F7177F
:100030000C9440010C9440010C9440010C9440013C
:100040000C948E160C9440010C945C160C9436168D
:100050000C9440010C9440010C9440010C9440011C
:100060000C94D8160C94400105A84CCDB2D44EB9CE
:100070003836A9020C50B9918688083CA6AAAA2A4B
:10008000BE000000803F07634236B79BD8A71A39ED
:10009000685618AEBAAB558C1D3CB7CC5763BD6DD6
:1000A000EDFD753EF6177231BF000000803F08007D
:1000B0000000BE922449123EABAAAA2ABECDCCCCE7
:1000C0004C3E00000080BEABAAAAAA3E0000000081
:1000D000BF000000803F0000000000084178D3BB53
:1000E0004387D1133D190E3CC3BD4282AD2B3E6800
:1000F000EC8276BED98FE1A93E4C80EFFFBE01C4F1
:10010000FF7F3F0000000000010000010000000030
:1001100000000000000000000000000000000000DF
:10012000240027002A00000000080002010000034C
:1001300004070000000000000000024C6F61642012
:10014000736B696C6C7300526561647921004E7940
:1001500062626C65000A2A205374617274202A005E
:100160003E004C6F7720706F7765723A0000000098
:10017000002300260029007A65726F00627574748E
:100180005570007374616E64007065650070750071
:100190006869007374720073697400747200776B1D
:1001A00000637200767400630042007000520062C7
:1001B000616C616E6365004C006700460064004935
:1001C000324320454550524F4D206F766572666C24
:1001D0006F77212044656C65746520736F6D6520B1
:1001E000736B696C6C73210A0061626F7274656471
:1001F000007361766564003F00010204081020402E
:1002000080010204081020010204081020000000F0
:1002100000250028002B0004040404040404040244
:100220000202020202030303030303002919422806
:1002300011241FBECFEFD8E0DEBFCDBF11E0A0E09C
:10024000B1E0ECEEF1E602C005900D92AE3DB107D3
:10025000D9F724E0AEEDB1E001C01D92A53CB20794
:10026000E1F711E0C7E1D1E004C02197FE010E944F
:10027000B02FC631D107C9F70E94791A0C94E93022
:100280000C94000080E090E0A0E0B0E480939E0237
:1002900090939F02A093A002B093A102E091B304B7
:1002A000F091B4048181082E000C990B9093A40264
:1002B0008093A3028281082E000C990B9093A602D2
:1002C0008093A50283818093A70280919D0287FF7E
:1002D0000CC084818093A80285818093A9028681C5
:1002E0008093AA0287E090E005C0813061F05CF065
:1002F00084E098E09093AB02E80FF11DF093AD021B
:10030000E093AC02089584E0EECF80919102909149
:100310009202891B990B0895089508950895AF924C
:10032000BF92CF92DF92EF92FF920F931F93CF93E2
:10033000DF936C017B018B01040F151FEB015E0144
:10034000AE18BF08C017D10759F06991D601ED91D9
:10035000FC910190F081E02DC6010995892B79F778
:10036000C501DF91CF911F910F91FF90EF90DF902A
:10037000CF90BF90AF900895FC01538D448D252FF1
:1003800030E0842F90E0821B930B541710F0CF962F
:10039000089501970895FC01918D828D981761F061
:1003A000A28DAE0FBF2FB11D5D968C91928D9F5F78
:1003B0009F73928F90E008958FEF9FEF08952FB76E
:1003C000F8948091950290919602A0919702B09135
:1003D00098022FBF8093060390930703A09308030E
:1003E000B09309038EEF92E00E94CB0197FF26C0E5
:1003F0002FB7F8948091950290919602A091970260
:10040000B09198022FBF409106035091070360916D
:10041000080370910903841B950BA60BB70B409141
:100420000203509103036091040370910503841744
:100430009507A607B707B0F28FEF9FEF0895FC016D
:10044000918D828D981731F0828DE80FF11D858D89
:1004500090E008958FEF9FEF0895FC01918D228D1C
:10046000892F90E0805C9F4F821B91098F739927A1
:1004700008958EEF92E00E942D0221E0892B09F46D
:1004800020E0822F089580E090E0892B29F00E94DF
:10049000390281110C9400000895FC01A48DA80F6D
:1004A000B92FB11DA35ABF4F2C91848D90E00196B6
:1004B0008F739927848FA689B7892C93A089B189D6
:1004C0008C91837080648C93938D848D981306C077
:1004D0000288F389E02D80818F7D80830895EF92DB
:1004E000FF920F931F93CF93DF93EC0181E0888FEE
:1004F0009B8D8C8D98131AC0E889F989808185FFBE
:1005000015C09FB7F894EE89FF896083E889F9895F
:1005100080818370806480839FBF81E090E0DF9161
:10052000CF911F910F91FF90EF900895F62E0B8DB4
:1005300010E00F5F1F4F0F731127E02E8C8D8E116F
:100540000CC00FB607FCFACFE889F989808185FFD6
:10055000F5CFCE010E944D02F1CFEB8DEC0FFD2FB8
:10056000F11DE35AFF4FF0829FB7F8940B8FEA8991
:10057000FB8980818062CFCF0F931F93CF93DF934E
:100580008C01D0E0C0E0F801EC0FFD1F6491662300
:1005900041F08EEF92E00E946F02892B11F02196BC
:1005A000F2CFCE01DF91CF911F910F910895CF939C
:1005B000DF93EC01888D8823B9F0AA89BB89E8898B
:1005C000F9898C9185FD03C0808186FD0DC00FB631
:1005D00007FCF7CF8C9185FFF2CF808185FFEDCFAF
:1005E000CE010E944D02E9CFDF91CF910895833073
:1005F00081F028F4813099F08230A9F00895873095
:10060000A9F08830C9F08430B1F4809180008F7DEA
:1006100003C0809180008F7780938000089584B517
:100620008F7784BD089584B58F7DFBCF8091B00016
:100630008F778093B00008958091B0008F7DF9CFBF
:100640001F93CF93DF93282F30E0F901EA5DFE4F2F
:100650008491F901E750FE4FD491F901E95EFD4F15
:10066000C491CC23A9F0162F81110E94F702EC2F20
:10067000F0E0EE0FFF1FE35FFD4FA591B4918FB740
:10068000F894EC91111108C0D095DE23DC938FBF54
:10069000DF91CF911F910895DE2BF8CF909100014B
:1006A00089130BC0EAE3F1E0E4919FEF909300011E
:1006B000E13049F028F0E23061F060E00C94200372
:1006C00010926E00FACF90916F009D7F90936F0013
:1006D000F4CF909170009D7F9093700091E0909383
:1006E000B0009091B100987F94609093B100109207
:1006F000B300E3CFCF93DF9390E0FC01E750FE4FD0
:100700002491895E9D4FFC0184918823D1F090E073
:10071000880F991FFC01E45EFE4FA591B491FC0186
:10072000E35FFD4FC591D49161110EC09FB7F8945E
:100730008C91E22FE0958E238C932881E223E8832D
:100740009FBFDF91CF9108958FB7F894EC91E22B82
:10075000EC938FBFF6CF8E50806480937C008091A5
:100760007A00806480937A0080917A0086FDFCCFC5
:10077000809178009091790008953FB7F894809126
:100780004D0290914E02A0914F02B091500226B5B9
:10079000A89B05C02F3F19F00196A11DB11D3FBFB9
:1007A000BA2FA92F982F8827BC01CD01620F711D88
:1007B000811D911D42E0660F771F881F991F4A9582
:1007C000D1F708958F929F92AF92BF92CF92DF920E
:1007D000EF92FF926B017C010E94BD034B015C0113
:1007E000C114D104E104F104B9F00E94BD036819F9
:1007F00079098A099B09683E73408105910580F358
:1008000021E0C21AD108E108F10888EE880E83E0E1
:10081000981EA11CB11CE4CFFF90EF90DF90CF9009
:10082000BF90AF909F908F90089520912902260F3E
:100830003327331F21323105ECF42091F802FC01FB
:1008400090E080E0243069F082E00895A0912902D0
:100850002191AC01475F5D4FA40FB52FB11D2C93C3
:100860000196861798F380912902680F60932902F8
:1008700080E0089581E008951092F80281E080936D
:10088000D7021092D20261E082E10E94200361E06F
:1008900083E10E942003E9EBF0E080818E7F80837A
:1008A00080818D7F808388E48093B80085E4809385
:1008B000BC000895CF93DF9391E0909308028823C2
:1008C000B9F0C091B800D091BA008091BC008A7B89
:1008D0008093BC0060E082E10E94200360E083E13D
:1008E0000E9420030E943C04D093BA00C093B80039
:1008F000DF91CF910895CF92DF92EF92FF920F9305
:100900001F93CF93DF93D82FC62F613208F098C082
:100910000E94BD036B017C018091F80281116BC0C4
:1009200081E08093F8028093D7029FEF9093D602E4
:100930001092D5029C0F9093D4028093D3028091A1
:10094000D302DD0FD82BD093D3028091D202813015
:1009500009F078C01092D2020E94BD036B017C01A5
:100960008091D3028093BB008091FA029091FB02A8
:10097000A091FC02B091FD02892B8A2B8B2BA1F058
:100980000E94BD030091FA021091FB022091FC022B
:100990003091FD026C197D098E099F090617170712
:1009A0002807390708F448C08091BC0083FDD8CFE0
:1009B00085EC8093BC000E94BD036B017C0180919B
:1009C000F802813009F440C08091D5028C1710F4F0
:1009D000C091D502E2EBF2E0A8EDB2E080E08C132A
:1009E00055C08C2FDF91CF911F910F91FF90EF9009
:1009F000DF90CF9008958091FA029091FB02A09130
:100A0000FC02B091FD02892B8A2B8B2B09F484CF39
:100A10000E94BD030091FA021091FB022091FC029A
:100A20003091FD026C197D098E099F090617170781
:100A30002807390708F070CF8091F9020E945A0404
:100A4000C0E0CFCF85EEB5CF8091FA029091FB0246
:100A5000A091FC02B091FD02892B8A2B8B2B09F40B
:100A6000AECF0E94BD030091FA021091FB022091CB
:100A7000FC023091FD026C197D098E099F09061751
:100A800017072807390708F09ACFD6CF91919D9381
:100A90008F5FA5CF0895E091920280919102E817AF
:100AA00030F4F0E0E852FD4F808190E008958FEF40
:100AB0009FEF089590919202809191022FEF3FEF66
:100AC000981748F4E92FF0E0E852FD4F208130E01C
:100AD0009F5F90939202C9010895CF92DF92EF92A7
:100AE000FF920F931F93CF93DF937C01CB018A0179
:100AF0002091B102222389F0EB016B01C40ED51EB7
:100B0000CC15DD0569F06991D701ED91FC9101905B
:100B1000F081E02DC7010995F3CF642F0E941504E1
:100B2000C801DF91CF911F910F91FF90EF90DF905F
:100B3000CF900895CF93DF931F92CDB7DEB769832F
:100B40002091B1022223F9F02091AE02203258F018
:100B500021E030E0FC013383228390E080E00F90BD
:100B6000DF91CF9108958091AF02E82FF0E0E85136
:100B7000FE4F998190838F5F8093AF028093AE0286
:100B800081E090E0ECCF61E0CE0101960E94150477
:100B9000F7CFCF92DF92EF92FF920F931F93CF93F5
:100BA000DF93D091AE0281E0D13208F09CC0C091B9
:100BB000B0020E94BD036B017C018091F80281119B
:100BC0006CC082E08093F80281E08093D7028FEFBF
:100BD0008093D6021092D502D093D402A8EEB1E051
:100BE000E2EBF2E080E0D8138DC01092D302809146
:100BF000D302CC0FC82BC093D3028091D202813094
:100C000009F084C01092D2020E94BD036B017C01E6
:100C10008091D3028093BB008091FA029091FB02F5
:100C2000A091FC02B091FD02892B8A2B8B2BA1F0A5
:100C30000E94BD030091FA021091FB022091FC0278
:100C40003091FD026C197D098E099F09061717075F
:100C50002807390708F442C08091BC0083FDD8CF33
:100C600085EC8093BC000E94BD036B017C018091E8
:100C7000F802823009F44CC08091D6028F3F09F40B
:100C800069C08091D602803209F466C08091D60294
:100C9000803309F463C084E026C08091FA02909109
:100CA000FB02A091FC02B091FD02892B8A2B8B2BB9
:100CB00009F483CF0E94BD030091FA021091FB0258
:100CC0002091FC023091FD026C197D098E099F096B
:100CD000061717072807390708F06FCF8091F90228
:100CE0000E945A0485E01092AF021092AE02109258
:100CF000B102DF91CF911F910F91FF90EF90DF90A4
:100D0000CF9008959D9191938F5F6DCF85EEA9CF80
:100D10008091FA029091FB02A091FC02B091FD0239
:100D2000892B8A2B8B2B09F4A2CF0E94BD03009143
:100D3000FA021091FB022091FC023091FD026C1925
:100D40007D098E099F09061717072807390708F03C
:100D50008ECFC4CF80E0C7CF82E0C5CF83E0C3CFC2
:100D600090E080E00895EF92FF920F931F93CF934E
:100D7000DF93EC0180E0B0E0A0E0E881F981AE17FC
:100D8000BF07D8F4AE171F06A8F4E82FF0E00A81D9
:100D90001B817F010E0D1F1DF80140830A811B81FD
:100DA0000E0D1F1DF80161830A811B81F701E00F01
:100DB000F11F228311968D5FE0CF81E0DF91CF910B
:100DC0001F910F91FF90EF9008958F929F92AF9295
:100DD000BF92CF92DF92EF92FF92CF93DF93E62FF5
:100DE0006A01FF24D7FCF094EF2C832E942EA52EBD
:100DF000BB24A7FCBA94E1110EC0482D6C2DDF91E5
:100E0000CF91FF90EF90DF90CF90BF90AF909F90E9
:100E10008F900C94B306DC016D917C911197E617CD
:100E2000170609F0D8F4E150E6171706B8F46E2F4C
:100E3000660FE60FF0E012960D90BC91A02DAE0F5C
:100E4000BF1F8C92EC01AA81BB81AE0FBF1F119610
:100E5000CC926A817B81E60FF71F228380E0DF91CD
:100E6000CF91FF90EF90DF90CF90BF90AF909F9089
:100E70008F9008951F93CF93DF93EC01142F8981F6
:100E80009A81288131E03093B1022093B002109210
:100E9000AF021092AE02DC01ED91FC910190F08165
:100EA000E02D099589819A81DC01ED91FC910190F9
:100EB000F081E02D612F099589819A81DF91CF9191
:100EC0001F910C94C905DC01ED91FC910190F0811A
:100ED000E02D0994FC0187E094E1161634F484E0D7
:100EE00098E0613011F484E090E19083062E000CCC
:100EF000770B77FF03C0719561957109969FA001EB
:100F0000979F500D1124840F952F911D0895DC019A
:100F1000ED91FC910190F081E02D09940F931F93C6
:100F2000CF93DF93EC018A0189819A81288131E096
:100F30003093B1022093B0021092AF021092AE0231
:100F400024E0629FB00111246A5F7F4F0E948707EF
:100F500070E060E089819A810E94630770E060E040
:100F600089819A810E946307B80189819A810E94D0
:100F70006307612F70E089819A810E9463078981EC
:100F80009A81DF91CF911F910F910C94C905CF9356
:100F9000C0E040E050E16C2F8AE794E00E948E07A9
:100FA000CF5FC031B1F7CF9108952F923F924F920A
:100FB0005F926F927F928F929F92AF92BF92CF92E9
:100FC000DF92EF92FF920F931F93CF93DF9300D0A6
:100FD00000D000D01F92CDB7DEB78C832D83262F93
:100FE00030E0A8EEB3E00E947A2C4B015C0119823C
:100FF000842F90E09B838A8399812C81921709F436
:1010000047C08A819B819F838E8310E000E09D8191
:101010002E812917C8F58E819F81C29787369A4302
:1010200058F5CA80DB80C00ED11E1601220C331C7D
:10103000220C331C85E0281A3108CC0CDD1CF12C65
:10104000E12C412C512C3201481459046A047B04D0
:101050009CF461E085E00E942003C1010197F1F753
:1010600060E085E00E942003C1010197F1F74C0C7C
:101070005D1C6E1C7F1CE8CF0F5F1F4F8E819F8110
:1010800001969F838E83C3CF99819F5F9983B4CF4D
:1010900027960FB6F894DEBF0FBECDBFDF91CF917C
:1010A0001F910F91FF90EF90DF90CF90BF90AF9086
:1010B0009F908F907F906F905F904F903F902F9078
:1010C00008959F92AF92BF92CF92DF92EF92FF92DC
:1010D0000F931F93CF93DF93EC0181E08093B102D4
:1010E00084E58093B0021092AF021092AE026D2F91
:1010F00070E08BE993E00E948707BE0177278BE9B8
:1011000093E00E9487078BE993E00E94C90561E0A4
:1011100084E50E947B0410929202809391028BE9F5
:1011200093E00E945A05C090B304D090B404F60135
:10113000808380939D02682F82EA92E00E946A0772
:10114000EC01F12CE12C1C161D064CF56C2FCF3157
:10115000D1050CF06EE184E50E947B04982E10927C
:101160009202809391025E01FEE1AF1AB1088E01F6
:1011700080919202981659F08BE993E00E945A05EB
:101180009FEFE91AF90AF601EE0DFF1D8083015069
:10119000110929F0E5010A151B0551F7D4CFDF919C
:1011A000CF911F910F91FF90EF90DF90CF90BF9064
:1011B000AF909F900895CF93DF93EC0189819A813E
:1011C000288131E03093B1022093B0021092AF0237
:1011D0001092AE02DC01ED91FC910190F081E02DC6
:1011E000099589819A810E94C90561E088810E94E0
:1011F0007B04109292028093910289819A81DC0192
:10120000ED91FC910284F385E02D0995DF91CF915A
:1012100008958F929F92AF92BF92CF92DF92EF92FA
:10122000FF92CF93C82F90E080E00E94BA2A6B0112
:101230007C016EEF8AE794E00E94DB08682F70E083
:101240006F5F7F4F90E080E00E94BA2A20E034E296
:1012500044E759E40E941B2B4B015C0160917D0423
:1012600070917E0480917F04909180040E94BA2A3C
:101270009B01AC01C501B4010E94FB2C9B01AC0198
:10128000C701B6010E94FB2C0E94742DAB016C2F8C
:101290008AE794E0CF91FF90EF90DF90CF90BF90DE
:1012A000AF909F908F900C948E070F931F93CF93C6
:1012B0008C01C0E0B8018C2F0E940909CF5FC031BA
:1012C000C9F7CF911F910F9108958F929F92AF927E
:1012D000BF92CF92DF92EF92FF921F93CF93DF9353
:1012E000EC016A017B0120E030E040E85FE3CB01E4
:1012F000B6010E94B52A87FD7EC020E030EC4AE5A9
:1013000055E4C701B6010E94E22D18163CF4C12C29
:1013100030ECD32E3AE5E32E35E4F32E6B817C815D
:101320008D819E810E94BA2A4B015C0120E030E051
:1013300040E855E4C701B6010E941B2B9B01AC019C
:10134000C501B4010E94FB2C20E030E040E05FE3E7
:101350000E948A2C20E030E040E85FE30E94892C64
:101360006B017C0120E030E040E450E40E94B52AAB
:1013700087FD48C020E030E04FE753E4C701B601E5
:101380000E94E22D181634F4C12CD12C9FE7E92ECF
:1013900093E4F92E60E0CE010E94DB08182F482F5D
:1013A0004F76406160E0CE010E943A07C701B60166
:1013B0000E94742D462F6EEFCE010E943A07412FF6
:1013C00060E0CE010E943A0765E070E080E090E0C6
:1013D0000E94E203412F406A60E0CE01DF91CF918D
:1013E0001F91FF90EF90DF90CF90BF90AF909F90B4
:1013F0008F900C943A07C12CD12C20E8E22E2FE3D9
:10140000F22E8CCFC12CD12C80E4E82EFE2CC2CF42
:10141000CF93DF93EC0188819981009711F00E94AE
:10142000F128198218821D821C821B821A82DF9188
:10143000CF910895FC0180819181009711F00C9467
:10144000F1280895FC0101900020E9F73197AF01E0
:10145000481B590BBC018EEF92E00C948F018CE677
:1014600091E00C94220ACF93DF930E94BC02EC011E
:101470000E942F0A8C0F9D1FDF91CF910895CF936B
:10148000DF93682F8EEF92E00E946F02EC010E94C2
:101490002F0A8C0F9D1FDF91CF910895CF93DF937B
:1014A000FC0144815581608171818EEF92E00E9440
:1014B0008F01EC010E942F0A8C0F9D1FDF91CF91AD
:1014C00008958F929F92AF92BF920F931F93CF93E5
:1014D000DF93CDB7DEB7A1970FB6F894DEBF0FBE8E
:1014E000CDBF19A2423008F44AE08E010F5D1F4FB4
:1014F000842E912CB12CA12CA50194010E94582C72
:10150000E62FB901CA01EA30F4F4E05DD801EE93A8
:101510008D01232B242B252B79F790E080E0109769
:1015200019F0CD010E94220AA1960FB6F894DEBFF1
:101530000FBECDBFDF91CF911F910F91BF90AF90A4
:101540009F908F900895E95CE1CFCF92DF92EF9268
:10155000FF92C12CD12C76014AE0C701B6010E944E
:10156000610A69E08EEF92E00E946F028FEFC81A65
:10157000D80AE80AF80A80E1C816D104E104F104A7
:1015800059F7FF90EF90DF90CF900C942F0AFC0159
:1015900024813581232B39F421E0FB0180818823CC
:1015A00049F020E007C0808191810E94A03021E0B5
:1015B000892BB9F7822F08950F931F93CF93DF9351
:1015C0008C01EB01FC01808191810097E1F0688141
:1015D000798161157105A9F0428153812C813D818A
:1015E0004217530770F00E94A9308C819D81F80149
:1015F000958384831D821C82DF91CF911F910F916F
:1016000008950E94F12888819981F801918380834F
:101610008A819B81938382838C819D81958384833E
:10162000198218821B821A82E5CF0C94D92B6F92F3
:101630007F928F929F92AF92BF92CF92DF92EF9262
:10164000FF920F931F93CF93DF936C01712CD0E027
:10165000C0E083E191E00E94150B082E000C990B6D
:10166000781619060CF06DC04E018FEF881A980A93
:10167000CE01885E9E4F0E94150B682EE82EF12C3D
:10168000C70101960E9455288C015C01C75EDE4FA0
:10169000C81BD90B8A2D801B861548F4CE018A0DF4
:1016A0009B1D0E94150BF50181935F01F3CFE401AF
:1016B000CE0DDF1D5801AE0CBF1CF5011082B60126
:1016C000C8010E94A030892B09F501151105A9F563
:1016D000CE01875E9E4F0E94150B80939D02682F5E
:1016E00082EA92E00E946A07CE01885E9E4FDF91F7
:1016F000CF911F910F91FF90EF90DF90CF90BF900F
:10170000AF909F908F907F906F900895F5013197E3
:1017100080818C3449F4A70141505109B601C801B8
:101720000E94B030892B89F20115110519F0C8010A
:101730000E94F128249673948CCFC8010E94F1284E
:10174000C7CF87EF91E00E94330A8FEF9FEFCFCF93
:101750001F93CF93DF93EC010E94150B182FCE013E
:1017600001960E94150B90E0982F8827810F911DFC
:10177000DF91CF911F910895CF92DF92EF92FF9268
:101780000F931F93CF93DF936A017B01082F10E023
:10179000C801805B9F4F880F991F0E94A80BBC0156
:1017A000990F880B990B0E94BC2A20E030E04AE791
:1017B00054E40E94FB2CA70196010E941B2B6B0195
:1017C0007C0182E191E00E94150B9AE0899FB001B3
:1017D0001124072E000C880B990B0E94BC2AA7012C
:1017E00096010E948A2C6B017C0120E030E04AEFD8
:1017F00053E40E94E22DC4EFD1E018168CF420E0EF
:1018000030E44CE155E4C701B6010E94B52AC4ECAE
:10181000D9E087FF05C0C701B6010E946D2DEB011D
:10182000C8010E94150BAE01682F8AE794E0DF9192
:10183000CF911F910F91FF90EF90DF90CF900C947C
:101840008E0790E0C096880F991F860F911D880F14
:10185000991F0C94A80B7F928F929F92AF92BF9288
:10186000CF92DF92EF92FF920F931F93CF93DF936C
:10187000B82E6A01D62FC72F60E00E94210CBC0150
:10188000990F880B990B0E94BC2A7B018C0161E0A7
:101890008B2D0E94210CBC01990F880B990B0E9483
:1018A000BC2A762E872E982EA92E96014D2F5C2FBE
:1018B0000E94B52A87FF71C0772D682D992D8A2D3A
:1018C000272F362F492F582FB701C8010E94E22D2C
:1018D000181694F096014D2F5C2F672D782D892DC9
:1018E0009A2D0E94B52A76010D2F1C2F87FF04C068
:1018F000E72CF82C092D1A2DCB2DD0E06E0180E3BA
:10190000C80ED11CCC0FDD1FCA5FDE4FB701C80166
:101910000E946D2D79836883C601880F991F0E94EC
:10192000A80BEC01C6010E94150B682F880F770BDE
:10193000880B990B0E94BC2A9701A8010E941B2BBF
:101940006B017C01BE01DD0F880B990B0E94BC2A44
:101950009B01AC01C701B6010E948A2C0E946D2D2B
:10196000072E000C880B990B0E94BC2A20E030E067
:10197000A9010E948A2CAB01BC018B2DDF91CF9174
:101980001F910F91FF90EF90DF90CF90BF90AF909D
:101990009F908F907F900C94BC0B7C2D6D2DCE0171
:1019A0008FCF2F923F924F925F926F927F928F9242
:1019B0009F92AF92BF92CF92DF92EF92FF920F93DE
:1019C0001F93CF93DF93CDB7DEB72E970FB6F89462
:1019D000DEBF0FBECDBF5C016A017B0120E030E0BD
:1019E000A901CB01B6010E94B52A9501205E3F4FA7
:1019F0003901882321F0809105018823E1F18301D9
:101A00003FE03983D8017E916E918D01072E000C45
:101A1000880B990B0E94BC2AAB01BC0189810E94F2
:101A20002B0CB981B150B983BF3F61F7809105019B
:101A3000882341F068EE73E080E090E00E94E203CA
:101A4000109205012E960FB6F894DEBF0FBECDBFE3
:101A5000DF91CF911F910F91FF90EF90DF90CF908A
:101A6000BF90AF909F908F907F906F905F904F90BE
:101A70003F902F90089580E290E00E9455288C01BD
:101A800026E031E04C01F50170E060E0D9018D9174
:101A90009D919D0141915191841B950BD4018D9392
:101AA0009D934D0197FF03C091958195910968170A
:101AB00079070CF4BC01E615F70541F7072E000C79
:101AC000880B990B0E94BC2AA70196010E94FB2C4F
:101AD0006B017C0120E030E0A9010E94E22D20E0B2
:101AE00030E040E05FE387FD91C0C701B6010E948E
:101AF0008A2C0E946D2D7E876D87D12CC12C8D85FF
:101B00009E85092E000CAA0BBB0B89879A87AB8791
:101B1000BC87AD85BE85AC15BD050CF47CC0480105
:101B20001501F12CC6010D2C000CAA0BBB0B8D83EB
:101B30009E83AF83B887D1016D917D911D01072EE2
:101B4000000C880B990B0E94BC2A2B013C01ED85EF
:101B5000FE8520E030E0A901EF2B09F443C06D8140
:101B60007E818F8198850E94BC2A2BED3FE049E45D
:101B700050E40E941B2B69837A838B839C83698545
:101B80007A858B859C850E94BC2A9B01AC0169816A
:101B90007A818B819C810E94FB2C0E94F62C20E094
:101BA00030E040E85FE30E948A2C20E030E040E033
:101BB0005FE30E941B2B69837A838B839C83D40110
:101BC0006D917C91072E000C880B990B0E94BC2A0A
:101BD0009B01AC0169817A818B819C810E941B2BC6
:101BE0009B01AC01C301B2010E948A2CAB01BC0174
:101BF0008F2D0E942B0CF394B2E08B0E911CE0E130
:101C0000FE1299CFFFEFCF1ADF0A83CFC701B601CB
:101C10000E94892C6ECF0115110509F413CFC8015C
:101C20002E960FB6F894DEBF0FBECDBFDF91CF91D9
:101C30001F910F91FF90EF90DF90CF90BF90AF90EA
:101C40009F908F907F906F905F904F903F902F90DC
:101C50000C94F1282F923F924F925F926F927F9255
:101C60008F929F92AF92BF92CF92DF92EF92FF92AC
:101C70000F931F93CF93DF93CDB7DEB72F970FB698
:101C8000F894DEBF0FBECDBF4C016D8369017A01B0
:101C9000202F30E03A83298320E030E0A901C701FA
:101CA000B6010E94B52A882329F080910501882376
:101CB00009F441C01FE0812F012E000C990BA9816E
:101CC000BA818A179B0794F0880D991DFC016081E9
:101CD000062E000C770B880B990B0E94BC2AAB01D7
:101CE000BC01812F0E942B0C1150E5CF8091050182
:101CF000882341F068EE73E080E090E00E94E20308
:101D0000109205012F960FB6F894DEBF0FBECDBF1F
:101D1000DF91CF911F910F91FF90EF90DF90CF90C7
:101D2000BF90AF909F908F907F906F905F904F90FB
:101D30003F902F90089580E190E029813A81821BA5
:101D4000930B811530E4930770F5880F991F0E945B
:101D500055285C01E981FA81EE0FFF1FCF018A5FF0
:101D60009E4F3C012501D401402F70E060E04031DE
:101D7000E8F4F301819191913F012D915D8125035B
:101D800090011124821B930BF201819391932F01F7
:101D900097FF03C0919581959109681779070CF415
:101DA000BC014F5FE4CF8FEF9FEFD1CF072E000C28
:101DB000880B990B0E94BC2AA70196010E94FB2C5C
:101DC0006B017C0120E030E0A9010E94E22D20E0BF
:101DD00030E040E05FE387FD8BC0C701B6010E94A1
:101DE0008A2C0E946D2D1B011F861E86CB01770F4A
:101DF000AA0BBB0B8A879B87AC87BD87AE85BF8547
:101E00002A163B060CF480C0BA82A9829C828B827F
:101E1000102FCD01092E000CAA0BBB0B8E839F83C4
:101E2000A887B987103108F068C0AB81BC816D917B
:101E3000BC83AB832D816203B0011124072E000CFB
:101E4000880B990B0E94BC2A6B017C0120E030E0DA
:101E5000A90121143104E1F16E817F818885998582
:101E60000E94BC2A2BED3FE049E450E40E941B2B6A
:101E70002B013C016A857B858C859D850E94BC2A4F
:101E80009B01AC01C301B2010E94FB2C0E94F62C05
:101E900020E030E040E85FE30E948A2C20E030E060
:101EA00040E05FE30E941B2B2B013C01A981BA811A
:101EB0006D917C91072E000C880B990B0E94BC2A17
:101EC0009B01AC01C301B2010E941B2B9B01AC0121
:101ED000C701B6010E948A2CAB01BC01812F0E9470
:101EE0002B0C1F5FE981FA813296FA83E9839ACF3E
:101EF000C701B6010E94892C74CF2E853F852F5FC4
:101F00003F4F3F872E877ACFA114B10409F4FACE50
:101F1000C5012F960FB6F894DEBF0FBECDBFDF917F
:101F2000CF911F910F91FF90EF90DF90CF90BF90D6
:101F3000AF909F908F907F906F905F904F903F9069
:101F40002F900C94F1280F930E944201109294025A
:101F500010929302E9E9F2E02581368147815085AC
:101F600002896685838994890E942A0E0F910895BB
:101F7000CF92DF92EF92FF920F931F93CF93DF9355
:101F80008C01FC0101900020E9F7329780818C34AC
:101F900009F4F2C0823509F0F1C087EE80939C020B
:101FA000C8010E94170BEC01CF3FDC0709F430C1D8
:101FB000CE010E94150BF82ECE0102960E94A80BAE
:101FC000EC01E9E4FE12DCC00E9461080E944201BB
:101FD0006FE671E0C8010E94A030892B09F4EAC0C5
:101FE00080919D02813009F0E5C00E94C62924E657
:101FF00030E040E050E00E94EF2B0E94BC2A20E03D
:1020000030E040E251E40E94FB2C20E030E040EA66
:1020100050E40E94892C60938D0270938E0280930D
:102020008F0290939002C0908D02D0908E02E0902B
:102030008F02F0909002D0E0C0E00091AC021091CD
:10204000AD020C0F1D1FF8016081062E000C770BEE
:10205000880B990B0E94BC2AA70196010E948A2C2A
:102060000E946D2DF80160832196C031D10529F7BA
:1020700080919D0282300CF4A6C080919C0287FF63
:10208000B1C08091A3029091A4029195819591098C
:102090009093A4028093A30290E080E040919D027F
:1020A000242F042E000C330B37FF03C031952195EC
:1020B0003109821793070CF095C042301CF540910E
:1020C000A202489F9001499F300D1124E091AC027B
:1020D000F091AD02E20FF31F208121952083209122
:1020E000A202289FF001299FF00D11249F012E5F6D
:1020F0003F4FE091AC02F091AD02E20FF31F20815F
:102100002195208320919D0260E022300CF462E052
:10211000E62FF0E020919D0222300CF482C024E0F2
:1021200030E04091AC025091AD02E217F3070CF0A1
:102130007BC09F01220F331F7091A202789FF00194
:10214000799FF00D1124E20FF31FE40FF51F40817A
:10215000518150835091A202589FD001599FB00DD8
:102160001124E091AC02F091AD02E20FF31FEA0FEF
:10217000FB1F41836F5FCCCF89E110CF80E00ECF92
:1021800060919D0282EA92E00E946A072091B30466
:102190003091B404D901C21BD30BFE01EA0FFB1F1F
:1021A000AD01421B530B481759070CF00FCFE491B8
:1021B000ED93F3CF10928D0210928E0210928F0247
:1021C0001092900230CF0E94C62924E630E040E011
:1021D00050E00E94EF2B60FF05C080918C02833697
:1021E00009F04FCF109294021092930220919E0218
:1021F00030919F024091A0025091A1020091AB0248
:102200006091A7028091AC029091AD020E942A0ECB
:10221000DF91CF911F910F91FF90EF90DF90CF90C2
:10222000089528E030E07DCF019638CF0F931F93BB
:10223000CF93DF93EC018B010E94D92B081721F07B
:10224000602FCE010E94E12B2196CE010E94D92B56
:10225000181721F0612FCE010E94E12B65E070E09C
:1022600080E090E0DF91CF911F910F910C94E203F9
:102270000F931F93CF93DF93EC018881998100978F
:1022800059F02A813B812617370730F081E0DF9132
:10229000CF911F910F9108958B016F5F7F4F0E9427
:1022A000C52F009759F0998388831B830A832C815B
:1022B0003D81232B59F7FC011082E8CF80E0E7CF66
:1022C000EF92FF920F931F93CF93DF9361157105E8
:1022D00041F480E0DF91CF911F910F91FF90EF903B
:1022E000089541155105B1F07B01EC010C811D8170
:1022F000040F151FB8010E943811882351F328815B
:1023000039818C819D81B701820F931F0E94A93072
:102310001D830C8381E0DECFEF92FF920F931F931A
:10232000CF93DF93EC017B018A01BA010E9438113F
:1023300081110BC0CE010E94080ACE01DF91CF911E
:102340001F910F91FF90EF9008951D830C83B701AB
:10235000888199810E94A930F0CFFB01DC011196A0
:102360001C921E9213961C921E92129715961C9206
:102370001E9214978617970759F060817181611535
:10238000710521F0448155810C948C110C94080A3C
:102390000895FB0101900020E9F73197AF01461B3A
:1023A000570B0C948C110F931F93CF93DF93CDB7E2
:1023B000DEB762970FB6F894DEBF0FBECDBF8C01BB
:1023C000CB01F801118210821382128215821482CD
:1023D0004AE0BE016F5F7F4F0E94782ABE016F5FA7
:1023E0007F4FC8010E94C91162960FB6F894DEBFF4
:1023F0000FBECDBFDF91CF911F910F910895FC01CA
:10240000118210821382128215821482FB010190C4
:102410000020E9F73197AF01461B570B0C948C1144
:10242000EF92FF920F931F93CF93DF9300D0CDB71E
:10243000DEB78C01E62E6CEC71E00E94FF110E9469
:10244000DF010E2C000CFF0897FD10C08E159F05B4
:1024500069F089831A8241E050E0BE016F5F7F4FCF
:10246000C8010E9460110E94DF01EECFC8010F90E9
:102470000F90DF91CF911F910F91FF90EF900895F2
:10248000EF92FF920F931F93CF93DF93EC018B0199
:10249000198218821B821A821D821C82CB010E9423
:1024A000432A7C01BC01CE010E943811811109C070
:1024B000CE01DF91CF911F910F91FF90EF900C947F
:1024C000080AFD82EC82B80188819981DF91CF9161
:1024D0001F910F91FF90EF900C943C2A85ED809313
:1024E000BC008091FA029091FB02A091FC02B09195
:1024F000FD020796A11DB11D23E0B695A7959795FE
:1025000087952A95D1F72091BC0024FD03C0109235
:10251000F80208954091FA025091FB026091FC028A
:102520007091FD02452B462B472B69F30097A105BF
:10253000B10541F025E32A95F1F700000197A109C3
:10254000B109E1CF8091F9020C945A04EF92FF9205
:102550000F931F93CF93DF93EC01888199818C01B6
:10256000000F111F080F191FEA80FB80A801B70197
:102570008C819D810E948A30892B09F432C0AE8102
:10258000BF818A853FB7F8942C91982F909592231C
:10259000822BF7010E0F1F1FE017F10781F0219129
:1025A00048E08C9300C027FF9C93220F00C000C01E
:1025B00000C008F49C9300C04A9599F7EDCF3FBF47
:1025C00088819981AC01440F551F480F591F6A81BA
:1025D0007B818C819D810E9497308BEC97E00197E5
:1025E000F1F7DF91CF911F910F91FF90EF90089538
:1025F000CF93DF939B01AC01C1E9D4E060E08A8115
:102600009B810E94E5068A819B81DF91CF910C948A
:10261000A6122F923F924F925F926F927F928F926B
:102620009F92AF92BF92CF92DF92EF92FF920F9361
:102630001F93CF93DF93CDB7DEB766970FB6F894AD
:10264000DEBF0FBECDBF69877A878B879C872D87BA
:102650003E874F87588BC801EE8A10E088248A9401
:10266000982C540168E4462E68EE562E6624639436
:10267000712C05E07CE1272E72E0372E9C01990F2A
:10268000440B550B298B3A8B4B8B5C8B6D857E8570
:102690008F8598890E94742D6D837E838F839887A0
:1026A00020E030E0A90169857A858B859C850E94B0
:1026B000B52A882309F499C129853A854B855C851B
:1026C00063E67CE987E89FE30E94E72D20E030ED98
:1026D00042E854E40E941B2B0E94742D6B018091F0
:1026E0000001853009F06AC0EAE3F1E0F491FD8B66
:1026F000F7FDD9C161E085E00E947A03FD89FF23DF
:1027000021F02D89223009F024C1F12CE12C60E068
:1027100072E18AE790E0A70196010E94EF2B2983DE
:102720003A834B835C83DA01C9010197A109B1099E
:102730008F3F9105A105B10509F00CF4F0C060E4EC
:1027400072E48FE090E0A70196010E94EF2B2150E8
:102750003109410951098D89823009F0A2C082E016
:102760002F3F31054105510509F00CF48CC160E99A
:1027700070ED83E090E0A70196010E94EF2B2150BD
:1027800031094109510983E02F3F310541055105C8
:1027900009F00CF478C1C301B201A70196010E94AF
:1027A000EF2B21503109410951092F3F31054105D6
:1027B000510511F00CF092C084E065C18F3F09F023
:1027C00072C100930001EAE3F1E0F491FD8BFF3F59
:1027D00009F469C1F13029F158F0F23009F43FC031
:1027E0003D8937FD60C161E085E00E947A0389CFB1
:1027F00014BC15BC84B5826084BD85B5816085BD7F
:10280000F1018491E82FF0E0EE0FFF1FE35FFD4F31
:1028100085919491EEEFF1E084918093DF011D8A20
:1028200069CF1092800010928100809181008860B1
:102830008093810080918100816080938100F1010B
:102840008491E82FF0E0EE0FFF1FE35FFD4F8591CD
:102850009491EEEFF1E084918093DE014BCF1092E2
:10286000B0001092B1008091B00082608093B000FF
:102870008091B10081608093B100F1018491E82FD3
:10288000F0E0EE0FFF1FE35FFD4F85919491909371
:10289000520280935102EEEFF1E084918093530253
:1028A00029CF2F3F31054105510509F00CF44FC0E8
:1028B000C301B201A70196010E94EF2B21503109FB
:1028C000410951099D89992309F4AFC02F3F310572
:1028D0004105510511F00CF0B0C06ECF64E274EF09
:1028E00080E090E0A70196010E94EF2B2150310972
:1028F0004109510985E02F3F31054105510509F096
:1029000008F4C1C062E17AE780E090E0A701960197
:102910000E94EF2B21503109410951099DC09C01B2
:1029200081E0FD89F111AFC095B5987F892B85BDF8
:1029300027BD8092E4019092E501A092E601B09259
:10294000E70180916E00826080936E00ACC082E0EF
:10295000E8CFF12CE12C60E072E18AE790E0A7017A
:1029600096010E94EF2B215031094109510991E054
:102970002115310581E0480751055CF0C301B20122
:10298000A70196010E94EF2B2150310941095109FD
:1029900093E0ED89E13009F07CC080918100887F6F
:1029A000892B809381003093890020938800809246
:1029B000E0019092E101A092E201B092E3018091E6
:1029C0006F00826080936F006EC02093B30080928E
:1029D000540290925502A0925602B09257028091F2
:1029E00070008260809370005EC06D817E818F81F7
:1029F00098850E94E20357C084E02F3F31054105CE
:102A0000510509F008F490CF29813A814B815C810E
:102A10008AE055954795379527958A95D1F72150A6
:102A200031094109510985E07FCF83E02F3F31050E
:102A30004105510509F00CF477CF62E17AE780E0B7
:102A400090E0A70196010E94EF2B21503109410926
:102A50005109ED89EE2381F286E02F3F31054105D2
:102A6000510589F080F029813A814B815C819AE09F
:102A700055954795379527959A95D1F72150310966
:102A80004109510987E09091B100987F892B80938B
:102A9000B100FD89F13009F486CFF23009F495CF09
:102AA000FF2309F445CF6D817E818F8198850E9437
:102AB000E20385E00E944E0369897A898B899C89AB
:102AC0000E94E2031F5F2E892113E0CD66960FB6A8
:102AD000F894DEBF0FBECDBFDF91CF911F910F9154
:102AE000FF90EF90DF90CF90BF90AF909F908F902E
:102AF0007F906F905F904F903F902F9008954F92EE
:102B00005F926F927F928F929F92AF92BF92CF927D
:102B1000DF92EF920F931F93CF93DF93D82E192F4D
:102B20000E94150B8695CD2DD12FB12CA12CC82E2E
:102B3000D12C88EE882E83E0982E2197AC14BD040A
:102B40004CF5CE018C199D090E94150B782ECE01F3
:102B50000E94150B182F672D70E0C4010E949C2F56
:102B6000072E000C880B990B0E94BC2A2B013C01FC
:102B7000612F70E090E080E00E94BA2AEE24E39496
:102B800010E000E0A30192010E9409138FEFA81A40
:102B9000B80AD3CFDF91CF911F910F91EF90DF90C3
:102BA000CF90BF90AF909F908F907F906F905F90ED
:102BB0004F9008951F920F920FB60F9211242F93EA
:102BC0003F934F935F936F937F938F939F93AF93B5
:102BD000BF93EF93FF938091540290915502A0917F
:102BE0005602B0915702892B8A2B8B2BD1F19091F1
:102BF0005302E0915102F091520280818927808333
:102C00008091540290915502A0915602B0915702C2
:102C1000181619061A061B069CF48091540290910E
:102C20005502A0915602B09157020197A109B1092E
:102C30008093540290935502A0935602B09357028A
:102C4000FF91EF91BF91AF919F918F917F916F9184
:102C50005F914F913F912F910F900FBE0F901F905A
:102C60001895809100010E944E03EACF1F920F92A7
:102C70000FB60F9211242F933F934F935F936F934F
:102C80007F938F939F93AF93BF93EF93FF938EEFB9
:102C900092E00E944D02FF91EF91BF91AF919F9101
:102CA0008F917F916F915F914F913F912F910F90F5
:102CB0000FBE0F901F9018951F920F920FB60F9294
:102CC00011242F938F939F93EF93FF93E0910E0323
:102CD000F0910F038081E0911403F091150382FDC0
:102CE0001BC09081809117038F5F8F732091180311
:102CF000821741F0E0911703F0E0E250FD4F958F0D
:102D000080931703FF91EF919F918F912F910F90D7
:102D10000FBE0F901F9018958081F4CF1F920F92D5
:102D20000FB60F9211242F933F938F939F93AF93DE
:102D3000BF938091950290919602A0919702B091D5
:102D4000980230914C0223E0230F2D3758F501965D
:102D5000A11DB11D20934C02809395029093960281
:102D6000A0939702B093980280914D0290914E02E9
:102D7000A0914F02B09150020196A11DB11D809308
:102D80004D0290934E02A0934F02B0935002BF9118
:102D9000AF919F918F913F912F910F900FBE0F9008
:102DA0001F90189526E8230F0296A11DB11DD2CFC2
:102DB0001F920F920FB60F9211242F933F934F93B0
:102DC0005F936F937F938F939F93AF93BF93EF9393
:102DD000FF938091B900887F803609F44AC0F0F5EE
:102DE000883209F4A7C018F5803109F49BC0B8F403
:102DF000882309F4F9C0883009F494C0FF91EF9159
:102E0000BF91AF919F918F917F916F915F914F9102
:102E10003F912F910F900FBE0F901F901895883102
:102E200009F488C0803251F78093D60214C08034F0
:102E300009F49DC040F48033B9F38833F9F68093E8
:102E4000D60285ECB0C0803509F485C0883509F418
:102E500096C0883499F60E946E12D0CF883909F452
:102E60008CC038F5883729F050F4883611F0803757
:102E700029F683E08093F80210924B0257C08838FD
:102E800009F47BC0803919F0803809F0B7CF809100
:102E90004B02803208F071C0E0914B0281E08E0F4E
:102EA00080934B028091BB00F0E0E55DFD4F808395
:102EB0003DC0803B39F0E0F4803A09F479C0883AAB
:102EC00009F09CCF84E08093F80210922A021092BD
:102ED0002902E0915802F091590209958091290246
:102EE00081110FC081E0809329021092090209C06C
:102EF000803C09F4A6CF883C09F4A3CF883B09F0B5
:102F00007DCFE0912A0281E08E0F80932A02F0E0CB
:102F1000E75FFD4F80818093BB0090912A028091F2
:102F2000290229C08091D3028093BB0085EC809355
:102F3000BC0064CF9091D5028091D402981758F5C7
:102F4000E091D50281E08E0F8093D502F0E0EE543F
:102F5000FD4F8081E9CFE091D50281E08E0F809313
:102F6000D5028091BB00F0E0EE54FD4F808390913C
:102F7000D5028091D4029817C8F285E8D8CFE091A5
:102F8000D50281E08E0F8093D5028091BB00F0E0E6
:102F9000EE54FD4F80838091D70281115CCF81E098
:102FA0008093D20284EA8093BC001092F80226CF6C
:102FB00085EC8093BC001092F80280914B02803225
:102FC00030F4E0914B02F0E0E55DFD4F108260913E
:102FD0004B0270E0E0915A02F0915B028BE292E0CA
:102FE000099510924B020ACF1092D60234CF1F924D
:102FF0000F920FB60F9211242F933F934F935F932D
:103000006F937F938F939F93AF93BF93CF93DF93F0
:10301000EF93FF932091A80330E0F901EA5DFE4FA2
:103020008491F901E750FE4FD491F901E95EFD4F1B
:10303000C491CC2379F081110E94F702EC2FF0E0CB
:10304000EE0FFF1FE359FE4FA591B491EC91ED23D4
:1030500081E009F480E02091AD033091AE032F5F51
:103060003F4F3093AE032093AD032091AB033091DB
:10307000AC032536310518F094E09093A7039091A6
:10308000A703911130C0811169C02091AD03309127
:10309000AE032436310528F41092AE031092AD032E
:1030A0005DC0109279041092AC031092AB03209192
:1030B000AB033091AC03A9014F5F5F4F5093AC035A
:1030C0004093AB034091AD035091AE03220F331FE9
:1030D000F901E155FC4F518340831092AE031092E9
:1030E000AD0391E021C09091A703913001F58130AB
:1030F000A9F52091AB033091AC03A9014F5F5F4F5D
:103100005093AC034093AB034091AD035091AE0399
:10311000220F331FF901E155FC4F51834083109278
:10312000AE031092AD0392E09093A70317C0909165
:10313000A703923061F4882309F4B9CF2091AD033D
:103140003091AE032536310548F093E0EDCF9091F4
:10315000A703933099F4882309F49ECF9091AA0392
:103160009923A9F0811126C08091A903882371F0C9
:103170008091A90361E00E94200309C09091A703F8
:10318000943061F791E090937904DFCF2D9AFF910D
:10319000EF91DF91CF91BF91AF919F918F917F91EF
:1031A0006F915F914F913F912F910F900FBE0F90B4
:1031B0001F9018958091A903882321F08091A9037D
:1031C00060E0D9CF2D98E3CFCF92DF92EF92FF92BC
:1031D0000F931F93E82FF92F05C001501109210902
:1031E000310961F1908196239417B9F305C001501C
:1031F00011092109310911F1908196239413F7CF18
:10320000C12CD12CE12CF12C0AC08FEFC81AD80A9E
:10321000E80AF80A0C151D052E053F0579F0808196
:103220008623841791F36C2D7D2D8E2D9F2D1F915C
:103230000F91FF90EF90DF90CF90089560E070E0E5
:1032400080E090E01F910F91FF90EF90DF90CF9082
:103250000895CF93DF93109201031092000388EE3C
:1032600093E0A0E0B0E08093020390930303A09367
:103270000403B09305032CE431E03093FF02209364
:10328000FE0225EC30E030930B0320930A0324EC7C
:1032900030E030930D0320930C0320EC30E03093AA
:1032A0000F0320930E0321EC30E0309311032093A1
:1032B000100322EC30E0309313032093120326EC2A
:1032C00030E03093150320931403109217031092EB
:1032D00018031092190310921A0310929E03109271
:1032E0009D0380939F039093A003A093A103B093A9
:1032F000A2038EE591E090939C0380939B038AE068
:1033000090E00E9455289093B8048093B70482E01F
:1033100090E00E9455289093B6048093B50482EC07
:1033200091E00E9455289093B4048093B30484E004
:103330008093A8031092AA0365E771E08DEA94E0F8
:103340000E94FF111092980410929F041092A604FC
:103350001092A7041092A8041092A90481E080930F
:10336000A5048093A2041092A30492E09093A40475
:103370008093970485E190E090939C0480939B0454
:103380000E9455289093A1048093A004009709F40B
:1033900073C025E1DC011D922A95E9F787E090E0F2
:1033A00090939A04809399048AE090E090939E040D
:1033B00080939D0480919804882341F061E08AE025
:1033C0000E947A0360E08AE00E942003E1E2F2E0DA
:1033D000E491F0E0EE0FFF1FE35FFD4F85919491C4
:1033E0009093AB048093AA04E3E0F2E0E491E093CD
:1033F000AC0486E08093910487E0809392048BE094
:1034000090E00E945528EC01E0E0F2E0E491EA87C8
:10341000EEE1F2E0E491F0E0EE0FFF1FE35FFD4F1D
:10342000859194919F838E8361E087E00E947A0367
:1034300086E090E09983888382E190E00E9455289D
:103440009B838A83892B21F488E791E00E94BE3018
:1034500030E020E048815981CA01880F991F840F0C
:10346000951F2817390788F4EA81FB81E20FF31FC3
:1034700010822F5F3F4FEECF10929C0410929B045E
:1034800010929A04109299048FCF0E9455289D8320
:103490008C83892B21F488E791E00E94BE3090E074
:1034A00080E0488159819A01220F331F240F351F74
:1034B0008217930738F4EC81FD81E80FF91F108221
:1034C0000196EFCFD0939404C0939304E0E8F4E026
:1034D00081E1DF011D928A95E9F780E480937A0407
:1034E0008BE993E090937C0480937B04DF91CF91F0
:1034F0000895CF93DF93CDB7DEB7E0970FB6F8947A
:10350000DEBF0FBECDBF789484B5826084BD84B524
:10351000816084BD85B5826085BD85B5816085BDCE
:1035200080916E00816080936E0010928100809186
:10353000810082608093810080918100816080930E
:103540008100809180008160809380008091B10033
:1035500084608093B1008091B00081608093B0005E
:1035600080917A00846080937A0080917A008260F2
:1035700080937A0080917A00816080937A008091B4
:103580007A00806880937A001092C100E0910E0367
:10359000F0910F0312E01083E0910A03F0910B0306
:1035A0001082E0910C03F0910D0380E18083109272
:1035B0001603E0911203F091130386E08083E091FB
:1035C0001003F0911103808180618083E0911003EA
:1035D000F0911103808188608083E0911003F09165
:1035E0001103808180688083E0911003F0911103C2
:1035F00080818F7D808385E090E0A0E0B0E08093C3
:10360000020390930303A0930403B093050380E6A1
:1036100091E00E94330A109292021092910210924D
:10362000AF021092AE020E943C048CE891E09093AD
:103630005902809358028DE891E090935B02809349
:103640005A0288E18093B800F8941092800089E0D3
:103650008093810080E293E09093890080938800BA
:10366000109285001092840010936F00789410924D
:10367000A7031092AC031092AB038091A80360E003
:103680000E947A0364E070E08DEA94E00E943811B1
:1036900080919D0490919E0497FD08C061E00E9476
:1036A0007A0360E080919D040E94200381E0809372
:1036B000980460919F04633329F12091A004309114
:1036C000A1046150C9F070E08FEF92E30E94882F4F
:1036D000F90140919B0450919C04CF01821B930BF4
:1036E0008417950760F44081469FC001479F900D65
:1036F000112490833196EDCF70E060E0E9CF83E351
:1037000080939F0484E991E00E94220A0E942F0A7C
:1037100039E7E32E32E0F32E00E110E0C8010E9409
:10372000150BD7018D937D010F5F1F4F00321105DF
:10373000A9F710929202109291021092AF02109289
:10374000AE020E943C048CE891E090935902809371
:1037500058028DE891E090935B0280935A0240E812
:1037600060E08AE794E00E943A076AE070E080E057
:1037700090E00E94E20340E050E06AE774E48AE7E8
:1037800094E00E94650920E4C22E28E7D22E2DE79E
:10379000E22EFF24F394C0927D04D0927E04E09246
:1037A0007F04F092800440E050E060E773E48AE731
:1037B00094E00E946509C0928304D0928404E09250
:1037C0008504F0928604C0927D04D0927E04E0923B
:1037D0007F04F09280040E94C70780E10E94AB033F
:1037E000BC01990F880B990B611571058105910535
:1037F00011F00E94152A8BE391E00E94330A90E0B9
:1038000080E08C010F5F1F4F885E9E4F0E94150B5A
:10381000080F111DC801885E9E4F0E94150B8E3443
:1038200019F0C8010496EDCF68E071E0C801865E2A
:103830009E4F0E9416118FEF93E00E947F1560ED5E
:1038400077E080E090E00E94E20385E591E00E944D
:10385000330A8EE491E00E94330A87E491E00E94EB
:10386000330A85E10E94AB038C018A389240E4F56B
:1038700080915C0290915D0208171907A9F582E614
:1038800091E00E94BC02C80163E670E00E949C2F98
:103890006B01072E000CEE08FF0877FF21C06DE2D8
:1038A0008EEF92E00E946F0266277727CB016C199A
:1038B0007D098E099F094AE00E94610A86E50E94FF
:1038C0003F0A81ED93E00E947F1560ED77E080E094
:1038D00090E00E94E20310935D0200935C02C1CF6E
:1038E0004AE0C701B601E8CF10935D0200935C0285
:1038F0008FB7F8944091950250919602609197028B
:10390000709198028FBF8091600290916102A091A6
:103910006202B0916302481B590B6A0B7B0B8091CA
:10392000010190910201092E000CAA0BBB0B841718
:103930009507A607B70708F00CC12FB7F894809138
:10394000950290919602A0919702B09198022FBF94
:103950008093600290936102A0936202B09363022D
:10396000109202011092010161E0809191040E9485
:103970007A0360E0809191040E94200383E090E04C
:103980000197F1F761E0809191040E9420038BE49C
:1039900090E00197F1F760E0809191040E9420038C
:1039A00060E0809191040E947A038091910490E0FC
:1039B000FC01E750FE4F6491FC01E95EFD4FE4918C
:1039C000F0E0EE0FFF1FE359FE4F8591949100E464
:1039D00012E42FE030E0462F0E94E41861157105D3
:1039E0008105910529F06F5F7F4F8F4F9F4F9F702B
:1039F0008B019C0102501109210931090E351A4E23
:103A00002105310508F50E94BA2A20E030E048E699
:103A100052E40E94FB2C0E94742D709396046093D4
:103A2000950480EA91E00E94220A609195047091C9
:103A3000960490E080E04AE00E94610A8EEA91E0FC
:103A40000E94220A0E942F0A009195041091960468
:103A500010935F0200935E020038F2E01F0709F442
:103A600078C00D3311050CF4F0C082E3C82ED12CC0
:103A7000E12CF12C9E2D8D2D7C2D66279601112792
:103A80000027602B712B822B932B6C297D298E298B
:103A90009F290E94F81242E1C416D104E104F10406
:103AA0000CF4CEC060E071E080E090E0A7019601E8
:103AB0000E94EF2BCA01B9010E94E20351E0C51A2E
:103AC000D108E108F10884E0C816D104E104F1044A
:103AD00089F6B5E0CB2ED12CE12CF12CC60177274D
:103AE00066273E2D2D2D1C2D0027602B712B822B40
:103AF000932B6C297D298E299F290E94F81222E19F
:103B000030E040E050E092E1C916D104E104F10454
:103B100044F060E071E080E090E0A70196010E942F
:103B2000EF2BCA01B9010E94E203AFEFCA1ADA0A09
:103B3000EA0AFA0AB2E3CB16D104E104F10471F601
:103B400088EE93E0909302018093010181E08093DD
:103B500004018FEA93E09093720280937102809146
:103B6000AB039091AC0390937402809373028091A5
:103B7000790490E090937602809375028091A70378
:103B8000833009F0D6C28091B1039091B203875877
:103B900091098E35910508F0C6C28091AB039091D2
:103BA000AC03049709F08EC28091B3039091B403E3
:103BB0008097479708F086C28091B5039091B6032D
:103BC0000997099708F07EC21092700210926F0256
:103BD0008FEF9FEFDC018093690290936A02A093BC
:103BE0006B02B0936C0283E090E090936602809346
:103BF00065028091690290916A02A0916B02B09176
:103C00006C02892F9A2FAB2FBB27823609F410C480
:103C100008F0E4C3803309F41AC408F0C9C3803142
:103C200009F41EC408F072C36FEA71E0823009F42F
:103C300075C36CEC71E0CE0181960E94FF1172C3D6
:103C400022E130E040E050E035CF093211050CF4BC
:103C5000AEC060E070E0CB010E94F81220E03FEFC0
:103C60004FEF50E061E080919304909194040E94A2
:103C7000E50620E03FEF4FEF50E064E080919304D1
:103C8000909194040E94E50680919304909194048D
:103C90000E94A61264E670E080E090E00E94E203D9
:103CA00020E030E0A90161E08091930490919404B8
:103CB0000E94E50620E030E0A90164E080919304D1
:103CC000909194040E94E50620E03FEF4FEF50E012
:103CD00062E080919304909194040E94E50620E0B4
:103CE0003FEF4FEF50E065E0809193049091940492
:103CF0000E94E50680919304909194040E94A6127C
:103D000064E670E080E090E00E94E20320E030E0B2
:103D1000A90162E080919304909194040E94E506C9
:103D200020E030E0A90165E0809193049091940433
:103D30000E94E50620E03FEF4FEF50E063E0809106
:103D40009304909194040E94E50620E03FEF4FEF2A
:103D500050E066E080919304909194040E94E506FF
:103D600080919304909194040E94A61264E670E0FE
:103D700080E090E00E94E20320E030E0A90163E0EF
:103D800080919304909194040E94E50620E030E035
:103D9000A90166E080919304909194040E94E50645
:103DA00080919304909194040E94A612D2CE023086
:103DB0001105ACF48BE680938C0261EB71E080918D
:103DC000B7049091B8040E94A93086E080938B02DA
:103DD00080ED97E09093020180930101BACE043008
:103DE00011050CF096C013E060E070E0CB010E947A
:103DF000F81264E170E080E090E00E94E20360E08D
:103E000070E08FEF90E00E94F812115069F70E9465
:103E1000C6292B013C010E94C6294B015C0110916F
:103E20005E02110F0E94C6296B017C01C301B20121
:103E30002AE030E040E050E00E94EF2B0CED060F4E
:103E4000C501B4012AE030E040E050E00E94EF2BD1
:103E500072EDB72EB60EC701B60123E030E040E0A8
:103E600050E00E94EF2B862F202F4B2D612F8F5F6C
:103E70000E94D50789E480938C021A82198281E01E
:103E80008B8382E08D83109106010E94C629E4E1B4
:103E9000CE2ED12CE12CF12CA70196010E94EF2B04
:103EA0001A50610F6A83109108010E94C629A70168
:103EB00096010E94EF2B1A50610F6C8310910A013A
:103EC0000E94C62920E530E040E050E00E94EF2B40
:103ED0001852610F6E8386E090E090937802809391
:103EE00077026091B3047091B404CE010196DB01B6
:103EF0009B012A5F3F4FFC014191CF014D93A217D7
:103F0000B307C9F7DB0116961C9286E080938B02FB
:103F100020CE0630110594F460E070E08FEF90E061
:103F20000E94F8128BE680938C0264EB71E0809122
:103F3000B7049091B8040E94A930E7CF0650110948
:103F400010935F0200935E0270E060E0073011059D
:103F50002CF0C80167E070E00E949C2F660F771F6D
:103F6000660F771FFB01E05DFE4F608171818281EA
:103F700093810E94F8128CE480938C02FE013596A6
:103F80008CE1DF011D928A95E9F7809106019091FD
:103F90000701880F991F63E070E00E949C2FC80101
:103FA00017FD019695958795681B790B7A83698330
:103FB0008091080190910901880F991F63E070E0DA
:103FC0000E949C2F6A507109C80195958795680FCA
:103FD000791F7C836B83C801880F991F080F191FF5
:103FE000025311090E94C62922E330E040E050E06C
:103FF0000E94EF2B16161706180619060CF45DC062
:104000000E94C62922E030E040E050E00E94EF2B01
:104010006150710981099109069FC001079F900DA8
:10402000169F900D11249E838D8320915E02309106
:104030005F02C90137FD0196959587950F969A8B7A
:10404000898B9C8B8B8BC901CC979E8B8D8B988F8A
:104050008F8B81E490E0821B930B9A8F898F9C8FCA
:104060008B8F8AE090E0821B930B9E8F8D8F98A39D
:104070008F8F80E190E09093780280937702609137
:10408000B3047091B404DB019E012F5F3F4F40E009
:10409000F901819191919F018F3791058CF48038BE
:1040A000FFEF9F0714F480E89FEF8D934F5F40313F
:1040B00079F7DB0150961C9228CF61E070E0ACCF1D
:1040C0008FE7F3CF8091AB039091AC0384349105DB
:1040D00050F18091B3039091B403815491098F976B
:1040E00010F590E080E040E050E0BA01FC01EB54B4
:1040F000FC4F20813181295031092930310598F454
:10410000FC01E954FC4F20813181275131092231D2
:10411000310508F4DDC02081318126503109273076
:10412000310508F4EEC01092A7031092AC03109270
:10413000AB038EEF92E00E942D02181619068CF543
:1041400082E080938B028EEF92E00E94CB01182FC9
:1041500080938C0261E070E080E090E00E94E203D6
:104160001B3409F016C2E090B304F090B40410E0E0
:1041700000E08EEF92E00E942D02892B51F08EEF2D
:1041800092E00E94CB01F701E00FF11F80830F5FE7
:104190001F4FF8013197EE0DFF1D80818E3749F7D3
:1041A000108260918B02662309F4AAC2F0908C02FF
:1041B000653010F5F2E6FF16F9F04CE4F416E1F084
:1041C00059E4F516C9F08CE88F0D8230A8F070E044
:1041D0006B5F7F4F660F771F072E000C880B990BC4
:1041E0000E94BC2AEE24E39410E000E020E030E0DE
:1041F00048E452E40E94091380918A028356823077
:1042000050F483E6F81639F088EB9BE00E945509DC
:1042100087E40E943F0A80918C02803751F08091A0
:104220008902811106C081E08093890280E70E94A3
:104230003F0AF0908C02E6ECEF0DE13408F004C286
:104240000E2E000CFF0BE95DFE4D0C94B02F5E2787
:1042500059272423242324232423242324236026AE
:104260002423242324232423242324231326242324
:10427000AF26532613262423242324232423242354
:104280009C249F26242324232423242324232423FF
:1042900024232423242324232423242386249C240A
:1042A0009C24612724232423242324239C24F523D2
:1042B000432724239C2424232824E2232423242367
:1042C0002D249C249C2424232423242324231823C6
:1042D000440F551F661F771F416004968038910573
:1042E00009F004CF80E290E09093700280936F0217
:1042F0004093690250936A0260936B0270936C0260
:1043000072CC440F551F661F771FE7CF883109F421
:10431000A1C067EB71E0823209F08BCCCE018196AF
:104320000E94401268EB71E0CE0181960E94C70A9C
:10433000882309F4A1C061EB71E08DEA94E00E944A
:10434000C9116DEA74E0CE0187960E94AD11CE01CD
:1043500081960E941A0A6CEC71E0CE0187960E9449
:10436000C70A81111AC00091B7041091B8046FA157
:1043700078A5C8010E94A930F80101900020E9F752
:10438000CF0102978017910709F001C1D8018C91E4
:1043900080938C0281E080938B021092A70310928D
:1043A000AC031092AB03CE0187960E941A0AC1CECD
:1043B0008A3409F45BC048F4883309F454C063E8D4
:1043C00071E0823409F4AACF34CC823509F451C0AB
:1043D00069E871E08A3509F4A1CF2BCC823A29F142
:1043E00088F48A37D1F130F464EA71E0883609F450
:1043F00095CF1FCC803941F161EA71E0883909F429
:104400008DCF17CC823CB9F040F4883AD1F06EE9F8
:1044100071E0803B09F482CF0CCC803E79F069EBEF
:1044200071E0823E09F47ACF04CC6DEB71E076CF77
:104430006BEB71E073CF6DEA71E070CF6BEA71E006
:104440006DCF69EA71E06ACF67EA71E067CF6BE927
:1044500071E064CF67E971E061CF63E971E05ECF3D
:1044600060E971E05BCF6DE871E058CF6CE771E017
:1044700055CF67E771E052CF6AEB71E0CE018196CC
:104480000E94C70A811110C06CEB71E0CE018196C9
:104490000E94C70A811108C06EEB71E0CE018196BF
:1044A0000E94C70A8823D1F18DA19EA1892B21F0FA
:1044B000E9A1FAA1309721F410926402E4E6F2E057
:1044C000108110930301163431F465E771E08DEA31
:1044D00094E00E94C9116DEA74E0CE0101960E9439
:1044E000AD111FA318A641E050E0BE01695D7F4FEA
:1044F000CE0101960E946011811104C0CE01019687
:104500000E94080ABE016F5F7F4FCE0187960E940E
:10451000AD11CE0101960E941A0A19CF60EC71E02C
:10452000CE0181960E94C70A81111EC063EC71E022
:10453000CE0181960E94C70A811116C065E771E01D
:10454000CE0181960E94C70A81110EC018A61FA233
:104550001AA619A61CA61BA6BE016F5D7F4FCE0131
:1045600087960E94DC0AF3CE69A17AA161157105D4
:1045700049F04DA15EA18DEA94E00E948C1110914A
:104580000301A9CF8DEA94E00E94080AF8CF8BE6D8
:10459000FFCE8EEF92E00E942D02181619060CF045
:1045A00069C56CEC71E0CE0181960E94FF1119344F
:1045B00039F084EB810F823018F06AE0123409F48C
:1045C0006EE7CE0101960E941012BE016F5F7F4F11
:1045D000CE0181960E94DC0ACE0101960E941A0A41
:1045E0002DA13EA130937802209377021B3631F043
:1045F0008091B3049091B404143721F48091B704EE
:104600009091B80449A15AA1DC01FA01BF01641BD1
:10461000750B621773071CF461916D93F7CF820FCE
:10462000931FFC011082CE0181960E941A0AB9CD17
:104630008091040191E0892780930401882311F07F
:104640002AE5F22EF0928C0280918C028B3621F4B6
:1046500090919D021916E4F40E943F0A10918C0279
:10466000812F012E000C990B0E948230873631F089
:10467000863721F0823611F01A3621F480918A02B1
:104680008B3619F01B7F103719F48BE680938C0260
:104690000091B7041091B80462ED71E0C8010E9466
:1046A000A030F0908C02892B09F1F9E4FF16F1F0AB
:1046B00085EB8F0D8330D0F08091B5049091B604D6
:1046C000009711F00E94F12881E090E00E945528A7
:1046D000F80101900020E9F7E01BDC01EC939093D6
:1046E000B6048093B504B8010E94A93010928B02E1
:1046F000F0928A028F2D877F833611F010928C0200
:1047000080918C028B3609F065C410919D0217FFD1
:10471000EAC3D090AA02DA9410E082E3C82E212FD7
:1047200030E080919D02082E000C990B97FF03C08A
:10473000919581959109281739070CF04BC4E090A9
:10474000AC02F090AD028091A202189FE00CF11C27
:104750001124F7016089062E000C770B880B990B4A
:104760000E94BC2A20E030E040E85EE30E941B2B60
:104770009B01AC0100E06091A702C7010E942A0ED4
:104780008091A202E091AC02F091AD02189FE00D81
:10479000F11D11242189022E000C330BAC2D0C2CA1
:1047A000000CBB0B0E94B62F0E94E2038091A9026D
:1047B000181306C01D1424F41091A8021150DA94A5
:1047C0001F5FADCF8091890291E0811190E09093BD
:1047D0008902882311F090E5F92EF0928C0288234B
:1047E00009F432CF0E94C7072FCF0E94A50A6CECB4
:1047F00071E0CE0181960E94FF1106E011E0D80120
:104800006D917D918D01CE0101960E94D3114D8154
:104810005E8169817A81CE0181960E946011CE010C
:1048200001960E941A0A42E050E06AEC71E0CE0163
:1048300081960E946011B1E006321B0701F7CE019C
:1048400081960E944E0ACE0181960E941A0AFCCEE1
:1048500086EC93E00E947F15F7CE81EF91E00E94F5
:10486000330A09E7802E02E0902E80E4E82EF12C36
:1048700000E110E0F401D1904F01C8010E94D92B52
:10488000D81621F06D2DC8010E94E12BC7010E94AE
:10489000A80B6C01C80180960E94150BB82EF4017C
:1048A00031976081062E000C770B880B990B0E94C4
:1048B000BC2A2B013C016B2DBB0C770B880B990B91
:1048C0000E94BC2A9B01AC01C301B2010E941B2BB8
:1048D0002B013C01B601DD0C880B990B0E94BC2A10
:1048E0009B01AC01C301B2010E948A2C0E946D2D74
:1048F000C70180960E9416110F5F1F4FF2E0EF0E66
:10490000F11C0032110509F0B5CF9ECE89EE91E081
:104910000E94330A19E7E12E12E0F12E00E110E0C7
:10492000C8010E94150BD7018D937D010F5F1F4FAA
:1049300000321105A9F788CEE6E0F1E0DE0111961C
:1049400086E291E0219131912D933D938E179F073F
:10495000C9F7B4E78091B7049091B804FB1621F031
:104960008091B3049091B40466EC71E00E944C2AEB
:104970001C012114310409F4D3C0C1010E941E2A74
:104980008C0169EC71E090E080E00E944C2A1C01EF
:10499000F12CE12CBB24B394009761F00E941E2AF5
:1049A0007C0169EC71E090E080E00E944C2A1C01DF
:1049B000B2E0BB2EF801EE0FFF1F41E050E04C0FBC
:1049C0005D1FE40FF51FF182E08280918C02833637
:1049D00009F0ACC088EB9CE00E94550910920401DC
:1049E00080918A02833661F0C090B704D090B804F9
:1049F0006FE671E0C6010E94A930C6010E94B80F9F
:104A0000C80187589D4F6C0192E0B91202C0D601CF
:104A1000EC92C8018096880F991F0E94A80B7C0118
:104A2000C8019927C0960E94150B182FF6016081C6
:104A3000062E000C770B880B990B0E94BC2A4B01A9
:104A40005C01612F110F770B880B990B0E94BC2A18
:104A50009B01AC01C501B4010E941B2B4B015C0101
:104A6000B701FF0C880B990B0E94BC2A9B01AC017B
:104A7000C501B4010E948A2C0E946D2D072E000CE6
:104A8000880B990B0E94BC2AAB01BC01802F0E94AD
:104A9000BC0B0E94A50A6CEC71E0CE0187960E94C7
:104AA000FF1109E712E0D8016D918D01062E000C6F
:104AB000770BCE0181960E94D3114DA15EA169A111
:104AC0007AA1CE0187960E946011CE0181960E9444
:104AD0001A0A42E050E06AEC71E0CE0187960E942B
:104AE0006011E9E8F2E0E017F107E9F6CE018796F8
:104AF0000E944E0ACE0187960E941A0A21143104A0
:104B000009F037CF80918C02893609F09DCD40E0C5
:104B100050E060E070E4CE0101960E94D10C94CD8B
:104B2000F12CE12C10E000E0B12C44CF8D3649F49B
:104B300040E050E060E070E4CE0101960E94D10CAC
:104B4000DDCF833541F4C80199270E94150BB701C9
:104B50000E940909D3CF843789F2853709F049C00B
:104B60000E94C6292B013C010E94C6294B015C0111
:104B70000E94C6296B017C010E94C6296DA77EA7F1
:104B80008FA798ABC301B2012AE030E040E050E0CB
:104B90000E94EF2B1CED160FC501B4012AE030E096
:104BA00040E050E00E94EF2B02ED060FC701B60176
:104BB00024E030E040E050E00E94EF2BDC01CB012C
:104BC0000296A11DB11DF82EFF0CFF0CF80E6DA56D
:104BD0007EA58FA598A922E030E040E050E00E9439
:104BE000EF2B862F212F402F6F2D8F5F0E94D5072F
:104BF00085CF823609F082CFB701FF0C880B990B65
:104C00000E94BC2A4B015C01B801110F880B990B63
:104C10000E94BC2AEE24E39402E310E0A501940173
:104C20000E9409136BCFE6E0F1E0DE01119686E207
:104C300091E07D01219131912D933D938E179F0736
:104C4000C9F710E000E020918C02809177029091EA
:104C5000780208171907F4F4A091B304B091B404D2
:104C6000A00FB11FEC91EE0FFF0BEE0DFF1D119683
:104C70008C91082E000C990B918380832D3439F48C
:104C800040E050E060E070E4C7010E94D10C0E5F8C
:104C90001F4FD9CF293409F0D7CC40E050E060E075
:104CA00070E4C7013ACF00E020E030E040E050E49B
:104CB00061E08091B3049091B4040E942A0EC4CCA8
:104CC000F12C68EEC62E63E0D62E2F2D30E08091B9
:104CD00077029091780297FD019695958795281710
:104CE00039070CF0CCC10091B3041091B404220F29
:104CF000331F020F131FD80111966C91062E000C62
:104D0000770BC6010E949C2F072E000C880B990B75
:104D10000E94BC2A4B015C01F8016081062E000C48
:104D2000770B880B990B0E94BC2AEE24E39410E0C9
:104D300000E0A50194010E940913F394C6CF86E117
:104D400091E00E94A80B0E9461080E94A30F80912D
:104D50008C020E943F0A8BE680938C0275CC84E122
:104D600091E00E94A80B8C010E94C6296B017C0176
:104D700084E191E00E94A80B092E000CAA0BBB0B4A
:104D80002CE03EE140E050E0281B390B4A0B5B0B66
:104D9000C701B6010E94EF2B7801E60EF71EB7019E
:104DA00086E191E00E9416114090B3045090B40443
:104DB000D2016C9160939D0282EA92E00E946A07A0
:104DC00001966C01B12CA12C11E004E51C141D040A
:104DD0009CF51093B1020093B0021092AF021092B2
:104DE000AE026F2D70E08BE993E00E948707B70158
:104DF00077278BE993E00E94870742018A0C9B1C6E
:104E00003701B0E16B0E711CE114E0E2FE06B9F46B
:104E10000E942F0A8FEB91E00E94330A92E0E92E64
:104E200002E310E020E030E048EC52E460E070E0A3
:104E300080E291E40E9409130E94A30F8CCFFFEF40
:104E4000AF1ABF0AD4016D914D018BE993E00E9426
:104E50009A05BFEFEB1AFB0AE1E0CE1AD10841F048
:104E6000C7018F719927892B19F06E147F0461F6A1
:104E70008BE993E00E94C90566E070E080E090E075
:104E80000E94E203A3CF0091B7041091B804B801C7
:104E90008091B5049091B6040E94A030892B29F42A
:104EA00080919D0282300CF0E8C0C8010E94B80FCA
:104EB000CBCB88EB9BE00E945509C6CB88EB9CE0EE
:104EC000FACF0091B7041091B8046DEC71E0C801FD
:104ED0000E94A930C8010E94B80F0E94C70787E648
:104EE0000E943F0AB1CB80919902803108F49EC0A4
:104EF000209193023091940210929902809189023C
:104F0000820F932F911D212F012E000C330B82173E
:104F100093070CF087C090939402809393020091C2
:104F200099022091AB02C0909302D0909402E02E9F
:104F3000F12C021708F083C012300CF480C0812CD1
:104F4000912C5401013059F060919C02062E000C06
:104F5000770B880B990B0E94BC2A4B015C01F2E095
:104F6000EF0EF11CEC9CB001ED9C700DFC9C700DE3
:104F70001124072E000C880B990B0E94BC2A2BEDE4
:104F80003FE049E450E40E941B2B6B017C01612F40
:104F9000110F770B880B990B0E94BC2A9B01AC0167
:104FA000C701B6010E94FB2C0E94372E20E030E0A2
:104FB00040E251E40E941B2BA50194010E948A2C1F
:104FC000AB01BC01802F0E942B0C809199028F5F56
:104FD0008093990280919D0287FF14C00091B704CD
:104FE0001091B80465ED71E0C8010E94A930F80184
:104FF0008081882319F0C8010E94B80F80918C022B
:105000000E943F0A80E090E0892B11F40C94311C3F
:105010000E943902882311F40C94311C0E94000074
:105020000C94311C10929402109293028091990278
:10503000843009F074CF88E08093990270CF30916A
:10504000A2023C9DC0013D9D900D1124E80EF91E69
:10505000E21AF1088091AC029091AD02E80EF91EBF
:10506000D7016C91062E000C770B880B990B0E94D0
:10507000BC2AA6CF60918B0299C88F2DE9CA809176
:105080008C02EACA8091A0049091A1040E94F128A8
:1050900080919D0490919E0497FD03C060E00E9462
:1050A0007A038DEA94E00C941A0A0F931F93CF931E
:1050B000DF938230910510F482E090E0E091BD042E
:1050C000F091BE0430E020E0B0E0A0E0309799F429
:1050D0002115310509F44AC0281B390B243031054C
:1050E000D8F58A819B816115710589F1FB01938354
:1050F0008283FE0111C040815181028113814817D2
:105100005907E0F04817590799F4109761F0129683
:105110000C93129713961C933296CF01DF91CF9187
:105120001F910F9108950093BD041093BE04F4CF16
:105130002115310551F04217530738F0A901DB0161
:105140009A01BD01DF01F801C1CFEF01F9CF9093C2
:10515000BE048093BD04CDCFFE01E20FF31F819307
:1051600091932250310939832883D7CF2091BB04F2
:105170003091BC04232B41F4209128013091290166
:105180003093BC042093BB04209126013091270169
:105190002115310541F42DB73EB740912A015091B8
:1051A0002B01241B350BE091BB04F091BC04E217EA
:1051B000F307A0F42E1B3F0B2817390778F0AC013A
:1051C0004E5F5F4F2417350748F04E0F5F1F509317
:1051D000BC044093BB04819391939FCFF0E0E0E047
:1051E0009CCFCF93DF930097E9F0FC0132971382B5
:1051F0001282A091BD04B091BE04ED0130E020E028
:105200001097A1F420813181820F931F2091BB045C
:105210003091BC042817390709F061C0F093BC0431
:10522000E093BB04DF91CF910895EA01CE17DF0729
:10523000E8F54A815B819E0141155105B1F7E9010D
:10524000FB83EA8349915991C40FD51FEC17FD07E1
:1052500061F4808191810296840F951FE901998301
:105260008883828193819B838A83F0E0E0E01296B9
:105270008D919C9113970097B9F52D913C911197C1
:10528000CD010296820F931F2091BB043091BC0484
:105290002817390739F6309751F51092BE0410924D
:1052A000BD04B093BC04A093BB04BCCFD383C28322
:1052B00040815181840F951FC817D90761F44E5F53
:1052C0005F4F88819981480F591F518340838A819C
:1052D0009B81938382832115310509F0B0CFF09330
:1052E000BE04E093BD049ECFFD01DC01C0CF13825C
:1052F0001282D7CF8F929F92AF92BF92CF92DF92BE
:10530000EF92FF92CF93DF93EC01688179818A81DC
:105310009B81611571058105910521F464E279EDA8
:105320008BE597E02DE133EF41E050E00E94EF2B59
:1053300049015A019B01AC01A7EAB1E40E940E2C7D
:105340006B017C01ACEEB4EFA50194010E941C2C12
:10535000C60ED71EE81EF91EF7FE06C081E0C81A69
:10536000D108E10880E8F80AC882D982EA82FB8283
:10537000C701B6019F77DF91CF91FF90EF90DF904B
:10538000CF90BF90AF909F908F9008958F929F92F3
:10539000AF92BF92CF92DF92EF92FF9260912C0179
:1053A00070912D0180912E0190912F016115710551
:1053B0008105910521F464E279ED8BE597E02DE11B
:1053C00033EF41E050E00E94EF2B49015A019B016D
:1053D000AC01A7EAB1E40E940E2C6B017C01ACEE9B
:1053E000B4EFA50194010E941C2CC60ED71EE81E26
:1053F000F91EF7FE06C081E0C81AD108E10880E86E
:10540000F80AC0922C01D0922D01E0922E01F09268
:105410002F01C701B6019F77FF90EF90DF90CF90EB
:10542000BF90AF909F908F90089560932C017093E0
:105430002D0180932E0190932F010895FC01882760
:105440009927E89421912032E9F3293010F02E3089
:10545000C8F32B3241F02D3239F4689404C00E9415
:10546000832A820F911D219120532A30C0F31EF40C
:10547000909581959F4F0895FB01DC0105900D9259
:105480000020E1F70895FC0105900020E9F78095E0
:1054900090958E0F9F1F089549EB54E00E94512A6A
:1054A0000895FA01A191B081009719F41097E1F0E5
:1054B000CD01DC01CD010D90002011F4C00113C01D
:1054C000FB012191222319F02015D9F7F3CFFB011D
:1054D0002191201519F41E92119606C02223C1F7BE
:1054E0000D900020A1F7D001FA01A193B083089597
:1054F000BB274A3031F4992322F4BDE2909581957F
:105500009F4F0C948C2A7AE0979F902D879F802D37
:10551000910D11240895BB27FB015527AA27880F59
:10552000991FAA1FA41710F0A41B83955051B9F717
:10553000A05DAA3308F0A95DA193009779F7B11196
:10554000B1931192CB010C94A52ADC01FC01672FC9
:1055500071917723E1F7329704C07C916D9370834A
:105560006291AE17BF07C8F308950E94F72A08F4A6
:1055700081E00895E89409C097FB3EF490958095EA
:10558000709561957F4F8F4F9F4F9923A9F0F92F09
:1055900096E9BB279395F695879577956795B79587
:1055A000F111F8CFFAF4BB0F11F460FF1BC06F5F6D
:1055B0007F4F8F4F9F4F16C0882311F096E911C07F
:1055C000772321F09EE8872F762F05C0662371F0A0
:1055D00096E8862F70E060E02AF09A95660F771FB4
:1055E000881FDAF7880F9695879597F90895990F90
:1055F0000008550FAA0BE0E8FEEF16161706E8079D
:10560000F907C0F012161306E407F50798F0621BBD
:10561000730B840B950B39F40A2661F0232B242B92
:10562000252B21F408950A2609F4A140A6958FEFB1
:10563000811D811D08950E942E2B0C949F2B0E948A
:10564000912B38F00E94982B20F0952311F00C94A8
:10565000882B0C948E2B11240C94D32B0E94B02BEE
:1056600070F3959FC1F3950F50E0551F629FF001B5
:10567000729FBB27F00DB11D639FAA27F00DB11DCE
:10568000AA1F649F6627B00DA11D661F829F222757
:10569000B00DA11D621F739FB00DA11D621F839FDE
:1056A000A00D611D221F749F3327A00D611D231FB4
:1056B000849F600D211D822F762F6A2F11249F5702
:1056C00050409AF0F1F088234AF0EE0FFF1FBB1F05
:1056D000661F771F881F91505040A9F79E3F5105C4
:1056E00080F00C94882B0C94D32B5F3FE4F3983E0E
:1056F000D4F3869577956795B795F795E7959F5F6E
:10570000C1F7FE2B880F911D9695879597F90895FF
:1057100097F99F6780E870E060E008959FEF80EC64
:10572000089500240A941616170618060906089507
:1057300000240A9412161306140605060895092E6D
:105740000394000C11F4882352F0BB0F40F4BF2BDC
:1057500011F460FF04C06F5F7F4F8F4F9F4F08951C
:1057600057FD9058440F551F59F05F3F71F0479512
:10577000880F97FB991F61F09F3F79F087950895F7
:10578000121613061406551FF2CF4695F1DF08C016
:10579000161617061806991FF1CF86957105610533
:1057A00008940895E894BB2766277727CB0197F9DB
:1057B0000895F999FECF92BD81BDF89A992780B5D9
:1057C0000895262FF999FECF1FBA92BD81BD20BD45
:1057D0000FB6F894FA9AF99A0FBE01960895052E1D
:1057E00097FB1EF400940E94062C57FD07D00E94E0
:1057F000582C07FC03D04EF40C94062C5095409581
:10580000309521953F4F4F4F5F4F0895909580956C
:10581000709561957F4F8F4F9F4F08950E947A2C0E
:10582000A59F900DB49F900DA49F800D911D1124F4
:105830000895B7FF0C940E2C0E940E2C821B930B24
:1058400008952F923F924F925F926F927F928F9224
:105850009F92AF92BF92CF92DF92EF92FF920F93FF
:105860001F93CF93DF93CDB7DEB7CA1BDB0B0FB609
:10587000F894DEBF0FBECDBF09942A8839884888C6
:105880005F846E847D848C849B84AA84B984C8845C
:10589000DF80EE80FD800C811B81AA81B981CE0F53
:1058A000D11D0FB6F894DEBF0FBECDBFED01089538
:1058B000A1E21A2EAA1BBB1BFD010DC0AA1FBB1F14
:1058C000EE1FFF1FA217B307E407F50720F0A21B86
:1058D000B30BE40BF50B661F771F881F991F1A94F3
:1058E00069F760957095809590959B01AC01BD011D
:1058F000CF010895A29FB001B39FC001A39F700D77
:10590000811D1124911DB29F700D811D1124911DC7
:1059100008955058BB27AA270E94A12C0C949F2BB6
:105920000E94912B38F00E94982B20F039F49F3F71
:1059300019F426F40C948E2B0EF4E095E7FB0C94EE
:10594000882BE92F0E94B02B58F3BA176207730710
:105950008407950720F079F4A6F50C94D22B0EF469
:10596000E0950B2EBA2FA02D0B01B90190010C016F
:10597000CA01A0011124FF27591B99F0593F50F487
:10598000503E68F11A16F040A22F232F342F4427DF
:10599000585FF3CF469537952795A795F0405395D7
:1059A000C9F77EF41F16BA0B620B730B840BBAF0A7
:1059B0009150A1F0FF0FBB1F661F771F881FC2F712
:1059C0000EC0BA0F621F731F841F48F48795779526
:1059D0006795B795F7959E3F08F0B0CF9395880FE0
:1059E00008F09927EE0F9795879508950E94A52DA9
:1059F000E3950C94CE2D0E940F2D0C949F2B0E94AA
:105A0000982B58F00E94912B40F029F45F3F29F029
:105A10000C94882B51110C94D32B0C948E2B0E9438
:105A2000B02B68F39923B1F3552391F3951B550BD4
:105A3000BB27AA2762177307840738F09F5F5F4F61
:105A4000220F331F441FAA1FA9F335D00E2E3AF0A0
:105A5000E0E832D091505040E695001CCAF72BD0B8
:105A6000FE2F29D0660F771F881FBB1F2617370709
:105A70004807AB07B0E809F0BB0B802DBF01FF273B
:105A800093585F4F3AF09E3F510578F00C94882B65
:105A90000C94D32B5F3FE4F3983ED4F3869577952F
:105AA0006795B795F7959F5FC9F7880F911D9695F4
:105AB000879597F90895E1E0660F771F881FBB1F50
:105AC000621773078407BA0720F0621B730B840BFD
:105AD000BA0BEE1F88F7E09508950E94742D689424
